:020000040800F2
:1000000000330220C1010008FF410108A9110108C5
:10001000FD41010865120008E736020800000000F3
:10002000000000000000000000000000C98001087E
:100030009166000800000000E14201088585010882
:10004000DB010008DB010008DB010008DB01000820
:10005000DB010008DB010008DB010008DB01000810
:10006000DB010008DB010008DB010008DB01000800
:10007000DB010008DB010008DB010008DB010008F0
:10008000DB010008DB010008DB010008DB010008E0
:10009000DB010008DB010008DB010008DB010008D0
:1000A000DB010008DB010008DB010008DB010008C0
:1000B000DB010008DB010008DB010008DB010008B0
:1000C000DB010008DB010008DB010008DB010008A0
:1000D000DB010008AD1E0208DB010008DB0100089F
:1000E000DB010008DB010008DB010008DB01000880
:1000F000DB010008DB010008DB010008DB01000870
:10010000DB010008F1670108DB010008DB010008E2
:10011000DB010008DB0100081D860108DB01000887
:10012000DB010008DB010008DB010008993A000848
:10013000DB010008DB010008DB010008DB0100082F
:10014000DB010008DB010008DB010008A542010813
:10015000DB010008DB010008DB010008DB0100080F
:10016000DB010008DB010008BD420108B1420108C3
:10017000DB010008C9420108DB010008DB010008BF
:10018000DB010008DB010008DB010008DB010008DF
:10019000DB010008DB010008DB010008DB010008CF
:1001A000DB010008DB010008DB010008DFF80CD0F0
:1001B00000F046FC00480047255F0208003302209B
:1001C0000648804706480047FEE7FEE7FEE7FEE7F1
:1001D000FEE7FEE7FEE7FEE7FEE7FEE7C185010872
:1001E000AD0100082DE9F05F0546002092469B46D0
:1001F00088460646814640241BE02846414647463D
:10020000224600F0ECF953465A46C01A914110D3E9
:1002100011461846224600F0D3F92D1A67EB010863
:100220004F4622460120002100F0CAF917EB0009D1
:100230004E41201EA4F10104DFDC484631462A4627
:100240004346BDE8F09FD2B201E000F8012B491E01
:10025000FBD270470022F6E710B513460A46044663
:100260001946FFF7F0FF204610BD421E12F8013F6D
:10027000002BFBD111F8013B02F8013B002BF9D117
:10028000704710B5044604E00B7800F8013B03B159
:10029000491C521EF8D2204610BD421C10F8011B0A
:1002A0000029FBD1801A704710B5002200E0521CD3
:1002B000835C8C5CA34201D1002BF8D1D8B2E1B2AF
:1002C000401A10BD034611F8012B00F8012B002A3B
:1002D000F9D11846704770B5064624F0B9F904689C
:1002E00005460A220021304600F0EAF92C6070BD74
:1002F0002DE9FE4F804681EA0300C00F0C460090B6
:1003000021F0004123F00045B8EB0200A94105D2DD
:100310004046214690461C460B46024623F00040CC
:10032000104347D0270DC7F30A00C3F30A510290C8
:10033000401A019040286BDAC3F3130040F4801B8D
:100340000098924620B10023D2EB030A63EB0B0B1B
:1003500001985946C0F14002504600F031F9064676
:100360000D4650465946019A00F049F910EB080035
:100370006141002487EA115284EAE7731A4340D0AE
:10038000009A62B3019A012A4FEA075215DC001B5A
:1003900061EB02014FF0004202EA0752CDE9004250
:1003A000001C41F5801132462B4600F007FA03B0DD
:1003B000BDE8F08F40462146F9E7001B61EB0201E2
:1003C000001C41F5801300185B412018A2F50017AE
:1003D00047EB030140EAD570B6196D4111E06D0895
:1003E0004FEA360645EAC0754FEA0752001B61EB3B
:1003F0000201001C41F5801149084FEA3000001944
:10040000514132462B4603B0BDE8F04F00F0C7B96A
:100410000098012240000023D0EB020263EBE0735E
:10042000009821464FEAE074B8EB000061EB04014C
:10043000E9E783F000435BE781F0004158E72DE9ED
:10044000F04D81EA030404F0004B21F0004514460E
:100450004FF0000A23F0004150EA050220D054EA90
:1004600001021DD0C5F30A570246C5F31303C1F3B9
:100470001300C1F30A5640F4801543F48013A7EB30
:100480000608101BD64608F2FD3873EB050002D3B0
:1004900008F1010801E092185B41B8F1000F03DA9E
:1004A00000200146BDE8F08D00204FF48011064683
:1004B00084460EE0171B73EB050705D3121B63EB95
:1004C000050306434CEA010C49084FEA3000921834
:1004D0005B4150EA0107EDD152EA030012D082EAF3
:1004E000040083EA0501084305D0101BAB4106D286
:1004F0000122002306E000224FF0004302E06FF0EB
:10050000010253101AEB06004CEB085110EB0A00E5
:1005100041EB0B01BDE8F04D00F041B90EB540F2E2
:10052000334102910021CDE900110A460B4600F04B
:1005300045F903B000BD00F0004230F000400AD0A1
:10054000C10D01F56071C0F3160042EA0151C20805
:1005500040071143704700200146704701F00043F7
:1005600030B421F0004150EA010206D00A0DA2F594
:100570006072C1F31301002A02DC30BC0020704716
:10058000440F44EAC104C100E01830BC00EBC25083
:1005900000F0CEB830B50B460146002020220124E1
:1005A00009E021FA02F59D4205D303FA02F5491B41
:1005B00004FA02F52844151EA2F10102F1DC30BD57
:1005C000202A04DB203A00FA02F100207047914013
:1005D000C2F1200320FA03F3194390407047202A08
:1005E00004DB203A21FA02F00021704721FA02F3DD
:1005F000D040C2F120029140084319467047202A9A
:1006000006DBCB17203A41FA02F043EAE07306E03A
:1006100041FA02F3D040C2F120029140084319464A
:10062000704700000FB4002300B589B00CA90091F9
:100630000B996FF00042CB601E4B06931E4B079345
:100640000423CDE901321D4A089202466B46002080
:1006500000F0AAFA09B05DF814FB70B586B0064642
:100660004FF0FF300091CDE90101002015460C4606
:1006700004903246694604A8FFF7D4FF0246049866
:10068000211825B108B1084600E0204628600498EA
:1006900000280DD0002A02DD0098884208D0081BEF
:1006A0000094CDE901043246694604A8FFF7BAFF79
:1006B00006B070BDE10D0008FF0D00086D0A0008CE
:1006C0002DE9F04791460F4680460446002614F86F
:1006D000015B2DB100F0C6F90068405DC007F6D19E
:1006E0002B2D02D02D2D18D0641E4A4639462046A7
:1006F00000F096FB27B13968A14201D1C7F800800C
:1007000071054FF002040BD54042002803DD23F0B1
:100710009FFF0460A007BDE8F08746F48066E4E729
:100720000028F8DA23F094FF04606FF00040F2E74D
:100730000029A8BF7047401C490008BF20F00100F5
:10074000704710B4B0FA80FC00FA0CF050EA0104D3
:1007500004BF10BC704749B1CCF1200421FA04F465
:1007600011FA0CF118BF012121430843A3EB0C013E
:10077000CB1D4FEA00614FEA102042BF002010BCA1
:10078000704700EBC35010440029A4BF10BC704751
:10079000401C490008BF20F0010010BC704710B594
:1007A000141E73F1000408DA401C41F10001921894
:1007B0005B411A4301D120F0010010BD2DE9F04D3D
:1007C00092469B4611B1B1FA81F202E0B0FA80F292
:1007D00020329046FFF7F4FE04460F4640EA0A0036
:1007E00041EA0B0153465A46084313D0114653EAD7
:1007F000010019D0C8F140025046FFF7F0FE05464F
:100800000E46504659464246FFF7DAFE084305D0E9
:10081000012004E020463946BDE8F08D0020054364
:1008200046EAE0762C4337430A986305E40AA0EBD6
:1008300008000022FD0A44EA47540A3002D500208D
:100840000146E9E7010510196941DDE9084500198C
:100850006941BDE8F04DA2E72DE9FE4F81EA0304AE
:1008600004F0004421F0004100944FF0000B23F00D
:10087000004350EA01045ED052EA03045BD0C3F3A4
:100880000A54C1F30A552C44A4F2F3340194A0FB9A
:100890000254C1F3130141F48011C3F3130343F471
:1008A000801301FB024400FB034E840A970A44EACA
:1008B000815447EA8357A4FB076802958D0A05FB1C
:1008C00007854FEA932C04FB0C542705029D4FEA41
:1008D000065847EA1637B5EB08056EEB070C870E8E
:1008E000920E47EA811742EA8312A7FB0201B6EB98
:1008F0000B0164EB00042B0D43EA0C335E1844EB50
:100900001C50DA465146E7FB0201C5F313044FEAD7
:100910000B3343EA14534FEA0432019C43EA0603C3
:10092000A4F10C040294009CCDE900B4FFF746FF4B
:1009300003B0BDE8F08F00200146F9E72DE9F04D46
:1009400000231A461B1A8A4103DB00200146BDE83A
:10095000F08DC1F30A52C1F3130141F480154FF039
:10096000000BD10702D100186D41521E002704462A
:1009700040F2FF11384601EB620A3E4680460246CD
:1009800000204FF48011FFF72AFEC2197141BB18F5
:1009900046EB0100B4EB030C75EB000C04D3E41A36
:1009A00065EB000517460E46241908F101006D415C
:1009B00080463428E3DDF91946EB0600091BA841FF
:1009C00003D24FF0FF32134601E0002213461BEB27
:1009D000070046EB0A51BDE8F04DFFF7E0BEC1F35A
:1009E0000A52C1F3130140F2FF3341F480119A42DD
:1009F00002DA00200146704740F233439A42A2F2E5
:100A0000334202DC5242FFF7EABDFFF7D9BD0000D6
:100A100030B5041E71F1000404DB4FF00044404285
:100A200064EB0101141E73F1000405DB1C464FF05A
:100A30000043524263EB0403994208BF904230BD29
:100A4000064C074D06E0E06840F0010394E807001B
:100A500098471034AC42F6D3FFF7ACFB583D04087E
:100A6000783D040800487047E03C040810B504468F
:100A7000FFF7F8FF0068005D00F0010010BD000006
:100A80002DE9FF4F087883B09946FF2805D0491C0F
:100A90002D2804D00024002008E000200BE00124D1
:100AA000F9E700EB800003EB4000491C0B78FF2BBB
:100AB000F7D104B1404200230293147819461D4631
:100AC0002D2C01D02B2C04D1521C2D2C13D0002402
:100AD0000294AA461478FF2C0FD00A25A3FB0578B0
:100AE00001FB05814FF0000C03FB0C11521CE319B4
:100AF0004AEB0101EEE70124EAE7814453EA0100F1
:100B000002D019F5C87F06DA03980021C0E9001168
:100B100007B0BDE8F08F0025AE4E2F46DFF8B88253
:100B2000184600F0DAF9CDE90001B9F1000002DA67
:100B3000C9F1000400E004460023A74A1AEB030BA6
:100B400042EB045A12E0E00707D02A463346384603
:100B50004146FFF781FE074688462A46334610463F
:100B60001946FFF779FE05460E466410002CEAD1BF
:100B7000DDE90001B9F1000F5A46534606DAFFF7E6
:100B80005EFC3A464346FFF75AFC05E0FFF764FE79
:100B90003A464346FFF760FE029A0AB181F00041EF
:100BA000039AC2E90001B3E72DE9FF4F1F468DB05C
:100BB000D7E901464FF0FF382E2045464FF0000997
:100BC0000B90B9696D1C0E988847396A8246884730
:100BD0000028F6D1BAF1FF3F0AD024F4D064002EE9
:100BE00011DDBAF12B0F08D0BAF12D0F0BD102E0B5
:100BF000404611B08DE744F48064B9696D1C0E98CD
:100C000088478246761E6946600501D52D2000E0A2
:100C10002B208DF8000001F1010B0DF1200809E0F7
:100C2000B9696D1C0E98884782460F9844F4007489
:100C3000761E0560002E02DDBAF1300FF0D00B9960
:100C40008A453ED144F0800406E00F99681CA9F162
:100C5000010944F400740860B9696D1C761E0E9891
:100C6000884782463028F0D02BE00B998A4505D181
:100C7000200603D444F08004761E18E0504623F08A
:100C800023FE08B30DF11301761E44F400748B4566
:100C900008D2AAF130000BF8010B200607D5A9F104
:100CA000010003E0200602D409F101008146A005FD
:100CB00002D50F99681C0860B9696D1C0E988847A9
:100CC0008246002ED1DC53E0002E51DDBAF1650FD3
:100CD00002D0BAF1450F4BD1A00549D5B9696D1CB9
:100CE00024F44074761E0E9888478246002E0CDD50
:100CF0002B2804D0BAF12D0F07D144F48074B969C0
:100D00006D1C0E9888478246761EE00501D52D2180
:100D100000E02B2108F8011BCDF82C8021E00DF11B
:100D20002901761E44F4007488450CD2AAF13000E3
:100D300010F0FF0088F8000002D10B99884509D90E
:100D400008F1010806E0E00501D5244801E042F27F
:100D50000F708146B9696D1C0E98884782460F98BE
:100D60000560002E04DD504623F0AEFD0028D6D1EC
:100D7000F9690E988847FF208BF8000088F800007A
:100D80000020069007904B466A4608A906A8FFF780
:100D900077FEA00502D46FF001002AE714F0240FBB
:100DA0000AD0E00714D1DDE906123868031D3B6064
:100DB0000068C0E900120BE0DDE90601FFF7CEFB99
:100DC0000146E00704D13868021D3A6000680160FE
:100DD00028460EE7000014400000F03FF1D8FFFF66
:100DE000426842B1016811F8013B23B1521EC0E9CB
:100DF0000012184670470121C160881E7047426882
:100E00005AB1C368016843B983688B4205D0491E53
:100E1000521CC0E90012002070474FF0FF307047AD
:100E20002DE9F05F82460078002715468B460AF1CF
:100E30000104B946302801D09DB113E014F8010B2C
:100E40000127782803D0582801D045B10AE00DB118
:100E5000102D07D10027102514F8010B02E00825FA
:100E600000E00A250026B0460EE005FB080005FB61
:100E700006F1012701EB10461FFA80F8B6F5803F16
:100E800000D3B94614F8010B294600F018F80028E1
:100E9000EBDABBF1000F05D00FB1641E00E0544641
:100EA000CBF80040B9F1000F06D023F0D1FB0221AE
:100EB0000160C81EBDE8F09F48EA0640FAE73A28FC
:100EC00000D2303820F02002412A01D3A2F13700AD
:100ED000884201D34FF0FF3070470EB540F23342E5
:100EE00002920022CDE900221346FFF767FC03B00F
:100EF00000BD70B58C1810F8015B15F0070301D127
:100F000010F8013B2A1106D110F8012B03E010F86C
:100F1000016B01F8016B5B1EF9D12B0705D400238F
:100F2000521E0DD401F8013BFAE710F8013BCB1A31
:100F3000921C03E013F8015B01F8015B521EF9D526
:100F4000A142D8D3002070BD134810B5417BF1B148
:100F5000022920D0082905D009291CD1BDE810405C
:100F600025F09ABF817B807C0D4A01EBC00053388D
:100F7000C0B29FED0A0A02EB8000523980ED000AF0
:100F8000C8B225F0EFF9BDE8104017F09FB8BDE8F2
:100F9000104027F037BC10BD3C02002000000000CC
:100FA000040001200029816802D041F0010101E024
:100FB00021F0010181607047084B10B5D3F804237C
:100FC00007490A40D0E900142143D0E90240044314
:100FD00021431143C3F8041310BD00000020014059
:100FE000E030FCFF0029816802D041F4807101E00B
:100FF00021F48071816070470029816802D041F43A
:10100000007101E021F400718160704730B54268E1
:101010000F4B0C791A400B6842EA042213434360D9
:1010200082680C4B4D791A40D1E9034323438C6805
:1010300044EA4504234313438360C26A097D22F4D2
:101040007002491EC9B242EA0151C16230BD0000BE
:10105000FFFEFFFCFDF7FFC070B5072409290AD980
:10106000C568A1F10A0606EB4606B440A543B340A5
:101070001D43C56007E0056901EB4106B440A54387
:10108000B3401D4305611F23072A09D2446B521E3A
:1010900002EB820293409C4391400C43446370BD39
:1010A0000D2A09D2046BD21F02EB820293409C43AB
:1010B00091400C43046370BDC46A0D3A02EB820296
:1010C00093409C4391400C43C46270BD816841F0E1
:1010D0008041816070470000F0B53448DFED320A8E
:1010E000A0F20C72C0ED010ADFED310A0023C0ED61
:1010F000020A9FED2C0A19462E4EA0F1A00492F888
:1011000033500AE012F801C0BCF1000F03D154F8CB
:1011100021C0B4450CDB491CC9B28D42F2D8012F65
:1011200006D080ED000A80ED010A80ED020AF0BDD4
:101130000021214F2BE000BF12F801C0BCF1000FCD
:1011400023D104EB810CDCED000A10EE90CAB4450B
:101150001BDA07EB810C5B1C9CED001ADBB270EE16
:10116000C10A90ED011A30EE800AF4EEC10AF1EEE8
:1011700010FA01DDC0ED010A90ED021AF4EEC10A89
:10118000F1EE10FA01D2C0ED020A491CC9B28D423B
:10119000D2D800EE903AF8EE600A80EE201A80ED88
:1011A000001AF0BD00000000000048C3300A012012
:1011B00000C04C4500C04C45040001200B48417B59
:1011C00010290ED2DFE801F00D0D0D0D0A101008E8
:1011D000100D0D0D0E0D0D1024F0DCB8807B3328A2
:1011E00002D070470248007824F08CB83C020020FE
:1011F0003400002000210D4A0846135C012B00D169
:101200000121401CC0B22828F7D30948012908D180
:101210000649503991F82A10012902D10549097867
:1012200011B1002117F044BB0121FBE77403012039
:1012300000040140490200201CB54FF4807000906A
:1012400001208DF8040000218DF806108DF80700AC
:101250008DF80510694602480FF03AFF1CBD0000EA
:1012600000000240FEE7000010B5074C01212046B7
:1012700017F01EFB4FF6FF7005F06EFA2046BDE832
:101280001040002117F014BB0004014010B50446C3
:10129000392029F049FDE0B229F06AFDC4F30720A6
:1012A00029F066FDC4F3074029F062FD200E29F005
:1012B0005FFD29F029FDBDE8104022F0FFBF70B5A9
:1012C000064614460D463C2029F02EFDE8B229F0D2
:1012D0004FFD280A29F04CFD29F016FD0CB1002025
:1012E00011E022F0EBFF1E280FD1304600F035F957
:1012F00005463D2029F018FD29F006FD2E44002C5E
:10130000EFD0208828442080EBE770BD10B513F0A3
:1013100017F808B100F069F8BDE81040302000F07F
:10132000B2B8312000F0AFB80146362000F09EB8C8
:1013300010B508B100F0C6F8BDE81040342000F048
:10134000A2B870B5054600F0A7F804000DD001461C
:10135000284600F021F8412807D0142803D042285D
:1013600000D1B32070BD432070BD2819BDE8704086
:10137000FFF7DEBF10B5044600F0A4F820785C2823
:1013800001D02F2803D10021642000F0FCF8BDE833
:101390001040322000F077B870B5054600200E46A8
:1013A000012401E0641CE4B2295D5C2913D02F29DB
:1013B00011D00029F6D100242844FFF7DBFF002CD0
:1013C00008D0B44206D041280AD0142806D04228BA
:1013D00000D1B32070BD641CE4B2EDE7432070BDC2
:1013E0002046E1E7FF21FFF7D7BF10B5222029F003
:1013F0009BFC322005F0B0F929F08CFC044629F062
:1014000083FC204610BD2DE9F04129F083FC0646FF
:1014100029F080FC054629F07DFC044629F07AFC81
:10142000074629F071FC46EA052040EA044040EAFC
:101430000760BDE8F08110B504460C2029F074FC6B
:10144000204629F095FCBDE81040FFF7DCBF10B541
:1014500004460A2029F068FC204629F089FC29F07E
:1014600059FC044629F050FC204610BD10B50C462E
:1014700029F05AFC204629F07BFC29F045FCBDE808
:10148000104022F01BBF10B529F04EFC29F03CFCA7
:10149000BDE8104022F012BF014600E0491C0A7866
:1014A000002AFBD106E000BF11F8012D5C2A03D011
:1014B0002F2A01D08142F7D1814200D0491C081A5D
:1014C000C0B2704770B50546012029F02DFC29F007
:1014D00021FC432828D22B20FFF7B9FF102823D264
:1014E0002F2029F021FC002029F042FC3220FFF7B8
:1014F000CAFF142818D1CF20FFF7A9FF040013D08A
:101500004C20FFF798FF00EB04214C2000F03BF843
:101510005020FFF790FF00EB0421502000F033F83B
:101520000021702000F02FF82F2029F0FDFB2C78EF
:1015300006E000BF15F8014F5C2C0AD02F2C08D014
:10154000204629F015FC002CF4D1BDE8704029F0AC
:10155000DBBB002029F00CFCF7E770B505462D2019
:1015600029F0E2FB29F0D6FB0400264607D02878B4
:1015700029F0FEFB641E6D1C14F0FF04F7D129F066
:10158000C3FB304670BD70B505460C460D2029F0F2
:10159000CBFB284629F0ECFBE0B229F0E9FBC4F3D1
:1015A000072029F0E5FBC4F3074029F0E1FB200EFA
:1015B00029F0DEFBBDE8704029F0A6BB2DE9F04123
:1015C00088B00121812012F0C7FE0121080312F02A
:1015D000FFFEDFF8C8800522114640460FF0C9FD26
:1015E0000522062140460FF0C4FD05220721404692
:1015F0000FF0BFFD02258DF805508DF80450002432
:1016000020278DF8064000978DF807406946404630
:101610000FF05EFD40200090694640460FF058FDF7
:1016200080200090694640460FF052FD10200126B0
:1016300000908DF804608DF80640694640460FF032
:1016400047FD8DF8044000978DF8076069461448FF
:101650000FF03EFDADF808404FF48270ADF80A007F
:10166000ADF810602802ADF812003820ADF8140073
:10167000ADF80C40ADF8164007200A4CADF8180044
:10168000ADF80E5002A9204616F08FFC012120462D
:1016900016F086FA08B0BDE8F081000000000240B4
:1016A000001C024000300140F0B5FF231A46002420
:1016B00018E0055D6A40002502F0010613F0010FF5
:1016C0004FEA53034FEA520201D042F080021EB1AA
:1016D00083F0A00382F001026D1CEDB2082DEBD364
:1016E000641CE4B28C42E4D342EA0320F0BD000063
:1016F0002DE9F047F748F84FF84C00784FF4827521
:101700004FF4AA764FF470484FF4A57940B1012800
:1017100074D0022873D0032872D0042871D03CE31F
:101720002078012801D028B10FE0882011F07AF943
:10173000384603E0882011F075F9404611F08EF923
:10174000E7A20A21642010F085FD6078012801D00D
:1017500028B10FE0882011F065F9384603E08820B1
:1017600011F060F9404611F079F9DEA20A21B420A7
:1017700010F070FDA078012801D028B10FE088207A
:1017800011F050F9384603E0882011F04BF940463B
:1017900011F064F9D4A20A21284610F05BFDE0782C
:1017A000012801D028B10FE0882011F03BF938461C
:1017B00003E0882011F036F9404611F04FF9CBA232
:1017C0000A21304610F046FD2079012801D028B1C9
:1017D0000FE0882011F026F9384603E0882011F048
:1017E00021F9404611F03AF9C1A24946642010F0AF
:1017F00031FD6079012805D048B113E039E0D7E028
:10180000ABE149E2882011F00DF9384603E0882069
:1018100011F008F9404611F021F9B6A24946B4206A
:1018200010F018FDA079012801D028B10FE0882020
:1018300011F0F8F8384603E0882011F0F3F840463C
:1018400011F00CF9ACA24946284610F003FDE079EE
:10185000012801D028B1A0E2882011F0E3F8384631
:1018600003E0882011F0DEF8404611F0F7F8A3A25B
:101870008FE2207A01284FF0880079D011F0D2F859
:101880004FEA080011F0EAF89DA20A21642010F046
:10189000E1FC607A01284FF088006DD011F0C2F8A9
:1018A0004FEA080011F0DAF896A20A21B42010F0ED
:1018B000D1FCA07A01284FF0880061D011F0B2F875
:1018C0004FEA080011F0CAF88FA20A21284610F04A
:1018D000C1FCE07A01284FF0880055D011F0A2F841
:1018E0004FEA080011F0BAF888A20A21304610F039
:1018F000B1FC207B01284FF0880049D011F092F80C
:101900004FEA080011F0AAF881A24946642010F0BD
:10191000A1FC607B01284FF088003DD011F082F8D7
:101920004FEA080011F09AF87AA24946B42010F064
:1019300091FCA07B01284FF0880031D011F072F8A3
:101940004FEA080011F08AF873A24946284610F0C1
:1019500081FCE07B01284FF0880025D011F062F86F
:101960004FEA080011F07AF86CA212E200E003E0FE
:1019700011F058F8384685E711F054F8384691E7E9
:1019800011F050F838469DE711F04CF83846A9E7B9
:1019900011F048F83846B5E711F044F83846C1E789
:1019A00011F040F83846CDE711F03CF83846D9E759
:1019B000207C01284FF0880078D011F033F84046A1
:1019C00011F04CF856A20A21642010F043FC607C10
:1019D00001284FF088006DD011F024F84FEA08007C
:1019E00011F03CF84FA20A21B42010F033FCA07C87
:1019F00001284FF0880061D011F014F84FEA080078
:101A000011F02CF848A20A21284610F023FCE07CB3
:101A100001284FF0880055D011F004F84FEA080073
:101A200011F01CF841A20A21304610F013FC207D71
:101A300001284FF0880049D010F0F4FF4FEA080069
:101A400011F00CF83AA24946642010F003FC607DC6
:101A500001284FF0880074D010F0E4FF4FEA08002E
:101A600010F0FCFF33A24946B42010F0F3FBA07D38
:101A700001284FF0880068D010F0D4FF4FEA08002A
:101A800010F0ECFF2CA24946284610F0E3FBE07D65
:101A900001284FF088005CD010F0C4FF4FEA080026
:101AA00010F0DCFF25A274E100E003E010F0BAFFC3
:101AB000384685E710F0B6FF384691E710F0B2FFE0
:101AC00038469DE710F0AEFF3846A9E710F0AAFFB0
:101AD0003846B5E74B020020935517002403012038
:101AE00030303100303032003030330030303400AC
:101AF000303035003030360030303700303038008C
:101B00003030390030313000303131003031320086
:101B1000303133003031340030313500303136006F
:101B20003031370030313800303139003032300058
:101B30003032310030323200303233003032340053
:101B4000FFE710F06FFF38468AE710F06BFF38466A
:101B500096E710F067FF3846A2E7207E01284FF095
:101B6000880079D010F05EFF4FEA080010F076FF91
:101B7000A5A20A21642010F06DFB607E01284FF0C1
:101B800088006DD010F04EFF4FEA080010F066FF9D
:101B90009EA20A21B42010F05DFBA07E01284FF028
:101BA000880061D010F03EFF4FEA080010F056FFA9
:101BB00097A20A21284610F04DFBE07E01284FF045
:101BC000880055D010F02EFF4FEA080010F046FFB5
:101BD00090A20A21304610F03DFB207F01284FF0F3
:101BE000880049D010F01EFF4FEA080010F036FFC1
:101BF00089A24946642010F02DFB607F01284FF038
:101C000088003DD010F00EFF4FEA080010F026FFCC
:101C100082A24946B42010F01DFBA07F01284FF09E
:101C2000880031D010F0FEFE4FEA080010F016FFD9
:101C30007BA24946284610F00DFBE07F01284FF0BB
:101C4000880025D010F0EEFE4FEA080010F006FFE5
:101C500074A29EE000E003E010F0E4FE384685E761
:101C600010F0E0FE384691E710F0DCFE38469DE7C4
:101C700010F0D8FE3846A9E710F0D4FE3846B5E794
:101C800010F0D0FE3846C1E710F0CCFE3846CDE764
:101C900010F0C8FE3846D9E794F8200001284FF02C
:101CA00088007DD010F0BEFE4FEA080010F0D6FE8E
:101CB0005DA20A21642010F0CDFA94F821000128D9
:101CC0004FF088006DD010F0ADFE404610F0C6FE1B
:101CD00056A20A21B42010F0BDFA94F8220001287F
:101CE0004FF0880075D010F09DFE404610F0B6FE13
:101CF0004FA20A21284610F0ADFA94F823000128DB
:101D00004FF0880069D010F08DFE404610F0A6FE1E
:101D100048A20A21304610F09DFA94F824000128C8
:101D20004FF088005DD010F07DFE404610F096FE2A
:101D300041A24946642010F08DFA94F8250001284C
:101D40004FF0880051D010F06DFE404610F086FE36
:101D50003AA24946B42010F07DFA94F826000128F2
:101D60004FF0880045D010F05DFE404610F076FE42
:101D700033A24946284610F06DFA94F8270001284E
:101D80004FF0880039D010F04DFE404610F066FE4E
:101D90002CA24946304610F05DFA01202A4901E0A4
:101DA0000EE012E0C870FFF75FFA94F8300040B31D
:101DB00026A000BF05F014FABDE8F04716F086B97A
:101DC00010F030FE384671E703E010F02BFE384685
:101DD0007CE710F027FE384688E710F023FE3846EF
:101DE00094E710F01FFE3846A0E710F01BFE3846BF
:101DF000ACE710F017FE3846B8E710F013FE38468F
:101E0000C4E715A0D6E70000303235003032360086
:101E10003032370030323800303239003033300061
:101E2000303331003033320030333300303334005C
:101E3000303335003033360030333700303338003C
:101E40003033390030343000C80100204368616EFF
:101E50006E656C2073657400CDA8B5C0C9E8D6C3A3
:101E6000000000002DE9F05FFA48DFF8ECA3FB4C1E
:101E700000784FF482754FF496764FF4AA784FF4B9
:101E8000BE794FF4704B10B101286ED04BE320782F
:101E9000012801D028B10FE0882010F0C3FD504682
:101EA00003E0882010F0BEFD584610F0D7FDECA2EC
:101EB0000A21642001F0B2FB6078012801D028B12A
:101EC0000FE0882010F0AEFD504603E0882010F0AF
:101ED000A9FD584610F0C2FDE2A20A218C2001F0B3
:101EE0009DFBA078012801D028B10FE0882010F0D8
:101EF00099FD504603E0882010F094FD584610F0FC
:101F0000ADFDD9A20A21B42001F088FBE0780128B8
:101F100001D028B10FE0882010F084FD504603E086
:101F2000882010F07FFD584610F098FDCFA20A21BE
:101F3000DC2001F073FB2079012801D028B10FE0EB
:101F4000882010F06FFD504603E0882010F06AFDF5
:101F5000584610F083FDC6A20A21284601F05EFB18
:101F60006079012802D030B110E0C8E1882010F07B
:101F700059FD504603E0882010F054FD584610F0FB
:101F80006DFDBCA20A21304601F048FBA079012872
:101F900001D028B10FE0882010F044FD504603E046
:101FA000882010F03FFD584610F058FDB2A20A21DB
:101FB000404601F033FBE079012801D028B10FE061
:101FC000882010F02FFD504603E0882010F02AFDF5
:101FD000584610F043FDA9A20A21484601F01EFB15
:101FE00094F8330008286FD9207A4FF4A577012898
:101FF00001D028B10FE0882010F014FD504603E016
:10200000882010F00FFD584610F028FD9CA239469C
:10201000642001F003FB607A012801D028B10FE0B1
:10202000882010F0FFFC504603E0882010F0FAFCF6
:10203000584610F013FD93A239468C2001F0EEFAB9
:10204000A07A012801D028B10FE0882010F0EAFC26
:10205000504603E0882010F0E5FC584610F0FEFCE6
:1020600089A23946B42001F0D9FAE07A012801D0DA
:1020700028B10FE0882010F0D5FC504603E08820FE
:1020800010F0D0FC584610F0E9FC80A23946DC2064
:1020900001F0C4FA207B012801D028B10FE088208C
:1020A00010F0C0FC504603E0882010F0BBFC5846FE
:1020B00010F0D4FC76A23946284601F0AFFA607BD6
:1020C000012802D030B110E039E0882010F0AAFCDD
:1020D000504603E0882010F0A5FC584610F0BEFCE6
:1020E0006CA23946304601F099FAA07B012801D054
:1020F00028B10FE0882010F095FC504603E08820BE
:1021000010F090FC584610F0A9FC63A239464046F6
:1021100001F084FAE07B012801D028B10FE088208B
:1021200010F080FC504603E0882010F07BFC5846FD
:1021300010F094FC59A23946484601F06FFA94F821
:10214000330010286FD9207C4FF4CD77012801D0BF
:1021500028B10FE0882010F065FC504603E088208D
:1021600010F060FC584610F079FC4DA2394664200E
:1021700001F054FA607C012801D028B10FE08820DA
:1021800010F050FC504603E0882010F04BFC5846FD
:1021900010F064FC43A239468C2001F03FFAA07C89
:1021A000012801D028B10FE0882010F03BFC5046F8
:1021B00003E0882010F036FC584610F04FFC3AA29D
:1021C0003946B42001F02AFAE07C012801D028B178
:1021D0000FE0882010F026FC504603E0882010F025
:1021E00021FC584610F03AFC30A23946DC2001F0C0
:1021F00015FA207D012801D028B10FE0882010F0C9
:1022000011FC504603E0882010F00CFC584610F0FA
:1022100025FC27A23946284601F000FA607D0128F6
:1022200002D030B110E07EE1882010F0FBFB504678
:1022300003E0882010F0F6FB584610F00FFC1DA2BA
:102240003946304601F0EAF9A07D012834D000B1CA
:1022500042E036E04B020020935517002403012092
:102260003030310030303200303033003030340024
:102270003030350030303600303037003030380004
:1022800030303900303130003031310030313200FF
:1022900030313300303134003031350030313600E8
:1022A00030313700303138003031390030323000D1
:1022B0003032310030323200882010F0B3FB50460B
:1022C00003E0882010F0AEFB584610F0C7FBC1A217
:1022D0003946404601F0A2F9E07D012801D028B13D
:1022E00021E1882010F09EFB504603E0882010F08A
:1022F00099FB584610F0B2FBB7A2394610E1207E98
:1023000001284FF088007DD010F08CFB4FEA0B00C5
:1023100010F0A4FBB1A20A21642001F07FF9607ED5
:1023200001284FF088006ED010F07CFB4FEA0B00C4
:1023300010F094FBAAA20A218C2001F06FF9A07E74
:1023400001284FF088007DD010F06CFB4FEA0B00A5
:1023500010F084FBA3A20A21B42001F05FF9E07E13
:1023600001284FF088006ED010F05CFB4FEA0B00A4
:1023700010F074FB9CA20A21DC2001F04FF9207FB1
:1023800001284FF088007CD010F04CFB4FEA0B0086
:1023900010F064FB95A20A21284601F03FF9607F06
:1023A00001284FF088006DD010F03CFB4FEA0B0085
:1023B00010F054FB8EA20A21304601F02FF9A07FC5
:1023C00001284FF088007DD010F02CFB4FEA0B0065
:1023D00010F044FB87A20A21404601F01FF9E07F7C
:1023E00001284FF088006ED010F01CFB4FEA0B0064
:1023F00010F034FB80A20A21484601F00FF994F84E
:10240000200001E09EE0A3E001284FF088007DD08D
:1024100010F008FB4FEA0B0010F020FB77A2D2214E
:10242000642001F0FBF894F8210001284FF08800A7
:102430006DD010F0F7FA584610F010FBD22170A2C0
:102440008C2001E088E08BE001F0E8F894F82200AD
:1024500001284FF0880079D010F0E4FA4FEA0B0021
:1024600010F0FCFA67A2D221B42001F0D7F894F85A
:10247000230001284FF0880069D010F0D3FA5846A5
:1024800001E071E074E010F0E9FA5FA2D221DC20F3
:1024900001F0C4F894F8240001284FF088006FD0B0
:1024A00010F0C0FA4FEA0B0010F0D8FA57A2D22170
:1024B000284601F0B3F894F8250001284FF0880071
:1024C00079D001E058E05CE010F0ACFA4FEA0B0084
:1024D00010F0C4FA4EA2D221304601F09FF894F8D1
:1024E000260001284FF0880069D010F09BFA58466A
:1024F00010F0B4FA47A2D221404601F08FF894F8C8
:10250000270001284FF088005DD001E03DE040E069
:1025100010F088FA4FEA0B0010F0A0FA3EA2D22188
:10252000484601F07BF83D490120C870FEF79CFE4B
:1025300094F8300088B33AA004F052FEBDE8F05F92
:1025400015F0C4BD10F06EFA5046E1E627E02AE02F
:1025500010F068FA5046EBE610F064FA5046F7E6E1
:1025600010F060FA504603E710F05CFA50460FE7AF
:1025700010F058FA50461BE710F054FA504627E77F
:1025800015E010F04FFA504632E710F04BFA504683
:1025900042E710F047FA50464EE718E00BE010F023
:1025A00041FA50465CE710F03DFA504668E710F0FB
:1025B00039FA504678E710F035FA504688E710F0BF
:1025C00031FA504694E710F02DFA5046A4E717A0D0
:1025D000B2E70000303233003032340030323500A0
:1025E0003032360030323700303238003032390085
:1025F0003033300030333100303332003033330089
:102600003033340030333500303336003033370068
:10261000303338003033390030343000C801002006
:102620004368616E6E656C2073657400CDA8B5C09B
:10263000C9E8D6C3000000002DE9F05FF84CDFF8D0
:10264000E4A34FF4704B2078012801D028B10FE0AB
:10265000882010F0E7F9504603E0882010F0E2F9F6
:10266000584610F0FBF9F0A20A21642001F00CF8A2
:102670006078012801D028B10FE0882010F0D2F94D
:10268000504603E0882010F0CDF9584610F0E6F9E6
:10269000E6A20A218C2000F0F7FFA078012801D0E3
:1026A00028B10FE0882010F0BDF9504603E08820E3
:1026B00010F0B8F9584610F0D1F9DDA20A21B42083
:1026C00000F0E2FFE078012801D028B10FE0882077
:1026D00010F0A8F9504603E0882010F0A3F95846FE
:1026E00010F0BCF9D3A20A21DC2000F0CDFF207944
:1026F0004FF48275012801D028B10FE0882010F036
:1027000091F9504603E0882010F08CF9584610F0FB
:10271000A5F9C9A20A21284600F0B6FF60794FF456
:102720009676012801D028B10FE0882010F07AF9C0
:10273000504603E0882010F075F9584610F08EF9E5
:10274000BEA20A21304600F09FFFA0794FF4AA797B
:10275000012801D028B10FE0882010F063F950461D
:1027600003E0882010F05EF9584610F077F9B4A223
:102770000A21484600F088FFE0794FF4BE7801282E
:1027800001D028B10FE0882010F04CF9504603E04A
:10279000882010F047F9584610F060F9A9A20A21E4
:1027A000404600F071FF94F83300082872D9207A6F
:1027B000012801D028B10FE0882010F033F95046ED
:1027C00003E0882010F02EF9584610F047F99EA239
:1027D0008621642000F058FF607A012801D028B1DA
:1027E0000FE0882010F01EF9504603E0882010F01A
:1027F00019F9584610F032F994A286218C2000F085
:1028000043FFA07A012801D028B10FE0882010F002
:1028100009F9504603E0882010F004F9584610F0FA
:102820001DF98BA28621B42000F02EFFE07A01284A
:1028300001D028B10FE0882010F0F4F8504603E0F2
:10284000882010F0EFF8584610F008F981A2862190
:10285000DC2000F019FF207B012801D028B10FE017
:10286000882010F0DFF8504603E0882010F0DAF8F6
:10287000584610F0F3F878A28621284600F004FFAD
:10288000607B012801D030B110E0882010F0CAF838
:10289000504604E034E0882010F0C4F8584610F0A8
:1028A000DDF86EA28621304600F0EEFEA07B012806
:1028B00001D028B10FE0882010F0B4F8504603E0B2
:1028C000882010F0AFF8584610F0C8F864A28621AE
:1028D000484600F0D9FEE07B012801D028B10FE086
:1028E000882010F09FF8504603E0882010F09AF8F6
:1028F000584610F0B3F85BA28621404600F0C4FEB3
:1029000094F8330010286FD9207C4FF48177012888
:1029100001D028B10FE0882010F084F8504603E081
:10292000882010F07FF8584610F098F84EA23946EB
:10293000642000F0A9FE607C012801D028B10FE0DE
:10294000882010F06FF8504603E0882010F06AF8F5
:10295000584610F083F845A239468C2000F094FECA
:10296000A07C012801D028B10FE0882010F05AF88F
:10297000504603E0882010F055F8584610F06EF8E5
:102980003BA23946B42000F07FFEE07C012801D054
:1029900028B10FE0882010F045F8504603E0882069
:1029A00010F040F8584610F059F832A23946DC20B1
:1029B00000F06AFE207D012801D028B10FE08820B8
:1029C00010F030F8504603E0882010F02BF85846FD
:1029D00010F044F828A23946284600F055FE607DE4
:1029E000012802D030B110E0C6E1882010F01AF8BA
:1029F000504603E0882010F015F8584610F02EF8E5
:102A00001EA23946304600F03FFEA07D012801D0CD
:102A100028B140E0882010F005F8504634E02FE05F
:102A2000240301209355170030303100303032003C
:102A30003030330030303400303035003030360044
:102A4000303037003030380030303900303130002D
:102A50003031310030313200303133003031340028
:102A60003031350030313600303137003031380008
:102A70003031390030323000303231003032320003
:102A800088200FF0CFFF58460FF0E8FFC3A2394669
:102A9000484600F0F9FDE07D012801D028B10FE0A3
:102AA00088200FF0BFFF504603E088200FF0BAFFE8
:102AB00058460FF0D3FFBAA23946404600F0E4FD75
:102AC000207E4FF4BF77012801D028B10FE0882085
:102AD0000FF0A8FF504603E088200FF0A3FF5846F0
:102AE0000FF0BCFFAFA23946642000F0CDFD607E40
:102AF000012801D028B10FE088200FF093FF504645
:102B000003E088200FF08EFF58460FF0A7FFA6A223
:102B100039468C2000F0B8FDA07E012801D028B1F4
:102B20000FE088200FF07EFF504603E088200FF072
:102B300079FF58460FF092FF9CA23946B42000F06E
:102B4000A3FDE07E012801D028B10FE088200FF01E
:102B500069FF504603E088200FF064FF58460FF0ED
:102B60007DFF93A23946DC2000F08EFD207F0128F6
:102B700001D028B10FE088200FF054FF504603E049
:102B800088200FF04FFF58460FF068FF89A23946A2
:102B9000284600F079FD607F012801D028B10FE0C0
:102BA00088200FF03FFF504603E088200FF03AFFE7
:102BB00058460FF053FF80A23946304600F064FDBE
:102BC000A07F012801D028B10FE088200FF02AFF54
:102BD000504603E088200FF025FF58460FF03EFFD7
:102BE00076A23946484600F04FFDE07F012801D02B
:102BF00028B10FE088200FF015FF504603E0882031
:102C00000FF010FF58460FF029FF6DA239464046DD
:102C100000F03AFD94F820004FF4FD77012801D030
:102C200028B10FE088200FF0FDFE504603E0882019
:102C30000FF0F8FE58460FF011FF62A239466420EB
:102C400000F022FD94F82100012801D028B10FE006
:102C500088200FF0E7FE504603E088200FF0E2FEE8
:102C600058460FF0FBFE58A239468C2000F00CFDB0
:102C700094F82200012801D028B10FE088200FF03D
:102C8000D1FE504603E088200FF0CCFE58460FF0EE
:102C9000E5FE4EA23946B42000F0F6FC94F823007D
:102CA000012801D028B10FE088200FF0BBFE50466C
:102CB00003E088200FF0B6FE58460FF0CFFE44A286
:102CC0003946DC2000F0E0FC94F82400012801D013
:102CD00028B10FE088200FF0A5FE504603E08820C1
:102CE0000FF0A0FE58460FF0B9FE3AA2394628462A
:102CF00000F0CAFC94F82500012801D028B10FE0AB
:102D000088200FF08FFE504603E088200FF08AFEE7
:102D100058460FF0A3FE30A23946304600F0B4FC0E
:102D200094F82600012801D028B10FE088200FF088
:102D300079FE504603E088200FF074FE58460FF0ED
:102D40008DFE26A23946484600F09EFC94F82700E6
:102D5000012801D028B10FE088200FF063FE504613
:102D600003E088200FF05EFE58460FF077FE1CA2AD
:102D70003946404600F088FC1A490120C870FEF729
:102D800073FA94F8300038B117A000BF04F028FAA5
:102D9000BDE8F05F15F09AB916A0F7E730323300BE
:102DA00030323400303235003032360030323700C5
:102DB00030323800303239003033300030333100B7
:102DC00030333200303333003033340030333500A9
:102DD0003033360030333700303338003033390089
:102DE00030343000C80100204368616E6E656C208D
:102DF00073657400CDA8B5C0C9E8D6C30000000053
:102E000070B504461A481D4D00EB840010ED010A10
:102E1000184800EB840050ED010A174800EB8400CD
:102E200030EE600A50ED010AB4EEE00AF1EE10FA5D
:102E300009D3134800EB840050ED010AB4EEE00A18
:102E4000F1EE10FA05DD0D48503890F82C000128FD
:102E500007D088216FF07F400FF0EAFD0020285551
:102E600070BD88214FF47F000FF0E2FD0120F6E7EE
:102E70009009012004000120FC03002074030120BC
:102E80005C03002070B5374905460024086810F03F
:102E9000450FFBD0410702D50324042003E0C007FF
:102EA00004D00124204613F03DFC59E013F076FCD9
:102EB000A8422BD140F2FF5013F034FC002013F055
:102EC0008FFC294908424BD0002801DA1C2070BD34
:102ED000410001D5092070BD810001D50A2070BDD7
:102EE000C10001D50B2070BD010101D50C2070BDC2
:102EF000410101D50D2070BDC10101D50E2070BD6D
:102F0000010201D50F2070BD410201D5102070BD16
:102F1000810201D5112070BDC10201D5122070BD02
:102F2000010301D5132070BD410301D5142070BDEC
:102F3000810301D5152070BDC10301D5162070BDD8
:102F4000010401D5172070BD410401D5182070BDC2
:102F5000810401D5192070BD000701D51A2070BD6C
:102F6000204670BD342C014008E0FFFD10B50B4831
:102F70000024016811F0450FFBD0480702D5032457
:102F8000042003E0C80705D00124204613F0CAFB43
:102F9000204610BD40F2FF50F8E70000342C0140FD
:102FA00070B50C46194906460025086810F0450F13
:102FB000FBD0410702D50324042003E0C00705D05D
:102FC0000124204613F0AEFB204670BD13F0E6FB53
:102FD000B04212D140F2FF5013F0A4FB002013F0D6
:102FE000FFFB10F4604F03D0810404D5132070BDA3
:102FF000000C208007E0410401D5102070BD0004C2
:1030000001D50F2070BD284670BD0000342C014052
:1030100010B50A460C0601F07F0303EB830100EBB9
:10302000C10102D501F58E7101E001F55D71D20992
:103030000B704A7020F047F9002010BD0A4610B509
:10304000090602F07F0306D503EB830100EBC10103
:1030500001F58E7105E002EB820100EBC10101F583
:103060005D7100248C700B70D2094A7020F012F947
:10307000002010BD10B50A0604D501F07F0120F034
:103080003DFA01E020F01EFA002010BD70B50C469C
:103090000E0601F07F0505EB850100EBC10102D5AD
:1030A00001F58E7101E001F55D71E4090D704C7060
:1030B0008A60CB7000D0CD80022B01D100220A7132
:1030C00020F0B4F8002070BD10B501F07F0404EBCF
:1030D000840100EBC101C1F88833C1F880230023CB
:1030E000C1F88C3381F8753381F87443C37801F5E6
:1030F0005D71012B00D10A6114F0FF0F03D020F0A5
:1031000021F9002010BD20F023F8FAE70069002221
:1031100061F30A1201681143016070470A4610B555
:10312000090602F07F0306D503EB830100EBC10122
:1031300001F58E7105E002EB820100EBC10101F5A2
:103140005D7101248C700B70D2094A7020F0E2F896
:10315000002010BD70B511F07F0404EB840100EB7A
:10316000C1014FF0010581F81D5181F81C41C1F8E2
:103170002821C1F82C2101F58E714FF00002C1E920
:10318000053203D020F0DEF8002070BD1FF0E0FF14
:10319000FAE700002DE9F0410646002520F0F5F998
:1031A000074655E0F80751D03069EAB20369416B30
:1031B000D14006EB820201F00101926943EAC1119C
:1031C00094680C40E1071AD00124426B04FA05F11F
:1031D0008A43426306EB8500806984601F48E9B238
:1031E0000068426830469047F078012807D135B929
:1031F00096F81101042802D1304620F005F8200786
:1032000004D506EB8500082480698460E00604D5B7
:1032100006EB8500102480698460600604D506EB07
:103220008500402480698460A00704D506EB8500F2
:10323000022480698460200608D52946304600F0C3
:103240006DF906EB85018020896988607F086D1C17
:10325000002FA7D10120BDE8F081000074000020FC
:103260002DE9F0410646002420F095F90746DFF8E5
:10327000988043E0F8073FD0E1B2304620F091F962
:103280000546C00725D006EB84000125416D8D6001
:10329000F17801290CD1406D016904EB840006EB43
:1032A000C000C1F31201D0F87C23511AC0F88C136E
:1032B000D8F80000E1B2026830469047F078012863
:1032C00007D134B996F81101052802D130461FF014
:1032D0009BFFA80704D506EB84000225406D85609E
:1032E000280709D5D8F8000081683046884706EBE2
:1032F00084010820496D88607F08641C002FB9D1C3
:103300000120BDE8F08100007400002070B5064681
:10331000C068816921F010018161F068056A05F0DB
:103320000F0000EB800006EBC004C5F3434004F53A
:103330005D74072821D2DFE800F02020042020203F
:10334000150047F6F070054217D0C5F30A152A4656
:103350003046E16820F02DF9E0682844E060A0697B
:10336000284409E0082206F2CC51304620F021F929
:10337000A069C5F30A110844A061F068816941F0B1
:1033800010018161012070BD38B5044600208DF820
:10339000000094F812018DF800001548006841699A
:1033A0002046884720698068E2684FF400615161D7
:1033B000A17AD1B1C00718D094F81501012814D111
:1033C0009DF80000032810D1D4F80C01016841F0E9
:1033D00001010160D4F80C01016841F003010160B2
:1033E0000448016841F006010160012038BD000079
:1033F0007400002010ED00E070B50446006900255F
:103400000126416821F0010141602946204620F053
:1034100075F80020FF2106E004EB800293699960B3
:10342000526D9160401C62788242F5D821694FF05C
:10343000FF3088612846216966F30F0066F31F405C
:10344000C861216945F00B0048612169C1F8840019
:10345000216945F00B000861216948642069016811
:1034600021F4FE61016020461FF0CEFEE1684FF4BA
:103470008050486103480068016920468847012060
:1034800070BD00007400002070B5044620F0A2F862
:103490000122002384F8122184F8143119464025B2
:1034A00011E000BF01EB810004EBC00080F81D219A
:1034B00080F81C11A0F8221180F81F31C0E949538F
:1034C000491CC0F8303160788842EBD8002110E008
:1034D00001EB810004EBC00282F8753382F87413AB
:1034E000A2F87A1382F87733C2E9DF53491CC2F895
:1034F000883360788842EBD820461FF003FE2046D0
:103500001FF0E0FC0021204620F0C4F820461FF008
:1035100019FD2046BDE870401FF0CCBF2DE9F047F3
:103520000E46054601EB860005EBC004D4E94C01CC
:10353000421AD4F8240104F58E74904200D2024657
:10354000D21C970805EB860923E000BFA0EB010819
:10355000A168414500D2884608F1030087081FFA98
:1035600088F3F2B22846E16820F0A9F8E16801EB9F
:103570000800E060A16901EB0800A0616169884270
:1035800007D321780120884029694A6B82434A6326
:103590000BE0D9F81800806980B2B84205D9D4E9A7
:1035A0000501814201D20028D0D10120BDE8F08779
:1035B0002DE9F041154680460C46154E4FF4207714
:1035C00019E0802A0BD213487061214640460EF064
:1035D000D1FD70696D1C8088204484B20BE00E48D8
:1035E00070612A462146404600F0DEF87069AD1C45
:1035F0008088204484B2BC4208D22A78002A05D0B0
:1036000070698088011989B28142DAD2BDE8F081FF
:1036100020020020040300203C0300202DE9F0419B
:10362000154680460C46154E4FF4207719E0802A47
:103630000BD213487061214640460EF09BFD706925
:103640006D1C8088204484B20BE00E4870612A46CD
:10365000214640460EF0A4FD7069AD1C80882044D0
:1036600084B2BC4208D22A78002A05D070698088CA
:10367000011989B28142DAD2BDE8F081200200202E
:10368000FC0200202C0300202DE9F0411546804665
:103690000C46154E4FF4207719E0802A0BD21348C0
:1036A0007061214640460EF065FD70696D1C808892
:1036B000204484B20BE00E4870612A462146404601
:1036C00000F018F87069AD1C8088204484B2BC42B8
:1036D00008D22A78002A05D070698088011989B239
:1036E0008142DAD2BDE8F08120020020EC02002005
:1036F000440300202DE9F04116460F468046002481
:103700000D4D0FE0327882420AD105EB410270780C
:103710005178884204D139464046921C0EF014FE7E
:10372000641CA4B204EB440000EB041115F8110072
:103730008028E7D8BDE8F081E32103082DE9F041B6
:10374000154680460C46154E4FF4207719E0802A26
:103750000BD213487061214640460EF00BFD706994
:103760006D1C8088204484B20BE00E4870612A46AC
:103770002146404600F018F87069AD1C808820444E
:1037800084B2BC4208D22A78002A05D070698088A9
:10379000011989B28142DAD2BDE8F081200200200D
:1037A0001C030020340300202DE9F04116460F468B
:1037B000804600240C4D0EE03278824209D14A192D
:1037C00070785178884204D139464046921C0EF0F8
:1037D000BBFD641CA4B204EB8400C0EB8411685CE4
:1037E0008028E9D8BDE8F0819E0403082DE9F04166
:1037F000204E15460C4680466BB3012B38D18821EC
:1038000008460FF015F928239022414620460EF075
:103810002DFEBDE8F04188216FF07F400FF008B920
:10382000802A0BD214487061214640460EF0A2FC5B
:1038300070696D1C8088204484B20EE00F4870616E
:103840002A46214640460EF0ABFC7069AD1C8088CC
:10385000204484B201E04FF42077BC4208D22A7899
:10386000002A05D070698088011989B28142D7D2B7
:10387000BDE8F081200200200C0300202C03002072
:103880002DE9F041204E15460C4680466BB3012BC6
:1038900038D1882108460FF0CBF81C23602241461E
:1038A00020460EF0E3FDBDE8F04188216FF07F4037
:1038B0000FF0BEB8802A0BD21448706121464046F2
:1038C0000EF058FC70696D1C8088204484B20EE0B4
:1038D0000F4870612A46214640460EF061FC70692F
:1038E000AD1C8088204484B201E04FF42077BC42B4
:1038F00008D22A78002A05D070698088011989B217
:103900008142D7D2BDE8F0812002002014030020BC
:103910002C0300202DE9F041204E15460C46804630
:103920006BB3012B38D1882108460FF081F814239E
:103930003222414620460EF099FDBDE8F041882133
:103940006FF07F400FF074B8802A0BD2144870617A
:10395000214640460EF00EFC70696D1C80882044A4
:1039600084B20EE00F4870612A46214640460EF0B0
:1039700017FC7069AD1C8088204484B201E04FF4CC
:103980002077BC4208D22A78002A05D07069808846
:10399000011989B28142D7D2BDE8F081200200200E
:1039A000F40200202C03002010B50121CC05204694
:1039B00010F0DEFC2046BDE81040002110F0D8BC1D
:1039C000034A0146002052680A4200D00120704795
:1039D00000B0024030B52A4900240A68294B1A4039
:1039E0000A600A6803681A430A604A6B22F00702F9
:1039F0004A634A6B43681A434A63426842B3012AE6
:103A00002DD0022A30D0032AC26832D013010269B5
:103A1000446912022403856822431D4315438A6BBF
:103A200015438D638269CA630A6C6FF30D020A64E1
:103A30000A6CC3691A430A64828C4B6C03F04043DE
:103A40004B644B6C006A034343EA02434B6430BD52
:103A5000C268047D1302028A12042406DBE7C268EE
:103A60001302028A1204D6E7C26853010269D20225
:103A7000D1E75301026944699202E403CBE70000F5
:103A800000B00240FCE0FCFF0248016841F0010187
:103A90000160704700B0024013F004BE074A904234
:103AA00001D2074801E005481038064A8B0001EAB8
:103AB000020101D5C1607047816070471064024007
:103AC000006002407D0F7D0F0029016802D041F0A7
:103AD000010101E021F00101016070472DE9F0438F
:103AE000016821F0010101600021016041608160F5
:103AF000C1600161212141613C493C4A3D251039A9
:103B0000904202D18D60BDE8F083384A4FF474666C
:103B10001832904201D18E60F5E7344A4FF47417A1
:103B20003032904201D18F60EDE7304A4FF0746C33
:103B30004832904202D1C1F808C0E4E72B4B2C4A2E
:103B40006033984201D1CA60DDE7284C294B7834B4
:103B5000A04201D1CB60D6E7DFF89080264C08F177
:103B60009008404501D1CC60CDE7DFF880804FF070
:103B70003D5908F1A808404502D1C1F80C90C2E7B0
:103B80001E49DFF878800839404501D10D60BAE759
:103B90001A4D1835A84201D10E60B4E7174D3035E3
:103BA000A84201D10F60AEE7144D4835A84202D1BA
:103BB000C1F800C0A7E7114D10496035091FA842A0
:103BC00001D10A609FE70D4A7832904201D10B6023
:103BD00099E70A4A9032904201D10C6093E7074A74
:103BE000A83290428FD1C1F800908CE7106002405B
:103BF0003D000020400F002000003D2010640240E6
:103C00000029016802D041F0200101E021F02001EB
:103C1000016070470B0607D5436912B143F080037A
:103C200001E023F080034361802908D0002A026864
:103C300001F01E0101D00A4300E08A430260704790
:103C400030B50368124ACC6813400A682243D1E9B0
:103C500005452C432243CC6922430C6A22434C6A1B
:103C600022438C6A22434C6B22438C6B22431A43BF
:103C70000260426922F00703D1E90B2422431A4370
:103C800042610A6942604A6882608968C16030BDE9
:103C90003F801CF00648407B052805D0062803D04D
:103CA000082801D00F2802D102A021F0A3BE70473E
:103CB0003C0200202E0000002DE9F04FFA4DFB4F92
:103CC0002946687B4926FA4C91F80EC097ED000A08
:103CD000A5B0102831D2DFE810F0330053133000C4
:103CE0003000E30BE40D9114B214B7113000300032
:103CF0003000100030003000AE1494F83300082873
:103D000002D0102802D004E0102000E0082084F83F
:103D1000330014F0DBF96FF07F400EF09FFE882037
:103D20000EF080FE94F83320E2A101A820F07CFC84
:103D300001AAAA2132200EF057FA25B0BDE8F08F73
:103D4000D9484FF4CD774FF48179C17BD8484FF4EF
:103D5000BF7A4FF4FD7B90F82D2090F82730189310
:103D6000C37F1793C37D1693C37B159390F82630BA
:103D70001393837F2193837D1293837B239390F806
:103D800025301493437F1193437D1093437B0F930E
:103D900090F824301D93037F1C93037D1B93037BBA
:103DA0001A9390F823302493C37E2293C37C2093EC
:103DB000C37A1F9390F822300E93837E0D93837CF9
:103DC0001E93837A199390F821300C93437E0B93C2
:103DD000437C0A93437A099390F82030089390F833
:103DE00018E0037C007A4FF4A576BCF1290FA4D229
:103DF000DFE81CF02900C6004C013702BD02520367
:103E00002004B7044A055A069606D406110750073F
:103E10009207D4071A085C088708B108DB0808096C
:103E2000360964099209BD09D509ED09050A1E0A7A
:103E3000380A520A6C0A850A9E0AB70AD00AEA0AA8
:103E4000050B200B3B0B9D480EF008FE88200EF062
:103E5000E9FD94F82900022812D0012812D0032885
:103E600012D0042812D0052812D0062812D0072814
:103E700012D0082812D0092812D00B2812D016E030
:103E80008FA210E090A20EE091A20CE092A20AE0B4
:103E900093A208E094A206E095A204E096A202E0B4
:103EA00097A200E098A264212F200EF09DF994F8CB
:103EB0002D0020B1012836D0022850D04BE0E87BFD
:103EC00040B101280BD002280ED0032811D00428BD
:103ED00014D01CE0207821F003FC8DA213E0207A9E
:103EE00021F0FEFB8BA20EE0207C21F0F9FB8AA2E0
:103EF00009E0207E21F0F4FB88A204E094F8200081
:103F000021F0EEFB86A20A2164200EF0A3F994F8BA
:103F1000300030B183A000BF03F062F9012001F04E
:103F2000BDBA83A0F8E7E87B10B1012805D020E0F6
:103F3000207821F0D5FB76A203E0207E21F0D0FB93
:103F400076A20A216420FFF769FB12E078A000E066
:103F500074A003F045F9012003F0C6FBEDE6E87B11
:103F600038B9207821F0BCFB69A20A216420FFF750
:103F70008BFB0120A87394F830000028E8D1E5E716
:103F80004B4F02263F783AB1012A51D0022AE2D1A2
:103F900000296DD001F0C6B841B101290BD002292A
:103FA0000DD0032910D0042913D0F3E7384621F0AF
:103FB0005FFB57A211E021F05BFB56A20DE0184613
:103FC00021F056FB54A208E0704621F051FB53A2A9
:103FD00003E0089821F04CFB51A20A2164200EF066
:103FE00039F9E87B40B101280BD002280ED0032814
:103FF00011D0042814D0CDE7607821F071FB4FA2D6
:1040000013E0607A21F06CFB4DA20EE0607C21F0A1
:1040100067FB4CA209E0607E21F062FB4AA204E04B
:1040200094F8210021F05CFB48A20A21B420E1E0D1
:1040300011B101290DD0ADE7384621F019FB34A2AA
:104040000A216420FFF7EAFA607821F049FB3BA2DD
:104050000BE0704621F00CFB30A20A216420FFF730
:10406000DDFA607E21F03CFB37A20A218C20E4E0DF
:10407000384621F0FDFA26A20A216420FFF704FB4E
:10408000607821F02DFB2DA20A21FCE308480326CD
:10409000407832B1012A70D0022A7FF40FAF09B103
:1040A00078E755E0CCE000003C020020E4FF00206F
:1040B00024030120253033640000000000FFFF00CE
:1040C00054432D4B0000000054432D5400000000C9
:1040D00054432D4A0000000054432D4E00000000C0
:1040E00054432D450000000054432D5300000000B0
:1040F00054432D520000000054432D4200000000A4
:104100005054313030000000317E35560000000040
:104110003030310030303900303137003032350046
:10412000303333004368616E6E656C2073657400D4
:10413000CDA8B5C0C9E8D6C30000000030303200B9
:104140003031300030313800303236003033340016
:1041500041B101290BD0022910D0032914D0042920
:1041600018D017E721F084FAAFF2300217E009986F
:1041700021F07EFAAFF2380211E03EE00A9821F019
:1041800077FAAFF240020AE00B9821F071FAAFF231
:10419000480204E00C9821F06BFAAFF250020A21B9
:1041A000B4200EF057F8E87B40B101280BD002286C
:1041B0000ED0032811D0042814D0EBE6A07821F00B
:1041C0008FFAFDA213E0A07A21F08AFAFBA20EE09A
:1041D000A07C21F085FAFAA209E0A07E21F080FA05
:1041E000F8A204E094F8220021F07AFAF6A20A215B
:1041F0004FF482700EF02EF8CCE611B101290DD0EB
:10420000C8E621F035FAAFF2CC020A218C20FFF784
:1042100005FAA07821F064FAE7A20CE00B9821F0EF
:1042200027FAAFF2DC020A218C20FFF7F7F9A07E13
:1042300021F056FAE3A20A21B420FFF7EFF9A9E62C
:1042400021F016FAAFF20C120A218C20FFF71CFAAB
:10425000A07821F045FAD8A20A21F3E3FFF714FA77
:1042600098E6DA480426807832B1012A53D0022A2F
:104270007FF424AE89B38DE641B101290AD0022929
:104280000DD0032910D0042913D083E621F0F0F9D2
:10429000C9A212E0199821F0EBF9C8A20DE01E980E
:1042A00021F0E6F9C6A208E00D9821F0E1F9C5A2D7
:1042B00003E00E9821F0DCF9C3A20A214FF48270CA
:1042C0000DF0C8FFE87B48B101280CD002280FD0C0
:1042D000032812D0042815D05CE63BE0E07821F0FA
:1042E000FFF9BBA213E0E07A21F0FAF9B9A20EE0DF
:1042F000E07C21F0F5F9B8A209E0E07E21F0F0F9C8
:10430000B6A204E094F8230021F0EAF9B4A20A214D
:104310004FF4AA706EE711B101290CD03AE621F0F2
:10432000A7F9A5A20A21B420FFF778F9E07821F0D7
:10433000D7F9A7A20BE00D9821F09AF9A1A20A21C2
:10434000B420FFF76BF9E07E21F0CAF9A3A20A219D
:10435000DC2072E721F08CF997A20A21B420FFF744
:1043600093F9E07821F0BCF999A20A21F2E3974889
:10437000C07832B1012A59D0022A7FF4EFADE9B3F7
:1043800075E041B101290AD002290DD0032910D0CE
:10439000042913D01BE021F06BF98DA212E01F98C5
:1043A00021F066F98BA20DE0209821F061F98AA234
:1043B00008E0229821F05CF988A203E0249821F01B
:1043C00057F987A20A214FF4AA700DF043FF00208D
:1043D0000EF044FB83480EF025FB94F829000228D8
:1043E0006FD001286ED003286DD004286CD005282A
:1043F0006BD006286AD0072869D000E03BE0082887
:104400006FD009286ED00B286DD003E064212F20D7
:104410000DF0EAFE94F8300008B173A000E077A038
:1044200002F0DEFE05F0FEFF0020A3E211B101293B
:104430000CD01CE021F01CF965A20A21DC20FFF75A
:10444000EDF8207921F04CF970A20BE0229821F0D0
:104450000FF962A20A21DC20FFF7E0F8207F21F0AB
:104460003FF96BA20A214FF48270FFF7D7F80120C1
:1044700003F03AF966E221F0FBF855A20A21DC20AC
:10448000FFF702F9207921F02BF960A20A214FF4FD
:104490008270FFF7F9F8EAE74C480627007932B155
:1044A000012A5BD0022A7FF409ADD1B303E379B1CD
:1044B000012911D0022917D003291AD004291DD0AF
:1044C000F9E264E266E268E26AE26CE26EE270E2FD
:1044D00021F0CEF84DA215E01A9821F0C9F84DA2AE
:1044E00010E069E26BE26DE21B9821F0C1F84AA28C
:1044F00008E01C9821F0BCF845A203E01D9821F0CB
:10450000B7F846A2314664200DF0A4FEE87B48B11E
:1045100001280CD002280FD0032812D0042815D06F
:10452000C9E23BE0607921F0DBF83DA213E0607B5B
:1045300021F0D6F83BA20EE0607D21F0D1F83AA23E
:1045400009E0607F21F0CCF838A204E094F825005F
:1045500021F0C6F836A23146B420C8E011B10129D5
:104560000DD0A8E221F084F828A20A214FF482702D
:10457000FFF754F8607921F0B3F829A20CE01C98F9
:1045800021F076F822A20A214FF48270FFF746F854
:10459000607F21F0A5F825A20A21A7E321F068F8A1
:1045A0001AA20A214FF48270FFF76EF8607921F0A9
:1045B00097F81BA20A21ACE33030330030313100D0
:1045C00030313900303237003033350024030120D8
:1045D0003030340030313200303230003032380088
:1045E0003033360000FFFF00546865726D6F636FF3
:1045F00075706C65206D6F64656C0000C8C8B5E7A8
:10460000C5BCD0CDBAC5D1A1D4F100003030350041
:10461000303239003031330030323100303337003E
:104620003030360030313400303232003033300038
:1046300030333800F7480727407932B1012A59D082
:10464000022A7FF43BACA9B3F8E341B101290BD0B6
:1046500002290FD0032913D0042917D0EEE321F04B
:1046600007F8AFF2440216E00F9821F001F8AFF21C
:104670004C0210E0109820F0FBFFAFF254020AE069
:10468000119820F0F5FFAFF25C0204E0149820F0DE
:10469000EFFFAFF264023146B4200DF0DBFDE87BA2
:1046A00048B101280CD002280FD0032812D00428CA
:1046B00015D0C3E343E0A07921F012F8D6A213E0AD
:1046C000A07B21F00DF8D5A20EE0A07D21F008F826
:1046D000D3A209E0A07F21F003F8D2A204E094F86D
:1046E000260020F0FDFFD0A231464FF482700DF07D
:1046F000B1FDA3E311B101290ED09FE320F0B8FF73
:10470000AFF2E4020A214FF49670FEF787FFA0791A
:1047100020F0E6FFC0A20DE0119820F0A9FFAFF253
:10472000F4020A214FF49670FEF778FFA07F20F084
:10473000D7FFBCA20A211BE3FEF770FF7EE320F047
:1047400097FFAFF224120A214FF49670FEF79CFFF8
:10475000A07920F0C5FFB0A20A211CE3FEF794FF68
:104760006CE3AC48807932B1012A55D0022A7FF43B
:10477000F2AB89B385E041B101290AD002290DD0FD
:10478000032910D0042913D07BE020F071FFA2A2EE
:1047900012E0239820F06CFFA0A20DE0129820F008
:1047A00067FF9FA208E0219820F062FF9DA203E02E
:1047B000139820F05DFF9CA231464FF482700DF0FB
:1047C00049FDE87B48B101280CD002280FD003280E
:1047D00012D0042815D054E042E0E07920F080FFA8
:1047E00092A213E0E07B20F07BFF91A20EE0E07D3F
:1047F00020F076FF8FA209E0E07F20F071FF8EA20B
:1048000004E094F8270020F06BFF8CA231464FF4AF
:10481000AA700DF01FFD34E011B101290DD030E078
:1048200020F026FF7CA20A214FF4AA70FEF7F6FEC4
:10483000E07920F055FF7DA20CE0219820F018FFD0
:1048400078A20A214FF4AA70FEF7E8FEE07F20F07C
:1048500047FF79A20A214FF4BE70FEF7DFFE10E099
:1048600020F006FF6CA20A214FF4AA70FEF70CFF9D
:10487000E07920F035FF6DA20A214FF4BE70FEF7FB
:1048800003FF0820CFE239E36248C07932B1012A40
:104890005AD0022A7FF451AA89B3FFE041B101291D
:1048A0000AD002290DD0032910D0042913D049E0E1
:1048B00020F0DEFE5DA212E0159820F0D9FE5CA289
:1048C0000DE0169820F0D4FE5AA208E0179820F0C8
:1048D000CFFE59A203E0189820F0CAFE57A2314635
:1048E0004FF4AA700DF0B6FCE87B48B101280DD05A
:1048F000022811D0032815D0042819D022E064E042
:10490000207920F0EDFEAFF2FC2217E0207B20F0B2
:10491000E7FEAFF2003211E0207D20F0E1FEAFF2C1
:1049200008320BE0207F20F0DBFEAFF21C3205E006
:1049300094F8240020F0D4FEAFF2203231466420F7
:104940000DF088FC052015E0C1B10129A2D117980E
:1049500020F08EFE38A20A214FF4BE70FEF75EFEF4
:10496000207E20F0BDFEAFF64C020A216420FEF747
:1049700055FE0120A87325B0BDE8F08F20F078FE29
:104980002AA20A214FF4BE70FEF748FE1FE5AFF6DB
:10499000D0023BE5AFF6D00238E5AFF6CC0235E504
:1049A000AFF6CC0232E5AFF6C8022FE5AFF6C8028B
:1049B0002CE5AFF6C40229E5AFF6C40226E5AFF652
:1049C000C00223E5AFF6C00220E520F051FE17A299
:1049D0000A214FF4BE70FEF757FE00200EF03EF89D
:1049E00017480EF01FF894F8290002282BD0012850
:1049F0002CD003282DD004282ED005282FD006280F
:104A000030D0072831D0082832D0092833D00B28DD
:104A100034D039E024030120303037003031350004
:104A20003032330030333100303339003030380029
:104A30003031360030323400303332003034300020
:104A400000FFFF0085E2AFF6881219E0AFF688128A
:104A500016E0AFF6841213E0AFF6841210E0AFF662
:104A600080120DE0AFF680120AE0AFF67C1207E08C
:104A7000AFF67C1204E0AFF6781201E0AFF67812E0
:104A800064212F200DF0B0FB94F8300048B1AFF254
:104A9000A84000BF02F0A4FB0020A87305F0C2FCF0
:104AA00069E7AFF2A840F5E70A27012A04D0022AF5
:104AB0007FF451AA21B3C1E111B101290ED0BDE1AA
:104AC00020F0D6FDAFF6B41231466420FEF7A6FD05
:104AD000607A20F005FEAFF698120EE0089820F0FC
:104AE000C7FDAFF6C41231466420FEF797FD94F877
:104AF000210020F0F5FDAFF6AC1231468C201BE60C
:104B000020F0B6FDAFF6F41286216420FEF7BCFD5E
:104B1000607A20F0E5FDAFF6D81286218C201DE6E4
:104B20000B27012A03D0022AC2D131B386E111B189
:104B3000012910D082E1099820F09AFDAFF60022F9
:104B400031468C20FEF76AFDA07A20F0C9FDAFF255
:104B500094520FE027E20C9820F08AFDAFF6142261
:104B600031468C20FEF75AFD94F8220020F0B8FD63
:104B7000AFF2AC523146B420DEE5099820F078FD62
:104B8000AFF6442286218C20FEF77EFDA07A20F02D
:104B9000A7FDAFF2D8528621B420DFE50C27012A09
:104BA00003D0022A84D129B348E111B101290FD0E1
:104BB00044E1199820F05CFDAFF200623146B42068
:104BC000FEF72CFDE07A20F08BFDAFF2F8520EE0FC
:104BD0000E9820F04DFDAFF210623146B420FEF782
:104BE0001DFD94F8220020F07BFDAFF20C623146EF
:104BF000DC20A1E5199820F03BFDAFF24062862150
:104C0000B420FEF741FDE07A20F06AFDAFF23C628D
:104C10008621DC20A2E50D27012A03D0022AC1D17A
:104C200031B30BE111B101290FD007E11F9820F03A
:104C30001FFDAFF260623146DC20FEF7EFFC207B07
:104C400020F04EFDAFF234620EE0249820F010FD0B
:104C5000AFF274623146DC20FEF7E0FC94F82400E9
:104C600020F03EFDAFF24C6231464FF4827063E5B6
:104C70001F9820F0FDFCAFF2A4628621DC20FEF735
:104C800003FD207B20F02CFDAFF2786286214FF4EB
:104C9000827063E50E27012A03D0022ABFD141B3F7
:104CA000CCE011B1012910D0C8E01A9820F0E0FC46
:104CB000AFF2A06231464FF48270FEF7AFFC607B2A
:104CC00020F00EFDAFF2A4620FE01D9820F0D0FCA2
:104CD000AFF2B86231464FF48270FEF79FFC94F851
:104CE000250020F0FDFCAFF2B86231464FF496701B
:104CF00022E51A9820F0BCFCAFF2E86286214FF45E
:104D00008270FEF7C1FC607B20F0EAFCAFF2EC623F
:104D100086214FF4967021E50F27012A03D0022A3D
:104D2000BCD141B38AE011B1012910D086E00F98BF
:104D300020F09EFCAFF2147231464FF49670FEF7ED
:104D40006DFCA07B20F0CCFCAFF230320FE0149869
:104D500020F08EFCAFF2287231464FF49670FEF7C9
:104D60005DFC94F8260020F0BBFCAFF244323146E3
:104D70004FF4AA70E0E40F9820F07AFCAFF25C7276
:104D800086214FF49670FEF77FFCA07B20F0A8FCF4
:104D9000AFF2783286214FF4AA70DFE4012A03D003
:104DA000022ABDD151B33DE011B1012910D039E043
:104DB000239820F05DFCAFF29C3231464FF4AA708C
:104DC000FEF72CFCA07B20F08BFCAFF29C320FE0B6
:104DD000139820F04DFCAFF2B03231464FF4AA7078
:104DE000FEF71CFC94F8270020F07AFCAFF2B432F6
:104DF00031464FF4BE70FEF711FC13E0239820F00B
:104E000037FCAFF2E83286214FF4AA70FEF73CFC83
:104E1000E07B20F065FCAFF2E83286214FF4BE70F3
:104E2000FEF732FC102039E30927012A03D0022AB9
:104E3000B7D149B302E021B1012912D0AF73FFF716
:104E40008AB8159820F014FCAFF21C4231464FF49A
:104E5000BE70FEF7E3FB207A20F042FCAFF64C5226
:104E60000FE0189820F004FCAFF2304231464FF4C6
:104E7000BE70FEF7D3FB94F8200020F031FCAFF6B3
:104E800060523146642057E4159820F0F1FBAFF2F0
:104E9000604286214FF4BE70FEF7F6FB207A20F0C8
:104EA0001FFCAFF690528621642057E41226012A97
:104EB00003D0022AC3D189B134E1184620F0D8FBCF
:104EC000AFF6AC5239466420FEF7A8FB607C20F0B8
:104ED00007FCAFF690523946FFF7C8B8184620F0E5
:104EE000C7FBAFF6CC524F4649466420FEF7CCFBD9
:104EF000607C20F0F5FBAFF6B45239468C20FFF70A
:104F0000ADB91326012A03D0022A98D189B109E14B
:104F10000A9820F0ADFBAFF6D45239468C20FEF74C
:104F20007DFBA07C20F0DCFBAFF66C123946FFF76E
:104F300083B90A9820F09CFBAFF6F8524F464946D9
:104F40008C20FEF7A1FBA07C20F0CAFBAFF69012EC
:104F50003946B420D3E71426012A03D0022AA9D166
:104F600089B1DFE01E9820F083FBAFF6AC12394622
:104F7000B420FEF753FBE07C20F0B2FBAFF6A812A2
:104F80003946FFF7E5B91E9820F072FBAFF6D01254
:104F90004F464946B420FEF777FBE07C20F0A0FBAB
:104FA000AFF6CC123946DC20A9E71526012A03D03A
:104FB000022AAAD199B1B5E0209820F059FBAFF6AA
:104FC000E8123946DC20FEF729FB207D20F088FB23
:104FD000AFF6BC1239464FF48270FFF72EB9209815
:104FE00020F046FBAFF610224F464946DC20FEF784
:104FF0004BFB207D20F074FBAFF6E41239464FF4F2
:1050000082707CE71626012A03D0022AA7D199B123
:1050100088E01B9820F02CFBAFF6042239464FF4B1
:105020008270FEF7FBFA607D20F05AFBAFF6082293
:1050300039464FF49670D0E71B9820F019FBAFF675
:1050400028224F4649464FF48270FEF71DFB607DD3
:1050500020F046FBAFF6302239464FF496704EE70B
:105060001726012A03D0022AA3D199B15AE0109839
:1050700020F0FEFAAFF6502239464FF49670FEF754
:10508000CDFAA07D20F02CFBAFF26C6239464FF4D4
:10509000AA70A2E7109820F0EBFAAFF674224F4600
:1050A00049464FF49670FEF7EFFAA07D20F018FB0A
:1050B000AFF2946239464FF4AA7020E71826012A0D
:1050C00003D0022AA2D199B12CE0129820F0D0FA94
:1050D000AFF2B46239464FF4AA70FEF79FFAE07D52
:1050E00020F0FEFAAFF2B46239464FF4BE7074E7B6
:1050F000129820F0BDFAAFF2D8624F4649464FF4FD
:10510000AA70FEF7C1FAE07D20F0EAFAAFF2DC62A5
:1051100039464FF4BE70F2E61126012A04D0022A65
:10512000A2D191B1AE738AE6169820F0A1FAAFF23F
:10513000FC6239464FF4BE70FEF770FA207C20F016
:10514000CFFAF94A3946642047E7169820F090FADA
:10515000AFF220724F4649464FF4BE70FEF794FA04
:10516000207C20F0BDFAF04A39466420C7E6022AC6
:10517000D9D191B9704620F07BFAEB4A5646121D00
:1051800051466420FEF780FA607E20F0A9FAE64AD4
:10519000314630328C20FEF777FA1A207EE1022A5F
:1051A000C1D191B90B9820F063FADF4A56463032EC
:1051B00051468C20FEF768FAA07E20F091FAAFF6F7
:1051C000FC323146B420FEF75FFA1B2066E1022A6A
:1051D000A9D191B90D9820F04BFAAFF61842564676
:1051E0005146B420FEF750FAE07E20F079FAAFF68F
:1051F00014423146DC20FEF747FA1C204EE1022A19
:1052000091D199B9229820F033FAAFF63042564640
:105210005146DC20FEF738FA207F20F061FAAFF625
:10522000104231464FF48270FEF72EFA1D2035E110
:10523000022A9DD1A1B91C9820F01AFAAFF630428B
:10524000564651464FF48270FEF71EFA607F20F0FA
:1052500047FAAFF6284231464FF49670FEF714FA3B
:105260001E201BE1022A9BD1A1B9119820F000FA5F
:10527000AFF64842564651464FF49670FEF704FA90
:10528000A07F20F02DFAAFF6640231464FF4AA70E9
:10529000FEF7FAF91F2001E1022A99D1A1B921985C
:1052A00020F0E6F9AFF68402564651464FF4AA7054
:1052B000FEF7EAF9E07F20F013FAAFF684023146F8
:1052C0004FF4BE70FEF7E0F92020E7E0022A97D104
:1052D00099B9179820F0CCF9AFF6A402564651467A
:1052E0004FF4BE70FEF7D0F9207E20F0F9F98E4A17
:1052F0003146121D6420FEF7C7F91920CEE0022ABC
:1053000097D199B9089820F0B3F9874A5E460832D8
:1053100059466420FEF7B8F994F8210020F0E0F92E
:10532000814A314634328C20FEF7AEF92220B5E0B6
:10533000022A98D199B90C9820F09AF97A4A5E46D7
:10534000343259468C20FEF79FF994F8220020F061
:10535000C7F9AFF68C523146B420FEF795F92320F9
:105360009CE0022A99D199B90E9820F081F9AFF604
:10537000A8525E465946B420FEF786F994F82300F9
:1053800020F0AEF9AFF6A8523146DC20FEF77CF9EA
:10539000242083E0022A9AD1A1B9249820F068F948
:1053A000AFF6C4525E465946DC20FEF76DF994F81C
:1053B000240020F095F9AFF69C5231464FF48270EC
:1053C000FEF762F9252069E0022A99D1A9B91D9852
:1053D00020F04EF9AFF6BC525E4659464FF482704B
:1053E000FEF752F994F8250020F07AF9AFF6C05292
:1053F00031464FF49670FEF747F926204EE0022A18
:1054000097D1A9B9149820F033F9AFF6DC525E4673
:1054100059464FF49670FEF737F994F8260020F0BD
:105420005FF9AFF6FC1231464FF4AA70FEF72CF983
:10543000272033E0022A95D1A9B9139820F018F952
:10544000AFF61C225E4659464FF4AA70FEF71CF9CF
:1054500094F8270020F044F9AFF6202231464FF4AB
:10546000BE70FEF711F9282018E0022A93D1A1B9E5
:10547000189820F0FDF8AFF63C225E4659464FF4EE
:10548000BE70FEF701F994F8200020F029F9264AB1
:10549000314608326420FEF7F7F82120A873CEE4E5
:1054A0004FF4FA76BCF1320F71D016DCBCF12C0F40
:1054B0004CD0BCF12D0F6BD0BCF12E0F69D0BCF1DC
:1054C000310F7FF458AA20F0F5F894F82E0050B36D
:1054D00001286FD002286ED080E1BCF15F0F6BD045
:1054E000BCF1610F69D0BCF1620FEAD120F0E2F8A3
:1054F00094F83B3094F83A200CA101A830341FF006
:1055000093F801AA9621F8200CF06EFE0A48008854
:1055100025F00CFB2078C8B308A000BF01F060FEA6
:105520003320FFF727BA43E11841000825302E3217
:10553000643A25302E326400980100205265636F72
:10554000726420696E74657276616C0020F0B2F846
:1055500094F82C00002894F8300021D028B3F8A249
:10556000962132200CF040FE20F0CAF894F82A0070
:10557000002894F830001AD010B3F1A296215A20D6
:105580000CF032FE94F83000E0B103E00EE14DE1A2
:105590001AE065E0EBA000BF01F022FE2D20C0E77D
:1055A00008B1ECA2DCE7ECA2DAE7EDA2D8E728B17B
:1055B000E8A2E3E703E109E19CE0CCE0E6A2DDE755
:1055C000E7A2DBE7E8A0E7E720F074F894F82A0008
:1055D000002894F8300027D058B3D9A296215A2039
:1055E0000CF002FEE34801460DF022FA1F231822B8
:1055F0007F2196200CF03AFF94F82B0005281AD052
:1056000004284FF0000020D00DF028FADAA29B21E8
:105610007F200CF0E9FD94F83000F8B1D7A000BF6E
:1056200001F0DEFD2E207CE708B1CAA2D6E7CAA2AF
:10563000D4E7CBA2D2E700200DF010FAD5A2962134
:105640007F20FEF721F8D4A2E1E70DF007FAD1A2FE
:1056500096217F20FEF718F8BDA2D8E7CFA0DFE79C
:10566000882108460DF0E4F91F2318227F21962097
:105670000CF0FCFE94F82B0005281FD00428BD4830
:1056800026D00DF0EBF9BCA29B217F200CF0ACFDE5
:1056900020F036F894F83600002894F8300020D036
:1056A00020B3A7A29621AA200CF09EFD94F830000A
:1056B000F0B1BEA001F094FD5F2032E7AD480DF0DF
:1056C000CDF9B4A296217F20FDF7DEFFB2A2DBE781
:1056D0000DF0C4F9AFA296217F20FDF7D5FF9CA263
:1056E000D2E708B19BA2DDE79BA2DBE79CA2D9E74A
:1056F000B1A0DFE71FF0DEFF94F83600002894F831
:1057000030001FD018B38EA29621AA200CF06CFD99
:105710001FF0F6FF94F8393094F83820AFF2F41106
:1057200001A830341EF080FF01AA9621D0200CF091
:105730005BFD207868B1A3A001F052FD01206870E4
:105740006120EEE608B183A2DEE783A2DCE784A253
:10575000DAE79EA0F0E71FF0ADFF94F8393094F837
:105760003820AFF2382101A830341EF05DFF01AAC5
:105770009621D0200CF038FD1FF0C2FFE37AA27A08
:10578000AFF2582101A81EF04FFF01AA9621F82080
:105790000CF02AFD207838B190A000BF01F020FD68
:1057A000012068706220BCE68DA0F7E790A0B5E606
:1057B00094F8300008B192A20CE093A20AE094F8A9
:1057C000300008B192A205E092A203E094F8300004
:1057D00090B192A2314632200CF006FD1FF090FFEE
:1057E00094F82F0050B101280AD002280AD00328CB
:1057F0000AD004280AD00EE08AA2EBE78BA206E0CA
:105800008CA204E08DA202E08EA200E08FA23146BD
:1058100057200CF0E9FC94F8300028B18DA000BFAF
:1058200001F0DEFC32207CE68FA0F9E71FF042FF9A
:1058300094F82F0040B1012808D0022808D003288E
:1058400008D0042808D00CE078A206E079A204E091
:105850007AA202E07BA200E07CA2314657200CF045
:10586000C3FC1FF04DFF94F83700002894F8300077
:105870000ED090B132A2314682200CF0B5FC94F8E3
:10588000300060B17BA000BF01F0AAFC602048E6B8
:1058900008B130A2EFE730A2EDE731A2EBE777A045
:1058A000F2E7794C794E7A4894ED210AD6ED214AF7
:1058B000407C96ED194AD6ED113A96ED093AD6EDAF
:1058C000012A94ED192AD4ED111A94ED091AD4ED98
:1058D000010AACF1380CBCF10F0FBFF44CA8DFE8A3
:1058E0000CF00AF7F5F4F3F2F108F0EFEEEDECEB63
:1058F0002E00FFF740B840B101280ED0022814D086
:1059000003281AD0042819D0D4E0B0EE600A02208F
:1059100020F06AFE94ED000AC9E0B0EE410A0220D0
:1059200020F062FE94ED080AC1E0B0EE610A0220A8
:1059300020F05AFE94ED100AB9E0ABE0B2E04DE37E
:105940004F4E000042757A7A6572204F4E2F4F46B7
:10595000460000004F464600B9D8B1D5000000000F
:10596000B4F2BFAA00000000B7E4C3F9C6F7C9E863
:10597000D6C3000000FFFF004B00000053656C65BC
:1059800063742074656D70657261747572652075DD
:105990006E6974006F00000043000000CEC2B6C8FC
:1059A000B5A5CEBBD1A1D4F1000000005472696747
:1059B0002054696D65720000B6A8CAB1B2C9BCAF07
:1059C000000000005354415254000000B2C9BCAF63
:1059D000BFAACABCCAB1BCE400000000454E4400E6
:1059E000B2C9BCAFBDE1CAF8CAB1BCE40000000056
:1059F000BCC7C2BCBCE4B8F4CAB1BCE4000000003F
:105A00004641535400000000BFECCBD90000000019
:105A10004D454400D6D0CBD900000000534C4F5721
:105A200000000000C2FDCBD9000000003936303044
:105A3000000000003139323030000000333834309B
:105A4000300000003537363030000000313135325B
:105A50003030000053656C656374204261756420CA
:105A60007261746500000000B2A8CCD8C2CAC9E84F
:105A7000D6C300005245504541540000D6D8B8B4B2
:105A8000B2C9BCAF00000000FC0300205C03002092
:105A90003C020020B0EE420A022020F0A5FD94ED69
:105AA000180A04E0022020F09FFD94ED200A012056
:105AB00020F00CFD392034E55AE223E2ECE1B5E1B7
:105AC0007EE147E110E1D9E0A2E06BE034E0FFE7DE
:105AD00040B101280ED0022814D003281AD004287F
