:020000040800F2
:1000000008330220C1010008835E01082D2E01087B
:10001000815E0108D1120008675402080000000048
:100020000000000000000000000000004D9D0108DD
:100030006967000800000000655F01083DA1010834
:10004000DB010008DB010008DB010008DB01000820
:10005000DB010008DB010008DB010008DB01000810
:10006000DB010008DB010008DB010008DB01000800
:10007000DB010008DB010008DB010008DB010008F0
:10008000DB010008DB010008DB010008DB010008E0
:10009000DB010008DB010008DB010008DB010008D0
:1000A000DB010008DB010008DB010008DB010008C0
:1000B000DB010008DB010008DB010008DB010008B0
:1000C000DB010008DB010008DB010008DB010008A0
:1000D000DB0100081D3C0208DB010008DB01000811
:1000E000DB010008DB010008DB010008DB01000880
:1000F000DB010008DB010008DB010008DB01000870
:10010000DB01000875840108DB010008DB01000841
:10011000DB010008DB010008D5A10108DB010008B4
:10012000DB010008DB010008DB010008713B00086F
:10013000DB010008DB010008DB010008DB0100082F
:10014000DB010008DB010008DB010008295F010872
:10015000DB010008DB010008DB010008DB0100080F
:10016000DB010008DB010008415F0108355F010881
:10017000DB0100084D5F0108DB010008DB0100081E
:10018000DB010008DB010008DB010008DB010008DF
:10019000DB010008DB010008DB010008DB010008CF
:1001A000DB010008DB010008DB010008DFF80CD0F0
:1001B00000F078FC00480047A57C020808330220C4
:1001C0000648804706480047FEE7FEE7FEE7FEE7F1
:1001D000FEE7FEE7FEE7FEE7FEE7FEE779A101089E
:1001E000AD0100082DE9F05F0546002092469B46D0
:1001F00088460646814640241BE02846414647463D
:10020000224600F0A8FA53465A46C01A914110D32C
:1002100011461846224600F08FFA2D1A67EB0108A6
:100220004F4622460120002100F086FA17EB000914
:100230004E41201EA4F10104DFDC484631462A4627
:100240004346BDE8F09FD2B201E000F8012B491E01
:10025000FBD270470022F6E710B513460A46044663
:100260001946FFF7F0FF204610BD421E12F8013F6D
:10027000002BFBD111F8013B02F8013B002BF9D117
:10028000704710B5044604E00B7800F8013B03B159
:10029000491C521EF8D2204610BD421C10F8011B0A
:1002A0000029FBD1801A704710B5002200E0521CD3
:1002B000835C8C5CA34201D1002BF8D1D8B2E1B2AF
:1002C000401A10BD034611F8012B00F8012B002A3B
:1002D000F9D11846704770B5064626F079F80468DB
:1002E00005460A220021304600F0A6FA2C6070BDB7
:1002F0002DE9FE4F804681EA0300C00F0C460090B6
:1003000021F0004123F00045B8EB0200A94105D2DD
:100310004046214690461C460B46024623F00040CC
:10032000104347D0270DC7F30A00C3F30A510290C8
:10033000401A019040286BDAC3F3130040F4801B8D
:100340000098924620B10023D2EB030A63EB0B0B1B
:1003500001985946C0F14002504600F0EDF90646BA
:100360000D4650465946019A00F005FA10EB080078
:100370006141002487EA115284EAE7731A4340D0AE
:10038000009A62B3019A012A4FEA075215DC001B5A
:1003900061EB02014FF0004202EA0752CDE9004250
:1003A000001C41F5801132462B4600F0C3FA03B021
:1003B000BDE8F08F40462146F9E7001B61EB0201E2
:1003C000001C41F5801300185B412018A2F50017AE
:1003D00047EB030140EAD570B6196D4111E06D0895
:1003E0004FEA360645EAC0754FEA0752001B61EB3B
:1003F0000201001C41F5801149084FEA3000001944
:10040000514132462B4603B0BDE8F04F00F083BAAD
:100410000098012240000023D0EB020263EBE0735E
:10042000009821464FEAE074B8EB000061EB04014C
:10043000E9E783F000435BE781F0004158E72DE9ED
:10044000FE4F81EA030404F0004421F000410094CF
:100450004FF0000B23F0004350EA01045ED052EA53
:1004600003045BD0C3F30A54C1F30A552C44A4F22D
:10047000F3340194A0FB0254C1F3130141F4801141
:10048000C3F3130343F4801301FB024400FB034E48
:10049000840A970A44EA815447EA8357A4FB076811
:1004A00002958D0A05FB07854FEA932C04FB0C543B
:1004B0002705029D4FEA065847EA1637B5EB0805AF
:1004C0006EEB070C870E920E47EA811742EA831201
:1004D000A7FB0201B6EB0B0164EB00042B0D43EA12
:1004E0000C335E1844EB1C50DA465146E7FB020120
:1004F000C5F313044FEA0B3343EA14534FEA0432B3
:10050000019C43EA0603A4F10C040294009CCDE98B
:1005100000B400F00FFA03B0BDE8F08F00200146F0
:10052000F9E72DE9F04D81EA030404F0004B21F0D6
:10053000004514464FF0000A23F0004150EA05023E
:1005400020D054EA01021DD0C5F30A570246C5F374
:100550001303C1F31300C1F30A5640F4801543F4AA
:100560008013A7EB0608101BD64608F2FD3873EB84
:10057000050002D308F1010801E092185B41B8F1CF
:10058000000F03DA00200146BDE8F08D00204FF493
:100590008011064684460EE0171B73EB050705D352
:1005A000121B63EB050306434CEA010C49084FEAB2
:1005B000300092185B4150EA0107EDD152EA030086
:1005C00012D082EA040083EA0501084305D0101B1B
:1005D000AB4106D20122002306E000224FF0004387
:1005E00002E06FF0010253101AEB06004CEB0851C9
:1005F00010EB0A0041EB0B01BDE8F04D00F08BB9A8
:100600000EB540F2334102910021CDE900110A46B6
:100610000B4600F08FF903B000BDC1F30A5210B5CC
:10062000C1F3130140F2FF3341F480119A4201DA21
:10063000002010BD40F233439A42A2F2334203DC61
:10064000524200F088F810BD904010BD00F000420A
:1006500030F000400AD0C10D01F56071C0F3160002
:1006600042EA0151C2084007114370470020014689
:100670007047000030B5041E71F1000404DB4FF038
:100680000044404264EB0101141E73F1000405DBD9
:100690001C464FF00043524263EB04038B4208BFF9
:1006A000824230BD30B5041E71F1000404DB4FF00E
:1006B0000044404264EB0101141E73F1000405DBA9
:1006C0001C464FF00043524263EB0403994208BFBB
:1006D000904230BD01F0004330B421F0004150EAB7
:1006E000010206D00A0DA2F56072C1F31301002ABF
:1006F00002DC30BC00207047440F44EAC104C10052
:10070000E01830BC00EBC25000F0CEB830B50B465C
:10071000014600202022012409E021FA02F59D4231
:1007200005D303FA02F5491B04FA02F52844151E05
:10073000A2F10102F1DC30BD202A04DB203A00FAEC
:1007400002F1002070479140C2F1200320FA03F328
:10075000194390407047202A04DB203A21FA02F026
:100760000021704721FA02F3D040C2F120029140EB
:10077000084319467047202A06DBCB17203A41FA76
:1007800002F043EAE07306E041FA02F3D040C2F11E
:100790002002914008431946704700000FB400231F
:1007A00000B589B00CA900910B996FF00042CB60A5
:1007B0001E4B06931E4B07930423CDE901321D4ABD
:1007C000089202466B46002000F020FA09B05DF85E
:1007D00014FB70B586B006464FF0FF300091CDE9AE
:1007E0000101002015460C4604903246694604A8D3
:1007F000FFF7D4FF02460498211825B108B1084636
:1008000000E020462860049800280DD0002A02DD70
:100810000098884208D0081B0094CDE901043246B4
:10082000694604A8FFF7BAFF06B070BD450E000880
:10083000630E0008D10A00082DE9F04791460F46E3
:1008400080460446002614F8015B2DB100F03CF907
:100850000068405DC007F6D12B2D02D02D2D18D099
:10086000641E4A463946204600F00CFB27B1396821
:10087000A14201D1C7F8008071054FF002040BD5E9
:100880004042002803DD25F0A3FD0460A007BDE879
:10089000F08746F48066E4E70028F8DA25F098FD52
:1008A00004606FF00040F2E70029A8BF7047401CC9
:1008B000490008BF20F00100704710B4B0FA80FC76
:1008C00000FA0CF050EA010404BF10BC704749B1B3
:1008D000CCF1200421FA04F411FA0CF118BF012123
:1008E00021430843A3EB0C01CB1D4FEA00614FEA03
:1008F000102042BF002010BC704700EBC3501044D2
:100900000029A4BF10BC7047401C490008BF20F05C
:10091000010010BC704710B5141E73F1000408DA12
:10092000401C41F1000192185B411A4301D120F0B3
:10093000010010BD2DE9F04D92469B4611B1B1FA70
:1009400081F202E0B0FA80F220329046FFF7F4FE26
:1009500004460F4640EA0A0041EA0B0153465A4654
:10096000084313D0114653EA010019D0C8F14002E0
:100970005046FFF7F0FE05460E46504659464246A1
:10098000FFF7DAFE084305D0012004E0204639468F
:10099000BDE8F08D0020054346EAE0762C4337435E
:1009A0000A986305E40AA0EB08000022FD0A44EA65
:1009B00047540A3002D500200146E9E70105101925
:1009C0006941DDE9084500196941BDE8F04DA2E73C
:1009D0002DE9F04D00231A461B1A8A4103DB002043
:1009E0000146BDE8F08DC1F30A52C1F3130141F491
:1009F00080154FF0000BD10702D100186D41521E37
:100A00000027044640F2FF11384601EB620A3E46D9
:100A10008046024600204FF48011FFF79CFEC21969
:100A20007141BB1846EB0100B4EB030C75EB000CF5
:100A300004D3E41A65EB000517460E46241908F1A5
:100A400001006D4180463428E3DDF91946EB0600CC
:100A5000091BA84103D24FF0FF32134601E00022E8
:100A600013461BEB070046EB0A51BDE8F04DFFF7BC
:100A700052BFC1F30A52C1F3130140F2FF3341F4F4
:100A800080119A4202DA00200146704740F2334357
:100A90009A42A2F2334202DC5242FFF75CBEFFF7F9
:100AA0004BBE0000064C074D06E0E06840F0010335
:100AB00094E8070098471034AC42F6D3FFF77AFB6E
:100AC000787304089873040800487047007304089A
:100AD00010B50446FFF7F8FF0068005D00F0010064
:100AE00010BD00002DE9FF4F087883B09946FF281C
:100AF00005D0491C2D2804D00024002008E0002047
:100B00000BE00124F9E700EB800003EB4000491CF7
:100B10000B78FF2BF7D104B14042002302931478E5
:100B200019461D462D2C01D02B2C04D1521C2D2CE6
:100B300013D000240294AA461478FF2C0FD00A2563
:100B4000A3FB057801FB05814FF0000C03FB0C11A2
:100B5000521CE3194AEB0101EEE70124EAE7814464
:100B600053EA010002D019F5C87F06DA0398002184
:100B7000C0E9001107B0BDE8F08F0025AE4E2F464A
:100B8000DFF8B882184600F0DAF9CDE90001B9F1D2
:100B9000000002DAC9F1000400E004460023A74A7D
:100BA0001AEB030B42EB045A12E0E00707D02A4687
:100BB000334638464146FFF742FC074688462A46F8
:100BC000334610461946FFF73AFC05460E466410B8
:100BD000002CEAD1DDE90001B9F1000F5A46534675
:100BE00006DAFFF79EFC3A464346FFF79AFC05E01B
:100BF000FFF725FC3A464346FFF721FC029A0AB16B
:100C000081F00041039AC2E90001B3E72DE9FF4FEB
:100C10001F468DB0D7E901464FF0FF382E204546DC
:100C20004FF000090B90B9696D1C0E988847396A1E
:100C3000824688470028F6D1BAF1FF3F0AD024F453
:100C4000D064002E11DDBAF12B0F08D0BAF12D0FB0
:100C50000BD102E0404611B08DE744F48064B969DD
:100C60006D1C0E9888478246761E6946600501D540
:100C70002D2000E02B208DF8000001F1010B0DF17B
:100C8000200809E0B9696D1C0E98884782460F98C4
:100C900044F40074761E0560002E02DDBAF1300FB8
:100CA000F0D00B998A453ED144F0800406E00F99BC
:100CB000681CA9F1010944F400740860B9696D1C4D
:100CC000761E0E98884782463028F0D02BE00B998C
:100CD0008A4505D1200603D444F08004761E18E02E
:100CE000504625F0B1FC08B30DF11301761E44F413
:100CF00000748B4508D2AAF130000BF8010B2006D6
:100D000007D5A9F1010003E0200602D409F1010092
:100D10008146A00502D50F99681C0860B9696D1C51
:100D20000E9888478246002ED1DC53E0002E51DD1C
:100D3000BAF1650F02D0BAF1450F4BD1A00549D5E4
:100D4000B9696D1C24F44074761E0E98884782465B
:100D5000002E0CDD2B2804D0BAF12D0F07D144F45E
:100D60008074B9696D1C0E9888478246761EE0052E
:100D700001D52D2100E02B2108F8011BCDF82C8096
:100D800021E00DF12901761E44F4007488450CD24F
:100D9000AAF1300010F0FF0088F8000002D10B9992
:100DA000884509D908F1010806E0E00501D5244885
:100DB00001E042F20F708146B9696D1C0E988847B8
:100DC00082460F980560002E04DD504625F03CFC5D
:100DD0000028D6D1F9690E988847FF208BF80000CB
:100DE00088F800000020069007904B466A4608A944
:100DF00006A8FFF777FEA00502D46FF001002AE7EE
:100E000014F0240F0AD0E00714D1DDE90612386887
:100E1000031D3B600068C0E900120BE0DDE906013C
:100E2000FFF758FC0146E00704D13868021D3A601C
:100E30000068016028460EE7000014400000F03F03
:100E4000F1D8FFFF426842B1016811F8013B23B1BC
:100E5000521EC0E90012184670470121C160881E69
:100E6000704742685AB1C368016843B983688B42CE
:100E700005D0491E521CC0E90012002070474FF0F7
:100E8000FF3070472DE9F05F824600780027154655
:100E90008B460AF10104B946302801D09DB113E018
:100EA00014F8010B0127782803D0582801D045B148
:100EB0000AE00DB1102D07D10027102514F8010B01
:100EC00002E0082500E00A250026B0460EE005FBFA
:100ED000080005FB06F1012701EB10461FFA80F818
:100EE000B6F5803F00D3B94614F8010B294600F04F
:100EF00018F80028EBDABBF1000F05D00FB1641E23
:100F000000E05446CBF80040B9F1000F06D025F0C0
:100F10005FFA02210160C81EBDE8F09F48EA064062
:100F2000FAE73A2800D2303820F02002412A01D3D3
:100F3000A2F13700884201D34FF0FF3070470EB561
:100F400040F2334202920022CDE900221346FFF71D
:100F5000F1FC03B000BD70B58C1810F8015B15F002
:100F6000070301D110F8013B2A1106D110F8012B1B
:100F700003E010F8016B01F8016B5B1EF9D12B0740
:100F800005D40023521E0DD401F8013BFAE710F8F6
:100F9000013BCB1A921C03E013F8015B01F8015BE3
:100FA000521EF9D5A142D8D3002070BD154810B506
:100FB000417BF1B1022920D0082905D0092920D18F
:100FC000BDE8104027F028BE817B807C0F4A01EBF2
:100FD000C0005338C0B29FED0C0A02EB80005239BA
:100FE00080ED000AC8B227F07DF8BDE8104018F087
:100FF000AFBEBDE8104029F0C5BABDE8104019F0F9
:101000004DBC10BD40020020000000000C0001207B
:101010000029816802D041F0010101E021F00101C5
:1010200081607047084B10B5D3F8042307490A4084
:10103000D0E900142143D0E9024004432143114385
:10104000C3F8041310BD000000200140E030FCFF95
:101050000029816802D041F4807101E021F480719F
:10106000816070470029816802D041F4007101E07D
:1010700021F400718160704730B542680F4B0C79E4
:101080001A400B6842EA04221343436082680C4B07
:101090004D791A40D1E9034323438C6844EA45045F
:1010A000234313438360C26A097D22F47002491E00
:1010B000C9B242EA0151C16230BD0000FFFEFFFC2F
:1010C000FDF7FFC070B5072409290AD9C568A1F149
:1010D0000A0606EB4606B440A543B3401D43C5606F
:1010E00007E0056901EB4106B440A543B3401D4349
:1010F00005611F23072A09D2446B521E02EB8202AC
:1011000093409C4391400C43446370BD0D2A09D227
:10111000046BD21F02EB820293409C4391400C432C
:10112000046370BDC46A0D3A02EB820293409C4393
:1011300091400C43C46270BD816841F08041816080
:1011400070470000F0B53448DFED320AA0F20C72AF
:10115000C0ED010ADFED310A0023C0ED020A9FED68
:101160002C0A19462E4EA0F1A00492F833500AE042
:1011700012F801C0BCF1000F03D154F821C0B445EE
:101180000CDB491CC9B28D42F2D8012F06D080ED8C
:10119000000A80ED010A80ED020AF0BD0021214F16
:1011A0002BE000BF12F801C0BCF1000F23D104EB0B
:1011B000810CDCED000A10EE90CAB4451BDA07EB97
:1011C000810C5B1C9CED001ADBB270EEC10A90ED45
:1011D000011A30EE800AF4EEC10AF1EE10FA01DDD8
:1011E000C0ED010A90ED021AF4EEC10AF1EE10FA18
:1011F00001D2C0ED020A491CC9B28D42D2D800EE1C
:10120000903AF8EE600A80EE201A80ED001AF0BDE8
:1012100000000000000048C3380A012000E0F94443
:1012200000E0F9440C0001200B48417B10290ED24C
:10123000DFE801F00D0D0D0D0A101008100D0D0D59
:101240000E0D0D1025F066BF807B332802D070474D
:101250000248007825F016BF40020020340000202C
:1012600000210D4A0846135C012B00D10121401CCE
:10127000C0B22828F7D30948012908D106495039B6
:1012800091F82A10012902D10549097811B10021EC
:1012900019F0E4B80121FBE77C03012000040140C0
:1012A0004D0200201CB54FF48070009001208DF895
:1012B000040000218DF806108DF807008DF8051048
:1012C0006946024811F046FD1CBD000000000240C6
:1012D000FEE7000010B5074C0121204619F0BEF8CA
:1012E0004FF6FF7005F0A4FA2046BDE8104000213B
:1012F00019F0B4B80004014010B5044639202BF0B1
:1013000043FCE0B22BF064FCC4F307202BF060FC3C
:10131000C4F307402BF05CFC200E2BF059FC2BF0A3
:1013200023FCBDE8104024F089BE70B50646144683
:101330000D463C202BF028FCE8B22BF049FC280A93
:101340002BF046FC2BF010FC0CB1002011E024F037
:1013500075FE1E280FD1304600F035F905463D20B8
:101360002BF012FC2BF000FC2E44002CEFD0208838
:1013700028442080EBE770BD10B514F023FE08B1BF
:1013800000F069F8BDE81040302000F0B2B831201C
:1013900000F0AFB80146362000F09EB810B508B195
:1013A00000F0C6F8BDE81040342000F0A2B870B5D7
:1013B000054600F0A7F804000DD00146284600F0CD
:1013C00021F8412807D0142803D0422800D1B320A7
:1013D00070BD432070BD2819BDE87040FFF7DEBF27
:1013E00010B5044600F0A4F820785C2801D02F281E
:1013F00003D10021642000F0FCF8BDE81040322049
:1014000000F077B870B5054600200E46012401E0D3
:10141000641CE4B2295D5C2913D02F2911D0002966
:10142000F6D100242844FFF7DBFF002C08D0B4429B
:1014300006D041280AD0142806D0422800D1B32073
:1014400070BD641CE4B2EDE7432070BD2046E1E7C7
:10145000FF21FFF7D7BF10B522202BF095FB3220DC
:1014600005F0E6F92BF086FB04462BF07DFB2046C9
:1014700010BD2DE9F0412BF07DFB06462BF07AFBE9
:1014800005462BF077FB04462BF074FB07462BF048
:101490006BFB46EA052040EA044040EA0760BDE8ED
:1014A000F08110B504460C202BF06EFB20462BF08B
:1014B0008FFBBDE81040FFF7DCBF10B504460A20E3
:1014C0002BF062FB20462BF083FB2BF053FB0446F2
:1014D0002BF04AFB204610BD10B50C462BF054FBF8
:1014E00020462BF075FB2BF03FFBBDE8104024F0AD
:1014F000A5BD10B52BF048FB2BF036FBBDE8104026
:1015000024F09CBD014600E0491C0A78002AFBD16A
:1015100006E000BF11F8012D5C2A03D02F2A01D06C
:101520008142F7D1814200D0491C081AC0B27047ED
:1015300070B5054601202BF027FB2BF01BFB432841
:1015400028D22B20FFF7B9FF102823D22F202BF011
:101550001BFB00202BF03CFB3220FFF7CAFF1428B6
:1015600018D1CF20FFF7A9FF040013D04C20FFF7BC
:1015700098FF00EB04214C2000F03BF85020FFF7CF
:1015800090FF00EB0421502000F033F80021702080
:1015900000F02FF82F202BF0F7FA2C7806E000BF90
:1015A00015F8014F5C2C0AD02F2C08D020462BF0C8
:1015B0000FFB002CF4D1BDE870402BF0D5BA002011
:1015C0002BF006FBF7E770B505462D202BF0DCFA73
:1015D0002BF0D0FA0400264607D028782BF0F8FA32
:1015E000641E6D1C14F0FF04F7D12BF0BDFA3046D9
:1015F00070BD70B505460C460D202BF0C5FA284687
:101600002BF0E6FAE0B22BF0E3FAC4F307202BF05C
:10161000DFFAC4F307402BF0DBFA200E2BF0D8FAE8
:10162000BDE870402BF0A0BA2DE9F04188B001214F
:10163000812014F0D3FC0121080314F00BFDDFF826
:10164000C88005221146404611F0D5FB052206212F
:10165000404611F0D0FB05220721404611F0CBFB9C
:1016600002258DF805508DF80450002420278DF8B0
:10167000064000978DF807406946404611F06AFB26
:10168000402000906946404611F064FB80200090A5
:101690006946404611F05EFB1020012600908DF84F
:1016A00004608DF806406946404611F053FB8DF802
:1016B000044000978DF807606946144811F04AFB12
:1016C000ADF808404FF48270ADF80A00ADF8106034
:1016D0002802ADF812003820ADF81400ADF80C4027
:1016E000ADF8164007200A4CADF81800ADF80E50C2
:1016F00002A9204618F09BFA0121204618F092F822
:1017000008B0BDE8F081000000000240001C02406B
:1017100000300140F0B5FF231A46002418E0055DB3
:101720006A40002502F0010613F0010F4FEA53034F
:101730004FEA520201D042F080021EB183F0A003B2
:1017400082F001026D1CEDB2082DEBD3641CE4B2F3
:101750008C42E4D342EA0320F0BD00002DE9F047BB
:10176000F748F84FF84C00784FF482754FF4AA769A
:101770004FF470484FF4A57940B1012874D0022885
:1017800073D0032872D0042871D03CE3207801285C
:1017900001D028B10FE0882012F086FF384603E020
:1017A000882012F081FF404612F09AFFE7A20A213A
:1017B000642012F091FB6078012801D028B10FE07D
:1017C000882012F071FF384603E0882012F06CFF89
:1017D000404612F085FFDEA20A21B42012F07CFB05
:1017E000A078012801D028B10FE0882012F05CFF1A
:1017F000384603E0882012F057FF404612F070FF91
:10180000D4A20A21284612F067FBE078012801D013
:1018100028B10FE0882012F047FF384603E0882007
:1018200012F042FF404612F05BFFCBA20A21304685
:1018300012F052FB2079012801D028B10FE0882056
:1018400012F032FF384603E0882012F02DFF4046A8
:1018500012F046FFC1A24946642012F03DFB6079B8
:10186000012805D048B113E039E0D7E0ABE149E207
:10187000882012F019FF384603E0882012F014FF88
:10188000404612F02DFFB6A24946B42012F024FBC8
:10189000A079012801D028B10FE0882012F004FFC0
:1018A000384603E0882012F0FFFE404612F018FF91
:1018B000ACA24946284612F00FFBE079012801D07E
:1018C00028B1A0E2882012F0EFFE384603E088201D
:1018D00012F0EAFE404612F003FFA3A28FE2207A44
:1018E00001284FF0880079D012F0DEFE4FEA0800A0
:1018F00012F0F6FE9DA20A21642012F0EDFA607A41
:1019000001284FF088006DD012F0CEFE4FEA08009B
:1019100012F0E6FE96A20A21B42012F0DDFAA07AB7
:1019200001284FF0880061D012F0BEFE4FEA080097
:1019300012F0D6FE8FA20A21284612F0CDFAE07AE4
:1019400001284FF0880055D012F0AEFE4FEA080093
:1019500012F0C6FE88A20A21304612F0BDFA207BA2
:1019600001284FF0880049D012F09EFE4FEA08008F
:1019700012F0B6FE81A24946642012F0ADFA607BF7
:1019800001284FF088003DD012F08EFE4FEA08008B
:1019900012F0A6FE7AA24946B42012F09DFAA07B6E
:1019A00001284FF0880031D012F07EFE4FEA080087
:1019B00012F096FE73A24946284612F08DFAE07B9B
:1019C00001284FF0880025D012F06EFE4FEA080083
:1019D00012F086FE6CA212E200E003E012F064FE58
:1019E000384685E712F060FE384691E712F05CFE5B
:1019F00038469DE712F058FE3846A9E712F054FE2B
:101A00003846B5E712F050FE3846C1E712F04CFEFA
:101A10003846CDE712F048FE3846D9E7207C012849
:101A20004FF0880078D012F03FFE404612F058FE8A
:101A300056A20A21642012F04FFA607C01284FF070
:101A400088006DD012F030FE4FEA080012F048FE18
:101A50004FA20A21B42012F03FFAA07C01284FF0D7
:101A6000880061D012F020FE4FEA080012F038FE24
:101A700048A20A21284612F02FFAE07C01284FF0F4
:101A8000880055D012F010FE4FEA080012F028FE30
:101A900041A20A21304612F01FFA207D01284FF0A2
:101AA000880049D012F000FE4FEA080012F018FE3C
:101AB0003AA24946642012F00FFA607D01284FF0E7
:101AC000880074D012F0F0FD4FEA080012F008FE12
:101AD00033A24946B42012F0FFF9A07D01284FF04F
:101AE000880068D012F0E0FD4FEA080012F0F8FD1F
:101AF0002CA24946284612F0EFF9E07D01284FF06C
:101B000088005CD012F0D0FD4FEA080012F0E8FD2A
:101B100025A274E100E003E012F0C6FD384685E737
:101B200012F0C2FD384691E712F0BEFD38469DE73F
:101B300012F0BAFD3846A9E712F0B6FD3846B5E70F
:101B40004F020020935517002C0301203030310044
:101B50003030320030303300303034003030350037
:101B60003030360030303700303038003030390017
:101B7000303130003031310030313200303133001B
:101B800030313400303135003031360030313700FB
:101B900030313800303139003032300030323100ED
:101BA000303232003032330030323400FFE712F08E
:101BB0007BFD38468AE712F077FD384696E712F04B
:101BC00073FD3846A2E7207E01284FF0880079D0C7
:101BD00012F06AFD4FEA080012F082FDA5A20A2168
:101BE000642012F079F9607E01284FF088006DD0F2
:101BF00012F05AFD4FEA080012F072FD9EA20A216F
:101C0000B42012F069F9A07E01284FF0880061D05D
:101C100012F04AFD4FEA080012F062FD97A20A2175
:101C2000284612F059F9E07E01284FF0880055D07F
:101C300012F03AFD4FEA080012F052FD90A20A217C
:101C4000304612F049F9207F01284FF0880049D032
:101C500012F02AFD4FEA080012F042FD89A249461F
:101C6000642012F039F9607F01284FF088003DD0E0
:101C700012F01AFD4FEA080012F032FD82A2494626
:101C8000B42012F029F9A07F01284FF0880031D04C
:101C900012F00AFD4FEA080012F022FD7BA249462D
:101CA000284612F019F9E07F01284FF0880025D06E
:101CB00012F0FAFC4FEA080012F012FD74A29EE046
:101CC00000E003E012F0F0FC384685E712F0ECFC8F
:101CD000384691E712F0E8FC38469DE712F0E4FC44
:101CE0003846A9E712F0E0FC3846B5E712F0DCFC14
:101CF0003846C1E712F0D8FC3846CDE712F0D4FCE4
:101D00003846D9E794F8200001284FF088007DD0AC
:101D100012F0CAFC4FEA080012F0E2FC5DA20A21B0
:101D2000642012F0D9F894F8210001284FF08800BF
:101D30006DD012F0B9FC404612F0D2FC56A20A2136
:101D4000B42012F0C9F894F8220001284FF088005E
:101D500075D012F0A9FC404612F0C2FC4FA20A2135
:101D6000284612F0B9F894F8230001284FF08800B3
:101D700069D012F099FC404612F0B2FC48A20A2148
:101D8000304612F0A9F894F8240001284FF088009A
:101D90005DD012F089FC404612F0A2FC41A24946F7
:101DA000642012F099F894F8250001284FF088007B
:101DB00051D012F079FC404612F092FC3AA249460A
:101DC000B42012F089F894F8260001284FF088001A
:101DD00045D012F069FC404612F082FC33A249461D
:101DE000284612F079F894F8270001284FF088006F
:101DF00039D012F059FC404612F072FC2CA2494630
:101E0000304612F069F801202A4901E00EE012E0A4
:101E1000C870FFF75FFA94F8300040B326A000BF07
:101E200005F024FABDE8F04717F092BF12F03CFC31
:101E3000384671E703E012F037FC38467CE712F0D1
:101E400033FC384688E712F02FFC384694E712F04E
:101E50002BFC3846A0E712F027FC3846ACE712F01E
:101E600023FC3846B8E712F01FFC3846C4E715A03B
:101E7000D6E70000303235003032360030323700DD
:101E800030323800303239003033300030333100F6
:101E900030333200303333003033340030333500E8
:101EA00030333600303337003033380030333900C8
:101EB00030343000C80100204368616E6E656C20CC
:101EC00073657400CDA8B5C0C9E8D6C30000000092
:101ED0002DE9F05FFA48DFF8ECA3FB4C00784FF4F3
:101EE00082754FF496764FF4AA784FF4BE794FF48A
:101EF000704B10B101286ED04BE32078012801D03F
:101F000028B10FE0882012F0CFFB504603E0882074
:101F100012F0CAFB584612F0E3FBECA20A2164203F
:101F200001F0B2FB6078012801D028B10FE08820D1
:101F300012F0BAFB504603E0882012F0B5FB584679
:101F400012F0CEFBE2A20A218C2001F09DFBA078CA
:101F5000012801D028B10FE0882012F0A5FB5046DF
:101F600003E0882012F0A0FB584612F0B9FBD9A27A
:101F70000A21B42001F088FBE078012801D028B1C3
:101F80000FE0882012F090FB504603E0882012F00A
:101F90008BFB584612F0A4FBCFA20A21DC2001F0F3
:101FA00073FB2079012801D028B10FE0882012F0BE
:101FB0007BFB504603E0882012F076FB584612F077
:101FC0008FFBC6A20A21284601F05EFB607901283A
:101FD00002D030B110E0C8E1882012F065FB504615
:101FE00003E0882012F060FB584612F079FBBCA297
:101FF0000A21304601F048FBA079012801D028B120
:102000000FE0882012F050FB504603E0882012F0C9
:102010004BFB584612F064FBB2A20A21404601F085
:1020200033FBE079012801D028B10FE0882012F0BD
:102030003BFB504603E0882012F036FB584612F076
:102040004FFBA9A20A21484601F01EFB94F8330079
:1020500008286FD9207A4FF4A577012801D028B13C
:102060000FE0882012F020FB504603E0882012F099
:102070001BFB584612F034FB9CA23946642001F049
:1020800003FB607A012801D028B10FE0882012F00C
:102090000BFB504603E0882012F006FB584612F076
:1020A0001FFB93A239468C2001F0EEFAA07A01289A
:1020B00001D028B10FE0882012F0F6FA504603E074
:1020C000882012F0F1FA584612F00AFB89A239462C
:1020D000B42001F0D9FAE07A012801D028B10FE04C
:1020E000882012F0E1FA504603E0882012F0DCFA72
:1020F000584612F0F5FA80A23946DC2001F0C4FA05
:10210000207B012801D028B10FE0882012F0CCFA02
:10211000504603E0882012F0C7FA584612F0E0FA61
:1021200076A23946284601F0AFFA607B012802D03A
:1021300030B110E039E0882012F0B6FA504603E0E2
:10214000882012F0B1FA584612F0CAFA6CA2394649
:10215000304601F099FAA07B012801D028B10FE0A8
:10216000882012F0A1FA504603E0882012F09CFA71
:10217000584612F0B5FA63A23946404601F084FA97
:10218000E07B012801D028B10FE0882012F08CFA02
:10219000504603E0882012F087FA584612F0A0FA61
:1021A00059A23946484601F06FFA94F833001028D6
:1021B0006FD9207C4FF4CD77012801D028B10FE0F2
:1021C000882012F071FA504603E0882012F06CFA71
:1021D000584612F085FA4DA23946642001F054FAAF
:1021E000607C012801D028B10FE0882012F05CFA51
:1021F000504603E0882012F057FA584612F070FA61
:1022000043A239468C2001F03FFAA07C012801D07E
:1022100028B10FE0882012F047FA504603E08820EA
:1022200012F042FA584612F05BFA3AA23946B4204C
:1022300001F02AFAE07C012801D028B10FE08820C3
:1022400012F032FA504603E0882012F02DFA584678
:1022500012F046FA30A23946DC2001F015FA207D52
:10226000012801D028B10FE0882012F01DFA504655
:1022700003E0882012F018FA584612F031FA27A22B
:102280003946284601F000FA607D012802D030B1BD
:1022900010E07EE1882012F007FA504603E0882023
:1022A00012F002FA584612F01BFA1DA239463046C7
:1022B00001F0EAF9A07D012834D000B142E036E017
:1022C0004F020020935517002C03012030303100BD
:1022D00030303200303033003030340030303500B0
:1022E0003030360030303700303038003030390090
:1022F0003031300030313100303132003031330094
:102300003031340030313500303136003031370073
:102310003031380030313900303230003032310065
:1023200030323200882012F0BFF9504603E0882096
:1023300012F0BAF9584612F0D3F9C1A23946404614
:1023400001F0A2F9E07D012801D028B121E1882027
:1023500012F0AAF9504603E0882012F0A5F9584679
:1023600012F0BEF9B7A2394610E1207E01284FF0E5
:1023700088007DD012F098F94FEA0B0012F0B0F906
:10238000B1A20A21642001F07FF9607E01284FF09C
:1023900088006ED012F088F94FEA0B0012F0A0F915
:1023A000AAA20A218C2001F06FF9A07E01284FF02B
:1023B00088007DD012F078F94FEA0B0012F090F906
:1023C000A3A20A21B42001F05FF9E07E01284FF0BA
:1023D00088006ED012F068F94FEA0B0012F080F915
:1023E0009CA20A21DC2001F04FF9207F01284FF048
:1023F00088007CD012F058F94FEA0B0012F070F907
:1024000095A20A21284601F03FF9607F01284FF08C
:1024100088006DD012F048F94FEA0B0012F060F915
:102420008EA20A21304601F02FF9A07F01284FF03B
:1024300088007DD012F038F94FEA0B0012F050F905
:1024400087A20A21404601F01FF9E07F01284FF0E2
:1024500088006ED012F028F94FEA0B0012F040F914
:1024600080A20A21484601F00FF994F8200001E00B
:102470009EE0A3E001284FF088007DD012F014F90F
:102480004FEA0B0012F02CF977A2D221642001F060
:10249000FBF894F8210001284FF088006DD012F06D
:1024A00003F9584612F01CF9D22170A28C2001E0E9
:1024B00088E08BE001F0E8F894F8220001284FF062
:1024C000880079D012F0F0F84FEA0B0012F008F90A
:1024D00067A2D221B42001F0D7F894F82300012894
:1024E0004FF0880069D012F0DFF8584601E071E043
:1024F00074E012F0F5F85FA2D221DC2001F0C4F8FC
:1025000094F8240001284FF088006FD012F0CCF826
:102510004FEA0B0012F0E4F857A2D221284601F04E
:10252000B3F894F8250001284FF0880079D001E035
:1025300058E05CE012F0B8F84FEA0B0012F0D0F867
:102540004EA2D221304601F09FF894F826000128CF
:102550004FF0880069D012F0A7F8584612F0C0F882
:1025600047A2D221404601F08FF894F827000128B5
:102570004FF088005DD001E03DE040E012F094F8BB
:102580004FEA0B0012F0ACF83EA2D221484601F00F
:102590007BF83D490120C870FEF79CFE94F830009E
:1025A00088B33AA004F062FEBDE8F05F17F0D0BB3C
:1025B00012F07AF85046E1E627E02AE012F074F8CB
:1025C0005046EBE612F070F85046F7E612F06CF861
:1025D000504603E712F068F850460FE712F064F82F
:1025E00050461BE712F060F8504627E715E012F05E
:1025F0005BF8504632E712F057F8504642E712F0C7
:1026000053F850464EE718E00BE012F04DF85046F4
:102610005CE712F049F8504668E712F045F850467A
:1026200078E712F041F8504688E712F03DF850463E
:1026300094E712F039F85046A4E717A0B2E700007B
:102640003032330030323400303235003032360030
:102650003032370030323800303239003033300019
:102660003033310030333200303333003033340014
:1026700030333500303336003033370030333800F4
:102680003033390030343000C80100204368616EB7
:102690006E656C2073657400CDA8B5C0C9E8D6C35B
:1026A000000000002DE9F05FF84CDFF8E4A34FF4E0
:1026B000704B2078012801D028B10FE0882011F05C
:1026C000F3FF504603E0882011F0EEFF584612F069
:1026D00007F8F0A20A21642001F00CF860780128C4
:1026E00001D028B10FE0882011F0DEFF504603E052
:1026F000882011F0D9FF584611F0F2FFE6A20A2116
:102700008C2000F0F7FFA078012801D028B10FE05D
:10271000882011F0C9FF504603E0882011F0C4FF63
:10272000584611F0DDFFDDA20A21B42000F0E2FFDF
:10273000E078012801D028B10FE0882011F0B4FF23
:10274000504603E0882011F0AFFF584611F0C8FF53
:10275000D3A20A21DC2000F0CDFF20794FF482754E
:10276000012801D028B10FE0882011F09DFF5046CC
:1027700003E0882011F098FF584611F0B1FFC9A27C
:102780000A21284600F0B6FF60794FF496760128BA
:1027900001D028B10FE0882011F086FF504603E0F9
:1027A000882011F081FF584611F09AFFBEA20A213D
:1027B000304600F09FFFA0794FF4AA79012801D09C
:1027C00028B10FE0882011F06FFF504603E0882009
:1027D00011F06AFF584611F083FFB4A20A2148465F
:1027E00000F088FFE0794FF4BE78012801D028B1CD
:1027F0000FE0882011F058FF504603E0882011F0C8
:1028000053FF584611F06CFFA9A20A21404600F080
:1028100071FF94F83300082872D9207A012801D07A
:1028200028B10FE0882011F03FFF504603E08820D8
:1028300011F03AFF584611F053FF9EA28621642002
:1028400000F058FF607A012801D028B10FE08820FD
:1028500011F02AFF504603E0882011F025FF58466A
:1028600011F03EFF94A286218C2000F043FFA07A55
:10287000012801D028B10FE0882011F015FF504643
:1028800003E0882011F010FF584611F029FF8BA2B9
:102890008621B42000F02EFFE07A012801D028B173
:1028A0000FE0882011F000FF504603E0882011F06F
:1028B000FBFE584611F014FF81A28621DC2000F0B7
:1028C00019FF207B012801D028B10FE0882011F0EA
:1028D000EBFE504603E0882011F0E6FE584611F06A
:1028E000FFFE78A28621284600F004FF607B0128C5
:1028F00001D030B110E0882011F0D6FE504604E03F
:1029000034E0882011F0D0FE584611F0E9FE6EA2A6
:102910008621304600F0EEFEA07B012801D028B1D0
:102920000FE0882011F0C0FE504603E0882011F02F
:10293000BBFE584611F0D4FE64A28621484600F042
:10294000D9FEE07B012801D028B10FE0882011F0EA
:10295000ABFE504603E0882011F0A6FE584611F069
:10296000BFFE5BA28621404600F0C4FE94F833000F
:1029700010286FD9207C4FF48177012801D028B12D
:102980000FE0882011F090FE504603E0882011F0FF
:102990008BFE584611F0A4FE4EA23946642000F08A
:1029A000A9FE607C012801D028B10FE0882011F039
:1029B0007BFE504603E0882011F076FE584611F069
:1029C0008FFE45A239468C2000F094FEA07C0128A1
:1029D00001D028B10FE0882011F066FE504603E0D8
:1029E000882011F061FE584611F07AFE3BA239466C
:1029F000B42000F07FFEE07C012801D028B10FE078
:102A0000882011F051FE504603E0882011F04CFE62
:102A1000584611F065FE32A23946DC2000F06AFE0D
:102A2000207D012801D028B10FE0882011F03CFE64
:102A3000504603E0882011F037FE584611F050FE52
:102A400028A23946284600F055FE607D012802D0B4
:102A500030B110E0C6E1882011F026FE504603E0B8
:102A6000882011F021FE584611F03AFE1EA2394688
:102A7000304600F03FFEA07D012801D028B140E0A3
:102A8000882011F011FE504634E02FE02C03012085
:102A90009355170030303100303032003030330081
:102AA00030303400303035003030360030303700D0
:102AB00030303800303039003031300030313100C2
:102AC00030313200303133003031340030313500B4
:102AD0003031360030313700303138003031390094
:102AE000303230003032310030323200882011F084
:102AF000DBFD584611F0F4FDC3A23946484600F00C
:102B0000F9FDE07D012801D028B10FE0882011F007
:102B1000CBFD504603E0882011F0C6FD584611F069
:102B2000DFFDBAA23946404600F0E4FD207E4FF4B6
:102B3000BF77012801D028B10FE0882011F0B4FD43
:102B4000504603E0882011F0AFFD584611F0C8FD53
:102B5000AFA23946642000F0CDFD607E012801D08F
:102B600028B10FE0882011F09FFD504603E0882037
:102B700011F09AFD584611F0B3FDA6A239468C20FB
:102B800000F0B8FDA07E012801D028B10FE0882018
:102B900011F08AFD504603E0882011F085FD58466B
:102BA00011F09EFD9CA23946B42000F0A3FDE07E0A
:102BB000012801D028B10FE0882011F075FD5046A2
:102BC00003E0882011F070FD584611F089FD93A2B2
:102BD0003946DC2000F08EFD207F012801D028B18D
:102BE0000FE0882011F060FD504603E0882011F0CE
:102BF0005BFD584611F074FD89A23946284600F065
:102C000079FD607F012801D028B10FE0882011F004
:102C10004BFD504603E0882011F046FD584611F068
:102C20005FFD80A23946304600F064FDA07F012898
:102C300001D028B10FE0882011F036FD504603E0A6
:102C4000882011F031FD584611F04AFD76A2394630
:102C5000484600F04FFDE07F012801D028B10FE089
:102C6000882011F021FD504603E0882011F01CFD62
:102C7000584611F035FD6DA23946404600F03AFD48
:102C800094F820004FF4FD77012801D028B10FE01F
:102C9000882011F009FD504603E0882011F004FD62
:102CA000584611F01DFD62A23946642000F022FD55
:102CB00094F82100012801D028B10FE0882011F0FC
:102CC000F3FC504603E0882011F0EEFC584611F06A
:102CD00007FD58A239468C2000F00CFD94F8220024
:102CE000012801D028B10FE0882011F0DDFC50460A
:102CF00003E0882011F0D8FC584611F0F1FC4EA2F8
:102D00003946B42000F0F6FC94F82300012801D0E5
:102D100028B10FE0882011F0C7FC504603E088205E
:102D200011F0C2FC584611F0DBFC44A23946DC200D
:102D300000F0E0FC94F82400012801D028B10FE055
:102D4000882011F0B1FC504603E0882011F0ACFC63
:102D5000584611F0C5FC3AA23946284600F0CAFC94
:102D600094F82500012801D028B10FE0882011F047
:102D70009BFC504603E0882011F096FC584611F069
:102D8000AFFC30A23946304600F0B4FC94F826007F
:102D9000012801D028B10FE0882011F085FC5046B1
:102DA00003E0882011F080FC584611F099FC26A21F
:102DB0003946484600F09EFC94F82700012801D0CF
:102DC00028B10FE0882011F06FFC504603E0882006
:102DD00011F06AFC584611F083FC1CA239464046AB
:102DE00000F088FC1A490120C870FEF773FA94F8C5
:102DF000300038B117A000BF04F038FABDE8F05F2A
:102E000016F0A6BF16A0F7E7303233003032340098
:102E10003032350030323600303237003032380050
:102E2000303239003033300030333100303332004B
:102E30003033330030333400303335003033360034
:102E4000303337003033380030333900303430001D
:102E5000C80100204368616E6E656C207365740064
:102E6000CDA8B5C0C9E8D6C30000000070B50446BF
:102E70001A481D4D00EB840010ED010A184800EBC4
:102E8000840050ED010A174800EB840030EE600A20
:102E900050ED010AB4EEE00AF1EE10FA09D313483E
:102EA00000EB840050ED010AB4EEE00AF1EE10FAF6
:102EB00005DD0D48503890F82C00012807D08821F6
:102EC0006FF07F4011F0F6FB0020285570BD88217F
:102ED0004FF47F0011F0EEFB0120F6E79809012086
:102EE0000C000120040400207C0301206403002066
:102EF00070B5374905460024086810F0450FFBD02F
:102F0000410702D50324042003E0C00704D00124B4
:102F1000204615F049FA59E015F082FAA8422BD163
:102F200040F2FF5015F040FA002015F09BFA2949B5
:102F300008424BD0002801DA1C2070BD410001D5A9
:102F4000092070BD810001D50A2070BDC10001D5E6
:102F50000B2070BD010101D50C2070BD410101D5D0
:102F60000D2070BDC10101D50E2070BD010201D53B
:102F70000F2070BD410201D5102070BD810201D526
:102F8000112070BDC10201D5122070BD010301D511
:102F9000132070BD410301D5142070BD810301D5FC
:102FA000152070BDC10301D5162070BD010401D5E7
:102FB000172070BD410401D5182070BD810401D5D2
:102FC000192070BD000701D51A2070BD204670BDC4
:102FD000342C014008E0FFFD10B50B4800240168C7
:102FE00011F0450FFBD0480702D50324042003E06D
:102FF000C80705D00124204615F0D6F9204610BD9B
:1030000040F2FF50F8E70000342C014070B50C4648
:10301000194906460025086810F0450FFBD0410706
:1030200002D50324042003E0C00705D00124204674
:1030300015F0BAF9204670BD15F0F2F9B04212D180
:1030400040F2FF5015F0B0F9002015F00BFA10F423
:10305000604F03D0810404D5132070BD000C208084
:1030600007E0410401D5102070BD000401D50F20F8
:1030700070BD284670BD0000342C014010B50A46D2
:103080000C0601F07F0303EB830100EBC10102D5C5
:1030900001F58E7101E001F55D71D2090B704A7086
:1030A00021F0D1FF002010BD0A4610B5090602F03C
:1030B0007F0306D503EB830100EBC10101F58E719F
:1030C00005E002EB820100EBC10101F55D71002416
:1030D0008C700B70D2094A7021F09CFF002010BD4B
:1030E00010B50A0604D501F07F0122F0C7F801E00F
:1030F00022F0A8F8002010BD70B50C460E0601F0B5
:103100007F0505EB850100EBC10102D501F58E714C
:1031100001E001F55D71E4090D704C708A60CB70BF
:1031200000D0CD80022B01D100220A7121F03EFF98
:10313000002070BD10B501F07F0404EB840100EBAA
:10314000C101C1F88833C1F880230023C1F88C3352
:1031500081F8753381F87443C37801F55D71012BF3
:1031600000D10A6114F0FF0F03D021F0ABFF002063
:1031700010BD21F0ADFEFAE70069002261F30A12EA
:1031800001681143016070470A4610B5090602F054
:103190007F0306D503EB830100EBC10101F58E71BE
:1031A00005E002EB820100EBC10101F55D71012434
:1031B0008C700B70D2094A7021F06CFF002010BD9A
:1031C00070B511F07F0404EB840100EBC1014FF0F6
:1031D000010581F81D5181F81C41C1F82821C1F871
:1031E0002C2101F58E714FF00002C1E9053203D0A8
:1031F00021F068FF002070BD21F06AFEFAE70000B0
:103200002DE9F0410646002522F07FF8074655E0FB
:10321000F80751D03069EAB20369416BD14006EB3F
:10322000820201F00101926943EAC11194680C40E5
:10323000E1071AD00124426B04FA05F18A43426384
:1032400006EB8500806984601F48E9B20068426827
:1032500030469047F078012807D135B996F811012A
:10326000042802D1304621F08FFE200704D506EB5A
:103270008500082480698460E00604D506EB85009B
:10328000102480698460600604D506EB8500402424
:1032900080698460A00704D506EB8500022480695C
:1032A0008460200608D52946304600F06DF906EB0B
:1032B00085018020896988607F086D1C002FA7D157
:1032C0000120BDE8F0810000740000202DE9F041EC
:1032D0000646002422F01FF80746DFF8988043E0F6
:1032E000F8073FD0E1B2304622F01BF80546C00790
:1032F00025D006EB84000125416D8D60F178012910
:103300000CD1406D016904EB840006EBC000C1F3F1
:103310001201D0F87C23511AC0F88C13D8F80000A1
:10332000E1B2026830469047F078012807D134B9FD
:1033300096F81101052802D1304621F025FEA80794
:1033400004D506EB84000225406D8560280709D569
:10335000D8F8000081683046884706EB84010820D1
:10336000496D88607F08641C002FB9D10120BDE839
:10337000F08100007400002070B50646C0688169C5
:1033800021F010018161F068056A05F00F0000EB83
:10339000800006EBC004C5F3434004F55D740728C4
:1033A00021D2DFE800F0202004202020150047F67D
:1033B000F070054217D0C5F30A152A463046E16879
:1033C00021F0B7FFE0682844E060A069284409E0E4
:1033D000082206F2CC51304621F0ABFFA069C5F3BC
:1033E0000A110844A061F068816941F0100181610F
:1033F000012070BD38B5044600208DF8000094F817
:1034000012018DF800001548006841692046884780
:1034100020698068E2684FF400615161A17AD1B1FE
:10342000C00718D094F81501012814D19DF80000A8
:10343000032810D1D4F80C01016841F001010160AA
:10344000D4F80C01016841F00301016004480168EF
:1034500041F006010160012038BD00007400002029
:1034600010ED00E070B504460069002501264168B2
:1034700021F0010141602946204621F0FFFE002095
:10348000FF2106E004EB800293699960526D916020
:10349000401C62788242F5D821694FF0FF30886184
:1034A0002846216966F30F0066F31F40C861216951
:1034B00045F00B0048612169C1F88400216945F09D
:1034C0000B000861216948642069016821F4FE61EC
:1034D0000160204621F058FDE1684FF480504861BA
:1034E00003480068016920468847012070BD00003C
:1034F0007400002070B5044621F02CFF0122002347
:1035000084F8122184F814311946402511E000BFD7
:1035100001EB810004EBC00080F81D2180F81C1134
:10352000A0F8221180F81F31C0E94953491CC0F8A6
:10353000303160788842EBD8002110E001EB810047
:1035400004EBC00282F8753382F87413A2F87A1380
:1035500082F87733C2E9DF53491CC2F888336078B8
:103560008842EBD8204621F08DFC204621F06AFBF2
:103570000021204621F04EFF204621F0A3FB2046EB
:10358000BDE8704021F056BE2DE9F0470E460546D5
:1035900001EB860005EBC004D4E94C01421AD4F8D3
:1035A000240104F58E74904200D20246D21C970882
:1035B00005EB860923E000BFA0EB0108A1684145A7
:1035C00000D2884608F1030087081FFA88F3F2B298
:1035D0002846E16821F033FFE16801EB0800E06074
:1035E000A16901EB0800A0616169884207D32178D5
:1035F0000120884029694A6B82434A630BE0D9F86D
:103600001800806980B2B84205D9D4E90501814229
:1036100001D20028D0D10120BDE8F0872DE9F0418A
:10362000154680460C46154E4FF4207719E0802A47
:103630000BD21348B0612146404610F0DDFBB06963
:103640006D1C8088204484B20BE00E48B0612A468D
:103650002146404600F0DEF8B069AD1C8088204469
:1036600084B2BC4208D22A78002A05D0B06980888A
:10367000011989B28142DAD2BDE8F081200200202E
:1036800004030020440300202DE9F0411546804644
:103690000C46154E4FF4207719E0802A0BD21348C0
:1036A000B0612146404610F0A7FBB0696D1C8088D0
:1036B000204484B20BE00E48B0612A4621464046C1
:1036C00010F0B0FBB069AD1C8088204484B2BC42CD
:1036D00008D22A78002A05D0B0698088011989B2F9
:1036E0008142DAD2BDE8F08120020020FC020020F5
:1036F000340300202DE9F041154680460C46154E56
:103700004FF4207719E0802A0BD21348B06121468C
:10371000404610F071FBB0696D1C8088204484B273
:103720000BE00E48B0612A462146404600F018F8EA
:10373000B069AD1C8088204484B2BC4208D22A788B
:10374000002A05D0B0698088011989B28142DAD295
:10375000BDE8F08120020020EC0200204C03002094
:103760002DE9F04116460F46804600240D4D0FE02E
:10377000327882420AD105EB410270785178884252
:1037800004D139464046921C10F020FC641CA4B2BF
:1037900004EB440000EB041115F811008028E7D871
:1037A000BDE8F081434003082DE9F041154680460D
:1037B0000C46154E4FF4207719E0802A0BD213489F
:1037C000B0612146404610F017FBB0696D1C80883F
:1037D000204484B20BE00E48B0612A4621464046A0
:1037E00000F018F8B069AD1C8088204484B2BC4257
:1037F00008D22A78002A05D0B0698088011989B2D8
:103800008142DAD2BDE8F081200200201C030020B2
:103810003C0300202DE9F04116460F468046002467
:103820000C4D0EE03278824209D14A1970785178F5
:10383000884204D139464046921C10F0C7FB641CF4
:10384000A4B204EB8400C0EB8411685C8028E9D842
:10385000BDE8F081FE2203082DE9F04115468046BF
:103860000C46154E4FF4207719E0802A0BD21348EE
:10387000B0612146404610F0BFFAB0696D1C8088E7
:10388000204484B20BE00E48B0612A4621464046EF
:10389000FFF7C0FFB069AD1C8088204484B2BC42F1
:1038A00008D22A78002A05D0B0698088011989B227
:1038B0008142DAD2BDE8F0812002002024030020FA
:1038C0003C0300202DE9F041204E15460C46804671
:1038D0006BB3012B38D18821084610F0EBFE28236A
:1038E00090224146204610F003FCBDE8F0418821BB
:1038F0006FF07F4010F0DEBE802A0BD21448B0611A
:103900002146404610F078FAB0696D1C808820444A
:1039100084B20EE00F48B0612A462146404610F0BE
:1039200081FAB069AD1C8088204484B201E04FF474
:103930002077BC4208D22A78002A05D0B069808856
:10394000011989B28142D7D2BDE8F081200200205E
:103950000C030020340300202DE9F041204E1546D1
:103960000C4680466BB3012B38D18821084610F0F5
:10397000A1FE1C2360224146204610F0B9FBBDE8A1
:10398000F04188216FF07F4010F094BE802A0BD266
:103990001448B0612146404610F02EFAB0696D1C03
:1039A0008088204484B20EE00F48B0612A46214648
:1039B000404610F037FAB069AD1C8088204484B2CC
:1039C00001E04FF42077BC4208D22A78002A05D0C3
:1039D000B0698088011989B28142D7D2BDE8F081EF
:1039E0002002002014030020340300202DE9F041C0
:1039F000204E15460C4680466BB3012B38D18821EA
:103A0000084610F057FE142332224146204610F09B
:103A10006FFBBDE8F04188216FF07F4010F04ABE97
:103A2000802A0BD21448B0612146404610F0E4F9D8
:103A3000B0696D1C8088204484B20EE00F48B061EC
:103A40002A462146404610F0EDF9B069AD1C808849
:103A5000204484B201E04FF42077BC4208D22A7897
:103A6000002A05D0B0698088011989B28142D7D275
:103A7000BDE8F08120020020F40200203403002081
:103A800010B50121CC05204612F0B4FA2046BDE85D
:103A90001040002112F0AEBA034A014600205268DD
:103AA0000A4200D00120704700B0024030B52A49D8
:103AB00000240A68294B1A400A600A6803681A43FE
:103AC0000A604A6B22F007024A634A6B43681A4352
:103AD0004A63426842B3012A2DD0022A30D0032A19
:103AE000C26832D013010269446912022403856856
:103AF00022431D4315438A6B15438D638269CA6354
:103B00000A6C6FF30D020A640A6CC3691A430A64F3
:103B1000828C4B6C03F040434B644B6C006A034354
:103B200043EA02434B6430BDC268047D1302028A3B
:103B300012042406DBE7C2681302028A1204D6E7E5
:103B4000C26853010269D202D1E753010269446994
:103B50009202E403CBE7000000B00240FCE0FCFF6F
:103B60000248016841F001010160704700B0024065
:103B700015F0DABB074A904201D2074801E0054838
:103B80001038064A8B0001EA020101D5C160704776
:103B90008160704710640240006002407D0F7D0F1D
:103BA0000029016802D041F0010101E021F001018A
:103BB000016070472DE9F043016821F001010160C7
:103BC0000021016041608160C1600161212141618A
:103BD0003C493C4A3D251039904202D18D60BDE8F8
:103BE000F083384A4FF474661832904201D18E60E7
:103BF000F5E7344A4FF474173032904201D18F60A8
:103C0000EDE7304A4FF0746C4832904202D1C1F86F
:103C100008C0E4E72B4B2C4A6033984201D1CA60BC
:103C2000DDE7284C294B7834A04201D1CB60D6E7A0
:103C3000DFF89080264C08F19008404501D1CC6017
:103C4000CDE7DFF880804FF03D5908F1A8084045E6
:103C500002D1C1F80C90C2E71E49DFF8788008391C
:103C6000404501D10D60BAE71A4D1835A84201D17F
:103C70000E60B4E7174D3035A84201D10F60AEE7B2
:103C8000144D4835A84202D1C1F800C0A7E7114D34
:103C900010496035091FA84201D10A609FE70D4A0B
:103CA0007832904201D10B6099E70A4A90329042F3
:103CB00001D10C6093E7074AA83290428FD1C1F836
:103CC00000908CE7106002403D000020400F002073
:103CD00000003D20106402400029016802D041F03C
:103CE000200101E021F02001016070470B0607D59B
:103CF000436912B143F0800301E023F08003436184
:103D0000802908D0002A026801F01E0101D00A4370
:103D100000E08A430260704730B50368124ACC68FD
:103D200013400A682243D1E905452C432243CC695C
:103D300022430C6A22434C6A22438C6A22434C6B16
:103D400022438C6B22431A430260426922F007032C
:103D5000D1E90B2422431A4342610A6942604A684E
:103D600082608968C16030BD3F801CF00648407B9E
:103D7000052805D0062803D0082801D00F2802D135
:103D800002A023F0F7BC7047400200202E00000084
:103D90002DE9F04FFA4DFB4F2946687B4926FA4C36
:103DA00091F80EC097ED000AA5B0102831D2DFE8D7
:103DB00010F03300531330003000E30BE40D911486
:103DC000B214B71130003000300010003000300065
:103DD000AE1494F83300082802D0102802D004E072
:103DE000102000E0082084F8330015F0B1FF6FF0D8
:103DF0007F4010F075FC882010F056FC94F83320BA
:103E0000E2A101A822F0D0FA01AAAA21322010F0E2
:103E10002DF825B0BDE8F08FD9484FF4CD774FF499
:103E20008179C17BD8484FF4BF7A4FF4FD7B90F87D
:103E30002D2090F827301893C37F1793C37D1693D6
:103E4000C37B159390F826301393837F2193837D52
:103E50001293837B239390F825301493437F11931F
:103E6000437D1093437B0F9390F824301D93037F81
:103E70001C93037D1B93037B1A9390F823302493A8
:103E8000C37E2293C37C2093C37A1F9390F8223081
:103E90000E93837E0D93837C1E93837A199390F8FF
:103EA00021300C93437E0B93437C0A93437A09930E
:103EB00090F82030089390F818E0037C007A4FF4D3
:103EC000A576BCF1290FA4D2DFE81CF02900C600BA
:103ED0004C013702BD0252032004B7044A055A06BA
:103EE0009606D406110750079207D4071A085C08F3
:103EF0008708B108DB080809360964099209BD0979
:103F0000D509ED09050A1E0A380A520A6C0A850A03
:103F10009E0AB70AD00AEA0A050B200B3B0B9D4804
:103F200010F0DEFB882010F0BFFB94F82900022877
:103F300012D0012812D0032812D0042812D005284C
:103F400012D0062812D0072812D0082812D009282B
:103F500012D00B2812D016E08FA210E090A20EE033
:103F600091A20CE092A20AE093A208E094A206E0DB
:103F700095A204E096A202E097A200E098A2642134
:103F80002F200FF073FF94F82D0020B1012836D0B8
:103F9000022850D04BE0E87B40B101280BD002282A
:103FA0000ED0032811D0042814D01CE0207823F070
:103FB00057FA8DA213E0207A23F052FA8BA20EE07A
:103FC000207C23F04DFA8AA209E0207E23F048FAF3
:103FD00088A204E094F8200023F042FA86A20A2185
:103FE00064200FF079FF94F8300030B183A000BF57
:103FF00003F03CF9012001F0BDBA83A0F8E7E87BAB
:1040000010B1012805D020E0207823F029FA76A20B
:1040100003E0207E23F024FA76A20A216420FFF731
:1040200033FB12E078A000E074A003F01FF9012038
:1040300005F09AF9EDE6E87B38B9207823F010FA1C
:1040400069A20A216420FFF755FB0120A87394F8A8
:1040500030000028E8D1E5E74B4F02263F783AB11F
:10406000012A51D0022AE2D100296DD001F0C6B850
:1040700041B101290BD002290DD0032910D0042908
:1040800013D0F3E7384623F0B3F957A211E023F039
:10409000AFF956A20DE0184623F0AAF954A208E0A1
:1040A000704623F0A5F953A203E0089823F0A0F985
:1040B00051A20A2164200FF00FFFE87B40B10128D4
:1040C0000BD002280ED0032811D0042814D0CDE73D
:1040D000607823F0C5F94FA213E0607A23F0C0F9AD
:1040E0004DA20EE0607C23F0BBF94CA209E0607E9B
:1040F00023F0B6F94AA204E094F8210023F0B0F9C5
:1041000048A20A21B420E1E011B101290DD0ADE7A8
:10411000384623F06DF934A20A216420FFF7B4FA7F
:10412000607823F09DF93BA20BE0704623F060F924
:1041300030A20A216420FFF7A7FA607E23F090F9ED
:1041400037A20A218C20E4E0384623F051F926A258
:104150000A216420FFF7CEFA607823F081F92DA2BE
:104160000A21FCE308480326407832B1012A70D0C6
:10417000022A7FF40FAF09B178E755E0CCE00000E8
:1041800040020020ECFF00202C0301202530336486
:104190000000000000FFFF0054432D4B0000000012
:1041A00054432D540000000054432D4A00000000E9
:1041B00054432D4E0000000054432D4500000000E4
:1041C00054432D530000000054432D5200000000C2
:1041D00054432D42000000005054313030000000A4
:1041E000317E35560000000030303100303039006B
:1041F0003031370030323500303333004368616E80
:104200006E656C2073657400CDA8B5C0C9E8D6C3CF
:1042100000000000303032003031300030313800E2
:10422000303236003033340041B101290BD002293D
:1042300010D0032914D0042918D017E723F0D8F898
:10424000AFF2300217E0099823F0D2F8AFF238024B
:1042500011E03EE00A9823F0CBF8AFF240020AE00A
:104260000B9823F0C5F8AFF2480204E00C9823F055
:10427000BFF8AFF250020A21B4200FF02DFEE87B08
:1042800040B101280BD002280ED0032811D00428F9
:1042900014D0EBE6A07823F0E3F8FDA213E0A07AB7
:1042A00023F0DEF8FBA20EE0A07C23F0D9F8FAA2FE
:1042B00009E0A07E23F0D4F8F8A204E094F82200EC
:1042C00023F0CEF8F6A20A214FF482700FF004FE1C
:1042D000CCE611B101290DD0C8E623F089F8AFF280
:1042E000CC020A218C20FFF7CFF9A07823F0B8F890
:1042F000E7A20CE00B9823F07BF8AFF2DC020A2176
:104300008C20FFF7C1F9A07E23F0AAF8E3A20A21CE
:10431000B420FFF7B9F9A9E623F06AF8AFF20C125E
:104320000A218C20FFF7E6F9A07823F099F8D8A2AB
:104330000A21F3E3FFF7DEF998E6DA4804268078ED
:1043400032B1012A53D0022A7FF424AE89B38DE61C
:1043500041B101290AD002290DD0032910D0042926
:1043600013D083E623F044F8C9A212E0199823F091
:104370003FF8C8A20DE01E9823F03AF8C6A208E064
:104380000D9823F035F8C5A203E00E9823F030F81D
:10439000C3A20A214FF482700FF09EFDE87B48B162
:1043A00001280CD002280FD0032812D0042815D0E1
:1043B0005CE63BE0E07823F053F8BBA213E0E07A40
:1043C00023F04EF8B9A20EE0E07C23F049F8B8A241
:1043D00009E0E07E23F044F8B6A204E094F823005C
:1043E00023F03EF8B4A20A214FF4AA706EE711B18F
:1043F00001290CD03AE622F0FBFFA5A20A21B42045
:10440000FFF742F9E07823F02BF8A7A20BE00D9814
:1044100022F0EEFFA1A20A21B420FFF735F9E07ED9
:1044200023F01EF8A3A20A21DC2072E722F0E0FFAD
:1044300097A20A21B420FFF75DF9E07823F010F885
:1044400099A20A21F2E39748C07832B1012A59D0E3
:10445000022A7FF4EFADE9B375E041B101290AD03A
:1044600002290DD0032910D0042913D01BE022F01B
:10447000BFFF8DA212E01F9822F0BAFF8BA20DE0C1
:10448000209822F0B5FF8AA208E0229822F0B0FF1F
:1044900088A203E0249822F0ABFF87A20A214FF400
:1044A000AA700FF019FD002010F01AF9834810F0DF
:1044B000FBF894F8290002286FD001286ED0032859
:1044C0006DD004286CD005286BD006286AD0072848
:1044D00069D000E03BE008286FD009286ED00B2897
:1044E0006DD003E064212F200FF0C0FC94F8300061
:1044F00008B173A000E077A002F0B8FE07F0D2FD8B
:104500000020A3E211B101290CD01CE022F070FFC1
:1045100065A20A21DC20FFF7B7F8207922F0A0FF7E
:1045200070A20BE0229822F063FF62A20A21DC2035
:10453000FFF7AAF8207F22F093FF6BA20A214FF425
:104540008270FFF7A1F8012004F00EFF66E222F06E
:104550004FFF55A20A21DC20FFF7CCF8207922F08A
:104560007FFF60A20A214FF48270FFF7C3F8EAE7E9
:104570004C480627007932B1012A5BD0022A7FF429
:1045800009ADD1B303E379B1012911D0022917D0C4
:1045900003291AD004291DD0F9E264E266E268E238
:1045A0006AE26CE26EE270E222F022FF4DA215E0B8
:1045B0001A9822F01DFF4DA210E069E26BE26DE255
:1045C0001B9822F015FF4AA208E01C9822F010FF69
:1045D00045A203E01D9822F00BFF46A2314664205D
:1045E0000FF07AFCE87B48B101280CD002280FD0EC
:1045F000032812D0042815D0C9E23BE0607922F0EC
:104600002FFF3DA213E0607B22F02AFF3BA20EE0C9
:10461000607D22F025FF3AA209E0607F22F020FFB2
:1046200038A204E094F8250022F01AFF36A23146A1
:10463000B420C8E011B101290DD0A8E222F0D8FEC3
:1046400028A20A214FF48270FFF71EF8607922F049
:1046500007FF29A20CE01C9822F0CAFE22A20A2120
:104660004FF48270FFF710F8607F22F0F9FE25A268
:104670000A21A7E322F0BCFE1AA20A214FF482709D
:10468000FFF738F8607922F0EBFE1BA20A21ACE3B9
:1046900030303300303131003031390030323700C2
:1046A000303335002C0301203030340030313200FB
:1046B00030323000303238003033360000FFFF0037
:1046C000546865726D6F636F75706C65206D6F6493
:1046D000656C0000C8C8B5E7C5BCD0CDBAC5D1A1CE
:1046E000D4F1000030303500303239003031330041
:1046F0003032310030333700303036003031340062
:10470000303232003033300030333800F74807277A
:10471000407932B1012A59D0022A7FF43BACA9B3C7
:10472000F8E341B101290BD002290FD0032913D09E
:10473000042917D0EEE322F05BFEAFF2440216E04C
:104740000F9822F055FEAFF24C0210E0109822F0C4
:104750004FFEAFF254020AE0119822F049FEAFF288
:104760005C0204E0149822F043FEAFF2640231468A
:10477000B4200FF0B1FBE87B48B101280CD002282F
:104780000FD0032812D0042815D0C3E343E0A0794A
:1047900022F066FED6A213E0A07B22F061FED5A235
:1047A0000EE0A07D22F05CFED3A209E0A07F22F003
:1047B00057FED2A204E094F8260022F051FED0A2C7
:1047C00031464FF482700FF087FBA3E311B101294A
:1047D0000ED09FE322F00CFEAFF2E4020A214FF468
:1047E0009670FEF751FFA07922F03AFEC0A20DE0CC
:1047F000119822F0FDFDAFF2F4020A214FF49670F9
:10480000FEF742FFA07F22F02BFEBCA20A211BE391
:10481000FEF73AFF7EE322F0EBFDAFF224120A210D
:104820004FF49670FEF766FFA07922F019FEB0A251
:104830000A211CE3FEF75EFF6CE3AC48807932B1DD
:10484000012A55D0022A7FF4F2AB89B385E041B149
:1048500001290AD002290DD0032910D0042913D030
:104860007BE022F0C5FDA2A212E0239822F0C0FD59
:10487000A0A20DE0129822F0BBFD9FA208E02198B3
:1048800022F0B6FD9DA203E0139822F0B1FD9CA298
:1048900031464FF482700FF01FFBE87B48B10128CE
:1048A0000CD002280FD0032812D0042815D054E0D1
:1048B00042E0E07922F0D4FD92A213E0E07B22F006
:1048C000CFFD91A20EE0E07D22F0CAFD8FA209E0AB
:1048D000E07F22F0C5FD8EA204E094F8270022F0CC
:1048E000BFFD8CA231464FF4AA700FF0F5FA34E008
:1048F00011B101290DD030E022F07AFD7CA20A210D
:104900004FF4AA70FEF7C0FEE07922F0A9FD7DA267
:104910000CE0219822F06CFD78A20A214FF4AA70D5
:10492000FEF7B2FEE07F22F09BFD79A20A214FF450
:10493000BE70FEF7A9FE10E022F05AFD6CA20A211B
:104940004FF4AA70FEF7D6FEE07922F089FD6DA241
:104950000A214FF4BE70FEF7CDFE0820CFE239E306
:104960006248C07932B1012A5AD0022A7FF451AA92
:1049700089B3FFE041B101290AD002290DD00329F2
:1049800010D0042913D049E022F032FD5DA212E0DC
:10499000159822F02DFD5CA20DE0169822F028FD5E
:1049A0005AA208E0179822F023FD59A203E01898B4
:1049B00022F01EFD57A231464FF4AA700FF08CFA78
:1049C000E87B48B101280DD0022811D0032815D06A
:1049D000042819D022E064E0207922F041FDAFF2F2
:1049E000FC2217E0207B22F03BFDAFF2003211E009
:1049F000207D22F035FDAFF208320BE0207F22F05F
:104A00002FFDAFF21C3205E094F8240022F028FDBF
:104A1000AFF22032314664200FF05EFA052015E037
:104A2000C1B10129A2D1179822F0E2FC38A20A21D3
:104A30004FF4BE70FEF728FE207E22F011FDAFF687
:104A40004C020A216420FEF71FFE0120A87325B046
:104A5000BDE8F08F22F0CCFC2AA20A214FF4BE70F0
:104A6000FEF712FE1FE5AFF6D0023BE5AFF6D0022F
:104A700038E5AFF6CC0235E5AFF6CC0232E5AFF65D
:104A8000C8022FE5AFF6C8022CE5AFF6C40229E54F
:104A9000AFF6C40226E5AFF6C00223E5AFF6C002CA
:104AA00020E522F0A5FC17A20A214FF4BE70FEF704
:104AB00021FE00200FF014FE17480FF0F5FD94F8CA
:104AC000290002282BD001282CD003282DD004281F
:104AD0002ED005282FD0062830D0072831D008281E
:104AE00032D0092833D00B2834D039E02C030120F0
:104AF0003030370030313500303233003033310060
:104B00003033390030303800303136003032340044
:104B1000303332003034300000FFFF0085E2AFF662
:104B2000881219E0AFF6881216E0AFF6841213E08F
:104B3000AFF6841210E0AFF680120DE0AFF68012EF
:104B40000AE0AFF67C1207E0AFF67C1204E0AFF6A5
:104B5000781201E0AFF6781264212F200FF086F969
:104B600094F8300048B1AFF2A84000BF02F07EFBDD
:104B70000020A87307F096FA69E7AFF2A840F5E7BE
:104B80000A27012A04D0022A7FF451AA21B3C1E1E5
:104B900011B101290ED0BDE122F02AFCAFF6B4120A
:104BA00031466420FEF770FD607A22F059FCAFF6C2
:104BB00098120EE0089822F01BFCAFF6C4123146A2
:104BC0006420FEF761FD94F8210022F049FCAFF665
:104BD000AC1231468C201BE622F00AFCAFF6F41230
:104BE00086216420FEF786FD607A22F039FCAFF65C
:104BF000D81286218C201DE60B27012A03D0022A19
:104C0000C2D131B386E111B1012910D082E10998F6
:104C100022F0EEFBAFF6002231468C20FEF734FD89
:104C2000A07A22F01DFCAFF294520FE027E20C981C
:104C300022F0DEFBAFF6142231468C20FEF724FD75
:104C400094F8220022F00CFCAFF2AC523146B420B2
:104C5000DEE5099822F0CCFBAFF6442286218C20B9
:104C6000FEF748FDA07A22F0FBFBAFF2D852862176
:104C7000B420DFE50C27012A03D0022A84D129B30E
:104C800048E111B101290FD044E1199822F0B0FB9D
:104C9000AFF200623146B420FEF7F6FCE07A22F073
:104CA000DFFBAFF2F8520EE00E9822F0A1FBAFF25C
:104CB00010623146B420FEF7E7FC94F8220022F09F
:104CC000CFFBAFF20C623146DC20A1E5199822F04F
:104CD0008FFBAFF240628621B420FEF70BFDE07A35
:104CE00022F0BEFBAFF23C628621DC20A2E50D275C
:104CF000012A03D0022AC1D131B30BE111B101293C
:104D00000FD007E11F9822F073FBAFF260623146CB
:104D1000DC20FEF7B9FC207B22F0A2FBAFF234626C
:104D20000EE0249822F064FBAFF274623146DC207E
:104D3000FEF7AAFC94F8240022F092FBAFF24C623A
:104D400031464FF4827063E51F9822F051FBAFF2B9
:104D5000A4628621DC20FEF7CDFC207B22F080FBC4
:104D6000AFF2786286214FF4827063E50E27012A44
:104D700003D0022ABFD141B3CCE011B1012910D038
:104D8000C8E01A9822F034FBAFF2A06231464FF42B
:104D90008270FEF779FC607B22F062FBAFF2A462C6
:104DA0000FE01D9822F024FBAFF2B86231464FF4B9
:104DB0008270FEF769FC94F8250022F051FBAFF2F7
:104DC000B86231464FF4967022E51A9822F010FB33
:104DD000AFF2E86286214FF48270FEF78BFC607BB5
:104DE00022F03EFBAFF2EC6286214FF4967021E593
:104DF0000F27012A03D0022ABCD141B38AE011B1A6
:104E0000012910D086E00F9822F0F2FAAFF2147266
:104E100031464FF49670FEF737FCA07B22F020FB62
:104E2000AFF230320FE0149822F0E2FAAFF22872BB
:104E300031464FF49670FEF727FC94F8260022F0D6
:104E40000FFBAFF2443231464FF4AA70E0E40F9802
:104E500022F0CEFAAFF25C7286214FF49670FEF724
:104E600049FCA07B22F0FCFAAFF2783286214FF4A5
:104E7000AA70DFE4012A03D0022ABDD151B33DE07C
:104E800011B1012910D039E0239822F0B1FAAFF224
:104E90009C3231464FF4AA70FEF7F6FBA07B22F05D
:104EA000DFFAAFF29C320FE0139822F0A1FAAFF2D2
:104EB000B03231464FF4AA70FEF7E6FB94F82700B3
:104EC00022F0CEFAAFF2B43231464FF4BE70FEF7A4
:104ED000DBFB13E0239822F08BFAAFF2E832862155
:104EE0004FF4AA70FEF706FCE07B22F0B9FAAFF2AD
:104EF000E83286214FF4BE70FEF7FCFB102039E348
:104F00000927012A03D0022AB7D149B302E021B10F
:104F1000012912D0AF73FFF78AB8159822F068FA0A
:104F2000AFF21C4231464FF4BE70FEF7ADFB207A63
:104F300022F096FAAFF64C520FE0189822F058FA89
:104F4000AFF2304231464FF4BE70FEF79DFB94F84D
:104F5000200022F085FAAFF660523146642057E413
:104F6000159822F045FAAFF2604286214FF4BE70E8
:104F7000FEF7C0FB207A22F073FAAFF6905286213A
:104F8000642057E41226012A03D0022AC3D189B132
:104F900034E1184622F02CFAAFF6AC5239466420C0
:104FA000FEF772FB607C22F05BFAAFF69052394656
:104FB000FFF7C8B8184622F01BFAAFF6CC524F469E
:104FC00049466420FEF796FB607C22F049FAAFF672
:104FD000B45239468C20FFF7ADB91326012A03D00D
:104FE000022A98D189B109E10A9822F001FAAFF6B4
:104FF000D45239468C20FEF747FBA07C22F030FAD1
:10500000AFF66C123946FFF783B90A9822F0F0F92F
:10501000AFF6F8524F4649468C20FEF76BFBA07C5A
:1050200022F01EFAAFF690123946B420D3E71426C8
:10503000012A03D0022AA9D189B1DFE01E9822F00B
:10504000D7F9AFF6AC123946B420FEF71DFBE07C71
:1050500022F006FAAFF6A8123946FFF7E5B91E9816
:1050600022F0C6F9AFF6D0124F464946B420FEF7FB
:1050700041FBE07C22F0F4F9AFF6CC123946DC209B
:10508000A9E71526012A03D0022AAAD199B1B5E0D1
:10509000209822F0ADF9AFF6E8123946DC20FEF791
:1050A000F3FA207D22F0DCF9AFF6BC1239464FF45A
:1050B0008270FFF72EB9209822F09AF9AFF61022ED
:1050C0004F464946DC20FEF715FB207D22F0C8F94B
:1050D000AFF6E41239464FF482707CE71626012AB7
:1050E00003D0022AA7D199B188E01B9822F080F959
:1050F000AFF6042239464FF48270FEF7C5FA607DA0
:1051000022F0AEF9AFF6082239464FF49670D0E798
:105110001B9822F06DF9AFF628224F4649464FF40E
:105120008270FEF7E7FA607D22F09AF9AFF630223E
:1051300039464FF496704EE71726012A03D0022A0B
:10514000A3D199B15AE0109822F052F9AFF650224B
:1051500039464FF49670FEF797FAA07D22F080F959
:10516000AFF26C6239464FF4AA70A2E7109822F0B1
:105170003FF9AFF674224F4649464FF49670FEF75A
:10518000B9FAA07D22F06CF9AFF2946239464FF47F
:10519000AA7020E71826012A03D0022AA2D199B1C9
:1051A0002CE0129822F024F9AFF2B46239464FF4A1
:1051B000AA70FEF769FAE07D22F052F9AFF2B4620C
:1051C00039464FF4BE7074E7129822F011F9AFF22D
:1051D000D8624F4649464FF4AA70FEF78BFAE07D3D
:1051E00022F03EF9AFF2DC6239464FF4BE70F2E6CF
:1051F0001126012A04D0022AA2D191B1AE738AE607
:10520000169822F0F5F8AFF2FC6239464FF4BE7002
:10521000FEF73AFA207C22F023F9F94A3946642055
:1052200047E7169822F0E4F8AFF220724F4649465D
:105230004FF4BE70FEF75EFA207C22F011F9F04ABE
:1052400039466420C7E6022AD9D191B9704622F0C6
:10525000CFF8EB4A5646121D51466420FEF74AFA33
:10526000607E22F0FDF8E64A314630328C20FEF7AF
:1052700041FA1A207EE1022AC1D191B90B9822F09D
:10528000B7F8DF4A5646303251468C20FEF732FAE4
:10529000A07E22F0E5F8AFF6FC323146B420FEF7EE
:1052A00029FA1B2066E1022AA9D191B90D9822F0B2
:1052B0009FF8AFF6184256465146B420FEF71AFA48
:1052C000E07E22F0CDF8AFF614423146DC20FEF746
:1052D00011FA1C204EE1022A91D199B9229822F0AC
:1052E00087F8AFF6304256465146DC20FEF702FA08
:1052F000207F22F0B5F8AFF6104231464FF48270AD
:10530000FEF7F8F91D2035E1022A9DD1A1B91C98BC
:1053100022F06EF8AFF63042564651464FF4827096
:10532000FEF7E8F9607F22F09BF8AFF6284231469D
:105330004FF49670FEF7DEF91E201BE1022A9BD186
:10534000A1B9119822F054F8AFF64842564651469A
:105350004FF49670FEF7CEF9A07F22F081F8AFF6F9
:10536000640231464FF4AA70FEF7C4F91F2001E130
:10537000022A99D1A1B9219822F03AF8AFF6840215
:10538000564651464FF4AA70FEF7B4F9E07F22F07A
:1053900067F8AFF6840231464FF4BE70FEF7AAF903
:1053A0002020E7E0022A97D199B9179822F020F837
:1053B000AFF6A402564651464FF4BE70FEF79AF976
:1053C000207E22F04DF88E4A3146121D6420FEF7F1
:1053D00091F91920CEE0022A97D199B9089822F0C4
:1053E00007F8874A5E46083259466420FEF782F97C
:1053F00094F8210022F034F8814A314634328C206E
:10540000FEF778F92220B5E0022A98D199B90C98D4
:1054100021F0EEFF7A4A5E46343259468C20FEF780
:1054200069F994F8220022F01BF8AFF68C5231464D
:10543000B420FEF75FF923209CE0022A99D199B9A4
:105440000E9821F0D5FFAFF6A8525E465946B4201B
:10545000FEF750F994F8230022F002F8AFF6A852B4
:105460003146DC20FEF746F9242083E0022A9AD157
:10547000A1B9249821F0BCFFAFF6C4525E4659464C
:10548000DC20FEF737F994F8240021F0E9FFAFF6AD
:105490009C5231464FF48270FEF72CF9252069E0CA
:1054A000022A99D1A9B91D9821F0A2FFAFF6BC52EA
:1054B0005E4659464FF48270FEF71CF994F82500B9
:1054C00021F0CEFFAFF6C05231464FF49670FEF792
:1054D00011F926204EE0022A97D1A9B9149821F09B
:1054E00087FFAFF6DC525E4659464FF49670FEF7E2
:1054F00001F994F8260021F0B3FFAFF6FC12314613
:105500004FF4AA70FEF7F6F8272033E0022A95D16F
:10551000A9B9139821F06CFFAFF61C225E465946DC
:105520004FF4AA70FEF7E6F894F8270021F098FFF0
:10553000AFF6202231464FF4BE70FEF7DBF828208C
:1055400018E0022A93D1A1B9189821F051FFAFF6C3
:105550003C225E4659464FF4BE70FEF7CBF894F8F5
:10556000200021F07DFF264A314608326420FEF7F4
:10557000C1F82120A873CEE44FF4FA76BCF1320FC3
:1055800071D016DCBCF12C0F4CD0BCF12D0F6BD0C0
:10559000BCF12E0F69D0BCF1310F7FF458AA21F075
:1055A00049FF94F82E0050B301286FD002286ED026
:1055B00080E1BCF15F0F6BD0BCF1610F69D0BCF131
:1055C000620FEAD121F036FF94F83B3094F83A208C
:1055D0000CA101A8303420F0E7FE01AA9621F820A2
:1055E0000EF044FC0A48008827F0D0F92078C8B3B0
:1055F00008A000BF01F03AFE3320FFF727BA43E1CD
:10560000F041000825302E32643A25302E326400F5
:10561000980100205265636F726420696E74657230
:1056200076616C0021F006FF94F82C00002894F8B5
:10563000300021D028B3F8A2962132200EF016FCBB
:1056400021F01EFF94F82A00002894F830001AD0A8
:1056500010B3F1A296215A200EF008FC94F8300005
:10566000E0B103E00EE14DE11AE065E0EBA000BF20
:1056700001F0FCFD2D20C0E708B1ECA2DCE7ECA2B4
:10568000DAE7EDA2D8E728B1E8A2E3E703E109E110
:105690009CE0CCE0E6A2DDE7E7A2DBE7E8A0E7E7F5
:1056A00021F0C8FE94F82A00002894F8300027D092
:1056B00058B3D9A296215A200EF0D8FBE3480146F0
:1056C0000EF0F8FF1F2318227F2196200EF010FD08
:1056D00094F82B0005281AD004284FF0000020D0A1
:1056E0000EF0FEFFDAA29B217F200EF0BFFB94F8A4
:1056F0003000F8B1D7A000BF01F0B8FD2E207CE744
:1057000008B1CAA2D6E7CAA2D4E7CBA2D2E700204A
:105710000EF0E6FFD5A296217F20FDF7EBFFD4A285
:10572000E1E70EF0DDFFD1A296217F20FDF7E2FF39
:10573000BDA2D8E7CFA0DFE7882108460EF0BAFF68
:105740001F2318227F2196200EF0D2FC94F82B0004
:1057500005281FD00428BD4826D00EF0C1FFBCA2EA
:105760009B217F200EF082FB21F08AFE94F8360008
:10577000002894F8300020D020B3A7A29621AA20B8
:105780000EF074FB94F83000F0B1BEA001F06EFD95
:105790005F2032E7AD480EF0A3FFB4A296217F2030
:1057A000FDF7A8FFB2A2DBE70EF09AFFAFA29621A9
:1057B0007F20FDF79FFF9CA2D2E708B19BA2DDE707
:1057C0009BA2DBE79CA2D9E7B1A0DFE721F032FE84
:1057D00094F83600002894F830001FD018B38EA239
:1057E0009621AA200EF042FB21F04AFE94F83930AF
:1057F00094F83820AFF2F41101A8303420F0D4FD31
:1058000001AA9621D0200EF031FB207868B1A3A028
:1058100001F02CFD012068706120EEE608B183A242
:10582000DEE783A2DCE784A2DAE79EA0F0E721F0BE
:1058300001FE94F8393094F83820AFF2382101A8ED
:10584000303420F0B1FD01AA9621D0200EF00EFBDD
:1058500021F016FEE37AA27AAFF2582101A820F0D7
:10586000A3FD01AA9621F8200EF000FB207838B1A4
:1058700090A000BF01F0FAFC012068706220BCE635
:105880008DA0F7E790A0B5E694F8300008B192A299
:105890000CE093A20AE094F8300008B192A205E06F
:1058A00092A203E094F8300090B192A231463220E7
:1058B0000EF0DCFA21F0E4FD94F82F0050B101283D
:1058C0000AD002280AD003280AD004280AD00EE001
:1058D0008AA2EBE78BA206E08CA204E08DA202E094
:1058E0008EA200E08FA2314657200EF0BFFA94F846
:1058F000300028B18DA000BF01F0B8FC32207CE65A
:105900008FA0F9E721F096FD94F82F0040B101280F
:1059100008D0022808D0032808D0042808D00CE0BA
:1059200078A206E079A204E07AA202E07BA200E07D
:105930007CA2314657200EF099FA21F0A1FD94F88F
:105940003700002894F830000ED090B132A23146D2
:1059500082200EF08BFA94F8300060B17BA000BF7B
:1059600001F084FC602048E608B130A2EFE730A2E5
:10597000EDE731A2EBE777A0F2E7794C794E7A4870
:1059800094ED210AD6ED214A407C96ED194AD6EDD8
:10599000113A96ED093AD6ED012A94ED192AD4ED83
:1059A000111A94ED091AD4ED010AACF1380CBCF1CE
:1059B0000F0FBFF44CA8DFE80CF00AF7F5F4F3F290
:1059C000F108F0EFEEEDECEB2E00FFF740B840B140
:1059D00001280ED0022814D003281AD0042819D088
:1059E000D4E0B0EE600A022022F0BEFC94ED000A82
:1059F000C9E0B0EE410A022022F0B6FC94ED080A9C
:105A0000C1E0B0EE610A022022F0AEFC94ED100A73
:105A1000B9E0ABE0B2E04DE34F4E000042757A7A58
:105A20006572204F4E2F4F46460000004F464600FD
:105A3000B9D8B1D500000000B4F2BFAA0000000040
:105A4000B7E4C3F9C6F7C9E8D6C3000000FFFF00FA
:105A50004B00000053656C6563742074656D706560
:105A600072617475726520756E6974006F00000054
:105A700043000000CEC2B6C8B5A5CEBBD1A1D4F1BB
:105A800000000000547269672054696D657200005F
:105A9000B6A8CAB1B2C9BCAF00000000535441520D
:105AA00054000000B2C9BCAFBFAACABCCAB1BCE4B2
:105AB00000000000454E4400B2C9BCAFBDE1CAF8C9
:105AC000CAB1BCE400000000BCC7C2BCBCE4B8F46E
:105AD000CAB1BCE40000000046415354000000007D
