:020000040800F2
:10000000D00E0120C1010008EBDC000879B5000822
:10001000E9DC00085D1000082F72010800000000F4
:1000200000000000000000000000000005060108BC
:100030001544000800000000A1DD0008BD0701080C
:10004000DB010008DB010008DB010008DB01000820
:10005000DB010008DB010008DB010008DB01000810
:10006000DB010008DB010008DB010008DB01000800
:10007000DB010008DB010008DB010008DB010008F0
:10008000DB010008DB010008DB010008DB010008E0
:10009000DB010008DB010008DB010008DB010008D0
:1000A000DB010008DB010008DB010008DB010008C0
:1000B000DB010008DB010008DB010008DB010008B0
:1000C000DB010008DB010008DB010008DB010008A0
:1000D000DB0100088D560108DB010008DB01000888
:1000E000DB010008DB010008DB010008DB01000880
:1000F000DB010008DB010008DB010008DB01000870
:10010000DB010008DB010008DB010008DB0100085F
:10011000DB010008DB01000855080108DB010008CD
:10012000DB010008DB010008DB010008DB0100083F
:10013000DB010008DB010008DB010008DB0100082F
:10014000DB010008DB010008DB01000865DD0008B9
:10015000DB010008DB010008DB010008DB0100080F
:10016000DB010008DB0100087DDD000871DD00080F
:10017000DB01000889DD0008DB010008DB01000865
:10018000DB010008DB010008DB010008DB010008DF
:10019000DB010008DB010008DB010008DB010008CF
:1001A000DB010008DB010008DB010008DFF80CD0F0
:1001B00000F0D4FB00480047358B0108D00E012029
:1001C0000648804706480047FEE7FEE7FEE7FEE7F1
:1001D000FEE7FEE7FEE7FEE7FEE7FEE7F9070108B8
:1001E000AD010008D2B201E000F8012B491EFBD29C
:1001F00070470022F6E710B513460A460446194632
:10020000FFF7F0FF204610BD421E12F8013F002B01
:10021000FBD111F8013B02F8013B002BF9D17047EB
:1002200010B5044604E00B7800F8013B03B1491C0B
:10023000521EF8D2204610BD10B5002200E0521C1C
:10024000835C8C5CA34201D1002BF8D1D8B2E1B21F
:10025000401A10BD70B5064617F070FC04680546DC
:100260000A220021304600F00BFA2C6070BD2DE907
:10027000FE4F804681EA0300C00F0C46009021F03B
:10028000004123F00045B8EB0200A94105D24046E9
:10029000214690461C460B46024623F00040104380
:1002A00047D0270DC7F30A00C3F30A510290401A42
:1002B000019040286BDAC3F3130040F4801B0098D0
:1002C000924620B10023D2EB030A63EB0B0B01989B
:1002D0005946C0F14002504600F062F906460D460C
:1002E00050465946019A00F06AF910EB0800614146
:1002F000002487EA115284EAE7731A4340D0009A37
:1003000062B3019A012A4FEA075215DC001B61EB28
:1003100002014FF0004202EA0752CDE90042001C00
:1003200041F5801132462B4600F028FA03B0BDE8B3
:10033000F08F40462146F9E7001B61EB0201001CEB
:1003400041F5801300185B412018A2F5001747EB18
:10035000030140EAD570B6196D4111E06D084FEA0E
:10036000360645EAC0754FEA0752001B61EB0201F1
:10037000001C41F5801149084FEA30000019514135
:1003800032462B4603B0BDE8F04F00F0E8B90098C4
:10039000012240000023D0EB020263EBE0730098DF
:1003A00021464FEAE074B8EB000061EB0401E9E795
:1003B00083F000435BE781F0004158E72DE9F04D01
:1003C00081EA030404F0004B21F0004514464FF08D
:1003D000000A23F0004150EA050220D054EA01024D
:1003E0001DD0C5F30A570246C5F31303C1F313002A
:1003F000C1F30A5640F4801543F48013A7EB0608B6
:10040000101BD64608F2FD3873EB050002D308F145
:10041000010801E092185B41B8F1000F03DA0020F7
:100420000146BDE8F08D00204FF480110646844659
:100430000EE0171B73EB050705D3121B63EB0503D7
:1004400006434CEA010C49084FEA300092185B4120
:1004500050EA0107EDD152EA030012D082EA04000B
:1004600083EA0501084305D0101BAB4106D20122E7
:10047000002306E000224FF0004302E06FF001028B
:1004800053101AEB06004CEB085110EB0A0041EB3D
:100490000B01BDE8F04D00F062B90EB540F23341FA
:1004A00002910021CDE900110A460B4600F066F9E1
:1004B00003B000BD00F0004230F000400AD0C10D92
:1004C00001F56071C0F3160042EA0151C20840070D
:1004D0001143704700200146704701F0004330B4DB
:1004E00021F0004150EA010206D00A0DA2F5607227
:1004F000C1F31301002A02DC30BC00207047440F16
:1005000044EAC104C100E01830BC00EBC25000F066
:10051000EFB830B50B46014600202022012409E047
:1005200021FA02F59D4205D303FA02F5491B04FAAC
:1005300002F52844151EA2F10102F1DC30BD2DE9BF
:10054000F05F0546002092469B4688460646814657
:1005500040241BE0284641464746224600F010FA58
:1005600053465A46C01A914110D3114618462246A6
:1005700000F016F82D1A67EB01084F4622460120BD
:10058000002100F00DF817EB00094E41201EA4F1E8
:100590000104DFDC484631462A464346BDE8F09F69
:1005A000202A04DB203A00FA02F100207047914033
:1005B000C2F1200320FA03F3194390407047202A28
:1005C00006DBCB17203A41FA02F043EAE07306E07B
:1005D00041FA02F3D040C2F120029140084319468B
:1005E000704700000FB4002300B589B00CA900913A
:1005F0000B996FF00042CB601E4B06931E4B079386
:100600000423CDE901321D4A089202466B460020C0
:1006100000F068FA09B05DF814FB70B586B00646C4
:100620004FF0FF300091CDE90101002015460C4646
:1006300004903246694604A8FFF7D4FF02460498A6
:10064000211825B108B1084600E02046286004982A
:1006500000280DD0002A02DD0098884208D0081B2F
:100660000094CDE901043246694604A8FFF7BAFFB9
:1006700006B070BD1D0D00083B0D0008A90900085B
:100680002DE9F04791460F4680460446002614F8AF
:10069000015B2DB100F084F90068405DC007F6D120
:1006A0002B2D02D02D2D18D0641E4A4639462046E7
:1006B00000F054FB27B13968A14201D1C7F800808E
:1006C00071054FF002040BD54042002803DD17F0FE
:1006D00035FA0460A007BDE8F08746F48066E4E7D9
:1006E0000028F8DA17F02AFA04606FF00040F2E709
:1006F0000029A8BF7047401C490008BF20F0010036
:10070000704710B4B0FA80FC00FA0CF050EA010413
:1007100004BF10BC704749B1CCF1200421FA04F4A5
:1007200011FA0CF118BF012121430843A3EB0C017E
:10073000CB1D4FEA00614FEA102042BF002010BCE1
:10074000704700EBC35010440029A4BF10BC704791
:10075000401C490008BF20F0010010BC704710B5D4
:10076000141E73F1000408DA401C41F100019218D4
:100770005B411A4301D120F0010010BD2DE9F04D7D
:1007800092469B4611B1B1FA81F202E0B0FA80F2D2
:1007900020329046FFF704FF04460F4640EA0A0065
:1007A00041EA0B0153465A46084313D0114653EA17
:1007B000010019D0C8F14002504600F0E1F80546AA
:1007C0000E46504659464246FFF7EAFE084305D01A
:1007D000012004E020463946BDE8F08D00200543A5
:1007E00046EAE0762C4337430A986305E40AA0EB17
:1007F00008000022FD0A44EA47540A3002D50020CE
:100800000146E9E7010510196941DDE908450019CC
:100810006941BDE8F04DA2E72DE9FE4F81EA0304EE
:1008200004F0004421F0004100944FF0000B23F04D
:10083000004350EA01045ED052EA03045BD0C3F3E4
:100840000A54C1F30A552C44A4F2F3340194A0FBDA
:100850000254C1F3130141F48011C3F3130343F4B1
:10086000801301FB024400FB034E840A970A44EA0A
:10087000815447EA8357A4FB076802958D0A05FB5C
:1008800007854FEA932C04FB0C542705029D4FEA81
:10089000065847EA1637B5EB08056EEB070C870ECE
:1008A000920E47EA811742EA8312A7FB0201B6EBD8
:1008B0000B0164EB00042B0D43EA0C335E1844EB90
:1008C0001C50DA465146E7FB0201C5F313044FEA18
:1008D0000B3343EA14534FEA0432019C43EA060304
:1008E000A4F10C040294009CCDE900B4FFF746FF8C
:1008F00003B0BDE8F08F00200146F9E7C1F30A52CA
:10090000C1F3130140F2FF3341F480119A4202DA3D
:1009100000200146704740F233439A42A2F233422C
:1009200002DC524200F02CB8FFF73ABE30B5041E8C
:1009300071F1000404DB4FF00044404264EB01011C
:10094000141E73F1000405DB1C464FF000435242B5
:1009500063EB0403994208BF904230BD064C074D3B
:1009600006E0E06840F0010394E80700984710347F
:10097000AC42F6D3FFF71EFCDC600308FC60030802
:10098000202A04DB203A21FA02F00021704721FAE4
:1009900002F3D040C2F1200291400843194670474B
:1009A00000487047D860030810B50446FFF7F8FF09
:1009B0000068005D00F0010010BD00002DE9FF4F50
:1009C000087883B09946FF2805D0491C2D2804D00B
:1009D0000024002008E000200BE00124F9E700EBF0
:1009E000800003EB4000491C0B78FF2BF7D104B1CA
:1009F000404200230293147819461D462D2C01D045
:100A00002B2C04D1521C2D2C13D000240294AA4666
:100A10001478FF2C0FD00A25A3FB057801FB058174
:100A20004FF0000C03FB0C11521CE3194AEB0101BF
:100A3000EEE70124EAE7814453EA010002D019F508
:100A4000C87F06DA03980021C0E9001107B0BDE8AD
:100A5000F08F0025AE4E2F46DFF8B882184600F022
:100A6000DAF9CDE90001B9F1000002DAC9F10004B8
:100A700000E004460023A74A1AEB030B42EB045A9A
:100A800012E0E00707D02A46334638464146FFF7D2
:100A9000C3FE074688462A46334610461946FFF7E6
:100AA000BBFE05460E466410002CEAD1DDE90001CC
:100AB000B9F1000F5A46534606DAFFF77FFC3A4673
:100AC0004346FFF77BFC05E0FFF7A6FE3A464346A8
:100AD000FFF7A2FE029A0AB181F00041039AC2E92F
:100AE0000001B3E72DE9FF4F1F468DB0D7E901465E
:100AF0004FF0FF382E2045464FF000090B90B969A2
:100B00006D1C0E988847396A824688470028F6D1BE
:100B1000BAF1FF3F0AD024F4D064002E11DDBAF1FF
:100B20002B0F08D0BAF12D0F0BD102E0404611B0C7
:100B30008DE744F48064B9696D1C0E98884782463D
:100B4000761E6946600501D52D2000E02B208DF82A
:100B5000000001F1010B0DF1200809E0B9696D1CDD
:100B60000E98884782460F9844F40074761E0560FC
:100B7000002E02DDBAF1300FF0D00B998A453ED13C
:100B800044F0800406E00F99681CA9F1010944F4BF
:100B900000740860B9696D1C761E0E9888478246FD
:100BA0003028F0D02BE00B998A4505D1200603D4DC
:100BB00044F08004761E18E0504617F0BFF808B3E2
:100BC0000DF11301761E44F400748B4508D2AAF18E
:100BD00030000BF8010B200607D5A9F1010003E056
:100BE000200602D409F101008146A00502D50F9923
:100BF000681C0860B9696D1C0E9888478246002EF3
:100C0000D1DC53E0002E51DDBAF1650F02D0BAF10C
:100C1000450F4BD1A00549D5B9696D1C24F440742A
:100C2000761E0E9888478246002E0CDD2B2804D0B5
:100C3000BAF12D0F07D144F48074B9696D1C0E9878
:100C400088478246761EE00501D52D2100E02B2144
:100C500008F8011BCDF82C8021E00DF12901761E4A
:100C600044F4007488450CD2AAF1300010F0FF0063
:100C700088F8000002D10B99884509D908F10108CC
:100C800006E0E00501D5244801E042F20F708146FC
:100C9000B9696D1C0E98884782460F980560002E32
:100CA00004DD504617F04AF80028D6D1F9690E98AD
:100CB0008847FF208BF8000088F80000002006908D
:100CC00007904B466A4608A906A8FFF777FEA005DD
:100CD00002D46FF001002AE714F0240F0AD0E007D5
:100CE00014D1DDE906123868031D3B600068C0E9D5
:100CF00000120BE0DDE90601FFF7EFFB0146E0071C
:100D000004D13868021D3A600068016028460EE789
:100D1000000014400000F03FF1D8FFFF426842B1EC
:100D2000016811F8013B23B1521EC0E900121846B8
:100D300070470121C160881E704742685AB1C3687C
:100D4000016843B983688B4205D0491E521CC0E933
:100D50000012002070474FF0FF3070472DE9F05F20
:100D600082460078002715468B460AF10104B946F1
:100D7000302801D09DB113E014F8010B0127782829
:100D800003D0582801D045B10AE00DB1102D07D18C
:100D90000027102514F8010B02E0082500E00A25C1
:100DA0000026B0460EE005FB080005FB06F1012712
:100DB00001EB10461FFA80F8B6F5803F00D3B94624
:100DC00014F8010B294600F018F80028EBDABBF103
:100DD000000F05D00FB1641E00E05446CBF8004070
:100DE000B9F1000F06D016F0A9FE02210160C81E5D
:100DF000BDE8F09F48EA0640FAE73A2800D23038CA
:100E000020F02002412A01D3A2F13700884201D309
:100E10004FF0FF3070470EB540F23342029200228D
:100E2000CDE900221346FFF7A9FC03B000BD70B561
:100E30008C1810F8015B15F0070301D110F8013B85
:100E40002A1106D110F8012B03E010F8016B01F80C
:100E5000016B5B1EF9D12B0705D40023521E0DD464
:100E600001F8013BFAE710F8013BCB1A921C03E0B2
:100E700013F8015B01F8015B521EF9D5A142D8D3EA
:100E8000002070BD0E4910B5087A082803D0BDE8CF
:100E9000104007F0C9BE487A897B0B4A00EBC101BC
:100EA0005339C9B29FED070A02EB8101523881ED37
:100EB000000AC0B217F0E2FFBDE810400FF0B4BB6B
:100EC000E4000020000000002C07012000298168B8
:100ED00002D041F0010101E021F001018160704781
:100EE000084B10B5D3F8042307490A40D0E9001491
:100EF0002143D0E90240044321431143C3F80413C2
:100F000010BD000000200140E030FCFF0029816896
:100F100002D041F4807101E021F48071816070475A
:100F20000029816802D041F4007101E021F40071D0
:100F30008160704730B542680F4B0C791A400B68DE
:100F400042EA04221343436082680C4B4D791A40F5
:100F5000D1E9034323438C6844EA45042343134304
:100F60008360C26A097D22F47002491EC9B242EA56
:100F70000151C16230BD0000FFFEFFFCFDF7FFC064
:100F800070B5072609290AD9C568A1F10A0404EB3E
:100F90004404A640B543A3401D43C56007E005696E
:100FA00001EB4104A640B543A3401D4305611F2347
:100FB000072A09D2446B521E02EB820293409C43E3
:100FC00091400C43446370BD0D2A09D2046BD21FBB
:100FD00002EB820293409C4391400C43046370BD3A
:100FE000C46A0D3A02EB820293409C4391400C4349
:100FF000C46270BD816841F080418160704700002B
:101000000648007A052805D0062803D0072801D015
:10101000082801D117F048BB70470000E400002009
:101020001CB5012108020CF0E1FE202001210090F6
:101030008DF8041000208DF806008DF80710064C7E
:101040008DF80500694620460AF03EFA2021204628
:101050000AF08DFA1CBD000000200240FEE710B52A
:101060000CF0B8FE08B100F008F8BDE810403020E0
:1010700000F00EB8312000F00BB810B522201CF0A3
:1010800077FE1CF06BFE04461CF062FE204610BD8D
:1010900010B51CF06DFE1CF05BFEBDE8104016F0B4
:1010A00017BD00002DE9F04188B0012181200CF02E
:1010B0009DFE012108030CF0C9FEDFF8C88005225F
:1010C000114640460AF03CFA0522062140460AF045
:1010D00037FA0522072140460AF032FA02258DF838
:1010E00005508DF80450002420278DF80640009705
:1010F0008DF80740694640460AF0E6F94020009026
:10110000694640460AF0E0F9802000906946404672
:101110000AF0DAF91020012600908DF804608DF8AD
:101120000640694640460AF0CFF98DF80440009722
:101130008DF80760694614480AF0C6F9ADF8084012
:101140004FF48270ADF80A00ADF810602802ADF8D7
:1011500012003820ADF81400ADF80C40ADF8164080
:1011600007200A4CADF81800ADF80E5002A9204631
:101170000FF0B9F9012120460EF0B2FF08B0BDE82A
:10118000F081000000000240001C024000300140DD
:10119000F0B5FF231A46002518E0445D62400024A4
:1011A00002F0010613F0010F4FEA53034FEA520217
:1011B00001D042F080021EB183F0A00382F0010250
:1011C000641CE4B2082CEBD36D1CEDB28D42E4D369
:1011D00042EA0320F0BD0000164901EB800111ED49
:1011E000010A154901EB800151ED010A134901EB98
:1011F000800130EE600A51ED010AB4EEE00AF1EE32
:1012000010FA09D30E4901EB800050ED010AB4EE4B
:10121000E00AF1EE10FA04DD0A4890F82C000128EB
:1012200004D088216FF07F400BF058BA88214FF42A
:101230007F00F9E7240900202C070120240B00205F
:10124000840A0020E002002010B50B460C0601F0D5
:101250007F0202EB820100EBC10102D501F58E7124
:1012600001E001F55D710A70DA094A7015F0C5FDFB
:10127000002010BD0A4610B5090602F07F0306D50E
:1012800003EB830100EBC10101F58E7105E002EB78
:10129000820100EBC10101F55D7100248C700B70BF
:1012A000D2094A7015F090FD002010BD10B50A0655
:1012B00004D501F07F0115F0C3FE01E015F0A2FE98
:1012C000002010BD70B50D460E0601F07F0404EB42
:1012D000840100EBC10102D501F58E7101E001F539
:1012E0005D71ED090C704D708A60CB7000D0CC80C0
:1012F000022B01D100220A7115F032FD002070BDD1
:1013000010B501F07F0404EB840100EBC101C1F8CA
:101310008833C1F880230023C1F88C3381F87533FA
:1013200081F87443C37801F55D71012B00D10A6126
:1013300014F0FF0F03D015F09FFD002010BD15F035
:10134000A0FCFAE70069002261F30A120168114368
:10135000016070470A4610B5090602F07F0306D502
:1013600003EB830100EBC10101F58E7105E002EB97
:10137000820100EBC10101F55D7101248C700B70DD
:10138000D2094A7015F060FD002010BD70B511F053
:101390007F0404EB840100EBC1014FF0010581F8EB
:1013A0001D5181F81C41C1F82821C1F82C2101F5FB
:1013B0008E714FF00002C1E9053203D015F05CFDDB
:1013C000002070BD15F05DFCFAE700002DE9F0414A
:1013D0000646002415F07DFE074655E0F80751D07B
:1013E0003069E1B20369426BCA4006EB810102F049
:1013F0000102896943EAC2128D681540E9071AD0D3
:101400000125426B05FA04F18A43426306EB84002E
:10141000806985601F48E1B20068426830469047A5
:10142000F078012807D134B996F81101042802D1C7
:10143000304615F083FC280704D506EB8400082508
:1014400080698560E80604D506EB84001025806974
:101450008560680604D506EB8400402580698560B8
:10146000A80704D506EB840002258069856028065C
:1014700008D52146304600F06CF906EB8401802047
:10148000896988607F08641C002FA7D10120BDE80E
:10149000F0810000540100202DE9F04105460024B0
:1014A00015F01DFE0746DFF8988043E0F8073FD0AF
:1014B000E1B2284615F019FE0646C00725D005EB17
:1014C00084000126416D8E60E97801290CD1406DC0
:1014D000016904EB840005EBC000C1F31201D0F8F0
:1014E0007C23511AC0F88C13D8F80000E1B20268CE
:1014F00028469047E878012807D134B995F81101BA
:10150000052802D1284615F019FCB00704D505EBD3
:1015100084000226406D8660300709D5D8F80000A7
:1015200081682846884705EB84010820496D88605A
:101530007F08641C002FB9D10120BDE8F0810000B4
:101540005401002070B50546C068816921F0100182
:101550008161E868066A06F00F0000EB800005EB89
:10156000C004C6F3434004F55D74072821D2DFE8C8
:1015700000F0202004202020150047F6F0700642DD
:1015800017D0C6F30A1632462846E16815F0B5FDB5
:10159000E0683044E060A069304409E0082205F2C8
:1015A000CC51284615F0A9FDA069C6F30A110844DC
:1015B000A061E868816941F010018161012070BD7E
:1015C00038B5044600208DF8000094F812018DF81B
:1015D00000001548006841692046884720698068F6
:1015E000E2684FF400615161A17AD1B1C00718D00F
:1015F00094F81501012814D19DF80000032810D19A
:10160000D4F80C01016841F001010160D4F80C012B
:10161000016841F0030101600448016841F00601DE
:101620000160012038BD00005401002010ED00E0F1
:1016300070B50446006900250126416821F00101CA
:1016400041602946204615F0FBFC0020FF2206E001
:1016500004EB80018B699A60496D8A60401C617857
:101660008142F5D821694FF0FF3088612846216911
:1016700066F30F0066F31F40C861216945F00B0057
:1016800048612169C1F88400216945F00B000861B7
:10169000216948642069016821F4FE6101602046E7
:1016A00015F04CFBE1684FF4805048610348006836
:1016B000016920468847012070BD000054010020C8
:1016C00070B5044615F02AFD0120002384F81201AC
:1016D00084F814311A46402510E002EB820104EB35
:1016E000C10181F81D0181F81C21A1F8222181F896
:1016F0001F31C1E94953521CC1F830316178914220
:10170000EBD8002010E000EB800104EBC10181F870
:10171000753381F87403A1F87A0381F87733C1E94E
:10172000DF53401CC1F8883361788142EBD82046F2
:1017300015F082FA204615F065F90021204615F0D3
:101740004DFD204615F09EF92046BDE8704015F08D
:1017500051BC2DE9F0470E4601EB860100EBC104B8
:101760008146D4E94C01401AD4F8241104F58E7452
:10177000814200D20846C01C870809EB860812E0A7
:10178000451AA068A84200D20546E81C8708ABB2FB
:10179000F2B24846E16815F036FDE0682844E060A2
:1017A000A0692844A061D8F81800806980B2B842C6
:1017B00005D9D4E90501814201D20028E0D10120F8
:1017C000BDE8F0872DE9F04115460C468046154EE0
:1017D0004FF4207719E0802A0BD21348B0612146DC
:1017E00040460AF081FBB0696D1C8088204484B2B9
:1017F0000BE00E48B0612A46214640460AF08AFBBB
:10180000B069AD1C8088204484B2BC4208D22A78DA
:10181000002A05D0B0698088011989B28142DAD2E4
:10182000BDE8F0815C00002098000020C800002086
:101830002DE9F04115460C468046154E4FF42077B1
:1018400019E0802A0BD21348B061214640460AF0C5
:101850004BFBB0696D1C8088204484B20BE00E48BD
:10186000B0612A462146404600F018F8B069AD1C28
:101870008088204484B2BC4208D22A78002A05D04D
:10188000B0698088011989B28142DAD2BDE8F0815D
:101890005C00002088000020D80000202DE9F041E5
:1018A00016460F46804600240D4D0FE032788A42DE
:1018B0000AD105EB400271785078814204D1394653
:1018C0004046921C0AF0F2FB641CA4B2C4EBC400B4
:1018D00000EB400015F810108029E7D8BDE8F08132
:1018E000B33A02082DE9F04115460C468046154EE4
:1018F0004FF4207719E0802A0BD21348B0612146BB
:1019000040460AF0F1FAB0696D1C8088204484B228
:101910000BE00E48B0612A462146404600F018F818
:10192000B069AD1C8088204484B2BC4208D22A78B9
:10193000002A05D0B0698088011989B28142DAD2C3
:10194000BDE8F0815C000020B0000020D000002045
:101950002DE9F04116460F46804600240C4D0EE05E
:1019600032788A4209D1421971785078814204D183
:1019700039464046921C0AF099FB641CA4B204EB61
:101980008400C0EB8410295C8029E9D8BDE8F0818F
:10199000302602082DE9F04115460C468046154ECA
:1019A0004FF4207719E0802A0BD21348B06121460A
:1019B00040460AF099FAB0696D1C8088204484B2D0
:1019C0000BE00E48B0612A4621464046FFF7C0FFB3
:1019D000B069AD1C8088204484B2BC4208D22A7809
:1019E000002A05D0B0698088011989B28142DAD213
:1019F000BDE8F0815C000020B8000020D00000208D
:101A00002DE9F041204E15460C4680466BB3012B64
:101A100038D1882108460AF061FE282390224146E9
:101A200020460AF07FFBBDE8F04188216FF07F403F
:101A30000AF054BE802A0BD21448B06121464046B9
:101A40000AF052FAB0696D1C8088204484B20EE01E
:101A50000F48B0612A46214640460AF05BFAB06959
:101A6000AD1C8088204484B201E04FF42077BC4252
:101A700008D22A78002A05D0B0698088011989B275
:101A80008142D7D2BDE8F0815C000020A000002098
:101A9000C80000202DE9F041204E15460C46804636
:101AA0006BB3012B38D1882108460AF017FE1C239E
:101AB0006022414620460AF035FBBDE8F04188210E
:101AC0006FF07F400AF00ABE802A0BD21448B06142
:101AD000214640460AF008FAB0696D1C808820440F
:101AE00084B20EE00F48B0612A46214640460AF013
:101AF00011FAB069AD1C8088204484B201E04FF433
:101B00002077BC4208D22A78002A05D0B0698088A4
:101B1000011989B28142D7D2BDE8F0815C00002072
:101B2000A8000020C80000202DE9F041204E1546F5
:101B30000C4680466BB3012B38D1882108460AF049
:101B4000CDFD14233222414620460AF0EBFABDE8CF
:101B5000F04188216FF07F400AF0C0BD802A0BD28F
:101B60001448B061214640460AF0BEF9B0696D1CC8
:101B70008088204484B20EE00F48B0612A46214696
:101B800040460AF0C7F9B069AD1C8088204484B291
:101B900001E04FF42077BC4208D22A78002A05D011
:101BA000B0698088011989B28142D7D2BDE8F0813D
:101BB0005C00002090000020C800002010B501212A
:101BC000CC0520460CF01EF92046BDE8104000214F
:101BD0000CF018B9034A0146002052680A4200D0AE
:101BE0000120704700B0024030B52A4B002419682C
:101BF000294A114019601968026811431960596B2C
:101C000021F007015963596B4268114359634168D8
:101C100041B301292DD0022930D00329C16832D027
:101C20000A010169446909022403856821431543B7
:101C30000D43996B0D439D638169D963196C6FF3F3
:101C40000D011964196CC26911431964818C5A6CB5
:101C500002F040425A645A6C006A024342EA01426E
:101C60005A6430BDC168047D0A02018A0904240651
:101C7000DBE7C1680A02018A0904D6E7C1684A01A4
:101C80000169C902D1E74A01016944698902E40393
:101C9000CBE7000000B00240FCE0FCFF0248016816
:101CA00041F001010160704700B002400029016865
:101CB00002D041F0010101E021F001010160704713
:101CC00030B50368124ACC6813400A682243D1E950
:101CD00005452C432243CC6922430C6A22434C6ABB
:101CE00022438C6A22434C6B22438C6B22431A435F
:101CF0000260426922F00703D1E90B2422431A4310
:101D000042610A6942604A6882608968C16030BD88
:101D10003F801CF00548007A052803D0062801D032
:101D2000082802D102A016F071BE7047E40000201E
:101D30002E0000002DE9F04FF74CF84D2146207A97
:101D400091F809C09FB0092860D2DFE810F00900BF
:101D500042125F005F00360B200D27135F00A910B1
:101D6000ED484FF4CD764FF48177817AEB484FF40C
:101D7000BF794FF4FD7A90F82D2090F827301E930C
:101D8000C37F1D93C37D1C93C37B1B9390F82630A8
:101D90001A93837F1993837D1893837B179390F80D
:101DA00025301693437F1593437D1493437B139300
:101DB00090F824301293037F1193037D1093037BDB
:101DC0000F9390F823300E93C37E0D93C37C0C9336
:101DD000C37A0B9390F822300A93837E0993837C15
:101DE0000893837A079390F821300693437E0593F6
:101DF000437C0493437A039390F820E090F818B062
:101E0000037C007ABCF1290F9ED200E0C0E0DFE83D
:101E10001CF02900C20045011F02A1023003030487
:101E200093041C05C105140651068E06CD060F0746
:101E300051079307D60700082E0858088408B208EF
:101E4000E0080E093C0954096C0984099D09B70989
:101E5000D109EB09030A1C0A350A4E0A680A830AEB
:101E60009E0AB90AAE480AF04FFC88200AF030FCFE
:101E700095F82900022810D0012810D0032810D08E
:101E8000042810D0052810D0062810D0072810D01C
:101E9000082810D0092810D014E0A2A20EE0A3A2B6
:101EA0000CE0A4A20AE0A5A208E0A6A206E0A7A270
:101EB00004E0A8A202E0A9A200E0AAA264212F20C7
:101EC0000AF04CF895F82D0038B1012838D00228D6
:101ED0005ED1A07A00284AD051E0A07A40B1012812
:101EE0000BD002280ED0032811D0042814D01CE0F7
:101EF000287816F021FD9DA213E0287A16F01CFD2B
:101F00009BA20EE0287C16F017FD9AA209E0287E1D
:101F100016F012FD98A204E095F8200016F00CFDD2
:101F200096A20A2164200AF04FF895F8300028B1F3
:101F300093A002F083FC012001F03DBA93A0F8E7E2
:101F4000A07A10B1012805D019E0287816F0F4FC29
:101F500086A203E0287E16F0EFFC87A20A21642007
:101F6000FFF730FC0BE089A010E085A00EE0287898
:101F700016F0E2FC7DA20A216420FFF759FC012043
:101F8000607295F830000028EFD1ECE702F056FCC3
:101F90001FB0BDE8F08F614F02263F7832B1012AB1
:101FA0004FD0022AF4D100296AD06CE241B1012954
:101FB0000BD002290DD0032910D0042913D0F4E747
:101FC000384616F081FC69A211E016F07DFC68A28B
:101FD0000DE0184616F078FC66A208E0584616F0A8
:101FE00073FC65A203E0704616F06EFC63A20A2142
:101FF000642009F0E9FFA07A40B101280BD0022843
:102000000ED0032811D0042814D0CEE7687816F03B
:1020100093FC61A213E0687A16F08EFC5FA20EE0DA
:10202000687C16F089FC5EA209E0687E16F084FCEC
:102030005CA204E095F8210016F07EFC5AA20A2169
:1020400078E211B101290DD0AFE7384616F03CFC1B
:1020500046A20A216420FFF7B5FB687816F06CFCF5
:102060004DA20BE0584616F02FFC43A20A21642033
:10207000FFF7A8FB687E16F05FFC4AA20A21F7E38F
:10208000384616F021FC39A20A216420FFF7D0FB64
:10209000687816F051FC40A20A21EAE31F480326A3
:1020A000407832B1012A36D0022A7FF471AF81B371
:1020B0007BE741B101290AD002290DD0032910D0B4
:1020C000042913D071E716F0FFFB33A212E0039846
:1020D00016F0FAFB31A20DE0049816F0F5FB30A2E1
:1020E00008E0059816F0F0FB2EA203E0069816F023
:1020F000EBFB2DA20A21AA2009F066FFA07A48B1C5
:10210000012858D002285BD003285ED0042861D073
:102110004BE78CE04AE067E0E4000020E0020020AA
:1021200000FFFF0054432D4B0000000054432D548A
:102130000000000054432D4A0000000054432D4E7F
:102140000000000054432D450000000054432D536F
:102150000000000054432D520000000054432D4263
:1021600000000000505431303000000030303100A9
:102170003030390030313700303235003033330001
:102180004368616E6E656C2073657400CDA8B5C040
:10219000C9E8D6C3000000003030320030313000D2
:1021A000303138003032360030333400A87816F041
:1021B000C3FBF8A213E0A87A16F0BEFBF6A20EE06D
:1021C000A87C16F0B9FBF5A209E0A87E16F0B4FBD6
:1021D000F3A204E095F8220016F0AEFBF1A20A216A
:1021E00077E209F0F1FEE0E611B101290DD0DCE65D
:1021F00016F06AFBAFF260020A218C20FFF7E2FAC8
:10220000A87816F099FBE3A20CE0059816F05CFBA9
:10221000AFF270020A218C20FFF7D4FAA87E16F0E4
:102220008BFBDFA20A21F0E3FFF7CCFABDE616F044
:102230004BFBAFF29C020A218C20FFF7F9FAA87839
:1022400016F07AFBD3A20A21F6E3FFF7F1FAACE627
:10225000D5480426807832B1012A50D0022A7FF472
:1022600097AE81B3A1E641B101290AD002290DD070
:10227000032910D0042913D097E616F025FBC5A238
:1022800012E0079816F020FBC3A20DE0089816F0A4
:102290001BFBC2A208E0099816F016FBC0A203E0DF
:1022A0000A9816F011FBBFA20A21F02009F08CFE5B
:1022B000A07A48B101280CD002280FD0032812D0F0
:1022C000042815D071E638E0E87816F035FBB7A29F
:1022D00013E0E87A16F030FBB5A20EE0E87C16F0C9
:1022E0002BFBB4A209E0E87E16F026FBB2A204E0C4
:1022F00095F8230016F020FBB0A20A2174E211B178
:1023000001290CD051E616F0DFFAA2A20A21B4206E
:10231000FFF758FAE87816F00FFBA4A20BE0099833
:1023200016F0D2FA9EA20A21B420FFF74BFAE87EFB
:1023300016F002FBA0A20A21E6E316F0C5FA95A268
:102340000A21B420FFF774FAE87816F0F5FA97A29C
:102350000A21EAE39448C07832B1012A55D0022A12
:102360007FF416AEF1B371E041B101290AD0022920
:102370000DD0032910D0042913D01BE016F0A4FAC5
:102380008AA212E00B9816F09FFA89A20DE00C9831
:1023900016F09AFA87A208E00D9816F095FA86A230
:1023A00003E00E9816F090FA84A20A214FF49B7075
:1023B00009F00AFE00200AF0A7F981480AF088F91E
:1023C00095F82900022872D0012871D0032870D016
:1023D00004286FD005286ED006286DD007286CD051
:1023E000082800E034E069D0092868D003E06421BF
:1023F0002F2009F0B3FD95F8300008B171A000E07E
:1024000077A002F01BFA002096E511B101290CD04B
:102410001CE016F059FA65A20A21DC20FFF7D2F978
:10242000287916F089FA72A20BE00D9816F04CFA92
:1024300061A20A21DC20FFF7C5F9287F16F07CFA9B
:102440006CA20A214FF48270FFF7BCF9052073E5F6
:1024500016F03AFA55A20A21DC20FFF7E9F92879AB
:1024600016F06AFA62A20A214FF48270FFF7E0F9CF
:10247000ECE74D480626007932B1012A5CD0022AE9
:102480007FF486ADD1B38BE241B101290AD0022994
:1024900016D0032919D004291CD081E216F014FAB1
:1024A00053A21BE00F9816F00FFA53A216E056E263
:1024B00058E25AE25CE25EE260E262E264E266E214
:1024C000109816F001FA4DA208E0119816F0FCF9E8
:1024D00048A203E0129816F0F7F949A24FF4A5714B
:1024E000642009F071FDA07A48B101280CD00228BF
:1024F0000FD0032812D0042815D051E23CE06879AF
:1025000016F01AFA3FA213E0687B16F015FA3EA205
:102510000EE0687D16F010FA3CA209E0687F16F024
:102520000BFA3BA204E095F8250016F005FA39A253
:102530004FF4A571AA2054E611B101290DD02FE264
:1025400016F0C2F92AA20A214FF48270FFF73AF975
:10255000687916F0F1F92BA20CE0119816F0B4F995
:1025600024A20A214FF48270FFF72CF9687F16F03D
:10257000E3F927A20A2145E316F0A6F91CA20A21D5
:102580004FF48270FFF754F9687916F0D5F91DA25F
:102590000A214AE330303300303131003031390024
:1025A0003032370030333500E00200203030340064
:1025B00030313200303230003032380030333600C3
:1025C00000FFFF00546865726D6F636F75706C6516
:1025D000206D6F64656C2073656C6563740000002A
:1025E000C8C8B5E7C5BCD0CDBAC5D1A1D4F10000EB
:1025F0003030350030323900303133003032310084
:102600003033370030303600303134003032320071
:102610003033300030333800FC480726407932B17F
:10262000012A58D0022A7FF4B3ACB1B38EE341B192
:1026300001290BD002290FD0032913D0042917D068
:1026400084E316F041F9AFF2440216E0139816F055
:102650003BF9AFF24C0210E0149816F035F9AFF2E6
:1026600054020AE0159816F02FF9AFF25C0204E06C
:10267000169816F029F9AFF264024FF4A571AA205A
:1026800009F0A2FCA07A48B101280CD002280FD092
:10269000032812D0042815D058E33EE0A87916F09C
:1026A0004BF9DBA213E0A87B16F046F9D9A20EE0A5
:1026B000A87D16F041F9D8A209E0A87F16F03CF9F0
:1026C000D6A204E095F8260016F036F9D4A24FF40D
:1026D000A571F02085E511B101290ED036E316F081
:1026E000F3F8AFF2E0020A214FF49670FFF76AF8B0
:1026F000A87916F021F9C6A20DE0159816F0E4F8B5
:10270000AFF2F4020A214FF49670FFF75BF8A87F4E
:1027100016F012F9C1A20A21B6E216F0D5F8AFF20E
:102720001C120A214FF49670FFF782F8A87916F070
:1027300003F9B7A20A21BAE2B4480826807932B177
:10274000012A54D0022A7FF423AC89B3FEE241B1BE
:1027500001290AD002290DD0032910D0042913D051
:10276000F4E216F0B1F8AAA212E0179816F0ACF84D
:10277000A8A20DE0189816F0A7F8A7A208E01998EB
:1027800016F0A2F8A5A203E01A9816F09DF8A4A2EC
:102790004FF4A571F02009F017FCA07A48B1012888
:1027A0000CD002280FD0032812D0042815D0CDE277
:1027B0003DE0E87916F0C0F89AA213E0E87B16F045
:1027C000BBF899A20EE0E87D16F0B6F897A209E0F2
:1027D000E87F16F0B1F896A204E095F8270016F00D
:1027E000ABF894A24FF4A5714FF49B70F9E411B1CA
:1027F00001290DD0AAE216F067F885A20A214FF44C
:10280000AA70FEF7DFFFE87916F096F885A20CE0D3
:10281000199816F059F881A20A214FF4AA70FEF710
:10282000D1FFE87F16F088F881A20A216EE216F047
:102830004BF877A20A214FF4AA70FEF7F9FFE87966
:1028400016F07AF877A20A2173E27048C0798AB14B
:10285000012A64D0022A7FF49BAB0029FBD116F039
:1028600033F870A20A214FF4BE70FEF7E1FFA1E534
:10287000B9E0C8E041B301292AD002292DD00329AB
:1028800030D004297FF46FAD1E9816F01DF869A2B0
:102890004FF4A5714FF49B7009F096FBA07A30B30A
:1028A00001282AD002282ED0032832D00428E9D1CA
:1028B00095F8240016F040F8AFF2BC224FF4A57151
:1028C000642009F081FBC1E515F0FEFF55A2DFE7AA
:1028D0001B9815F0F9FF54A2DAE71C9815F0F4FFE5
:1028E00052A2D5E71D9815F0EFFF51A2D0E7287945
:1028F00016F022F8AFF20832E0E7287B16F01CF859
:10290000AFF20C32DAE7287D16F016F8AFF2143287
:10291000D4E7287F16F010F8AFF22832CEE7A9B13D
:10292000012998D11D9815F0CFFF41A20A214FF43B
:10293000BE70FEF747FF287E15F0FEFFAFF2C872AB
:102940000A216420FEF73EFFFFF7F5BA15F0BCFF41
:1029500034A20A214FF4BE70FEF734FF2AE5AFF629
:102960003C0244E5AFF63C0241E5AFF638023EE5F5
:10297000AFF638023BE5AFF6340238E5AFF6340285
:1029800035E5AFF6300232E5AFF630022FE5AFF6AF
:102990002C022CE50A26012A03D0022AC1D121B338
:1029A000D4E111B101290ED0D0E115F08DFFAFF6C1
:1029B0004002D2216420FEF705FF687A15F0BCFFC3
:1029C000AFF628020EE0704615F07EFFAFF6540217
:1029D000D2216420FEF7F6FE95F8210015F0ACFF39
:1029E000AFF63C02D2218C201EE415F06DFFAFF64D
:1029F000800286216420FEF71BFF687A15F09CFF99
:102A0000AFF6680286218C201FE440E0E00200203F
:102A10003030370030313500303233003033310060
:102A20003033390030303800303136003032340045
:102A300030333200303430003AE00B26012A03D024
:102A4000022AABD129B381E111B101290FD07DE177
:102A5000039815F039FFAFF6BC02D2218C20FEF7A7
:102A6000B1FEA87A15F068FFAFF2D4420EE00698E6
:102A700015F02AFFAFF6D002D2218C20FEF7A2FE7D
:102A800095F8220015F058FFAFF2E842D221B420A9
:102A9000AAE7039815F018FFAFF6001286218C20E4
:102AA000FEF7C6FEA87A15F047FFAFF21452862152
:102AB000B420A9E70C26012A03D0022AC1D129B3E8
:102AC00044E111B101290FD040E1079815F0FCFE57
:102AD000AFF23C52D221B420FEF774FEE87A15F032
:102AE0002BFFAFF234520EE00A9815F0EDFEAFF274
:102AF0004C52D221B420FEF765FE95F8220015F065
:102B00001BFFAFF24852D221DC206DE7079815F089
:102B1000DBFEAFF27C528621B420FEF789FEE87A14
:102B200015F00AFFAFF278528621DC206CE70D2603
:102B3000012A03D0022A84D131B307E111B101295E
:102B40000FD003E10B9815F0BFFEAFF29C52D221DB
:102B5000DC20FEF737FE287B15F0EEFEAFF2685260
:102B60000EE00E9815F0B0FEAFF2B052D221DC208C
:102B7000FEF728FE95F8240015F0DEFEAFF2805235
:102B8000D2214FF482702FE70B9815F09DFEAFF223
:102B9000E0528621DC20FEF74BFE287B15F0CCFEB0
:102BA000AFF2AC5286214FF482702DE70E26012A37
:102BB00003D0022ABFD141B3C8E011B1012910D01E
:102BC000C4E00F9815F080FEAFF2D452D2214FF43A
:102BD0008270FEF7F7FD687B15F0AEFEAFF2D852BB
:102BE0000FE0129815F070FEAFF2EC52D2214FF4C4
:102BF0008270FEF7E7FD95F8250015F09DFEAFF217
:102C0000EC52D2214FF49670EEE60F9815F05CFE70
:102C1000AFF21C6286214FF48270FEF709FE687BDA
:102C200015F08AFEAFF2206286214FF49670EBE633
:102C30000F26012A03D0022ABCD141B386E011B18C
:102C4000012910D082E0139815F03EFEAFF24862E1
:102C5000D2214FF49670FEF7B5FDA87B15F06CFEFF
:102C6000AFF250220FE0169815F02EFEAFF25C6224
:102C7000D2214FF49670FEF7A5FD95F8260015F0C9
:102C80005BFEAFF26422D2214FF4AA70ACE6139837
:102C900015F01AFEAFF2906286214FF49670FEF79F
:102CA000C7FDA87B15F048FEAFF2982286214FF4AD
:102CB000AA70A9E61026012A03D0022ABCD141B38A
:102CC00044E011B1012910D040E0179815F0FCFD47
:102CD000AFF2C022D2214FF4AA70FEF773FDA87B99
:102CE00015F02AFEAFF2C0220FE01A9815F0ECFDA5
:102CF000AFF2D422D2214FF4AA70FEF763FD95F80B
:102D0000270015F019FEAFF2D422D2214FF4BE7085
:102D10006AE6179815F0D8FDAFF2083286214FF415
:102D2000AA70FEF785FDE87B15F006FEAFF20832CB
:102D300086214FF4BE7067E60926012A03D0022AD5
:102D4000BCD151B302E029B1012913D066721FB082
:102D5000BDE8F08F1B9815F0B7FDAFF23432D221E9
:102D60004FF4BE70FEF72EFD287A15F0E5FDAFF6A4
:102D700000420FE01E9815F0A7FDAFF24832D221B5
:102D80004FF4BE70FEF71EFD95F8200015F0D4FD3F
:102D9000AFF61842D221642026E61B9815F094FD68
:102DA000AFF27C3286214FF4BE70FEF741FD287AE7
:102DB00015F0C2FDAFF648428621642024E64FF0AC
:102DC0001208012A03D0022AC1D189B136E118467E
:102DD00015F07AFDAFF6644231466420FEF7F2FC4E
:102DE000687C15F0A9FDAFF6484231468C2028E0FA
:102DF000184615F069FDAFF6844239466420FEF7A7
:102E000017FD687C15F098FDAFF66C4239468C20B2
:102E10002AE04FF01308012A03D0022A97D199B172
:102E20000CE1049815F050FDAFF68C4231468C2031
:102E3000FEF7C8FCA87C15F07FFDAFF6A002314676
:102E4000B420FEF7BFFCF9E0049815F03DFDAFF6A5
:102E5000B04239468C20FEF7EBFCA87C15F06CFDE7
:102E6000AFF6C8023946B420FEF7E2FCE6E04FF0C8
:102E70001408012A03D0022AA6D189B1DEE00898FD
:102E800015F022FDAFF6EC023146B420FEF79AFCB5
:102E9000E87C15F051FDAFF6E4023146DC20D0E7C6
:102EA000089815F011FDAFF60C123946B420FEF764
:102EB000BFFCE87C15F040FDAFF608123946DC2077
:102EC000D2E74FF01508012A03D0022AA6D191B10A
:102ED000B4E00C9815F0F8FCAFF628123146DC206F
:102EE000FEF770FC287D15F027FDAFF6F0023146A5
:102EF0004FF48270A5E70C9815F0E6FCAFF64C1283
:102F00003946DC20FEF794FC287D15F015FDAFF660
:102F1000141239464FF48270A6E74FF01608012AC2
:102F200003D0022AA8D199B188E0109815F0CCFC02
:102F3000AFF6381231464FF48270FEF743FC687DDD
:102F400015F0FAFCAFF63C1231464FF4967078E774
:102F5000109815F0B9FCAFF65C1239464FF4827048
:102F6000FEF766FC687D15F0E7FCAFF660123946A7
:102F70004FF4967078E74FF01708012A03D0022A21
:102F8000A4D199B15AE0149815F09EFCAFF68412C2
:102F900031464FF49670FEF715FCA87D15F0CCFC79
:102FA000AFF28C5231464FF4AA704AE7149815F0EC
:102FB0008BFCAFF6A81239464FF49670FEF738FC3A
:102FC000A87D15F0B9FCAFF2B05239464FF4AA70A3
:102FD0004AE74FF01808012A03D0022AA2D199B17A
:102FE0002CE0189815F070FCAFF2D45231464FF433
:102FF000AA70FEF7E7FBE87D15F09EFCAFF2D45215
:1030000031464FF4BE701CE7189815F05DFCAFF226
:10301000F85239464FF4AA70FEF70AFCE87D15F025
:103020008BFCAFF2F85239464FF4BE701CE74FF0FC
:103030001108012A05D0022AA2D1A1B184F8098081
:1030400085E61C9815F040FCAFF2206231464FF443
:10305000BE70FEF7B7FB287C15F06EFCAFF6EC6295
:1030600031466420EDE61C9815F02EFCAFF2446268
:1030700039464FF4BE70FEF7DBFB287C15F05CFC94
:10308000AFF6107239466420EEE6022AD8D191B923
:10309000584615F019FCAFF620724E46494664209A
:1030A000FEF7C6FB687E15F047FCAFF608723146A6
:1030B0008C20FEF7BDFB1A207DE1022AC0D191B918
:1030C000059815F001FCAFF624724E4649468C2057
:1030D000FEF7AEFBA87E15F02FFCAFF63C32314672
:1030E000B420FEF7A5FB1B2065E1022AA8D191B907
:1030F000099815F0E9FBAFF658324E464946B42020
:10310000FEF796FBE87E15F017FCAFF65432314619
:10311000DC20FEF78DFB1C204DE1022A90D199B9ED
:103120000D9815F0D1FBAFF670324E464946DC20C3
:10313000FEF77EFB287F15F0FFFBAFF648323146E5
:103140004FF48270FEF774FB1D2034E1022A9DD1FA
:10315000A1B9119815F0B8FBAFF668324E46494652
:103160004FF48270FEF764FB687F15F0E5FBAFF665
:10317000603231464FF49670FEF75AFB1E201AE17A
:10318000022A9BD1A1B9159815F09EFBAFF68032AB
:103190004E4649464FF49670FEF74AFBA87F15F05D
:1031A000CBFBAFF2887231464FF4AA70FEF740FBBA
:1031B0001F2000E1022A99D1A1B9199815F084FBCA
:1031C000AFF2A8724E4649464FF4AA70FEF730FBA4
:1031D000E87F15F0B1FBAFF2A87231464FF4BE7034
:1031E000FEF726FB2020E6E0022A97D191B91D9830
:1031F00015F06AFBAFF2C8724E4649464FF4BE70F6
:10320000FEF716FB287E15F097FBF84A314664203E
:10321000FEF70EFB1920CEE0022A98D199B970462C
:1032200015F052FBF14A5646121D51466420FEF736
:10323000FFFA95F8210015F07FFBEC4A3146303259
:103240008C20FEF7F5FA2220B5E0022A99D199B92F
:10325000069815F039FBE54A5646303251468C2027
:10326000FEF7E6FA95F8220015F066FBAFF6CC42C1
:103270003146B420FEF7DCFA23209CE0022A9AD1E2
:1032800099B90A9815F020FBAFF6E8425646514628
:10329000B420FEF7CDFA95F8230015F04DFBAFF6FC
:1032A000E4423146DC20FEF7C3FA242083E0022A00
:1032B0009BD1A1B90E9815F007FBAFF60052564608
:1032C0005146DC20FEF7B4FA95F8240015F034FBE3
:1032D000AFF6D44231464FF48270FEF7A9FA2520AA
:1032E00069E0022A99D1A9B9129815F0EDFAAFF662
:1032F000F042564651464FF48270FEF799FA95F81F
:10330000250015F019FBAFF6F44231464FF49670E4
:10331000FEF78EFA26204EE0022A97D1A9B9169818
:1033200015F0D2FAAFF61452564651464FF4967045
:10333000FEF77EFA95F8260015F0FEFAAFF6201299
:1033400031464FF4AA70FEF773FA272033E0022AC1
:1033500095D1A9B91A9815F0B7FAAFF63C125646AE
:1033600051464FF4AA70FEF763FA95F8270015F05E
:10337000E3FAAFF6401231464FF4BE70FEF758FA4A
:10338000282018E0022A93D1A1B91E9815F09CFAC2
:10339000AFF66012564651464FF4BE70FEF748FA3B
:1033A00095F8200015F0C8FA904A3146121D6420A5
:1033B000FEF73EFA21206072C9E4ACF12C0C40F219
:1033C0003D164FF4FA77BCF1090FF5D2DFE80CF0A7
:1033D000063A850505EEED05DC00B8E415F096FA31
:1033E00095F82C00002895F830001BD0F8B180A289
:1033F0009621322008F0B2FD15F0AEFA95F82A00B9
:10340000002895F8300014D0C0B179A296215A2036
:1034100008F0A4FD95F8300090B176A001F00EFA06
:103420002D20C8E708B177A2E2E777A2E0E778A20B
:10343000DEE708B173A2E9E773A2E7E774A2E5E764
:1034400075A0EBE715F062FA95F82A00002895F8C8
:10345000300026D050B366A296215A2008F07EFD97
:103460007048014609F03AF91F2318227F2196205F
:1034700008F058FE95F82B00052819D004284FF0C5
:1034800000001FD009F040F967A29B217F2008F0BF
:1034900065FD95F83000F0B164A001F0CFF92E2061
:1034A00089E708B157A2D7E757A2D5E758A2D3E7D3
:1034B000002009F029F963A296217F20FEF7B8F9D0
:1034C00061A2E2E709F020F95EA296217F20FEF7D3
:1034D000AFF94BA2D9E75DA0DFE78821084609F0E4
:1034E000FDF81F2318227F21962008F01BFE95F877
:1034F0002B00052813D004284A481AD009F004F9F3
:1035000049A29B217F2008F029FD15F025FA95F8A6
:103510002D00B8B101281CD0022821D028E0414854
:1035200009F0F2F847A296217F20FEF781F946A222
:10353000E7E709F0E9F843A296217F20FEF778F942
:103540002FA2DEE795F8300008B144A20CE044A2B7
:103550000AE095F8300008B142A205E042A203E07B
:1035600095F8300060B141A29621AA2008F0F6FC3F
:1035700095F8300030B13EA001F060F934201AE730
:103580003EA2F1E73EA0F7E715F0C0F995F82D004F
:1035900020B101280BD0022810D017E095F8300098
:1035A00008B12EA20EE02EA20CE0C4E07CE095F85B
:1035B000300008B12BA205E02BA203E095F8300003
:1035C00088B12AA29621AA2008F0C8FC15F0C4F9F7
:1035D0002FA29621304608F0C1FC3020607295F889
:1035E000300008B158E05AE05CE0000078210008A3
:1035F0004F4E000042757A7A6572204F4E2F4F462B
:10360000460000004F464600B9D8B1D50000000082
:10361000B4F2BFAA00000000B7E4C3F9C6F7C9E8D6
:10362000D6C3000000FFFF004B00000053656C652F
:1036300063742074656D7065726174757265207550
:103640006E6974006F00000043000000CEC2B6C86F
:10365000B5A5CEBBD1A1D4F1000000004C00000004
:10366000B4F300004D000000D6D00000530000006D
:10367000466F6E742053657400000000D0A10000F6
:10368000CDA8B5C0D7D6CCE5C9E8D6C300000000A8
:103690004155544F00000000F6A0FEF777BCAFF292
:1036A00024028FE7F9A0F8E715F030F995F82E001D
:1036B00020B1012809D002280ED015E095F830007D
:1036C00008B1F6A20CE0F7A20AE095F8300008B1C4
:1036D000F6A205E0F6A203E095F8300090B1F6A25C
:1036E0003946322008F03AFC15F036F995F82F00EB
:1036F00050B101280AD002280AD003280AD0042891
:103700000AD00EE0EEA2EBE7EFA206E0F0A204E0A2
:10371000F1A202E0F2A200E0F3A23946572008F03D
:103720001DFC95F8300020B1F1A001F087F832209F
:1037300041E6F4A0F9E715F0E9F895F82F0040B15B
:10374000012808D0022808D0032808D0042808D06F
:103750000CE0DDA206E0DEA204E0DFA202E0E0A2CF
:1037600000E0E1A23946572008F0F8FB15F0F4F824
:10377000E7A23946304608F0F1FB95F8300020B159
:10378000E4A001F05BF8332015E6E6A0F9E7E94D87
:10379000E94EEA4895ED212AD6ED214A407B96ED87
:1037A000194AD6ED113A96ED093AD6ED012AD5ED32
:1037B000191A95ED111AD5ED090A95ED010AACF12A
:1037C000380CBCF10F0FBFF43BACDFE80CF0093D47
:1037D00071A7DDEFEE08EDECEBEAE9E8E7002FE496
:1037E00040B101280CD0022812D0032818D0042898
:1037F0001ED027E0022015F081FC95ED000A1EE0A6
:10380000B0EE600A022015F079FC95ED080A16E08A
:10381000B0EE410A022015F071FC95ED100A0EE0A1
:10382000B0EE610A022015F069FC95ED180A06E079
:10383000B0EE420A022015F061FC95ED200A01204D
:1038400015F0CEFB3920B6E540B101280CD0022896
:1038500012D0032818D004281ED027E0022015F02B
:10386000BFFB95ED020A1EE0B0EE600A022015F0E3
:10387000B7FB95ED0A0A16E0B0EE410A022015F0FA
:10388000AFFB95ED120A0EE0B0EE610A022015F0D2
:10389000A7FB95ED1A0A06E0B0EE420A022015F0E9
:1038A0009FFB95ED220A032015F028FC3A2082E5C3
:1038B00040B101280ED0022814D003281AD00428C1
:1038C00020D029E095ED020A032015F089FB95ED43
:1038D000030A1EE095ED0A0A032015F081FB95ED21
:1038E0000B0A16E095ED120A032015F079FB95ED11
:1038F000130A0EE095ED1A0A032015F071FB95ED01
:103900001B0A06E095ED220A032015F069FB95EDF0
:10391000230A042015F0F2FB3B204CE540B10128BE
:103920000ED0022814D003281AD0042820D029E071
:1039300095ED030A042015F053FB95ED040A1EE0F3
:1039400095ED0B0A042015F04BFB95ED0C0A16E0E3
:1039500095ED130A042015F043FB95ED140A0EE0D3
:1039600095ED1B0A042015F03BFB95ED1C0A06E0C3
:1039700095ED230A042015F033FB95ED240A05206C
:1039800015F0BCFB3C2016E588B1012817D00228B1
:103990001DD0032823D0042829D032E04AE213E2C4
:1039A000DCE1A5E16EE137E100E1C9E02BE095ED56
:1039B000040A052015F014FB95ED050A1EE095EDAF
:1039C0000C0A052015F00CFB95ED0D0A16E095ED9F
:1039D000140A052015F004FB95ED150A0EE095ED8F
:1039E0001C0A052015F0FCFA95ED1D0A06E095ED80
:1039F000240A052015F0F4FA95ED250A062015F0A5
:103A00007DFB3D20D7E440B101280ED0022814D020
:103A100003281AD0042820D029E095ED050A0620B5
:103A200015F0DEFA95ED060A1EE095ED0D0A06206A
:103A300015F0D6FA95ED0E0A16E095ED150A06205A
:103A400015F0CEFA95ED160A0EE095ED1D0A06204A
:103A500015F0C6FA95ED1E0A06E095ED250A06203A
:103A600015F0BEFA95ED260A072015F047FB3E201B
:103A7000A1E40000496E7075742066696C65206E63
:103A8000616D65207072656669780000CEC4BCFE09
:103A9000C3FBB5C4C7B0D7BA0000000046415354B9
:103AA00000000000BFECCBD9000000004D454400F1
:103AB000D6D0CBD900000000534C4F570000000077
:103AC000C2FDCBD9000000003936303000000000C4
:103AD00031393230300000003338343030000000EB
:103AE00035373630300000003131353230300000AB
:103AF00053656C65637420426175642072617465FE
:103B000000000000B2A8CCD8C2CAC9E8D6C30000E1
:103B1000310000005265636F726420696E746572D3
:103B200076616C00BCC7C2BCBCE4B8F4CAB1BCE4EA
:103B300000000000240B0020840A0020E400002084
:103B400040B101280ED0022814D003281AD004282E
:103B500020D029E095ED060A072015F041FA95EDF1
:103B6000070A1EE095ED0E0A072015F039FA95EDCB
:103B70000F0A16E095ED160A072015F031FA95EDBB
:103B8000170A0EE095ED1E0A072015F029FA95EDAB
:103B90001F0A06E095ED260A072015F021FA95ED9B
:103BA000270A082015F0AAFA3F2004E440B10128B2
:103BB0000ED0022814D003281AD0042820D029E0DF
:103BC000B0EE620A022015F059F996ED000A1EE0E7
:103BD000B0EE430A022015F051F996ED080A16E0FE
:103BE000B0EE630A022015F049F996ED100A0EE0D6
:103BF000B0EE440A022015F041F996ED180A06E0ED
:103C0000B0EE640A022015F039F996ED200A012081
:103C100015F09EF8412004E440B101280ED002289E
:103C200014D003281AD0042820D029E0B0EE620A6C
:103C3000022015F08DF896ED020A1EE0B0EE430A60
:103C4000022015F085F896ED0A0A16E0B0EE630A38
:103C5000022015F07DF896ED120A0EE0B0EE440A4F
:103C6000022015F075F896ED1A0A06E0B0EE640A27
:103C7000022015F06DF896ED220A032015F0FEF8EB
:103C800042200DE440B101280ED0022814D00328B0
:103C90001AD0042820D029E096ED020A032015F05E
:103CA00057F896ED030A1EE096ED0A0A032015F078
:103CB0004FF896ED0B0A16E096ED120A032015F068
:103CC00047F896ED130A0EE096ED1A0A032015F058
:103CD0003FF896ED1B0A06E096ED220A032015F048
:103CE00037F896ED230A042015F0C8F8432046E47F
:103CF00040B101280ED0022814D003281AD004287D
:103D000020D029E096ED030A042015F021F896ED65
:103D1000040A1EE096ED0B0A042015F019F896ED42
:103D20000C0A16E096ED130A042015F011F896ED32
:103D3000140A0EE096ED1B0A042015F009F896ED22
:103D40001C0A06E096ED230A042015F001F896ED12
:103D5000240A052015F092F8442010E440B101280F
:103D60000ED0022814D003281AD0042820D029E02D
:103D700096ED040A052014F0EBFF96ED050A1EE00F
:103D800096ED0C0A052014F0E3FF96ED0D0A16E0FF
:103D900096ED140A052014F0DBFF96ED150A0EE0EF
:103DA00096ED1C0A052014F0D3FF96ED1D0A06E0DF
:103DB00096ED240A052014F0CBFF96ED250A062087
:103DC00015F05CF84520B3E440B101280ED002287C
:103DD00014D003281AD0042820D029E096ED050A33
:103DE000062014F0B5FF96ED060A1EE096ED0D0ACA
:103DF000062014F0ADFF96ED0E0A16E096ED150ABA
:103E0000062014F0A5FF96ED160A0EE096ED1D0AA9
:103E1000062014F09DFF96ED1E0A06E096ED250A99
:103E2000062014F095FF96ED260A072015F026F8D7
:103E300046207DE440B101280ED0022814D003288A
:103E40001AD0042820D029E096ED060A072014F0A5
:103E50007FFF96ED070A1EE096ED0E0A072014F08C
:103E600077FF96ED0F0A16E096ED160A072014F07C
:103E70006FFF96ED170A0EE096ED1E0A072014F06C
:103E800067FF96ED1F0A06E096ED260A072014F05C
:103E90005FFF96ED270A082014F0F0FF472047E463
:103EA000F74EF848ACF1530C96ED212A807BD6ED05
:103EB000191A96ED111AD6ED090A96ED010ABCF110
:103EC000070F6DD2DFE80CF0043872A9DFF2F100C1
:103ED00040B101280CD0022812D0032818D00428A1
:103EE0001ED027E0022014F0C9FF96ED000A1EE064
:103EF000B0EE600A022014F0C1FF96ED080A16E049
:103F0000B0EE410A022014F0B9FF96ED100A0EE05F
:103F1000B0EE610A022014F0B1FF96ED180A06E037
:103F2000B0EE420A022014F0A9FF96ED200A01200B
:103F300014F00EFF542032E040B101280CD00228CA
:103F400012D0032818D004281ED027E0022014F035
:103F5000FFFE96ED020A1EE0B0EE600A022014F0A9
:103F6000F7FE96ED0A0A16E0B0EE410A022014F0C0
:103F7000EFFE96ED120A0EE0B0EE610A022014F098
:103F8000E7FE96ED1A0A06E0B0EE420A022014F0AF
:103F9000DFFE96ED220A032014F070FF55206072B8
:103FA00095F83000C0B3B8A0FDF7F0BF40B10128CC
:103FB0000ED0022814D003281AD0042820D029E0DB
:103FC00096ED020A032014F0C3FE96ED030A1EE0EC
:103FD00096ED0A0A032014F0BBFE96ED0B0A16E0DC
:103FE00096ED120A032014F0B3FE96ED130A0EE0CC
:103FF00096ED1A0A032014F0ABFE96ED1B0A06E0BC
:1040000096ED220A032014F0A3FE96ED230A042065
:1040100014F034FF5620C2E7D9E040B101280ED099
:10402000022814D003281AD0042820D029E096EDC5
:10403000030A042014F08CFE96ED040A1EE096EDAF
:104040000B0A042014F084FE96ED0C0A16E096ED9F
:10405000130A042014F07CFE96ED140A0EE096ED8F
:104060001B0A042014F074FE96ED1C0A06E096ED7F
:10407000230A042014F06CFE96ED240A052014F0A7
:10408000FDFE57208BE740B1012810D0022816D042
:1040900003281CD0042822D02BE096ED040A05202A
:1040A00014F056FE96ED050A20E05AE023E096ED66
:1040B0000C0A052014F04CFE96ED0D0A16E096ED64
:1040C000140A052014F044FE96ED150A0EE096ED54
:1040D0001C0A052014F03CFE96ED1D0A06E096ED44
:1040E000240A052014F034FE96ED250A062014F06B
:1040F000C5FE582053E740B101280ED0022814D045
:1041000003281AD0042820D029E096ED050A0620BD
:1041100014F01EFE96ED060A1EE096ED0D0A06202E
:1041200014F016FE96ED0E0A16E096ED150A06201E
:1041300014F00EFE96ED160A0EE096ED1D0A06200E
:1041400014F006FE96ED1E0A06E096ED250A0620FE
:1041500014F0FEFD96ED260A072014F08FFE59207C
:104160001DE740B101280ED0022814D003281AD030
:10417000042820D029E096ED060A072014F0E8FD77
:1041800096ED070A1EE096ED0E0A072014F0E0FDFA
:1041900096ED0F0A16E096ED160A072014F0D8FDEA
:1041A00096ED170A0EE096ED1E0A072014F0D0FDDA
:1041B00096ED1F0A06E096ED260A072014F0C8FDCA
:1041C00096ED270A082014F059FE5A20E7E633A09E
:1041D000EAE6BCF1350F14D0BCF1360F27D0BCF1A4
:1041E0005B0F7EF4B4AD14F091FB95F8310070B321
:1041F000012877D0022877D0032876D0042875D0FC
:1042000085E014F083FB95F8300048B125A2AA217F
:10421000322007F0A3FE25A000F010FB362027E493
:1042200026A2AA21322007F099FE26A0F4E795F8ED
:10423000310040B1012808D0022809D0032809D054
:10424000042809D00DE00A2207E0192205E050E019
:10425000322202E04B2200E064221DA1684613F0E6
:1042600059FC14F079FB6A46AA21822007F076FEF9
:1042700095F83000B8B317A000F0E0FA5B2094E4A2
:104280002C070120E4000020496E707574205465ED
:104290006D7065726174757265000000D0DED5FDC9
:1042A000D6B50000454E474C495348005945415248
:1042B0002D4D4F4E54482D44415900004348494E1E
:1042C00045534500C4EA2DD4C22DC8D500000000D6
:1042D00025640000536574206272696768746E65B6
:1042E0007373000007E002E007E008E009E03BA08C
:1042F000C2E70A2206E0192204E0322202E04B2241
:1043000000E06422AFF23801684613F003FC6A460D
:10431000AA21822007F022FE14F01EFB95F830003F
:1043200010B1012816D02AE095F8320040B10128DA
:104330002AD002282AD003282AD006282AD02BE007
:10434000AFF63C5214E0AFF27801684613F0E2FB9E
:104350006A460DE095F8320040B1012814D00228D9
:1043600014D0032814D0062814D008E0AFF66C52FD
:10437000AA21AC2007F0F2FD95F8300060B11BA037
:1043800000F05CFA5C2010E40522DCE70A22DAE7A0
:104390000F22D8E71E22D6E719A0F1E71C4DBCF189
:1043A000480F11D0BCF1490F7EF4D1AC95ED010A54
:1043B00019F02EFE95ED020ABDEEC00A10EE100AAD
:1043C00015F04CF84A2026E495ED000A19F0FCFCA3
:1043D00095ED010A19F0A0FE49201CE4B1B3B9E241
:1043E000C1C1B6C8C9E8D6C30000000052656475F3
:1043F0006365206272696768746E6573730000009C
:10440000BDB5B5CDC1C1B6C8CAB1BCE4000000009D
:104410000C07012070470000F0B5012187B0084665
:1044200009F0E4FC0121102009F010FD0125002411
:104430008DF806408DF8075002266802254F8DF84A
:10444000056000908DF804606946384607F03CF836
:10445000A80200908DF804606946384607F034F8E9
:1044600007220A21384607F06BF80722092138464F
:1044700007F066F84FF416500290ADF80C40680350
:10448000ADF80E00ADF81040ADF814400C20124C01
:10449000ADF8120002A9204611F080FB4FF4A06095
:1044A00009F056FC25208DF818008DF819508DF86C
:1044B0001A508DF81B5006A809F018FC012240F292
:1044C0002551204611F052FB0121204611F01EFB20
:1044D00007B0F0BD000002400010014001B5009897
:1044E00001E0401E00900028FBD108BD2DE9F041FD
:1044F00004464248007809281ED0414E414D4FF4F1
:10450000E27730782978884203D16978A1420AD0CD
:1045100058B98821084608F0E1F8172332220A2109
:10452000384607F0FFFD307840B1C0B2802803D193
:1045300000F0A2F880202870BDE8F081A4F13A00D4
:1045400000EE100ADFED300A8821B8EEC00A6FF0E5
:104550007F4080EE201A85ED051A08F0BFF83A4634
:104560001E230A21104607F070FE0A234FF4F67648
:1045700032461946384607F068FE1E233246194671
:10458000384607F062FE32460F230A21104607F034
:104590005CFE0F23771D3A461946304607F055FE5C
:1045A0003A4619230F21104607F04FFE19233A46C9
:1045B0001946304607F049FE32461E23192110469F
:1045C00007F043FE3A2C15D988214FF47F4008F0BC
:1045D00085F895ED050ADFED0D0A11230C2120EE7B
:1045E000200ABDEEC00A10EE100A82B24FF4E3704A
:1045F00007F098FD002028706C709DE7EC0000200B
:104600004C0000205C000020000028420000144202
:1046100010B5134911484FF4E174486000208860D8
:1046200010A22321204607F099FC0FA2A5212046C5
:1046300007F094FC0DA240F22511204607F08EFCF5
:104640000BA24FF4D271204607F088FC2046BDE84B
:10465000104008A24FF4097107F080BC00FFFF0072
:104660005C000020313000003235000035300000A1
:10467000373500003130300070B588216FF07F4051
:1046800008F02CF84FF4F77422460D230A21104647
:1046900007F0DBFD251D2A460D230A21104607F0F1
:1046A000D4FD0F23E21D1946E01E07F0CEFD0723BF
:1046B00009221021A01E07F035FD1723621D19469F
:1046C000901F07F0C2FD18232A461946204607F01E
:1046D000BCFD1923E21C1946901E07F0B6FDA01C74
:1046E000BDE87040202302461A2107F0AEBD00004D
:1046F000F0B51A481A491B4A90F830004FF4E1749B
:1047000040F225154FF4D2764FF40977F8B101281D
:1047100022D10020C2E9011013A22321204607F074
:104720001DFC12A2A521204607F018FC10A2294664
:10473000204607F013FC0FA23146204607F00EFC7E
:1047400039462046BDE8F0400BA207F007BC002028
:10475000C2E9011009A2E0E7F0BD0000E00200207C
:1047600000FFFF005C0000204F46460035000000BF
:10477000313000003135000033300000B9D8B1D5F8
:10478000000000002DE9F0412B4C2146084607F0BF
:10479000A5FF40F25F134FF4F97232211E2007F09B
:1047A00035FD0021084607F099FF4FF4AF7340F242
:1047B000F11233211F2007F0B5FC2146084607F00F
:1047C0008DFF00251F274FF0650805EBC50101EBA4
:1047D0000511002408EB410604EB8400314607EB89
:1047E00040000023052207F0D1FC641CE4B2322C07
:1047F000F2D36D1CEDB2062DE7D3002533274FF021
:10480000510805EBC50000EB0510002408EB40063D
:1048100004EB840007EB400130460123052207F03A
:10482000B5FC641CE4B2232CF2D36D1CEDB2092D4F
:10483000E7D3BDE8F08100008B4E100070B505464F
:104840008821084607F04AFF4FF4D07418234FF42C
:10485000C8722146032007F065FC064B88202A46D3
:1048600098606FF07F4058602046BDE8704003219B
:10487000FDF738B85C00002070B5FF21002007F07C
:104880002DFF28231C014FF4DC7522462946002009
:1048900007F048FCFF21184807F020FF02232246BA
:1048A0002946002007F03EFC2C1D2623012221462C
:1048B0007F2007F037FC262301222146FF2007F046
:1048C00031FC26230122214640F27F1007F02AFC0A
:1048D00026230122214640F2FF1007F023FC07485F
:1048E0000078012803D0BDE8704000F0A1B8BDE811
:1048F000704000F0F9B800008B4E1000240000203A
:1049000070B544489AB0817900914379027942A107
:1049100001A813F0FFF845484FF4C97501886FF0FE
:104920007F40F9B14FF4D276322923D064292DD0BB
:10493000962933D0C82939D0FA293FD04FF496743C
:10494000A14206D04FF4AF74A14243D0AC1EA142A5
:104950003CD107F0D9FE882007F0BAFE01AA214613
:1049600028460FE007F0D0FE882007F0B1FE01AA2C
:104970000021F5E707F0C8FE882007F0A9FE01AA8C
:1049800032212EE0FCF754FF1AB070BD07F0BCFED8
:10499000882007F09DFE01AA6421E1E707F0B4FE3C
:1049A000882007F095FE01AA96211AE007F0ACFED8
:1049B000882007F08DFE01AAC821D1E707F0A4FEE8
:1049C000882007F085FE01AAFA210AE04FF4E1747D
:1049D000A14208D107F098FE882007F079FE01AACD
:1049E00021463046CEE7A1F58070EF38CCD109489A
:1049F000001F0168491C01608821084607F06EFE0F
:104A000022234FF416722946002007F08BFBFFF794
:104A1000B9FEB9E71001002025302E32643A253066
:104A20002E32643A25302E3264000000440000200B
:104A300070B58821084607F051FE4FF4D87417234B
:104A40000F220A21204607F06DFB88216FF07F407E
:104A500007F044FEA51C02230B220A21284607F07A
:104A600061FB062302220C21284607F05BFB06238C
:104A700002220C2140F2BB1007F054FB02231A461D
:104A80000E21601D07F04EFB02231A460E21A81DC1
:104A900007F048FB02230F221221204607F042FBB9
:104AA0000B2302221421204607F03CFB0B23022299
:104AB000142140F2BD1007F035FB02230F221F2105
:104AC000204607F02FFB4FF4DD74A51F1C23224660
:104AD0001621284607F0B9FB2A462046BDE870405B
:104AE0001C23162107F0B1BB70B58821084607F0DA
:104AF000F5FD4FF4E07517230F220A21284607F031
:104B000011FB88214FF47F4007F0E8FDAC1C022325
:104B10000B220A21204607F005FB062302220C2166
:104B2000204607F0FFFA40F2CB14062302220C21A4
:104B3000204607F0F7FA02231A460E21A01F07F0BD
:104B4000F1FA02231A460E21E01E07F0EBFA0223C7
:104B50000F221221284607F0E5FA0B230222142126
:104B6000284607F0DFFA0B2302221421A01C07F0CD
:104B7000D9FA02230F221F21284607F0D3FA621F19
:104B80001C231921D01E07F060FB17231B2122468E
:104B9000201FBDE8704007F058BB000010B5882109
:104BA0006FF07F4007F09AFD0F4840F28B114C1DCB
:104BB00090F82B0005280AD004280ED0012812D125
:104BC0000AA22146BDE81040052007F0C7B908A297
:104BD0000520FCF72DFE07A2F3E705A20520FCF750
:104BE00027FE05A2EDE710BDE00200204B0000000B
:104BF0006F00000043000000460000002DE9F05F58
:104C0000FE4D2DED028B95EC020A30EE601ADFEDC1
:104C1000FC1AFC4CDFF8F0B381EE812ADFF8ECA33C
:104C2000DFF8EC83DFF8EC9384ED012A9BF80000B9
:104C30009FEDF98AF94EFA4FF0BB9AF8000003286D
:104C40003ED1388806EB800090ED001AB4EEC01A11
:104C5000F1EE10FA34D2B4EEE01AF1EE10FA2FDDD4
:104C600088214FF47F0007F039FD388860B306EBE8
:104C7000800195ED010AD1ED000AB0EE481A70EE00
:104C8000C01AD4ED010A01EEE01ABCEEC11A11EE11
:104C9000102A11ED011A93B231EE401AB0EE480A13
:104CA00000F1200292B201EE600A1F30BDEEC00A90
:104CB00010EE101A89B200E002E080B207F0C5FAE7
:104CC0009BF80100D8B163E098ED000AD9ED000A25
:104CD00094ED011A202230EE600AD5ED010A70EE43
:104CE000600AB0EE480A00EEC10ABDEEC00A10EE3E
:104CF000100A83B210EE100A81B21F20DEE79AF884
:104D00000000032844D13888D5ED000A06EB800066
:104D100000F5806090EDF40AB4EEE00AF1EE10FACE
:104D200036D2D5ED010AB4EEE00AF1EE10FA2FDD2D
:104D300088214FF47F4007F0D1FC388860B306EB40
:104D4000800101F5806195ED010AD1EDF40AB0EE24
:104D5000481A70EEC01AD4ED010A01EEE01ABCEE5A
:104D6000C11A11EE102A91EDF31A93B231EE401AE6
:104D7000B0EE480A00F120021F3001EE600A92B244
:104D800080B2BDEEC00A10EE101A89B207F05DFACB
:104D90009BF80200D8B163E098ED010AD9ED010A51
:104DA00094ED011A202230EE600AD5ED010A70EE72
:104DB000600AB0EE480A00EEC10ABDEEC00A10EE6D
:104DC000100A83B210EE100A81B21F20DEE79AF8B3
:104DD0000000032844D13888D5ED000A06EB800096
:104DE00000F5406090EDE80AB4EEE00AF1EE10FA4A
:104DF00036D2D5ED010AB4EEE00AF1EE10FA2FDD5D
:104E000088214FF0FF1007F069FC388860B306EB8B
:104E1000800101F5406195ED010AD1EDE80AB0EE9F
:104E2000481A70EEC01AD4ED010A01EEE01ABCEE89
:104E3000C11A11EE102A91EDE71A93B231EE401A21
:104E4000B0EE480A00F120021F3001EE600A92B273
:104E500080B2BDEEC00A10EE101A89B207F0F5F963
:104E60009BF80300D8B163E098ED020AD9ED020A7D
:104E700094ED011A202230EE600AD5ED010A70EEA1
:104E8000600AB0EE480A00EEC10ABDEEC00A10EE9C
:104E9000100A83B210EE100A81B21F20DEE79AF8E2
:104EA0000000032844D13888D5ED000A06EB8000C5
:104EB00000F5A05090EDDC0AB4EEE00AF1EE10FA35
:104EC00036D2D5ED010AB4EEE00AF1EE10FA2FDD8C
:104ED00088214FF6FF7007F001FC388860B306EBBD
:104EE000800101F5A05195ED010AD1EDDC0AB0EE8B
:104EF000481A70EEC01AD4ED010A01EEE01ABCEEB9
:104F0000C11A11EE102A91EDDB1A93B231EE401A5C
:104F1000B0EE480A00F120021F3001EE600A92B2A2
:104F200080B2BDEEC00A10EE101A89B207F08DF9FA
:104F30009BF80400D8B17AE098ED030AD9ED030A92
:104F400094ED011A202230EE600AD5ED010A70EED0
:104F5000600AB0EE480A00EEC10ABDEEC00A10EECB
:104F6000100A83B210EE100A81B21F20DEE79AF811
:104F7000000003285BD13888D5ED000A06EB8000DD
:104F800000F5E05090EDD00AB4EEE00AF1EE10FA30
:104F90004DD2D5ED010AB4EEE00AF1EE10FA46DD8D
:104FA0008821204807F09AFB3888E8B306EB800197
:104FB00001F5E05195ED010AD1EDD00AB0EE481AA5
:104FC00070EEC01AD4ED010A01EEE01ABCEEC11A6F
:104FD00011EE102A91EDCF1A93B231EE401AB0EED5
:104FE000480A00F120021F3001EE600A92B280B23E
:104FF000BDEEC00A10EE101A89B216E00C070120AF
:105000000000AF4320010020E0020020EC0000205F
:10501000240900202C0701200000C843C40B0020F5
:105020004400002000FFFF0005E007F00EF99BF8A8
:105030000500D8B163E098ED040AD9ED040A94EDB7
:10504000011A202230EE600AD5ED010A70EE600AE6
:10505000B0EE480A00EEC10ABDEEC00A10EE100A1A
:1050600083B210EE100A81B21F20C6E79AF8000042
:10507000032844D13888D5ED000A06EB800000F5FE
:10508000105090EDC40AB4EEE00AF1EE10FA36D2F8
:10509000D5ED010AB4EEE00AF1EE10FA2FDD882119
:1050A0004FF4704007F01AFB388860B306EB8001BC
:1050B00001F5105195ED010AD1EDC40AB0EE481A80
:1050C00070EEC01AD4ED010A01EEE01ABCEEC11A6E
:1050D00011EE102A91EDC31A93B231EE401AB0EEE0
:1050E000480A00F120021F3001EE600A92B280B23D
:1050F000BDEEC00A10EE101A89B207F0A6F89BF8B0
:105100000600D8B163E098ED050AD9ED050A94EDE3
:10511000011A202230EE600AD5ED010A70EE600A15
:10512000B0EE480A00EEC10ABDEEC00A10EE100A49
:1051300083B210EE100A81B21F20DEE79AF8000059
:10514000032844D13888D5ED000A06EB800000F52D
:10515000305090EDB80AB4EEE00AF1EE10FA36D213
:10516000D5ED010AB4EEE00AF1EE10FA2FDD882148
:105170004FF2902007F0B2FA388860B306EB800156
:1051800001F5305195ED010AD1EDB80AB0EE481A9B
:1051900070EEC01AD4ED010A01EEE01ABCEEC11A9D
:1051A00011EE102A91EDB71A93B231EE401AB0EE1B
:1051B000480A00F120021F3001EE600A92B280B26C
:1051C000BDEEC00A10EE101A89B207F03EF89BF847
:1051D0000700D8B162E098ED060AD9ED060A94ED11
:1051E000011A202230EE600AD5ED010A70EE600A45
:1051F000B0EE480A00EEC10ABDEEC00A10EE100A79
:1052000083B210EE100A81B21F20DEE79AF8000088
:10521000032843D13888D5ED000A06EB800000F55D
:10522000505090EDAC0AB4EEE00AF1EE10FA35D22F
:10523000D5ED010AB4EEE00AF1EE10FA2EDD882178
:10524000FF2007F04BFA388860B306EB800101F5C8
:10525000505195ED010AD1EDAC0AB0EE481A70EE4E
:10526000C01AD4ED010A01EEE01ABCEEC11A11EE2B
:10527000102A91EDAB1A93B231EE401AB0EE480A03
:1052800000F120021F3001EE600A92B280B2BDEE42
:10529000C00A10EE101A89B206F0D7FF9BF808007A
:1052A000D8B163E098ED070AD9ED070A94ED011A29
:1052B000202230EE600AD5ED010A70EE600AB0EEF1
:1052C000480A00EEC10ABDEEC00A10EE100A83B211
:1052D00010EE100A81B21F20DEE79AF800000328C2
:1052E00044D13888D5ED000A06EB800000F57050F7
:1052F00090EDA00AB4EEE00AF1EE10FA36D2D5ED48
:10530000010AB4EEE00AF1EE10FA2FDD88216FF009
:105310007F4007F0E3F9388860B306EB800101F5C0
:10532000705195ED010AD1EDA00AB0EE481A70EE69
:10533000C01AD4ED010A01EEE01ABCEEC11A11EE5A
:10534000102A91ED9F1A93B231EE401AB0EE480A3E
:1053500000F120021F3001EE600A92B280B2BDEE71
:10536000C00A10EE101A89B206F06FFF9BF8090010
:10537000D8B163E098ED080AD9ED080A94ED011A56
:10538000202230EE600AD5ED010A70EE600AB0EE20
:10539000480A00EEC10ABDEEC00A10EE100A83B240
:1053A00010EE100A81B21F20DEE79AF800000328F1
:1053B00044D13888D5ED000A06EB800000F588401E
:1053C00090ED940AB4EEE00AF1EE10FA36D2D5ED83
:1053D000010AB4EEE00AF1EE10FA2FDD88214FF653
:1053E000A07007F07BF9388860B306EB800101F507
:1053F000884195ED010AD1ED940AB0EE481A70EE9D
:10540000C01AD4ED010A01EEE01ABCEEC11A11EE89
:10541000102A91ED931A93B231EE401AB0EE480A79
:1054200000F120021F3001EE600A92B280B2BDEEA0
:10543000C00A10EE101A89B206F007FF9BF80A00A6
:10544000D8B163E098ED090AD9ED090A94ED011A83
:10545000202230EE600AD5ED010A70EE600AB0EE4F
:10546000480A00EEC10ABDEEC00A10EE100A83B26F
:1054700010EE100A81B21F20DEE79AF80000032820
:1054800044D13888D5ED000A06EB800000F598403D
:1054900090ED880AB4EEE00AF1EE10FA36D2D5EDBE
:1054A000010AB4EEE00AF1EE10FA2FDD88214AF687
:1054B000F07007F013F9388860B306EB800101F54E
:1054C000984195ED010AD1ED880AB0EE481A70EEC8
:1054D000C01AD4ED010A01EEE01ABCEEC11A11EEB9
:1054E000102A91ED871A93B231EE401AB0EE480AB5
:1054F00000F120021F3001EE600A92B280B2BDEED0
:10550000C00A10EE101A89B206F09FFE9BF80B003D
:10551000D8B162E098ED0A0AD9ED0A0A94ED011AB1
:10552000202230EE600AD5ED010A70EE600AB0EE7E
:10553000480A00EEC10ABDEEC00A10EE100A83B29E
:1055400010EE100A81B21F20DEE79AF8000003284F
:1055500043D13888D5ED000A06EB800000F5A8405D
:1055600090ED7C0AB4EEE00AF1EE10FA35D2D5EDFA
:10557000010AB4EEE00AF1EE10FA2EDD8821F848B7
:1055800007F0ACF8388860B306EB800101F5A8415C
:1055900095ED010AD1ED7C0AB0EE481A70EEC01A02
:1055A000D4ED010A01EEE01ABCEEC11A11EE102A88
:1055B00091ED7B1A93B231EE401AB0EE480A00F139
:1055C00020021F3001EE600A92B280B2BDEEC00A26
:1055D00010EE101A89B206F038FE9BF80C00D8B114
:1055E00062E098ED0B0AD9ED0B0A94ED011A202226
:1055F00030EE600AD5ED010A70EE600AB0EE480A9E
:1056000000EEC10ABDEEC00A10EE100A83B210EE21
:10561000100A81B21F20DEE79AF80000032843D168
:105620003888D5ED000A06EB800000F5B84090ED13
:10563000700AB4EEE00AF1EE10FA35D2D5ED010AA7
:10564000B4EEE00AF1EE10FA2EDD8821C54807F02D
:1056500045F8388860B306EB800101F5B84195ED57
:10566000010AD1ED700AB0EE481A70EEC01AD4EDFE
:10567000010A01EEE01ABCEEC11A11EE102A91EDFA
:105680006F1A93B231EE401AB0EE480A00F12002D0
:105690001F3001EE600A92B280B2BDEEC00A10EE79
:1056A000101A89B206F0D1FD9BF80D00D8B162E066
:1056B00098ED0C0AD9ED0C0A94ED011A202230EE77
:1056C000600AD5ED010A70EE600AB0EE480A00EEFD
:1056D000C10ABDEEC00A10EE100A83B210EE100A25
:1056E00081B21F20DEE79AF80000032843D13888F2
:1056F000D5ED000A06EB800000F5C84090ED640A85
:10570000B4EEE00AF1EE10FA35D2D5ED010AB4EEAE
:10571000E00AF1EE10FA2EDD8821934806F0DEFF54
:10572000388860B306EB800101F5C84195ED010AA8
:10573000D1ED640AB0EE481A70EEC01AD4ED010A39
:1057400001EEE01ABCEEC11A11EE102A91ED631AB7
:1057500093B231EE401AB0EE480A00F120021F3039
:1057600001EE600A92B280B2BDEEC00A10EE101ACD
:1057700089B206F06AFD9BF80E00D8B162E098EDA0
:105780000D0AD9ED0D0A94ED011A202230EE600ABF
:10579000D5ED010A70EE600AB0EE480A00EEC10ACB
:1057A000BDEEC00A10EE100A83B210EE100A81B2EC
:1057B0001F20DEE79AF80000032843D13888D5ED92
:1057C000000A06EB800000F5D84090ED580AB4EED0
:1057D000E00AF1EE10FA35D2D5ED010AB4EEE00A96
:1057E000F1EE10FA2EDD8821604806F077FF388848
:1057F000F0B306EB800101F5D84195ED010AD1ED3A
:10580000580AB0EE481A70EEC01AD4ED010A01EE43
:10581000E01ABCEEC11A11EE102A91ED571A93B29C
:1058200031EE401AB0EE480A00F120021F3001EEBE
:10583000600A92B280B2BDEEC00A10EE101A89B2B0
:1058400006F003FD9BF80F0000287DD19AF80000B8
:10585000032879D13888D5ED000A06EB800000F5E1
:10586000E84090ED4C0AB4EEE00AF1EE10FA00E0E8
:105870003AE071D2D5ED010AB4EEE00AF1EE10FA89
:105880006ADD88213A4806F029FF3888E8B306EB3C
:10589000800101F5E84195ED010AD1ED4C0AF0EEE9
:1058A000481A30EEC01AD4ED010A01EE608ABCEE4F
:1058B000C81AB0EE618A11EE102A91ED4B1A93B21C
:1058C00031EE400A00F120021F3092B200EE608AF1
:1058D00080B2BDEEC80A10EE101A89B2BDEC028B80
:1058E000BDE8F05F06F0B1BC98ED0E0AD9ED0E0AE6
:1058F00094ED011A30EE600AD5ED010A70EE600AEF
:10590000B0EE480A00EEC10A00E00AE0BDEEC00AAF
:10591000202210EE100A83B210EE100A81B21F206E
:105920008EE798ED0F0AD9ED0F0A30EE600AD5ED3B
:10593000010A30EE600AD4ED010A00EE608ABDEE85
:10594000C80A10EE100A00E006E083B210EE100A5A
:10595000202281B21F20C1E7BDEC028BBDE8F09F81
:10596000F033110000AF220059003300FF05E200C0
:105970000093FF00224910B54FF2902048600020AC
:10598000886020484FF4E17490F83010E9B11EA20D
:105990000A21204606F0E2FA1DA29921204606F0CF
:1059A000DDFA1DA240F21311204606F0D7FA1CA220
:1059B0004FF4CD71204606F0D1FA1BA240F221210E
:1059C0002046BDE8104006F0C9BA19A2232120469E
:1059D00006F0C4FA18A29921204606F0BFFA18A2D0
:1059E00040F22511204606F0B9FA17A24FF4D27101
:1059F000204606F0B3FA16A24FF40971E0E7000062
:105A00005C000020E0020020444953504C41590002
:105A1000475241504800000053595354454D00002F
:105A200053455455500000005041474500000000C8
:105A3000CFD4CABE00000000C7FACFDFCDBC000043
:105A4000CFB5CDB300000000C9E8D6C30000000008
:105A5000B7ADD2B30000000030B5224920484FF462
:105A6000E1744860002088601F484FF4097590F881
:105A70003020E2B11DA22321204606F06FFA1DA2BC
:105A8000A521204606F06AFA1CA24FF48B7120462D
:105A900006F064FA1BA240F29511204606F05EFA69
:105AA0001AA229462046BDE8304006F057BA19A28E
:105AB0002321204606F052FA17A2A521204606F01F
:105AC0004DFA16A240F22511204606F047FA14A21C
:105AD0004FF4D271204606F041FA12A2E1E700002D
