:020000040800F2
:1000000010100120C1010008733501080D09010815
:1000100071350108C9110008E30D02080000000055
:100020000000000000000000000000003161010835
:10003000E16100080000000029360108616501083F
:10004000DB010008DB010008DB010008DB01000820
:10005000DB010008DB010008DB010008DB01000810
:10006000DB010008DB010008DB010008DB01000800
:10007000DB010008DB010008DB010008DB010008F0
:10008000DB010008DB010008DB010008DB010008E0
:10009000DB010008DB010008DB010008DB010008D0
:1000A000DB010008DB010008DB010008DB010008C0
:1000B000DB010008DB010008DB010008DB010008B0
:1000C000DB010008DB010008DB010008DB010008A0
:1000D000DB01000835F60108DB010008DB01000840
:1000E000DB010008DB010008DB010008DB01000880
:1000F000DB010008DB010008DB010008DB01000870
:10010000DB010008DB010008DB010008DB0100085F
:10011000DB010008DB010008F9650108A16701089F
:10012000DB010008DB010008DB010008DB0100083F
:10013000DB010008DB010008DB010008DB0100082F
:10014000DB010008DB010008DB010008ED350108D8
:10015000DB010008DB010008DB010008DB0100080F
:10016000DB010008DB01000805360108F93501084C
:10017000DB01000811360108DB010008DB01000883
:10018000DB010008DB010008DB010008DB010008DF
:10019000DB010008DB010008DB010008DB010008CF
:1001A000DB010008DB010008DB010008DFF80CD0F0
:1001B00000F012FC00480047752B020810100120C7
:1001C0000648804706480047FEE7FEE7FEE7FEE7F1
:1001D000FEE7FEE7FEE7FEE7FEE7FEE79D650108B6
:1001E000AD010008D2B201E000F8012B491EFBD29C
:1001F00070470022F6E710B513460A460446194632
:10020000FFF7F0FF204610BD421E12F8013F002B01
:10021000FBD111F8013B02F8013B002BF9D17047EB
:1002200010B5044604E00B7800F8013B03B1491C0B
:10023000521EF8D2204610BD421C10F8011B0029A6
:10024000FBD1801A704710B5002200E0521C835C7D
:100250008C5CA34201D1002BF8D1D8B2E1B2401A94
:1002600010BD034611F8012B00F8012B002AF9D12B
:100270001846704770B5064621F070FC04680546C4
:100280000A220021304600F0ABFA2C6070BD2DE947
:10029000FE4F804681EA0300C00F0C46009021F01B
:1002A000004123F00045B8EB0200A94105D24046C9
:1002B000214690461C460B46024623F00040104360
:1002C00047D0270DC7F30A00C3F30A510290401A22
:1002D000019040286BDAC3F3130040F4801B0098B0
:1002E000924620B10023D2EB030A63EB0B0B01987B
:1002F0005946C0F14002504600F0F3F906460D465B
:1003000050465946019A00F00BFA10EB0800614183
:10031000002487EA115284EAE7731A4340D0009A16
:1003200062B3019A012A4FEA075215DC001B61EB08
:1003300002014FF0004202EA0752CDE90042001CE0
:1003400041F5801132462B4600F0C8FA03B0BDE8F3
:10035000F08F40462146F9E7001B61EB0201001CCB
:1003600041F5801300185B412018A2F5001747EBF8
:10037000030140EAD570B6196D4111E06D084FEAEE
:10038000360645EAC0754FEA0752001B61EB0201D1
:10039000001C41F5801149084FEA30000019514115
:1003A00032462B4603B0BDE8F04F00F088BA009803
:1003B000012240000023D0EB020263EBE0730098BF
:1003C00021464FEAE074B8EB000061EB0401E9E775
:1003D00083F000435BE781F0004158E72DE9FE4FD1
:1003E00081EA030404F0004421F0004100944FF03E
:1003F000000B23F0004350EA01045ED052EA0304EC
:100400005BD0C3F30A54C1F30A552C44A4F2F3346D
:100410000194A0FB0254C1F3130141F48011C3F312
:10042000130343F4801301FB024400FB034E840AD0
:10043000970A44EA815447EA8357A4FB0768029568
:100440008D0A05FB07854FEA932C04FB0C54270506
:10045000029D4FEA065847EA1637B5EB08056EEBE2
:10046000070C870E920E47EA811742EA8312A7FB18
:100470000201B6EB0B0164EB00042B0D43EA0C33D5
:100480005E1844EB1C50DA465146E7FB0201C5F307
:1004900013044FEA0B3343EA14534FEA0432019C2E
:1004A00043EA0603A4F10C040294009CCDE900B4D5
:1004B00000F014FA03B0BDE8F08F00200146F9E720
:1004C0002DE9F04D81EA030404F0004B21F00045D2
:1004D00014464FF0000A23F0004150EA050220D0F4
:1004E00054EA01021DD0C5F30A570246C5F31303AF
:1004F000C1F31300C1F30A5640F4801543F480138E
:10050000A7EB0608101BD64608F2FD3873EB050072
:1005100002D308F1010801E092185B41B8F1000F25
:1005200003DA00200146BDE8F08D00204FF4801171
:10053000064684460EE0171B73EB050705D3121B16
:1005400063EB050306434CEA010C49084FEA30000F
:1005500092185B4150EA0107EDD152EA030012D034
:1005600082EA040083EA0501084305D0101BAB4171
:1005700006D20122002306E000224FF0004302E0F1
:100580006FF0010253101AEB06004CEB085110EB10
:100590000A0041EB0B01BDE8F04D00F090B90EB53B
:1005A00040F2334102910021CDE900110A460B4689
:1005B00000F094F903B000BD70B5C1F30A5201F028
:1005C00000450024C1F3130140F2FF3341F48011D0
:1005D0009A4201DA002070BD40F233439A42A2F2FF
:1005E000334203DC524200F08BF800E090402C4391
:1005F000F1D0404270BD00F0004230F000400AD01F
:10060000C10D01F56071C0F3160042EA0151C20844
:1006100040071143704700200146704701F0004336
:1006200030B421F0004150EA010206D00A0DA2F5D3
:100630006072C1F31301002A02DC30BC0020704755
:10064000440F44EAC104C100E01830BC00EBC250C2
:1006500000F0FEB830B50B460146002020220124F0
:1006600009E021FA02F59D4205D303FA02F5491B80
:1006700004FA02F52844151EA2F10102F1DC30BD96
:100680002DE9F05F0546002092469B4688460646C7
:10069000814640241BE0284641464746224600F05A
:1006A0002FF853465A46C01A914110D311461846A6
:1006B000224600F016F82D1A67EB01084F46224635
:1006C0000120002100F00DF817EB00094E41201E1B
:1006D000A4F10104DFDC484631462A464346BDE822
:1006E000F09F202A04DB203A00FA02F10020704734
:1006F0009140C2F1200320FA03F319439040704760
:10070000202A04DB203A21FA02F00021704721FA66
:1007100002F3D040C2F120029140084319467047CD
:10072000202A06DBCB17203A41FA02F043EAE073B5
:1007300006E041FA02F3D040C2F1200291400843A2
:10074000194670470FB4002300B589B00CA9009179
:100750000B996FF00042CB601E4B06931E4B079324
:100760000423CDE901321D4A089202466B4600205F
:1007700000F0E6F909B05DF814FB70B586B00646E6
:100780004FF0FF300091CDE90101002015460C46E5
:1007900004903246694604A8FFF7D4FF0246049845
:1007A000211825B108B1084600E0204628600498C9
:1007B00000280DD0002A02DD0098884208D0081BCE
:1007C0000094CDE901043246694604A8FFF7BAFF58
:1007D00006B070BD790D0008970D0008050A0008E5
:1007E0002DE9F04791460F4680460446002614F84E
:1007F000015B2DB100F002F90068405DC007F6D141
:100800002B2D02D02D2D18D0641E4A463946204685
:1008100000F0D2FA27B13968A14201D1C7F80080AF
:1008200071054FF002040BD54042002803DD21F092
:1008300095F90460A007BDE8F08746F48066E4E718
:100840000028F8DA21F08AF904606FF00040F2E73E
:100850000029A8BF7047401C490008BF20F00100D4
:10086000704710B4B0FA80FC00FA0CF050EA0104B2
:1008700004BF10BC704749B1CCF1200421FA04F444
:1008800011FA0CF118BF012121430843A3EB0C011D
:10089000CB1D4FEA00614FEA102042BF002010BC80
:1008A000704700EBC35010440029A4BF10BC704730
:1008B000401C490008BF20F0010010BC704710B573
:1008C000141E73F1000408DA401C41F10001921873
:1008D0005B411A4301D120F0010010BD2DE9F04D1C
:1008E00092469B4611B1B1FA81F202E0B0FA80F271
:1008F00020329046FFF7F5FE04460F4640EA0A0014
:1009000041EA0B0153465A46084313D0114653EAB5
:10091000010019D0C8F140025046FFF7F1FE05462C
:100920000E46504659464246FFF7DBFE084305D0C7
:10093000012004E020463946BDE8F08D0020054343
:1009400046EAE0762C4337430A986305E40AA0EBB5
:1009500008000022FD0A44EA47540A3002D500206C
:100960000146E9E7010510196941DDE9084500196B
:100970006941BDE8F04DA2E7C1F30A52C1F313018A
:1009800040F2FF3341F480119A4202DA002001461E
:10099000704740F233439A42A2F2334202DC5242A1
:1009A000FFF7AEBEFFF79DBE30B5041E71F1000427
:1009B00004DB4FF00044404264EB0101141E73F16C
:1009C000000405DB1C464FF00043524263EB040376
:1009D000994208BF904230BD064C074D06E0E068E2
:1009E00040F0010394E8070098471034AC42F6D376
:1009F000FFF7E0FBAC1D0408CC1D0408004870475D
:100A0000341D040810B50446FFF7F8FF0068005DC8
:100A100000F0010010BD00002DE9FF4F087883B001
:100A20009946FF2805D0491C2D2804D00024002019
:100A300008E000200BE00124F9E700EB800003EB65
:100A40004000491C0B78FF2BF7D104B14042002332
:100A50000293147819461D462D2C01D02B2C04D15D
:100A6000521C2D2C13D000240294AA461478FF2C7B
:100A70000FD00A25A3FB057801FB05814FF0000C80
:100A800003FB0C11521CE3194AEB0101EEE70124B0
:100A9000EAE7814453EA010002D019F5C87F06DA7B
:100AA00003980021C0E9001107B0BDE8F08F0025D0
:100AB000AE4E2F46DFF8B882184600F0DAF9CDE9DD
:100AC0000001B9F1000002DAC9F1000400E00446B7
:100AD0000023A74A1AEB030B42EB045A12E0E0078B
:100AE00007D02A46334638464146FFF777FC07468B
:100AF00088462A46334610461946FFF76FFC0546DE
:100B00000E466410002CEAD1DDE90001B9F1000FB6
:100B10005A46534606DAFFF7D3FC3A464346FFF7F8
:100B2000CFFC05E0FFF75AFC3A464346FFF756FC78
:100B3000029A0AB181F00041039AC2E90001B3E7C9
:100B40002DE9FF4F1F468DB0D7E901464FF0FF3822
:100B50002E2045464FF000090B90B9696D1C0E9888
:100B60008847396A824688470028F6D1BAF1FF3FA4
:100B70000AD024F4D064002E11DDBAF12B0F08D076
:100B8000BAF12D0F0BD102E0404611B08DE744F4CD
:100B90008064B9696D1C0E9888478246761E694646
:100BA000600501D52D2000E02B208DF8000001F11B
:100BB000010B0DF1200809E0B9696D1C0E988847FA
:100BC00082460F9844F40074761E0560002E02DD04
:100BD000BAF1300FF0D00B998A453ED144F0800431
:100BE00006E00F99681CA9F1010944F4007408603B
:100BF000B9696D1C761E0E98884782463028F0D061
:100C00002BE00B998A4505D1200603D444F08004DB
:100C1000761E18E0504621F0A1F808B30DF113013B
:100C2000761E44F400748B4508D2AAF130000BF80C
:100C3000010B200607D5A9F1010003E0200602D42C
:100C400009F101008146A00502D50F99681C0860D2
:100C5000B9696D1C0E9888478246002ED1DC53E09E
:100C6000002E51DDBAF1650F02D0BAF1450F4BD11C
:100C7000A00549D5B9696D1C24F44074761E0E9800
:100C800088478246002E0CDD2B2804D0BAF12D0FA8
:100C900007D144F48074B9696D1C0E988847824668
:100CA000761EE00501D52D2100E02B2108F8011B5F
:100CB000CDF82C8021E00DF12901761E44F400745A
:100CC00088450CD2AAF1300010F0FF0088F800002F
:100CD00002D10B99884509D908F1010806E0E00521
:100CE00001D5244801E042F20F708146B9696D1CBC
:100CF0000E98884782460F980560002E04DD504606
:100D000021F02CF80028D6D1F9690E988847FF20E9
:100D10008BF8000088F800000020069007904B46F2
:100D20006A4608A906A8FFF777FEA00502D46FF06F
:100D300001002AE714F0240F0AD0E00714D1DDE9FE
:100D400006123868031D3B600068C0E900120BE022
:100D5000DDE90601FFF762FC0146E00704D13868CF
:100D6000021D3A600068016028460EE7000014404A
:100D70000000F03FF1D8FFFF426842B1016811F86E
:100D8000013B23B1521EC0E90012184670470121F1
:100D9000C160881E704742685AB1C368016843B990
:100DA00083688B4205D0491E521CC0E90012002006
:100DB00070474FF0FF3070472DE9F05F82460078B2
:100DC000002715468B460AF10104B946302801D0A8
:100DD0009DB113E014F8010B0127782803D058289F
:100DE00001D045B10AE00DB1102D07D10027102523
:100DF00014F8010B02E0082500E00A250026B046A1
:100E00000EE005FB080005FB06F1012701EB10468B
:100E10001FFA80F8B6F5803F00D3B94614F8010BED
:100E2000294600F018F80028EBDABBF1000F05D0D6
:100E30000FB1641E00E05446CBF80040B9F1000F3A
:100E400006D020F08BFE02210160C81EBDE8F09F95
:100E500048EA0640FAE73A2800D2303820F020026B
:100E6000412A01D3A2F13700884201D34FF0FF306D
:100E700070470EB540F2334202920022CDE90022C3
:100E80001346FFF72BFD03B000BD70B58C1810F8AA
:100E9000015B15F0070301D110F8013B2A1106D1BF
:100EA00010F8012B03E010F8016B01F8016B5B1ED9
:100EB000F9D12B0705D40023521E0DD401F8013BB4
:100EC000FAE710F8013BCB1A921C03E013F8015B20
:100ED00001F8015B521EF9D5A142D8D3002070BDA4
:100EE000114910B5487AD0B1082803D0BDE81040A8
:100EF0000CF050B8887A897B0D4A00EBC101533958
:100F0000C9B29FED0A0A02EB8101523881ED000A55
:100F1000C0B222F025F8BDE8104015F01BB9BDE8BD
:100F2000104025F02DB90000F8000020000000005E
:100F30006C0801200029816802D041F0010101E024
:100F400021F0010181607047084B10B5D3F80423EC
:100F500007490A40D0E900142143D0E90240044384
:100F600021431143C3F8041310BD000000200140C9
:100F7000E030FCFF0029816802D041F4807101E07B
:100F800021F48071816070470029816802D041F4AA
:100F9000007101E021F400718160704730B5426852
:100FA0000F4B0C791A400B6842EA0422134343604A
:100FB00082680C4B4D791A40D1E9034323438C6876
:100FC00044EA4504234313438360C26A097D22F443
:100FD0007002491EC9B242EA0151C16230BD00002F
:100FE000FFFEFFFCFDF7FFC070B5072609290AD9EF
:100FF000C568A1F10A0404EB4404A640B543A3402C
:101000001D43C56007E0056901EB4104A640B543F7
:10101000A3401D4305611F23072A09D2446B521EBA
:1010200002EB820293409C4391400C43446370BDA9
:101030000D2A09D2046BD21F02EB820293409C431B
:1010400091400C43046370BDC46A0D3A02EB820206
:1010500093409C4391400C43C46270BD816841F051
:101060008041816070470000F0B5324BDFED300AFF
:101070009FED310AC3ED010AA3F2E467002183ED7D
:10108000020A08462D4EA3F1A00597F833200AE086
:1010900017F800C0BCF1000F03D155F820C0B445CB
:1010A0000CDB401CC0B28242F2D8012C06D0C3ED4A
:1010B000000AC3ED010AC3ED020AF0BD0020204C76
:1010C0002AE017F800C0BCF1000F23D105EB800C1B
:1010D0009CED000A10EE10CAB4451BDA04EB800C3C
:1010E000491C9CED001AC9B230EE410A93ED011A79
:1010F00070EE200AB4EEC10AF1EE10FA01DD83EDC4
:10110000010A93ED021AB4EEC10AF1EE10FA01D20F
:1011100083ED020A401CC0B28242D2D800EE101AFF
:10112000B8EE400A80EE801A83ED001AF0BD000090
:1011300000000000680A002000E0F94400E0F944E3
:101140006C0801200749487A001F052809D2DFE80A
:1011500000F0030606060600887A332801D121F044
:10116000BBBA7047F80000202DE9FC4101210E02B6
:10117000304612F0A5FA01248DF804400025202005
:101180008DF806500E4F00908DF807408DF80550F1
:10119000694638460FF062FB8DF804408DF8065022
:1011A0008DF8074000968DF80550694605480FF008
:1011B00055FB202138460FF0A4FBBDE8FC81000060
:1011C0000020024000000240FEE7000010B5074C7E
:1011D000202120460FF097FB40F2FF5005F064F805
:1011E0002046BDE8104020210FF08BBB00200240BC
:1011F00010B50446392027F07FFAE0B227F0A0FAB4
:10120000C4F3072027F09CFAC4F3074027F098FAAC
:10121000200E27F095FA27F05FFABDE8104020F085
:10122000B7BB70B5064614460D463C2027F064FA5D
:10123000E8B227F085FA280A27F082FA27F04CFA5C
:101240000CB1002011E020F0A3FB1E280FD1304686
:1012500000F030F905463D2027F04EFA27F03CFA21
:101260002E44002CEFD0208828442080EBE770BD6E
:1012700010B512F019FA08B100F069F8BDE8104095
:10128000302000F0B2B8312000F0AFB8014636206F
:1012900000F09EB810B508B100F0C5F8BDE81040E8
:1012A000342000F0A2B870B5054600F0A7F804009D
:1012B0000DD00146284600F021F8412807D0142817
:1012C00003D0422800D1B32070BD432070BD28193F
:1012D000BDE87040FFF7DEBF10B5044600F0A3F88C
:1012E00020785C2801D02F2803D10021642000F051
:1012F000F7F8BDE81040322000F077B870B50E4620
:1013000000210546012401E0641CE4B2285D5C284C
:1013100013D02F2811D00028F6D100246818FFF729
:10132000DBFF002C08D0B44206D041280AD0142894
:1013300006D0422800D1B32070BD641CE4B2EDE7B2
:10134000432070BD2146E1E7FF21FFF7D7BF10B56D
:10135000222027F0D1F9322004F0A6FF27F0C2F9AD
:10136000044627F0B9F9204610BD2DE9F04127F0D9
:10137000B9F9064627F0B6F9054627F0B3F9044651
:1013800027F0B0F9074627F0A7F946EA052040EA1A
:10139000044040EA0760BDE8F08110B504460C2027
:1013A00027F0AAF9204627F0CBF9BDE81040FFF757
:1013B000DCBF10B504460A2027F09EF9204627F02E
:1013C000BFF927F08FF9044627F086F9204610BDB3
:1013D00010B50C4627F090F9204627F0B1F927F018
:1013E0007BF9BDE8104020F0D3BA10B527F084F99E
:1013F00027F072F9BDE8104020F0CABA014600E0BB
:10140000491C0A78002AFBD105E011F8012D5C2A5D
:1014100003D02F2A01D08142F7D1814200D0491C4C
:10142000081AC0B2704770B50546012027F064F96C
:1014300027F058F9432828D22B20FFF7BAFF1028AD
:1014400023D22F2027F058F9002027F079F93220F5
:10145000FFF7CBFF142818D1CF20FFF7AAFF040015
:1014600013D04C20FFF799FF00EB04214C2000F033
:1014700037F85020FFF791FF00EB0421502000F0D7
:101480002FF80021702000F02BF82F2027F034F9DE
:101490002C7806E015F8014F5C2C01D02F2C00D1E0
:1014A0000024204627F04CF9002CF3D1BDE8704011
:1014B00027F012B970B505462D2027F01DF927F049
:1014C00011F90446260007D0287827F039F9641E60
:1014D0006D1C14F0FF04F7D127F0FEF8304670BD04
:1014E00070B505460C460D2027F006F9284627F072
:1014F00027F9E0B227F024F9C4F3072027F020F9F8
:10150000C4F3074027F01CF9200E27F019F9BDE8B5
:10151000704027F0E1B800002DE9F04188B00121CA
:10152000812012F0CDF80121080312F0F9F8DFF85C
:10153000C8800522114640460FF0CCF9052206214D
:1015400040460FF0C7F90522072140460FF0C2F9C7
:1015500002258DF805508DF80450002420278DF8C1
:10156000064000978DF80740694640460FF076F92F
:1015700040200090694640460FF070F980200090AE
:10158000694640460FF06AF91020012600908DF858
:1015900004608DF80640694640460FF05FF98DF80B
:1015A000044000978DF80760694614480FF056F91B
:1015B000ADF808404FF48270ADF80A00ADF8106045
:1015C0002802ADF812003820ADF81400ADF80C4038
:1015D000ADF8164007200A4CADF81800ADF80E50D3
:1015E00002A9204614F015FD0121204614F00EFB3F
:1015F00008B0BDE8F081000000000240001C02407D
:1016000000300140F0B5FF231A46002518E0445D84
:101610006240002402F0010613F0010F4FEA530369
:101620004FEA520201D042F080021EB183F0A003C3
:1016300082F00102641CE4B2082CEBD36D1CEDB205
:101640008D42E4D342EA0320F0BD00002DE9F041D1
:10165000FE48FF4EFF4C00784FF49B754FF47047E7
:101660004FF4A57840B1012874D0022873D0032824
:1016700072D0042871D025E32078012801D028B148
:101680000FE0882010F0A6FB304603E0882010F021
:10169000A1FB384610F0BAFBEFA20A2164200FF03C
:1016A000C7FF6078012801D028B10FE0882010F032
:1016B00091FB304603E0882010F08CFB384610F098
:1016C000A5FBE6A20A21AA200FF0B2FFA07801280C
:1016D00001D028B10FE0882010F07CFB304603E0F9
:1016E000882010F077FB384610F090FBDCA20A212E
:1016F000F0200FF09DFFE078012801D028B10FE025
:10170000882010F067FB304603E0882010F062FB71
:10171000384610F07BFBD3A20A2128460FF088FF41
:101720002079012801D028B10FE0882010F052FB69
:10173000304603E0882010F04DFB384610F066FB81
:10174000C9A2414664200FF073FF6079012805D0DB
:1017500048B113E039E0CEE063E133E2882010F0D5
:1017600039FB304603E0882010F034FB384610F097
:101770004DFBBEA24146AA200FF05AFFA0790128D6
:1017800001D028B10FE0882010F024FB304603E0A0
:10179000882010F01FFB384610F038FBB4A24146F9
:1017A000F0200FF045FFE079012801D028B189E24F
:1017B000882010F00FFB304603E0882010F00AFB71
:1017C000384610F023FBABA278E2207A01284FF0D4
:1017D000880070D010F0FEFA384610F017FBA6A271
:1017E0000A2164200FF024FF607A01284FF088005E
:1017F00065D010F0EFFA384610F008FB9FA20A21DE
:10180000AA200FF015FFA07A01284FF088005AD0C7
:1018100010F0E0FA384610F0F9FA99A20A21F02007
:101820000FF006FFE07A01284FF088004FD010F04B
:10183000D1FA384610F0EAFA92A20A2128460FF0AF
:10184000F7FE207B01284FF0880044D010F0C2FA48
:10185000384610F0DBFA8CA2414664200FF0E8FE17
:10186000607B01284FF0880039D010F0B3FA384679
:1018700010F0CCFA85A24146AA200FF0D9FEA07B39
:1018800001284FF088002ED010F0A4FA384610F04E
:10189000BDFA7FA24146F0200FF0CAFEE07B01288E
:1018A0004FF0880023D010F095FA384610F0AEFAC9
:1018B00078A203E2FFE710F08DFA30468DE710F0D2
:1018C00089FA304698E710F085FA3046A3E710F021
:1018D00081FA3046AEE710F07DFA3046B9E710F0F5
:1018E00079FA3046C4E710F075FA3046CFE710F0C9
:1018F00071FA3046DAE7207C01284FF0880070D07A
:1019000010F068FA384610F081FA63A20A216420C8
:101910000FF08EFE607C01284FF0880065D010F03B
:1019200059FA384610F072FA5CA20A21AA200FF088
:101930007FFEA07C01284FF088005AD010F04AFAB0
:10194000384610F063FA56A20A21F0200FF070FE1C
:10195000E07C01284FF088004FD010F03BFA384669
:1019600010F054FA4FA20A2128460FF061FE207DA4
:1019700001284FF0880044D010F02CFA384610F0BF
:1019800045FA49A2414664200FF052FE607D0128CD
:101990004FF0880039D010F01DFA384610F036FAB2
:1019A00042A24146AA200FF043FEA07D01284FF03D
:1019B00088002ED010F00EFA384610F027FA3CA21C
:1019C0004146F0200FF034FEE07D01284FF0880002
:1019D00023D010F0FFF9384610F018FA35A26DE167
:1019E000FFE710F0F7F930468DE710F0F3F93046D5
:1019F00098E710F0EFF93046A3E710F0EBF9304626
:101A0000AEE710F0E7F93046B9E710F0E3F93046F9
:101A1000C4E710F0DFF93046CFE710F0DBF93046CD
:101A2000DAE7207E01284FF088007DD010F0D2F94F
:101A3000384610F0EBF920A20A2164200FF0F8FDDF
:101A4000607E01284FF088006FD037E0030100204E
:101A500093551700840300203030310030303200BD
:101A60003030330030303400303035003030360024
:101A7000303037003030380030303900303130000D
:101A80003031310030313200303133003031340008
:101A900030313500303136003031370030313800E8
:101AA00030313900303230003032310030323200E3
:101AB00030323300303234003032350010F08AF9E1
:101AC000384610F0A3F99AA20A21AA200FF0B0FD1F
:101AD000A07E01284FF088005CD010F07BF93846DA
:101AE00010F094F993A20A21F0200FF0A1FDE07EFE
:101AF00001284FF0880051D010F06CF9384610F0F2
:101B000085F98DA20A2128460FF092FD207F012839
:101B10004FF0880046D010F05DF9384610F076F9A5
:101B200086A24146642001E02CE02FE00FF080FD0A
:101B3000607F01284FF0880038D010F04BF938460C
:101B400010F064F97EA24146AA200FF071FDA07F3B
:101B500001284FF088002DD010F03CF9384610F0E5
:101B600055F978A24146F0200FF062FDE07F012890
:101B70004FF0880022D010F02DF9384610F046F9C9
:101B800071A29BE010F026F9304652E710F022F9DE
:101B9000304696E710F01EF93046A1E710F01AF92A
:101BA0003046ACE710F016F93046B7E710F012F9FE
:101BB0003046C5E710F00EF93046D0E710F00AF9CC
:101BC0003046DBE794F8200001284FF088007DD0F4
:101BD00010F000F9384610F019F95CA20A216420CF
:101BE0000FF026FD94F8210001284FF088006ED0F8
:101BF00010F0F0F8384610F009F955A20A21AA2091
:101C00000FF016FD94F8220001284FF0880074D0E0
:101C100010F0E0F8384610F0F9F84EA20A21F02052
:101C20000FF006FD94F8230001284FF0880068D0DB
:101C300010F0D0F8384610F0E9F847A20A212846FB
:101C40000FF0F6FC94F8240001284FF088005CD0D7
:101C500010F0C0F8384610F0D9F840A24146642090
:101C60000FF0E6FC94F8250001284FF0880050D0D2
:101C700010F0B0F8384610F0C9F839A24146AA2051
:101C80000FF0D6FC94F8260001284FF0880044D0CD
:101C900010F0A0F8384610F0B9F832A24146F02012
:101CA0000FF0C6FC94F8270001284FF0880038D0C8
:101CB00010F090F8384610F0A9F82BA241462846BB
:101CC0000FF0B6FC29490120C87001E00CE010E0DB
:101CD000FFF77CFA94F8300038B325A004F010FF29
:101CE000BDE8F04114F036BA10F074F8304672E7EF
:101CF00003E010F06FF830467DE710F06BF83046E7
:101D000089E710F067F8304695E710F063F8304641
:101D1000A1E710F05FF83046ADE710F05BF8304611
:101D2000B9E710F057F83046C5E714A0D6E7000031
:101D3000303236003032370030323800303239003D
:101D40003033300030333100303332003033330041
:101D50003033340030333500303336003033370021
:101D6000303338003033390030343000580100202F
:101D70004368616E6E656C2073657400CDA8B5C054
:101D8000C9E8D6C3000000002DE9F05FF648DFF88F
:101D9000DCA3F74C00784FF482754FF496764FF43D
:101DA000AA784FF4BE794FF4704B10B101286ED071
:101DB00032E32078012801D028B10FE0882010F00C
:101DC00009F8504603E0882010F004F8584610F057
:101DD0001DF8E8A20A21642001F0B8FA6078012811
:101DE00001D028B10FE088200FF0F4FF504603E047
:101DF00088200FF0EFFF584610F008F8DEA20A2105
:101E00008C2001F0A3FAA078012801D028B10FE0BE
:101E100088200FF0DFFF504603E088200FF0DAFF44
:101E200058460FF0F3FFD5A20A21B42001F08EFA34
:101E3000E078012801D028B10FE088200FF0CAFF18
:101E4000504603E088200FF0C5FF58460FF0DEFF34
:101E5000CBA20A21DC2001F079FA2079012801D0F7
:101E600028B10FE088200FF0B5FF504603E088202E
:101E70000FF0B0FF58460FF0C9FFC2A20A21284652
:101E800001F064FA6079012802D030B110E0BCE1C1
:101E900088200FF09FFF504603E088200FF09AFF44
:101EA00058460FF0B3FFB8A20A21304601F04EFAAF
:101EB000A079012801D028B10FE088200FF08AFF17
:101EC000504603E088200FF085FF58460FF09EFF34
:101ED000AEA20A21404601F039FAE079012801D08A
:101EE00028B10FE088200FF075FF504603E08820EE
:101EF0000FF070FF58460FF089FFA5A20A2148464F
:101F000001F024FA207A012801D028B10FE08820BE
:101F10000FF060FF504603E088200FF05BFF58464B
:101F20000FF074FF9BA2D221642001F00FFA607AB7
:101F3000012801D028B10FE088200FF04BFF504658
:101F400003E088200FF046FF58460FF05FFF92A293
:101F5000D2218C2001F0FAF9A07A012801D028B111
:101F60000FE088200FF036FF504603E088200FF086
:101F700031FF58460FF04AFF88A2D221B42001F069
:101F8000E5F9E07A012801D028B10FE088200FF0B0
:101F900021FF504603E088200FF01CFF58460FF049
:101FA00035FF7FA2D221DC2001F0D0F9207B01286F
:101FB00001D028B10FE088200FF00CFF504603E05D
:101FC00088200FF007FF58460FF020FF75A2D2219E
:101FD000284601F0BBF9607B012801D028B10FE051
:101FE00088200FF0F7FE504603E088200FF0F2FE45
:101FF00058460FF00BFF6CA2D221304601F0A6F933
:10200000A07B012801D028B10FE088200FF0E2FE6C
:10201000504603E088200FF0DDFE58460FF0F6FE34
:1020200062A2D221404601F091F9E07B012801D063
:1020300028B10FE088200FF0CDFE504603E0882045
:102040000FF0C8FE58460FF0E1FE59A2D2214846D3
:1020500001F07CF9207C4FF4CD77012801D028B124
:102060000FE088200FF0B6FE504603E088200FF006
:10207000B1FE58460FF0CAFE4EA23946642001F068
:1020800065F9607C012801D028B10FE088200FF0AD
:10209000A1FE504603E088200FF09CFE58460FF04A
:1020A000B5FE45A239468C2001F050F9A07C0128EC
:1020B00001D028B10FE088200FF08CFE504603E0DD
:1020C00088200FF087FE58460FF0A0FE3BA239464D
:1020D000B42001F03BF9E07C012801D028B10FE0E9
:1020E00088200FF077FE504603E088200FF072FE44
:1020F00058460FF08BFE32A23946DC2001F026F95B
:10210000207D012801D028B10FE088200FF062FE69
:10211000504603E088200FF05DFE58460FF076FE33
:1021200028A23946284601F011F9607D012801D026
:1021300028B10FE088200FF04DFE504603E08820C4
:102140000FF048FE58460FF061FE1FA23946304698
:1021500001F0FCF8A07D012801D0B8B342E088204E
:102160000FF038FE504636E003010020935517006B
:102170008403002030303100303032003030330002
:1021800030303400303035003030360030303700F9
:1021900030303800303039003031300030313100EB
:1021A00030313200303133003031340030313500DD
:1021B00030313600303137003031380030313900BD
:1021C000303230003032310030323200FFE78820C8
:1021D0000FF000FE58460FF019FEBAA239464046ED
:1021E00001F0B4F8E07D012801D028B114E1882085
:1021F0000FF0F0FD504603E088200FF0EBFD58464D
:102200000FF004FEB0A2394603E1207E01284FF012
:1022100088007CD00FF0DEFD58460FF0F7FDABA232
:102220000A21642001F092F8607E01284FF08800B6
:102230006ED00FF0CFFD58460FF0E8FDA4A20A21A2
:102240008C2001F083F8A07E01284FF088007DD01B
:102250000FF0C0FD58460FF0D9FD9EA20A21B42010
:1022600001F074F8E07E01284FF088006FD00FF085
:10227000B1FD58460FF0CAFD97A20A21DC2001F0FB
:1022800065F8207F01284FF088007DD00FF0A2FD77
:1022900058460FF0BBFD91A20A21284601F056F8DE
:1022A000607F01284FF088006FD00FF093FD5846F3
:1022B0000FF0ACFD8AA20A21304601F047F8A07F5A
:1022C00001284FF088007DD00FF084FD58460FF0B4
:1022D0009DFD84A20A21404601F038F8E07F0128E4
:1022E0004FF088006FD00FF075FD58460FF08EFD4F
:1022F0007DA20A21484601F029F894F8200001281F
:102300004FF088007ED00FF065FD584601E092E066
:1023100096E00FF07BFD75A2D221642001F016F843
:1023200094F8210001284FF088006CD00FF052FD86
:1023300058460FF06BFD6EA2D2218C2001F006F8FA
:1023400094F8220001284FF0880001E07CE07FE053
:1023500075D00FF03FFD58460FF058FD65A2D22111
:10236000B42000F0F3FF94F8230001284FF0880018
:1023700072D00FF02FFD58460FF048FD5EA2D2211B
:10238000DC2000F0E3FF01E067E06AE094F824005D
:1023900001284FF0880070D00FF01CFD58460FF058
:1023A00035FD56A2D221284600F0D0FF94F8250032
:1023B00001284FF0880077D00FF00CFD58460FF041
:1023C00025FD01E051E054E04DA2D221304600F05D
:1023D000BDFF94F8260001284FF0880068D00FF068
:1023E000F9FC58460FF012FD46A2D221404600F0FB
:1023F000ADFF94F8270001284FF088005CD00FF063
:10240000E9FC01E03BE03EE058460FF0FFFC3EA255
:10241000D221484600F09AFF3C490120C870FEF7DF
:10242000D5FE94F8300048B339A004F069FBBDE84C
:10243000F05F13F08FBE0FF0CDFC5046EDE626E0C6
:102440000FF0C8FC5046F7E60FF0C4FC504602E718
:102450000FF0C0FC50460DE71EE00FF0BBFC5046ED
:1024600017E70FF0B7FC504622E70FF0B3FC5046D9
:102470002DE70FF0AFFC504638E711E020E00FF0F9
:10248000A9FC504642E70FF0A5FC504651E70FF07B
:10249000A1FC504660E707E00FF09CFC50466BE75C
:1024A0000FF098FC50467AE70FF094FC504686E710
:1024B0000FF090FC504695E70FF08CFC5046A4E7D7
:1024C00016A0B2E7303233003032340030323500FB
:1024D0003032360030323700303238003032390096
:1024E000303330003033310030333200303333009A
:1024F000303334003033350030333600303337007A
:102500003033380030333900303430005801002087
:102510004368616E6E656C2073657400CDA8B5C0AC
:10252000C9E8D6C3000000002DE9F05FFB4CDFF8DE
:10253000F0A34FF4704B2078012801D028B10FE0B0
:1025400088200FF047FC504603E088200FF042FC43
:1025500058460FF05BFCF3A20A21642000F02CFF28
:102560006078012801D028B10FE088200FF032FCFC
:10257000504603E088200FF02DFC58460FF046FC33
:10258000E9A20A218C2000F017FFA078012801D0D1
:1025900028B10FE088200FF01DFC504603E0882092
:1025A0000FF018FC58460FF031FCE0A20A21B420CD
:1025B00000F002FFE078012801D028B10FE0882068
:1025C0000FF008FC504603E088200FF003FC58464B
:1025D0000FF01CFCD6A20A21DC2000F0EDFE2079D1
:1025E0004FF48275012801D028B10FE088200FF048
:1025F000F1FB504603E088200FF0ECFB58460FF04B
:1026000005FCCCA20A21284600F0D6FE60794FF4E2
:102610009676012801D028B10FE088200FF0DAFB70
:10262000504603E088200FF0D5FB58460FF0EEFB34
:10263000C1A20A21304600F0BFFEA0794FF4AA786B
:10264000012801D028B10FE088200FF0C3FB5046CD
:1026500003E088200FF0BEFB58460FF0D7FBB7A26F
:102660000A21404600F0A8FEE0794FF4BE79012827
:1026700001D028B10FE088200FF0ACFB504603E0FA
:1026800088200FF0A7FB58460FF0C0FBACA20A2130
:10269000484600F091FE207A012801D028B10FE0D1
:1026A00088200FF097FB504603E088200FF092FB44
:1026B00058460FF0ABFBA3A28621642000F07CFEFD
:1026C000607A012801D028B10FE088200FF082FB4A
:1026D000504603E088200FF07DFB58460FF096FB34
:1026E00099A286218C2000F067FEA07A012801D0F3
:1026F00028B10FE088200FF06DFB504603E08820E2
:102700000FF068FB58460FF081FB90A28621B420A1
:1027100000F052FEE07A012801D028B10FE08820B5
:102720000FF058FB504603E088200FF053FB58464B
:102730000FF06CFB86A28621DC2000F03DFE207BA2
:10274000012801D028B10FE088200FF043FB50464C
:1027500003E088200FF03EFB58460FF057FB7DA2A8
:102760008621284600F028FE607B012801D028B190
:102770000FE088200FF02EFB504603E088200FF07A
:1027800029FB58460FF042FB73A28621304600F029
:1027900013FEA07B012801D028B10FE088200FF0A4
:1027A00019FB504603E088200FF014FB58460FF049
:1027B0002DFB6AA28621404600F0FEFDE07B012849
:1027C00001D028B10FE088200FF004FB504603E051
:1027D00088200FF0FFFA58460FF018FB60A2862100
:1027E000484600F0E9FD207C4FF48177012801D0B4
:1027F00028B10FE088200FF0EDFA504603E0882062
:102800000FF0E8FA58460FF001FB56A23946642053
:1028100000F0D2FD607C012801D028B10FE08820B3
:102820000FF0D8FA504603E088200FF0D3FA58464C
:102830000FF0ECFA4CA239468C2000F0BDFDA07CD4
:10284000012801D028B10FE088200FF0C3FA5046CC
:1028500003E088200FF0BEFA58460FF0D7FA43A2E3
:102860003946B42000F0A8FDE07C012801D028B151
:102870000FE088200FF0AEFA504603E088200FF0FA
:10288000A9FA58460FF0C2FA39A23946DC2000F006
:1028900093FD207D012801D028B10FE088200FF0A2
:1028A00099FA504603E088200FF094FA58460FF04A
:1028B000ADFA30A23946284600F07EFD607D012841
:1028C00001D028B10FE088200FF084FA504603E0D1
:1028D00088200FF07FFA58460FF098FA26A2394662
:1028E000304600F069FDA07D012801D028B10FE03D
:1028F00088200FF06FFA504603E088200FF06AFA44
:1029000058460FF083FA1DA23946404600F054FDA8
:10291000E07D012834D000B142E036E0840300209D
:1029200093551700303031003030320030303300F2
:102930003030340030303500303036003030370041
:102940003030380030303900303130003031310033
:102950003031320030313300303134003031350025
:102960003031360030313700303138003031390005
:102970003032300030323100303232003032330009
:1029800088200FF027FA504603E088200FF022FA43
:1029900058460FF03BFAB9A23946484600F00CFD04
:1029A000207E4FF4BF77012801D028B10FE08820A6
:1029B0000FF010FA504603E088200FF00BFA58464B
:1029C0000FF024FAAEA23946642000F0F5FC607ED8
:1029D000012801D028B10FE088200FF0FBF9504604
:1029E00003E088200FF0F6F958460FF00FFAA5A281
:1029F00039468C2000F0E0FCA07E012801D028B1EF
:102A00000FE088200FF0E6F9504603E088200FF031
:102A1000E1F958460FF0FAF99BA23946B42000F0CC
:102A2000CBFCE07E012801D028B10FE088200FF018
:102A3000D1F9504603E088200FF0CCF958460FF04A
:102A4000E5F992A23946DC2000F0B6FC207F01288F
:102A500001D028B10FE088200FF0BCF9504603E008
:102A600088200FF0B7F958460FF0D0F988A2394600
:102A7000284600F0A1FC607F012801D028B10FE0BA
:102A800088200FF0A7F9504603E088200FF0A2F944
:102A900058460FF0BBF97FA23946304600F08CFC57
:102AA000A07F012801D028B10FE088200FF092F913
:102AB000504603E088200FF08DF958460FF0A6F934
:102AC00075A23946404600F077FCE07F012801D02E
:102AD00028B10FE088200FF07DF9504603E08820F0
:102AE0000FF078F958460FF091F96CA23946484634
:102AF00000F062FC94F820004FF4FD77012801D02B
:102B000028B10FE088200FF065F9504603E08820D7
:102B10000FF060F958460FF079F961A23946642048
:102B200000F04AFC94F82100012801D028B10FE000
:102B300088200FF04FF9504603E088200FF04AF943
:102B400058460FF063F957A239468C2000F034FC48
:102B500094F82200012801D028B10FE088200FF05E
:102B600039F9504603E088200FF034F958460FF049
:102B70004DF94DA23946B42000F01EFC94F8230014
:102B8000012801D028B10FE088200FF023F950462A
:102B900003E088200FF01EF958460FF037F943A2E2
:102BA0003946DC2000F008FC94F82400012801D00C
:102BB00028B10FE088200FF00DF9504603E088207F
:102BC0000FF008F958460FF021F939A23946284686
:102BD00000F0F2FB94F82500012801D028B10FE0A5
:102BE00088200FF0F7F8504603E088200FF0F2F845
:102BF00058460FF00BF92FA23946304600F0DCFBA7
:102C000094F82600012801D028B10FE088200FF0A9
:102C1000E1F8504603E088200FF0DCF858460FF04A
:102C2000F5F825A23946404600F0C6FB94F8270087
:102C3000012801D028B10FE088200FF0CBF85046D2
:102C400003E088200FF0C6F858460FF0DFF81BA20B
:102C50003946484600F0B0FB19490120C870FEF71C
:102C6000B5FA94F8300030B116A003F049FFBDE882
:102C7000F05F13F06FBA16A0F7E7000030323400AF
:102C800030323500303236003032370030323800E2
:102C900030323900303330003033310030333200DD
:102CA00030333300303334003033350030333600C6
:102CB00030333700303338003033390030343000AF
:102CC000580100204368616E6E656C207365740066
:102CD000CDA8B5C0C9E8D6C300000000164901EB75
:102CE000800111ED010A154901EB800151ED010A46
:102CF000134901EB800130EE600A51ED010AB4EE98
:102D0000E00AF1EE10FA09D30E4901EB800050ED14
:102D1000010AB4EEE00AF1EE10FA04DD0A4890F878
:102D20002C00012804D088216FF07F400FF058B8A4
:102D300088214FF47F00F9E7C80900206C080120C2
:102D4000640C0020C40B00208403002010B50B4647
:102D50000C0601F07F0202EB820100EBC10102D5FB
:102D600001F58E7101E001F55D710A70DA094A70B2
:102D70001DF01DFE002010BD0A4610B5090602F028
:102D80007F0306D503EB830100EBC10101F58E71D2
:102D900005E002EB820100EBC10101F55D71002449
:102DA0008C700B70D2094A701DF0E8FD002010BD38
:102DB00010B50A0604D501F07F011DF01BFF01E0EC
:102DC0001DF0FAFE002010BD70B50D460E0601F094
:102DD0007F0404EB840100EBC10102D501F58E7183
:102DE00001E001F55D71ED090C704D708A60CB70EA
:102DF00000D0CC80022B01D100220A711DF08AFD87
:102E0000002070BD10B501F07F0404EB840100EBDD
:102E1000C101C1F88833C1F880230023C1F88C3385
:102E200081F8753381F87443C37801F55D71012B26
:102E300000D10A6114F0FF0F03D01DF0F7FD002050
:102E400010BD1DF0F8FCFAE70069002261F30A12D8
:102E500001681143016070470A4610B5090602F087
:102E60007F0306D503EB830100EBC10101F58E71F1
:102E700005E002EB820100EBC10101F55D71012467
:102E80008C700B70D2094A701DF0B8FD002010BD87
:102E900070B511F07F0404EB840100EBC1014FF029
:102EA000010581F81D5181F81C41C1F82821C1F8A4
:102EB0002C2101F58E714FF00002C1E9053203D0DB
:102EC0001DF0B4FD002070BD1DF0B5FCFAE7000058
:102ED0002DE9F041064600241DF0D5FE074655E0D9
:102EE000F80751D03069E1B20369426BCA4006EB82
:102EF000810102F00102896943EAC2128D6815401E
:102F0000E9071AD00125426B05FA04F18A434263AE
:102F100006EB8400806985601F48E1B20068426862
:102F200030469047F078012807D134B996F811015E
:102F3000042802D130461DF0DBFC280704D506EB3F
:102F40008400082580698560E80604D506EB8400C6
:102F5000102580698560680604D506EB840040254D
:102F600080698560A80704D506EB84000225806986
:102F70008560280608D52146304600F06CF906EB3E
:102F800084018020896988607F08641C002FA7D194
:102F90000120BDE8F0810000B80100202DE9F041DA
:102FA000054600241DF075FE0746DFF8988043E0D3
:102FB000F8073FD0E1B228461DF071FE0646C00773
:102FC00025D005EB84000126416D8E60E97801294A
:102FD0000CD1406D016904EB840005EBC000C1F326
:102FE0001201D0F87C23511AC0F88C13D8F80000D5
:102FF000E1B2026828469047E878012807D134B941
:1030000095F81101052802D128461DF071FCB00782
:1030100004D505EB84000226406D8660300709D593
:10302000D8F8000081682846884705EB840108200D
:10303000496D88607F08641C002FB9D10120BDE86C
:10304000F0810000B801002070B50546C0688169B4
:1030500021F010018161E868066A06F00F0000EBBC
:10306000800005EBC004C6F3434004F55D740728F7
:1030700021D2DFE800F0202004202020150047F6B0
:10308000F070064217D0C6F30A1632462846E168A9
:103090001DF00DFEE0683044E060A069304409E0B6
:1030A000082205F2CC5128461DF001FEA069C6F3A6
:1030B0000A110844A061E868816941F0100181614A
:1030C000012070BD38B5044600208DF8000094F84A
:1030D00012018DF8000015480068416920468847B4
:1030E00020698068E2684FF400615161A17AD1B132
:1030F000C00718D094F81501012814D19DF80000DC
:10310000032810D1D4F80C01016841F001010160DD
:10311000D4F80C01016841F0030101600448016822
:1031200041F006010160012038BD0000B801002017
:1031300010ED00E070B504460069002501264168E5
:1031400021F001014160294620461DF053FD002079
:10315000FF2206E004EB80018B699A60496D8A606A
:10316000401C61788142F5D821694FF0FF308861B9
:103170002846216966F30F0066F31F40C861216984
:1031800045F00B0048612169C1F88400216945F0D0
:103190000B000861216948642069016821F4FE611F
:1031A000016020461DF0A4FBE1684FF480504861A7
:1031B00003480068016920468847012070BD00006F
:1031C000B801002070B504461DF082FD01200023E7
:1031D00084F8120184F814311A46402510E002EBFD
:1031E000820104EBC10181F81D0181F81C21A1F8C5
:1031F000222181F81F31C1E94953521CC1F83031F5
:1032000061789142EBD8002010E000EB800104EBE4
:10321000C10181F8753381F87403A1F87A0381F84C
:103220007733C1E9DF53401CC1F8883361788142AC
:10323000EBD820461DF0DAFA20461DF0B7F9002140
:1032400020461DF0A5FD20461DF0F0F92046BDE802
:1032500070401DF0A9BC2DE9F0470E4601EB860138
:1032600000EBC1048046D4E94C01401AD4F8241183
:1032700004F58E74814200D20846C01C870808EB12
:1032800086091EE0451AA068A84200D20546E81C3F
:103290008708ABB2F2B24046E1681DF08EFDE068EF
:1032A0002844E060A0692844A0616169884208D38D
:1032B000207801218140D8F81000426B8A43426394
:1032C0000BE0D9F81800806980B2B84205D9D4E97A
:1032D0000501814201D20028D4D10120BDE8F08748
:1032E0002DE9F04115460C468046154E4FF42077E7
:1032F00019E0802A0BD21348B061214640460EF0F7
:1033000027F9B0696D1C8088204484B20BE00E4818
:10331000B0612A462146404600F0DEF8B069AD1C97
:103320008088204484B2BC4208D22A78002A05D082
:10333000B0698088011989B28142DAD2BDE8F08192
:1033400060000020A4000020E40000202DE9F041EE
:1033500015460C468046154E4FF4207719E0802A1A
:103360000BD21348B061214640460EF0F1F8B06927
:103370006D1C8088204484B20BE00E48B0612A4660
:10338000214640460EF0FAF8B069AD1C8088204412
:1033900084B2BC4208D22A78002A05D0B06980885D
:1033A000011989B28142DAD2BDE8F08160000020C3
:1033B0009C000020D40000202DE9F04115460C4669
:1033C0008046154E4FF4207719E0802A0BD213481F
:1033D000B061214640460EF0BBF8B0696D1C808894
:1033E000204484B20BE00E48B0612A462146404694
:1033F00000F018F8B069AD1C8088204484B2BC424B
:1034000008D22A78002A05D0B0698088011989B2CB
:103410008142DAD2BDE8F081600000208C000020FB
:10342000EC0000202DE9F04116460F4680460024AE
:103430000D4D0FE032788A420AD105EB40027178D7
:103440005078814204D139464046921C0EF062F910
:10345000641CA4B2C4EBC40000EB400015F81010CB
:103460008029E7D8BDE8F081AEEB02082DE9F041F4
:1034700015460C468046154E4FF4207719E0802AF9
:103480000BD21348B061214640460EF061F8B06996
:103490006D1C8088204484B20BE00E48B0612A463F
:1034A0002146404600F018F8B069AD1C80882044E1
:1034B00084B2BC4208D22A78002A05D0B06980883C
:1034C000011989B28142DAD2BDE8F08160000020A2
:1034D000BC000020DC0000202DE9F04116460F461C
:1034E000804600240C4D0EE032788A4209D1421900
:1034F00071785078814204D139464046921C0EF0D2
:1035000009F9641CA4B204EB8400C0EB8410295CAC
:103510008029E9D8BDE8F081A2D402082DE9F04164
:1035200015460C468046154E4FF4207719E0802A48
:103530000BD21348B061214640460EF009F8B0693D
:103540006D1C8088204484B20BE00E48B0612A468E
:1035500021464046FFF7C0FFB069AD1C808820447B
:1035600084B2BC4208D22A78002A05D0B06980888B
:10357000011989B28142DAD2BDE8F08160000020F1
:10358000C4000020DC0000202DE9F041204E15464B
:103590000C4680466BB3012B38D1882108460EF0CB
:1035A0001FFC28239022414620460EF03DF9BDE83D
:1035B000F04188216FF07F400EF012BC802A0BD2C0
:1035C0001448B061214640460DF0C2FFB0696D1C41
:1035D0008088204484B20EE00F48B0612A4621461C
:1035E00040460DF0CBFFB069AD1C8088204484B20A
:1035F00001E04FF42077BC4208D22A78002A05D097
:10360000B0698088011989B28142D7D2BDE8F081C2
:1036100060000020AC000020D40000202DE9F04123
:10362000204E15460C4680466BB3012B38D18821BD
:1036300008460EF0D5FB1C236022414620460EF0C2
:10364000F3F8BDE8F04188216FF07F400EF0C8BB71
:10365000802A0BD21448B061214640460DF078FF15
:10366000B0696D1C8088204484B20EE00F48B061C0
:103670002A46214640460DF081FFB069AD1C808886
:10368000204484B201E04FF42077BC4208D22A786B
:10369000002A05D0B0698088011989B28142D7D249
:1036A000BDE8F08160000020B4000020D4000020BC
:1036B0002DE9F041204E15460C4680466BB3012B98
:1036C00038D1882108460EF08BFB14233222414664
:1036D00020460EF0A9F8BDE8F04188216FF07F4048
:1036E0000EF07EBB802A0BD21448B06121464046C2
:1036F0000DF02EFFB0696D1C8088204484B20EE06E
:103700000F48B0612A46214640460DF037FFB069A8
:10371000AD1C8088204484B201E04FF42077BC4285
:1037200008D22A78002A05D0B0698088011989B2A8
:103730008142D7D2BDE8F0816000002094000020D3
:10374000D400002010B50121CC0520460FF0C4FFA5
:103750002046BDE8104000210FF0BEBF034A0146DD
:10376000002052680A4200D00120704700B0024099
:1037700030B52A4B00241968294A1140196019688C
:10378000026811431960596B21F007015963596BA5
:10379000426811435963416841B301292DD0022980
:1037A00030D00329C16832D00A0101694469090295
:1037B00024038568214315430D43996B0D439D6395
:1037C0008169D963196C6FF30D011964196CC269B1
:1037D00011431964818C5A6C02F040425A645A6C4D
:1037E000006A024342EA01425A6430BDC168047D66
:1037F0000A02018A09042406DBE7C1680A02018A79
:103800000904D6E7C1684A010169C902D1E74A0142
:10381000016944698902E403CBE7000000B002407B
:10382000FCE0FCFF0248016841F0010101607047C3
:1038300000B002400029016802D041F0010101E01E
:1038400021F001010160704730B50368124ACC686D
:1038500013400A682243D1E905452C432243CC6931
:1038600022430C6A22434C6A22438C6A22434C6BEB
:1038700022438C6B22431A430260426922F0070301
:10388000D1E90B2422431A4342610A6942604A6823
:1038900082608968C16030BD3F801CF00548407A75
:1038A000052803D0062801D0082802D102A01FF065
:1038B000CDB87047F80000202E0000002DE9F04F31
:1038C000F84CF94D2146607A91F80AC09FB009285A
:1038D00060D2DFE810F009000B135F005F00940B6B
:1038E000D30D48145F006F11EE484FF4CD764FF4BE
:1038F0008177C17AEC484FF4BF794FF4FD7A90F8A4
:103900002D2090F827301E93C37F1D93C37D1C93F9
:10391000C37B1B9390F826301A93837F1993837D82
:103920001893837B179390F825301693437F159354
:10393000437D1493437B139390F824301293037FB9
:103940001193037D1093037B0F9390F823300E9314
:10395000C37E0D93C37C0C93C37A0B9390F82230F3
:103960000A93837E0993837C0893837A079390F864
:1039700021300693437E0593437C0493437A03935B
:1039800090F820E090F818B0037C007ABCF1290F81
:103990009ED200E0B0E0DFE81CF02900C300460141
:1039A0002102A40237030B049C042605320670068C
:1039B000B006ED062C076E07B007F20734085E0864
:1039C0008C08B608E20810093E096C099A09B20988
:1039D000CA09E209FB09150A2F0A490A610A7A0A8B
:1039E000930AAC0AC60AE10AFC0A170BAF480EF0AC
:1039F0000DFA88200EF0EEF995F82900022810D073
:103A0000012810D0032810D0042810D0052810D089
:103A1000062810D0072810D0082810D0092810D068
:103A200014E0A3A20EE0A4A20CE0A5A20AE0A6A2C4
:103A300008E0A7A206E0A8A204E0A9A202E0AAA2C8
:103A400000E0ABA264212F200DF0BCFD95F82D0005
:103A500020B1012835D0022851D04AE0E07A40B1A7
:103A600001280BD002280ED0032811D0042814D02E
:103A70001CE028781EF07EFF9FA213E0287A1EF03B
:103A800079FF9EA20EE0287C1EF074FF9CA209E044
:103A9000287E1EF06FFF9BA204E095F820001EF028
:103AA00069FF99A20A2164200DF0C2FD95F830004B
:103AB00028B196A003F024F8012001F09EBA96A048
:103AC000F8E7E07A10B1012805D022E028781EF04E
:103AD00051FF89A203E0287E1EF04CFF89A20A2133
:103AE0006420FFF733FC14E08BA000E087A003F014
:103AF00007F8012004F082FF1FB0BDE8F08FE07AE4
:103B000038B928781EF036FF7BA20A216420FFF71F
:103B100053FC0120A07295F830000028E6D1E3E7BD
:103B2000614F02263F7832B1012A4FD0022AE0D1FC
:103B300000296AD072E241B101290BD002290DD0CF
:103B4000032910D0042913D0F4E738461EF0DAFE1A
:103B500069A211E01EF0D6FE68A20DE018461EF024
:103B6000D1FE67A208E058461EF0CCFE65A203E035
:103B700070461EF0C7FE64A20A2164200DF058FDB5
:103B8000E07A40B101280BD002280ED0032811D0D2
:103B9000042814D0CEE768781EF0ECFE61A213E092
:103BA000687A1EF0E7FE60A20EE0687C1EF0E2FE7E
:103BB0005EA209E0687E1EF0DDFE5DA204E095F8DD
:103BC00021001EF0D7FE5BA20A217EE211B101297D
:103BD0000DD0AFE738461EF095FE47A20A216420BB
:103BE000FFF7B4FB68781EF0C5FE4EA20BE0584606
:103BF0001EF088FE43A20A216420FFF7A7FB687E1F
:103C00001EF0B8FE4AA20A21F7E338461EF07AFEFB
:103C100039A20A216420FFF7CFFB68781EF0AAFEC4
:103C200040A20A21EAE320480326407832B1012A63
:103C300036D0022A7FF411AF81B37BE741B101296D
:103C40000AD002290DD0032910D0042913D071E71E
:103C50001EF058FE33A212E003981EF053FE32A26B
:103C60000DE004981EF04EFE30A208E005981EF00C
:103C700049FE2FA203E006981EF044FE2DA20A2161
:103C8000B4200DF0D5FCE07A48B1012859D00228C3
:103C90005CD003285FD0042862D04BE78DE04BE076
:103CA00068E00000F80000208403002000FFFF000F
:103CB00054432D4B0000000054432D5400000000DD
:103CC00054432D4A0000000054432D4E00000000D4
:103CD00054432D450000000054432D5300000000C4
:103CE00054432D520000000054432D4200000000B8
:103CF0005054313030000000303031003030390065
:103D00003031370030323500303333004368616E74
:103D10006E656C2073657400CDA8B5C0C9E8D6C3C4
:103D200000000000303032003031300030313800D7
:103D30003032360030333400A8781EF01BFEFBA270
:103D400013E0A87A1EF016FEF9A20EE0A87C1EF081
:103D500011FEF8A209E0A87E1EF00CFEF6A204E017
:103D600095F822001EF006FEF4A20A217DE20DF075
:103D70005FFCDFE611B101290DD0DBE61EF0C2FDCC
:103D8000AFF260020A218C20FFF7E0FAA8781EF05B
:103D9000F1FDE6A20CE005981EF0B4FDAFF2700252
:103DA0000A218C20FFF7D2FAA87E1EF0E3FDE2A2E2
:103DB0000A21ECE3FFF7CAFABCE61EF0A3FDAFF25E
:103DC0009C020A218C20FFF7F7FAA8781EF0D2FD9A
:103DD000D6A20A21F4E3FFF7EFFAABE6D8480426AF
:103DE000807832B1012A51D0022A7FF436AE89B3ED
:103DF000A0E641B101290AD002290DD0032910D033
:103E0000042913D096E61EF07DFDC8A212E00798A3
:103E10001EF078FDC6A20DE008981EF073FDC5A245
:103E200008E009981EF06EFDC3A203E00A981EF098
:103E300069FDC2A20A214FF482700DF0F9FBE07A0D
:103E400048B101280CD002280FD0032812D0042832
:103E500015D06FE638E0E8781EF08CFDB9A213E0CB
:103E6000E87A1EF087FDB8A20EE0E87C1EF082FD25
:103E7000B6A209E0E87E1EF07DFDB5A204E095F84B
:103E800023001EF077FDB3A20A217BE211B10129C4
:103E90000CD04FE61EF036FDA4A20A21B420FFF795
:103EA00055FAE8781EF066FDA6A20BE009981EF010
:103EB00029FDA1A20A21B420FFF748FAE87E1EF0EE
:103EC00059FDA3A20A21F2E31EF01CFD97A20A21CC
:103ED000B420FFF771FAE8781EF04CFD99A20A2190
:103EE000F8E39748C07832B1012A57D0022A7FF40C
:103EF00003AEE9B373E041B101290AD002290DD024
:103F0000032910D0042913D01BE01EF0FBFC8DA266
:103F100012E00B981EF0F6FC8BA20DE00C981EF040
:103F2000F1FC8AA208E00D981EF0ECFC88A203E0E8
:103F30000E981EF0E7FC87A20A214FF4AA700DF03C
:103F400077FB00200DF062FF83480DF043FF95F8EA
:103F50002900022871D0012870D003286FD00428CE
:103F60006ED005286DD006286CD007286BD000E0F5
:103F700039E0082868D0092867D003E064212F20A1
:103F80000DF020FB95F8300008B174A000E07AA095
:103F900002F0B6FD06F0AEF800209EE211B1012954
:103FA0000CD01CE01EF0AEFC66A20A21DC20FFF75C
:103FB000CDF928791EF0DEFC73A20BE00D981EF0FF
:103FC000A1FC63A20A21DC20FFF7C0F9287F1EF0C4
:103FD000D1FC6EA20A214FF48270FFF7B7F90120DD
:103FE00004F00CFD61E21EF08DFC56A20A21DC20DB
:103FF000FFF7E2F928791EF0BDFC63A20A214FF415
:104000008270FFF7D9F9EAE74D480626007932B108
:10401000012A5CD0022A7FF420ADD1B3F6E241B18F
:10402000012913D0022916D0032919D004291CD044
:10403000ECE21EF067FC54A21BE05BE25DE25FE293
:1040400061E263E265E267E269E26BE20F981EF00B
:1040500059FC4FA20DE010981EF054FC4DA208E050
:1040600011981EF04FFC49A203E012981EF04AFC82
:1040700049A24FF4A57164200DF0DAFAE07A48B154
:1040800001280CD002280FD0032812D0042815D004
:10409000BCE23CE068791EF06DFC40A213E0687B56
:1040A0001EF068FC3EA20EE0687D1EF063FC3DA29F
:1040B00009E0687F1EF05EFC3BA204E095F8250055
:1040C0001EF058FC39A24FF4A571B4204FE611B18F
:1040D00001290DD09AE21EF015FC2BA20A214FF403
:1040E0008270FFF733F968791EF044FC2BA20CE0D4
:1040F00011981EF007FC25A20A214FF48270FFF7E9
:1041000025F9687F1EF036FC27A20A219DE31EF0E8
:10411000F9FB1DA20A214FF48270FFF74DF968796F
:104120001EF028FC1DA20A21A2E30000303033005B
:104130003031310030313900303237003033350022
:10414000840300203030340030313200303230000F
:10415000303238003033360000FFFF00546865729B
:104160006D6F636F75706C65206D6F64656C207327
:10417000656C656374000000C8C8B5E7C5BCD0CDE8
:10418000BAC5D1A1D4F10000303035003032390049
:1041900030313300303231003033370030303600C8
:1041A00030313400303232003033300030333800B8
:1041B000F7480726407932B1012A59D0022A7FF404
:1041C0004CACB1B3E5E341B101290BD002290FD0CA
:1041D000032913D0042917D0DBE31EF093FBAFF2C1
:1041E000440216E013981EF08DFBAFF24C0210E073
:1041F00014981EF087FBAFF254020AE015981EF0E7
:1042000081FBAFF25C0204E016981EF07BFBAFF27C
:1042100064024FF4A571B4200DF00AFAE07A48B1B7
:1042200001280CD002280FD0032812D0042815D062
:10423000AFE33FE0A8791EF09DFBD6A213E0A87B78
:104240001EF098FBD4A20EE0A87D1EF093FBD3A233
:1042500009E0A87F1EF08EFBD1A204E095F82600AD
:104260001EF088FBCFA24FF4A5714FF482707EE55B
:1042700011B101290ED08CE31EF044FBAFF2E40231
:104280000A214FF49670FFF761F8A8791EF072FBCF
:10429000C0A20DE015981EF035FBAFF2F4020A2122
:1042A0004FF49670FFF752F8A87F1EF063FBBCA294
:1042B0000A210CE31EF026FBAFF220120A214FF474
:1042C0009670FFF779F8A8791EF054FBB1A20A2185
:1042D00010E3AF480826807932B1012A55D0022A6E
:1042E0007FF407AC91B354E341B101290AD002290C
:1042F0000DD0032910D0042913D04AE31EF002FB8D
:10430000A4A212E017981EF0FDFAA3A20DE01898DF
:104310001EF0F8FAA1A208E019981EF0F3FAA0A284
:1043200003E01A981EF0EEFA9EA24FF4A5714FF426
:1043300082700DF07DF9E07A48B101280CD0022896
:104340000FD0032812D0042815D022E33DE0E879ED
:104350001EF010FB94A213E0E87B1EF00BFB93A26F
:104360000EE0E87D1EF006FB91A209E0E87F1EF05A
:1043700001FB90A204E095F827001EF0FBFA8EA244
:104380004FF4A5714FF4AA70F1E411B101290DD0D9
:10439000FFE21EF0B7FA7FA20A214FF4AA70FEF7DF
:1043A000D5FFE8791EF0E6FA7FA20CE019981EF01E
:1043B000A9FA7BA20A214FF4AA70FEF7C7FFE87F93
:1043C0001EF0D8FA7BA20A21C3E21EF09BFA71A26A
:1043D0000A214FF4AA70FEF7EFFFE8791EF0CAFA3F
:1043E00071A20A21C8E26A48C07942B1012A5ED0AE
:1043F000022A7FF481ABA1B3FBE02AE13AE141B1AB
:1044000001290AD002290DD0032910D0042913D084
:104410004BE01EF077FA64A212E01B981EF072FACD
:1044200062A20DE01C981EF06DFA61A208E01D98D2
:104430001EF068FA5FA203E01E981EF063FA5EA207
:104440004FF4A5714FF4AA700DF0F2F8E07A48B17C
:1044500001280DD0022811D0032815D0042819D026
:1044600023E062E028791EF085FAAFF2E42217E03B
:10447000287B1EF07FFAAFF2E82211E0287D1EF0C3
:1044800079FAAFF2F0220BE0287F1EF073FAAFF258
:10449000043205E095F824001EF06CFAAFF2083201
:1044A0004FF4A57164200DF0C3F8052015E0C1B1EB
:1044B00001299ED11D981EF025FA3EA20A214FF433
:1044C000BE70FEF743FF287E1EF054FAAFF2CC72A6
:1044D0000A216420FEF73AFF0120A0721FB0BDE858
:1044E000F08F1EF00FFA30A20A214FF4BE70FEF7D3
:1044F0002DFF26E5AFF6480240E5AFF644023DE564
:10450000AFF644023AE5AFF6400237E5AFF64002B7
:1045100034E5AFF63C0231E5AFF63C022EE5AFF6EE
:1045200038022BE5AFF6380228E51EF0EBF91EA2A3
:104530000A214FF4BE70FEF73FFF00200DF066FC2D
:104540001E480DF047FC95F82900022810D00128DC
:1045500011D0032812D0042813D0052814D006281F
:104560002FD0072830D0082831D0092832D037E0A2
:10457000AFF6C40230E0AFF6C0022DE0AFF6C002E5
:104580002AE0AFF6BC0227E0AFF6BC0224E09FE0D1
:1045900084030020303037003031350030323300B2
:1045A00030333100303339003030380030313600AC
:1045B00030323400303332003034300000FFFF003E
:1045C00099E0AFF6EC0207E0AFF6EC0204E0AFF6DC
:1045D000E80201E0AFF6E80264212F200CF0F2FFC0
:1045E00095F8300040B1AFF28C4002F089FA00201B
:1045F000A07205F07FFD71E7AFF28440F5E70A266F
:10460000012A04D0022A7FF474AA29B3C1E111B1AE
:1046100001290ED0BDE11EF075F9AFF62012D221AE
:104620006420FEF793FE687A1EF0A4F9AFF6081234
:104630000EE070461EF066F9AFF63412D221642007
:10464000FEF784FE95F821001EF094F9AFF61C12D7
:10465000D2218C20FFF7AEBB1EF054F9AFF66412E6
:1046600086216420FEF7A8FE687A1EF083F9AFF673
:10467000481286218C20FFF7AEBB0B26012A03D0FF
:10468000022AC0D139B384E111B1012910D080E1EF
:1046900003981EF037F9AFF67012D2218C20FEF786
:1046A00055FEA87A1EF066F9AFF27C520FE04EE09C
:1046B00006981EF027F9AFF68412D2218C20FEF75F
:1046C00045FE95F822001EF055F9AFF29052D22126
:1046D000B420BFE74CE0FFE703981EF013F9AFF6F4
:1046E000B81286218C20FEF767FEA87A1EF042F9E8
:1046F000AFF2C4528621B420BDE70C26012A03D0B4
:10470000022ABED129B344E111B101290FD040E101
:1047100007981EF0F7F8AFF2E852D221B420FEF766
:1047200015FEE87A1EF026F9AFF2E4520EE00A9880
:104730001EF0E8F8AFF2FC52D221B420FEF706FEDC
:1047400095F822001EF016F9AFF2F852D221DC20C3
:1047500080E707981EF0D6F8AFF22C628621B420CD
:10476000FEF72AFEE87A1EF005F9AFF224628621F0
:10477000DC2080E70D26012A03D0022AC1D131B303
:1047800007E111B101290FD003E10B981EF0BAF82F
:10479000AFF24C62D221DC20FEF7D8FD287B1EF060
:1047A000E9F8AFF214620EE00E981EF0ABF8AFF22B
:1047B0005C62D221DC20FEF7C9FD95F824001EF0D2
:1047C000D9F8AFF22C62D2214FF4827042E70B98F5
:1047D0001EF098F8AFF290628621DC20FEF7ECFD27
:1047E000287B1EF0C7F8AFF2586286214FF4827022
:1047F00041E70E26012A03D0022ABFD141B3C8E007
:1048000011B1012910D0C4E00F981EF07BF8AFF26F
:104810008062D2214FF48270FEF798FD687B1EF013
:10482000A9F8AFF284620FE012981EF06BF8AFF2B5
:104830009862D2214FF48270FEF788FD95F825002A
:104840001EF098F8AFF29C62D2214FF4967001E707
:104850000F981EF057F8AFF2C86286214FF48270AD
:10486000FEF7AAFD687B1EF085F8AFF2CC628621C8
:104870004FF49670FFE60F26012A03D0022ABCD11E
:1048800041B386E011B1012910D082E013981EF0E7
:1048900039F8AFF2F462D2214FF49670FEF756FD6C
:1048A000A87B1EF067F8AFF210320FE016981EF0EA
:1048B00029F8AFF20872D2214FF49670FEF746FD48
:1048C00095F826001EF056F8AFF22832D2214FF4A8
:1048D000AA70BFE613981EF015F8AFF23C7286215D
:1048E0004FF49670FEF768FDA87B1EF043F8AFF218
:1048F000583286214FF4AA70BDE61026012A03D053
:10490000022ABCD141B344E011B1012910D040E0EA
:1049100017981DF0F7FFAFF28032D2214FF4AA7042
:10492000FEF714FDA87B1EF025F8AFF280320FE0F1
:104930001A981DF0E7FFAFF29432D2214FF4AA701B
:10494000FEF704FD95F827001EF014F8AFF2983238
:10495000D2214FF4BE707DE617981DF0D3FFAFF261
:10496000C83286214FF4AA70FEF726FDE87B1EF0C0
:1049700001F8AFF2C83286214FF4BE707BE60926FB
:10498000012A03D0022ABCD149B302E021B1012996
:1049900012D0A672FFF7ADB81B981DF0B3FFAFF2AF
:1049A000F432D2214FF4BE70FEF7D0FC287A1DF00D
:1049B000E1FFAFF6B8420FE01E981DF0A3FFAFF283
:1049C0000842D2214FF4BE70FEF7C0FC95F82000DB
:1049D0001DF0D0FFAFF6D042D22164203AE61B98FA
:1049E0001DF090FFAFF23C4286214FF4BE70FEF7FF
:1049F000E3FC287A1DF0BEFFAFF60052862164204A
:104A000039E64FF01208012A03D0022AC2D189B137
:104A100036E118461DF076FFAFF61C523146642091
:104A2000FEF794FC687C1DF0A5FFAFF600523146FE
:104A30008C2028E018461DF065FFAFF63C52394641
:104A40006420FEF7B9FC687C1DF094FFAFF6245299
:104A500039468C202AE04FF01308012A03D0022A9D
:104A600098D199B10CE104981DF04CFFAFF6445277
:104A700031468C20FEF76AFCA87C1DF07BFFAFF668
:104A80004C123146B420FEF761FCF9E004981DF0A9
:104A900039FFAFF6685239468C20FEF78DFCA87CB2
:104AA0001DF068FFAFF674123946B420FEF784FC9F
:104AB000E6E04FF01408012A03D0022AA6D189B1FA
:104AC000DEE008981DF01EFFAFF698123146B420C4
:104AD000FEF73CFCE87C1DF04DFFAFF6901231462E
:104AE000DC20D0E708981DF00DFFAFF6B81239466C
:104AF000B420FEF761FCE87C1DF03CFFAFF6B41279
:104B00003946DC20D2E74FF01508012A03D0022AEB
:104B1000A6D191B1B4E00C981DF0F4FEAFF6D4121A
:104B20003146DC20FEF712FC287D1DF023FFAFF696
:104B30009C1231464FF48270A5E70C981DF0E2FEFE
:104B4000AFF6F8123946DC20FEF736FC287D1DF062
:104B500011FFAFF6C01239464FF48270A6E74FF04E
:104B60001608012A03D0022AA8D199B188E010982A
:104B70001DF0C8FEAFF6E41231464FF48270FEF726
:104B8000E5FB687D1DF0F6FEAFF6E81231464FF406
:104B9000967078E710981DF0B5FEAFF608223946FA
:104BA0004FF48270FEF708FC687D1DF0E3FEAFF65F
:104BB0000C2239464FF4967078E74FF01708012A17
:104BC00003D0022AA4D199B15AE014981DF09AFE9C
:104BD000AFF6302231464FF49670FEF7B7FBA87D52
:104BE0001DF0C8FEAFF24C6231464FF4AA704AE79E
:104BF00014981DF087FEAFF6542239464FF4967094
:104C0000FEF7DAFBA87D1DF0B5FEAFF27062394603
:104C10004FF4AA704AE74FF01808012A03D0022A7D
:104C2000A2D199B12CE018981DF06CFEAFF29462FD
:104C300031464FF4AA70FEF789FBE87D1DF09AFE1D
:104C4000AFF2946231464FF4BE701CE718981DF025
:104C500059FEAFF2B86239464FF4AA70FEF7ACFBCA
:104C6000E87D1DF087FEAFF2B86239464FF4BE70A2
:104C70001CE74FF01108012A05D0022AA2D1A1B1E8
:104C800084F80A8086E61C981DF03CFEAFF2E062D4
:104C900031464FF4BE70FEF759FB287C1DF06AFECA
:104CA000AFF6A47231466420EDE61C981DF02AFE92
:104CB000AFF2047239464FF4BE70FEF77DFB287CDC
:104CC0001DF058FEAFF6C87239466420EEE6022A9F
:104CD000D8D191B958461DF015FEAFF6D8724E46A0
:104CE00049466420FEF768FB687E1DF043FEAFF680
:104CF000C07231468C20FEF75FFB1A207DE1022A4C
:104D0000C0D191B905981DF0FDFDAFF6DC724E469D
:104D100049468C20FEF750FBA87E1DF02BFEAFF617
:104D2000E8323146B420FEF747FB1B2065E1022A3A
:104D3000A8D191B909981DF0E5FDAFF604424E46A1
:104D40004946B420FEF738FBE87E1DF013FEAFF6AF
:104D500000423146DC20FEF72FFB1C204DE1022AE9
:104D600090D199B90D981DF0CDFDAFF61C424E467D
:104D70004946DC20FEF720FB287F1DF0FBFDAFF647
:104D8000F43231464FF48270FEF716FB1D2034E1F9
:104D9000022A9DD1A1B911981DF0B4FDAFF61442BD
:104DA0004E4649464FF48270FEF706FB687F1DF0C1
:104DB000E1FDAFF60C4231464FF49670FEF7FCFA77
:104DC0001E201AE1022A9BD1A1B915981DF09AFD67
:104DD000AFF62C424E4649464FF49670FEF7ECFA79
:104DE000A87F1DF0C7FDAFF6480231464FF4AA7008
:104DF000FEF7E2FA1F2000E1022A99D1A1B9199821
:104E00001DF080FDAFF668024E4649464FF4AA7089
:104E1000FEF7D2FAE87F1DF0ADFDAFF6680231462D
:104E20004FF4BE70FEF7C8FA2020E6E0022A97D1C0
:104E300091B91D981DF066FDAFF688024E464946B1
:104E40004FF4BE70FEF7B8FA287E1DF093FDF64AC7
:104E500031466420FEF7B0FA1920CEE0022A98D13C
:104E600099B970461DF04EFDEF4A5646121D514647
:104E70006420FEF7A1FA95F821001DF07BFDEA4AB7
:104E8000314630328C20FEF797FA2220B5E0022A14
:104E900099D199B906981DF035FDE34A564630324E
:104EA00051468C20FEF788FA95F822001DF062FD2D
:104EB000AFF678523146B420FEF77EFA23209CE00C
:104EC000022A9AD199B90A981DF01CFDAFF69452A6
:104ED00056465146B420FEF76FFA95F823001DF0B0
:104EE00049FDAFF690523146DC20FEF765FA2420EA
:104EF00083E0022A9BD1A1B90E981DF003FDAFF605
:104F0000AC5256465146DC20FEF756FA95F824007E
:104F10001DF030FDAFF6805231464FF48270FEF73F
:104F20004BFA252069E0022A99D1A9B912981DF0FF
:104F3000E9FCAFF69C52564651464FF48270FEF79C
:104F40003BFA95F825001DF015FDAFF6A05231464D
:104F50004FF49670FEF730FA26204EE0022A97D1E1
:104F6000A9B916981DF0CEFCAFF6C0525646514670
:104F70004FF49670FEF720FA95F826001DF0FAFC23
:104F8000AFF6E01231464FF4AA70FEF715FA27206B
:104F900033E0022A95D1A9B91A981DF0B3FCAFF6F7
:104FA000FC12564651464FF4AA70FEF705FA95F8E2
:104FB00027001DF0DFFCAFF6002231464FF4BE7033
:104FC000FEF7FAF9282018E0022A93D1A1B91E9819
:104FD0001DF098FCAFF62022564651464FF4BE70A5
:104FE000FEF7EAF995F820001DF0C4FC8E4A314620
:104FF000121D6420FEF7E0F92120A072CAE44FF4EC
:10500000FA76BCF1320F6ED016DCBCF12C0F37D023
:10501000BCF12D0F6DD0BCF12E0F7DD0BCF1310F46
:105020007FF45CAA1DF090FC95F82E00F0B30128E7
:1050300073D0022872D0BCE1BCF15F0F6FD0BCF11D
:10504000610F6DD0BCF1620FEAD11DF07DFC95F8C7
:105050003B3095F83A2075A1684630351CF06AFD62
:105060006A469621F8200CF0ADFA687923F054FADC
:10507000287870B370A001F043FD3320FFF72DBAFC
:105080001DF062FC95F82C00002895F830001DD02A
:1050900010B36DA2962132200CF094FA1DF07AFC28
:1050A00095F82A00002895F8300000E06BE115D053
:1050B000D8B165A296215A200CF084FA95F83000F8
:1050C000A8B162A001F01CFD2D20D7E710B163A2AA
:1050D000E0E756E162A2DDE763A2DBE708B15FA289
:1050E000E8E75FA2E6E78BE103E05FA2E2E760A00A
:1050F000E8E71DF029FC95F82A00002895F8300013
:105100002CD070B350A296215A200CF05BFA5B4869
:1051100001460CF065FE04E03DE03BE141E1D1E0F9
:1051200005E11F2318227F2196200CF07DFB95F8C6
:105130002B0005281AD004284FF0000020D00CF0D6
:1051400065FE4FA29B217F200CF03CFA95F83000C1
:10515000F8B14CA001F0D4FC2E208FE710B13FA293
:10516000D1E701E03EA2CEE73FA2CCE700200CF061
:105170004DFE4AA296217F20FEF71EF948A2E1E7E4
:105180000CF044FE45A296217F20FEF715F932A2CD
:10519000D8E744A0DEE7882108460CF021FE1F2353
:1051A00018227F2196200CF03FFB95F82B00052854
:1051B0001FD00428314826D00CF028FE30A29B21B5
:1051C0007F200CF0FFF91DF0E5FB95F83600002874
:1051D00095F8300020D020B31BA29621AA200CF015
:1051E000F1F995F83000F0B132A001F089FC5F20B0
:1051F00044E722480CF00AFE28A296217F20FEF701
:10520000DBF827A2DBE70CF001FE24A296217F2029
:10521000FEF7D2F810A2D2E708B110A2DDE710A283
:10522000DBE711A2D9E74BE0043D000825302E3220
:10523000643A25302E3264005265636F72642069CF
:105240006E74657276616C004F4E000042757A7A1A
:105250006572204F4E2F4F46460000004F464600D5
:10526000B9D8B1D500000000B4F2BFAA0000000018
:10527000B7E4C3F9C6F7C9E8D6C3000000FFFF00D2
:105280004B00000053656C6563742074656D706538
:1052900072617475726520756E6974006F0000002C
:1052A00043000000CEC2B6C8B5A5CEBBD1A1D4F193
:1052B00000000000547269672054696D6572000037
:1052C000F9A092E71DF040FB95F83600002895F80C
:1052D000300020D030B3AFF290029621AA200CF01B
:1052E00071F91DF057FB95F8393095F83820AFF279
:1052F000C401684630351CF01DFC6A469621D0205A
:105300000CF060F9287880B1EAA001F0F9FB0120E7
:1053100060706120B2E610B1AFF2C002DDE7AFF21B
:10532000C002DAE7AFF2C002D7E7E5A0EDE71DF073
:105330000BFB95F8393095F83820AFF2101168461C
:1053400030351CF0F7FB6A469621D0200CF03AF974
:105350001DF020FBEB7AAA7AAFF2301168461CF000
:10536000E9FB6A469621F8200CF02CF9287830B138
:10537000D7A001F0C5FB0120607062207EE6D7A0B7
:10538000F7E7DAA077E695F8300008B1DBA20CE089
:10539000DCA20AE095F8300008B1DCA205E0DCA24E
:1053A00003E095F8300090B1DBA2314632200CF0DA
:1053B00009F91DF0EFFA95F82F0050B101280AD035
:1053C00002280AD003280AD004280AD00EE0D4A26A
:1053D000EBE7D5A206E0D6A204E0D7A202E0D8A26D
:1053E00000E0D9A2314657200CF0ECF895F83000D7
:1053F00020B1D7A001F084FB32203FE6D9A0F9E725
:105400001DF0A2FA95F82F0040B1012808D002281B
:1054100008D0032808D0042808D00CE0C2A206E077
:10542000C3A204E0C4A202E0C5A200E0C6A23146C5
:1054300057200CF0C7F81DF0ADFA95F8370000289A
:1054400095F830000ED0A0B1AFF204223146822090
:105450000CF0B8F895F8300070B1C5A001F050FB21
:1054600060200BE610B1AFF20C22EFE7AFF2102292
:10547000ECE7AFF20C22E9E7BFA0EFE7C14DC24E67
:10548000C24895ED212AD6ED214A407B96ED194A76
:10549000D6ED113A96ED093AD6ED012AD5ED191A55
:1054A00095ED111AD5ED090A95ED010AACF1380C0C
:1054B000BCF10F0FBFF412A8DFE80CF00A3E72A88F
:1054C000DEF0EF08EEEDECEBEAE9E800FFF706B8F6
:1054D00040B101280CD0022812D0032818D004288B
:1054E0001ED027E002201DF07BFE95ED000A1EE095
:1054F000B0EE600A02201DF073FE95ED080A16E07A
:10550000B0EE410A02201DF06BFE95ED100A0EE090
:10551000B0EE610A02201DF063FE95ED180A06E068
:10552000B0EE420A02201DF05BFE95ED200A01203C
:105530001DF0C8FD3920A1E540B101280CD002289A
:1055400012D0032818D004281ED027E002201DF016
:10555000B9FD95ED020A1EE0B0EE600A02201DF0D2
:10556000B1FD95ED0A0A16E0B0EE410A02201DF0E9
:10557000A9FD95ED120A0EE0B0EE610A02201DF0C1
:10558000A1FD95ED1A0A06E0B0EE420A02201DF0D8
:1055900099FD95ED220A03201DF022FE3A206DE5CB
:1055A00040B101280ED0022814D003281AD00428B4
:1055B00020D029E095ED020A03201DF083FD95ED32
:1055C000030A1EE095ED0A0A03201DF07BFD95ED10
:1055D0000B0A16E095ED120A03201DF073FD95ED00
:1055E000130A0EE095ED1A0A03201DF06BFD95EDF0
:1055F0001B0A06E095ED220A03201DF063FD95EDE0
:10560000230A04201DF0ECFD3B2037E540B10128C2
:105610000ED0022814D003281AD0042820D029E064
:1056200095ED030A04201DF04DFD95ED040A1EE0E2
:1056300095ED0B0A04201DF045FD95ED0C0A16E0D2
:1056400095ED130A04201DF03DFD95ED140A0EE0C2
:1056500095ED1B0A04201DF035FD95ED1C0A06E0B2
:1056600095ED230A04201DF02DFD95ED240A05205B
:105670001DF0B6FD3C2001E588B1012810D00228BC
:105680000FD003280ED004280DD0ABE05CE225E259
:10569000EEE1B7E180E149E112E1DBE0A4E077E08F
:1056A0007EE085E08CE093E0B6A8CAB1B2C9BCAF99
:1056B0000000000053746172742054696D6500002D
:1056C000B2C9BCAFBFAACABCCAB1BCE400000000EA
:1056D000456E642054696D6500000000B2C9BCAF1E
:1056E000BDE1CAF8CAB1BCE400000000BCC7C2BC3E
:1056F000BCE4B8F4CAB1BCE4000000004641535415
:1057000000000000BFECCBD9000000004D45440074
:10571000D6D0CBD900000000534C4F5700000000FA
:10572000C2FDCBD900000000393630300000000047
:10573000313932303000000033383430300000006E
:10574000353736303000000031313532303000002E
:1057500053656C6563742042617564207261746581
:1057600000000000B2A8CCD8C2CAC9E8D6C3000065
:105770005245504541540000D6D8B8B4B2C9BCAF68
:1057800000000000640C0020C40B0020F800002082
:1057900095ED040A05201DF095FC95ED050A1EE027
:1057A00095ED0C0A05201DF08DFC95ED0D0A16E017
:1057B00095ED140A05201DF085FC95ED150A0EE007
:1057C00095ED1C0A05201DF07DFC95ED1D0A06E0F7
:1057D00095ED240A05201DF075FC95ED250A06209F
:1057E0001DF0FEFC3D2049E440B101280ED0022806
:1057F00014D003281AD0042820D029E095ED050AFA
:1058000006201DF05FFC95ED060A1EE095ED0D0AE1
:1058100006201DF057FC95ED0E0A16E095ED150AD1
:1058200006201DF04FFC95ED160A0EE095ED1D0AC1
:1058300006201DF047FC95ED1E0A06E095ED250AB1
:1058400006201DF03FFC95ED260A07201DF0C8FC40
:105850003E2013E440B101280ED0022814D00328C2
:105860001AD0042820D029E095ED060A07201DF063
:1058700029FC95ED070A1EE095ED0E0A07201DF0A4
:1058800021FC95ED0F0A16E095ED160A07201DF094
:1058900019FC95ED170A0EE095ED1E0A07201DF084
:1058A00011FC95ED1F0A06E095ED260A07201DF074
:1058B00009FC95ED270A08201DF092FC3F2004E426
:1058C00040B101280ED0022814D003281AD0042891
:1058D00020D029E0B0EE620A02201DF041FB96EDD7
:1058E000000A1EE0B0EE430A02201DF039FB96EDDF
:1058F000080A16E0B0EE630A02201DF031FB96EDB7
:10590000100A0EE0B0EE440A02201DF029FB96EDCD
:10591000180A06E0B0EE640A02201DF021FB96EDA5
:10592000200A01201DF086FA412016E440B101282A
:105930000ED0022814D003281AD0042820D029E041
:10594000B0EE620A02201DF075FA96ED020A1EE022
:10595000B0EE430A02201DF06DFA96ED0A0A16E039
:10596000B0EE630A02201DF065FA96ED120A0EE011
:10597000B0EE440A02201DF05DFA96ED1A0A06E028
:10598000B0EE640A02201DF055FA96ED220A0320BB
:105990001DF0E6FA42202BE440B101280ED0022887
:1059A00014D003281AD0042820D029E096ED020A4A
:1059B00003201DF03FFA96ED030A1EE096ED0A0A59
:1059C00003201DF037FA96ED0B0A16E096ED120A49
:1059D00003201DF02FFA96ED130A0EE096ED1A0A39
:1059E00003201DF027FA96ED1B0A06E096ED220A29
:1059F00003201DF01FFA96ED230A04201DF0B0FAD3
:105A0000432087E440B101280ED0022814D0032897
:105A10001AD0042820D029E096ED030A04201DF0B6
:105A200009FA96ED040A1EE096ED0B0A04201DF01B
:105A300001FA96ED0C0A16E096ED130A04201DF00B
:105A4000F9F996ED140A0EE096ED1B0A04201DF0FC
:105A5000F1F996ED1C0A06E096ED230A04201DF0EC
:105A6000E9F996ED240A05201DF07AFA442051E464
:105A700040B101280ED0022814D003281AD00428DF
:105A800020D029E096ED040A05201DF0D3F996ED0B
:105A9000050A1EE096ED0C0A05201DF0CBF996EDE7
:105AA0000D0A16E096ED140A05201DF0C3F996EDD7
:105AB000150A0EE096ED1C0A05201DF0BBF996EDC7
:105AC0001D0A06E096ED240A05201DF0B3F996EDB7
:105AD000250A06201DF044FA45201BE440B10128A8
