:020000040800F2
:1000000058320220C10100086F5601084926010834
:100010006D560108C9120008874C02080000000054
:1000200000000000000000000000000045950108ED
:100030002D6700080000000051570108FD980108D5
:10004000DB010008DB010008DB010008DB01000820
:10005000DB010008DB010008DB010008DB01000810
:10006000DB010008DB010008DB010008DB01000800
:10007000DB010008DB010008DB010008DB010008F0
:10008000DB010008DB010008DB010008DB010008E0
:10009000DB010008DB010008DB010008DB010008D0
:1000A000DB010008DB010008DB010008DB010008C0
:1000B000DB010008DB010008DB010008DB010008B0
:1000C000DB010008DB010008DB010008DB010008A0
:1000D000DB0100083D340208DB010008DB010008F9
:1000E000DB010008DB010008DB010008DB01000880
:1000F000DB010008DB010008DB010008DB01000870
:10010000DB0100086D7C0108DB010008DB01000851
:10011000DB010008DB01000895990108DB010008FC
:10012000DB010008DB010008DB010008653B00087B
:10013000DB010008DB010008DB010008DB0100082F
:10014000DB010008DB010008DB010008155701088E
:10015000DB010008DB010008DB010008DB0100080F
:10016000DB010008DB0100082D57010821570108B9
:10017000DB01000839570108DB010008DB0100083A
:10018000DB010008DB010008DB010008DB010008DF
:10019000DB010008DB010008DB010008DB010008CF
:1001A000DB010008DB010008DB010008DFF80CD0F0
:1001B00000F078FC00480047217202085832022003
:1001C0000648804706480047FEE7FEE7FEE7FEE7F1
:1001D000FEE7FEE7FEE7FEE7FEE7FEE739990108E6
:1001E000AD0100082DE9F05F0546002092469B46D0
:1001F00088460646814640241BE02846414647463D
:10020000224600F0A8FA53465A46C01A914110D32C
:1002100011461846224600F08FFA2D1A67EB0108A6
:100220004F4622460120002100F086FA17EB000914
:100230004E41201EA4F10104DFDC484631462A4627
:100240004346BDE8F09FD2B201E000F8012B491E01
:10025000FBD270470022F6E710B513460A46044663
:100260001946FFF7F0FF204610BD421E12F8013F6D
:10027000002BFBD111F8013B02F8013B002BF9D117
:10028000704710B5044604E00B7800F8013B03B159
:10029000491C521EF8D2204610BD421C10F8011B0A
:1002A0000029FBD1801A704710B5002200E0521CD3
:1002B000835C8C5CA34201D1002BF8D1D8B2E1B2AF
:1002C000401A10BD034611F8012B00F8012B002A3B
:1002D000F9D11846704770B5064625F0BFFC046892
:1002E00005460A220021304600F0A6FA2C6070BDB7
:1002F0002DE9FE4F804681EA0300C00F0C460090B6
:1003000021F0004123F00045B8EB0200A94105D2DD
:100310004046214690461C460B46024623F00040CC
:10032000104347D0270DC7F30A00C3F30A510290C8
:10033000401A019040286BDAC3F3130040F4801B8D
:100340000098924620B10023D2EB030A63EB0B0B1B
:1003500001985946C0F14002504600F0EDF90646BA
:100360000D4650465946019A00F005FA10EB080078
:100370006141002487EA115284EAE7731A4340D0AE
:10038000009A62B3019A012A4FEA075215DC001B5A
:1003900061EB02014FF0004202EA0752CDE9004250
:1003A000001C41F5801132462B4600F0C3FA03B021
:1003B000BDE8F08F40462146F9E7001B61EB0201E2
:1003C000001C41F5801300185B412018A2F50017AE
:1003D00047EB030140EAD570B6196D4111E06D0895
:1003E0004FEA360645EAC0754FEA0752001B61EB3B
:1003F0000201001C41F5801149084FEA3000001944
:10040000514132462B4603B0BDE8F04F00F083BAAD
:100410000098012240000023D0EB020263EBE0735E
:10042000009821464FEAE074B8EB000061EB04014C
:10043000E9E783F000435BE781F0004158E72DE9ED
:10044000FE4F81EA030404F0004421F000410094CF
:100450004FF0000B23F0004350EA01045ED052EA53
:1004600003045BD0C3F30A54C1F30A552C44A4F22D
:10047000F3340194A0FB0254C1F3130141F4801141
:10048000C3F3130343F4801301FB024400FB034E48
:10049000840A970A44EA815447EA8357A4FB076811
:1004A00002958D0A05FB07854FEA932C04FB0C543B
:1004B0002705029D4FEA065847EA1637B5EB0805AF
:1004C0006EEB070C870E920E47EA811742EA831201
:1004D000A7FB0201B6EB0B0164EB00042B0D43EA12
:1004E0000C335E1844EB1C50DA465146E7FB020120
:1004F000C5F313044FEA0B3343EA14534FEA0432B3
:10050000019C43EA0603A4F10C040294009CCDE98B
:1005100000B400F00FFA03B0BDE8F08F00200146F0
:10052000F9E72DE9F04D81EA030404F0004B21F0D6
:10053000004514464FF0000A23F0004150EA05023E
:1005400020D054EA01021DD0C5F30A570246C5F374
:100550001303C1F31300C1F30A5640F4801543F4AA
:100560008013A7EB0608101BD64608F2FD3873EB84
:10057000050002D308F1010801E092185B41B8F1CF
:10058000000F03DA00200146BDE8F08D00204FF493
:100590008011064684460EE0171B73EB050705D352
:1005A000121B63EB050306434CEA010C49084FEAB2
:1005B000300092185B4150EA0107EDD152EA030086
:1005C00012D082EA040083EA0501084305D0101B1B
:1005D000AB4106D20122002306E000224FF0004387
:1005E00002E06FF0010253101AEB06004CEB0851C9
:1005F00010EB0A0041EB0B01BDE8F04D00F08BB9A8
:100600000EB540F2334102910021CDE900110A46B6
:100610000B4600F08FF903B000BDC1F30A5210B5CC
:10062000C1F3130140F2FF3341F480119A4201DA21
:10063000002010BD40F233439A42A2F2334203DC61
:10064000524200F088F810BD904010BD00F000420A
:1006500030F000400AD0C10D01F56071C0F3160002
:1006600042EA0151C2084007114370470020014689
:100670007047000030B5041E71F1000404DB4FF038
:100680000044404264EB0101141E73F1000405DBD9
:100690001C464FF00043524263EB04038B4208BFF9
:1006A000824230BD30B5041E71F1000404DB4FF00E
:1006B0000044404264EB0101141E73F1000405DBA9
:1006C0001C464FF00043524263EB0403994208BFBB
:1006D000904230BD01F0004330B421F0004150EAB7
:1006E000010206D00A0DA2F56072C1F31301002ABF
:1006F00002DC30BC00207047440F44EAC104C10052
:10070000E01830BC00EBC25000F0CEB830B50B465C
:10071000014600202022012409E021FA02F59D4231
:1007200005D303FA02F5491B04FA02F52844151E05
:10073000A2F10102F1DC30BD202A04DB203A00FAEC
:1007400002F1002070479140C2F1200320FA03F328
:10075000194390407047202A04DB203A21FA02F026
:100760000021704721FA02F3D040C2F120029140EB
:10077000084319467047202A06DBCB17203A41FA76
:1007800002F043EAE07306E041FA02F3D040C2F11E
:100790002002914008431946704700000FB400231F
:1007A00000B589B00CA900910B996FF00042CB60A5
:1007B0001E4B06931E4B07930423CDE901321D4ABD
:1007C000089202466B46002000F020FA09B05DF85E
:1007D00014FB70B586B006464FF0FF300091CDE9AE
:1007E0000101002015460C4604903246694604A8D3
:1007F000FFF7D4FF02460498211825B108B1084636
:1008000000E020462860049800280DD0002A02DD70
:100810000098884208D0081B0094CDE901043246B4
:10082000694604A8FFF7BAFF06B070BD450E000880
:10083000630E0008D10A00082DE9F04791460F46E3
:1008400080460446002614F8015B2DB100F03CF907
:100850000068405DC007F6D12B2D02D02D2D18D099
:10086000641E4A463946204600F00CFB27B1396821
:10087000A14201D1C7F8008071054FF002040BD5E9
:100880004042002803DD25F0E9F90460A007BDE837
:10089000F08746F48066E4E70028F8DA25F0DEF910
:1008A00004606FF00040F2E70029A8BF7047401CC9
:1008B000490008BF20F00100704710B4B0FA80FC76
:1008C00000FA0CF050EA010404BF10BC704749B1B3
:1008D000CCF1200421FA04F411FA0CF118BF012123
:1008E00021430843A3EB0C01CB1D4FEA00614FEA03
:1008F000102042BF002010BC704700EBC3501044D2
:100900000029A4BF10BC7047401C490008BF20F05C
:10091000010010BC704710B5141E73F1000408DA12
:10092000401C41F1000192185B411A4301D120F0B3
:10093000010010BD2DE9F04D92469B4611B1B1FA70
:1009400081F202E0B0FA80F220329046FFF7F4FE26
:1009500004460F4640EA0A0041EA0B0153465A4654
:10096000084313D0114653EA010019D0C8F14002E0
:100970005046FFF7F0FE05460E46504659464246A1
:10098000FFF7DAFE084305D0012004E0204639468F
:10099000BDE8F08D0020054346EAE0762C4337435E
:1009A0000A986305E40AA0EB08000022FD0A44EA65
:1009B00047540A3002D500200146E9E70105101925
:1009C0006941DDE9084500196941BDE8F04DA2E73C
:1009D0002DE9F04D00231A461B1A8A4103DB002043
:1009E0000146BDE8F08DC1F30A52C1F3130141F491
:1009F00080154FF0000BD10702D100186D41521E37
:100A00000027044640F2FF11384601EB620A3E46D9
:100A10008046024600204FF48011FFF79CFEC21969
:100A20007141BB1846EB0100B4EB030C75EB000CF5
:100A300004D3E41A65EB000517460E46241908F1A5
:100A400001006D4180463428E3DDF91946EB0600CC
:100A5000091BA84103D24FF0FF32134601E00022E8
:100A600013461BEB070046EB0A51BDE8F04DFFF7BC
:100A700052BFC1F30A52C1F3130140F2FF3341F4F4
:100A800080119A4202DA00200146704740F2334357
:100A90009A42A2F2334202DC5242FFF75CBEFFF7F9
:100AA0004BBE0000064C074D06E0E06840F0010335
:100AB00094E8070098471034AC42F6D3FFF77AFB6E
:100AC000E86704080868040800487047706704086D
:100AD00010B50446FFF7F8FF0068005D00F0010064
:100AE00010BD00002DE9FF4F087883B09946FF281C
:100AF00005D0491C2D2804D00024002008E0002047
:100B00000BE00124F9E700EB800003EB4000491CF7
:100B10000B78FF2BF7D104B14042002302931478E5
:100B200019461D462D2C01D02B2C04D1521C2D2CE6
:100B300013D000240294AA461478FF2C0FD00A2563
:100B4000A3FB057801FB05814FF0000C03FB0C11A2
:100B5000521CE3194AEB0101EEE70124EAE7814464
:100B600053EA010002D019F5C87F06DA0398002184
:100B7000C0E9001107B0BDE8F08F0025AE4E2F464A
:100B8000DFF8B882184600F0DAF9CDE90001B9F1D2
:100B9000000002DAC9F1000400E004460023A74A7D
:100BA0001AEB030B42EB045A12E0E00707D02A4687
:100BB000334638464146FFF742FC074688462A46F8
:100BC000334610461946FFF73AFC05460E466410B8
:100BD000002CEAD1DDE90001B9F1000F5A46534675
:100BE00006DAFFF79EFC3A464346FFF79AFC05E01B
:100BF000FFF725FC3A464346FFF721FC029A0AB16B
:100C000081F00041039AC2E90001B3E72DE9FF4FEB
:100C10001F468DB0D7E901464FF0FF382E204546DC
:100C20004FF000090B90B9696D1C0E988847396A1E
:100C3000824688470028F6D1BAF1FF3F0AD024F453
:100C4000D064002E11DDBAF12B0F08D0BAF12D0FB0
:100C50000BD102E0404611B08DE744F48064B969DD
:100C60006D1C0E9888478246761E6946600501D540
:100C70002D2000E02B208DF8000001F1010B0DF17B
:100C8000200809E0B9696D1C0E98884782460F98C4
:100C900044F40074761E0560002E02DDBAF1300FB8
:100CA000F0D00B998A453ED144F0800406E00F99BC
:100CB000681CA9F1010944F400740860B9696D1C4D
:100CC000761E0E98884782463028F0D02BE00B998C
:100CD0008A4505D1200603D444F08004761E18E02E
:100CE000504625F0F9F808B30DF11301761E44F4CF
:100CF00000748B4508D2AAF130000BF8010B2006D6
:100D000007D5A9F1010003E0200602D409F1010092
:100D10008146A00502D50F99681C0860B9696D1C51
:100D20000E9888478246002ED1DC53E0002E51DD1C
:100D3000BAF1650F02D0BAF1450F4BD1A00549D5E4
:100D4000B9696D1C24F44074761E0E98884782465B
:100D5000002E0CDD2B2804D0BAF12D0F07D144F45E
:100D60008074B9696D1C0E9888478246761EE0052E
:100D700001D52D2100E02B2108F8011BCDF82C8096
:100D800021E00DF12901761E44F4007488450CD24F
:100D9000AAF1300010F0FF0088F8000002D10B9992
:100DA000884509D908F1010806E0E00501D5244885
:100DB00001E042F20F708146B9696D1C0E988847B8
:100DC00082460F980560002E04DD504625F084F819
:100DD0000028D6D1F9690E988847FF208BF80000CB
:100DE00088F800000020069007904B466A4608A944
:100DF00006A8FFF777FEA00502D46FF001002AE7EE
:100E000014F0240F0AD0E00714D1DDE90612386887
:100E1000031D3B600068C0E900120BE0DDE906013C
:100E2000FFF758FC0146E00704D13868021D3A601C
:100E30000068016028460EE7000014400000F03F03
:100E4000F1D8FFFF426842B1016811F8013B23B1BC
:100E5000521EC0E90012184670470121C160881E69
:100E6000704742685AB1C368016843B983688B42CE
:100E700005D0491E521CC0E90012002070474FF0F7
:100E8000FF3070472DE9F05F824600780027154655
:100E90008B460AF10104B946302801D09DB113E018
:100EA00014F8010B0127782803D0582801D045B148
:100EB0000AE00DB1102D07D10027102514F8010B01
:100EC00002E0082500E00A250026B0460EE005FBFA
:100ED000080005FB06F1012701EB10461FFA80F818
:100EE000B6F5803F00D3B94614F8010B294600F04F
:100EF00018F80028EBDABBF1000F05D00FB1641E23
:100F000000E05446CBF80040B9F1000F06D024F0C1
:100F1000A5FE02210160C81EBDE8F09F48EA064018
:100F2000FAE73A2800D2303820F02002412A01D3D3
:100F3000A2F13700884201D34FF0FF3070470EB561
:100F400040F2334202920022CDE900221346FFF71D
:100F5000F1FC03B000BD70B58C1810F8015B15F002
:100F6000070301D110F8013B2A1106D110F8012B1B
:100F700003E010F8016B01F8016B5B1EF9D12B0740
:100F800005D40023521E0DD401F8013BFAE710F8F6
:100F9000013BCB1A921C03E013F8015B01F8015BE3
:100FA000521EF9D5A142D8D3002070BD154810B506
:100FB000C17AF1B1022920D0082905D0092920D110
:100FC000BDE8104027F0E8B8017B007C0F4A01EB38
:100FD000C0005338C0B29FED0C0A02EB80005239BA
:100FE00080ED000AC8B226F03DFBBDE8104018F0C5
:100FF000ABBABDE8104028F085BDBDE8104019F03F
:101000001BB810BD3802002000000000F0FF0020D7
:101010000029816802D041F0010101E021F00101C5
:1010200081607047084B10B5D3F8042307490A4084
:10103000D0E900142143D0E9024004432143114385
:10104000C3F8041310BD000000200140E030FCFF95
:101050000029816802D041F4807101E021F480719F
:10106000816070470029816802D041F4007101E07D
:1010700021F400718160704730B542680F4B0C79E4
:101080001A400B6842EA04221343436082680C4B07
:101090004D791A40D1E9034323438C6844EA45045F
:1010A000234313438360C26A097D22F47002491E00
:1010B000C9B242EA0151C16230BD0000FFFEFFFC2F
:1010C000FDF7FFC070B5072409290AD9C568A1F149
:1010D0000A0606EB4606B440A543B3401D43C5606F
:1010E00007E0056901EB4106B440A543B3401D4349
:1010F00005611F23072A09D2446B521E02EB8202AC
:1011000093409C4391400C43446370BD0D2A09D227
:10111000046BD21F02EB820293409C4391400C432C
:10112000046370BDC46A0D3A02EB820293409C4393
:1011300091400C43C46270BD816841F08041816080
:1011400070470000F0B532489FED300ADFED310AFC
:1011500080ED010AA0F20C720023C0ED020A1946CC
:101160002D4FA0F1A00492F833600AE012F801C0FC
:10117000BCF1000F03D154F821C0BC450CDB491C65
:10118000C9B28E42F2D8012D06D080ED000A80ED62
:10119000010A80ED020AF0BD0021204D2BE000BFC6
:1011A00012F801C0BCF1000F23D104EB810CDCED7F
:1011B000000A10EE90CABC451BDA05EB810C5B1CE3
:1011C0009CED001ADBB270EEC10A90ED011A30EE10
:1011D000800AF4EEC10AF1EE10FA01DDC0ED010A59
:1011E00090ED021AF4EEC10AF1EE10FA01D2C0ED50
:1011F000020A491CC9B28E42D2D800EE903AF8EEEB
:10120000600A80EE201A80ED001AF0BD0000000098
:101210001C0A012000E0F94400E0F944F0FF00203E
:101220000B48C17A0D290DD2DFE801F00C0C0C0C33
:10123000090F0F070F0C0C0C0D0025F053BB007BA2
:10124000332802D070470348007825F003BB000024
:10125000380200203000002000210D4A0846135CAF
:10126000012B00D10121401CC0B22828F7D3094826
:10127000012908D10649503991F82A10012902D1D3
:101280000549097811B1002118F0B6BC0121FBE72E
:101290006003012000040140430200201CB54FF40C
:1012A0008070009001208DF8040000218DF8061058
:1012B0008DF807008DF805106946024811F058F9BD
:1012C0001CBD000000000240FEE7000010B5074C06
:1012D0000121204618F090FC4FF6FF7005F08AFAC5
:1012E0002046BDE81040002118F086BC00040140F3
:1012F00010B5044639202AF0F1FEE0B22AF012FFC0
:10130000C4F307202AF00EFFC4F307402AF00AFFB7
:10131000200E2AF007FF2AF0D1FEBDE8104024F08D
:101320009DBA70B5064614460D463C202AF0D6FEFE
:10133000E8B22AF0F7FE280A2AF0F4FE2AF0BEFEF0
:101340000CB1002011E024F089FA1E280FD130469C
:1013500000F035F905463D202AF0C0FE2AF0AEFE29
:101360002E44002CEFD0208828442080EBE770BD6D
:1013700010B514F01DFA08B100F069F8BDE810408E
:10138000302000F0B2B8312000F0AFB8014636206E
:1013900000F09EB810B508B100F0C6F8BDE81040E6
:1013A000342000F0A2B870B5054600F0A7F804009C
:1013B0000DD00146284600F021F8412807D0142816
:1013C00003D0422800D1B32070BD432070BD28193E
:1013D000BDE87040FFF7DEBF10B5044600F0A4F88A
:1013E00020785C2801D02F2803D10021642000F050
:1013F000FCF8BDE81040322000F077B870B5054623
:1014000000200E46012401E0641CE4B2295D5C2941
:1014100013D02F2911D00029F6D100242844FFF73A
:10142000DBFF002C08D0B44206D041280AD0142893
:1014300006D0422800D1B32070BD641CE4B2EDE7B1
:10144000432070BD2046E1E7FF21FFF7D7BF10B56D
:1014500022202AF043FE322005F0CCF92AF034FE97
:1014600004462AF02BFE204610BD2DE9F0412AF05B
:101470002BFE06462AF028FE05462AF025FE0446E5
:101480002AF022FE07462AF019FE46EA052040EA25
:10149000044040EA0760BDE8F08110B504460C2026
:1014A0002AF01CFE20462AF03DFEBDE81040FFF762
:1014B000DCBF10B504460A202AF010FE20462AF0B0
:1014C00031FE2AF001FE04462AF0F8FD204610BD48
:1014D00010B50C462AF002FE20462AF023FE2AF020
:1014E000EDFDBDE8104024F0B9B910B52AF0F6FDC5
:1014F0002AF0E4FDBDE8104024F0B0B9014600E058
:10150000491C0A78002AFBD106E000BF11F8012D22
:101510005C2A03D02F2A01D08142F7D1814200D02A
:10152000491C081AC0B2704770B5054601202AF060
:10153000D5FD2AF0C9FD432828D22B20FFF7B9FF9B
:10154000102823D22F202AF0C9FD00202AF0EAFD1E
:101550003220FFF7CAFF142818D1CF20FFF7A9FFC8
:10156000040013D04C20FFF798FF00EB04214C201F
:1015700000F03BF85020FFF790FF00EB04215020D3
:1015800000F033F80021702000F02FF82F202AF00F
:10159000A5FD2C7806E000BF15F8014F5C2C0AD0A1
:1015A0002F2C08D020462AF0BDFD002CF4D1BDE838
:1015B00070402AF083BD00202AF0B4FDF7E770B533
:1015C00005462D202AF08AFD2AF07EFD04002646DD
:1015D00007D028782AF0A6FD641E6D1C14F0FF04C5
:1015E000F7D12AF06BFD304670BD70B505460C464C
:1015F0000D202AF073FD28462AF094FDE0B22AF06F
:1016000091FDC4F307202AF08DFDC4F307402AF0B2
:1016100089FD200E2AF086FDBDE870402AF04EBDFF
:101620002DE9F04188B00121812014F0CDF801218D
:10163000080314F005F9DFF8C8800522114640467A
:1016400010F0E7FF05220621404610F0E2FF0522D8
:101650000721404610F0DDFF02258DF805508DF87A
:101660000450002420278DF8064000978DF807408D
:101670006946404610F07CFF402000906946404695
:1016800010F076FF802000906946404610F070FF11
:101690001020012600908DF804608DF80640694600
:1016A000404610F065FF8DF8044000978DF8076004
:1016B0006946144810F05CFFADF808404FF48270A2
:1016C000ADF80A00ADF810602802ADF8120038201D
:1016D000ADF81400ADF80C40ADF8164007200A4CE8
:1016E000ADF81800ADF80E5002A9204617F09BFE89
:1016F0000121204617F092FC08B0BDE8F0810000FF
:1017000000000240001C024000300140F0B5FF2301
:101710001A46002418E0055D6A40002502F0010623
:1017200013F0010F4FEA53034FEA520201D042F087
:1017300080021EB183F0A00382F001026D1CEDB2A5
:10174000082DEBD3641CE4B28C42E4D342EA0320BC
:10175000F0BD00002DE9F047F748F84FF84C00784D
:101760004FF482754FF4AA764FF470484FF4A57980
:1017700040B1012874D0022873D0032872D0042805
:1017800071D03CE32078012801D028B10FE08820F7
:1017900012F08EFB384603E0882012F089FB4046A9
:1017A00012F0A2FBE7A20A21642011F099FF6078F1
:1017B000012801D028B10FE0882012F079FB3846CB
:1017C00003E0882012F074FB404612F08DFBDEA28D
:1017D0000A21B42011F084FFA078012801D028B19B
:1017E0000FE0882012F064FB384603E0882012F0F6
:1017F0005FFB404612F078FBD4A20A21284611F084
:101800006FFFE078012801D028B10FE0882012F0A6
:101810004FFB384603E0882012F04AFB404612F0A6
:1018200063FBCBA20A21304611F05AFF2079012830
:1018300001D028B10FE0882012F03AFB384603E0CF
:10184000882012F035FB404612F04EFBC1A24946FB
:10185000642011F045FF6079012805D048B113E0FC
:1018600039E0D7E0ABE149E2882012F021FB3846AD
:1018700003E0882012F01CFB404612F035FBB6A2B4
:101880004946B42011F02CFFA079012801D028B1DD
:101890000FE0882012F00CFB384603E0882012F09D
:1018A00007FB404612F020FBACA24946284611F047
:1018B00017FFE079012801D028B1A0E2882012F0BA
:1018C000F7FA384603E0882012F0F2FA404612F0A8
:1018D0000BFBA3A28FE2207A01284FF0880079D079
:1018E00012F0E6FA4FEA080012F0FEFA9DA20A2171
:1018F000642011F0F5FE607A01284FF088006DD069
:1019000012F0D6FA4FEA080012F0EEFA96A20A2177
:10191000B42011F0E5FEA07A01284FF0880061D0D4
:1019200012F0C6FA4FEA080012F0DEFA8FA20A217E
:10193000284611F0D5FEE07A01284FF0880055D0F6
:1019400012F0B6FA4FEA080012F0CEFA88A20A2185
:10195000304611F0C5FE207B01284FF0880049D0A9
:1019600012F0A6FA4FEA080012F0BEFA81A2494628
:10197000642011F0B5FE607B01284FF088003DD057
:1019800012F096FA4FEA080012F0AEFA7AA249462F
:10199000B42011F0A5FEA07B01284FF0880031D0C3
:1019A00012F086FA4FEA080012F09EFA73A2494636
:1019B000284611F095FEE07B01284FF0880025D0E5
:1019C00012F076FA4FEA080012F08EFA6CA212E2D8
:1019D00000E003E012F06CFA384685E712F068FA8E
:1019E000384691E712F064FA38469DE712F060FA43
:1019F0003846A9E712F05CFA3846B5E712F058FA13
:101A00003846C1E712F054FA3846CDE712F050FAE2
:101A10003846D9E7207C01284FF0880078D012F0B2
:101A200047FA404612F060FA56A20A21642011F0EB
:101A300057FE607C01284FF088006DD012F038FA14
:101A40004FEA080012F050FA4FA20A21B42011F018
:101A500047FEA07C01284FF0880061D012F028FAE0
:101A60004FEA080012F040FA48A20A21284611F075
:101A700037FEE07C01284FF0880055D012F018FAAC
:101A80004FEA080012F030FA41A20A21304611F064
:101A900027FE207D01284FF0880049D012F008FA77
:101AA0004FEA080012F020FA3AA24946642011F0E9
:101AB00017FE607D01284FF0880074D012F0F8F90D
:101AC0004FEA080012F010FA33A24946B42011F090
:101AD00007FEA07D01284FF0880068D012F0E8F9D9
:101AE0004FEA080012F000FA2CA24946284611F0ED
:101AF000F7FDE07D01284FF088005CD012F0D8F9A6
:101B00004FEA080012F0F0F925A274E100E003E0CA
:101B100012F0CEF9384685E712F0CAF9384691E757
:101B200012F0C6F938469DE712F0C2F93846A9E727
:101B300012F0BEF93846B5E745020020935517006C
:101B400010030120303031003030320030303300AB
:101B5000303034003030350030303600303037002F
:101B60003030380030303900303130003031310021
:101B70003031320030313300303134003031350013
:101B800030313600303137003031380030313900F3
:101B900030323000303231003032320030323300F7
:101BA00030323400FFE712F083F938468AE712F04A
:101BB0007FF9384696E712F07BF93846A2E7207E97
:101BC00001284FF0880079D012F072F94FEA08002E
:101BD00012F08AF9A5A20A21642011F081FD607E2D
:101BE00001284FF088006DD012F062F94FEA08002A
:101BF00012F07AF99EA20A21B42011F071FDA07EA4
:101C000001284FF0880061D012F052F94FEA080025
:101C100012F06AF997A20A21284611F061FDE07ED0
:101C200001284FF0880055D012F042F94FEA080021
:101C300012F05AF990A20A21304611F051FD207F8E
:101C400001284FF0880049D012F032F94FEA08001D
:101C500012F04AF989A24946642011F041FD607FE3
:101C600001284FF088003DD012F022F94FEA080019
:101C700012F03AF982A24946B42011F031FDA07F5A
:101C800001284FF0880031D012F012F94FEA080015
:101C900012F02AF97BA24946284611F021FDE07F87
:101CA00001284FF0880025D012F002F94FEA080011
:101CB00012F01AF974A29EE000E003E012F0F8F8C6
:101CC000384685E712F0F4F8384691E712F0F0F85C
:101CD00038469DE712F0ECF83846A9E712F0E8F82C
:101CE0003846B5E712F0E4F83846C1E712F0E0F8FC
:101CF0003846CDE712F0DCF83846D9E794F82000F2
:101D000001284FF088007DD012F0D2F84FEA080089
:101D100012F0EAF85DA20A21642011F0E1FC94F8C7
:101D2000210001284FF088006DD012F0C1F8404624
:101D300012F0DAF856A20A21B42011F0D1FC94F87E
:101D4000220001284FF0880075D012F0B1F840460B
:101D500012F0CAF84FA20A21284611F0C1FC94F8EB
:101D6000230001284FF0880069D012F0A1F8404606
:101D700012F0BAF848A20A21304611F0B1FC94F8EA
:101D8000240001284FF088005DD012F091F8404601
:101D900012F0AAF841A24946642011F0A1FC94F87F
:101DA000250001284FF0880051D012F081F84046FC
:101DB00012F09AF83AA24946B42011F091FC94F836
:101DC000260001284FF0880045D012F071F84046F7
:101DD00012F08AF833A24946284611F081FC94F8A3
:101DE000270001284FF0880039D012F061F84046F2
:101DF00012F07AF82CA24946304611F071FC01200D
:101E00002A4901E00EE012E0C870FFF75FFA94F88B
:101E1000300040B326A000BF05F00AFABDE8F04745
:101E200017F092BB12F044F8384671E703E012F065
:101E30003FF838467CE712F03BF8384688E712F066
:101E400037F8384694E712F033F83846A0E712F036
:101E50002FF83846ACE712F02BF83846B8E712F006
:101E600027F83846C4E715A0D6E700003032350021
:101E700030323600303237003032380030323900FC
:101E80003033300030333100303332003033330000
:101E900030333400303335003033360030333700E0
:101EA000303338003033390030343000C001002086
:101EB0004368616E6E656C2073657400CDA8B5C013
:101EC000C9E8D6C3000000002DE9F05FF948DFF84B
:101ED000E8A3FA4C00784FF482754FF496764FF4ED
:101EE000AA784FF4BE794FF4704B10B101286ED030
:101EF00049E32078012801D028B10FE0882011F0B3
:101F0000D7FF504603E0882011F0D2FF584611F069
:101F1000EBFFEBA20A21642001F0B0FB60780128FE
:101F200001D028B10FE0882011F0C2FF504603E035
:101F3000882011F0BDFF584611F0D6FFE1A20A211A
:101F40008C2001F09BFBA078012801D028B10FE084
:101F5000882011F0ADFF504603E0882011F0A8FF63
:101F6000584611F0C1FFD8A20A21B42001F086FB27
:101F7000E078012801D028B10FE0882011F098FF07
:101F8000504603E0882011F093FF584611F0ACFF53
:101F9000CEA20A21DC2001F071FB2079012801D0BA
:101FA00028B10FE0882011F083FF504603E088201D
:101FB00011F07EFF584611F097FFC5A20A2128466E
:101FC00001F05CFB6079012802D030B110E0C6E17D
:101FD000882011F06DFF504603E0882011F068FF63
:101FE000584611F081FFBBA20A21304601F046FBA2
:101FF000A079012801D028B10FE0882011F058FF06
:10200000504603E0882011F053FF584611F06CFF52
:10201000B1A20A21404601F031FBE079012801D04C
:1020200028B10FE0882011F043FF504603E08820DC
:1020300011F03EFF584611F057FFA8A20A2148466A
:1020400001F01CFB94F83300082872D9207A01288B
:1020500001D028B10FE0882011F02AFF504603E09C
:10206000882011F025FF584611F03EFF9CA2D22196
:10207000642001F003FB607A012801D028B10FE051
:10208000882011F015FF504603E0882011F010FF62
:10209000584611F029FF93A2D2218C2001F0EEFACC
:1020A000A07A012801D028B10FE0882011F000FFAC
:1020B000504603E0882011F0FBFE584611F014FF53
:1020C00089A2D221B42001F0D9FAE07A012801D006
:1020D00028B10FE0882011F0EBFE504603E0882085
:1020E00011F0E6FE584611F0FFFE80A2D221DC205E
:1020F00001F0C4FA207B012801D028B10FE088202C
:1021000011F0D6FE504603E0882011F0D1FE58466B
:1021100011F0EAFE76A2D221284601F0AFFA607BE8
:10212000012801D030B110E0882011F0C1FE5046E6
:1021300004E034E0882011F0BBFE584611F0D4FED4
:102140006CA2D221304601F099FAA07B012801D07F
:1021500028B10FE0882011F0ABFE504603E0882044
:1021600011F0A6FE584611F0BFFE63A2D2214046F0
:1021700001F084FAE07B012801D028B10FE088202B
:1021800011F096FE504603E0882011F091FE58466B
:1021900011F0AAFE59A2D221484601F06FFA94F834
:1021A000330010286FD9207C4FF4CD77012801D05F
:1021B00028B10FE0882011F07BFE504603E0882014
:1021C00011F076FE584611F08FFE4DA2394664207C
:1021D00001F054FA607C012801D028B10FE088207A
:1021E00011F066FE504603E0882011F061FE58466B
:1021F00011F07AFE43A239468C2001F03FFAA07C10
:10220000012801D028B10FE0882011F051FE50467E
:1022100003E0882011F04CFE584611F065FE3AA20A
:102220003946B42001F02AFAE07C012801D028B117
:102230000FE0882011F03CFE504603E0882011F0AA
:1022400037FE584611F050FE30A23946DC2001F02E
:1022500015FA207D012801D028B10FE0882011F067
:1022600027FE504603E0882011F022FE584611F068
:102270003BFE27A23946284601F000FA607D01287E
:1022800002D030B110E07EE1882011F011FE5046FE
:1022900003E0882011F00CFE584611F025FE1DA227
:1022A0003946304601F0EAF9A07D012834D000B16A
:1022B00042E036E04502002093551700100301204C
:1022C00030303100303032003030330030303400C4
:1022D00030303500303036003030370030303800A4
:1022E000303039003031300030313100303132009F
:1022F0003031330030313400303135003031360088
:102300003031370030313800303139003032300070
:102310003032310030323200882011F0C9FD504691
:1023200003E0882011F0C4FD584611F0DDFDC1A284
:102330003946404601F0A2F9E07D012801D028B1DC
:1023400021E1882011F0B4FD504603E0882011F00F
:10235000AFFD584611F0C8FDB7A2394610E1207E06
:1023600001284FF088007DD011F0A2FD4FEA0B004C
:1023700011F0BAFDB1A20A21642001F07FF9607E5C
:1023800001284FF088006ED011F092FD4FEA0B004B
:1023900011F0AAFDAAA20A218C2001F06FF9A07EFB
:1023A00001284FF088007DD011F082FD4FEA0B002C
:1023B00011F09AFDA3A20A21B42001F05FF9E07E9A
:1023C00001284FF088006ED011F072FD4FEA0B002B
:1023D00011F08AFD9CA20A21DC2001F04FF9207F38
:1023E00001284FF088007CD011F062FD4FEA0B000D
:1023F00011F07AFD95A20A21284601F03FF9607F8D
:1024000001284FF088006DD011F052FD4FEA0B000B
:1024100011F06AFD8EA20A21304601F02FF9A07F4B
:1024200001284FF088007DD011F042FD4FEA0B00EB
:1024300011F05AFD87A20A21404601F01FF9E07F02
:1024400001284FF088006ED011F032FD4FEA0B00EA
:1024500011F04AFD80A20A21484601F00FF994F8D4
:10246000200001E09EE0A3E001284FF088007DD02D
:1024700011F01EFD4FEA0B0011F036FD77A2D221BC
:10248000642001F0FBF894F8210001284FF0880047
:102490006DD011F00DFD584611F026FDD22170A22D
:1024A0008C2001E088E08BE001F0E8F894F822004D
:1024B00001284FF0880079D011F0FAFC4FEA0B00A8
:1024C00011F012FD67A2D221B42001F0D7F894F8E0
:1024D000230001284FF0880069D011F0E9FC58462C
:1024E00001E071E074E011F0FFFC5FA2D221DC207A
:1024F00001F0C4F894F8240001284FF088006FD050
:1025000011F0D6FC4FEA0B0011F0EEFC57A2D221DD
:10251000284601F0B3F894F8250001284FF0880010
:1025200079D001E058E05CE011F0C2FC4FEA0B000A
:1025300011F0DAFC4EA2D221304601F09FF894F857
:10254000260001284FF0880069D011F0B1FC5846F0
:1025500011F0CAFC47A2D221404601F08FF894F84E
:10256000270001284FF088005DD001E03DE040E009
:1025700011F09EFC4FEA0B0011F0B6FC3EA2D221F6
:10258000484601F07BF83D490120C870FEF79EFEE9
:1025900094F8300088B33AA004F04AFEBDE8F05F3A
:1025A00016F0D2BF11F084FC5046E1E627E02AE0A5
:1025B00011F07EFC5046EBE611F07AFC5046F7E64F
:1025C00011F076FC504603E711F072FC50460FE71D
:1025D00011F06EFC50461BE711F06AFC504627E7ED
:1025E00015E011F065FC504632E711F061FC5046F1
:1025F00042E711F05DFC50464EE718E00BE011F0A9
:1026000057FC50465CE711F053FC504668E711F068
:102610004FFC504678E711F04BFC504688E711F02C
:1026200047FC504694E711F043FC5046A4E717A03E
:10263000B2E700003032330030323400303235003F
:102640003032360030323700303238003032390024
:102650003033300030333100303332003033330028
:102660003033340030333500303336003033370008
:10267000303338003033390030343000C0010020AE
:102680004368616E6E656C2073657400CDA8B5C03B
:10269000C9E8D6C3000000002DE9F05FF84CDFF870
:1026A000E4A34FF4704B2078012801D028B10FE04B
:1026B000882011F0FDFB504603E0882011F0F8FB64
:1026C000584611F011FCF0A20A21642001F00CF828
:1026D0006078012801D028B10FE0882011F0E8FBD4
:1026E000504603E0882011F0E3FB584611F0FCFB54
:1026F000E6A20A218C2000F0F7FFA078012801D083
:1027000028B10FE0882011F0D3FB504603E0882069
:1027100011F0CEFB584611F0E7FBDDA20A21B420F0
:1027200000F0E2FFE078012801D028B10FE0882016
:1027300011F0BEFB504603E0882011F0B9FB58466B
:1027400011F0D2FBD3A20A21DC2000F0CDFF2079CA
:102750004FF48275012801D028B10FE0882011F0D4
:10276000A7FB504603E0882011F0A2FB584611F069
:10277000BBFBC9A20A21284600F0B6FF60794FF4DE
:102780009676012801D028B10FE0882011F090FB47
:10279000504603E0882011F08BFB584611F0A4FB53
:1027A000BEA20A21304600F09FFFA0794FF4AA791B
:1027B000012801D028B10FE0882011F079FB5046A4
:1027C00003E0882011F074FB584611F08DFBB4A291
:1027D0000A21484600F088FFE0794FF4BE780128CE
:1027E00001D028B10FE0882011F062FB504603E0D1
:1027F000882011F05DFB584611F076FBA9A20A2152
:10280000404600F071FF94F83300082872D9207A0E
:10281000012801D028B10FE0882011F049FB504673
:1028200003E0882011F044FB584611F05DFB9EA2A6
:102830008621642000F058FF607A012801D028B179
:102840000FE0882011F034FB504603E0882011F09F
:102850002FFB584611F048FB94A286218C2000F0F3
:1028600043FFA07A012801D028B10FE0882011F0A1
:102870001FFB504603E0882011F01AFB584611F068
:1028800033FB8BA28621B42000F02EFFE07A0128D2
:1028900001D028B10FE0882011F00AFB504603E078
:1028A000882011F005FB584611F01EFB81A28621FD
:1028B000DC2000F019FF207B012801D028B10FE0B7
:1028C000882011F0F5FA504603E0882011F0F0FA64
:1028D000584611F009FB78A28621284600F004FF33
:1028E000607B012801D030B110E0882011F0E0FABF
:1028F000504604E034E0882011F0DAFA584611F02E
:10290000F3FA6EA28621304600F0EEFEA07B01288D
:1029100001D028B10FE0882011F0CAFA504603E038
:10292000882011F0C5FA584611F0DEFA64A286211B
:10293000484600F0D9FEE07B012801D028B10FE025
:10294000882011F0B5FA504603E0882011F0B0FA63
:10295000584611F0C9FA5BA28621404600F0C4FE39
:1029600094F8330010286FD9207C4FF48177012828
:1029700001D028B10FE0882011F09AFA504603E008
:10298000882011F095FA584611F0AEFA4EA2394659
:10299000642000F0A9FE607C012801D028B10FE07E
:1029A000882011F085FA504603E0882011F080FA63
:1029B000584611F099FA45A239468C2000F094FE51
:1029C000A07C012801D028B10FE0882011F070FA16
:1029D000504603E0882011F06BFA584611F084FA53
:1029E0003BA23946B42000F07FFEE07C012801D0F4
:1029F00028B10FE0882011F05BFA504603E08820F0
:102A000011F056FA584611F06FFA32A23946DC201E
:102A100000F06AFE207D012801D028B10FE0882057
:102A200011F046FA504603E0882011F041FA58466A
:102A300011F05AFA28A23946284600F055FE607D6A
:102A4000012802D030B110E0C6E1882011F030FA40
:102A5000504603E0882011F02BFA584611F044FA52
:102A60001EA23946304600F03FFEA07D012801D06D
:102A700028B140E0882011F01BFA504634E02FE0E6
:102A800010030120935517003030310030303200F0
:102A900030303300303034003030350030303600E4
:102AA00030303700303038003030390030313000CD
:102AB00030313100303132003031330030313400C8
:102AC00030313500303136003031370030313800A8
:102AD00030313900303230003032310030323200A3
:102AE000882011F0E5F9584611F0FEF9C3A23946E5
:102AF000484600F0F9FDE07D012801D028B10FE043
:102B0000882011F0D5F9504603E0882011F0D0F963
:102B1000584611F0E9F9BAA23946404600F0E4FD02
:102B2000207E4FF4BF77012801D028B10FE0882024
:102B300011F0BEF9504603E0882011F0B9F958466B
:102B400011F0D2F9AFA23946642000F0CDFD607ECD
:102B5000012801D028B10FE0882011F0A9F95046D2
:102B600003E0882011F0A4F9584611F0BDF9A6A29F
:102B700039468C2000F0B8FDA07E012801D028B194
:102B80000FE0882011F094F9504603E0882011F0FE
:102B90008FF9584611F0A8F99CA23946B42000F0EC
:102BA000A3FDE07E012801D028B10FE0882011F0BC
:102BB0007FF9504603E0882011F07AF9584611F069
:102BC00093F993A23946DC2000F08EFD207F012886
:102BD00001D028B10FE0882011F06AF9504603E0D7
:102BE000882011F065F9584611F07EF989A239461E
:102BF000284600F079FD607F012801D028B10FE060
:102C0000882011F055F9504603E0882011F050F962
:102C1000584611F069F980A23946304600F064FD4B
:102C2000A07F012801D028B10FE0882011F040F9E1
:102C3000504603E0882011F03BF9584611F054F952
:102C400076A23946484600F04FFDE07F012801D0CA
:102C500028B10FE0882011F02BF9504603E08820BE
:102C600011F026F9584611F03FF96DA23946404659
:102C700000F03AFD94F820004FF4FD77012801D0D0
:102C800028B10FE0882011F013F9504603E08820A6
:102C900011F00EF9584611F027F962A23946642066
:102CA00000F022FD94F82100012801D028B10FE0A6
:102CB000882011F0FDF8504603E0882011F0F8F864
:102CC000584611F011F958A239468C2000F00CFD3D
:102CD00094F82200012801D028B10FE0882011F0DB
:102CE000E7F8504603E0882011F0E2F8584611F06A
:102CF000FBF84EA23946B42000F0F6FC94F823000D
:102D0000012801D028B10FE0882011F0D1F85046F9
:102D100003E0882011F0CCF8584611F0E5F844A201
:102D20003946DC2000F0E0FC94F82400012801D0B2
:102D300028B10FE0882011F0BBF8504603E088204E
:102D400011F0B6F8584611F0CFF83AA239462846A5
:102D500000F0CAFC94F82500012801D028B10FE04A
:102D6000882011F0A5F8504603E0882011F0A0F863
:102D7000584611F0B9F830A23946304600F0B4FC9C
:102D800094F82600012801D028B10FE0882011F026
:102D90008FF8504603E0882011F08AF8584611F069
:102DA000A3F826A23946484600F09EFC94F8270076
:102DB000012801D028B10FE0882011F079F85046A1
:102DC00003E0882011F074F8584611F08DF81CA229
:102DD0003946404600F088FC1A490120C870FEF7C9
:102DE00075FA94F8300038B117A000BF04F020FA4B
:102DF000BDE8F05F16F0A8BB16A0F7E7303233004D
:102E00003032340030323500303236003032370064
:102E10003032380030323900303330003033310056
:102E20003033320030333300303334003033350048
:102E30003033360030333700303338003033390028
:102E400030343000C00100204368616E6E656C2034
:102E500073657400CDA8B5C0C9E8D6C300000000F2
:102E600070B504461A481D4D00EB840010ED010AB0
:102E7000184800EB840050ED010A174800EB84006D
:102E800030EE600A50ED010AB4EEE00AF1EE10FAFD
:102E900009D3134800EB840050ED010AB4EEE00AB8
:102EA000F1EE10FA05DD0D48503890F82C0001289D
:102EB00007D088216FF07F4011F000F800202855DE
:102EC00070BD88214FF47F0010F0F8FF0120F6E775
:102ED0007C090120F0FF0020E803002060030120AE
:102EE0004803002070B5374905460024086810F0F3
:102EF000450FFBD0410702D50324042003E0C0079F
:102F000004D00124204614F04BFE59E014F084FE56
:102F1000A8422BD140F2FF5014F042FE002014F0E2
:102F20009DFE294908424BD0002801DA1C2070BDC3
:102F3000410001D5092070BD810001D50A2070BD76
:102F4000C10001D50B2070BD010101D50C2070BD61
:102F5000410101D50D2070BDC10101D50E2070BD0C
:102F6000010201D50F2070BD410201D5102070BDB6
:102F7000810201D5112070BDC10201D5122070BDA2
:102F8000010301D5132070BD410301D5142070BD8C
:102F9000810301D5152070BDC10301D5162070BD78
:102FA000010401D5172070BD410401D5182070BD62
:102FB000810401D5192070BD000701D51A2070BD0C
:102FC000204670BD342C014008E0FFFD10B50B48D1
:102FD0000024016811F0450FFBD0480702D50324F7
:102FE000042003E0C80705D00124204614F0D8FDD2
:102FF000204610BD40F2FF50F8E70000342C01409D
:1030000070B50C46194906460025086810F0450FB2
:10301000FBD0410702D50324042003E0C00705D0FC
:103020000124204614F0BCFD204670BD14F0F4FDD0
:10303000B04212D140F2FF5014F0B2FD002014F063
:103040000DFE10F4604F03D0810404D5132070BD31
:10305000000C208007E0410401D5102070BD000461
:1030600001D50F2070BD284670BD0000342C0140F2
:1030700010B50A460C0601F07F0303EB830100EB59
:10308000C10102D501F58E7101E001F55D71D20932
:103090000B704A7021F0E7FB002010BD0A4610B506
:1030A000090602F07F0306D503EB830100EBC101A3
:1030B00001F58E7105E002EB820100EBC10101F523
:1030C0005D7100248C700B70D2094A7021F0B2FB44
:1030D000002010BD10B50A0604D501F07F0121F0D3
:1030E000DDFC01E021F0BEFC002010BD70B50C46F7
:1030F0000E0601F07F0505EB850100EBC10102D54D
:1031000001F58E7101E001F55D71E4090D704C70FF
:103110008A60CB7000D0CD80022B01D100220A71D1
:1031200021F054FB002070BD10B501F07F0404EBCA
:10313000840100EBC101C1F88833C1F8802300236A
:10314000C1F88C3381F8753381F87443C37801F585
:103150005D71012B00D10A6114F0FF0F03D021F043
:10316000C1FB002010BD21F0C3FAFAE7006900227C
:1031700061F30A1201681143016070470A4610B5F5
:10318000090602F07F0306D503EB830100EBC101C2
:1031900001F58E7105E002EB820100EBC10101F542
:1031A0005D7101248C700B70D2094A7021F082FB92
:1031B000002010BD70B511F07F0404EB840100EB1A
:1031C000C1014FF0010581F81D5181F81C41C1F882
:1031D0002821C1F82C2101F58E714FF00002C1E9C0
:1031E000053203D021F07EFB002070BD21F080FA73
:1031F000FAE700002DE9F0410646002521F095FC94
:10320000074655E0F80751D03069EAB20369416BCF
:10321000D14006EB820201F00101926943EAC1113B
:1032200094680C40E1071AD00124426B04FA05F1BE
:103230008A43426306EB8500806984601F48E9B2D7
:103240000068426830469047F078012807D135B9C8
:1032500096F81101042802D1304621F0A5FA200782
:1032600004D506EB8500082480698460E00604D557
:1032700006EB8500102480698460600604D506EBA7
:103280008500402480698460A00704D506EB850092
:10329000022480698460200608D52946304600F063
:1032A0006DF906EB85018020896988607F086D1CB7
:1032B000002FA7D10120BDE8F081000070000020A0
:1032C0002DE9F0410646002421F035FC0746DFF8E1
:1032D000988043E0F8073FD0E1B2304621F031FC5E
:1032E0000546C00725D006EB84000125416D8D60A1
:1032F000F17801290CD1406D016904EB840006EBE3
:10330000C000C1F31201D0F87C23511AC0F88C130D
:10331000D8F80000E1B2026830469047F078012802
:1033200007D134B996F81101052802D1304621F0B1
:103330003BFAA80704D506EB84000225406D8560A2
:10334000280709D5D8F8000081683046884706EB81
:1033500084010820496D88607F08641C002FB9D162
:103360000120BDE8F08100007000002070B5064625
:10337000C068816921F010018161F068056A05F07B
:103380000F0000EB800006EBC004C5F3434004F5DA
:103390005D74072821D2DFE800F0202004202020DF
:1033A000150047F6F070054217D0C5F30A152A46F6
:1033B0003046E16821F0CDFBE0682844E060A06978
:1033C000284409E0082206F2CC51304621F0C1FB26
:1033D000A069C5F30A110844A061F068816941F051
:1033E00010018161012070BD38B5044600208DF8C0
:1033F000000094F812018DF800001548006841693A
:103400002046884720698068E2684FF40061516176
:10341000A17AD1B1C00718D094F81501012814D1B0
:103420009DF80000032810D1D4F80C01016841F088
:1034300001010160D4F80C01016841F00301016051
:103440000448016841F006010160012038BD000018
:103450007000002010ED00E070B504460069002502
:103460000126416821F0010141602946204621F0F2
:1034700015FB0020FF2106E004EB800293699960B0
:10348000526D9160401C62788242F5D821694FF0FC
:10349000FF3088612846216966F30F0066F31F40FC
:1034A000C861216945F00B0048612169C1F88400B9
:1034B000216945F00B0008612169486420690168B1
:1034C00021F4FE610160204621F06EF9E1684FF4BD
:1034D0008050486103480068016920468847012000
:1034E00070BD00007000002070B5044621F042FB62
:1034F0000122002384F8122184F814311946402552
:1035000011E000BF01EB810004EBC00080F81D2139
:1035100080F81C11A0F8221180F81F31C0E949532E
:10352000491CC0F8303160788842EBD8002110E0A7
:1035300001EB810004EBC00282F8753382F874134A
:10354000A2F87A1382F87733C2E9DF53491CC2F834
:10355000883360788842EBD8204621F0A3F82046D3
:1035600020F080FF0021204621F064FB204620F05F
:10357000B9FF2046BDE8704021F06CBA2DE9F04754
:103580000E46054601EB860005EBC004D4E94C016C
:10359000421AD4F8240104F58E74904200D20246F7
:1035A000D21C970805EB860923E000BFA0EB0108B9
:1035B000A168414500D2884608F1030087081FFA38
:1035C00088F3F2B22846E16821F049FBE16801EB9B
:1035D0000800E060A16901EB0800A0616169884210
:1035E00007D321780120884029694A6B82434A63C6
:1035F0000BE0D9F81800806980B2B84205D9D4E947
:103600000501814201D20028D0D10120BDE8F08718
:103610002DE9F041154680460C46154E4FF42077B3
:1036200019E0802A0BD21348B061214640460FF0C2
:10363000E7FFB0696D1C8088204484B20BE00E481F
:10364000B0612A462146404600F0DEF8B069AD1C64
:103650008088204484B2BC4208D22A78002A05D04F
:10366000B0698088011989B28142DAD2BDE8F0815F
:1036700018020020E8020020280300202DE9F04174
:10368000154680460C46154E4FF4207719E0802AE7
:103690000BD21348B061214640460FF0B1FFB0692C
:1036A0006D1C8088204484B20BE00E48B0612A462D
:1036B000214640460FF0BAFFB069AD1C8088204417
:1036C00084B2BC4208D22A78002A05D0B06980882A
:1036D000011989B28142DAD2BDE8F08118020020D6
:1036E000E0020020180300202DE9F0411546804635
:1036F0000C46154E4FF4207719E0802A0BD2134860
:10370000B061214640460FF07BFFB0696D1C808898
:10371000204484B20BE00E48B0612A462146404660
:1037200000F018F8B069AD1C8088204484B2BC4217
:1037300008D22A78002A05D0B0698088011989B298
:103740008142DAD2BDE8F08118020020D0020020C8
:10375000300300202DE9F04116460F468046002434
:103760000D4D0FE0327882420AD105EB41027078AC
:103770005178884204D139464046921C10F02AF80C
:10378000641CA4B204EB440000EB041115F8110012
:103790008028E7D8BDE8F0814D3503082DE9F041D8
:1037A000154680460C46154E4FF4207719E0802AC6
:1037B0000BD21348B061214640460FF021FFB0699B
:1037C0006D1C8088204484B20BE00E48B0612A460C
:1037D0002146404600F018F8B069AD1C80882044AE
:1037E00084B2BC4208D22A78002A05D0B069808809
:1037F000011989B28142DAD2BDE8F08118020020B5
:1038000000030020200300202DE9F04116460F465A
:10381000804600240C4D0EE03278824209D14A19CC
:1038200070785178884204D139464046921C0FF096
:10383000D1FF641CA4B204EB8400C0EB8411685C6B
:103840008028E9D8BDE8F081081803082DE9F04187
:10385000154680460C46154E4FF4207719E0802A15
:103860000BD21348B061214640460FF0C9FEB06943
:103870006D1C8088204484B20BE00E48B0612A465B
:1038800021464046FFF7C0FFB069AD1C8088204448
:1038900084B2BC4208D22A78002A05D0B069808858
:1038A000011989B28142DAD2BDE8F0811802002004
:1038B00008030020200300202DE9F041204E15468A
:1038C0000C4680466BB3012B38D18821084610F096
:1038D000F5FA282390224146204610F00DF8BDE865
:1038E000F04188216FF07F4010F0E8BA802A0BD2B7
:1038F0001448B061214640460FF082FEB0696D1C4D
:103900008088204484B20EE00F48B0612A462146E8
:1039100040460FF08BFEB069AD1C8088204484B215
:1039200001E04FF42077BC4208D22A78002A05D063
:10393000B0698088011989B28142D7D2BDE8F0818F
:1039400018020020F0020020180300202DE9F041A9
:10395000204E15460C4680466BB3012B38D188218A
:10396000084610F0ABFA1C236022414620460FF0B7
:10397000C3FFBDE8F04188216FF07F4010F09EBA90
:10398000802A0BD21448B061214640460FF038FE21
:10399000B0696D1C8088204484B20EE00F48B0618D
:1039A0002A46214640460FF041FEB069AD1C808892
:1039B000204484B201E04FF42077BC4208D22A7838
:1039C000002A05D0B0698088011989B28142D7D216
:1039D000BDE8F08118020020F80200201803002042
:1039E0002DE9F041204E15460C4680466BB3012B65
:1039F00038D18821084610F061FA1423322241465A
:103A000020460FF079FFBDE8F04188216FF07F403C
:103A100010F054BA802A0BD21448B06121464046B7
:103A20000FF0EEFDB0696D1C8088204484B20EE07A
:103A30000F48B0612A46214640460FF0F7FDB069B5
:103A4000AD1C8088204484B201E04FF42077BC4252
:103A500008D22A78002A05D0B0698088011989B275
:103A60008142D7D2BDE8F08118020020D8020020A0
:103A70001803002010B50121CC05204611F0B0FE3E
:103A80002046BDE81040002111F0AABE034A0146BD
:103A9000002052680A4200D00120704700B0024066
:103AA00030B52A4900240A68294B1A400A600A687E
:103AB00003681A430A604A6B22F007024A634A6BA2
:103AC00043681A434A63426842B3012A2DD0022A4E
:103AD00030D0032AC26832D013010269446912024D
:103AE0002403856822431D4315438A6B15438D6368
:103AF0008269CA630A6C6FF30D020A640A6CC369B7
:103B00001A430A64828C4B6C03F040434B644B6C49
:103B1000006A034343EA02434B6430BDC268047D3C
:103B20001302028A12042406DBE7C2681302028A27
:103B30001204D6E7C26853010269D202D1E75301E9
:103B4000026944699202E403CBE7000000B002403E
:103B5000FCE0FCFF0248016841F001010160704790
:103B600000B0024014F0DCBF074A904201D207487F
:103B700001E005481038064A8B0001EA020101D530
:103B8000C16070478160704710640240006002406D
:103B90007D0F7D0F0029016802D041F0010101E095
:103BA00021F00101016070472DE9F043016821F027
:103BB000010101600021016041608160C16001611B
:103BC000212141613C493C4A3D251039904202D1B6
:103BD0008D60BDE8F083384A4FF474661832904225
:103BE00001D18E60F5E7344A4FF4741730329042B9
:103BF00001D18F60EDE7304A4FF0746C483290424B
:103C000002D1C1F808C0E4E72B4B2C4A603398423C
:103C100001D1CA60DDE7284C294B7834A04201D19C
:103C2000CB60D6E7DFF89080264C08F1900840453D
:103C300001D1CC60CDE7DFF880804FF03D5908F12D
:103C4000A808404502D1C1F80C90C2E71E49DFF830
:103C500078800839404501D10D60BAE71A4D183512
:103C6000A84201D10E60B4E7174D3035A84201D10A
:103C70000F60AEE7144D4835A84202D1C1F800C02C
:103C8000A7E7114D10496035091FA84201D10A600C
:103C90009FE70D4A7832904201D10B6099E70A4ABA
:103CA0009032904201D10C6093E7074AA8329042CB
:103CB0008FD1C1F800908CE7106002403D000020D9
:103CC000400F002000003D201064024000290168E0
:103CD00002D041F0200101E021F020010160704795
:103CE0000B0607D5436912B143F0800301E023F0CE
:103CF00080034361802908D0002A026801F01E0178
:103D000001D00A4300E08A430260704730B503687F
:103D1000124ACC6813400A682243D1E905452C4376
:103D20002243CC6922430C6A22434C6A22438C6AA8
:103D300022434C6B22438C6B22431A43026042693C
:103D400022F00703D1E90B2422431A4342610A6996
:103D500042604A6882608968C16030BD3F801CF063
:103D60000548C07A052803D0062801D0082802D1CA
:103D700002A022F0BDBF7047380200202E000000D4
:103D80002DE9F04FF84DF94C2946E87A91F80CC02E
:103D9000A5B00D282ED2DFE810F030004F132D0013
:103DA0002D00E50BE00D8D142D00B2112D002D001E
:103DB0002D000D0094F83300082802D0102802D0FE
:103DC00004E0102000E0082084F8330015F0BCFB6C
:103DD0006FF07F4010F088F8882010F069F894F8B0
:103DE0003320E3A101A821F025FF01AAAA21322056
:103DF0000FF040FC25B0BDE8F08FDB484FF4CD76E6
:103E00004FF48177417BD9484FF4BF794FF4FD7A65
:103E100090F82D2090F827301893C37F1793C37D17
:103E20001693C37B159390F826301393837F2193C9
:103E3000837D1293837B239390F825301493437FE3
:103E40001193437D1093437B0F9390F824301D937F
:103E5000037F1C93037D1B93037B1A9390F82330FD
:103E60002493C37E2293C37C2093C37A1F9390F83C
:103E700022300E93837E0D93837C1E93837A199355
:103E800090F821300C93437E0B93437C0A93437A42
:103E9000099390F820E090F818B0037C007ABCF108
:103EA000290FA7D2DFE81CF02900C600490135021E
:103EB000BA024F032204B30449055C069A06D906E8
:103EC000160755079707D9071F0861088B08B90817
:103ED000E3080F093D096B099909C509DD09F509D1
:103EE0000D0A260A400A5A0A740A8D0AA60ABF0A4F
:103EF000D80AF20A0D0B280B430B9F480FF0F4FF72
:103F000088200FF0D5FF94F82900022812D001284C
:103F100012D0032812D0042812D0052812D0062867
:103F200012D0072812D0082812D0092812D00B2846
:103F300012D016E091A210E092A20EE093A20CE043
:103F400094A20AE095A208E096A206E097A204E0F7
:103F500098A202E099A200E09AA264212F200FF01B
:103F600089FB94F82D0020B1012836D0022850D0CA
:103F70004BE0687B40B101280BD002280ED003280B
:103F800011D0042814D01CE0207822F051FE8FA21A
:103F900013E0207A22F04CFE8DA20EE0207C22F06D
:103FA00047FE8CA209E0207E22F042FE8AA204E0B5
:103FB00094F8200022F03CFE88A20A2164200FF031
:103FC0008FFB94F8300030B185A000BF03F030F9CA
:103FD000012001F0C5BA85A0F8E7687B10B101287F
:103FE00005D020E0207822F023FE78A203E0207E96
:103FF00022F01EFE78A20A216420FFF73FFB12E0A8
:104000007AA000E076A003F013F9012005F08EF904
:10401000F0E6687B38B9207822F00AFE6BA20A210C
:104020006420FFF761FB0120287394F8300000281A
:10403000E8D1E5E74D4F02263F7832B1012A4FD053
:10404000022AE2D100296AD087E241B101290BD0CE
:1040500002290DD0032910D0042913D0F4E73846E3
:1040600022F0AEFD59A211E022F0AAFD58A20DE007
:10407000184622F0A5FD57A208E0584622F0A0FD00
:1040800055A203E0704622F09BFD54A20A21642051
:104090000FF026FB687B40B101280BD002280ED020
:1040A000032811D0042814D0CEE7607822F0C0FD98
:1040B00051A213E0607A22F0BBFD50A20EE0607CBA
:1040C00022F0B6FD4EA209E0607E22F0B1FD4DA2C5
:1040D00004E094F8210022F0ABFD4BA20A2194E207
:1040E00011B101290DD0AFE7384622F069FD37A2A2
:1040F0000A216420FFF7C2FA607822F099FD3EA2FF
:104100000BE0584622F05CFD33A20A216420FFF741
:10411000B5FA607E22F08CFD3AA20A21F8E3384617
:1041200022F04EFD29A20A216420FFF7DDFA607813
:1041300022F07EFD30A20A21EBE30C4803264078F2
:1041400032B1012A73D0022A7FF412AF51B17BE75A
:1041500049B101295FD0022963D003296AD004291B
:104160006ED071E7C3E051E0380200201003012057
:10417000253033640000000000FFFF0054432D4B46
:104180000000000054432D540000000054432D4A09
:104190000000000054432D4E0000000054432D4504
:1041A0000000000054432D530000000054432D52E2
:1041B0000000000054432D420000000050543130F4
:1041C00030000000317E35560000000030303100F4
:1041D0003030390030313700303235003033330081
:1041E0004368616E6E656C2073657400CDA8B5C0C0
:1041F000C9E8D6C300000000303032003031300052
:1042000030313800303236003033340022F0D8FC00
:10421000AFF21C0219E0099822F0D2FCAFF224029E
:1042200013E00A9822F0CCFCAFF22C020DE03AE049
:1042300000E005E00B9822F0C3FCAFF2380204E086
:104240000C9822F0BDFCAFF240020A21B4200FF01E
:1042500047FA687B40B101280BD002280ED0032812
:1042600011D0042814D0EFE6A07822F0E1FCF8A2E7
:1042700013E0A07A22F0DCFCF6A20EE0A07C22F093
:10428000D7FCF5A209E0A07E22F0D2FCF3A204E064
:1042900094F8220022F0CCFCF1A20A2183E200BFB4
:1042A0000FF01EFAD0E611B101290DD0CCE622F0B4
:1042B00087FCAFF2BC020A218C20FFF7DFF9A0785F
:1042C00022F0B6FCE2A20CE00B9822F079FCAFF2EF
:1042D000CC020A218C20FFF7D1F9A07E22F0A8FCA5
:1042E000DEA20A21F1E300BFFFF7C8F9ACE622F035
:1042F00067FCAFF2FC020A218C20FFF7F5F9A078E9
:1043000022F096FCD2A20A21F8E300BFFFF7ECF9F5
:104310009AE6D4480426807832B1012A53D0022A82
:104320007FF426AE89B38FE641B101290AD0022974
:104330000DD0032910D0042913D085E622F040FCCB
:10434000C3A212E0199822F03BFCC2A20DE01E9815
:1043500022F036FCC0A208E00D9822F031FCBFA28A
:1043600003E00E9822F02CFCBDA20A214FF48270CB
:104370000FF0B6F9687B48B101280CD002280FD0A5
:10438000032812D0042815D05EE63AE0E07822F047
:104390004FFCB5A213E0E07A22F04AFCB3A20EE093
:1043A000E07C22F045FCB2A209E0E07E22F040FC75
:1043B000B0A204E094F8230022F03AFCAEA20A2155
:1043C0004FF4AA706CE711B101290CD03CE622F041
:1043D000F7FB9FA20A21B420FFF750F9E07822F002
:1043E00027FCA1A20BE00D9822F0EAFB9BA20A2178
:1043F000B420FFF743F9E07E22F01AFC9DA20A21C7
:10440000F3E322F0DDFB92A20A21B420FFF76CF95E
:10441000E07822F00DFC94A20A21E7E39148C078ED
:1044200032B1012A59D0022A7FF4F2ADF1B375E01E
:1044300041B101290AD002290DD0032910D0042945
:1044400013D01BE022F0BCFB87A212E01F9822F0E1
:10445000B7FB86A20DE0209822F0B2FB84A208E010
:10446000229822F0ADFB83A203E0249822F0A8FB5F
:1044700081A20A214FF4AA700FF032F900200FF048
:1044800033FD7E480FF014FD94F8290002286FD008
:1044900001286ED003286DD004286CD005286BD07D
:1044A00006286AD0072869D0082800E03AE06FD0D3
:1044B00009286ED00B286DD003E064212F200FF067
:1044C000D9F894F8300008B16DA000E071A002F0B6
:1044D000AFFE07F01BFC0020A7E211B101290CD0B0
:1044E0001CE022F06DFB60A20A21DC20FFF7C6F879
:1044F000207922F09DFB6BA20BE0229822F060FB5A
:104500005CA20A21DC20FFF7B9F8207F22F090FBA3
:1045100065A20A214FF48270FFF7B0F8012004F081
:1045200005FF6AE222F04CFB4FA20A21DC20FFF7D4
:10453000DBF8207922F07CFB5AA20A214FF482702A
:10454000FFF7D2F8EAE747480626007932B1012A98
:104550005DD0022A7FF40CADD9B308E379B101290B
:1045600011D0022917D003291AD004291DD0FEE248
:1045700068E26AE26CE26EE270E272E274E222F0F9
:104580001FFB48A215E01A9822F01AFB47A210E080
:104590006DE26FE271E21B9822F012FB44A208E088
:1045A0001C9822F00DFB40A203E01D9822F008FBAE
:1045B00040A24FF4A57164200FF092F8687B48B1D7
:1045C00001280CD002280FD0032812D0042815D0BF
:1045D000CDE27BE0607922F02BFB37A213E0607B19
:1045E00022F026FB35A20EE0607D22F021FB34A2F2
:1045F00009E0607F22F01CFB32A204E094F8250061
:1046000022F016FB30A24FF4A571B42048E611B198
:1046100001290DD0ABE222F0D3FA22A20A214FF4F5
:104620008270FFF72BF8607922F002FB22A20CE0E7
:104630001C9822F0C5FA1CA20A214FF48270FFF7E1
:104640001DF8607F22F0F4FA1EA20A21ADE30000FB
:104650003030330030313100303139003032370002
:104660003033350010030120303034003031320057
:1046700030323000303238003033360000FFFF0077
:10468000546865726D6F636F75706C65206D6F64D3
:10469000656C0000C8C8B5E7C5BCD0CDBAC5D1A10E
:1046A000D4F1000030303500303239003031330081
:1046B00030323100303337003030360030313400A2
:1046C00030323200303330003033380022F078FAA4
:1046D000AFF230020A214FF48270FFF705F86079DB
:1046E00022F0A6FAAFF230020A2171E3F74807265A
:1046F000407932B1012A59D0022A7FF439ACB1B3E2
:10470000FBE341B101290BD002290FD0032913D0BB
:10471000042917D0F1E322F053FAAFF2640216E055
:104720000F9822F04DFAAFF26C0210E0109822F0D0
:1047300047FAAFF274020AE0119822F041FAAFF2A0
:104740007C0204E0149822F03BFAAFF284024FF4AA
:10475000A571B4200EF0C4FF687B48B101280CD0CD
:1047600002280FD0032812D0042815D0C5E33FE05B
:10477000A07922F05DFAD6A213E0A07B22F058FACD
:10478000D4A20EE0A07D22F053FAD3A209E0A07FCC
:1047900022F04EFAD1A204E094F8260022F048FA62
:1047A000CFA24FF4A5714FF4827079E511B10129C0
:1047B0000ED0A2E322F004FAAFF204120A214FF461
:1047C0009670FEF75BFFA07922F032FAC0A20DE0EE
:1047D000119822F0F5F9AFF214120A214FF49670F5
:1047E000FEF74CFFA07F22F023FABCA20A211EE3B1
:1047F00022F0E6F9AFF240120A214FF49670FEF76C
:1048000073FFA07922F014FAB1A20A2122E3AF4883
:10481000807932B1012A57D0022A7FF4F6AB91B3E6
:1048200089E041B101290AD002290DD0032910D015
:10483000042913D07FE022F0C3F9A5A212E0239847
:1048400022F0BEF9A3A20DE0129822F0B9F9A2A2BB
:1048500008E0219822F0B4F9A0A203E0139822F016
:10486000AFF99FA24FF4A5714FF482700EF038FF9C
:10487000687B48B101280CD002280FD0032812D041
:10488000042815D057E045E0E07922F0D1F995A24F
:1048900013E0E07B22F0CCF993A20EE0E07D22F061
:1048A000C7F992A209E0E07F22F0C2F990A204E0E9
:1048B00094F8270022F0BCF98EA24FF4A5714FF4B2
:1048C000AA700EF00DFF36E011B101290DD032E0D3
:1048D00022F076F97EA20A214FF4AA70FEF7CEFEEE
:1048E000E07922F0A5F97FA20CE0219822F068F986
:1048F0007AA20A214FF4AA70FEF7C0FEE07F22F0F0
:1049000097F97BA20A214FF4BE70FEF7B7FE12E0C2
:1049100050E160E122F054F96DA20A214FF4AA702F
:10492000FEF7E2FEE07922F083F96EA20A214FF44D
:10493000BE70FEF7D9FE0820D4E26448C07932B1D7
:10494000012A5CD0022A7FF455AA91B302E141B159
:1049500001290AD002290DD0032910D0042913D02F
:104960004BE022F02DF95FA212E0159822F028F911
:104970005DA20DE0169822F023F95CA208E01798DA
:1049800022F01EF95AA203E0189822F019F959A250
:104990004FF4A5714FF4AA700EF0A2FE687B48B1E7
:1049A00001280DD0022811D0032815D0042819D0D1
:1049B00023E065E0207922F03BF9AFF2183217E0EE
:1049C000207B22F035F9AFF21C3211E0207D22F07D
:1049D0002FF9AFF224320BE0207F22F029F9AFF259
:1049E000383205E094F8240022F022F9AFF23C328C
:1049F0004FF4A57164200EF073FE052015E0C1B1DF
:104A00000129A0D1179822F0DBF839A20A214FF42E
:104A1000BE70FEF733FE207E22F00AF9AFF64802A0
:104A20000A216420FEF72AFE0120287325B0BDE884
:104A3000F08F22F0C5F82BA20A214FF4BE70FEF7CA
:104A40001DFE1BE5AFF6CC0237E5AFF6C80234E534
:104A5000AFF6C80231E5AFF6C4022EE5AFF6C402E8
:104A60002BE5AFF6C00228E5AFF6C00225E5AFF6AC
:104A7000BC0222E5AFF6BC021FE5AFF6B8021CE5AA
:104A800022F09EF817A20A214FF4BE70FEF72CFE0A
:104A900000200FF029FA18480FF00AFA94F82900BC
:104AA00002282CD001282DD003282ED004282FD066
:104AB000052830D0062831D0072832D0082833D036
:104AC000092834D00B2835D03AE0B3E01003012098
:104AD0003030370030313500303233003033310080
:104AE0003033390030303800303136003032340065
:104AF000303332003034300000FFFF00ABE0AFF65F
:104B0000841219E0AFF6841216E0AFF6801213E0BB
:104B1000AFF6801210E0AFF67C120DE0AFF67C121B
:104B20000AE0AFF6781207E0AFF6781204E0AFF6CD
:104B3000741201E0AFF6741264212F200EF09AFD7A
:104B400094F8300048B1AFF2C84000BF02F070FBEB
:104B50000020287307F0DAF868E7AFF2C840F5E7FD
:104B60000A26012A04D0022A7FF44FAA29B3C4E1FD
:104B700011B101290ED0C0E122F022F8AFF6B01237
:104B8000D2216420FEF77AFD607A22F051F8AFF668
:104B900094120EE0704622F013F8AFF6C012D22144
:104BA0006420FEF76BFD94F8210022F041F8AFF687
:104BB000A812D2218C20FFF797BB22F001F8AFF6A4
:104BC000F01286216420FEF78FFD607A22F030F823
:104BD000AFF6D81286218C20FFF798BB0B26012A4E
:104BE00005D0022AC0D139B387E160E070E011B18D
:104BF00001290FD081E1099821F0E2FFAFF60422EC
:104C0000D2218C20FEF73AFDA07A22F011F8AFF203
:104C1000BC520EE00C9821F0D3FFAFF61422D22143
:104C20008C20FEF72BFD94F8220022F001F8AFF261
:104C3000D052D221B420BEE7099821F0C1FFAFF6CF
:104C4000442286218C20FEF74FFDA07A21F0F0FF50
:104C5000AFF200628621B420BEE70C26012A03D001
:104C6000022ABFD129B348E111B101290FD044E193
:104C7000199821F0A5FFAFF22462D221B420FEF7EB
:104C8000FDFCE07A21F0D4FFAFF220620EE00E9836
:104C900021F096FFAFF23862D221B420FEF7EEFC8D
:104CA00094F8220021F0C4FFAFF23462D221DC205C
:104CB00081E7199821F084FFAFF268628621B42061
:104CC000FEF712FDE07A21F0B3FFAFF260628621B9
:104CD000DC2081E70D26012A03D0022AC1D131B39D
:104CE0000BE111B101290FD007E11F9821F068FFF6
:104CF000AFF28862D221DC20FEF7C0FC207B21F0DD
:104D000097FFAFF258620EE0249821F059FFAFF2FE
:104D10009862D221DC20FEF7B1FC94F8240021F047
:104D200087FFAFF27062D2214FF4827043E71F9881
:104D300021F046FFAFF2CC628621DC20FEF7D4FCE6
:104D4000207B21F075FFAFF29C6286214FF48270C8
:104D500042E70E26012A03D0022ABFD141B3CCE09C
:104D600011B1012910D0C8E01A9821F029FFAFF243
:104D7000C462D2214FF48270FEF780FC607B21F088
:104D800057FFAFF2C8620FE01D9821F019FFAFF294
:104D9000DC62D2214FF48270FEF770FC94F825009B
:104DA00021F046FFAFF2E062D2214FF4967002E7A5
:104DB0001A9821F005FFAFF20C7286214FF4827031
:104DC000FEF792FC607B21F033FFAFF21072862178
:104DD0004FF4967000E70F26012A03D0022ABCD1B7
:104DE00041B38AE011B1012910D086E00F9821F07B
:104DF000E7FEAFF23872D2214FF49670FEF73EFC18
:104E0000A07B21F015FFAFF234320FE0149821F0AF
:104E1000D7FEAFF24C72D2214FF49670FEF72EFC03
:104E200094F8260021F004FFAFF24C32D2214FF467
:104E3000AA70C0E60F9821F0C3FEAFF280728621FF
:104E40004FF49670FEF750FCA07B21F0F1FEAFF21C
:104E50007C3286214FF4AA70BEE6012A03D0022AD2
:104E6000BDD151B33DE011B1012910D039E02398F3
:104E700021F0A6FEAFF2A432D2214FF4AA70FEF7C1
:104E8000FDFBA07B21F0D4FEAFF2A4320FE013981B
:104E900021F096FEAFF2B832D2214FF4AA70FEF79D
:104EA000EDFB94F8270021F0C3FEAFF2B832D22117
:104EB0004FF4BE70FEF7E2FB13E0239821F080FE72
:104EC000AFF2F03286214FF4AA70FEF70DFCE07BC2
:104ED00021F0AEFEAFF2F03286214FF4BE70FEF745
:104EE00003FC10203CE30926012A03D0022AB7D193
:104EF00049B302E021B1012912D02E73FFF785B822
:104F0000159821F05DFEAFF22042D2214FF4BE7021
:104F1000FEF7B4FB207A21F08BFEAFF64C520FE087
:104F2000189821F04DFEAFF23442D2214FF4BE70FA
:104F3000FEF7A4FB94F8200021F07AFEAFF664524D
:104F4000D221642037E6159821F03AFEAFF268428C
:104F500086214FF4BE70FEF7C7FB207A21F068FE71
:104F6000AFF694528621642036E64FF01208012AEB
:104F700003D0022AC2D189B136E1184621F020FEC1
:104F8000AFF6B05231466420FEF778FB607C21F02A
:104F90004FFEAFF6945231468C2028E0184621F09F
:104FA0000FFEAFF6D05239466420FEF79DFB607CC1
:104FB00021F03EFEAFF6B85239468C202AE04FF081
:104FC0001308012A03D0022A98D199B10CE10A985A
:104FD00021F0F6FDAFF6D85231468C20FEF74EFB9D
:104FE000A07C21F025FEAFF690123146B420FEF7EA
:104FF00045FBF9E00A9821F0E3FDAFF6FC52394693
:105000008C20FEF771FBA07C21F012FEAFF6B812E7
:105010003946B420FEF768FBE6E04FF01408012A99
:1050200003D0022AA6D189B1DEE01E9821F0C8FD86
:10503000AFF6DC123146B420FEF720FBE07C21F015
:10504000F7FDAFF6D4123146DC20D0E71E9821F0F0
:10505000B7FDAFF6FC123946B420FEF745FBE07C05
:1050600021F0E6FDAFF6F8123946DC20D2E74FF02A
:105070001508012A03D0022AA6D191B1B4E02098E4
:1050800021F09EFDAFF618223146DC20FEF7F6FA3D
:10509000207D21F0CDFDAFF6E81231464FF482704D
:1050A000A5E7209821F08CFDAFF63C223946DC20A4
:1050B000FEF71AFB207D21F0BBFDAFF60C2239462E
:1050C0004FF48270A6E74FF01608012A03D0022A97
:1050D000A8D199B188E01B9821F072FDAFF630227B
:1050E00031464FF48270FEF7C9FA607D21F0A0FDD1
:1050F000AFF6342231464FF4967078E71B9821F0D2
:105100005FFDAFF6542239464FF48270FEF7ECFA99
:10511000607D21F08DFDAFF6582239464FF4967030
:1051200078E74FF01708012A03D0022AA4D199B1D9
:105130005AE0109821F044FDAFF67C2231464FF43E
:105140009670FEF79BFAA07D21F072FDAFF27862B7
:1051500031464FF4AA704AE7109821F031FDAFF6BE
:10516000A02239464FF49670FEF7BEFAA07D21F0DA
:105170005FFDAFF29C6239464FF4AA704AE74FF0E8
:105180001808012A03D0022AA2D199B12CE0129862
:1051900021F016FDAFF2C06231464FF4AA70FEF75F
:1051A0006DFAE07D21F044FDAFF2C06231464FF46C
:1051B000BE701CE7129821F003FDAFF2E46239469D
:1051C0004FF4AA70FEF790FAE07D21F031FDAFF2C6
:1051D000E46239464FF4BE701CE74FF01108012A13
:1051E00005D0022AA2D199B185F80C8086E61698DE
:1051F00021F0E6FCAFF20C7231464FF4BE70FEF7C0
:105200003DFA207C21F014FDF74A31466420EEE699
:10521000169821F0D5FCAFF22C7239464FF4BE70CF
:10522000FEF762FA207C21F003FDEF4A3946642044
:10523000F0E6022ADAD191B9584621F0C1FCEA4AD7
:105240004E46121D49466420FEF74EFA607E21F05C
:10525000EFFCE54A314630328C20FEF745FA1A2041
:105260007EE1022AC2D191B90B9821F0A9FCDE4A55
:105270004E46303249468C20FEF736FAA07E21F0A9
:10528000D7FCAFF628423146B420FEF72DFA1B209A
:1052900066E1022AAAD191B90D9821F091FCAFF6EE
:1052A00044424E464946B420FEF71EFAE07E21F005
:1052B000BFFCAFF640423146DC20FEF715FA1C2059
:1052C0004EE1022A92D199B9229821F079FCAFF6E9
:1052D0005C424E464946DC20FEF706FA207F21F06C
:1052E000A7FCAFF63C4231464FF48270FEF7FCF962
:1052F0001D2035E1022A9DD1A1B91C9821F060FC46
:10530000AFF65C424E4649464FF48270FEF7ECF928
:10531000607F21F08DFCAFF6544231464FF4967019
:10532000FEF7E2F91E201BE1022A9BD1A1B91198D8
:1053300021F046FCAFF674424E4649464FF4967053
:10534000FEF7D2F9A07F21F073FCAFF67002314670
:105350004FF4AA70FEF7C8F91F2001E1022A99D183
:10536000A1B9219821F02CFCAFF690024E46494697
:105370004FF4AA70FEF7B8F9E07F21F059FCAFF6C0
:10538000900231464FF4BE70FEF7AEF92020E7E000
:10539000022A97D199B9179821F012FCAFF6B00202
:1053A0004E4649464FF4BE70FEF79EF9207E21F02E
:1053B0003FFC8D4A3146121D6420FEF795F91920F5
:1053C000CEE0022A97D199B9704621F0F9FB864ABE
:1053D0005646083251466420FEF786F994F82100BB
:1053E00021F026FC804A314634328C20FEF77CF9CD
:1053F0002220B5E0022A98D199B90C9821F0E0FB5F
:10540000794A5646343251468C20FEF76DF994F8AD
:10541000220021F00DFCAFF6B8523146B420FEF761
:1054200063F923209CE0022A99D199B90E9821F0C2
:10543000C7FBAFF6D45256465146B420FEF754F996
:1054400094F8230021F0F4FBAFF6D4523146DC206F
:10545000FEF74AF9242083E0022A9AD1A1B92498C0
:1054600021F0AEFBAFF6F05256465146DC20FEF777
:105470003BF994F8240021F0DBFBAFF6C85231462B
:105480004FF48270FEF730F9252069E0022A99D1A5
:10549000A9B91D9821F094FBAFF6E8525646514643
:1054A0004FF48270FEF720F994F8250021F0C0FB3C
:1054B000AFF6EC5231464FF49670FEF715F9262000
:1054C0004EE0022A97D1A9B9149821F079FBAFF6E2
:1054D0000862564651464FF49670FEF705F994F867
:1054E000260021F0A5FBAFF6082231464FF4AA7042
:1054F000FEF7FAF8272033E0022A95D1A9B91398CC
:1055000021F05EFBAFF62822564651464FF4AA70B2
:10551000FEF7EAF894F8270021F08AFBAFF62C2278
:1055200031464FF4BE70FEF7DFF8282018E0022A5B
:1055300093D1A1B9189821F043FBAFF64822564603
:1055400051464FF4BE70FEF7CFF894F8200021F0DA
:105550006FFB254A314608326420FEF7C5F821204A
:105560002873CBE44FF4FA76BCF1320F71D016DC1D
:10557000BCF12C0F48D0BCF12D0F6BD0BCF12E0F1D
:1055800069D0BCF1310F7FF451AA21F03BFB94F8B4
:105590002E0040B301286FD002286ED07AE1BCF112
:1055A0005F0F6BD0BCF1610F69D0BCF1620FEAD123
:1055B00021F028FB94F83B3094F83A200BA101A885
:1055C000303420F037FB01AA9621F8200EF052F873
:1055D000607926F091FC2078D0B307A001F028FE76
:1055E0003320FFF722BA3FE1D441000825302E32A4
:1055F000643A25302E3264005265636F726420690C
:105600006E74657276616C0021F0FCFA94F82C00DF
:10561000002894F830001FD018B3F9A29621322048
:105620000EF028F821F014FB94F82A00002894F8D2
:10563000300018D0E0B1F2A296215A200EF01AF8EC
:1056400094F83000B0B1EFA001F0F2FD2D20C8E7D2
:1056500008E147E114E05FE008B1EEA2DEE7EEA268
:10566000DCE7EFA2DAE708B1EAA2E5E7EAA2E3E7BE
:10567000EBA2E1E7ECA0E7E7FDE003E196E0C6E09E
:1056800021F0C0FA94F82A00002894F8300027D0BE
:1056900058B3DBA296215A200DF0ECFFE5480146F5
:1056A0000EF00CFC1F2318227F2196200EF024F907
:1056B00094F82B0005281AD004284FF0000020D0C1
:1056C0000EF012FCDCA29B217F200DF0D3FF94F89A
:1056D0003000F8B1D9A000BF01F0AAFD2E2080E76C
:1056E00008B1CCA2D6E7CCA2D4E7CDA2D2E7002065
:1056F0000EF0FAFBD7A296217F20FDF7F5FFD6A288
:10570000E1E70EF0F1FBD3A296217F20FDF7ECFF3D
:10571000BFA2D8E7D1A0DFE7882108460EF0CEFB74
:105720001F2318227F2196200EF0E6F894F82B0014
:1057300005281FD00428BF4826D00EF0D5FBBEA2F6
:105740009B217F200DF096FF21F082FA94F836001D
:10575000002894F8300020D020B3A9A29621AA20D6
:105760000DF088FF94F83000F0B1C0A001F060FDAA
:105770005F2036E7AF480EF0B7FBB6A296217F2038
:10578000FDF7B2FFB4A2DBE70EF0AEFBB1A29621AB
:105790007F20FDF7A9FF9EA2D2E708B19DA2DDE719
:1057A0009DA2DBE79EA2D9E7B3A0DFE721F02AFAAA
:1057B00094F83600002894F830001FD018B390A257
:1057C0009621AA200DF056FF21F042FA94F83930C4
:1057D00094F83820AFF2EC1101A8303420F02AFA06
:1057E00001AA9621D0200DF045FF207868B1A5A030
:1057F00001F01EFD012068706120F2E608B185A26B
:10580000DEE785A2DCE786A2DAE7A0A0F0E721F0D8
:10581000F9F994F8393094F83820AFF2302101A822
:10582000303420F007FA01AA9621D0200DF022FF93
:1058300021F00EFAE37AA27AAFF2502101A820F00B
:10584000F9F901AA9621F8200DF014FF207838B15B
:1058500092A000BF01F0ECFC012068706220C0E65D
:105860008FA0F7E792A0B9E694F8300008B194A2AF
:105870000CE095A20AE094F8300008B194A205E08B
:1058800094A203E094F8300090B194A23146322003
:105890000DF0F0FE21F0DCF994F82F0050B1012852
:1058A0000AD002280AD003280AD004280AD00EE021
:1058B0008CA2EBE78DA206E08EA204E08FA202E0AC
:1058C00090A200E091A2314657200DF0D3FE94F84B
:1058D000300028B18FA000BF01F0AAFC322080E682
:1058E00091A0F9E721F08EF994F82F0040B101283A
:1058F00008D0022808D0032808D0042808D00CE0DB
:105900007AA206E07BA204E07CA202E07DA200E095
:105910007EA2314657200DF0ADFE21F099F994F8A2
:105920003700002894F830000ED090B134A23146F0
:1059300082200DF09FFE94F8300060B17DA000BF82
:1059400001F076FC60204CE608B132A2EFE732A20B
:10595000EDE733A2EBE779A0F2E77B4C7B4E7C4886
:1059600094ED212AD6ED214AC07B96ED194AD6ED59
:10597000113A96ED093AD6ED012AD4ED191A94EDB3
:10598000111AD4ED090A94ED010AACF1380CBCF1FE
:105990000F0FBFF44BA8DFE80CF00AF6E8E7E6E5E6
:1059A000E408E3E2E1E0DFDEDD00FFF73FB840B10D
:1059B00001280CD0022812D0032818D004281ED0A9
:1059C000DFE0022021F090FF94ED000AD6E0B0EE77
:1059D000600A022021F088FF94ED080ACEE0B0EEC4
:1059E000410A022021F080FF94ED100AC6E0B0EEDB
:1059F000610A022021F078FF94ED180ABEE0B6E0BB
:105A00004F4E000042757A7A6572204F4E2F4F46F6
:105A1000460000004F464600B9D8B1D5000000004E
:105A2000B4F2BFAA00000000B7E4C3F9C6F7C9E8A2
:105A3000D6C3000000FFFF004B00000053656C65FB
:105A400063742074656D706572617475726520751C
:105A50006E6974006F00000043000000CEC2B6C83B
:105A6000B5A5CEBBD1A1D4F1000000005472696786
:105A70002054696D65720000B6A8CAB1B2C9BCAF46
:105A8000000000005354415254000000B2C9BCAFA2
:105A9000BFAACABCCAB1BCE400000000454E440025
:105AA000B2C9BCAFBDE1CAF8CAB1BCE40000000095
:105AB000BCC7C2BCBCE4B8F4CAB1BCE4000000007E
:105AC0004641535400000000BFECCBD90000000059
:105AD0004D454400D6D0CBD900000000534C4F5761
