:020000040800F2
:1000000060470120C1010008CD3F010845110108EA
:10001000653F0108F5120008BF3402080000000027
:10002000000000000000000000000000317D010819
:100030005969000800000000AD400108C9800108AE
:10004000DB010008DB010008DB010008DB01000820
:10005000DB010008DB010008DB010008DB01000810
:10006000DB010008DB010008DB010008DB01000800
:10007000DB010008DB010008DB010008DB010008F0
:10008000DB010008DB010008DB010008DB010008E0
:10009000DB010008DB010008DB010008DB010008D0
:1000A000DB010008DB010008DB010008DB010008C0
:1000B000DB010008DB010008DB010008DB010008B0
:1000C000DB010008DB010008DB010008DB010008A0
:1000D000DB010008651C0208DB010008DB010008E9
:1000E000DB010008DB010008DB010008DB01000880
:1000F000DB010008DB010008DB010008DB01000870
:10010000DB01000861660108DB010008DB01000873
:10011000DB010008DB01000861810108DB01000848
:10012000DB010008DB010008DB010008993D000845
:10013000DB010008DB010008DB010008DB0100082F
:10014000DB010008DB010008DB0100087140010849
:10015000DB010008DB010008DB010008DB0100080F
:10016000DB010008DB010008894001087D4001082F
:10017000DB01000895400108DB010008DB010008F5
:10018000DB010008DB010008DB010008DB010008DF
:10019000DB010008DB010008DB010008DB010008CF
:1001A000DB010008DB010008DB010008DFF80CD0F0
:1001B00000F08AFC00480047ED6B02086047012010
:1001C0000648804706480047FEE7FEE7FEE7FEE7F1
:1001D000FEE7FEE7FEE7FEE7FEE7FEE70581010832
:1001E000AD0100082DE9F05F0546002092469B46D0
:1001F00088460646814640241BE02846414647463D
:10020000224600F0BAFA53465A46C01A914110D31A
:1002100011461846224600F0A1FA2D1A67EB010894
:100220004F4622460120002100F098FA17EB000902
:100230004E41201EA4F10104DFDC484631462A4627
:100240004346BDE8F09F40EA01039B0703D009E065
:1002500008C9121F08C0042AFAD203E011F8013BB2
:1002600000F8013B521EF9D27047D2B201E000F80B
:10027000012B491EFBD270470022F6E710B513464A
:100280000A4604461946FFF7F0FF204610BD421EFD
:1002900012F8013F002BFBD111F8013B02F8013BA2
:1002A000002BF9D1704710B5044604E00B7800F834
:1002B000013B03B1491C521EF8D2204610BD421C1E
:1002C00010F8011B0029FBD1801A704710B50022DD
:1002D00000E0521C835C8C5CA34201D1002BF8D15E
:1002E000D8B2E1B2401A10BD034611F8012B00F854
:1002F000012B002AF9D11846704770B5064623F045
:10030000A3FF046805460A220021304600F0A6FA41
:100310002C6070BD2DE9FE4F804681EA0300C00FBE
:100320000C46009021F0004123F00045B8EB02009C
:10033000A94105D24046214690461C460B4602463E
:1003400023F00040104347D0270DC7F30A00C3F342
:100350000A510290401A019040286BDAC3F313004F
:1003600040F4801B0098924620B10023D2EB030A90
:1003700063EB0B0B01985946C0F14002504600F068
:10038000EDF906460D4650465946019A00F005FA29
:1003900010EB08006141002487EA115284EAE773F8
:1003A0001A4340D0009A62B3019A012A4FEA0752D9
:1003B00015DC001B61EB02014FF0004202EA07521C
:1003C000CDE90042001C41F5801132462B4600F079
:1003D000C3FA03B0BDE8F08F40462146F9E7001BA1
:1003E00061EB0201001C41F5801300185B412018ED
:1003F000A2F5001747EB030140EAD570B6196D412D
:1004000011E06D084FEA360645EAC0754FEA07521B
:10041000001B61EB0201001C41F5801149084FEA05
:1004200030000019514132462B4603B0BDE8F04F71
:1004300000F083BA0098012240000023D0EB0202B2
:1004400063EBE073009821464FEAE074B8EB0000DC
:1004500061EB0401E9E783F000435BE781F00041D1
:1004600058E72DE9FE4F81EA030404F0004421F02F
:10047000004100944FF0000B23F0004350EA0104C8
:100480005ED052EA03045BD0C3F30A54C1F30A55A9
:100490002C44A4F2F3340194A0FB0254C1F31301E1
:1004A00041F48011C3F3130343F4801301FB0244AE
:1004B00000FB034E840A970A44EA815447EA8357B3
:1004C000A4FB076802958D0A05FB07854FEA932C6C
:1004D00004FB0C542705029D4FEA065847EA1637DD
:1004E000B5EB08056EEB070C870E920E47EA8117F5
:1004F00042EA8312A7FB0201B6EB0B0164EB000496
:100500002B0D43EA0C335E1844EB1C50DA4651467F
:10051000E7FB0201C5F313044FEA0B3343EA14531C
:100520004FEA0432019C43EA0603A4F10C0402944E
:10053000009CCDE900B400F00FFA03B0BDE8F08FE5
:1005400000200146F9E72DE9F04D81EA030404F0AB
:10055000004B21F0004514464FF0000A23F0004103
:1005600050EA050220D054EA01021DD0C5F30A5713
:100570000246C5F31303C1F31300C1F30A5640F456
:10058000801543F48013A7EB0608101BD64608F22B
:10059000FD3873EB050002D308F1010801E0921861
:1005A0005B41B8F1000F03DA00200146BDE8F08D91
:1005B00000204FF48011064684460EE0171B73EBB3
:1005C000050705D3121B63EB050306434CEA010C38
:1005D00049084FEA300092185B4150EA0107EDD11B
:1005E00052EA030012D082EA040083EA05010843BC
:1005F00005D0101BAB4106D20122002306E00022E9
:100600004FF0004302E06FF0010253101AEB0600B6
:100610004CEB085110EB0A0041EB0B01BDE8F04D2B
:1006200000F08BB90EB540F2334102910021CDE9C3
:1006300000110A460B4600F08FF903B000BDC1F36C
:100640000A5210B5C1F3130140F2FF3341F4801197
:100650009A4201DA002010BD40F233439A42A2F2DE
:10066000334203DC524200F088F810BD904010BDC8
:1006700000F0004230F000400AD0C10D01F5607179
:10068000C0F3160042EA0151C20840071143704707
:10069000002001467047000030B5041E71F10004CF
:1006A00004DB4FF00044404264EB0101141E73F17F
:1006B000000405DB1C464FF00043524263EB040389
:1006C0008B4208BF824230BD30B5041E71F1000478
:1006D00004DB4FF00044404264EB0101141E73F14F
:1006E000000405DB1C464FF00043524263EB040359
:1006F000994208BF904230BD01F0004330B421F070
:10070000004150EA010206D00A0DA2F56072C1F361
:100710001301002A02DC30BC00207047440F44EA79
:10072000C104C100E01830BC00EBC25000F0CEB8EC
:1007300030B50B46014600202022012409E021FAB1
:1007400002F59D4205D303FA02F5491B04FA02F5AE
:100750002844151EA2F10102F1DC30BD202A04DB81
:10076000203A00FA02F1002070479140C2F12003C4
:1007700020FA03F3194390407047202A04DB203A03
:1007800021FA02F00021704721FA02F3D040C2F1B1
:1007900020029140084319467047202A06DBCB17F8
:1007A000203A41FA02F043EAE07306E041FA02F32C
:1007B000D040C2F120029140084319467047000022
:1007C0000FB4002300B589B00CA900910B996FF00C
:1007D0000042CB601E4B06931E4B07930423CDE9CA
:1007E00001321D4A089202466B46002000F020FAB2
:1007F00009B05DF814FB70B586B006464FF0FF30C7
:100800000091CDE90101002015460C4604903246C6
:10081000694604A8FFF7D4FF02460498211825B1C1
:1008200008B1084600E020462860049800280DD052
:10083000002A02DD0098884208D0081B0094CDE908
:1008400001043246694604A8FFF7BAFF06B070BD3E
:10085000690E0008870E0008F50A00082DE9F04728
:1008600091460F4680460446002614F8015B2DB1E0
:1008700000F03CF90068405DC007F6D12B2D02D096
:100880002D2D18D0641E4A463946204600F00CFB38
:1008900027B13968A14201D1C7F8008071054FF036
:1008A00002040BD54042002803DD23F0CDFC046098
:1008B000A007BDE8F08746F48066E4E70028F8DA90
:1008C00023F0C2FC04606FF00040F2E70029A8BFEB
:1008D0007047401C490008BF20F00100704710B469
:1008E000B0FA80FC00FA0CF050EA010404BF10BC1E
:1008F000704749B1CCF1200421FA04F411FA0CF14B
:1009000018BF012121430843A3EB0C01CB1D4FEA83
:1009100000614FEA102042BF002010BC704700EB7E
:10092000C35010440029A4BF10BC7047401C4900AC
:1009300008BF20F0010010BC704710B5141E73F101
:10094000000408DA401C41F1000192185B411A438F
:1009500001D120F0010010BD2DE9F04D92469B46DB
:1009600011B1B1FA81F202E0B0FA80F22032904681
:10097000FFF7F4FE04460F4640EA0A0041EA0B0185
:1009800053465A46084313D0114653EA010019D082
:10099000C8F140025046FFF7F0FE05460E465046AD
:1009A00059464246FFF7DAFE084305D0012004E02D
:1009B00020463946BDE8F08D0020054346EAE07642
:1009C0002C4337430A986305E40AA0EB0800002291
:1009D000FD0A44EA47540A3002D500200146E9E7FF
:1009E000010510196941DDE9084500196941BDE8B3
:1009F000F04DA2E72DE9F04D00231A461B1A8A415B
:100A000003DB00200146BDE8F08DC1F30A52C1F3BB
:100A1000130141F480154FF0000BD10702D10018EB
:100A20006D41521E0027044640F2FF11384601EB8B
:100A3000620A3E468046024600204FF48011FFF7CE
:100A40009CFEC2197141BB1846EB0100B4EB030CCC
:100A500075EB000C04D3E41A65EB000517460E464F
:100A6000241908F101006D4180463428E3DDF919AD
:100A700046EB0600091BA84103D24FF0FF32134694
:100A800001E0002213461BEB070046EB0A51BDE8CC
:100A9000F04DFFF752BFC1F30A52C1F3130140F208
:100AA000FF3341F480119A4202DA00200146704778
:100AB00040F233439A42A2F2334202DC5242FFF741
:100AC0005CBEFFF74BBE0000064C074D06E0E06839
:100AD00040F0010394E8070098471034AC42F6D385
:100AE000FFF768FBC80F0708E80F070800487047C2
:100AF000500F070810B50446FFF7F8FF0068005DC7
:100B000000F0010010BD00002DE9FF4F087883B010
:100B10009946FF2805D0491C2D2804D00024002028
:100B200008E000200BE00124F9E700EB800003EB74
:100B30004000491C0B78FF2BF7D104B14042002341
:100B40000293147819461D462D2C01D02B2C04D16C
:100B5000521C2D2C13D000240294AA461478FF2C8A
:100B60000FD00A25A3FB057801FB05814FF0000C8F
:100B700003FB0C11521CE3194AEB0101EEE70124BF
:100B8000EAE7814453EA010002D019F5C87F06DA8A
:100B900003980021C0E9001107B0BDE8F08F0025DF
:100BA000AE4E2F46DFF8B882184600F0DAF9CDE9EC
:100BB0000001B9F1000002DAC9F1000400E00446C6
:100BC0000023A74A1AEB030B42EB045A12E0E0079A
:100BD00007D02A46334638464146FFF742FC0746CF
:100BE00088462A46334610461946FFF73AFC054622
:100BF0000E466410002CEAD1DDE90001B9F1000FC6
:100C00005A46534606DAFFF79EFC3A464346FFF73C
:100C10009AFC05E0FFF725FC3A464346FFF721FC26
:100C2000029A0AB181F00041039AC2E90001B3E7D8
:100C30002DE9FF4F1F468DB0D7E901464FF0FF3831
:100C40002E2045464FF000090B90B9696D1C0E9897
:100C50008847396A824688470028F6D1BAF1FF3FB3
:100C60000AD024F4D064002E11DDBAF12B0F08D085
:100C7000BAF12D0F0BD102E0404611B08DE744F4DC
:100C80008064B9696D1C0E9888478246761E694655
:100C9000600501D52D2000E02B208DF8000001F12A
:100CA000010B0DF1200809E0B9696D1C0E98884709
:100CB00082460F9844F40074761E0560002E02DD13
:100CC000BAF1300FF0D00B998A453ED144F0800440
:100CD00006E00F99681CA9F1010944F4007408604A
:100CE000B9696D1C761E0E98884782463028F0D070
:100CF0002BE00B998A4505D1200603D444F08004EB
:100D0000761E18E0504623F0DBFB08B30DF113010B
:100D1000761E44F400748B4508D2AAF130000BF81B
:100D2000010B200607D5A9F1010003E0200602D43B
:100D300009F101008146A00502D50F99681C0860E1
:100D4000B9696D1C0E9888478246002ED1DC53E0AD
:100D5000002E51DDBAF1650F02D0BAF1450F4BD12B
:100D6000A00549D5B9696D1C24F44074761E0E980F
:100D700088478246002E0CDD2B2804D0BAF12D0FB7
:100D800007D144F48074B9696D1C0E988847824677
:100D9000761EE00501D52D2100E02B2108F8011B6E
:100DA000CDF82C8021E00DF12901761E44F4007469
:100DB00088450CD2AAF1300010F0FF0088F800003E
:100DC00002D10B99884509D908F1010806E0E00530
:100DD00001D5244801E042F20F708146B9696D1CCB
:100DE0000E98884782460F980560002E04DD504615
:100DF00023F066FB0028D6D1F9690E988847FF20BA
:100E00008BF8000088F800000020069007904B4601
:100E10006A4608A906A8FFF777FEA00502D46FF07E
:100E200001002AE714F0240F0AD0E00714D1DDE90D
:100E300006123868031D3B600068C0E900120BE031
:100E4000DDE90601FFF758FC0146E00704D13868E8
:100E5000021D3A600068016028460EE70000144059
:100E60000000F03FF1D8FFFF426842B1016811F87D
:100E7000013B23B1521EC0E9001218467047012100
:100E8000C160881E704742685AB1C368016843B99F
:100E900083688B4205D0491E521CC0E90012002015
:100EA00070474FF0FF3070472DE9F05F82460078C1
:100EB000002715468B460AF10104B946302801D0B7
:100EC0009DB113E014F8010B0127782803D05828AE
:100ED00001D045B10AE00DB1102D07D10027102532
:100EE00014F8010B02E0082500E00A250026B046B0
:100EF0000EE005FB080005FB06F1012701EB10469B
:100F00001FFA80F8B6F5803F00D3B94614F8010BFC
:100F1000294600F018F80028EBDABBF1000F05D0E5
:100F20000FB1641E00E05446CBF80040B9F1000F49
:100F300006D023F089F902210160C81EBDE8F09FA8
:100F400048EA0640FAE73A2800D2303820F020027A
:100F5000412A01D3A2F13700884201D34FF0FF307C
:100F600070470EB540F2334202920022CDE90022D2
:100F70001346FFF7F1FC03B000BD70B58C1810F8F4
:100F8000015B15F0070301D110F8013B2A1106D1CE
:100F900010F8012B03E010F8016B01F8016B5B1EE8
:100FA000F9D12B0705D40023521E0DD401F8013BC3
:100FB000FAE710F8013BCB1A921C03E013F8015B2F
:100FC00001F8015B521EF9D5A142D8D3002070BDB3
:100FD000184910B5887A0A282BD2DFE800F01A2ABF
:100FE000222A2A2A2A26051EC87AC97B134A00EB20
:100FF000C1015339C9B29FED100A02EB8101523889
:1010000081ED000AC0B225F0FBFFBDE8104016F0EC
:10101000A1BEBDE8104028F01FBABDE8104026F080
:10102000AFBDBDE8104017F0EBBBBDE8104002F0CB
:1010300043BC10BDF800002000000000C03F0120AC
:101040000029816802D041F0010101E021F0010195
:1010500081607047084B10B5D3F8042307490A4054
:10106000D0E900142143D0E9024004432143114355
:10107000C3F8041310BD000000200140E030FCFF65
:101080000029816802D041F4807101E021F480716F
:10109000816070470029816802D041F4007101E04D
:1010A00021F400718160704730B542680F4B0C79B4
:1010B0001A400B6842EA04221343436082680C4BD7
:1010C0004D791A40D1E9034323438C6844EA45042F
:1010D000234313438360C26A097D22F47002491ED0
:1010E000C9B242EA0151C16230BD0000FFFEFFFCFF
:1010F000FDF7FFC070B5072609290AD9C568A1F117
:101100000A0404EB4404A640B543A3401D43C56054
:1011100007E0056901EB4104A640B543A3401D4328
:1011200005611F23072A09D2446B521E02EB82027B
:1011300093409C4391400C43446370BD0D2A09D2F7
:10114000046BD21F02EB820293409C4391400C43FC
:10115000046370BDC46A0D3A02EB820293409C4363
:1011600091400C43C46270BD816841F08041816050
:1011700070470000F0B5324BDFED300A9FED310AC9
:10118000C3ED010AA3F20C77002183ED020A0846A1
:101190002D4EA3F1A00597F833200AE017F800C000
:1011A000BCF1000F03D155F820C0B4450CDB401C46
:1011B000C0B28242F2D8012C06D0C3ED000AC3EDC2
:1011C000010AC3ED020AF0BD0020204C2AE017F806
:1011D00000C0BCF1000F23D105EB800C9CED000A90
:1011E00010EE10CAB4451BDA04EB800C491C9CEDD0
:1011F000001AC9B230EE410A93ED011A70EE200ACE
:10120000B4EEC10AF1EE10FA01DD83ED010A93EDAF
:10121000021AB4EEC10AF1EE10FA01D283ED020A0D
:10122000401CC0B28242D2D800EE101AB8EE400A7A
:1012300080EE801A83ED001AF0BD0000000000006F
:10124000C00B002000E0F94400E0F944C03F012059
:101250000A48817A0D290BD2DFE801F00A0A0A0A4E
:10126000070D0D0D0D0A0A0A0B00C07A332802D0B3
:1012700070470348007823F0BDBF0000F80000204D
:10128000E501002000210D4A0846135C012B00D126
:101290000121401CC0B22828F7D30948012908D1F0
:1012A0000649503991F82A10012902D105490978D7
:1012B00011B1002117F084B80121FBE704050020DB
:1012C00000040140020100201CB54FF48070012190
:1012D00000908DF8041000208DF806008DF807109E
:1012E0008DF80500694602480FF0D4FE1CBD0000D1
:1012F00000000240FEE7000010B5074C0121204627
:1013000017F05EF84FF6FF7005F08AFB2046BDE847
:101310001040002117F054B80004014010B50446F5
:1013200039202AF0F5FCE0B22AF016FDC4F30720BC
:101330002AF012FDC4F307402AF00EFD200E2AF019
:101340000BFD2AF0D5FCBDE8104022F097BE70B529
:10135000064614460D463C202AF0DAFCE8B22AF094
:10136000FBFC280A2AF0F8FC2AF0C2FC0CB1002091
:1013700011E022F083FE1E280FD1304600F030F934
:1013800005463D202AF0C4FC2AF0B2FC2E44002C75
:10139000EFD0208828442080EBE770BD10B512F014
:1013A000C5FE08B100F069F8BDE81040302000F03B
:1013B000B2B8312000F0AFB80146362000F09EB838
:1013C00010B508B100F0C5F8BDE81040342000F0B9
:1013D000A2B870B5054600F0A7F804000DD001468C
:1013E000284600F021F8412807D0142803D04228CD
:1013F00000D1B32070BD432070BD2819BDE87040F6
:10140000FFF7DEBF10B5044600F0A3F820785C2893
:1014100001D02F2803D10021642000F0F7F8BDE8A7
:101420001040322000F077B870B50E460021054616
:10143000012401E0641CE4B2285D5C2813D02F284D
:1014400011D00028F6D100246818FFF7DBFF002C2C
:1014500008D0B44206D041280AD0142806D0422829
:1014600000D1B32070BD641CE4B2EDE7432070BD31
:101470002146E1E7FF21FFF7D7BF10B522202AF070
:1014800047FC322005F0CCFA2AF038FC04462AF05A
:101490002FFC204610BD2DE9F0412AF02FFC064616
:1014A0002AF02CFC05462AF029FC04462AF026FCEA
:1014B00007462AF01DFC46EA052040EA044040EABF
:1014C0000760BDE8F08110B504460C202AF020FC2E
:1014D00020462AF041FCBDE81040FFF7DCBF10B504
:1014E00004460A202AF014FC20462AF035FC2AF093
:1014F00005FC04462AF0FCFB204610BD10B50C4646
:101500002AF006FC20462AF027FC2AF0F1FBBDE871
:10151000104022F0B3BD10B52AF0FAFB2AF0E8FB28
:10152000BDE8104022F0AABD014600E0491C0A783F
:10153000002AFBD105E011F8012D5C2A03D02F2AE7
:1015400001D08142F7D1814200D0491C081AC0B2B3
:10155000704770B5054601202AF0DAFB2AF0CEFB71
:10156000432828D22B20FFF7BAFF102823D22F20A0
:101570002AF0CEFB00202AF0EFFB3220FFF7CBFF52
:10158000142818D1CF20FFF7AAFF040013D04C2055
:10159000FFF799FF00EB04214C2000F037F85020B2
:1015A000FFF791FF00EB0421502000F02FF80021FD
:1015B000702000F02BF82F202AF0AAFB2C7806E0F0
:1015C00015F8014F5C2C01D02F2C00D100242046AF
:1015D0002AF0C2FB002CF3D1BDE870402AF088BB92
:1015E00070B505462D202AF093FB2AF087FB0446B0
:1015F000260007D028782AF0AFFB641E6D1C14F07B
:10160000FF04F7D12AF074FB304670BD70B5054673
:101610000C460D202AF07CFB28462AF09DFBE0B208
:101620002AF09AFBC4F307202AF096FBC4F3074084
:101630002AF092FB200E2AF08FFBBDE870402AF0C2
:1016400057BB00002DE9F04188B00121812012F044
:1016500079FD0121080312F0B1FDDFF8C8800522F1
:10166000114640460FF052FD0522062140460FF07C
:101670004DFD0522072140460FF048FD02258DF85B
:1016800005508DF80450002420278DF8064000975F
:101690008DF80740694640460FF0FCFC4020009062
:1016A000694640460FF0F6FC8020009069464046AF
:1016B0000FF0F0FC1020012600908DF804608DF8EA
:1016C0000640694640460FF0E5FC8DF8044000975F
:1016D0008DF80760694614480FF0DCFCADF808404F
:1016E0004FF48270ADF80A00ADF810602802ADF832
:1016F00012003820ADF81400ADF80C40ADF81640DB
:1017000007200A4CADF81800ADF80E5002A920468B
:1017100016F07FFA0121204616F078F808B0BDE8EF
:10172000F081000000000240001C02400030014037
:10173000F0B5FF231A46002518E0445D62400024FE
:1017400002F0010613F0010F4FEA53034FEA520271
:1017500001D042F080021EB183F0A00382F00102AA
:10176000641CE4B2082CEBD36D1CEDB28D42E4D3C3
:1017700042EA0320F0BD00002DE9F047FE48FF4F8C
:10178000FF4C00784FF482754FF4AA764FF47048FE
:101790004FF4A57940B1012874D0022873D00328F2
:1017A00072D0042871D025E32078012801D028B117
:1017B0000FE0882011F004F8384603E0882010F08C
:1017C000FFFF404611F018F8EEA20A21642010F045
:1017D00025FC6078012801D028B10FE0882010F0A6
:1017E000EFFF384603E0882010F0EAFF404611F092
:1017F00003F8E5A20A21B42010F010FCA07801281B
:1018000001D028B10FE0882010F0DAFF384603E05D
:10181000882010F0D5FF404610F0EEFFDBA20A2131
:10182000284610F0FBFBE078012801D028B10FE03A
:10183000882010F0C5FF384603E0882010F0C0FF74
:10184000404610F0D9FFD2A20A21304610F0E6FB44
:101850002079012801D028B10FE0882010F0B0FFD6
:10186000384603E0882010F0ABFF404610F0C4FF7C
:10187000C8A24946642010F0D1FB6079012805D048
:1018800048B113E039E0CEE063E133E2882010F0A4
:1018900097FF384603E0882010F092FF404610F092
:1018A000ABFFBDA24946B42010F0B8FBA0790128D7
:1018B00001D028B10FE0882010F082FF384603E005
:1018C000882010F07DFF404610F096FFB3A24946F5
:1018D000284610F0A3FBE079012801D028B189E265
:1018E000882010F06DFF384603E0882010F068FF74
:1018F000404610F081FFAAA278E2207A01284FF03A
:10190000880070D010F05CFF404610F075FFA5A273
:101910000A21642010F082FB607A01284FF08800D1
:1019200065D010F04DFF404610F066FF9EA20A21E0
:10193000B42010F073FBA07A01284FF088005AD031
:1019400010F03EFF404610F057FF98A20A212846AB
:1019500010F064FBE07A01284FF088004FD010F0BF
:101960002FFF404610F048FF91A20A21304610F0A8
:1019700055FB207B01284FF0880044D010F020FF59
:10198000404610F039FF8BA24946642010F046FB18
:10199000607B01284FF0880039D010F011FF4046DD
:1019A00010F02AFF84A24946B42010F037FBA07B38
:1019B00001284FF088002ED010F002FF404610F0B2
:1019C0001BFF7EA24946284610F028FBE07B012839
:1019D0004FF0880023D010F0F3FE404610F00CFFCB
:1019E00077A203E2FFE710F0EBFE38468DE710F038
:1019F000E7FE384698E710F0E3FE3846A3E710F01C
:101A0000DFFE3846AEE710F0DBFE3846B9E710F0EF
:101A1000D7FE3846C4E710F0D3FE3846CFE710F0C3
:101A2000CFFE3846DAE7207C01284FF0880070D0DE
:101A300010F0C6FE404610F0DFFE62A20A216420CC
:101A400010F0ECFA607C01284FF0880065D010F0AF
:101A5000B7FE404610F0D0FE5BA20A21B42010F081
:101A6000DDFAA07C01284FF088005AD010F0A8FEC3
:101A7000404610F0C1FE55A20A21284610F0CEFAC9
:101A8000E07C01284FF088004FD010F099FE4046CE
:101A900010F0B2FE4EA20A21304610F0BFFA207DAF
:101AA00001284FF0880044D010F08AFE404610F024
:101AB000A3FE48A24946642010F0B0FA607D0128D8
:101AC0004FF0880039D010F07BFE404610F094FEB5
:101AD00041A24946B42010F0A1FAA07D01284FF0A0
:101AE00088002ED010F06CFE404610F085FE3BA220
:101AF0004946284610F092FAE07D01284FF0880010
:101B000023D010F05DFE404610F076FE34A26DE169
:101B1000FFE710F055FE38468DE710F051FE3846CD
:101B200098E710F04DFE3846A3E710F049FE38461E
:101B3000AEE710F045FE3846B9E710F041FE3846F2
:101B4000C4E710F03DFE3846CFE710F039FE3846C6
:101B5000DAE7207E01284FF088007DD010F030FEBB
:101B6000404610F049FE1FA20A21642010F056FAE8
:101B7000607E012838E00000040100209355170022
:101B8000B4040020303031003030320030303300C7
:101B900030303400303035003030360030303700EF
:101BA00030303800303039003031300030313100E1
:101BB00030313200303133003031340030313500D3
:101BC00030313600303137003031380030313900B3
:101BD00030323000303231003032320030323300B7
:101BE00030323400303235004FF0880066D010F0CB
:101BF000E7FD404610F000FE99A20A21B42010F043
:101C00000DFAA07E01284FF088005BD010F0D8FDBF
:101C1000404610F0F1FD93A20A21284610F0FEF98B
:101C2000E07E01284FF0880050D010F0C9FD4046FA
:101C300010F0E2FD8CA20A21304610F0EFF9207F6F
:101C400001284FF0880045D010F0BAFD404610F052
:101C5000D3FD86A2494600E02CE0642010F0DEF9B6
:101C6000607F01284FF0880038D010F0A9FD404671
:101C700010F0C2FD7EA24946B42010F0CFF9A07F3B
:101C800001284FF088002DD010F09AFD404610F04A
:101C9000B3FD78A24946284610F0C0F9E07F01283C
:101CA0004FF0880022D010F08BFD404610F0A4FDCC
:101CB00071A29BE010F084FD384652E710F080FDE1
:101CC000384697E710F07CFD3846A2E710F078FD23
:101CD0003846ADE710F074FD3846B8E710F070FDF7
:101CE0003846C5E710F06CFD3846D0E710F068FDC7
:101CF0003846DBE794F8200001284FF088007DD0BB
:101D000010F05EFD404610F077FD5CA20A216420D1
:101D100010F084F994F8210001284FF088006ED06B
:101D200010F04EFD404610F067FD55A20A21B42088
:101D300010F074F994F8220001284FF0880074D054
:101D400010F03EFD404610F057FD4EA20A212846F5
:101D500010F064F994F8230001284FF0880068D04F
:101D600010F02EFD404610F047FD47A20A213046F4
:101D700010F054F994F8240001284FF088005CD04A
:101D800010F01EFD404610F037FD40A24946642089
:101D900010F044F994F8250001284FF0880050D045
:101DA00010F00EFD404610F027FD39A24946B42040
:101DB00010F034F994F8260001284FF0880044D040
:101DC00010F0FEFC404610F017FD32A249462846AE
:101DD00010F024F994F8270001284FF0880038D03B
:101DE00010F0EEFC404610F007FD2BA249463046AD
:101DF00010F014F929490120C87001E00CE010E04E
:101E0000FFF77AFA94F8300038B325A005F0DEFA2F
:101E1000BDE8F04715F09EBF10F0D2FC384672E7DF
:101E200003E010F0CDFC38467DE710F0C9FC3846E1
:101E300089E710F0C5FC384695E710F0C1FC38463C
:101E4000A1E710F0BDFC3846ADE710F0B9FC38460C
:101E5000B9E710F0B5FC3846C5E714A0D6E7000096
:101E6000303236003032370030323800303239000C
:101E70003033300030333100303332003033330010
:101E800030333400303335003033360030333700F0
:101E900030333800303339003034300060010020F6
:101EA0004368616E6E656C2073657400CDA8B5C023
:101EB000C9E8D6C3000000002DE9F05FF948DFF85B
:101EC000E8A3FA4C00784FF482754FF496764FF4FD
:101ED000AA784FF4BE794FF4704B10B101286ED040
:101EE0003CE32078012801D028B10FE0882010F0D1
:101EF00067FC504603E0882010F062FC584610F062
:101F00007BFCEBA20A21642001F0F2FB607801283F
:101F100001D028B10FE0882010F052FC504603E0B9
:101F2000882010F04DFC584610F066FCE1A20A2112
:101F30008C2001F0DDFBA078012801D028B10FE052
:101F4000882010F03DFC504603E0882010F038FC5B
:101F5000584610F051FCD8A20A21B42001F0C8FB69
:101F6000E078012801D028B10FE0882010F028FC8B
:101F7000504603E0882010F023FC584610F03CFC4B
:101F8000CEA20A21DC2001F0B3FB2079012801D088
:101F900028B10FE0882010F013FC504603E08820A1
:101FA00010F00EFC584610F027FCC5A20A21284666
:101FB00001F09EFB6079012802D030B110E0C6E14B
:101FC000882010F0FDFB504603E0882010F0F8FB5D
:101FD000584610F011FCBBA20A21304601F088FBE4
:101FE000A079012801D028B10FE0882010F0E8FB8B
:101FF000504603E0882010F0E3FB584610F0FCFB4D
:10200000B1A20A21404601F073FBE079012801D01A
:1020100028B10FE0882010F0D3FB504603E0882061
:1020200010F0CEFB584610F0E7FBA8A20A21484664
:1020300001F05EFB94F83300082872D9207A012859
:1020400001D028B10FE0882010F0BAFB504603E021
:10205000882010F0B5FB584610F0CEFB9CA2D22190
:10206000642001F045FB607A012801D028B10FE01F
:10207000882010F0A5FB504603E0882010F0A0FB5C
:10208000584610F0B9FB93A2D2218C2001F030FB0E
:10209000A07A012801D028B10FE0882010F090FB31
:1020A000504603E0882010F08BFB584610F0A4FB4C
:1020B00089A2D221B42001F01BFBE07A012801D0D3
:1020C00028B10FE0882010F07BFB504603E0882009
:1020D00010F076FB584610F08FFB80A2D221DC2056
:1020E00001F006FB207B012801D028B10FE08820F9
:1020F00010F066FB504603E0882010F061FB584664
:1021000010F07AFB76A2D221284601F0F1FA607B2A
:10211000012801D030B110E0882010F051FB50466A
:1021200004E034E0882010F04BFB584610F064FBCC
:102130006CA2D221304601F0DBFAA07B012801D04D
:1021400028B10FE0882010F03BFB504603E08820C8
:1021500010F036FB584610F04FFB63A2D2214046E8
:1021600001F0C6FAE07B012801D028B10FE08820F9
:1021700010F026FB504603E0882010F021FB584663
:1021800010F03AFB59A2D221484601F0B1FA94F876
:10219000330010286FD9207C4FF4CD77012801D06F
:1021A00028B10FE0882010F00BFB504603E0882098
:1021B00010F006FB584610F01FFB4DA23946642074
:1021C00001F096FA607C012801D028B10FE0882048
:1021D00010F0F6FA504603E0882010F0F1FA584665
:1021E00010F00AFB43A239468C2001F081FAA07C52
:1021F000012801D028B10FE0882010F0E1FA504604
:1022000003E0882010F0DCFA584610F0F5FA3AA204
:102210003946B42001F06CFAE07C012801D028B1E5
:102220000FE0882010F0CCFA504603E0882010F030
:10223000C7FA584610F0E0FA30A23946DC2001F027
:1022400057FA207D012801D028B10FE0882010F036
:10225000B7FA504603E0882010F0B2FA584610F062
:10226000CBFA27A23946284601F042FA607D0128C0
:1022700002D030B110E071E1882010F0A1FA504690
:1022800003E0882010F09CFA584610F0B5FA1DA221
:102290003946304601F02CFAA07D012834D000B137
:1022A00042E036E00401002093551700B4040020FA
:1022B00030303100303032003030330030303400D4
:1022C00030303500303036003030370030303800B4
:1022D00030303900303130003031310030313200AF
:1022E0003031330030313400303135003031360098
:1022F0003031370030313800303139003032300081
:102300003032310030323200882010F059FA504615
:1023100003E0882010F054FA584610F06DFABAA283
:102320003946404601F0E4F9E07D012801D028B1AA
:1023300014E1882010F044FA504603E0882010F0A1
:102340003FFA584610F058FAB0A2394603E1207E11
:1023500001284FF088007CD010F032FA584610F077
:102360004BFAABA20A21642001F0C2F9607E012879
:102370004FF088006ED010F023FA584610F03CFA67
:10238000A4A20A218C2001F0B3F9A07E01284FF00D
:1023900088007DD010F014FA584610F02DFA9EA255
:1023A0000A21B42001F0A4F9E07E01284FF0880052
:1023B0006FD010F005FA584610F01EFA97A20A21C5
:1023C000DC2001F095F9207F01284FF088007DD0B6
:1023D00010F0F6F9584610F00FFA91A20A2128469B
:1023E00001F086F9607F01284FF088006FD010F06F
:1023F000E7F9584610F000FA8AA20A21304601F0A7
:1024000077F9A07F01284FF088007DD010F0D8F92F
:10241000584610F0F1F984A20A21404601F068F90B
:10242000E07F01284FF088006FD010F0C9F95846BE
:1024300010F0E2F97DA20A21484601F059F994F81A
:10244000200001284FF088007ED010F0B9F95846DE
:1024500001E092E096E010F0CFF975A2D22164205D
:1024600001F046F994F8210001284FF088006CD063
:1024700010F0A6F9584610F0BFF96EA2D2218C20B8
:1024800001F036F994F8220001284FF0880001E0AD
:102490007CE07FE075D010F093F9584610F0ACF96D
:1024A00065A2D221B42001F023F994F82300012879
:1024B0004FF0880072D010F083F9584610F09CF964
:1024C0005EA2D221DC2001F013F901E067E06AE0AE
:1024D00094F8240001284FF0880070D010F070F9B3
:1024E000584610F089F956A2D221284601F000F989
:1024F00094F8250001284FF0880077D010F060F99B
:10250000584610F079F901E051E054E04DA2D22193
:10251000304601F0EDF894F8260001284FF08800CD
:1025200068D010F04DF9584610F066F946A2D22155
:10253000404601F0DDF894F8270001284FF08800AC
:102540005CD010F03DF901E03BE03EE0584610F071
:1025500053F93EA2D221484601F0CAF83C49012075
:10256000C870FEF7C9FE94F8300048B339A004F0F3
:102570002DFFBDE8F05F15F0EDBB10F021F95046DE
:10258000EDE626E010F01CF95046F7E610F018F9D9
:10259000504602E710F014F950460DE71EE010F027
:1025A0000FF9504617E710F00BF9504622E710F0EC
:1025B00007F950462DE710F003F9504638E711E0CF
:1025C00020E010F0FDF8504642E710F0F9F85046D0
:1025D00051E710F0F5F8504660E707E010F0F0F82A
:1025E00050466BE710F0ECF850467AE710F0E8F848
:1025F000504686E710F0E4F8504695E710F0E0F812
:102600005046A4E716A0B2E730323300303234002F
:102610003032350030323600303237003032380058
:102620003032390030333000303331003033320053
:10263000303333003033340030333500303336003C
:102640003033370030333800303339003034300025
:10265000600100204368616E6E656C2073657400D4
:10266000CDA8B5C0C9E8D6C3000000002DE9F05FD1
:10267000F84CDFF8E4A34FF4704B2078012801D028
:1026800028B10FE0882010F09BF8504603E0882026
:1026900010F096F8584610F0AFF8F0A20A21642026
:1026A00001F05CF86078012801D028B10FE08820A3
:1026B00010F086F8504603E0882010F081F8584664
:1026C00010F09AF8E6A20A218C2001F047F8A078D1
:1026D000012801D028B10FE0882010F071F8504691
:1026E00003E0882010F06CF8584610F085F8DDA261
:1026F0000A21B42001F032F8E078012801D028B195
:102700000FE0882010F05CF8504603E0882010F0BD
:1027100057F8584610F070F8D3A20A21DC2001F0D7
:102720001DF820794FF48275012801D028B10FE0FF
:10273000882010F045F8504603E0882010F040F85B
:10274000584610F059F8C9A20A21284601F006F8A7
:1027500060794FF49676012801D028B10FE08820E7
:1027600010F02EF8504603E0882010F029F8584663
:1027700010F042F8BEA20A21304600F0EFFFA07927
:102780004FF4AA79012801D028B10FE0882010F079
:1027900017F8504603E0882010F012F8584610F061
:1027A0002BF8B4A20A21484600F0D8FFE0794FF494
:1027B000BE78012801D028B10FE0882010F000F881
:1027C000504603E088200FF0FBFF584610F014F845
:1027D000A9A20A21404600F0C1FF94F8330008285E
:1027E00072D9207A012801D028B10FE088200FF09B
:1027F000E7FF504603E088200FF0E2FF58460FF055
:10280000FBFF9EA28621642000F0A8FF607A0128C9
:1028100001D028B10FE088200FF0D2FF504603E02E
:1028200088200FF0CDFF58460FF0E6FF94A28621D6
:102830008C2000F093FFA07A012801D028B10FE08E
:1028400088200FF0BDFF504603E088200FF0B8FF4E
:1028500058460FF0D1FF8BA28621B42000F07EFFF6
:10286000E07A012801D028B10FE088200FF0A8FFFE
:10287000504603E088200FF0A3FF58460FF0BCFF3E
:1028800081A28621DC2000F069FF207B012801D095
:1028900028B10FE088200FF093FF504603E0882016
:1028A0000FF08EFF58460FF0A7FF78A2862128462A
:1028B00000F054FF607B012801D030B110E0882087
:1028C0000FF07EFF504604E034E088200FF078FFE0
:1028D00058460FF091FF6EA28621304600F03EFF71
:1028E000A07B012801D028B10FE088200FF068FFFD
:1028F000504603E088200FF063FF58460FF07CFF3E
:1029000064A28621484600F029FFE07B012801D01F
:1029100028B10FE088200FF053FF504603E08820D5
:102920000FF04EFF58460FF067FF5BA2862140462E
:1029300000F014FF94F8330010286FD9207C4FF476
:102940008177012801D028B10FE088200FF038FFEF
:10295000504603E088200FF033FF58460FF04CFF3D
:102960004EA23946642000F0F9FE607C012801D0B7
:1029700028B10FE088200FF023FF504603E08820A5
:102980000FF01EFF58460FF037FF45A239468C2046
:1029900000F0E4FEA07C012801D028B10FE08820DF
:1029A0000FF00EFF504603E088200FF009FF584655
:1029B0000FF022FF3BA23946B42000F0CFFEE07CAE
:1029C000012801D028B10FE088200FF0F9FE504611
:1029D00003E088200FF0F4FE58460FF00DFF32A2FE
:1029E0003946DC2000F0BAFE207D012801D028B154
:1029F0000FE088200FF0E4FE504603E088200FF03F
:102A0000DFFE58460FF0F8FE28A23946284600F0AF
:102A1000A5FE607D012802D030B110E0C6E188201B
:102A20000FF0CEFE504603E088200FF0C9FE584656
:102A30000FF0E2FE1EA23946304600F08FFEA07D68
:102A4000012801D028B140E088200FF0B9FE50469F
:102A500034E02FE0B40400209355170030303100EB
:102A60003030320030303300303034003030350018
:102A700030303600303037003030380030303900F8
:102A800030313000303131003031320030313300FC
:102A900030313400303135003031360030313700DC
:102AA00030313800303139003032300030323100CE
:102AB0003032320088200FF083FE58460FF09CFE23
:102AC000C3A23946484600F049FEE07D012801D006
:102AD00028B10FE088200FF073FE504603E08820F5
:102AE0000FF06EFE58460FF087FEBAA239464046F8
:102AF00000F034FE207E4FF4BF77012801D028B1CA
:102B00000FE088200FF05CFE504603E088200FF0B5
:102B100057FE58460FF070FEAFA23946642000F011
:102B20001DFE607E012801D028B10FE088200FF043
:102B300047FE504603E088200FF042FE58460FF053
:102B40005BFEA6A239468C2000F008FEA07E01287C
:102B500001D028B10FE088200FF032FE504603E08C
:102B600088200FF02DFE58460FF046FE9CA23946F5
:102B7000B42000F0F3FDE07E012801D028B10FE081
:102B800088200FF01DFE504603E088200FF018FE4D
:102B900058460FF031FE93A23946DC2000F0DEFDEE
:102BA000207F012801D028B10FE088200FF008FE17
:102BB000504603E088200FF003FE58460FF01CFE3D
:102BC00089A23946284600F0C9FD607F012801D05E
:102BD00028B10FE088200FF0F3FD504603E0882075
:102BE0000FF0EEFD58460FF007FE80A23946304642
:102BF00000F0B4FDA07F012801D028B10FE08820AB
:102C00000FF0DEFD504603E088200FF0D9FD584656
:102C10000FF0F2FD76A23946484600F09FFDE07FB6
:102C2000012801D028B10FE088200FF0C9FD5046DF
:102C300003E088200FF0C4FD58460FF0DDFD6DA2C3
:102C40003946404600F08AFD94F820004FF4FD77A5
:102C5000012801D028B10FE088200FF0B1FD5046C7
:102C600003E088200FF0ACFD58460FF0C5FD62A2CE
:102C70003946642000F072FD94F82100012801D04B
:102C800028B10FE088200FF09BFD504603E088201C
:102C90000FF096FD58460FF0AFFD58A239468C2034
:102CA00000F05CFD94F82200012801D028B10FE06B
:102CB00088200FF085FD504603E088200FF080FD4E
:102CC00058460FF099FD4EA23946B42000F046FD5B
:102CD00094F82300012801D028B10FE088200FF0DC
:102CE0006FFD504603E088200FF06AFD58460FF054
:102CF00083FD44A23946DC2000F030FD94F8240026
:102D0000012801D028B10FE088200FF059FD50466E
:102D100003E088200FF054FD58460FF06DFD3AA2F5
:102D20003946284600F01AFD94F82500012801D004
:102D300028B10FE088200FF043FD504603E08820C3
:102D40000FF03EFD58460FF057FD30A23946304691
:102D500000F004FD94F82600012801D028B10FE00E
:102D600088200FF02DFD504603E088200FF028FD4D
:102D700058460FF041FD26A23946484600F0EEFCC9
:102D800094F82700012801D028B10FE088200FF027
:102D900017FD504603E088200FF012FD58460FF053
:102DA0002BFD1CA23946404600F0D8FC1A490120F0
:102DB000C870FEF7A1FA94F8300030B117A004F003
:102DC00005FBBDE8F05F14F0C5BF17A0F7E70000F2
:102DD0003032330030323400303235003032360099
:102DE0003032370030323800303239003033300082
:102DF000303331003033320030333300303334007D
:102E0000303335003033360030333700303338005C
:102E10003033390030343000600100204368616E87
:102E20006E656C2073657400CDA8B5C0C9E8D6C3C3
:102E30000000000070B504461A481D4D00EB8400E8
:102E400010ED010A184800EB840050ED010A174804
:102E500000EB840030EE600A50ED010AB4EEE00AA7
:102E6000F1EE10FA09D3134800EB840050ED010A8B
:102E7000B4EEE00AF1EE10FA05DD0D48503890F896
:102E80002C00012807D088216FF07F400FF09EFCB6
:102E90000020285570BD88214FF47F000FF096FC6C
:102EA0000120F6E7200B0020C03F0120B84300209E
:102EB000040500201843002070B53749054600245A
:102EC000086810F0450FFBD0410702D50324042009
:102ED00003E0C00704D00124204613F05BFB59E057
:102EE00013F094FBA8422BD140F2FF5013F052FB99
:102EF000002013F0ADFB294908424BD0002801DA2D
:102F00001C2070BD410001D5092070BD810001D594
:102F10000A2070BDC10001D50B2070BD010101D593
:102F20000C2070BD410101D50D2070BDC10101D53E
:102F30000E2070BD010201D50F2070BD410201D5E8
:102F4000102070BD810201D5112070BDC10201D5D4
:102F5000122070BD010301D5132070BD410301D5BE
:102F6000142070BD810301D5152070BDC10301D5AA
:102F7000162070BD010401D5172070BD410401D594
:102F8000182070BD810401D5192070BD000701D53E
:102F90001A2070BD204670BD342C014008E0FFFDB2
:102FA00010B50B4A0024116811F0450FFBD04807FB
:102FB00002D50324042003E0C80705D001242046DD
:102FC00013F0E8FA204610BD40F2FF50F8E7000089
:102FD000342C014070B50C46194906460025086896
:102FE00010F0450FFBD0410702D50324042003E075
:102FF000C00705D00124204613F0CCFA204670BD4E
:1030000013F004FBB04212D140F2FF5013F0C2FAA9
:10301000002013F01DFB10F4604F03D0810404D591
:10302000132070BD000C208007E0410401D5102062
:1030300070BD000401D50F2070BD284670BD000092
:10304000342C014038B564211348FDF715F9134CB1
:10305000E0780D2802D112A004F0B8F91848C17820
:103060000091837842780C4816A1143021F0D8F8EA
:103070000948143022F00AFDE07040B1082808D059
:1030800014A004F0A3F9A078401CA07038BD13A0D0
:10309000F7E714A0F5E70000060E0020D401002099
:1030A000BCD3D4D8CEC4BCFECFB5CDB3CAA7B0DC98
:1030B000A3ACC7EBD6D8D0C2B8F1CABDBBAF000035
:1030C00058010020303A2F253032642530326425F3
:1030D00030326400CAA7B0DC00000000B3C9B9A652
:1030E00000000000C4BFC2BCD2D1B4E6D4DA0000F4
:1030F00010B50B460C0601F07F0202EB820100EBDB
:10310000C10102D501F58E7101E001F55D710A7012
:10311000DA094A701FF0B9FF002010BD0A4610B549
:10312000090602F07F0306D503EB830100EBC10122
:1031300001F58E7105E002EB820100EBC10101F5A2
:103140005D7100248C700B70D2094A701FF084FFEF
:10315000002010BD10B50A0604D501F07F0120F053
:10316000B7F801E020F096F8002010BD70B50D46CC
:103170000E0601F07F0404EB840100EBC10102D5CF
:1031800001F58E7101E001F55D71ED090C704D7076
:103190008A60CB7000D0CC80022B01D100220A7152
:1031A0001FF026FF002070BD10B501F07F0404EB76
:1031B000840100EBC101C1F88833C1F880230023EA
:1031C000C1F88C3381F8753381F87443C37801F505
:1031D0005D71012B00D10A6114F0FF0F03D01FF0C5
:1031E00093FF002010BD1FF094FEFAE70069002253
:1031F00061F30A1201681143016070470A4610B575
:10320000090602F07F0306D503EB830100EBC10141
:1032100001F58E7105E002EB820100EBC10101F5C1
:103220005D7101248C700B70D2094A701FF054FF3D
:10323000002010BD70B511F07F0404EB840100EB99
:10324000C1014FF0010581F81D5181F81C41C1F801
:103250002821C1F82C2101F58E714FF00002C1E93F
:10326000053203D01FF050FF002070BD1FF051FE4B
:10327000FAE700002DE9F0410646002420F071F83D
:10328000074655E0F80751D03069E1B20369426B57
:10329000CA4006EB810102F00102896943EAC212C9
:1032A0008D681540E9071AD00125426B05FA04F133
:1032B0008A43426306EB8400806985601F48E1B25F
:1032C0000068426830469047F078012807D134B949
:1032D00096F81101042802D130461FF077FE280726
:1032E00004D506EB8400082580698560E80604D5CE
:1032F00006EB8400102580698560680604D506EB1E
:103300008400402580698560A80704D506EB840009
:10331000022580698560280608D52146304600F0E0
:103320006CF906EB84018020896988607F08641C41
:10333000002FA7D10120BDE8F08100001C02002071
:103340002DE9F0410546002420F011F80746DFF88A
:10335000988043E0F8073FD0E1B2284620F00DF80E
:103360000646C00725D005EB84000126416D8E601E
:10337000E97801290CD1406D016904EB840005EB6B
:10338000C000C1F31201D0F87C23511AC0F88C138D
:10339000D8F80000E1B2026828469047E878012892
:1033A00007D134B995F81101052802D128461FF03C
:1033B0000DFEB00704D505EB84000226406D866043
:1033C000300709D5D8F8000081682846884705EB02
:1033D00084010820496D88607F08641C002FB9D1E2
:1033E0000120BDE8F08100001C02002070B50546F8
:1033F000C068816921F010018161E868066A06F001
:103400000F0000EB800005EBC004C6F3434004F559
:103410005D74072821D2DFE800F02020042020205E
:10342000150047F6F070064217D0C6F30A1632466A
:103430002846E1681FF0A9FFE0683044E060A06919
:10344000304409E0082205F2CC5128461FF09DFFC8
:10345000A069C6F30A110844A061E868816941F0D7
:1034600010018161012070BD38B5044600208DF83F
:10347000000094F812018DF80000154800684169B9
:103480002046884720698068E2684FF400615161F6
:10349000A17AD1B1C00718D094F81501012814D130
:1034A0009DF80000032810D1D4F80C01016841F008
:1034B00001010160D4F80C01016841F003010160D1
:1034C0000448016841F006010160012038BD000098
:1034D0001C02002010ED00E070B5044600690025D4
:1034E0000126416821F001014160294620461FF074
:1034F000EFFE0020FF2206E004EB80018B699A605A
:10350000496D8A60401C61788142F5D821694FF08D
:10351000FF3088612846216966F30F0066F31F407B
:10352000C861216945F00B0048612169C1F8840038
:10353000216945F00B000861216948642069016830
:1035400021F4FE61016020461FF040FDE1684FF468
:10355000805048610348006801692046884701207F
:1035600070BD00001C02002070B504461FF01EFF55
:103570000120002384F8120184F814311A464025F2
:1035800010E002EB820104EBC10181F81D0181F81A
:103590001C21A1F8222181F81F31C1E94953521C95
:1035A000C1F8303161789142EBD8002010E000EB97
:1035B000800104EBC10181F8753381F87403A1F82F
:1035C0007A0381F87733C1E9DF53401CC1F88833AF
:1035D00061788142EBD820461FF076FC20461FF030
:1035E00053FB002120461FF041FF20461FF08CFBBB
:1035F0002046BDE870401FF045BE2DE9F0470E465D
:1036000001EB860100EBC1048046D4E94C01401A6D
:10361000D4F8241104F58E74814200D20846C01CEF
:10362000870808EB86091EE0451AA068A84200D268
:103630000546E81C8708ABB2F2B24046E1681FF0CD
:103640002AFFE0682844E060A0692844A06161691D
:10365000884208D3207801218140D8F81000426BBD
:103660008A4342630BE0D9F81800806980B2B842FF
:1036700005D9D4E90501814201D20028D4D1012025
:10368000BDE8F0872DE9F04115460C468046154E01
:103690004FF4207719E0802A0BD21348B0612146FD
:1036A00040460EF04BFCB0696D1C8088204484B20B
:1036B0000BE00E48B0612A462146404600F0BEF9B4
:1036C000B069AD1C8088204484B2BC4208D22A78FC
:1036D000002A05D0B0698088011989B28142DAD206
:1036E000BDE8F08160000020A4000020E40000207C
:1036F0002DE9F04115460C468046154E4FF42077D3
:1037000019E0802A0BD21348B061214640460EF0E2
:1037100015FCB0696D1C8088204484B20BE00E4813
:10372000B0612A46214640460EF01EFCB069AD1C31
:103730008088204484B2BC4208D22A78002A05D06E
:10374000B0698088011989B28142DAD2BDE8F0817E
:10375000600000209C000020D40000202DE9F041F2
:1037600015460C468046154E4FF4207719E0802A06
:103770000BD21348B061214640460EF0DFFBB06922
:103780006D1C8088204484B20BE00E48B0612A464C
:103790002146404600F0F8F8B069AD1C808820440E
:1037A00084B2BC4208D22A78002A05D0B069808849
:1037B000011989B28142DAD2BDE8F08160000020AF
:1037C0008C000020EC0000202DE9F04F882185B00E
:1037D00008460EF0FBFF4FF4C87B5B4664222821AD
:1037E0000A200EF017FD2B4EDFF8ACA0DFF8AC80FE
:1037F000DFF8AC900024882143F2FF300EF0E6FFA2
:10380000621C28A103A820F00BFDC4EBC40000EB50
:1038100080002830054603AA0A210EF0C9FB28467D
:1038200021A232210EF0C4FB7079671C874202D1BD
:103830005146002001E0882150460EF0C7FF98F85D
:10384000000000EB800004EB400000EB800101EB86
:10385000C00101EB090228464621823A0EF0A8FB7E
:10386000FCB20A2CC7D3882150460EF0AFFF337943
:1038700098F800200DA1684620F0D2FC6A464FF46B
:10388000FA7158460EF094FB0A490D20087005B0F5
:10389000BDE8F08FD401002000FFFF00E40100200C
:1038A000043E0020256400002E00000025642F2522
:1038B00064000000020100202DE9F0472A4EDFF8E5
:1038C000AC90DFF8AC80DFF8ACA086B00024882193
:1038D00048460EF07BFF621C27A103A820F0A0FC45
:1038E000C4EBC40000EB80002830054603AA0A217F
:1038F0000EF05EFB284621A232210EF059FB7079B2
:10390000671C874202D14946002001E088214846D1
:103910000EF05CFF98F8000000EB800004EB400024
:1039200000EB800101EBC00101EB0A0228464621B1
:10393000823A0EF03DFBFCB20A2CC8D388214846DF
:103940000EF044FF337998F800200DA1684620F06E
:1039500067FC6A464FF4FA714FF4C8700EF028FB0A
:1039600006B0BDE8F0870000D401002000FFFF0092
:10397000E4010020C82E0020256400002E00000075
:1039800025642F25640000002DE9F04116460F46FE
:10399000804600240D4D0FE032788A420AD105EBB3
:1039A000400271785078814204D139464046921CD9
:1039B0000EF0A6FB641CA4B2C4EBC40000EB4000F4
:1039C00015F810108029E7D8BDE8F081552C0308C0
:1039D0002DE9F04115460C468046154E4FF42077F0
:1039E00019E0802A0BD21348B061214640460EF000
:1039F000A5FAB0696D1C8088204484B20BE00E48A3
:103A0000B0612A462146404600F018F8B069AD1C66
:103A10008088204484B2BC4208D22A78002A05D08B
:103A2000B0698088011989B28142DAD2BDE8F0819B
:103A300060000020BC000020DC0000202DE9F041E7
:103A400016460F46804600240C4D0EE032788A421E
:103A500009D1421971785078814204D139464046E3
:103A6000921C0EF04DFB641CA4B204EB8400C0EB6E
:103A70008410295C8029E9D8BDE8F081100F030883
:103A80002DE9F04115460C468046154E4FF420773F
:103A900019E0802A0BD21348B061214640460EF04F
:103AA0004DFAB0696D1C8088204484B20BE00E484A
:103AB000B0612A4621464046FFF7C0FFB069AD1C01
:103AC0008088204484B2BC4208D22A78002A05D0DB
:103AD000B0698088011989B28142DAD2BDE8F081EB
:103AE00060000020C4000020DC0000202DE9F0412F
:103AF000204E15460C4680466BB3012B38D18821E9
:103B000008460EF063FE28239022414620460EF020
:103B100081FBBDE8F04188216FF07F400EF056BE7A
:103B2000802A0BD21448B061214640460EF006FAB6
:103B3000B0696D1C8088204484B20EE00F48B061EB
:103B40002A46214640460EF00FFAB069AD1C808827
:103B5000204484B201E04FF42077BC4208D22A7896
:103B6000002A05D0B0698088011989B28142D7D274
:103B7000BDE8F08160000020AC000020D4000020EF
:103B80002DE9F041204E15460C4680466BB3012BC3
:103B900038D1882108460EF019FE1C2360224146C8
:103BA00020460EF037FBBDE8F04188216FF07F40E2
:103BB0000EF00CBE802A0BD21448B061214640465C
:103BC0000EF0BCF9B0696D1C8088204484B20EE010
:103BD0000F48B0612A46214640460EF0C5F9B0694B
:103BE000AD1C8088204484B201E04FF42077BC42B1
:103BF00008D22A78002A05D0B0698088011989B2D4
:103C00008142D7D2BDE8F08160000020B4000020DE
:103C1000D40000202DE9F041204E15460C46804688
:103C20006BB3012B38D1882108460EF0CFFD142349
:103C30003222414620460EF0EDFABDE8F0418821DF
:103C40006FF07F400EF0C2BD802A0BD21448B061E5
:103C5000214640460EF072F9B0696D1C8088204400
:103C600084B20EE00F48B0612A46214640460EF06D
:103C70007BF9B069AD1C8088204484B201E04FF428
:103C80002077BC4208D22A78002A05D0B069808803
:103C9000011989B28142D7D2BDE8F08160000020CD
:103CA00094000020D400002010B50121CC0520464E
:103CB00010F054FA2046BDE81040002110F04EBA32
:103CC000034A0146002052680A4200D00120704792
:103CD00000B0024030B52A4B00241968294A11402F
:103CE00019601968026811431960596B21F00701C6
:103CF0005963596B426811435963416841B30129C3
:103D00002DD0022930D00329C16832D00A010169BF
:103D10004469090224038568214315430D43996BC7
:103D20000D439D638169D963196C6FF30D011964AB
:103D3000196CC26911431964818C5A6C02F04042BB
:103D40005A645A6C006A024342EA01425A6430BD26
:103D5000C168047D0A02018A09042406DBE7C16800
:103D60000A02018A0904D6E7C1684A010169C90249
:103D7000D1E74A01016944698902E403CBE7000005
:103D800000B00240FCE0FCFF0248016841F0010184
:103D90000160704700B0024013F03ABB074A9042FE
:103DA00001D2074801E005481038064A8B0001EAB5
:103DB000020101D5C1607047816070471064024004
:103DC000006002407D0F7D0F0029016802D041F0A4
:103DD000010101E021F00101016070472DE9F0438C
:103DE000016821F0010101600021016041608160F2
:103DF000C1600161212141613C493C4A3D251039A6
:103E0000904202D18D60BDE8F083384A4FF4746669
:103E10001832904201D18E60F5E7344A4FF474179E
:103E20003032904201D18F60EDE7304A4FF0746C30
:103E30004832904202D1C1F808C0E4E72B4B2C4A2B
:103E40006033984201D1CA60DDE7284C294B7834B1
:103E5000A04201D1CB60D6E7DFF89080264C08F174
:103E60009008404501D1CC60CDE7DFF880804FF06D
:103E70003D5908F1A808404502D1C1F80C90C2E7AD
:103E80001E49DFF878800839404501D10D60BAE756
:103E90001A4D1835A84201D10E60B4E7174D3035E0
:103EA000A84201D10F60AEE7144D4835A84202D1B7
:103EB000C1F800C0A7E7114D10496035091FA8429D
:103EC00001D10A609FE70D4A7832904201D10B6020
:103ED00099E70A4A9032904201D10C6093E7074A71
:103EE000A83290428FD1C1F800908CE71060024058
:103EF0003D000020400F002000003D2010640240E3
:103F00000029016802D041F0200101E021F02001E8
:103F1000016070470B0607D5436912B143F0800377
:103F200001E023F080034361802908D0002A026861
:103F300001F01E0101D00A4300E08A43026070478D
:103F400030B50368124ACC6813400A682243D1E9AD
:103F500005452C432243CC6922430C6A22434C6A18
:103F600022438C6A22434C6B22438C6B22431A43BC
:103F70000260426922F00703D1E90B2422431A436D
:103F800042610A6942604A6882608968C16030BDE6
:103F90003F801CF00548807A052803D0062801D010
:103FA000082802D102A022F0EFBC7047F8000020E0
:103FB0002E0000002DE9F04FF84CF94D2146A07A73
:103FC00091F80BC09FB00D282ED2DFE810F0300022
:103FD00041132D002D00DC0BD30D7E149E14A51172
:103FE0002D002D002D000D0095F83300082802D07B
:103FF000102802D004E0102000E0082085F83300EB
:1040000013F0A8FE6FF07F400EF0F6FB88200EF054
:10401000D7FB95F83320E3A1684620F001F96A4602
:10402000AA2132200DF0C4FF1FB0BDE8F08FDB489D
:104030004FF4CD764FF48177017BD9484FF4BF79A7
:104040004FF4FD7A90F82D2090F827301E93C37F0F
:104050001D93C37D1C93C37B1B9390F826301A934A
:10406000837F1993837D1893837B179390F8253072
:104070001693437F1593437D1493437B139390F8DA
:1040800024301293037F1193037D1093037B0F93CE
:1040900090F823300E93C37E0D93C37C0C93C37AA8
:1040A0000B9390F822300A93837E0993837C0893C4
:1040B000837A079390F821300693437E0593437CDF
:1040C0000493437A039390F820E090F818B0037CAF
:1040D000007ABCF1290FA7D2DFE81CF02900C50047
:1040E00048012F02B40249031A04AB0441055306E8
:1040F0009106D0060D074C078E07D0071608580802
:104100008208B008DA080609340962099009BC0976
:10411000D409EC09040A1D0A370A510A6B0A840AF9
:104120009D0AB60ACF0AE90A040B1F0B3A0B9F48F7
:104130000EF062FB88200EF043FB95F82900022860
:1041400012D0012812D0032812D0042812D005283A
:1041500012D0062812D0072812D0082812D0092819
:1041600012D00B2812D016E091A210E092A20EE01D
:1041700093A20CE094A20AE095A208E096A206E0C1
:1041800097A204E098A202E099A200E09AA264211A
:104190002F200DF00DFF95F82D0020B1012835D00E
:1041A00002284FD04AE0207B40B101280BD00228E2
:1041B0000ED0032811D0042814D01CE0287822F057
:1041C00011FA8FA213E0287A22F00CFA8DA20EE0E9
:1041D000287C22F007FA8CA209E0287E22F002FA5D
:1041E0008AA204E095F8200022F0FCF988A20A21B6
:1041F00064200DF013FF95F8300028B185A003F07E
:10420000E5F8012001F0BDBA85A0F8E7207B10B1E8
:10421000012805D020E0287822F0E4F978A203E014
:10422000287E22F0DFF979A20A216420FFF760FAE4
:1042300012E07BA000E077A003F0C8F8012005F0B1
:1042400099F8F1E6207B38B9287822F0CBF96CA2F6
:104250000A216420FFF782FA0120E07295F830000D
:104260000028E8D1E5E74E4F02263F7832B1012A17
:104270004FD0022AE2D100296AD082E241B101295D
:104280000BD002290DD0032910D0042913D0F4E754
:10429000384622F06FF95AA211E022F06BF959A2C8
:1042A0000DE0184622F066F957A208E0584622F0C1
:1042B00061F956A203E0704622F05CF954A20A218B
:1042C00064200DF0ABFE207B40B101280BD002280A
:1042D0000ED0032811D0042814D0CEE7687822F03D
:1042E00081F952A213E0687A22F07CF950A20EE024
:1042F000687C22F077F94FA209E0687E22F072F91B
:104300004DA204E095F8210022F06CF94BA20A219D
:104310008FE211B101290DD0AFE7384622F02AF91A
:1043200037A20A216420FFF7E3F9687822F05AF9EE
:104330003EA20BE0584622F01DF934A20A21642067
:10434000FFF7D6F9687E22F04DF93BA20A21F1E38E
:10435000384622F00FF92AA20A216420FFF7FEF95D
:10436000687822F03FF931A20A21F7E30C480326CE
:10437000407832B1012A10D0022A7FF413AF51B134
:104380007BE749B1012960D0022964D0032968D0B4
:1043900004296CD071E7BFE052E09AE0F8000020F9
:1043A000B4040020253033640000000000FFFF004B
:1043B00054432D4B0000000054432D5400000000D6
:1043C00054432D4A0000000054432D4E00000000CD
:1043D00054432D450000000054432D5300000000BD
:1043E00054432D520000000054432D4200000000B1
:1043F0005054313030000000317E3556000000004E
:104400003030310030303900303137003032350053
:10441000303333004368616E6E656C2073657400E1
:10442000CDA8B5C0C9E8D6C30000000030303200C6
:104430003031300030313800303236003033340023
:1044400022F098F8AFF21C0216E0039822F092F8DE
:10445000AFF2240210E0049822F08CF8AFF22C02A4
:104460000AE0059822F086F8AFF2340204E00698DC
:1044700022F080F8AFF23C020A21B4200DF0CEFD0C
:10448000207B40B101280BD002280ED0032811D088
:10449000042814D0F1E6A87822F0A4F8FDA213E0D5
:1044A000A87A22F09FF8FCA20EE0A87C22F09AF8ED
:1044B000FAA209E0A87E22F095F8F9A204E095F8A6
:1044C000220022F08FF8F7A20A217EE20DF0A6FD6D
:1044D000D3E611B101290DD0CFE622F04BF8AFF2AF
:1044E000B4020A218C20FFF703F9A87822F07AF8A9
:1044F000E8A20CE0059822F03DF8AFF2C4020A21D0
:104500008C20FFF7F5F8A87E22F06CF8E4A20A21CF
:10451000EDE3FFF7EDF8B0E622F02CF8AFF2F4028D
:104520000A218C20FFF71AF9A87822F05BF8D9A2AB
:104530000A21F5E3FFF712F99FE6DB4804268078AD
:1045400032B1012A53D0022A7FF42CAE89B394E60B
:1045500041B101290AD002290DD0032910D0042924
:1045600013D08AE622F006F8CAA212E0079822F0D9
:1045700001F8C9A20DE0089821F0FCFFC7A208E0ED
:10458000099821F0F7FFC6A203E00A9821F0F2FF94
:10459000C4A20A214FF482700DF040FD207B48B187
:1045A00001280CD002280FD0032812D0042815D0DF
:1045B00063E63AE0E87822F015F8BCA213E0E87A66
:1045C00022F010F8BAA20EE0E87C22F00BF8B9A2B3
:1045D00009E0E87E22F006F8B7A204E095F823008F
:1045E00022F000F8B5A20A214FF4AA706EE711B1CB
:1045F00001290CD041E621F0BDFFA6A20A21B4207A
:10460000FFF776F8E87821F0EDFFA8A20BE0099813
:1046100021F0B0FFA2A20A21B420FFF769F8E87EDA
:1046200021F0E0FFA4A20A21F0E321F0A3FF99A268
:104630000A21B420FFF792F8E87821F0D3FF9BA27B
:104640000A21F7E39848C07832B1012A59D0022AEA
:104650007FF4F7ADF1B375E041B101290AD0022929
:104660000DD0032910D0042913D01BE021F082FFC4
:104670008EA212E00B9821F07DFF8DA20DE00C9828
:1046800021F078FF8BA208E00D9821F073FF8AA239
:1046900003E00E9821F06EFF88A20A214FF4AA7061
:1046A0000DF0BCFC00200EF0A7F885480EF088F84D
:1046B00095F8290002286FD001286ED003286DD00C
:1046C00004286CD005286BD006286AD0072869D04A
:1046D000082800E03AE06FD009286ED00B286DD092
:1046E00003E064212F200DF063FC95F8300008B141
:1046F00074A000E078A002F069FE06F04FF90020F7
:10470000A5E211B101290CD01CE021F033FF67A212
:104710000A21DC20FEF7ECFF287921F063FF72A26A
:104720000BE00D9821F026FF63A20A21DC20FEF7A2
:10473000DFFF287F21F056FF6CA20A214FF4827020
:10474000FEF7D6FF012004F015FE68E221F012FF0B
:1047500056A20A21DC20FFF701F8287921F042FF58
:1047600061A20A214FF48270FEF7F8FFEAE74E4893
:104770000626007932B1012A5DD0022A7FF412ADFB
:10478000D9B305E379B1012911D0022917D0032942
:104790001AD004291DD0FBE266E268E26AE26CE20C
:1047A0006EE270E272E221F0E5FE4FA215E00F9892
:1047B00021F0E0FE4EA210E06BE26DE26FE2109895
:1047C00021F0D8FE4BA208E0119821F0D3FE47A2B9
:1047D00003E0129821F0CEFE47A24FF4A5716420A9
:1047E0000DF01CFC207B48B101280CD002280FD012
:1047F000032812D0042815D0CAE23CE0687921F0E1
:10480000F1FE3EA213E0687B21F0ECFE3CA20EE03C
:10481000687D21F0E7FE3BA209E0687F21F0E2FE1F
:1048200039A204E095F8250021F0DCFE37A24FF410
:10483000A571B4204AE611B101290DD0A8E221F0FA
:1048400099FE29A20A214FF48270FEF751FF687980
:1048500021F0C8FE29A20CE0119821F08BFE23A2C2
:104860000A214FF48270FEF743FF687F21F0BAFE01
:1048700025A20A21AAE321F07DFE1BA20A214FF402
:104880008270FEF76BFF687921F0ACFE1BA20A2153
:10489000AFE30000303033003031310030313900C7
:1048A0003032370030333500B4040020303034006B
:1048B00030313200303230003032380030333600A0
:1048C00000FFFF00546865726D6F636F75706C65F3
:1048D000206D6F64656C0000C8C8B5E7C5BCD0CD5D
:1048E000BAC5D1A1D4F100003030350030323900E2
:1048F0003031330030323100303337003030360061
:104900003031340030323200303330003033380050
:10491000F7480726407932B1012A59D0022A7FF49C
:1049200041ACB1B3FAE341B101290BD002290FD058
:10493000032913D0042917D0F0E321F01BFEAFF2B6
:10494000440216E0139821F015FEAFF24C0210E07D
:10495000149821F00FFEAFF254020AE0159821F0EE
:1049600009FEAFF25C0204E0169821F003FEAFF2FC
:1049700064024FF4A571B4200DF050FB207B48B1C8
:1049800001280CD002280FD0032812D0042815D0FB
:10499000C4E33FE0A87921F025FED6A213E0A87B6E
:1049A00021F020FED4A20EE0A87D21F01BFED3A2B0
:1049B00009E0A87F21F016FED1A204E095F82600B8
:1049C00021F010FECFA24FF4A5714FF482707DE567
:1049D00011B101290ED0A1E321F0CCFDAFF2E40228
:1049E0000A214FF49670FEF783FEA87921F0FAFDB4
:1049F000C0A20DE0159821F0BDFDAFF2F4020A212E
:104A00004FF49670FEF774FEA87F21F0EBFDBCA278
:104A10000A211DE321F0AEFDAFF220120A214FF46E
:104A20009670FEF79BFEA87921F0DCFDB1A20A2169
:104A300021E3AF48807932B1012A57D0022A7FF4AE
:104A4000FDAB91B388E041B101290AD002290DD014
:104A5000032910D0042913D07EE021F08BFDA5A2FC
:104A600012E0179821F086FDA3A20DE0189821F01E
:104A700081FDA2A208E0199821F07CFDA0A203E02C
:104A80001A9821F077FD9FA24FF4A5714FF4827020
:104A90000DF0C4FA207B48B101280CD002280FD0B9
:104AA000032812D0042815D056E044E0E87921F01C
:104AB00099FD95A213E0E87B21F094FD93A20EE00E
:104AC000E87D21F08FFD92A209E0E87F21F08AFDC8
:104AD00090A204E095F8270021F084FD8EA24FF407
:104AE000A5714FF4AA700DF099FA35E011B10129C2
:104AF0000DD031E021F03EFD7EA20A214FF4AA70D4
:104B0000FEF7F6FDE87921F06DFD7FA20CE0199823
:104B100021F030FD7AA20A214FF4AA70FEF7E8FDD9
:104B2000E87F21F05FFD7BA20A214FF4BE70FEF703
:104B3000DFFD11E04FE121F01DFD6EA20A214FF4CF
:104B4000AA70FEF70BFEE87921F04CFD6EA20A2157
:104B50004FF4BE70FEF702FE0820D4E24CE1644838
:104B6000C07932B1012A5CD0022A7FF45DAA91B3E8
:104B700001E141B101290AD002290DD0032910D049
:104B8000042913D04BE021F0F5FC5FA212E01B9842
:104B900021F0F0FC5DA20DE01C9821F0EBFC5CA282
:104BA00008E01D9821F0E6FC5AA203E01E9821F0CF
:104BB000E1FC59A24FF4A5714FF4AA700DF02EFA42
:104BC000207B48B101280DD0022811D0032815D030
:104BD000042819D023E065E0287921F003FDAFF225
:104BE000F82217E0287B21F0FDFCAFF2FC2211E057
:104BF000287D21F0F7FCAFF204320BE0287F21F092
:104C0000F1FCAFF2183205E095F8240021F0EAFC3F
:104C1000AFF21C324FF4A57164200DF0FFF90520AE
:104C200015E0C1B10129A0D11D9821F0A3FC39A242
:104C30000A214FF4BE70FEF75BFD287E21F0D2FC06
:104C4000AFF638020A216420FEF752FD0120E0721F
:104C50001FB0BDE8F08F21F08DFC2BA20A214FF48C
:104C6000BE70FEF745FD1DE5AFF6BC0239E5AFF6B7
:104C7000B80236E5AFF6B80233E5AFF6B40230E578
:104C8000AFF6B4022DE5AFF6B0022AE5AFF6B002FA
:104C900027E5AFF6AC0224E5AFF6AC0221E5AFF6AE
:104CA000A8021EE521F066FC17A20A214FF4BE708F
:104CB000FEF754FD00200DF09FFD18480DF080FD1B
:104CC00095F8290002282CD001282DD003282ED0B9
:104CD00004282FD0052830D0062831D0072832D01C
:104CE000082833D0092834D00B2835D03AE0B2E078
:104CF000B40400203030370030313500303233001A
:104D00003033310030333900303038003031360044
:104D100030323400303332003034300000FFFF00D6
:104D2000AAE0AFF6741219E0AFF6741216E0AFF60F
:104D3000701213E0AFF6701210E0AFF66C120DE0D7
:104D4000AFF66C120AE0AFF6681207E0AFF6681231
:104D500004E0AFF6641201E0AFF6641264212F2084
:104D60000DF026F995F8300040B1AFF2A84002F0FE
:104D70002DFB0020E07205F011FE69E7AFF2A840BC
:104D8000F5E70A26012A04D0022A7FF457AA29B39C
:104D9000C4E111B101290ED0C0E121F0EBFBAFF667
:104DA0009C12D2216420FEF7A3FC687A21F01AFC41
:104DB000AFF684120EE0704621F0DCFBAFF6B012C5
:104DC000D2216420FEF794FC95F8210021F00AFC22
:104DD000AFF69812D2218C20FFF79BBB21F0CAFBC3
:104DE000AFF6E01286216420FEF7B8FC687A21F065
:104DF000F9FBAFF6C41286218C20FFF79BBB0B2674
:104E0000012A04D0022AC0D139B387E160E011B190
:104E1000012910D082E1039821F0ACFBAFF6F0122B
:104E2000D2218C20FEF764FCA87A21F0DBFBAFF2E4
:104E300098520FE05DE0069821F09CFBAFF604224B
:104E4000D2218C20FEF754FC95F8220021F0CAFBF9
:104E5000AFF2B052D221B420BEE7039821F08AFB12
:104E6000AFF6342286218C20FEF778FCA87A21F058
:104E7000B9FBAFF2DC528621B420BEE70C26012A32
:104E800003D0022ABFD129B348E111B101290FD0C3
:104E900044E1079821F06EFBAFF20462D221B42006
:104EA000FEF726FCE87A21F09DFBAFF2FC520EE003
:104EB0000A9821F05FFBAFF21462D221B420FEF712
:104EC00017FC95F8220021F08DFBAFF21062D22181
:104ED000DC2081E7079821F04DFBAFF24462862188
:104EE000B420FEF73BFCE87A21F07CFBAFF2406295
:104EF0008621DC2081E70D26012A03D0022AC1D1B8
:104F000031B30BE111B101290FD007E10B9821F06A
:104F100031FBAFF26462D221DC20FEF7E9FB287B93
:104F200021F060FBAFF238620EE00E9821F022FB18
:104F3000AFF27862D221DC20FEF7DAFB95F824008C
:104F400021F050FBAFF25062D2214FF4827043E760
:104F50000B9821F00FFBAFF2A8628621DC20FEF750
:104F6000FDFB287B21F03EFBAFF27C6286214FF4F3
:104F7000827042E70E26012A03D0022ABFD141B334
:104F8000CCE011B1012910D0C8E00F9821F0F2FA5D
:104F9000AFF2A462D2214FF48270FEF7A9FB687BC6
:104FA00021F020FBAFF2A8620FE0129821F0E2FAA4
:104FB000AFF2BC62D2214FF48270FEF799FB95F8F4
:104FC000250021F00FFBAFF2BC62D2214FF49670A6
:104FD00002E70F9821F0CEFAAFF2EC6286214FF48F
:104FE0008270FEF7BBFB687B21F0FCFAAFF2F06247
:104FF00086214FF4967000E70F26012A03D0022A7B
:10500000BCD141B38AE011B1012910D086E01398D8
:1050100021F0B0FAAFF21872D2214FF49670FEF779
:1050200067FBA87B21F0DEFAAFF234320FE016986E
:1050300021F0A0FAAFF22C72D2214FF49670FEF755
:1050400057FB95F8260021F0CDFAAFF24832D22175
:105050004FF4AA70C0E6139821F08CFAAFF2607298
:1050600086214FF49670FEF779FBA87B21F0BAFAFF
:10507000AFF27C3286214FF4AA70BEE6012A03D03B
:10508000022ABDD151B33DE011B1012910D039E060
:10509000179821F06FFAAFF2A032D2214FF4AA7024
:1050A000FEF726FBA87B21F09DFAAFF2A0320FE0BD
:1050B0001A9821F05FFAAFF2B432D2214FF4AA70FD
:1050C000FEF716FB95F8270021F08CFAAFF2B83204
:1050D000D2214FF4BE70FEF70BFB13E0179821F0BE
:1050E00049FAAFF2EC3286214FF4AA70FEF736FB94
:1050F000E87B21F077FAAFF2EC3286214FF4BE70F4
:10510000FEF72CFB10203CE30926012A03D0022ADB
:10511000B7D149B302E021B1012912D0E672FFF7FD
:105120008DB81B9821F026FAAFF22042D2214FF41D
:10513000BE70FEF7DDFA287A21F054FAAFF63C5241
:105140000FE01E9821F016FAAFF23442D2214FF44C
:10515000BE70FEF7CDFA95F8200021F043FAAFF6C5
:105160005052D221642037E61B9821F003FAAFF2A7
:10517000644286214FF4BE70FEF7F0FA287A21F0DF
:1051800031FAAFF680528621642036E64FF01208DD
:10519000012A03D0022AC2D189B136E1184621F092
:1051A000E9F9AFF69C5231466420FEF7A1FA687C1B
:1051B00021F018FAAFF6845231468C2028E01846C8
:1051C00021F0D8F9AFF6C05239466420FEF7C6FA8E
:1051D000687C21F007FAAFF6A45239468C202AE009
:1051E0004FF01308012A03D0022A98D199B10CE19B
:1051F000049821F0BFF9AFF6C45231468C20FEF777
:1052000077FAA87C21F0EEF9AFF670123146B4209F
:10521000FEF76EFAF9E0049821F0ACF9AFF6EC5223
:1052200039468C20FEF79AFAA87C21F0DBF9AFF61C
:1052300094123946B420FEF791FAE6E04FF01408D4
:10524000012A03D0022AA6D189B1DEE0089821F014
:1052500091F9AFF6B8123146B420FEF749FAE87C6E
:1052600021F0C0F9AFF6B4123146DC20D0E708983F
:1052700021F080F9AFF6DC123946B420FEF76EFA61
:10528000E87C21F0AFF9AFF6D4123946DC20D2E742
:105290004FF01508012A03D0022AA6D191B1B4E03B
:1052A0000C9821F067F9AFF6F4123146DC20FEF7D6
:1052B0001FFA287D21F096F9AFF6C81231464FF457
:1052C0008270A5E70C9821F055F9AFF618223946FF
:1052D000DC20FEF743FA287D21F084F9AFF6EC12CA
:1052E00039464FF48270A6E74FF01608012A03D022
:1052F000022AA8D199B188E0109821F03BF9AFF6C5
:105300000C2231464FF48270FEF7F2F9687D21F0ED
:1053100069F9AFF6102231464FF4967078E710988D
:1053200021F028F9AFF6342239464FF48270FEF7A7
:1053300015FA687D21F056F9AFF6382239464FF458
:10534000967078E74FF01708012A03D0022AA4D1FB
:1053500099B15AE0149821F00DF9AFF65822314670
:105360004FF49670FEF7C4F9A87D21F03BF9AFF237
:10537000746231464FF4AA704AE7149821F0FAF8A3
:10538000AFF6802239464FF49670FEF7E7F9A87D14
:1053900021F028F9AFF29C6239464FF4AA704AE72F
:1053A0004FF01808012A03D0022AA2D199B12CE0AB
:1053B000189821F0DFF8AFF2BC6231464FF4AA70C2
:1053C000FEF796F9E87D21F00DF9AFF2BC623146A7
:1053D0004FF4BE701CE7189821F0CCF8AFF2E462ED
:1053E00039464FF4AA70FEF7B9F9E87D21F0FAF8D2
:1053F000AFF2E46239464FF4BE701CE74FF011087B
:10540000012A05D0022AA2D199B184F80B8086E640
:105410001C9821F0AFF8AFF2087231464FF4BE701D
:10542000FEF766F9287C21F0DDF8F74A3146642062
:10543000EEE61C9821F09EF8AFF22C7239464FF43C
:10544000BE70FEF78BF9287C21F0CCF8EE4A394685
:105450006420F0E6022ADAD191B9584621F08AF8A0
:10546000E94A4E46121D49466420FEF777F9687EE8
:1054700021F0B8F8E44A314630328C20FEF76EF95C
:105480001A207EE1022AC2D191B9059821F072F862
:10549000DD4A4E46303249468C20FEF75FF9A87E41
:1054A00021F0A0F8AFF608423146B420FEF756F9D5
:1054B0001B2066E1022AAAD191B9099821F05AF875
:1054C000AFF624424E464946B420FEF747F9E87E3F
:1054D00021F088F8AFF620423146DC20FEF73EF995
:1054E0001C204EE1022A92D199B90D9821F042F880
:1054F000AFF63C424E464946DC20FEF72FF9287FA6
:1055000021F070F8AFF61C4231464FF48270FEF77E
:1055100025F91D2035E1022A9DD1A1B9119821F06C
:1055200029F8AFF638424E4649464FF48270FEF7EE
:1055300015F9687F21F056F8AFF6344231464FF442
:105540009670FEF70BF91E201BE1022A9BD1A1B930
:10555000159821F00FF8AFF650424E4649464FF4E9
:105560009670FEF7FBF8A87F21F03CF8AFF67002CA
:1055700031464FF4AA70FEF7F1F81F2001E1022A2C
:1055800099D1A1B9199820F0F5FFAFF68C024E46DB
:1055900049464FF4AA70FEF7E1F8E87F21F022F8BF
:1055A000AFF6900231464FF4BE70FEF7D7F82020D8
:1055B000E7E0022A97D199B91D9820F0DBFFAFF6FA
:1055C000AC024E4649464FF4BE70FEF7C7F8287E3F
:1055D00021F008F88C4A3146121D6420FEF7BEF80F
:1055E0001920CEE0022A97D199B9704620F0C2FF67
:1055F000854A5646083251466420FEF7AFF895F8C2
:10560000210020F0EFFF804A314634328C20FEF733
:10561000A5F82220B5E0022A98D199B9069820F081
:10562000A9FF794A5646343251468C20FEF796F847
:1056300095F8220020F0D6FFAFF698523146B420FC
:10564000FEF78CF823209CE0022A99D199B90A9898
:1056500020F090FFAFF6B45256465146B420FEF704
:105660007DF895F8230020F0BDFFAFF6B05231462B
:10567000DC20FEF773F8242083E0022A9AD1A1B936
:105680000E9820F077FFAFF6CC5256465146DC20FC
:10569000FEF764F895F8240020F0A4FFAFF6A852B6
:1056A00031464FF48270FEF759F8252069E0022A4E
:1056B00099D1A9B9129820F05DFFAFF6C4525646B1
:1056C00051464FF48270FEF749F895F8250020F016
:1056D00089FFAFF6C85231464FF49670FEF73EF898
:1056E00026204EE0022A97D1A9B9169820F042FF51
:1056F000AFF6E852564651464FF49670FEF72EF834
:1057000095F8260020F06EFFAFF6082231464FF4E0
:10571000AA70FEF723F8272033E0022A95D1A9B911
:105720001A9820F027FFAFF62422564651464FF430
:10573000AA70FEF713F895F8270020F053FFAFF694
:10574000282231464FF4BE70FEF708F8282018E0F2
:10575000022A93D1A1B91E9820F00CFFAFF648227F
:10576000564651464FF4BE70FDF7F8FF95F82000FD
:1057700020F038FF244A314608326420FDF7EEFF5E
:105780002120E072CBE44FF4FA76BCF1320F71D0F5
:1057900016DCBCF12C0F48D0BCF12D0F6BD0BCF146
:1057A0002E0F69D0BCF1310F7FF452AA20F004FF14
:1057B00095F82E00C0B301286FD002286ED078E192
:1057C000BCF15F0F6BD0BCF1610F69D0BCF1620F0F
:1057D000EAD120F0F1FE95F83B3095F83A200BA184
:1057E000684630351EF01CFD6A469621F8200CF004
:1057F000DFFB687926F0FCF82878D0B306A001F02A
:10580000E5FD3320FFF723BA0844000825302E3287
:10581000643A25302E3264005265636F72642069E9
:105820006E74657276616C002DE120F0C5FE95F80E
:105830002C00002895F830001FD018B3F7A296214D
:1058400032200CF0B5FB20F0DDFE95F82A00002890
:1058500095F8300018D0E0B1F0A296215A200CF053
:10586000A7FB95F83000B0B1EDA001F0AFFD2D2001
:10587000C8E706E144E114E05EE008B1ECA2DEE72F
:10588000ECA2DCE7EDA2DAE708B1E9A2E5E7E9A2DC
:10589000E3E7EAA2E1E7EBA0E7E7FBE001E195E05F
:1058A000C5E020F089FE95F82A00002895F8300020
:1058B00026D050B3D9A296215A200CF079FBE448A7
:1058C00001460CF083FF1F2318227F2196200CF045
:1058D000A1FC95F82B00052819D004284FF00000F2
:1058E0001FD00CF089FFDBA29B217F200CF060FB16
:1058F00095F83000F0B1D8A001F068FD2E2081E7C6
:1059000008B1CBA2D7E7CBA2D5E7CCA2D3E7002042
:105910000CF072FFD6A296217F20FDF71FFFD5A2C3
:10592000E2E70CF069FFD2A296217F20FDF716FF77
:10593000BEA2D9E7D0A0DFE7882108460CF046FFD9
:105940001F2318227F2196200CF064FC95F82B0071
:1059500005281FD00428BE4826D00CF04DFFBDA25C
:105960009B217F200CF024FB20F04CFE95F83600A4
:10597000002895F8300020D020B3A8A29621AA20B4
:105980000CF016FB95F83000F0B1BFA001F01EFD41
:105990005F2037E7AE480CF02FFFB5A296217F209D
:1059A000FDF7DCFEB3A2DBE70CF026FFB0A29621E8
:1059B0007F20FDF7D3FE9DA2D2E708B19CA2DDE7D0
:1059C0009CA2DBE79DA2D9E7B2A0DFE720F0F4FDBF
:1059D00095F83600002895F830001FD018B38FA234
:1059E0009621AA200CF0E4FA20F00CFE95F839304C
:1059F00095F83820AFF2EC11684630351EF010FCF7
:105A00006A469621D0200CF0D3FA287868B1A4A079
:105A100001F0DCFC012060706120F3E608B184A293
:105A2000DEE784A2DCE785A2DAE79FA0F0E720F0BA
:105A3000C3FD95F8393095F83820AFF2302168462B
:105A400030351EF0EDFB6A469621D0200CF0B0FAFE
:105A500020F0D8FDEB7AAA7AAFF2502168461EF00A
:105A6000DFFB6A469621F8200CF0A2FA287830B1C4
:105A700091A001F0ABFC012060706220C2E68FA013
:105A8000F7E792A0BBE695F8300008B193A20CE0CE
:105A900094A20AE095F8300008B194A205E094A21F
:105AA00003E095F8300090B193A2314632200CF01B
:105AB0007FFA20F0A7FD95F82F0050B101280AD0F9
:105AC00002280AD003280AD004280AD00EE08CA2AB
:105AD000EBE78DA206E08EA204E08FA202E090A286
