:020000040800F2
:10000000C8650220C10100084F550108A12601085A
:100010004D550108ED120008AB4B0208000000002E
:10002000000000000000000000000000C99401086A
:10003000FD680008000000003156010861980108C1
:10004000DB010008DB010008DB010008DB01000820
:10005000DB010008DB010008DB010008DB01000810
:10006000DB010008DB010008DB010008DB01000800
:10007000DB010008DB010008DB010008DB010008F0
:10008000DB010008DB010008DB010008DB010008E0
:10009000DB010008DB010008DB010008DB010008D0
:1000A000DB010008DB010008DB010008DB010008C0
:1000B000DB010008DB010008DB010008DB010008B0
:1000C000DB010008DB010008DB010008DB010008A0
:1000D000DB01000851330208DB010008DB010008E6
:1000E000DB010008DB010008DB010008DB01000880
:1000F000DB010008DB010008DB010008DB01000870
:10010000DB010008917C0108DB010008DB0100082D
:10011000DB010008DB010008F9980108DB01000899
:10012000DB010008DB010008DB010008513D00088D
:10013000DB010008DB010008DB010008DB0100082F
:10014000DB010008DB010008DB010008F5550108B0
:10015000DB010008DB010008DB010008DB0100080F
:10016000DB010008DB0100080D56010801560108FB
:10017000DB01000819560108DB010008DB0100085B
:10018000DB010008DB010008DB010008DB010008DF
:10019000DB010008DB010008DB010008DB010008CF
:1001A000DB010008DB010008DB010008DFF80CD0F0
:1001B00000F08AFC0048004735800208C86502202C
:1001C0000648804706480047FEE7FEE7FEE7FEE7F1
:1001D000FEE7FEE7FEE7FEE7FEE7FEE79D98010883
:1001E000AD0100082DE9F05F0546002092469B46D0
:1001F00088460646814640241BE02846414647463D
:10020000224600F0BAFA53465A46C01A914110D31A
:1002100011461846224600F0A1FA2D1A67EB010894
:100220004F4622460120002100F098FA17EB000902
:100230004E41201EA4F10104DFDC484631462A4627
:100240004346BDE8F09F40EA01039B0703D009E065
:1002500008C9121F08C0042AFAD203E011F8013BB2
:1002600000F8013B521EF9D27047D2B201E000F80B
:10027000012B491EFBD270470022F6E710B513464A
:100280000A4604461946FFF7F0FF204610BD421EFD
:1002900012F8013F002BFBD111F8013B02F8013BA2
:1002A000002BF9D1704710B5044604E00B7800F834
:1002B000013B03B1491C521EF8D2204610BD421C1E
:1002C00010F8011B0029FBD1801A704710B50022DD
:1002D00000E0521C835C8C5CA34201D1002BF8D15E
:1002E000D8B2E1B2401A10BD034611F8012B00F854
:1002F000012B002AF9D11846704770B5064625F043
:1003000045FB046805460A220021304600F0A6FAA3
:100310002C6070BD2DE9FE4F804681EA0300C00FBE
:100320000C46009021F0004123F00045B8EB02009C
:10033000A94105D24046214690461C460B4602463E
:1003400023F00040104347D0270DC7F30A00C3F342
:100350000A510290401A019040286BDAC3F313004F
:1003600040F4801B0098924620B10023D2EB030A90
:1003700063EB0B0B01985946C0F14002504600F068
:10038000EDF906460D4650465946019A00F005FA29
:1003900010EB08006141002487EA115284EAE773F8
:1003A0001A4340D0009A62B3019A012A4FEA0752D9
:1003B00015DC001B61EB02014FF0004202EA07521C
:1003C000CDE90042001C41F5801132462B4600F079
:1003D000C3FA03B0BDE8F08F40462146F9E7001BA1
:1003E00061EB0201001C41F5801300185B412018ED
:1003F000A2F5001747EB030140EAD570B6196D412D
:1004000011E06D084FEA360645EAC0754FEA07521B
:10041000001B61EB0201001C41F5801149084FEA05
:1004200030000019514132462B4603B0BDE8F04F71
:1004300000F083BA0098012240000023D0EB0202B2
:1004400063EBE073009821464FEAE074B8EB0000DC
:1004500061EB0401E9E783F000435BE781F00041D1
:1004600058E72DE9FE4F81EA030404F0004421F02F
:10047000004100944FF0000B23F0004350EA0104C8
:100480005ED052EA03045BD0C3F30A54C1F30A55A9
:100490002C44A4F2F3340194A0FB0254C1F31301E1
:1004A00041F48011C3F3130343F4801301FB0244AE
:1004B00000FB034E840A970A44EA815447EA8357B3
:1004C000A4FB076802958D0A05FB07854FEA932C6C
:1004D00004FB0C542705029D4FEA065847EA1637DD
:1004E000B5EB08056EEB070C870E920E47EA8117F5
:1004F00042EA8312A7FB0201B6EB0B0164EB000496
:100500002B0D43EA0C335E1844EB1C50DA4651467F
:10051000E7FB0201C5F313044FEA0B3343EA14531C
:100520004FEA0432019C43EA0603A4F10C0402944E
:10053000009CCDE900B400F00FFA03B0BDE8F08FE5
:1005400000200146F9E72DE9F04D81EA030404F0AB
:10055000004B21F0004514464FF0000A23F0004103
:1005600050EA050220D054EA01021DD0C5F30A5713
:100570000246C5F31303C1F31300C1F30A5640F456
:10058000801543F48013A7EB0608101BD64608F22B
:10059000FD3873EB050002D308F1010801E0921861
:1005A0005B41B8F1000F03DA00200146BDE8F08D91
:1005B00000204FF48011064684460EE0171B73EBB3
:1005C000050705D3121B63EB050306434CEA010C38
:1005D00049084FEA300092185B4150EA0107EDD11B
:1005E00052EA030012D082EA040083EA05010843BC
:1005F00005D0101BAB4106D20122002306E00022E9
:100600004FF0004302E06FF0010253101AEB0600B6
:100610004CEB085110EB0A0041EB0B01BDE8F04D2B
:1006200000F08BB90EB540F2334102910021CDE9C3
:1006300000110A460B4600F08FF903B000BDC1F36C
:100640000A5210B5C1F3130140F2FF3341F4801197
:100650009A4201DA002010BD40F233439A42A2F2DE
:10066000334203DC524200F088F810BD904010BDC8
:1006700000F0004230F000400AD0C10D01F5607179
:10068000C0F3160042EA0151C20840071143704707
:10069000002001467047000030B5041E71F10004CF
:1006A00004DB4FF00044404264EB0101141E73F17F
:1006B000000405DB1C464FF00043524263EB040389
:1006C0008B4208BF824230BD30B5041E71F1000478
:1006D00004DB4FF00044404264EB0101141E73F14F
:1006E000000405DB1C464FF00043524263EB040359
:1006F000994208BF904230BD01F0004330B421F070
:10070000004150EA010206D00A0DA2F56072C1F361
:100710001301002A02DC30BC00207047440F44EA79
:10072000C104C100E01830BC00EBC25000F0CEB8EC
:1007300030B50B46014600202022012409E021FAB1
:1007400002F59D4205D303FA02F5491B04FA02F5AE
:100750002844151EA2F10102F1DC30BD202A04DB81
:10076000203A00FA02F1002070479140C2F12003C4
:1007700020FA03F3194390407047202A04DB203A03
:1007800021FA02F00021704721FA02F3D040C2F1B1
:1007900020029140084319467047202A06DBCB17F8
:1007A000203A41FA02F043EAE07306E041FA02F32C
:1007B000D040C2F120029140084319467047000022
:1007C0000FB4002300B589B00CA900910B996FF00C
:1007D0000042CB601E4B06931E4B07930423CDE9CA
:1007E00001321D4A089202466B46002000F020FAB2
:1007F00009B05DF814FB70B586B006464FF0FF30C7
:100800000091CDE90101002015460C4604903246C6
:10081000694604A8FFF7D4FF02460498211825B1C1
:1008200008B1084600E020462860049800280DD052
:10083000002A02DD0098884208D0081B0094CDE908
:1008400001043246694604A8FFF7BAFF06B070BD3E
:10085000690E0008870E0008F50A00082DE9F04728
:1008600091460F4680460446002614F8015B2DB1E0
:1008700000F03CF90068405DC007F6D12B2D02D096
:100880002D2D18D0641E4A463946204600F00CFB38
:1008900027B13968A14201D1C7F8008071054FF036
:1008A00002040BD54042002803DD25F06FF80460F8
:1008B000A007BDE8F08746F48066E4E70028F8DA90
:1008C00025F064F804606FF00040F2E70029A8BF4B
:1008D0007047401C490008BF20F00100704710B469
:1008E000B0FA80FC00FA0CF050EA010404BF10BC1E
:1008F000704749B1CCF1200421FA04F411FA0CF14B
:1009000018BF012121430843A3EB0C01CB1D4FEA83
:1009100000614FEA102042BF002010BC704700EB7E
:10092000C35010440029A4BF10BC7047401C4900AC
:1009300008BF20F0010010BC704710B5141E73F101
:10094000000408DA401C41F1000192185B411A438F
:1009500001D120F0010010BD2DE9F04D92469B46DB
:1009600011B1B1FA81F202E0B0FA80F22032904681
:10097000FFF7F4FE04460F4640EA0A0041EA0B0185
:1009800053465A46084313D0114653EA010019D082
:10099000C8F140025046FFF7F0FE05460E465046AD
:1009A00059464246FFF7DAFE084305D0012004E02D
:1009B00020463946BDE8F08D0020054346EAE07642
:1009C0002C4337430A986305E40AA0EB0800002291
:1009D000FD0A44EA47540A3002D500200146E9E7FF
:1009E000010510196941DDE9084500196941BDE8B3
:1009F000F04DA2E72DE9F04D00231A461B1A8A415B
:100A000003DB00200146BDE8F08DC1F30A52C1F3BB
:100A1000130141F480154FF0000BD10702D10018EB
:100A20006D41521E0027044640F2FF11384601EB8B
:100A3000620A3E468046024600204FF48011FFF7CE
:100A40009CFEC2197141BB1846EB0100B4EB030CCC
:100A500075EB000C04D3E41A65EB000517460E464F
:100A6000241908F101006D4180463428E3DDF919AD
:100A700046EB0600091BA84103D24FF0FF32134694
:100A800001E0002213461BEB070046EB0A51BDE8CC
:100A9000F04DFFF752BFC1F30A52C1F3130140F208
:100AA000FF3341F480119A4202DA00200146704778
:100AB00040F233439A42A2F2334202DC5242FFF741
:100AC0005CBEFFF74BBE0000064C074D06E0E06839
:100AD00040F0010394E8070098471034AC42F6D385
:100AE000FFF768FB2C0D07084C0D070800487047FE
:100AF000B40C070810B50446FFF7F8FF0068005D66
:100B000000F0010010BD00002DE9FF4F087883B010
:100B10009946FF2805D0491C2D2804D00024002028
:100B200008E000200BE00124F9E700EB800003EB74
:100B30004000491C0B78FF2BF7D104B14042002341
:100B40000293147819461D462D2C01D02B2C04D16C
:100B5000521C2D2C13D000240294AA461478FF2C8A
:100B60000FD00A25A3FB057801FB05814FF0000C8F
:100B700003FB0C11521CE3194AEB0101EEE70124BF
:100B8000EAE7814453EA010002D019F5C87F06DA8A
:100B900003980021C0E9001107B0BDE8F08F0025DF
:100BA000AE4E2F46DFF8B882184600F0DAF9CDE9EC
:100BB0000001B9F1000002DAC9F1000400E00446C6
:100BC0000023A74A1AEB030B42EB045A12E0E0079A
:100BD00007D02A46334638464146FFF742FC0746CF
:100BE00088462A46334610461946FFF73AFC054622
:100BF0000E466410002CEAD1DDE90001B9F1000FC6
:100C00005A46534606DAFFF79EFC3A464346FFF73C
:100C10009AFC05E0FFF725FC3A464346FFF721FC26
:100C2000029A0AB181F00041039AC2E90001B3E7D8
:100C30002DE9FF4F1F468DB0D7E901464FF0FF3831
:100C40002E2045464FF000090B90B9696D1C0E9897
:100C50008847396A824688470028F6D1BAF1FF3FB3
:100C60000AD024F4D064002E11DDBAF12B0F08D085
:100C7000BAF12D0F0BD102E0404611B08DE744F4DC
:100C80008064B9696D1C0E9888478246761E694655
:100C9000600501D52D2000E02B208DF8000001F12A
:100CA000010B0DF1200809E0B9696D1C0E98884709
:100CB00082460F9844F40074761E0560002E02DD13
:100CC000BAF1300FF0D00B998A453ED144F0800440
:100CD00006E00F99681CA9F1010944F4007408604A
:100CE000B9696D1C761E0E98884782463028F0D070
:100CF0002BE00B998A4505D1200603D444F08004EB
:100D0000761E18E0504624F07FFF08B30DF1130162
:100D1000761E44F400748B4508D2AAF130000BF81B
:100D2000010B200607D5A9F1010003E0200602D43B
:100D300009F101008146A00502D50F99681C0860E1
:100D4000B9696D1C0E9888478246002ED1DC53E0AD
:100D5000002E51DDBAF1650F02D0BAF1450F4BD12B
:100D6000A00549D5B9696D1C24F44074761E0E980F
:100D700088478246002E0CDD2B2804D0BAF12D0FB7
:100D800007D144F48074B9696D1C0E988847824677
:100D9000761EE00501D52D2100E02B2108F8011B6E
:100DA000CDF82C8021E00DF12901761E44F4007469
:100DB00088450CD2AAF1300010F0FF0088F800003E
:100DC00002D10B99884509D908F1010806E0E00530
:100DD00001D5244801E042F20F708146B9696D1CCB
:100DE0000E98884782460F980560002E04DD504615
:100DF00024F00AFF0028D6D1F9690E988847FF2011
:100E00008BF8000088F800000020069007904B4601
:100E10006A4608A906A8FFF777FEA00502D46FF07E
:100E200001002AE714F0240F0AD0E00714D1DDE90D
:100E300006123868031D3B600068C0E900120BE031
:100E4000DDE90601FFF758FC0146E00704D13868E8
:100E5000021D3A600068016028460EE70000144059
:100E60000000F03FF1D8FFFF426842B1016811F87D
:100E7000013B23B1521EC0E9001218467047012100
:100E8000C160881E704742685AB1C368016843B99F
:100E900083688B4205D0491E521CC0E90012002015
:100EA00070474FF0FF3070472DE9F05F82460078C1
:100EB000002715468B460AF10104B946302801D0B7
:100EC0009DB113E014F8010B0127782803D05828AE
:100ED00001D045B10AE00DB1102D07D10027102532
:100EE00014F8010B02E0082500E00A250026B046B0
:100EF0000EE005FB080005FB06F1012701EB10469B
:100F00001FFA80F8B6F5803F00D3B94614F8010BFC
:100F1000294600F018F80028EBDABBF1000F05D0E5
:100F20000FB1641E00E05446CBF80040B9F1000F49
:100F300006D024F02BFD02210160C81EBDE8F09F01
:100F400048EA0640FAE73A2800D2303820F020027A
:100F5000412A01D3A2F13700884201D34FF0FF307C
:100F600070470EB540F2334202920022CDE90022D2
:100F70001346FFF7F1FC03B000BD70B58C1810F8F4
:100F8000015B15F0070301D110F8013B2A1106D1CE
:100F900010F8012B03E010F8016B01F8016B5B1EE8
:100FA000F9D12B0705D40023521E0DD401F8013BC3
:100FB000FAE710F8013BCB1A921C03E013F8015B2F
:100FC00001F8015B521EF9D5A142D8D3002070BDB3
:100FD000164910B5C87A0A2827D2DFE800F01A2689
:100FE000222626262626051E087B097C114A00EBB0
:100FF000C1015339C9B29FED0E0A02EB810152388B
:1010000081ED000AC0B227F02FFABDE8104018F0B9
:101010006DBABDE8104029F05BBCBDE8104027F078
:10102000E3BFBDE8104018F0B7BF10BD3802002084
:1010300000000000E8FF00200029816802D041F094
:10104000010101E021F0010181607047084B10B5FA
:10105000D3F8042307490A40D0E900142143D0E91A
:101060000240044321431143C3F8041310BD0000A0
:1010700000200140E030FCFF0029816802D041F4EB
:10108000807101E021F480718160704700298168DE
:1010900002D041F4007101E021F4007181607047D9
:1010A00030B542680F4B0C791A400B6842EA0422B3
:1010B0001343436082680C4B4D791A40D1E90343D6
:1010C00023438C6844EA4504234313438360C26A84
:1010D000097D22F47002491EC9B242EA0151C1627F
:1010E00030BD0000FFFEFFFCFDF7FFC070B5072616
:1010F00009290AD9C568A1F10A0404EB4404A640F1
:10110000B543A3401D43C56007E0056901EB4104F9
:10111000A640B543A3401D4305611F23072A09D2FA
:10112000446B521E02EB820293409C4391400C435D
:10113000446370BD0D2A09D2046BD21F02EB8202F8
:1011400093409C4391400C43046370BDC46A0D3AC4
:1011500002EB820293409C4391400C43C46270BDF9
:10116000816841F08041816070470000F0B5324BEA
:10117000DFED300A9FED310AC3ED010AA3F2647777
:10118000002183ED020A08462D4EA3F1A00597F831
:1011900033200AE017F800C0BCF1000F03D155F866
:1011A00020C0B4450CDB401CC0B28242F2D8012CF6
:1011B00006D0C3ED000AC3ED010AC3ED020AF0BD7B
:1011C0000020204C2AE017F800C0BCF1000F23D10A
:1011D00005EB800C9CED000A10EE10CAB4451BDA3A
:1011E00004EB800C491C9CED001AC9B230EE410A98
:1011F00093ED011A70EE200AB4EEC10AF1EE10FA76
:1012000001DD83ED010A93ED021AB4EEC10AF1EE9D
:1012100010FA01D283ED020A401CC0B28242D2D839
:1012200000EE101AB8EE400A80EE801A83ED001A24
:10123000F0BD0000000000006C0A012000E0F9444D
:1012400000E0F944E8FF00200A48C17A0D290BD2DA
:10125000DFE801F00A0A0A0A070D0D0D0D0A0A0A55
:101260000B00007B332802D070470348007825F03C
:1012700065BB0000380200203000002000210D4A2C
:101280000846135C012B00D10121401CC0B2282864
:10129000F7D30948012908D10649503991F82A1095
:1012A000012902D10549097811B1002118F054BC77
:1012B0000121FBE758030120000401404302002004
:1012C0001CB54FF48070012100908DF804100020AF
:1012D0008DF806008DF807108DF805006946024864
:1012E00011F086F91CBD000000000240FEE700007E
:1012F00010B5074C0121204618F02EFC4FF6FF7068
:1013000005F060FB2046BDE81040002118F024BC29
:101310000004014010B5044639202BF07BFEE0B2FA
:101320002BF09CFEC4F307202BF098FEC4F307407B
:101330002BF094FE200E2BF091FE2BF05BFEBDE80F
:10134000104024F011BA70B5064614460D463C20F4
:101350002BF060FEE8B22BF081FE280A2BF07EFE17
:101360002BF048FE0CB1002011E024F0FDF91E28FE
:101370000FD1304600F030F905463D202BF04AFEF3
:101380002BF038FE2E44002CEFD0208828442080FB
:10139000EBE770BD10B514F08BF908B100F069F8F7
:1013A000BDE81040302000F0B2B8312000F0AFB8F6
:1013B0000146362000F09EB810B508B100F0C5F81F
:1013C000BDE81040342000F0A2B870B5054600F02A
:1013D000A7F804000DD00146284600F021F8412866
:1013E00007D0142803D0422800D1B32070BD432079
:1013F00070BD2819BDE87040FFF7DEBF10B5044688
:1014000000F0A3F820785C2801D02F2803D1002118
:10141000642000F0F7F8BDE81040322000F077B803
:1014200070B50E4600210546012401E0641CE4B2BB
:10143000285D5C2813D02F2811D00028F6D1002475
:101440006818FFF7DBFF002C08D0B44206D0412813
:101450000AD0142806D0422800D1B32070BD641CE5
:10146000E4B2EDE7432070BD2146E1E7FF21FFF73D
:10147000D7BF10B522202BF0CDFD322005F0A2FA07
:101480002BF0BEFD04462BF0B5FD204610BD2DE926
:10149000F0412BF0B5FD06462BF0B2FD05462BF0D2
:1014A000AFFD04462BF0ACFD07462BF0A3FD46EA4A
:1014B000052040EA044040EA0760BDE8F08110B52D
:1014C00004460C202BF0A6FD20462BF0C7FDBDE8FE
:1014D0001040FFF7DCBF10B504460A202BF09AFD40
:1014E00020462BF0BBFD2BF08BFD04462BF082FD3C
:1014F000204610BD10B50C462BF08CFD20462BF07D
:10150000ADFD2BF077FDBDE8104024F02DB910B5EE
:101510002BF080FD2BF06EFDBDE8104024F024B9C7
:10152000014600E0491C0A78002AFBD105E011F8C9
:10153000012D5C2A03D02F2A01D08142F7D18142AC
:1015400000D0491C081AC0B2704770B5054601208A
:101550002BF060FD2BF054FD432828D22B20FFF701
:10156000BAFF102823D22F202BF054FD00202BF09F
:1015700075FD3220FFF7CBFF142818D1CF20FFF7DD
:10158000AAFF040013D04C20FFF799FF00EB0421C1
:101590004C2000F037F85020FFF791FF00EB0421BA
:1015A000502000F02FF80021702000F02BF82F20A1
:1015B0002BF030FD2C7806E015F8014F5C2C01D0A3
:1015C0002F2C00D1002420462BF048FD002CF3D115
:1015D000BDE870402BF00EBD70B505462D202BF0F8
:1015E00019FD2BF00DFD0446260007D028782BF0BE
:1015F00035FD641E6D1C14F0FF04F7D12BF0FAFCCE
:10160000304670BD70B505460C460D202BF002FD2E
:1016100028462BF023FDE0B22BF020FDC4F3072079
:101620002BF01CFDC4F307402BF018FD200E2BF00F
:1016300015FDBDE870402BF0DDBC00002DE9F04148
:1016400088B00121812014F03FF80121080314F033
:1016500077F8DFF8C88005221146404611F004F8FB
:1016600005220621404610F0FFFF052207214046D3
:1016700010F0FAFF02258DF805508DF80450002473
:1016800020278DF8064000978DF8074069464046B0
:1016900010F0AEFF402000906946404610F0A8FFD1
:1016A000802000906946404610F0A2FF10200126DD
:1016B00000908DF804608DF806406946404610F0B1
:1016C00097FF8DF8044000978DF80760694614482D
:1016D00010F08EFFADF808404FF48270ADF80A00AC
:1016E000ADF810602802ADF812003820ADF81400F3
:1016F000ADF80C40ADF8164007200A4CADF81800C4
:10170000ADF80E5002A9204617F04FFE01212046E9
:1017100017F048FC08B0BDE8F0810000000002406E
:10172000001C024000300140F0B5FF231A4600259E
:1017300018E0445D6240002402F0010613F0010F3E
:101740004FEA53034FEA520201D042F080021EB129
:1017500083F0A00382F00102641CE4B2082CEBD3F6
:101760006D1CEDB28D42E4D342EA0320F0BD0000CF
:101770002DE9F047FE48FF4FFF4C00784FF482758B
:101780004FF4AA764FF470484FF4A57940B1012880
:1017900074D0022873D0032872D0042871D025E3B6
:1017A0002078012801D028B10FE0882012F0F2FA49
:1017B000384603E0882012F0EDFA404612F006FBAE
:1017C000EEA20A21642011F00FFF6078012801D0F9
:1017D00028B10FE0882012F0DDFA384603E08820B7
:1017E00012F0D8FA404612F0F1FAE5A20A21B4202C
:1017F00011F0FAFEA078012801D028B10FE088206E
:1018000012F0C8FA384603E0882012F0C3FA4046C6
:1018100012F0DCFADBA20A21284611F0E5FEE0789E
:10182000012801D028B10FE0882012F0B3FA384621
:1018300003E0882012F0AEFA404612F0C7FAD2A2B6
:101840000A21304611F0D0FE2079012801D028B1BC
:101850000FE0882012F09EFA384603E0882012F04C
:1018600099FA404612F0B2FAC8A24946642011F033
:10187000BBFE6079012805D048B113E039E0CEE025
:1018800063E133E2882012F085FA384603E08820CD
:1018900012F080FA404612F099FABDA24946B420EF
:1018A00011F0A2FEA079012801D028B10FE0882014
:1018B00012F070FA384603E0882012F06BFA4046C6
:1018C00012F084FAB3A24946284611F08DFEE07961
:1018D000012801D028B189E2882012F05BFA38464D
:1018E00003E0882012F056FA404612F06FFAAAA2DE
:1018F00078E2207A01284FF0880070D012F04AFA7E
:10190000404612F063FAA5A20A21642011F06CFE91
:10191000607A01284FF0880065D012F03BFA40460B
:1019200012F054FA9EA20A21B42011F05DFEA07AB2
:1019300001284FF088005AD012F02CFA404612F0DD
:1019400045FA98A20A21284611F04EFEE07A0128B5
:101950004FF088004FD012F01DFA404612F036FAD0
:1019600091A20A21304611F03FFE207B01284FF062
:10197000880044D012F00EFA404612F027FA8BA2EB
:101980004946642011F030FE607B01284FF088004A
:1019900039D012F0FFF9404612F018FA84A24946F5
:1019A000B42011F021FEA07B01284FF088002ED03A
:1019B00012F0F0F9404612F009FA7EA24946284694
:1019C00011F012FEE07B01284FF0880023D012F0C6
:1019D000E1F9404612F0FAF977A203E2FFE712F0CC
:1019E000D9F938468DE712F0D5F9384698E712F064
:1019F000D1F93846A3E712F0CDF93846AEE712F038
:101A0000C9F93846B9E712F0C5F93846C4E712F00B
:101A1000C1F93846CFE712F0BDF93846DAE7207C45
:101A200001284FF0880070D012F0B4F9404612F04F
:101A3000CDF962A20A21642011F0D6FD607C012854
:101A40004FF0880065D012F0A5F9404612F0BEF9BB
:101A50005BA20A21B42011F0C7FDA07C01284FF041
:101A600088005AD012F096F9404612F0AFF955A20C
:101A70000A21284611F0B8FDE07C01284FF08800CB
:101A80004FD012F087F9404612F0A0F94EA20A2179
:101A9000304611F0A9FD207D01284FF0880044D088
:101AA00012F078F9404612F091F948A249466420B4
:101AB00011F09AFD607D01284FF0880039D012F0B6
:101AC00069F9404612F082F941A24946B42011F06A
:101AD0008BFDA07D01284FF088002ED012F05AF91E
:101AE000404612F073F93BA24946284611F07CFDAE
:101AF000E07D01284FF0880023D012F04BF94046DA
:101B000012F064F934A26DE1FFE712F043F93846B0
:101B10008DE712F03FF9384698E712F03BF9384666
:101B2000A3E712F037F93846AEE712F033F938463A
:101B3000B9E712F02FF93846C4E712F02BF938460E
:101B4000CFE712F027F93846DAE7207E01284FF078
:101B500088007DD012F01EF9404612F037F91FA21E
:101B60000A21642011F040FD607E012838E0000069
:101B70004502002093551700080301203030310042
:101B80003030320030303300303034003030350007
:101B900030303600303037003030380030303900E7
:101BA00030313000303131003031320030313300EB
:101BB00030313400303135003031360030313700CB
:101BC00030313800303139003032300030323100BD
:101BD00030323200303233003032340030323500AF
:101BE0004FF0880066D012F0D5F8404612F0EEF8BB
:101BF00099A20A21B42011F0F7FCA07E01284FF031
:101C000088005BD012F0C6F8404612F0DFF893A2CD
:101C10000A21284611F0E8FCE07E01284FF08800F8
:101C200050D012F0B7F8404612F0D0F88CA20A213A
:101C3000304611F0D9FC207F01284FF0880045D0B4
:101C400012F0A8F8404612F0C1F886A2494600E01A
:101C50002CE0642011F0C8FC607F01284FF0880060
:101C600038D012F097F8404612F0B0F87EA24946FC
:101C7000B42011F0B9FCA07F01284FF088002DD0CE
:101C800012F088F8404612F0A1F878A2494628469A
:101C900011F0AAFCE07F01284FF0880022D012F05A
:101CA00079F8404612F092F871A29BE012F072F8B7
:101CB000384652E712F06EF8384697E712F06AF8A5
:101CC0003846A2E712F066F83846ADE712F062F83F
:101CD0003846B8E712F05EF83846C5E712F05AF811
:101CE0003846D0E712F056F83846DBE794F8200083
:101CF00001284FF088007DD012F04CF8404612F0D9
:101D000065F85CA20A21642011F06EFC94F82100B1
:101D100001284FF088006ED012F03CF8404612F0D7
:101D200055F855A20A21B42011F05EFC94F8220067
:101D300001284FF0880074D012F02CF8404612F0C1
:101D400045F84EA20A21284611F04EFC94F82300D3
:101D500001284FF0880068D012F01CF8404612F0BD
:101D600035F847A20A21304611F03EFC94F82400D1
:101D700001284FF088005CD012F00CF8404612F0B9
:101D800025F840A24946642011F02EFC94F8250065
:101D900001284FF0880050D011F0FCFF404612F0AF
:101DA00015F839A24946B42011F01EFC94F826001B
:101DB00001284FF0880044D011F0ECFF404612F0AB
:101DC00005F832A24946284611F00EFC94F8270087
:101DD00001284FF0880038D011F0DCFF404611F0A8
:101DE000F5FF2BA24946304611F0FEFB29490120A0
:101DF000C87001E00CE010E0FFF77AFA94F83000C8
:101E000038B325A005F0B8FABDE8F04717F06EBB6F
:101E100011F0C0FF384672E703E011F0BBFF38460F
:101E20007DE711F0B7FF384689E711F0B3FF384678
:101E300095E711F0AFFF3846A1E711F0ABFF384648
:101E4000ADE711F0A7FF3846B9E711F0A3FF384618
:101E5000C5E714A0D6E70000303236003032370034
:101E60003032380030323900303330003033310016
:101E70003033320030333300303334003033350008
:101E800030333600303337003033380030333900E8
:101E900030343000C00100204368616E6E656C20F4
:101EA00073657400CDA8B5C0C9E8D6C300000000B2
:101EB0002DE9F05FF948DFF8E8A3FA4C00784FF419
:101EC00082754FF496764FF4AA784FF4BE794FF4AA
:101ED000704B10B101286ED03CE32078012801D06E
:101EE00028B10FE0882011F055FF504603E088200C
:101EF00011F050FF584611F069FFEBA20A2164204F
:101F000001F004FC6078012801D028B10FE088209E
:101F100011F040FF504603E0882011F03BFF584687
:101F200011F054FFE1A20A218C2001F0EFFBA07810
:101F3000012801D028B10FE0882011F02BFF504676
:101F400003E0882011F026FF584611F03FFFD8A289
:101F50000A21B42001F0DAFBE078012801D028B191
:101F60000FE0882011F016FF504603E0882011F0A2
:101F700011FF584611F02AFFCEA20A21DC2001F001
:101F8000C5FB2079012801D028B10FE0882011F08D
:101F900001FF504603E0882011F0FCFE584611F086
:101FA00015FFC5A20A21284601F0B0FB607901287F
:101FB00002D030B110E0C6E1882011F0EBFE5046AF
:101FC00003E0882011F0E6FE584611F0FFFEBBA2A8
:101FD0000A21304601F09AFBA079012801D028B1EE
:101FE0000FE0882011F0D6FE504603E0882011F063
:101FF000D1FE584611F0EAFEB1A20A21404601F096
:1020000085FBE079012801D028B10FE0882011F08C
:10201000C1FE504603E0882011F0BCFE584611F086
:10202000D5FEA8A20A21484601F070FB94F83300BF
:10203000082872D9207A012801D028B10FE0882021
:1020400011F0A8FE504603E0882011F0A3FE584688
:1020500011F0BCFE9CA2D221642001F057FB607AF3
:10206000012801D028B10FE0882011F093FE5046DE
:1020700003E0882011F08EFE584611F0A7FE93A2CF
:10208000D2218C2001F042FBA07A012801D028B196
:102090000FE0882011F07EFE504603E0882011F00A
:1020A00079FE584611F092FE89A2D221B42001F0A7
:1020B0002DFBE07A012801D028B10FE0882011F033
:1020C00069FE504603E0882011F064FE584611F086
:1020D0007DFE80A2D221DC2001F018FB207B0128AC
:1020E00001D028B10FE0882011F054FE504603E0E3
:1020F000882011F04FFE584611F068FE76A2D221DA
:10210000284601F003FB607B012801D030B110E0CC
:10211000882011F03FFE504604E034E0882011F0A2
:1021200039FE584611F052FE6CA2D221304601F021
:10213000EDFAA07B012801D028B10FE0882011F032
:1021400029FE504603E0882011F024FE584611F085
:102150003DFE63A2D221404601F0D8FAE07B01287F
:1021600001D028B10FE0882011F014FE504603E0A2
:10217000882011F00FFE584611F028FE59A2D221F6
:10218000484601F0C3FA94F8330010286FD9207C38
:102190004FF4CD77012801D028B10FE0882011F04D
:1021A000F9FD504603E0882011F0F4FD584611F087
:1021B0000DFE4DA23946642001F0A8FA607C01288A
:1021C00001D028B10FE0882011F0E4FD504603E073
:1021D000882011F0DFFD584611F0F8FD43A2394682
:1021E0008C2001F093FAA07C012801D028B10FE0E7
:1021F000882011F0CFFD504603E0882011F0CAFD81
:10220000584611F0E3FD3AA23946B42001F07EFAB7
:10221000E07C012801D028B10FE0882011F0BAFD40
:10222000504603E0882011F0B5FD584611F0CEFD70
:1022300030A23946DC2001F069FA207D012801D066
:1022400028B10FE0882011F0A5FD504603E088205A
:1022500011F0A0FD584611F0B9FD27A239462846D5
:1022600001F054FA607D012802D030B110E071E134
:10227000882011F08FFD504603E0882011F08AFD80
:10228000584611F0A3FD1DA23946304601F03EFA32
:10229000A07D012834D000B142E036E045020020A4
:1022A00093551700080301203030310030303200E0
:1022B00030303300303034003030350030303600CC
:1022C00030303700303038003030390030313000B5
:1022D00030313100303132003031330030313400B0
:1022E0003031350030313600303137003031380090
:1022F000303139003032300030323100303232008B
:10230000882011F047FD504603E0882011F042FD7F
:10231000584611F05BFDBAA23946404601F0F6F985
:10232000E07D012801D028B114E1882011F032FDB0
:10233000504603E0882011F02DFD584611F046FD6F
:10234000B0A2394603E1207E01284FF088007CD0FE
:1023500011F020FD584611F039FDABA20A2164208E
:1023600001F0D4F9607E01284FF088006ED011F0A2
:1023700011FD584611F02AFDA4A20A218C2001F07B
:10238000C5F9A07E01284FF088007DD011F002FD34
:10239000584611F01BFD9EA20A21B42001F0B6F9A7
:1023A000E07E01284FF088006FD011F0F3FC584612
:1023B00011F00CFD97A20A21DC2001F0A7F9207F83
:1023C00001284FF088007DD011F0E4FC584611F050
:1023D000FDFC91A20A21284601F098F9607F0128AE
:1023E0004FF088006FD011F0D5FC584611F0EEFC8C
:1023F0008AA20A21304601F089F9A07F01284FF016
:1024000088007DD011F0C6FC584611F0DFFC84A294
:102410000A21404601F07AF9E07F01284FF0880058
:102420006FD011F0B7FC584611F0D0FC7DA20A2104
:10243000484601F06BF994F8200001284FF088001D
:102440007ED011F0A7FC584601E092E096E011F032
:10245000BDFC75A2D221642001F058F994F8210046
:1024600001284FF088006CD011F094FC584611F010
:10247000ADFC6EA2D2218C2001F048F994F8220024
:1024800001284FF0880001E07CE07FE075D011F07A
:1024900081FC584611F09AFC65A2D221B42001F0CB
:1024A00035F994F8230001284FF0880072D011F01C
:1024B00071FC584611F08AFC5EA2D221DC2001F0AA
:1024C00025F901E067E06AE094F8240001284FF064
:1024D000880070D011F05EFC584611F077FC56A2CF
:1024E000D221284601F012F994F8250001284FF076
:1024F000880077D011F04EFC584611F067FC01E0DF
:1025000051E054E04DA2D221304601F0FFF894F89A
:10251000260001284FF0880068D011F03BFC584697
:1025200011F054FC46A2D221404601F0EFF894F895
:10253000270001284FF088005CD011F02BFC01E04F
:102540003BE03EE0584611F041FC3EA2D221484615
:1025500001F0DCF83C490120C870FEF7C9FE94F890
:10256000300048B339A004F007FFBDE8F05F16F073
:10257000BDBF11F00FFC5046EDE626E011F00AFC5D
:102580005046F7E611F006FC504602E711F002FC57
:1025900050460DE71EE011F0FDFB504617E711F025
:1025A000F9FB504622E711F0F5FB50462DE711F0FC
:1025B000F1FB504638E711E020E011F0EBFB50460C
:1025C00042E711F0E7FB504651E711F0E3FB5046BC
:1025D00060E707E011F0DEFB50466BE711F0DAFB35
:1025E00050467AE711F0D6FB504686E711F0D2FB51
:1025F000504695E711F0CEFB5046A4E716A0B2E78F
:102600003032330030323400303235003032360070
:102610003032370030323800303239003033300059
:102620003033310030333200303333003033340054
:102630003033350030333600303337003033380034
:102640003033390030343000C00100204368616EFF
:102650006E656C2073657400CDA8B5C0C9E8D6C39B
:10266000000000002DE9F05FF84CDFF8E4A34FF420
:10267000704B2078012801D028B10FE0882011F09C
:1026800089FB504603E0882011F084FB584611F086
:102690009DFBF0A20A21642001F06EF86078012809
:1026A00001D028B10FE0882011F074FB504603E000
:1026B000882011F06FFB584611F088FBE6A20A2132
:1026C0008C2001F059F8A078012801D028B10FE042
:1026D000882011F05FFB504603E0882011F05AFB80
:1026E000584611F073FBDDA20A21B42001F044F832
:1026F000E078012801D028B10FE0882011F04AFBD2
:10270000504603E0882011F045FB584611F05EFB6F
:10271000D3A20A21DC2001F02FF820794FF4827532
:10272000012801D028B10FE0882011F033FB50467A
:1027300003E0882011F02EFB584611F047FBC9A298
:102740000A21284601F018F860794FF4967601289E
:1027500001D028B10FE0882011F01CFB504603E0A7
:10276000882011F017FB584611F030FBBEA20A2159
:10277000304601F001F8A0794FF4AA79012801D080
:1027800028B10FE0882011F005FB504603E08820B7
:1027900011F000FB584611F019FBB4A20A2148467B
:1027A00000F0EAFFE0794FF4BE78012801D028B1AB
:1027B0000FE0882011F0EEFA504603E0882011F077
:1027C000E9FA584611F002FBA9A20A21404600F09E
:1027D000D3FF94F83300082872D9207A012801D059
:1027E00028B10FE0882011F0D5FA504603E0882088
:1027F00011F0D0FA584611F0E9FA9EA28621642021
:1028000000F0BAFF607A012801D028B10FE08820DB
:1028100011F0C0FA504603E0882011F0BBFA584688
:1028200011F0D4FA94A286218C2000F0A5FFA07AA2
:10283000012801D028B10FE0882011F0ABFA5046F2
:1028400003E0882011F0A6FA584611F0BFFA8BA2D7
:102850008621B42000F090FFE07A012801D028B151
:102860000FE0882011F096FA504603E0882011F01E
:1028700091FA584611F0AAFA81A28621DC2000F0D4
:102880007BFF207B012801D028B10FE0882011F0C8
:1028900081FA504603E0882011F07CFA584611F086
:1028A00095FA78A28621284600F066FF607B012811
:1028B00001D030B110E0882011F06CFA504604E0ED
:1028C00034E0882011F066FA584611F07FFA6EA2C3
:1028D0008621304600F050FFA07B012801D028B1AE
:1028E0000FE0882011F056FA504603E0882011F0DE
:1028F00051FA584611F06AFA64A28621484600F05F
:102900003BFFE07B012801D028B10FE0882011F0C7
:1029100041FA504603E0882011F03CFA584611F085
:1029200055FA5BA28621404600F026FF94F833005A
:1029300010286FD9207C4FF48177012801D028B16D
:102940000FE0882011F026FA504603E0882011F0AD
:1029500021FA584611F03AFA4EA23946642000F0A6
:102960000BFF607C012801D028B10FE0882011F016
:1029700011FA504603E0882011F00CFA584611F085
:1029800025FA45A239468C2000F0F6FEA07C0128ED
:1029900001D028B10FE0882011F0FCF9504603E087
:1029A000882011F0F7F9584611F010FA3BA2394689
:1029B000B42000F0E1FEE07C012801D028B10FE056
:1029C000882011F0E7F9504603E0882011F0E2F981
:1029D000584611F0FBF932A23946DC2000F0CCFE5B
:1029E000207D012801D028B10FE0882011F0D2F914
:1029F000504603E0882011F0CDF9584611F0E6F971
:102A000028A23946284600F0B7FE607D012802D092
:102A100030B110E0C6E1882011F0BCF9504603E067
:102A2000882011F0B7F9584611F0D0F91EA23946A6
:102A3000304600F0A1FEA07D012801D028B140E081
:102A4000882011F0A7F9504634E02FE00803012058
:102A500093551700303031003030320030303300C1
:102A60003030340030303500303036003030370010
:102A70003030380030303900303130003031310002
:102A800030313200303133003031340030313500F4
:102A900030313600303137003031380030313900D4
:102AA000303230003032310030323200882011F0C4
:102AB00071F9584611F08AF9C3A23946484600F028
:102AC0005BFEE07D012801D028B10FE0882011F0E5
:102AD00061F9504603E0882011F05CF9584611F086
:102AE00075F9BAA23946404600F046FE207E4FF402
:102AF000BF77012801D028B10FE0882011F04AF9F2
:102B0000504603E0882011F045F9584611F05EF96F
:102B1000AFA23946642000F02FFE607E012801D06C
:102B200028B10FE0882011F035F9504603E08820E5
:102B300011F030F9584611F049F9A6A239468C2017
:102B400000F01AFEA07E012801D028B10FE08820F5
:102B500011F020F9504603E0882011F01BF9584687
:102B600011F034F99CA23946B42000F005FEE07E55
:102B7000012801D028B10FE0882011F00BF9504650
:102B800003E0882011F006F9584611F01FF993A2CE
:102B90003946DC2000F0F0FD207F012801D028B16B
:102BA0000FE0882011F0F6F8504603E0882011F07D
:102BB000F1F8584611F00AF989A23946284600F082
:102BC000DBFD607F012801D028B10FE0882011F0E3
:102BD000E1F8504603E0882011F0DCF8584611F087
:102BE000F5F880A23946304600F0C6FDA07F0128E6
:102BF00001D028B10FE0882011F0CCF8504603E056
:102C0000882011F0C7F8584611F0E0F876A239464E
:102C1000484600F0B1FDE07F012801D028B10FE067
:102C2000882011F0B7F8504603E0882011F0B2F880
:102C3000584611F0CBF86DA23946404600F09CFD95
:102C400094F820004FF4FD77012801D028B10FE05F
:102C5000882011F09FF8504603E0882011F09AF880
:102C6000584611F0B3F862A23946642000F084FDA2
:102C700094F82100012801D028B10FE0882011F03C
:102C800089F8504603E0882011F084F8584611F086
:102C90009DF858A239468C2000F06EFD94F8220071
:102CA000012801D028B10FE0882011F073F85046B8
:102CB00003E0882011F06EF8584611F087F84EA214
:102CC0003946B42000F058FD94F82300012801D0C3
:102CD00028B10FE0882011F05DF8504603E088200D
:102CE00011F058F8584611F071F844A23946DC202A
:102CF00000F042FD94F82400012801D028B10FE033
:102D0000882011F047F8504603E0882011F042F87F
:102D1000584611F05BF83AA23946284600F02CFDDF
:102D200094F82500012801D028B10FE0882011F087
:102D300031F8504603E0882011F02CF8584611F085
:102D400045F830A23946304600F016FD94F82600CA
:102D5000012801D028B10FE0882011F01BF850465F
:102D600003E0882011F016F8584611F02FF826A23B
:102D70003946484600F000FD94F82700012801D0AC
:102D800028B10FE0882011F005F8504603E08820B4
:102D900011F000F8584611F019F81CA239464046C7
:102DA00000F0EAFC1A490120C870FEF7A1FA94F875
:102DB000300030B117A004F0DFFABDE8F05F16F084
:102DC00095BB17A0F7E700003032330030323400F3
:102DD0003032350030323600303237003032380091
:102DE000303239003033300030333100303332008C
:102DF0003033330030333400303335003033360075
:102E0000303337003033380030333900303430005D
:102E1000C00100204368616E6E656C2073657400AC
:102E2000CDA8B5C0C9E8D6C30000000070B50446FF
:102E30001A481D4D00EB840010ED010A184800EB04
:102E4000840050ED010A174800EB840030EE600A60
:102E500050ED010AB4EEE00AF1EE10FA09D313487E
:102E600000EB840050ED010AB4EEE00AF1EE10FA36
:102E700005DD0D48503890F82C00012807D0882136
:102E80006FF07F4010F08CFF0020285570BD882126
:102E90004FF47F0010F084FF0120F6E7CC090120F9
:102EA000E8FF0020E0030020580301204003002039
:102EB00070B5374905460024086810F0450FFBD06F
:102EC000410702D50324042003E0C00704D00124F5
:102ED000204614F077FE59E014F0B0FEA8422BD142
:102EE00040F2FF5014F06EFE002014F0C9FE294994
:102EF00008424BD0002801DA1C2070BD410001D5EA
:102F0000092070BD810001D50A2070BDC10001D526
:102F10000B2070BD010101D50C2070BD410101D510
:102F20000D2070BDC10101D50E2070BD010201D57B
:102F30000F2070BD410201D5102070BD810201D566
:102F4000112070BDC10201D5122070BD010301D551
:102F5000132070BD410301D5142070BD810301D53C
:102F6000152070BDC10301D5162070BD010401D527
:102F7000172070BD410401D5182070BD810401D512
:102F8000192070BD000701D51A2070BD204670BD04
:102F9000342C014008E0FFFD10B50B4A00241168F5
:102FA00011F0450FFBD0480702D50324042003E0AD
:102FB000C80705D00124204614F004FE204610BDA9
:102FC00040F2FF50F8E70000342C014070B50C4689
:102FD000194906460025086810F0450FFBD0410747
:102FE00002D50324042003E0C00705D001242046B5
:102FF00014F0E8FD204670BD14F020FEB04212D15E
:1030000040F2FF5014F0DEFD002014F039FE10F401
:10301000604F03D0810404D5132070BD000C2080C4
:1030200007E0410401D5102070BD000401D50F2038
:1030300070BD284670BD0000342C01401CB51F48EF
:103040001FA1214C098841811E4861790088401EDA
:1030500000EB800001EB400000EB800101EBC000C1
:103060001A49014415480D390A30FDF710F918487E
:1030700062788179CDE900124379027915A10F4870
:1030800022F070FC0D4901F10A00FDF700F90B4830
:1030900014A10A30FDF7FBF808490A220A31134847
:1030A00024F098F8E07030B111A004F065F9BDE8A3
:1030B0001C4012F031BC11A0F7E70000780A012093
:1030C000303A00002C000020A8010020442B0120F1
:1030D0009C0200202F2530326425303264253032A6
:1030E000642564002E786C7300000000201B012012
:1030F000B4B4BDA8CAA7B0DC00000000B4B4BDA839
:10310000CEC4BCFEB3C9B9A60000000010B50B4682
:103110000C0601F07F0202EB820100EBC10102D537
:1031200001F58E7101E001F55D710A70DA094A70EE
:1031300021F021FB002010BD0A4610B5090602F05F
:103140007F0306D503EB830100EBC10101F58E710E
:1031500005E002EB820100EBC10101F55D71002485
:103160008C700B70D2094A7021F0ECFA002010BD6F
:1031700010B50A0604D501F07F0121F01FFC01E023
:1031800021F0FEFB002010BD70B50D460E0601F0CB
:103190007F0404EB840100EBC10102D501F58E71BF
:1031A00001E001F55D71ED090C704D708A60CB7026
:1031B00000D0CC80022B01D100220A7121F08EFABE
:1031C000002070BD10B501F07F0404EB840100EB1A
:1031D000C101C1F88833C1F880230023C1F88C33C2
:1031E00081F8753381F87443C37801F55D71012B63
:1031F00000D10A6114F0FF0F03D021F0FBFA002088
:1032000010BD21F0FCF9FAE70069002261F30A120F
:1032100001681143016070470A4610B5090602F0C3
:103220007F0306D503EB830100EBC10101F58E712D
:1032300005E002EB820100EBC10101F55D710124A3
:103240008C700B70D2094A7021F0BCFA002010BDBE
:1032500070B511F07F0404EB840100EBC1014FF065
:10326000010581F81D5181F81C41C1F82821C1F8E0
:103270002C2101F58E714FF00002C1E9053203D017
:1032800021F0B8FA002070BD21F0B9F9FAE700008A
:103290002DE9F0410646002421F0D9FB074655E010
:1032A000F80751D03069E1B20369426BCA4006EBBE
:1032B000810102F00102896943EAC2128D6815405A
:1032C000E9071AD00125426B05FA04F18A434263EB
:1032D00006EB8400806985601F48E1B2006842689F
:1032E00030469047F078012807D134B996F811019B
:1032F000042802D1304621F0DFF9280704D506EB77
:103300008400082580698560E80604D506EB840002
:10331000102580698560680604D506EB8400402589
:1033200080698560A80704D506EB840002258069C2
:103330008560280608D52146304600F06CF906EB7A
:1033400084018020896988607F08641C002FA7D1D0
:103350000120BDE8F0810000700000202DE9F0415F
:103360000546002421F079FB0746DFF8988043E00A
:10337000F8073FD0E1B2284621F075FB0646C007AA
:1033800025D005EB84000126416D8E60E978012986
:103390000CD1406D016904EB840005EBC000C1F362
:1033A0001201D0F87C23511AC0F88C13D8F8000011
:1033B000E1B2026828469047E878012807D134B97D
:1033C00095F81101052802D1284621F075F9B007BA
:1033D00004D505EB84000226406D8660300709D5D0
:1033E000D8F8000081682846884705EB840108204A
:1033F000496D88607F08641C002FB9D10120BDE8A9
:10340000F08100007000002070B50546C068816939
:1034100021F010018161E868066A06F00F0000EBF8
:10342000800005EBC004C6F3434004F55D74072833
:1034300021D2DFE800F0202004202020150047F6EC
:10344000F070064217D0C6F30A1632462846E168E5
:1034500021F011FBE0683044E060A069304409E0ED
:10346000082205F2CC51284621F005FBA069C6F3DD
:103470000A110844A061E868816941F01001816186
:10348000012070BD38B5044600208DF8000094F886
:1034900012018DF8000015480068416920468847F0
:1034A00020698068E2684FF400615161A17AD1B16E
:1034B000C00718D094F81501012814D19DF8000018
:1034C000032810D1D4F80C01016841F0010101601A
:1034D000D4F80C01016841F003010160044801685F
:1034E00041F006010160012038BD0000700000209D
:1034F00010ED00E070B50446006900250126416822
:1035000021F0010141602946204621F057FA0020B0
:10351000FF2206E004EB80018B699A60496D8A60A6
:10352000401C61788142F5D821694FF0FF308861F5
:103530002846216966F30F0066F31F40C8612169C0
:1035400045F00B0048612169C1F88400216945F00C
:103550000B000861216948642069016821F4FE615B
:103560000160204621F0A8F8E1684FF480504861DE
:1035700003480068016920468847012070BD0000AB
:103580007000002070B5044621F086FA0120002367
:1035900084F8120184F814311A46402510E002EB39
:1035A000820104EBC10181F81D0181F81C21A1F801
:1035B000222181F81F31C1E94953521CC1F8303131
:1035C00061789142EBD8002010E000EB800104EB21
:1035D000C10181F8753381F87403A1F87A0381F889
:1035E0007733C1E9DF53401CC1F8883361788142E9
:1035F000EBD8204620F0DEFF204620F0BBFE002165
:10360000204621F0A9FA204620F0F4FE2046BDE82D
:10361000704021F0ADB92DE9F0470E4601EB86016F
:1036200000EBC1048046D4E94C01401AD4F82411BF
:1036300004F58E74814200D20846C01C870808EB4E
:1036400086091EE0451AA068A84200D20546E81C7B
:103650008708ABB2F2B24046E16821F092FAE06826
:103660002844E060A0692844A0616169884208D3C9
:10367000207801218140D8F81000426B8A434263D0
:103680000BE0D9F81800806980B2B84205D9D4E9B6
:103690000501814201D20028D4D10120BDE8F08784
:1036A0002DE9F04115460C468046154E4FF4207723
:1036B00019E0802A0BD21348B061214640460FF032
:1036C00023FFB0696D1C8088204484B20BE00E4853
:1036D000B0612A462146404600F0C2F9B069AD1CEF
:1036E0008088204484B2BC4208D22A78002A05D0BF
:1036F000B0698088011989B28142DAD2BDE8F081CF
:1037000018020020E8020020200300202DE9F041EB
:1037100015460C468046154E4FF4207719E0802A56
:103720000BD21348B061214640460FF0EDFEB06960
:103730006D1C8088204484B20BE00E48B0612A469C
:10374000214640460FF0F6FEB069AD1C808820444B
:1037500084B2BC4208D22A78002A05D0B069808899
:10376000011989B28142DAD2BDE8F0811802002045
:10377000E0020020100300202DE9F04115460C4620
:103780008046154E4FF4207719E0802A0BD213485B
:10379000B061214640460FF0B7FEB0696D1C8088CD
:1037A000204484B20BE00E48B0612A4621464046D0
:1037B00000F0FCF8B069AD1C8088204484B2BC42A3
:1037C00008D22A78002A05D0B0698088011989B208
:1037D0008142DAD2BDE8F08118020020D002002038
:1037E000280300202DE9F04F334EDFF8D0A0DFF89A
:1037F000D080DFF8D09085B0002443F2FF3B8821D1
:10380000084610F0CDFAC4EBC40000EB800000F1D4
:1038100028052023C822294646200FF0E1FF8821F1
:10382000584610F0BDFA621C27A103A822F09AF8AE
:10383000284603AA0A210FF0A1FE284623A232211E
:103840000FF09CFE7079671C874202D15146002020
:1038500001E08821504610F0A3FAB8F8000000EB10
:10386000800004EB400000EB800101EBC00101EBA4
:10387000090228464621823A0FF080FEFCB20A2C4B
:10388000BDD38821504610F08BFAB379B8F80020E8
:103890000FA1684622F066F86A464FF4FA714FF4B9
:1038A000C8700FF06BFE0C490D20087008F04EF93F
:1038B00005B0BDE8F08F0000A801002000FFFF0068
:1038C0002C000020803A0120256400002E0000001A
:1038D00025642F2564000000430200202DE9F047F5
:1038E0002A4EDFF8AC90DFF8AC80DFF8ACA086B0F1
:1038F00000248821484610F053FA621C27A103A82F
:1039000022F030F8C4EBC40000EB800028300546FC
:1039100003AA0A210FF032FE284621A232210FF01D
:103920002DFE7079671C874202D14946002001E0D4
:103930008821484610F034FAB8F8000000EB800007
:1039400004EB400000EB800101EBC00101EB0A0237
:1039500028464621823A0FF011FEFCB20A2CC8D349
:103960008821484610F01CFA3379B8F800200DA1E0
:10397000684621F0F7FF6A464FF4FA714FF4C870B9
:103980000FF0FCFD06B0BDE8F0870000A8010020A4
:1039900000FFFF002C000020442B012025640000C4
:1039A0002E00000025642F25640000002DE9F04161
:1039B00016460F46804600240D4D0FE032788A42AD
:1039C0000AD105EB400271785078814204D1394622
:1039D0004046921C0FF07AFE641CA4B204EB440033
:1039E00000EB041015F810108029E7D8BDE8F0812D
:1039F00051F205082DE9F04115460C468046154E5A
:103A00004FF4207719E0802A0BD21348B061214689
:103A100040460FF079FDB0696D1C8088204484B267
:103A20000BE00E48B0612A462146404600F018F8E7
:103A3000B069AD1C8088204484B2BC4208D22A7888
:103A4000002A05D0B0698088011989B28142DAD292
:103A5000BDE8F081180200200003002018030020B8
:103A60002DE9F04116460F46804600240C4D0EE02D
:103A700032788A4209D1421971785078814204D152
:103A800039464046921C0FF021FE641CA4B204EBA0
:103A90008400C0EB8410295C8029E9D8BDE8F0815E
:103AA0000CD505082DE9F041204E15460C46804600
:103AB0006BB3012B38D18821084610F071F9282307
:103AC0009022414620460FF08BFEBDE8F041882150
:103AD0006FF07F4010F064B9802A0BD21448B061B7
:103AE000214640460FF010FDB0696D1C80882044CF
:103AF00084B20EE00F48B0612A46214640460FF0DE
:103B000019FDB069AD1C8088204484B201E04FF4F7
:103B10002077BC4208D22A78002A05D0B069808874
:103B2000011989B28142D7D2BDE8F0811802002084
:103B3000F0020020100300202DE9F041204E154630
:103B40000C4680466BB3012B38D18821084610F013
:103B500027F91C236022414620460FF041FEBDE8B4
:103B6000F04188216FF07F4010F01AB9802A0BD203
:103B70001448B061214640460FF0C6FCB0696D1C88
:103B80008088204484B20EE00F48B0612A46214666
:103B900040460FF0CFFCB069AD1C8088204484B251
:103BA00001E04FF42077BC4208D22A78002A05D0E1
:103BB000B0698088011989B28142D7D2BDE8F0810D
:103BC00018020020F8020020100300202DE9F04127
:103BD000204E15460C4680466BB3012B38D1882108
:103BE000084610F0DDF814233222414620460FF03B
:103BF000F7FDBDE8F04188216FF07F4010F0D0B8AC
:103C0000802A0BD21448B061214640460FF07CFC5C
:103C1000B0696D1C8088204484B20EE00F48B0610A
:103C20002A46214640460FF085FCB069AD1C8088CD
:103C3000204484B201E04FF42077BC4208D22A78B5
:103C4000002A05D0B0698088011989B28142D7D293
:103C5000BDE8F08118020020D802002010030020E7
:103C600010B50121CC05204611F03AFD2046BDE8F3
:103C70001040002111F034BD034A01460020526873
:103C80000A4200D00120704700B0024030B52A4BF4
:103C900000241968294A1140196019680268114303
:103CA0001960596B21F007015963596B4268114340
:103CB0005963416841B301292DD0022930D003292D
:103CC000C16832D00A010169446909022403856888
:103CD000214315430D43996B0D439D638169D9635E
:103CE000196C6FF30D011964196CC26911431964E1
:103CF000818C5A6C02F040425A645A6C006A02434A
:103D000042EA01425A6430BDC168047D0A02018A58
:103D100009042406DBE7C1680A02018A0904D6E720
:103D2000C1684A010169C902D1E74A0101694469D0
:103D30008902E403CBE7000000B00240FCE0FCFF96
:103D40000248016841F001010160704700B0024083
:103D500014F076BE074A904201D2074801E00548B8
:103D60001038064A8B0001EA020101D5C160704794
:103D70008160704710640240006002407D0F7D0F3B
:103D80000029016802D041F0010101E021F00101A8
:103D9000016070472DE9F043016821F001010160E5
:103DA0000021016041608160C160016121214161A8
:103DB0003C493C4A3D251039904202D18D60BDE816
:103DC000F083384A4FF474661832904201D18E6005
:103DD000F5E7344A4FF474173032904201D18F60C6
:103DE000EDE7304A4FF0746C4832904202D1C1F88E
:103DF00008C0E4E72B4B2C4A6033984201D1CA60DB
:103E0000DDE7284C294B7834A04201D1CB60D6E7BE
:103E1000DFF89080264C08F19008404501D1CC6035
:103E2000CDE7DFF880804FF03D5908F1A808404504
:103E300002D1C1F80C90C2E71E49DFF8788008393A
:103E4000404501D10D60BAE71A4D1835A84201D19D
:103E50000E60B4E7174D3035A84201D10F60AEE7D0
:103E6000144D4835A84202D1C1F800C0A7E7114D52
:103E700010496035091FA84201D10A609FE70D4A29
:103E80007832904201D10B6099E70A4A9032904211
:103E900001D10C6093E7074AA83290428FD1C1F854
:103EA00000908CE7106002403D000020400F002091
:103EB00000003D20106402400029016802D041F05A
:103EC000200101E021F02001016070470B0607D5B9
:103ED000436912B143F0800301E023F080034361A2
:103EE000802908D0002A026801F01E0101D00A438F
:103EF00000E08A430260704730B50368124ACC681C
:103F000013400A682243D1E905452C432243CC697A
:103F100022430C6A22434C6A22438C6A22434C6B34
:103F200022438C6B22431A430260426922F007034A
:103F3000D1E90B2422431A4342610A6942604A686C
:103F400082608968C16030BD3F801CF00548C07A3E
:103F5000052803D0062801D0082802D102A023F0AA
:103F6000C7BD7047380200202E0000002DE9F04F39
:103F7000F84CF94D2146E07A91F80CC09FB00D281D
:103F80002ED2DFE810F0300041132D002D00DC0BA5
:103F9000D30D7E142D00A5112D002D002D000D0038
:103FA00095F83300082802D0102802D004E0102031
:103FB00000E0082085F8330015F098FA6FF07F4094
:103FC0000FF004FF88200FF0E5FE95F83320E3A101
:103FD000684621F0C7FC6A46AA2132200FF0CEFACB
:103FE0001FB0BDE8F08FDB484FF4CD764FF48177FA
:103FF000417BD9484FF4BF794FF4FD7A90F82D20DA
:1040000090F827301E93C37F1D93C37D1C93C37B01
:104010001B9390F826301A93837F1993837D18930E
:10402000837B179390F825301693437F1593437D38
:104030001493437B139390F824301293037F1193CE
:10404000037D1093037B0F9390F823300E93C37E70
:104050000D93C37C0C93C37A0B9390F822300A9390
:10406000837E0993837C0893837A079390F82130A9
:104070000693437E0593437C0493437A039390F81D
:1040800020E090F818B0037C007ABCF1290FA7D289
:10409000DFE81CF02900C50048012F02B4024903E3
:1040A0001A04AB04410553069106D0060D074C07D0
:1040B0008E07D007160858088208B008DA080609E3
:1040C000340962099009BC09D409EC09040A1D0AE3
:1040D000370A510A6B0A840A9D0AB60ACF0AE90A0E
:1040E000040B1F0B3A0B9F480FF070FE88200FF057
:1040F00051FE95F82900022812D0012812D0032879
:1041000012D0042812D0052812D0062812D0072871
:1041100012D0082812D0092812D00B2812D016E08D
:1041200091A210E092A20EE093A20CE094A20AE009
:1041300095A208E096A206E097A204E098A202E009
:1041400099A200E09AA264212F200FF017FA95F8A7
:104150002D0020B1012835D002284FD04AE0607BE5
:1041600040B101280BD002280ED0032811D004281A
:1041700014D01CE0287823F0E9FA8FA213E0287A03
:1041800023F0E4FA8DA20EE0287C23F0DFFA8CA263
:1041900009E0287E23F0DAFA8AA204E095F82000EC
:1041A00023F0D4FA88A20A2164200FF01DFA95F8B2
:1041B000300028B185A003F0DFF8012001F0BDBA7E
:1041C00085A0F8E7607B10B1012805D020E02878B1
:1041D00023F0BCFA78A203E0287E23F0B7FA79A294
:1041E0000A216420FFF792FA12E07BA000E077A09A
:1041F00003F0C2F8012005F03DF9F1E6607B38B923
:10420000287823F0A3FA6CA20A216420FFF7B4FAFD
:104210000120207395F830000028E8D1E5E74E4FE3
:1042200002263F7832B1012A4FD0022AE2D100297A
:104230006AD082E241B101290BD002290DD00329B5
:1042400010D0042913D0F4E7384623F047FA5AA2D5
:1042500011E023F043FA59A20DE0184623F03EFA8C
:1042600057A208E0584623F039FA56A203E07046F8
:1042700023F034FA54A20A2164200FF0B5F9607BD0
:1042800040B101280BD002280ED0032811D00428F9
:1042900014D0CEE7687823F059FA52A213E0687A76
:1042A00023F054FA50A20EE0687C23F04FFA4FA29C
:1042B00009E0687E23F04AFA4DA204E095F8210057
:1042C00023F044FA4BA20A218FE211B101290DD04B
:1042D000AFE7384623F002FA37A20A216420FFF73D
:1042E00015FA687823F032FA3EA20BE0584623F024
:1042F000F5F934A20A216420FFF708FA687E23F05A
:1043000025FA3BA20A21F1E3384623F0E7F92AA275
:104310000A216420FFF730FA687823F017FA31A2F7
:104320000A21F7E30C480326407832B1012A10D065
:10433000022A7FF413AF51B17BE749B1012960D064
:10434000022964D0032968D004296CD071E7BFE04A
:1043500052E09AE03802002008030120253033643F
:104360000000000000FFFF0054432D4B0000000040
:1043700054432D540000000054432D4A0000000017
:1043800054432D4E0000000054432D450000000012
:1043900054432D530000000054432D5200000000F0
:1043A00054432D42000000005054313030000000D2
:1043B000317E355600000000303031003030390099
:1043C0003031370030323500303333004368616EAE
:1043D0006E656C2073657400CDA8B5C0C9E8D6C3FE
:1043E0000000000030303200303130003031380011
:1043F000303236003033340023F070F9AFF21C0253
:1044000016E0039823F06AF9AFF2240210E0049852
:1044100023F064F9AFF22C020AE0059823F05EF96C
:10442000AFF2340204E0069823F058F9AFF23C02F0
:104430000A21B4200FF0D8F8607B40B101280BD0DE
:1044400002280ED0032811D0042814D0F1E6A87851
:1044500023F07CF9FDA213E0A87A23F077F9FCA2FF
:104460000EE0A87C23F072F9FAA209E0A87E23F0FE
:104470006DF9F9A204E095F8220023F067F9F7A29C
:104480000A217EE20FF0B0F8D3E611B101290DD078
:10449000CFE623F023F9AFF2B4020A218C20FFF714
:1044A00035F9A87823F052F9E8A20CE0059823F03A
:1044B00015F9AFF2C4020A218C20FFF727F9A87E74
:1044C00023F044F9E4A20A21EDE3FFF71FF9B0E677
:1044D00023F004F9AFF2F4020A218C20FFF74CF923
:1044E000A87823F033F9D9A20A21F5E3FFF744F9BC
:1044F0009FE6DB480426807832B1012A53D0022A95
:104500007FF42CAE89B394E641B101290AD0022987
:104510000DD0032910D0042913D08AE623F0DEF849
:10452000CAA212E0079823F0D9F8C9A20DE00898B2
:1045300023F0D4F8C7A208E0099823F0CFF8C6A268
:1045400003E00A9823F0CAF8C4A20A214FF482704B
:104550000FF04AF8607B48B101280CD002280FD038
:10456000032812D0042815D063E63AE0E87823F057
:10457000EDF8BCA213E0E87A23F0E8F8BAA20EE066
:10458000E87C23F0E3F8B9A209E0E87E23F0DEF846
:10459000B7A204E095F8230023F0D8F8B5A20A21C9
:1045A0004FF4AA706EE711B101290CD041E623F057
:1045B00095F8A6A20A21B420FFF7A8F8E87823F01E
:1045C000C5F8A8A20BE0099823F088F8A2A20A2156
:1045D000B420FFF79BF8E87E23F0B8F8A4A20A21E4
:1045E000F0E323F07BF899A20A21B420FFF7C4F886
:1045F000E87823F0ABF89BA20A21F7E39848C0784B
:1046000032B1012A59D0022A7FF4F7ADF1B375E037
:1046100041B101290AD002290DD0032910D0042963
:1046200013D01BE023F05AF88EA212E00B9823F06F
:1046300055F88DA20DE00C9823F050F88BA208E0FD
:104640000D9823F04BF88AA203E00E9823F046F869
:1046500088A20A214FF4AA700EF0C6FF00200FF0C6
:10466000B5FB85480FF096FB95F8290002286FD01E
:1046700001286ED003286DD004286CD005286BD09B
:1046800006286AD0072869D0082800E03AE06FD0F1
:1046900009286ED00B286DD003E064212F200EF086
:1046A0006DFF95F8300008B174A000E078A002F02A
:1046B00063FE07F005FC0020A5E211B101290CD032
:1046C0001CE023F00BF867A20A21DC20FFF71EF89C
:1046D000287923F03BF872A20BE00D9822F0FEFF40
:1046E00063A20A21DC20FFF711F8287F23F02EF8BF
:1046F0006CA20A214FF48270FFF708F8012004F041
:10470000B9FE68E222F0EAFF56A20A21DC20FFF798
:1047100033F8287923F01AF861A20A214FF4827045
:10472000FFF72AF8EAE74E480626007932B1012A57
:104730005DD0022A7FF412ADD9B305E379B1012926
:1047400011D0022917D003291AD004291DD0FBE269
:1047500066E268E26AE26CE26EE270E272E222F025
:10476000BDFF4FA215E00F9822F0B8FF4EA210E057
:104770006BE26DE26FE2109822F0B0FF4BA208E00E
:10478000119822F0ABFF47A203E0129822F0A6FF97
:1047900047A24FF4A57164200EF026FF607B48B15C
:1047A00001280CD002280FD0032812D0042815D0DD
:1047B000CAE23CE0687922F0C9FF3EA213E0687BC0
:1047C00022F0C4FF3CA20EE0687D22F0BFFF3BA2B6
:1047D00009E0687F22F0BAFF39A204E095F82500CD
:1047E00022F0B4FF37A24FF4A571B4204AE611B10C
:1047F00001290DD0A8E222F071FF29A20A214FF46D
:104800008270FEF783FF687922F0A0FF29A20CE0F6
:10481000119822F063FF23A20A214FF48270FEF761
:1048200075FF687F22F092FF25A20A21AAE322F0F9
:1048300055FF1BA20A214FF48270FEF79DFF687995
:1048400022F084FF1BA20A21AFE3000030303300C6
:1048500030313100303139003032370030333500FB
:104860000803012030303400303132003032300063
:10487000303238003033360000FFFF005468657274
:104880006D6F636F75706C65206D6F64656C000093
:10489000C8C8B5E7C5BCD0CDBAC5D1A1D4F1000018
:1048A00030303500303239003031330030323100B1
:1048B000303337003030360030313400303232009F
:1048C0003033300030333800F7480726407932B1B2
:1048D000012A59D0022A7FF441ACB1B3FAE341B1C5
:1048E00001290BD002290FD0032913D0042917D096
:1048F000F0E322F0F3FEAFF2440216E0139822F048
:10490000EDFEAFF24C0210E0149822F0E7FEAFF299
:1049100054020AE0159822F0E1FEAFF25C0204E0D6
:10492000169822F0DBFEAFF264024FF4A571B420BA
:104930000EF05AFE607B48B101280CD002280FD03F
:10494000032812D0042815D0C4E33FE0A87922F050
:10495000FDFED6A213E0A87B22F0F8FED4A20EE062
:10496000A87D22F0F3FED3A209E0A87F22F0EEFE9C
:10497000D1A204E095F8260022F0E8FECFA24FF481
:10498000A5714FF482707DE511B101290ED0A1E32C
:1049900022F0A4FEAFF2E4020A214FF49670FEF773
:1049A000B5FEA87922F0D2FEC0A20DE0159822F043
:1049B00095FEAFF2F4020A214FF49670FEF7A6FEC0
:1049C000A87F22F0C3FEBCA20A211DE322F086FECE
:1049D000AFF220120A214FF49670FEF7CDFEA879AF
:1049E00022F0B4FEB1A20A2121E3AF48807932B1AE
:1049F000012A57D0022A7FF4FDAB91B388E041B180
:104A000001290AD002290DD0032910D0042913D07E
:104A10007EE022F063FEA5A212E0179822F05EFE6F
:104A2000A3A20DE0189822F059FEA2A208E019985E
:104A300022F054FEA0A203E01A9822F04FFE9FA29B
:104A40004FF4A5714FF482700EF0CEFD607B48B13B
:104A500001280CD002280FD0032812D0042815D02A
:104A600056E044E0E87922F071FE95A213E0E87B7D
:104A700022F06CFE93A20EE0E87D22F067FE92A287
:104A800009E0E87F22F062FE90A204E095F827009A
:104A900022F05CFE8EA24FF4A5714FF4AA700EF0C6
:104AA000A3FD35E011B101290DD031E022F016FE51
:104AB0007EA20A214FF4AA70FEF728FEE87922F0C0
:104AC00045FE7FA20CE0199822F008FE7AA20A2186
:104AD0004FF4AA70FEF71AFEE87F22F037FE7BA2A1
:104AE0000A214FF4BE70FEF711FE11E04FE122F0F3
:104AF000F5FD6EA20A214FF4AA70FEF73DFEE8799B
:104B000022F024FE6EA20A214FF4BE70FEF734FE9E
:104B10000820D4E24CE16448C07932B1012A5CD06B
:104B2000022A7FF45DAA91B301E141B101290AD0C3
:104B300002290DD0032910D0042913D04BE022F014
:104B4000CDFD5FA212E01B9822F0C8FD5DA20DE032
:104B50001C9822F0C3FD5CA208E01D9822F0BEFD67
:104B60005AA203E01E9822F0B9FD59A24FF4A57194
:104B70004FF4AA700EF038FD607B48B101280DD0CB
:104B8000022811D0032815D0042819D023E065E0AD
:104B9000287922F0DBFDAFF2F82217E0287B22F023
:104BA000D5FDAFF2FC2211E0287D22F0CFFDAFF25F
:104BB00004320BE0287F22F0C9FDAFF2183205E085
:104BC00095F8240022F0C2FDAFF21C324FF4A5711B
:104BD00064200EF009FD052015E0C1B10129A0D126
:104BE0001D9822F07BFD39A20A214FF4BE70FEF71A
:104BF0008DFD287E22F0AAFDAFF638020A2164203E
:104C0000FEF784FD012020731FB0BDE8F08F22F075
:104C100065FD2BA20A214FF4BE70FEF777FD1DE55E
:104C2000AFF6BC0239E5AFF6B80236E5AFF6B8022A
:104C300033E5AFF6B40230E5AFF6B4022DE5AFF6DA
:104C4000B0022AE5AFF6B00227E5AFF6AC0224E5E4
:104C5000AFF6AC0221E5AFF6A8021EE522F03EFD5C
:104C600017A20A214FF4BE70FEF786FD00200FF058
:104C7000ADF818480FF08EF895F8290002282CD0CE
:104C800001282DD003282ED004282FD0052830D07D
:104C9000062831D0072832D0082833D0092834D04C
:104CA0000B2835D03AE0B2E008030120303037005D
:104CB0003031350030323300303331003033390099
:104CC000303038003031360030323400303332008A
:104CD0003034300000FFFF00AAE0AFF6741219E094
:104CE000AFF6741216E0AFF6701213E0AFF6701262
:104CF00010E0AFF66C120DE0AFF66C120AE0AFF602
:104D0000681207E0AFF6681204E0AFF6641201E043
:104D1000AFF6641264212F200EF030FC95F83000BD
:104D200040B1AFF2A84002F027FB0020207307F04B
:104D3000C7F869E7AFF2A840F5E70A26012A04D0D0
:104D4000022A7FF457AA29B3C4E111B101290ED078
:104D5000C0E122F0C3FCAFF69C12D2216420FEF722
:104D6000D5FC687A22F0F2FCAFF684120EE07046B1
:104D700022F0B4FCAFF6B012D2216420FEF7C6FCDC
:104D800095F8210022F0E2FCAFF69812D2218C2097
:104D9000FFF79BBB22F0A2FCAFF6E0128621642055
:104DA000FEF7EAFC687A22F0D1FCAFF6C412862145
:104DB0008C20FFF79BBB0B26012A04D0022AC0D10E
:104DC00039B387E160E011B1012910D082E1039885
:104DD00022F084FCAFF6F012D2218C20FEF796FC74
:104DE000A87A22F0B3FCAFF298520FE05DE006988B
:104DF00022F074FCAFF60422D2218C20FEF786FC50
:104E000095F8220022F0A2FCAFF2B052D221B420D9
:104E1000BEE7039822F062FCAFF6342286218C2094
:104E2000FEF7AAFCA87A22F091FCAFF2DC528621B0
:104E3000B420BEE70C26012A03D0022ABFD129B331
:104E400048E111B101290FD044E1079822F046FC56
:104E5000AFF20462D221B420FEF758FCE87A22F0C7
:104E600075FCAFF2FC520EE00A9822F037FCAFF26C
:104E70001462D221B420FEF749FC95F8220022F0FA
:104E800065FCAFF21062D221DC2081E7079822F0A6
:104E900025FCAFF244628621B420FEF76DFCE87A6F
:104EA00022F054FCAFF240628621DC2081E70D261F
:104EB000012A03D0022AC1D131B30BE111B101297A
:104EC0000FD007E10B9822F009FCAFF26462D22107
:104ED000DC20FEF71BFC287B22F038FCAFF23862A6
:104EE0000EE00E9822F0FAFBAFF27862D221DC20BD
:104EF000FEF70CFC95F8240022F028FCAFF250627B
:104F0000D2214FF4827043E70B9822F0E7FBAFF217
:104F1000A8628621DC20FEF72FFC287B22F016FCFD
:104F2000AFF27C6286214FF4827042E70E26012A9E
:104F300003D0022ABFD141B3CCE011B1012910D076
:104F4000C8E00F9822F0CAFBAFF2A462D2214FF45E
:104F50008270FEF7DBFB687B22F0F8FBAFF2A86201
:104F60000FE0129822F0BAFBAFF2BC62D2214FF4EC
:104F70008270FEF7CBFB95F8250022F0E7FBAFF23D
:104F8000BC62D2214FF4967002E70F9822F0A6FB84
:104F9000AFF2EC6286214FF48270FEF7EDFB687B86
:104FA00022F0D4FBAFF2F06286214FF4967000E756
:104FB0000F26012A03D0022ABCD141B38AE011B1E5
:104FC000012910D086E0139822F088FBAFF2187206
:104FD000D2214FF49670FEF799FBA87B22F0B6FB26
:104FE000AFF234320FE0169822F078FBAFF22C7259
:104FF000D2214FF49670FEF789FB95F8260022F037
:10500000A5FBAFF24832D2214FF4AA70C0E6139844
:1050100022F064FBAFF2607286214FF49670FEF7C7
:10502000ABFBA87B22F092FBAFF27C3286214FF4DF
:10503000AA70BEE6012A03D0022ABDD151B33DE0D9
:1050400011B1012910D039E0179822F047FBAFF2D7
:10505000A032D2214FF4AA70FEF758FBA87B22F0B1
:1050600075FBAFF2A0320FE01A9822F037FBAFF2D7
:10507000B432D2214FF4AA70FEF748FB95F827000E
:1050800022F064FBAFF2B832D2214FF4BE70FEF7CB
:105090003DFB13E0179822F021FBAFF2EC328621A2
:1050A0004FF4AA70FEF768FBE87B22F04FFBAFF2EB
:1050B000EC3286214FF4BE70FEF75EFB10203CE31D
:1050C0000926012A03D0022AB7D149B302E021B14F
:1050D000012912D02673FFF78DB81B9822F0FEFA33
:1050E000AFF22042D2214FF4BE70FEF70FFB287AB8
:1050F00022F02CFBAFF63C520FE01E9822F0EEFAA5
:10510000AFF23442D2214FF4BE70FEF7FFFA95F8A9
:10511000200022F01BFBAFF65052D221642037E66C
:105120001B9822F0DBFAAFF2644286214FF4BE7086
:10513000FEF722FB287A22F009FBAFF68052862187
:10514000642036E64FF01208012A03D0022AC2D1A9
:1051500089B136E1184622F0C1FAAFF69C523146C9
:105160006420FEF7D3FA687C22F0F0FAAFF684529E
:1051700031468C2028E0184622F0B0FAAFF6C05233
:1051800039466420FEF7F8FA687C22F0DFFAAFF6C1
:10519000A45239468C202AE04FF01308012A03D08C
:1051A000022A98D199B10CE1049822F097FAAFF64F
:1051B000C45231468C20FEF7A9FAA87C22F0C6FA28
:1051C000AFF670123146B420FEF7A0FAF9E0049869
:1051D00022F084FAAFF6EC5239468C20FEF7CCFA76
:1051E000A87C22F0B3FAAFF694123946B420FEF749
:1051F000C3FAE6E04FF01408012A03D0022AA6D130
:1052000089B1DEE0089822F069FAAFF6B8123146AB
:10521000B420FEF77BFAE87C22F098FAAFF6B412DD
:105220003146DC20D0E7089822F058FAAFF6DC12BD
:105230003946B420FEF7A0FAE87C22F087FAAFF6F0
:10524000D4123946DC20D2E74FF01508012A03D0EA
:10525000022AA6D191B1B4E00C9822F03FFAAFF641
:10526000F4123146DC20FEF751FA287D22F06EFA66
:10527000AFF6C81231464FF48270A5E70C9822F0C1
:105280002DFAAFF618223946DC20FEF775FA287D94
:1052900022F05CFAAFF6EC1239464FF48270A6E7C2
:1052A0004FF01608012A03D0022AA8D199B188E04C
:1052B000109822F013FAAFF60C2231464FF48270A8
:1052C000FEF724FA687D22F041FAAFF6102231464B
:1052D0004FF4967078E7109822F000FAAFF6342277
:1052E00039464FF48270FEF747FA687D22F02EFAB5
:1052F000AFF6382239464FF4967078E74FF017082A
:10530000012A03D0022AA4D199B15AE0149822F0BC
:10531000E5F9AFF6582231464FF49670FEF7F6F9EC
:10532000A87D22F013FAAFF2746231464FF4AA70EE
:105330004AE7149822F0D2F9AFF6802239464FF4AA
:105340009670FEF719FAA87D22F000FAAFF29C627F
:1053500039464FF4AA704AE74FF01808012A03D0E3
:10536000022AA2D199B12CE0189822F0B7F9AFF235
:10537000BC6231464FF4AA70FEF7C8F9E87D22F00E
:10538000E5F9AFF2BC6231464FF4BE701CE71898E5
:1053900022F0A4F9AFF2E46239464FF4AA70FEF7A6
:1053A000EBF9E87D22F0D2F9AFF2E46239464FF42E
:1053B000BE701CE74FF01108012A05D0022AA2D1C5
:1053C00099B184F80C8086E61C9822F087F9AFF238
:1053D000087231464FF4BE70FEF798F9287C22F02F
:1053E000B5F9F74A31466420EEE61C9822F076F9CA
:1053F000AFF22C7239464FF4BE70FEF7BDF9287C2F
:1054000022F0A4F9EE4A39466420F0E6022ADAD105
:1054100091B9584622F062F9E94A4E46121D4946B2
:105420006420FEF7A9F9687E22F090F9E44A31463B
:1054300030328C20FEF7A0F91A207EE1022AC2D178
:1054400091B9059822F04AF9DD4A4E463032494674
:105450008C20FEF791F9A87E22F078F9AFF6084289
:105460003146B420FEF788F91B2066E1022AAAD152
:1054700091B9099822F032F9AFF624424E464946D6
:10548000B420FEF779F9E87E22F060F9AFF6204209
:105490003146DC20FEF770F91C204EE1022A92D141
:1054A00099B90D9822F01AF9AFF63C424E4649469A
:1054B000DC20FEF761F9287F22F048F9AFF61C42A4
:1054C00031464FF48270FEF757F91D2035E1022A6C
:1054D0009DD1A1B9119822F001F9AFF638424E469C
:1054E00049464FF48270FEF747F9687F22F02EF9A3
:1054F000AFF6344231464FF49670FEF73DF91E2068
:105500001BE1022A9BD1A1B9159822F0E7F8AFF66A
:1055100050424E4649464FF49670FEF72DF9A87F4B
:1055200022F014F9AFF6700231464FF4AA70FEF77C
:1055300023F91F2001E1022A99D1A1B9199822F07B
:10554000CDF8AFF68C024E4649464FF4AA70FEF7EE
:1055500013F9E87F22F0FAF8AFF6900231464FF4E3
:10556000BE70FEF709F92020E7E0022A97D199B929
:105570001D9822F0B3F8AFF6AC024E4649464FF400
:10558000BE70FEF7F9F8287E22F0E0F88C4A31462A
:10559000121D6420FEF7F0F81920CEE0022A97D100
:1055A00099B9704622F09AF8854A56460832514613
:1055B0006420FEF7E1F895F8210022F0C7F8804A50
:1055C000314634328C20FEF7D7F82220B5E0022A8B
:1055D00098D199B9069822F081F8794A5646343222
:1055E00051468C20FEF7C8F895F8220022F0AEF85C
:1055F000AFF698523146B420FEF7BEF823209CE067
:10560000022A99D199B90A9822F068F8AFF6B452F3
:1056100056465146B420FEF7AFF895F8230022F025
:1056200095F8AFF6B0523146DC20FEF7A5F82420FD
:1056300083E0022A9AD1A1B90E9822F04FF8AFF672
:10564000CC5256465146DC20FEF796F895F82400D9
:1056500022F07CF8AFF6A85231464FF48270FEF784
:105660008BF8252069E0022A99D1A9B9129822F075
:1056700035F8AFF6C452564651464FF48270FEF7E5
:105680007BF895F8250022F061F8AFF6C852314654
:105690004FF49670FEF770F826204EE0022A97D15C
:1056A000A9B9169822F01AF8AFF6E85256465146B4
:1056B0004FF49670FEF760F895F8260022F046F851
:1056C000AFF6082231464FF4AA70FEF755F82720AE
:1056D00033E0022A95D1A9B91A9821F0FFFFAFF65D
:1056E0002422564651464FF4AA70FEF745F895F825
:1056F000270022F02BF8AFF6282231464FF4BE7077
:10570000FEF73AF8282018E0022A93D1A1B91E9892
:1057100021F0E4FFAFF64822564651464FF4BE70E2
:10572000FEF72AF895F8200022F010F8244A3146B6
:1057300008326420FEF720F821202073CBE44FF4D8
:10574000FA76BCF1320F71D016DCBCF12C0F48D0C8
:10575000BCF12D0F6BD0BCF12E0F69D0BCF1310F15
:105760007FF452AA21F0DCFF95F82E00C0B3012887
:105770006FD002286ED078E1BCF15F0F6BD0BCF126
:10578000610F69D0BCF1620FEAD121F0C9FF95F831
:105790003B3095F83A200BA16846303520F0E2F80E
:1057A0006A469621F8200DF0E9FE687927F0FAFAAA
:1057B0002878D0B306A001F0DFFD3320FFF723BA2D
:1057C000C043000825302E32643A25302E32640062
:1057D0005265636F726420696E74657276616C00E5
:1057E0002DE121F09DFF95F82C00002895F8300060
:1057F0001FD018B3F7A2962132200DF0BFFE21F082
:10580000B5FF95F82A00002895F8300018D0E0B1CF
:10581000F0A296215A200DF0B1FE95F83000B0B1FB
:10582000EDA001F0A9FD2D20C8E706E144E114E058
:105830005EE008B1ECA2DEE7ECA2DCE7EDA2DAE77D
:1058400008B1E9A2E5E7E9A2E3E7EAA2E1E7EBA014
:10585000E7E7FBE001E195E0C5E021F061FF95F8A5
:105860002A00002895F8300026D050B3D9A29621FE
:105870005A200DF083FEE44801460EF091FA1F23F2
:1058800018227F2196200DF0ABFF95F82B000528FC
:1058900019D004284FF000001FD00EF097FADBA2B9
:1058A0009B217F200DF06AFE95F83000F0B1D8A062
:1058B00001F062FD2E2081E708B1CBA2D7E7CBA291
:1058C000D5E7CCA2D3E700200EF080FAD6A296212D
:1058D0007F20FDF751FFD5A2E2E70EF077FAD2A2C2
:1058E00096217F20FDF748FFBEA2D9E7D0A0DFE7D1
:1058F000882108460EF054FA1F2318227F21962093
:105900000DF06EFF95F82B0005281FD00428BE4827
:1059100026D00EF05BFABDA29B217F200DF02EFE5B
:1059200021F024FF95F83600002895F8300020D0AB
:1059300020B3A8A29621AA200DF020FE95F83000F1
:10594000F0B1BFA001F018FD5F2037E7AE480EF0C0
:105950003DFAB5A296217F20FDF70EFFB3A2DBE74B
:105960000EF034FAB0A296217F20FDF705FF9DA22C
:10597000D2E708B19CA2DDE79CA2DBE79DA2D9E7B4
:10598000B2A0DFE721F0CCFE95F83600002895F8AC
:1059900030001FD018B38FA29621AA200DF0EEFD83
:1059A00021F0E4FE95F8393095F83820AFF2EC118B
:1059B000684630351FF0D6FF6A469621D0200DF09C
:1059C000DDFD287868B1A4A001F0D6FC012060704C
:1059D0006120F3E608B184A2DEE784A2DCE785A2B9
:1059E000DAE79FA0F0E721F09BFE95F8393095F8B3
:1059F0003820AFF23021684630351FF0B3FF6A46D9
:105A00009621D0200DF0BAFD21F0B0FEEB7AAA7AF3
:105A1000AFF2502168461FF0A5FF6A469621F82094
:105A20000DF0ACFD287830B191A001F0A5FC01206B
:105A300060706220C2E68FA0F7E792A0BBE695F8FF
:105A4000300008B193A20CE094A20AE095F830006F
:105A500008B194A205E094A203E095F8300090B15B
:105A600093A2314632200DF089FD21F07FFE95F89A
:105A70002F0050B101280AD002280AD003280AD0EA
:105A800004280AD00EE08CA2EBE78DA206E08EA2DD
:105A900004E08FA202E090A200E091A231465720DC
:105AA0000DF06CFD95F8300020B18FA001F064FC82
:105AB000322083E691A0F9E721F032FE95F82F001D
:105AC00040B1012808D0022808D0032808D00428B3
:105AD00008D00CE07AA206E07BA204E07CA202E0FF
