:020000040800F2
:10000000F8350120C10100080B3B0108210D010852
:10001000093B0108C1120008672202080000000025
:100020000000000000000000000000003D6A010820
:10003000B163000800000000ED3B01088D6E01086F
:10004000DB010008DB010008DB010008DB01000820
:10005000DB010008DB010008DB010008DB01000810
:10006000DB010008DB010008DB010008DB01000800
:10007000DB010008DB010008DB010008DB010008F0
:10008000DB010008DB010008DB010008DB010008E0
:10009000DB010008DB010008DB010008DB010008D0
:1000A000DB010008DB010008DB010008DB010008C0
:1000B000DB010008DB010008DB010008DB010008B0
:1000C000DB010008DB010008DB010008DB010008A0
:1000D000DB0100080D0A0208DB010008DB01000853
:1000E000DB010008DB010008DB010008DB01000880
:1000F000DB010008DB010008DB010008DB01000870
:10010000DB010008A95F0108DB010008DB01000832
:10011000DB010008DB010008256F0108DB01000896
:10012000DB010008DB010008DB0100086D39000875
:10013000DB010008DB010008DB010008DB0100082F
:10014000DB010008DB010008DB010008B13B01080E
:10015000DB010008DB010008DB010008DB0100080F
:10016000DB010008DB010008C93B0108BD3B0108B9
:10017000DB010008D53B0108DB010008DB010008BA
:10018000DB010008DB010008DB010008DB010008DF
:10019000DB010008DB010008DB010008DB010008CF
:1001A000DB010008DB010008DB010008DFF80CD0F0
:1001B00000F078FC00480047DD410208F8350120D6
:1001C0000648804706480047FEE7FEE7FEE7FEE7F1
:1001D000FEE7FEE7FEE7FEE7FEE7FEE7C96E010881
:1001E000AD0100082DE9F05F0546002092469B46D0
:1001F00088460646814640241BE02846414647463D
:10020000224600F0A8FA53465A46C01A914110D32C
:1002100011461846224600F08FFA2D1A67EB0108A6
:100220004F4622460120002100F086FA17EB000914
:100230004E41201EA4F10104DFDC484631462A4627
:100240004346BDE8F09FD2B201E000F8012B491E01
:10025000FBD270470022F6E710B513460A46044663
:100260001946FFF7F0FF204610BD421E12F8013F6D
:10027000002BFBD111F8013B02F8013B002BF9D117
:10028000704710B5044604E00B7800F8013B03B159
:10029000491C521EF8D2204610BD421C10F8011B0A
:1002A0000029FBD1801A704710B5002200E0521CD3
:1002B000835C8C5CA34201D1002BF8D1D8B2E1B2AF
:1002C000401A10BD034611F8012B00F8012B002A3B
:1002D000F9D11846704770B5064622F08BFE0468C7
:1002E00005460A220021304600F0A6FA2C6070BDB7
:1002F0002DE9FE4F804681EA0300C00F0C460090B6
:1003000021F0004123F00045B8EB0200A94105D2DD
:100310004046214690461C460B46024623F00040CC
:10032000104347D0270DC7F30A00C3F30A510290C8
:10033000401A019040286BDAC3F3130040F4801B8D
:100340000098924620B10023D2EB030A63EB0B0B1B
:1003500001985946C0F14002504600F0EDF90646BA
:100360000D4650465946019A00F005FA10EB080078
:100370006141002487EA115284EAE7731A4340D0AE
:10038000009A62B3019A012A4FEA075215DC001B5A
:1003900061EB02014FF0004202EA0752CDE9004250
:1003A000001C41F5801132462B4600F0C3FA03B021
:1003B000BDE8F08F40462146F9E7001B61EB0201E2
:1003C000001C41F5801300185B412018A2F50017AE
:1003D00047EB030140EAD570B6196D4111E06D0895
:1003E0004FEA360645EAC0754FEA0752001B61EB3B
:1003F0000201001C41F5801149084FEA3000001944
:10040000514132462B4603B0BDE8F04F00F083BAAD
:100410000098012240000023D0EB020263EBE0735E
:10042000009821464FEAE074B8EB000061EB04014C
:10043000E9E783F000435BE781F0004158E72DE9ED
:10044000FE4F81EA030404F0004421F000410094CF
:100450004FF0000B23F0004350EA01045ED052EA53
:1004600003045BD0C3F30A54C1F30A552C44A4F22D
:10047000F3340194A0FB0254C1F3130141F4801141
:10048000C3F3130343F4801301FB024400FB034E48
:10049000840A970A44EA815447EA8357A4FB076811
:1004A00002958D0A05FB07854FEA932C04FB0C543B
:1004B0002705029D4FEA065847EA1637B5EB0805AF
:1004C0006EEB070C870E920E47EA811742EA831201
:1004D000A7FB0201B6EB0B0164EB00042B0D43EA12
:1004E0000C335E1844EB1C50DA465146E7FB020120
:1004F000C5F313044FEA0B3343EA14534FEA0432B3
:10050000019C43EA0603A4F10C040294009CCDE98B
:1005100000B400F00FFA03B0BDE8F08F00200146F0
:10052000F9E72DE9F04D81EA030404F0004B21F0D6
:10053000004514464FF0000A23F0004150EA05023E
:1005400020D054EA01021DD0C5F30A570246C5F374
:100550001303C1F31300C1F30A5640F4801543F4AA
:100560008013A7EB0608101BD64608F2FD3873EB84
:10057000050002D308F1010801E092185B41B8F1CF
:10058000000F03DA00200146BDE8F08D00204FF493
:100590008011064684460EE0171B73EB050705D352
:1005A000121B63EB050306434CEA010C49084FEAB2
:1005B000300092185B4150EA0107EDD152EA030086
:1005C00012D082EA040083EA0501084305D0101B1B
:1005D000AB4106D20122002306E000224FF0004387
:1005E00002E06FF0010253101AEB06004CEB0851C9
:1005F00010EB0A0041EB0B01BDE8F04D00F08BB9A8
:100600000EB540F2334102910021CDE900110A46B6
:100610000B4600F08FF903B000BDC1F30A5210B5CC
:10062000C1F3130140F2FF3341F480119A4201DA21
:10063000002010BD40F233439A42A2F2334203DC61
:10064000524200F088F810BD904010BD00F000420A
:1006500030F000400AD0C10D01F56071C0F3160002
:1006600042EA0151C2084007114370470020014689
:100670007047000030B5041E71F1000404DB4FF038
:100680000044404264EB0101141E73F1000405DBD9
:100690001C464FF00043524263EB04038B4208BFF9
:1006A000824230BD30B5041E71F1000404DB4FF00E
:1006B0000044404264EB0101141E73F1000405DBA9
:1006C0001C464FF00043524263EB0403994208BFBB
:1006D000904230BD01F0004330B421F0004150EAB7
:1006E000010206D00A0DA2F56072C1F31301002ABF
:1006F00002DC30BC00207047440F44EAC104C10052
:10070000E01830BC00EBC25000F0CEB830B50B465C
:10071000014600202022012409E021FA02F59D4231
:1007200005D303FA02F5491B04FA02F52844151E05
:10073000A2F10102F1DC30BD202A04DB203A00FAEC
:1007400002F1002070479140C2F1200320FA03F328
:10075000194390407047202A04DB203A21FA02F026
:100760000021704721FA02F3D040C2F120029140EB
:10077000084319467047202A06DBCB17203A41FA76
:1007800002F043EAE07306E041FA02F3D040C2F11E
:100790002002914008431946704700000FB400231F
:1007A00000B589B00CA900910B996FF00042CB60A5
:1007B0001E4B06931E4B07930423CDE901321D4ABD
:1007C000089202466B46002000F020FA09B05DF85E
:1007D00014FB70B586B006464FF0FF300091CDE9AE
:1007E0000101002015460C4604903246694604A8D3
:1007F000FFF7D4FF02460498211825B108B1084636
:1008000000E020462860049800280DD0002A02DD70
:100810000098884208D0081B0094CDE901043246B4
:10082000694604A8FFF7BAFF06B070BD450E000880
:10083000630E0008D10A00082DE9F04791460F46E3
:1008400080460446002614F8015B2DB100F03CF907
:100850000068405DC007F6D12B2D02D02D2D18D099
:10086000641E4A463946204600F00CFB27B1396821
:10087000A14201D1C7F8008071054FF002040BD5E9
:100880004042002803DD22F0B5FB0460A007BDE86C
:10089000F08746F48066E4E70028F8DA22F0AAFB45
:1008A00004606FF00040F2E70029A8BF7047401CC9
:1008B000490008BF20F00100704710B4B0FA80FC76
:1008C00000FA0CF050EA010404BF10BC704749B1B3
:1008D000CCF1200421FA04F411FA0CF118BF012123
:1008E00021430843A3EB0C01CB1D4FEA00614FEA03
:1008F000102042BF002010BC704700EBC3501044D2
:100900000029A4BF10BC7047401C490008BF20F05C
:10091000010010BC704710B5141E73F1000408DA12
:10092000401C41F1000192185B411A4301D120F0B3
:10093000010010BD2DE9F04D92469B4611B1B1FA70
:1009400081F202E0B0FA80F220329046FFF7F4FE26
:1009500004460F4640EA0A0041EA0B0153465A4654
:10096000084313D0114653EA010019D0C8F14002E0
:100970005046FFF7F0FE05460E46504659464246A1
:10098000FFF7DAFE084305D0012004E0204639468F
:10099000BDE8F08D0020054346EAE0762C4337435E
:1009A0000A986305E40AA0EB08000022FD0A44EA65
:1009B00047540A3002D500200146E9E70105101925
:1009C0006941DDE9084500196941BDE8F04DA2E73C
:1009D0002DE9F04D00231A461B1A8A4103DB002043
:1009E0000146BDE8F08DC1F30A52C1F3130141F491
:1009F00080154FF0000BD10702D100186D41521E37
:100A00000027044640F2FF11384601EB620A3E46D9
:100A10008046024600204FF48011FFF79CFEC21969
:100A20007141BB1846EB0100B4EB030C75EB000CF5
:100A300004D3E41A65EB000517460E46241908F1A5
:100A400001006D4180463428E3DDF91946EB0600CC
:100A5000091BA84103D24FF0FF32134601E00022E8
:100A600013461BEB070046EB0A51BDE8F04DFFF7BC
:100A700052BFC1F30A52C1F3130140F2FF3341F4F4
:100A800080119A4202DA00200146704740F2334357
:100A90009A42A2F2334202DC5242FFF75CBEFFF7F9
:100AA0004BBE0000064C074D06E0E06840F0010335
:100AB00094E8070098471034AC42F6D3FFF77AFB6E
:100AC000B0370408D03704080048704738370408A6
:100AD00010B50446FFF7F8FF0068005D00F0010064
:100AE00010BD00002DE9FF4F087883B09946FF281C
:100AF00005D0491C2D2804D00024002008E0002047
:100B00000BE00124F9E700EB800003EB4000491CF7
:100B10000B78FF2BF7D104B14042002302931478E5
:100B200019461D462D2C01D02B2C04D1521C2D2CE6
:100B300013D000240294AA461478FF2C0FD00A2563
:100B4000A3FB057801FB05814FF0000C03FB0C11A2
:100B5000521CE3194AEB0101EEE70124EAE7814464
:100B600053EA010002D019F5C87F06DA0398002184
:100B7000C0E9001107B0BDE8F08F0025AE4E2F464A
:100B8000DFF8B882184600F0DAF9CDE90001B9F1D2
:100B9000000002DAC9F1000400E004460023A74A7D
:100BA0001AEB030B42EB045A12E0E00707D02A4687
:100BB000334638464146FFF742FC074688462A46F8
:100BC000334610461946FFF73AFC05460E466410B8
:100BD000002CEAD1DDE90001B9F1000F5A46534675
:100BE00006DAFFF79EFC3A464346FFF79AFC05E01B
:100BF000FFF725FC3A464346FFF721FC029A0AB16B
:100C000081F00041039AC2E90001B3E72DE9FF4FEB
:100C10001F468DB0D7E901464FF0FF382E204546DC
:100C20004FF000090B90B9696D1C0E988847396A1E
:100C3000824688470028F6D1BAF1FF3F0AD024F453
:100C4000D064002E11DDBAF12B0F08D0BAF12D0FB0
:100C50000BD102E0404611B08DE744F48064B969DD
:100C60006D1C0E9888478246761E6946600501D540
:100C70002D2000E02B208DF8000001F1010B0DF17B
:100C8000200809E0B9696D1C0E98884782460F98C4
:100C900044F40074761E0560002E02DDBAF1300FB8
:100CA000F0D00B998A453ED144F0800406E00F99BC
:100CB000681CA9F1010944F400740860B9696D1C4D
:100CC000761E0E98884782463028F0D02BE00B998C
:100CD0008A4505D1200603D444F08004761E18E02E
:100CE000504622F0C5FA08B30DF11301761E44F404
:100CF00000748B4508D2AAF130000BF8010B2006D6
:100D000007D5A9F1010003E0200602D409F1010092
:100D10008146A00502D50F99681C0860B9696D1C51
:100D20000E9888478246002ED1DC53E0002E51DD1C
:100D3000BAF1650F02D0BAF1450F4BD1A00549D5E4
:100D4000B9696D1C24F44074761E0E98884782465B
:100D5000002E0CDD2B2804D0BAF12D0F07D144F45E
:100D60008074B9696D1C0E9888478246761EE0052E
:100D700001D52D2100E02B2108F8011BCDF82C8096
:100D800021E00DF12901761E44F4007488450CD24F
:100D9000AAF1300010F0FF0088F8000002D10B9992
:100DA000884509D908F1010806E0E00501D5244885
:100DB00001E042F20F708146B9696D1C0E988847B8
:100DC00082460F980560002E04DD504622F050FA4E
:100DD0000028D6D1F9690E988847FF208BF80000CB
:100DE00088F800000020069007904B466A4608A944
:100DF00006A8FFF777FEA00502D46FF001002AE7EE
:100E000014F0240F0AD0E00714D1DDE90612386887
:100E1000031D3B600068C0E900120BE0DDE906013C
:100E2000FFF758FC0146E00704D13868021D3A601C
:100E30000068016028460EE7000014400000F03F03
:100E4000F1D8FFFF426842B1016811F8013B23B1BC
:100E5000521EC0E90012184670470121C160881E69
:100E6000704742685AB1C368016843B983688B42CE
:100E700005D0491E521CC0E90012002070474FF0F7
:100E8000FF3070472DE9F05F824600780027154655
:100E90008B460AF10104B946302801D09DB113E018
:100EA00014F8010B0127782803D0582801D045B148
:100EB0000AE00DB1102D07D10027102514F8010B01
:100EC00002E0082500E00A250026B0460EE005FBFA
:100ED000080005FB06F1012701EB10461FFA80F818
:100EE000B6F5803F00D3B94614F8010B294600F04F
:100EF00018F80028EBDABBF1000F05D00FB1641E23
:100F000000E05446CBF80040B9F1000F06D022F0C3
:100F100071F802210160C81EBDE8F09F48EA064052
:100F2000FAE73A2800D2303820F02002412A01D3D3
:100F3000A2F13700884201D34FF0FF3070470EB561
:100F400040F2334202920022CDE900221346FFF71D
:100F5000F1FC03B000BD70B58C1810F8015B15F002
:100F6000070301D110F8013B2A1106D110F8012B1B
:100F700003E010F8016B01F8016B5B1EF9D12B0740
:100F800005D40023521E0DD401F8013BFAE710F8F6
:100F9000013BCB1A921C03E013F8015B01F8015BE3
:100FA000521EF9D5A142D8D3002070BD154910B505
:100FB000887AF0B1022820D0082805D0092820D14D
:100FC000BDE8104024F0AAB8C87AC97B0F4A00EBEC
:100FD000C1015339C9B29FED0C0A02EB81015238AD
:100FE00081ED000AC0B223F003FBBDE8104015F00C
:100FF00037BDBDE8104026F07DBCBDE8104016F0BE
:10100000E1BA10BD4001002000000000542E012074
:101010000029816802D041F0010101E021F00101C5
:1010200081607047084B10B5D3F8042307490A4084
:10103000D0E900142143D0E9024004432143114385
:10104000C3F8041310BD000000200140E030FCFF95
:101050000029816802D041F4807101E021F480719F
:10106000816070470029816802D041F4007101E07D
:1010700021F400718160704730B542680F4B0C79E4
:101080001A400B6842EA04221343436082680C4B07
:101090004D791A40D1E9034323438C6844EA45045F
:1010A000234313438360C26A097D22F47002491E00
:1010B000C9B242EA0151C16230BD0000FFFEFFFC2F
:1010C000FDF7FFC070B5072609290AD9C568A1F147
:1010D0000A0404EB4404A640B543A3401D43C56085
:1010E00007E0056901EB4104A640B543A3401D4359
:1010F00005611F23072A09D2446B521E02EB8202AC
:1011000093409C4391400C43446370BD0D2A09D227
:10111000046BD21F02EB820293409C4391400C432C
:10112000046370BDC46A0D3A02EB820293409C4393
:1011300091400C43C46270BD816841F08041816080
:1011400070470000F0B5324BDFED300A9FED310AF9
:10115000A3F1A005C3ED010AA5F51B57002183EDFE
:10116000020A08462C4E97F833200AE017F800C010
:10117000BCF1000F03D155F820C0B4450CDB401C76
:10118000C0B28242F2D8012C06D0C3ED000AC3EDF2
:10119000010AC3ED020AF0BD0020204C2AE017F836
:1011A00000C0BCF1000F23D105EB800C9CED000AC0
:1011B00010EE10CAB4451BDA04EB800C491C9CED00
:1011C000001AC9B230EE410A93ED011A70EE200AFE
:1011D000B4EEC10AF1EE10FA01DD83ED010A93EDE0
:1011E000021AB4EEC10AF1EE10FA01D283ED020A3E
:1011F000401CC0B28242D2D800EE101AB8EE400AAB
:1012000080EE801A83ED001AF0BD0000000000009F
:101210004030002000E0F94400E0F944542E012061
:101220000949887A001F092809D2DFE800F0050B78
:101230000B0B0B0808080900C87A332802D0704746
:101240000248007822F0D2BC400100201C0200209D
:1012500000210D4A0846135C012B00D10121401CDE
:10126000C0B22828F7D30948012908D106495039C6
:1012700091F82A10012902D10549097811B10021FC
:1012800015F080BF0121FBE7300900200004014078
:101290004A0100201CB54FF48070012100908DF8A8
:1012A000041000208DF806008DF807108DF8050059
:1012B000694602480FF0DCFC1CBD00000000024043
:1012C000FEE7000010B5074C0121204615F05AFF3B
:1012D0004FF6FF7005F0D0F82046BDE81040002121
:1012E00015F050BF0004014010B50446392028F025
:1012F000F1FDE0B228F012FEC4F3072028F00EFE44
:10130000C4F3074028F00AFE200E28F007FE28F05C
:10131000D1FDBDE8104021F087BD70B506461446EA
:101320000D463C2028F0D6FDE8B228F0F7FD280A4B
:1013300028F0F4FD28F0BEFD0CB1002011E021F0F2
:1013400073FD1E280FD1304600F030F905463D20D0
:1013500028F0C0FD28F0AEFD2E44002CEFD02088F0
:1013600028442080EBE770BD10B512F07FFC08B177
:1013700000F069F8BDE81040302000F0B2B831202C
:1013800000F0AFB80146362000F09EB810B508B1A5
:1013900000F0C5F8BDE81040342000F0A2B870B5E8
:1013A000054600F0A7F804000DD00146284600F0DD
:1013B00021F8412807D0142803D0422800D1B320B7
:1013C00070BD432070BD2819BDE87040FFF7DEBF37
:1013D00010B5044600F0A3F820785C2801D02F282F
:1013E00003D10021642000F0F7F8BDE8104032205E
:1013F00000F077B870B50E4600210546012401E0E3
:10140000641CE4B2285D5C2813D02F2811D000287A
:10141000F6D100246818FFF7DBFF002C08D0B44297
:1014200006D041280AD0142806D0422800D1B32083
:1014300070BD641CE4B2EDE7432070BD2146E1E7D6
:10144000FF21FFF7D7BF10B5222028F043FD32203F
:1014500005F012F828F034FD044628F02BFD204654
:1014600010BD2DE9F04128F02BFD064628F028FD9F
:10147000054628F025FD044628F022FD074628F001
:1014800019FD46EA052040EA044040EA0760BDE84D
:10149000F08110B504460C2028F01CFD204628F0F1
:1014A0003DFDBDE81040FFF7DCBF10B504460A2043
:1014B00028F010FD204628F031FD28F001FD0446FB
:1014C00028F0F8FC204610BD10B50C4628F002FDAF
:1014D000204628F023FD28F0EDFCBDE8104021F067
:1014E000A3BC10B528F0F6FC28F0E4FCBDE81040E1
:1014F00021F09ABC014600E0491C0A78002AFBD181
:1015000005E011F8012D5C2A03D02F2A01D0814279
:10151000F7D1814200D0491C081AC0B2704770B59B
:101520000546012028F0D6FC28F0CAFC432828D222
:101530002B20FFF7BAFF102823D22F2028F0CAFC57
:10154000002028F0EBFC3220FFF7CBFF142818D145
:10155000CF20FFF7AAFF040013D04C20FFF799FF1C
:1015600000EB04214C2000F037F85020FFF791FFEA
:1015700000EB0421502000F02FF80021702000F033
:101580002BF82F2028F0A6FC2C7806E015F8014F48
:101590005C2C01D02F2C00D10024204628F0BEFC6A
:1015A000002CF3D1BDE8704028F084BC70B505462E
:1015B0002D2028F08FFC28F083FC0446260007D05D
:1015C000287828F0ABFC641E6D1C14F0FF04F7D1E2
:1015D00028F070FC304670BD70B505460C460D20F5
:1015E00028F078FC284628F099FCE0B228F096FC18
:1015F000C4F3072028F092FCC4F3074028F08EFCC7
:10160000200E28F08BFCBDE8704028F053BC000091
:101610002DE9F04188B00121812012F033FB012136
:10162000080312F06BFBDFF8C88005221146404624
:101630000FF05AFB0522062140460FF055FB05220C
:10164000072140460FF050FB02258DF805508DF81C
:101650000450002420278DF8064000978DF807409D
:10166000694640460FF004FB402000906946404622
:101670000FF0FEFA80200090694640460FF0F8FA1D
:101680001020012600908DF804608DF80640694610
:1016900040460FF0EDFA8DF8044000978DF8076092
:1016A000694614480FF0E4FAADF808404FF4827030
:1016B000ADF80A00ADF810602802ADF8120038202D
:1016C000ADF81400ADF80C40ADF8164007200A4CF8
:1016D000ADF81800ADF80E5002A9204615F01FF91C
:1016E0000121204614F018FF08B0BDE8F081000089
:1016F00000000240001C024000300140F0B5FF2312
:101700001A46002518E0445D6240002402F00106FC
:1017100013F0010F4FEA53034FEA520201D042F097
:1017200080021EB183F0A00382F00102641CE4B2C7
:10173000082CEBD36D1CEDB28D42E4D342EA0320BA
:10174000F0BD00002DE9F047FE48FF4FFF4C007848
:101750004FF482754FF4AA764FF470484FF4A57990
:1017600040B1012874D0022873D0032872D0042815
:1017700071D025E32078012801D028B10FE088201E
:1017800010F0ECFD384603E0882010F0E7FD4046FD
:1017900010F000FEEEA20A21642010F00DFA60782D
:1017A000012801D028B10FE0882010F0D7FD38467D
:1017B00003E0882010F0D2FD404610F0EBFDE5A2DA
:1017C0000A21B42010F0F8F9A078012801D028B13E
:1017D0000FE0882010F0C2FD384603E0882010F0AA
:1017E000BDFD404610F0D6FDDBA20A21284610F0D0
:1017F000E3F9E078012801D028B10FE0882010F04B
:10180000ADFD384603E0882010F0A8FD404610F0FA
:10181000C1FDD2A20A21304610F0CEF9207901286C
:1018200001D028B10FE0882010F098FD384603E081
:10183000882010F093FD404610F0ACFDC8A2494648
:10184000642010F0B9F96079012805D048B113E09F
:1018500039E0CEE063E133E2882010F07FFD3846C6
:1018600003E0882010F07AFD404610F093FDBDA201
:101870004946B42010F0A0F9A079012801D028B180
:101880000FE0882010F06AFD384603E0882010F051
:1018900065FD404610F07EFDB3A24946284610F093
:1018A0008BF9E079012801D028B189E2882010F075
:1018B00055FD384603E0882010F050FD404610F0FA
:1018C00069FDAAA278E2207A01284FF0880070D042
:1018D00010F044FD404610F05DFDA5A20A216420F1
:1018E00010F06AF9607A01284FF0880065D010F096
:1018F00035FD404610F04EFD9EA20A21B42010F0A6
:101900005BF9A07A01284FF088005AD010F026FD2C
:10191000404610F03FFD98A20A21284610F04CF9ED
:10192000E07A01284FF088004FD010F017FD4046B4
:1019300010F030FD91A20A21304610F03DF9207BD5
:1019400001284FF0880044D010F008FD404610F008
:1019500021FD8BA24946642010F02EF9607B0128FE
:101960004FF0880039D010F0F9FC404610F012FD1D
:1019700084A24946B42010F01FF9A07B01284FF043
:1019800088002ED010F0EAFC404610F003FD7EA245
:101990004946284610F010F9E07B01284FF08800F6
:1019A00023D010F0DBFC404610F0F4FC77A203E2F9
:1019B000FFE710F0D3FC38468DE710F0CFFC384637
:1019C00098E710F0CBFC3846A3E710F0C7FC384688
:1019D000AEE710F0C3FC3846B9E710F0BFFC38465C
:1019E000C4E710F0BBFC3846CFE710F0B7FC384630
:1019F000DAE7207C01284FF0880070D010F0AEFCB0
:101A0000404610F0C7FC62A20A21642010F0D4F80E
:101A1000607C01284FF0880065D010F09FFC4046A4
:101A200010F0B8FC5BA20A21B42010F0C5F8A07C2D
:101A300001284FF088005AD010F090FC404610F07A
:101A4000A9FC55A20A21284610F0B6F8E07C01282E
:101A50004FF088004FD010F081FC404610F09AFC07
:101A60004EA20A21304610F0A7F8207D01284FF041
:101A7000880044D010F072FC404610F08BFC48A265
:101A80004946642010F098F8607D01284FF08800E6
:101A900039D010F063FC404610F07CFC41A249466E
:101AA000B42010F089F8A07D01284FF088002ED0D6
:101AB00010F054FC404610F06DFC3BA2494628460D
:101AC00010F07AF8E07D01284FF0880023D010F064
:101AD00045FC404610F05EFC34A26DE1FFE710F0DB
:101AE0003DFC38468DE710F039FC384698E710F099
:101AF00035FC3846A3E710F031FC3846AEE710F06D
:101B00002DFC3846B9E710F029FC3846C4E710F040
:101B100025FC3846CFE710F021FC3846DAE7207E76
:101B200001284FF088007DD010F018FC404610F0DE
:101B300031FC1FA20A21642010F03EF8607E0128CB
:101B400038E000004C01002093551700E008002009
:101B5000303031003030320030303300303034003B
:101B6000303035003030360030303700303038001B
:101B70003030390030313000303131003031320016
:101B800030313300303134003031350030313600FF
:101B900030313700303138003031390030323000E8
:101BA00030323100303232003032330030323400E3
:101BB000303235004FF0880066D010F0CFFB404641
:101BC00010F0E8FB99A20A21B4200FF0F5FFA07EE7
:101BD00001284FF088005BD010F0C0FB404610F0A9
:101BE000D9FB93A20A2128460FF0E6FFE07E0128E8
:101BF0004FF0880050D010F0B1FB404610F0CAFB07
:101C00008CA20A2130460FF0D7FF207F01284FF029
:101C1000880045D010F0A2FB404610F0BBFB86A226
:101C2000494600E02CE064200FF0C6FF607F0128E9
:101C30004FF0880038D010F091FB404610F0AAFB1E
:101C40007EA24946B4200FF0B7FFA07F01284FF0D5
:101C500088002DD010F082FB404610F09BFB78A24C
:101C6000494628460FF0A8FFE07F01284FF0880082
:101C700022D010F073FB404610F08CFB71A29BE069
:101C800010F06CFB384652E710F068FB384697E7D7
:101C900010F064FB3846A2E710F060FB3846ADE771
:101CA00010F05CFB3846B8E710F058FB3846C5E743
:101CB00010F054FB3846D0E710F050FB3846DBE715
:101CC00094F8200001284FF088007DD010F046FBEA
:101CD000404610F05FFB5CA20A2164200FF06CFF0D
:101CE00094F8210001284FF088006ED010F036FBE8
:101CF000404610F04FFB55A20A21B4200FF05CFFC4
:101D000094F8220001284FF0880074D010F026FBD0
:101D1000404610F03FFB4EA20A2128460FF04CFF30
:101D200094F8230001284FF0880068D010F016FBCB
:101D3000404610F02FFB47A20A2130460FF03CFF2F
:101D400094F8240001284FF088005CD010F006FBC6
:101D5000404610F01FFB40A2494664200FF02CFFC4
:101D600094F8250001284FF0880050D010F0F6FAC2
:101D7000404610F00FFB39A24946B4200FF01CFF7B
:101D800094F8260001284FF0880044D010F0E6FABD
:101D9000404610F0FFFA32A2494628460FF00CFFE9
:101DA00094F8270001284FF0880038D010F0D6FAB8
:101DB000404610F0EFFA2BA2494630460FF0FCFEE9
:101DC00029490120C87001E00CE010E0FFF77AFA21
:101DD00094F8300038B325A004F0E4FFBDE8F047E4
:101DE00014F03EBE10F0BAFA384672E703E010F085
:101DF000B5FA38467DE710F0B1FA384689E710F0B9
:101E0000ADFA384695E710F0A9FA3846A1E710F088
:101E1000A5FA3846ADE710F0A1FA3846B9E710F058
:101E20009DFA3846C5E714A0D6E7000030323600E8
:101E30003032370030323800303239003033300041
:101E4000303331003033320030333300303334003C
:101E5000303335003033360030333700303338001C
:101E60003033390030343000A00100204368616E07
:101E70006E656C2073657400CDA8B5C0C9E8D6C383
:101E8000000000002DE9F05FF948DFF8E8A3FA4C04
:101E900000784FF482754FF496764FF4AA784FF499
:101EA000BE794FF4704B10B101286ED03CE320781E
:101EB000012801D028B10FE0882010F04FFA5046D9
:101EC00003E0882010F04AFA584610F063FAEBA2BB
:101ED0000A21642001F0D6FA6078012801D028B1E7
:101EE0000FE0882010F03AFA504603E0882010F006
:101EF00035FA584610F04EFAE1A20A218C2001F082
:101F0000C1FAA078012801D028B10FE0882010F094
:101F100025FA504603E0882010F020FA584610F0C9
:101F200039FAD8A20A21B42001F0ACFAE0780128ED
:101F300001D028B10FE0882010F010FA504603E0DD
:101F4000882010F00BFA584610F024FACEA20A218D
:101F5000DC2001F097FA2079012801D028B10FE0A8
:101F6000882010F0FBF9504603E0882010F0F6F9C5
:101F7000584610F00FFAC5A20A21284601F082FA4D
:101F80006079012802D030B110E0C6E1882010F05D
:101F9000E5F9504603E0882010F0E0F9584610F0CB
:101FA000F9F9BBA20A21304601F06CFAA0790128A8
:101FB00001D028B10FE0882010F0D0F9504603E09E
:101FC000882010F0CBF9584610F0E4F9B1A20A21AC
:101FD000404601F057FAE079012801D028B10FE01E
:101FE000882010F0BBF9504603E0882010F0B6F9C5
:101FF000584610F0CFF9A8A20A21484601F042FA4B
:1020000094F83300082872D9207A012801D028B129
:102010000FE0882010F0A2F9504603E0882010F06D
:102020009DF9584610F0B6F99CA2D221642001F027
:1020300029FA607A012801D028B10FE0882010F039
:102040008DF9504603E0882010F088F9584610F0CA
:10205000A1F993A2D2218C2001F014FAA07A0128D0
:1020600001D028B10FE0882010F078F9504603E045
:10207000882010F073F9584610F08CF989A2D2210B
:10208000B42001F0FFF9E07A012801D028B10FE077
:10209000882010F063F9504603E0882010F05EF9C4
:1020A000584610F077F980A2D221DC2001F0EAF93D
:1020B000207B012801D028B10FE0882010F04EF9D4
:1020C000504603E0882010F049F9584610F062F9B4
:1020D00076A2D221284601F0D5F9607B012801D0F3
:1020E00030B110E0882010F039F9504604E034E0B7
:1020F000882010F033F9584610F04CF96CA2D22128
:10210000304601F0BFF9A07B012801D028B10FE0D3
:10211000882010F023F9504603E0882010F01EF9C3
:10212000584610F037F963A2D221404601F0AAF9CF
:10213000E07B012801D028B10FE0882010F00EF9D3
:10214000504603E0882010F009F9584610F022F9B3
:1021500059A2D221484601F095F994F8330010288D
:102160006FD9207C4FF4CD77012801D028B10FE042
:10217000882010F0F3F8504603E0882010F0EEF8C5
:10218000584610F007F94DA23946642001F07AF95B
:10219000607C012801D028B10FE0882010F0DEF823
:1021A000504603E0882010F0D9F8584610F0F2F8B5
:1021B00043A239468C2001F065F9A07C012801D0AA
:1021C00028B10FE0882010F0C9F8504603E08820BD
:1021D00010F0C4F8584610F0DDF83AA23946B420A1
:1021E00001F050F9E07C012801D028B10FE08820EF
:1021F00010F0B4F8504603E0882010F0AFF85846CD
:1022000010F0C8F830A23946DC2001F03BF9207DFF
:10221000012801D028B10FE0882010F09FF8504627
:1022200003E0882010F09AF8584610F0B3F827A27F
:102230003946284601F026F9607D012802D030B1E8
:1022400010E071E1882010F089F8504603E0882002
:1022500010F084F8584610F09DF81DA2394630461B
:1022600001F010F9A07D012834D000B142E036E041
:102270004C01002093551700E00800203030310059
:102280003030320030303300303034003030350000
:1022900030303600303037003030380030303900E0
:1022A00030313000303131003031320030313300E4
:1022B00030313400303135003031360030313700C4
:1022C00030313800303139003032300030323100B6
:1022D00030323200882010F041F8504603E0882068
:1022E00010F03CF8584610F055F8BAA2394640466E
:1022F00001F0C8F8E07D012801D028B114E1882060
:1023000010F02CF8504603E0882010F027F85846CB
:1023100010F040F8B0A2394603E1207E01284FF0CA
:1023200088007CD010F01AF8584610F033F8ABA2B1
:102330000A21642001F0A6F8607E01284FF0880091
:102340006ED010F00BF8584610F024F8A4A20A2121
:102350008C2001F097F8A07E01284FF088007DD0F6
:102360000FF0FCFF584610F015F89EA20A21B42089
:1023700001F088F8E07E01284FF088006FD00FF060
:10238000EDFF584610F006F897A20A21DC2001F074
:1023900079F8207F01284FF088007DD00FF0DEFF14
:1023A00058460FF0F7FF91A20A21284601F06AF87B
:1023B000607F01284FF088006FD00FF0CFFF5846A4
:1023C0000FF0E8FF8AA20A21304601F05BF8A07FF7
:1023D00001284FF088007DD00FF0C0FF58460FF065
:1023E000D9FF84A20A21404601F04CF8E07F012881
:1023F0004FF088006FD00FF0B1FF58460FF0CAFFC2
:102400007DA20A21484601F03DF894F820000128F9
:102410004FF088007ED00FF0A1FF584601E092E017
:1024200096E00FF0B7FF75A2D221642001F02AF8E0
:1024300094F8210001284FF088006CD00FF08EFF37
:1024400058460FF0A7FF6EA2D2218C2001F01AF897
:1024500094F8220001284FF0880001E07CE07FE042
:1024600075D00FF07BFF58460FF094FF65A2D22184
:10247000B42001F007F894F8230001284FF08800F9
:1024800072D00FF06BFF58460FF084FF5EA2D2218E
:10249000DC2000F0F7FF01E067E06AE094F8240038
:1024A00001284FF0880070D00FF058FF58460FF009
:1024B00071FF56A2D221284600F0E4FF94F82500CF
:1024C00001284FF0880077D00FF048FF58460FF0F2
:1024D00061FF01E051E054E04DA2D221304600F00E
:1024E000D1FF94F8260001284FF0880068D00FF043
:1024F00035FF58460FF04EFF46A2D221404600F06D
:10250000C1FF94F8270001284FF088005CD00FF03D
:1025100025FF01E03BE03EE058460FF03BFF3EA2C6
:10252000D221484600F0AEFF3C490120C870FEF7BA
:10253000C9FE94F8300048B339A004F033FCBDE87C
:10254000F05F14F08DBA0FF009FF5046EDE626E07B
:102550000FF004FF5046F7E60FF000FF504602E789
:102560000FF0FCFE50460DE71EE00FF0F7FE504660
:1025700017E70FF0F3FE504622E70FF0EFFE50464C
:102580002DE70FF0EBFE504638E711E020E00FF0AA
:10259000E5FE504642E70FF0E1FE504651E70FF0EE
:1025A000DDFE504660E707E00FF0D8FE50466BE7CF
:1025B0000FF0D4FE50467AE70FF0D0FE504686E783
:1025C0000FF0CCFE504695E70FF0C8FE5046A4E74A
:1025D00016A0B2E7303233003032340030323500EA
:1025E0003032360030323700303238003032390085
:1025F0003033300030333100303332003033330089
:102600003033340030333500303336003033370068
:10261000303338003033390030343000A00100202E
:102620004368616E6E656C2073657400CDA8B5C09B
:10263000C9E8D6C3000000002DE9F05FF84CDFF8D0
:10264000E4A34FF4704B2078012801D028B10FE0AB
:1026500088200FF083FE504603E088200FF07EFEB6
:1026600058460FF097FEF0A20A21642000F040FFC8
:102670006078012801D028B10FE088200FF06EFEAD
:10268000504603E088200FF069FE58460FF082FEA6
:10269000E6A20A218C2000F02BFFA078012801D0AF
:1026A00028B10FE088200FF059FE504603E0882043
:1026B0000FF054FE58460FF06DFEDDA20A21B42043
:1026C00000F016FFE078012801D028B10FE0882043
:1026D0000FF044FE504603E088200FF03FFE5846BE
:1026E0000FF058FED3A20A21DC2000F001FF207970
:1026F0004FF48275012801D028B10FE088200FF037
:102700002DFE504603E088200FF028FE58460FF0BB
:1027100041FEC9A20A21284600F0EAFE60794FF482
:102720009676012801D028B10FE088200FF016FE20
:10273000504603E088200FF011FE58460FF02AFEA5
:10274000BEA20A21304600F0D3FEA0794FF4AA7948
:10275000012801D028B10FE088200FF0FFFD50467E
:1027600003E088200FF0FAFD58460FF013FEB4A2E4
:102770000A21484600F0BCFEE0794FF4BE780128FB
:1027800001D028B10FE088200FF0E8FD504603E0AB
:1027900088200FF0E3FD58460FF0FCFDA9A20A21A6
:1027A000404600F0A5FE94F83300082872D9207A3C
:1027B000012801D028B10FE088200FF0CFFD50464E
:1027C00003E088200FF0CAFD58460FF0E3FD9EA2FB
:1027D0008621642000F08CFE607A012801D028B1A7
:1027E0000FE088200FF0BAFD504603E088200FF07C
:1027F000B5FD58460FF0CEFD94A286218C2000F046
:1028000077FEA07A012801D028B10FE088200FF0D0
:10281000A5FD504603E088200FF0A0FD58460FF0BC
:10282000B9FD8BA28621B42000F062FEE07A012877
:1028300001D028B10FE088200FF090FD504603E052
:1028400088200FF08BFD58460FF0A4FD81A2862151
:10285000DC2000F04DFE207B012801D028B10FE0E4
:1028600088200FF07BFD504603E088200FF076FDB6
:1028700058460FF08FFD78A28621284600F038FEDA
:10288000607B012801D030B110E088200FF066FD98
:10289000504604E034E088200FF060FD58460FF009
:1028A00079FD6EA28621304600F022FEA07B012831
:1028B00001D028B10FE088200FF050FD504603E012
:1028C00088200FF04BFD58460FF064FD64A286216E
:1028D000484600F00DFEE07B012801D028B10FE052
:1028E00088200FF03BFD504603E088200FF036FDB6
:1028F00058460FF04FFD5BA28621404600F0F8FDE0
:1029000094F8330010286FD9207C4FF48177012888
:1029100001D028B10FE088200FF020FD504603E0E1
:1029200088200FF01BFD58460FF034FD4EA23946AB
:10293000642000F0DDFD607C012801D028B10FE0AB
:1029400088200FF00BFD504603E088200FF006FDB5
:1029500058460FF01FFD45A239468C2000F0C8FDF7
:10296000A07C012801D028B10FE088200FF0F6FCF0
:10297000504603E088200FF0F1FC58460FF00AFDA6
:102980003BA23946B42000F0B3FDE07C012801D021
:1029900028B10FE088200FF0E1FC504603E08820CA
:1029A0000FF0DCFC58460FF0F5FC32A23946DC2073
:1029B00000F09EFD207D012801D028B10FE0882085
:1029C0000FF0CCFC504603E088200FF0C7FC5846BF
:1029D0000FF0E0FC28A23946284600F089FD607D12
:1029E000012802D030B110E0C6E188200FF0B6FC1B
:1029F000504603E088200FF0B1FC58460FF0CAFCA7
:102A00001EA23946304600F073FDA07D012801D09A
:102A100028B140E088200FF0A1FC504634E02FE0C0
:102A2000E00800209355170030303100303032007C
:102A30003030330030303400303035003030360044
:102A4000303037003030380030303900303130002D
:102A50003031310030313200303133003031340028
:102A60003031350030313600303137003031380008
:102A70003031390030323000303231003032320003
:102A800088200FF06BFC58460FF084FCC3A2394637
:102A9000484600F02DFDE07D012801D028B10FE06F
:102AA00088200FF05BFC504603E088200FF056FCB6
:102AB00058460FF06FFCBAA23946404600F018FDA8
:102AC000207E4FF4BF77012801D028B10FE0882085
:102AD0000FF044FC504603E088200FF03FFC5846BE
:102AE0000FF058FCAFA23946642000F001FD607E73
:102AF000012801D028B10FE088200FF02FFC5046AC
:102B000003E088200FF02AFC58460FF043FCA6A2F1
:102B100039468C2000F0ECFCA07E012801D028B1C1
:102B20000FE088200FF01AFC504603E088200FF0D9
:102B300015FC58460FF02EFC9CA23946B42000F03C
:102B4000D7FCE07E012801D028B10FE088200FF0EB
:102B500005FC504603E088200FF000FC58460FF0BB
:102B600019FC93A23946DC2000F0C2FC207F01282A
:102B700001D028B10FE088200FF0F0FB504603E0B1
:102B800088200FF0EBFB58460FF004FC89A2394671
:102B9000284600F0ADFC607F012801D028B10FE08D
:102BA00088200FF0DBFB504603E088200FF0D6FBB7
:102BB00058460FF0EFFB80A23946304600F098FCF3
:102BC000A07F012801D028B10FE088200FF0C6FBBC
:102BD000504603E088200FF0C1FB58460FF0DAFBA7
:102BE00076A23946484600F083FCE07F012801D0F8
:102BF00028B10FE088200FF0B1FB504603E0882099
:102C00000FF0ACFB58460FF0C5FB6DA239464046AD
:102C100000F06EFC94F820004FF4FD77012801D0FD
:102C200028B10FE088200FF099FB504603E0882080
:102C30000FF094FB58460FF0ADFB62A239466420BA
:102C400000F056FC94F82100012801D028B10FE0D3
:102C500088200FF083FB504603E088200FF07EFBB6
:102C600058460FF097FB58A239468C2000F040FCE4
:102C700094F82200012801D028B10FE088200FF03D
:102C80006DFB504603E088200FF068FB58460FF0BC
:102C900081FB4EA23946B42000F02AFC94F82300B0
:102CA000012801D028B10FE088200FF057FB5046D3
:102CB00003E088200FF052FB58460FF06BFB44A254
:102CC0003946DC2000F014FC94F82400012801D0DF
:102CD00028B10FE088200FF041FB504603E0882028
:102CE0000FF03CFB58460FF055FB3AA239462846F8
:102CF00000F0FEFB94F82500012801D028B10FE078
:102D000088200FF02BFB504603E088200FF026FBB5
:102D100058460FF03FFB30A23946304600F0E8FB42
:102D200094F82600012801D028B10FE088200FF088
:102D300015FB504603E088200FF010FB58460FF0BB
:102D400029FB26A23946484600F0D2FB94F827001A
:102D5000012801D028B10FE088200FF0FFFA50467B
:102D600003E088200FF0FAFA58460FF013FB1CA27C
:102D70003946404600F0BCFB1A490120C870FEF7F6
:102D8000A1FA94F8300030B117A004F00BF8BDE8B8
:102D9000F05F13F065BE17A0F7E700003032330094
:102DA00030323400303235003032360030323700C5
:102DB00030323800303239003033300030333100B7
:102DC00030333200303333003033340030333500A9
:102DD0003033360030333700303338003033390089
:102DE00030343000A00100204368616E6E656C20B5
:102DF00073657400CDA8B5C0C9E8D6C30000000053
:102E000070B504461A481D4D00EB840010ED010A10
:102E1000184800EB840050ED010A174800EB8400CD
:102E200030EE600A50ED010AB4EEE00AF1EE10FA5D
:102E300009D3134800EB840050ED010AB4EEE00A18
:102E4000F1EE10FA05DD0D48503890F82C000128FD
:102E500007D088216FF07F400FF086FA00202855B8
:102E600070BD88214FF47F000FF07EFA0120F6E755
:102E7000A02F0020542E01204C32002030090020C9
:102E8000AC31002010B50B460C0601F07F0202EBBE
:102E9000820100EBC10102D501F58E7101E001F55F
:102EA0005D710A70DA094A701EF0C3FF002010BD80
:102EB0000A4610B5090602F07F0306D503EB83012D
:102EC00000EBC10101F58E7105E002EB820100EB20
:102ED000C10101F55D7100248C700B70D2094A703C
:102EE0001EF08EFF002010BD10B50A0604D501F0BB
:102EF0007F011FF0C1F801E01FF0A0F8002010BD15
:102F000070B50D460E0601F07F0404EB840100EB62
:102F1000C10102D501F58E7101E001F55D71ED0988
:102F20000C704D708A60CB7000D0CC80022B01D128
:102F300000220A711EF030FF002070BD10B501F0B4
:102F40007F0404EB840100EBC101C1F88833C1F8B0
:102F500080230023C1F88C3381F8753381F87443E2
:102F6000C37801F55D71012B00D10A6114F0FF0FE8
:102F700003D01EF09DFF002010BD1EF09EFEFAE75C
:102F80000069002261F30A12016811430160704771
:102F90000A4610B5090602F07F0306D503EB83014C
:102FA00000EBC10101F58E7105E002EB820100EB3F
:102FB000C10101F55D7101248C700B70D2094A705A
:102FC0001EF05EFF002010BD70B511F07F0404EB11
:102FD000840100EBC1014FF0010581F81D5181F81A
:102FE0001C41C1F82821C1F82C2101F58E714FF048
:102FF0000002C1E9053203D01EF05AFF002070BD67
:103000001EF05BFEFAE700002DE9F04106460024C1
:103010001FF07BF8074655E0F80751D03069E1B260
:103020000369426BCA4006EB810102F00102896923
:1030300043EAC2128D681540E9071AD00125426B98
:1030400005FA04F18A43426306EB840080698560D7
:103050001F48E1B20068426830469047F078012886
:1030600007D134B996F81101042802D130461EF078
:1030700081FE280704D506EB840008258069856059
:10308000E80604D506EB8400102580698560680693
:1030900004D506EB8400402580698560A80704D527
:1030A00006EB8400022580698560280608D5214644
:1030B000304600F06CF906EB840180208969886055
:1030C0007F08641C002FA7D10120BDE8F08100001B
:1030D000540200202DE9F041054600241FF01BF8A2
:1030E0000746DFF8988043E0F8073FD0E1B2284672
:1030F0001FF017F80646C00725D005EB840001260F
:10310000416D8E60E97801290CD1406D016904EBB5
:10311000840005EBC000C1F31201D0F87C23511AE2
:10312000C0F88C13D8F80000E1B202682846904736
:10313000E878012807D134B995F81101052802D1A2
:1031400028461EF017FEB00704D505EB84000226C2
:10315000406D8660300709D5D8F8000081682846A0
:10316000884705EB84010820496D88607F08641C4E
:10317000002FB9D10120BDE8F081000054020020E9
:1031800070B50546C068816921F010018161E86869
:10319000066A06F00F0000EB800005EBC004C6F3E2
:1031A000434004F55D74072821D2DFE800F02020B9
:1031B00004202020150047F6F070064217D0C6F311
:1031C0000A1632462846E1681EF0B3FFE068304434
:1031D000E060A069304409E0082205F2CC5128469D
:1031E0001EF0A7FFA069C6F30A110844A061E868B1
:1031F000816941F010018161012070BD38B504463C
:1032000000208DF8000094F812018DF80000154898
:10321000006841692046884720698068E2684FF469
:1032200000615161A17AD1B1C00718D094F815019D
:10323000012814D19DF80000032810D1D4F80C0106
:10324000016841F001010160D4F80C01016841F00E
:10325000030101600448016841F00601016001209A
:1032600038BD00005402002010ED00E070B50446A7
:10327000006900250126416821F0010141602946CD
:1032800020461EF0F9FE0020FF2206E004EB80013C
:103290008B699A60496D8A60401C61788142F5D8DB
:1032A00021694FF0FF3088612846216966F30F00DD
:1032B00066F31F40C861216945F00B004861216930
:1032C000C1F88400216945F00B0008612169486458
:1032D0002069016821F4FE61016020461EF04AFD6C
:1032E000E1684FF480504861034800680169204656
:1032F0008847012070BD00005402002070B50446CC
:103300001EF028FF0120002384F8120184F81431F4
:103310001A46402510E002EB820104EBC10181F85E
:103320001D0181F81C21A1F8222181F81F31C1E97A
:103330004953521CC1F8303161789142EBD80020DA
:1033400010E000EB800104EBC10181F8753381F8D6
:103350007403A1F87A0381F87733C1E9DF53401C85
:10336000C1F8883361788142EBD820461EF080FC9A
:1033700020461EF05DFB002120461EF04BFF20463C
:103380001EF096FB2046BDE870401EF04FBE2DE9B2
:10339000F0470E4601EB860100EBC1048046D4E9FC
:1033A0004C01401AD4F8241104F58E74814200D2E5
:1033B0000846C01C870808EB86091EE0451AA0686D
:1033C000A84200D20546E81C8708ABB2F2B24046DC
:1033D000E1681EF034FFE0682844E060A0692844FA
:1033E000A0616169884208D3207801218140D8F822
:1033F0001000426B8A4342630BE0D9F818008069E1
:1034000080B2B84205D9D4E90501814201D2002831
:10341000D4D10120BDE8F0872DE9F04115460C46D6
:103420008046154E4FF4207719E0802A0BD21348BE
:10343000B061214640460EF04FFBB0696D1C80889C
:10344000204484B20BE00E48B0612A462146404633
:1034500000F0DEF8B069AD1C8088204484B2BC4224
:1034600008D22A78002A05D0B0698088011989B26B
:103470008142DAD2BDE8F081A8000020EC000020F3
:103480002C0100202DE9F04115460C468046154ED2
:103490004FF4207719E0802A0BD21348B0612146FF
:1034A00040460EF019FBB0696D1C8088204484B240
:1034B0000BE00E48B0612A46214640460EF022FB42
:1034C000B069AD1C8088204484B2BC4208D22A78FE
:1034D000002A05D0B0698088011989B28142DAD208
:1034E000BDE8F081A8000020E40000201C010020BD
:1034F0002DE9F04115460C468046154E4FF42077D5
:1035000019E0802A0BD21348B061214640460EF0E4
:10351000E3FAB0696D1C8088204484B20BE00E4849
:10352000B0612A462146404600F018F8B069AD1C4B
:103530008088204484B2BC4208D22A78002A05D070
:10354000B0698088011989B28142DAD2BDE8F08180
:10355000A8000020D4000020340100202DE9F04113
:1035600016460F46804600240D4D0FE032788A4201
:103570000AD105EB400271785078814204D1394676
:103580004046921C0EF08AFB641CA4B2C4EBC4003B
:1035900000EB400015F810108029E7D8BDE8F08155
:1035A000900503082DE9F04115460C468046154E5E
:1035B0004FF4207719E0802A0BD21348B0612146DE
:1035C00040460EF089FAB0696D1C8088204484B2B0
:1035D0000BE00E48B0612A462146404600F018F83C
:1035E000B069AD1C8088204484B2BC4208D22A78DD
:1035F000002A05D0B0698088011989B28142DAD2E7
:10360000BDE8F081A8000020040100202401002072
:103610002DE9F04116460F46804600240C4D0EE081
:1036200032788A4209D1421971785078814204D1A6
:1036300039464046921C0EF031FB641CA4B204EBE8
:103640008400C0EB8410295C8029E9D8BDE8F081B2
:1036500084EE02082DE9F04115460C468046154ED1
:103660004FF4207719E0802A0BD21348B06121462D
:1036700040460EF031FAB0696D1C8088204484B257
:103680000BE00E48B0612A4621464046FFF7C0FFD6
:10369000B069AD1C8088204484B2BC4208D22A782C
:1036A000002A05D0B0698088011989B28142DAD236
:1036B000BDE8F081A80000200C01002024010020BA
:1036C0002DE9F041204E15460C4680466BB3012B88
:1036D00038D1882108460EF047FE28239022414623
:1036E00020460EF065FBBDE8F04188216FF07F4079
:1036F0000EF03ABE802A0BD21448B06121464046F3
:103700000EF0EAF9B0696D1C8088204484B20EE0A6
:103710000F48B0612A46214640460EF0F3F9B069E1
:10372000AD1C8088204484B201E04FF42077BC4275
:1037300008D22A78002A05D0B0698088011989B298
:103740008142D7D2BDE8F081A8000020F40000201B
:103750001C0100202DE9F041204E15460C46804604
:103760006BB3012B38D1882108460EF0FDFD1C23D8
:103770006022414620460EF01BFBBDE8F041882147
:103780006FF07F400EF0F0BD802A0BD21448B0617C
:10379000214640460EF0A0F9B0696D1C8088204497
:1037A00084B20EE00F48B0612A46214640460EF032
:1037B000A9F9B069AD1C8088204484B201E04FF4BF
:1037C0002077BC4208D22A78002A05D0B0698088C8
:1037D000011989B28142D7D2BDE8F081A80000204A
:1037E000FC0000201C0100202DE9F041204E154670
:1037F0000C4680466BB3012B38D1882108460EF069
:10380000B3FD14233222414620460EF0D1FABDE822
:10381000F04188216FF07F400EF0A6BD802A0BD2C8
:103820001448B061214640460EF056F9B0696D1C4F
:103830008088204484B20EE00F48B0612A462146B9
:1038400040460EF05FF9B069AD1C8088204484B218
:1038500001E04FF42077BC4208D22A78002A05D034
:10386000B0698088011989B28142D7D2BDE8F08160
:10387000A8000020DC0000201C01002010B5012160
:10388000CC05204610F00AFA2046BDE81040002181
:1038900010F004BA034A0146002052680A4200D0E0
:1038A0000120704700B0024030B52A4B002419684F
:1038B000294A114019601968026811431960596B4F
:1038C00021F007015963596B4268114359634168FC
:1038D00041B301292DD0022930D00329C16832D04B
:1038E0000A010169446909022403856821431543DB
:1038F0000D43996B0D439D638169D963196C6FF317
:103900000D011964196CC26911431964818C5A6CD8
:1039100002F040425A645A6C006A024342EA014291
:103920005A6430BDC168047D0A02018A0904240674
:10393000DBE7C1680A02018A0904D6E7C1684A01C7
:103940000169C902D1E74A01016944698902E403B6
:10395000CBE7000000B00240FCE0FCFF0248016839
:1039600041F001010160704700B0024012F078BDE3
:10397000074A904201D2074801E005481038064A3C
:103980008B0001EA020101D5C16070478160704778
:1039900010640240006002407D0F7D0F0029016825
:1039A00002D041F0010101E021F001010160704706
:1039B00030B50368124ACC6813400A682243D1E943
:1039C00005452C432243CC6922430C6A22434C6AAE
:1039D00022438C6A22434C6B22438C6B22431A4352
:1039E0000260426922F00703D1E90B2422431A4303
:1039F00042610A6942604A6882608968C16030BD7C
:103A00003F801CF00548807A052803D0062801D0A5
:103A1000082802D102A020F0B9BA70474001002066
:103A20002E0000002DE9F04FF84CF94D2146A07A08
:103A300091F80BC09FB00D282ED2DFE810F03000B7
:103A40003F132D002D00DA0BD10D7C142D00A31196
:103A50002D002D002D000D0095F83300082802D010
:103A6000102802D004E0102000E0082085F8330080
:103A700012F0F6FF6FF07F400EF08CFC88200EF005
:103A80006DFC95F83320E3A168461FF09FFA6A4663
:103A9000AA2132200EF05AF81FB0BDE8F08FDB48A3
:103AA0004FF4CD764FF48177017BD9484FF4BF793D
:103AB0004FF4FD7A90F82D2090F827301E93C37FA5
:103AC0001D93C37D1C93C37B1B9390F826301A93E0
:103AD000837F1993837D1893837B179390F8253008
:103AE0001693437F1593437D1493437B139390F870
:103AF00024301293037F1193037D1093037B0F9364
:103B000090F823300E93C37E0D93C37C0C93C37A3D
:103B10000B9390F822300A93837E0993837C089359
:103B2000837A079390F821300693437E0593437C74
:103B30000493437A039390F820E090F818B0037C44
:103B4000007ABCF1290FA7D2DFE81CF02900C500DC
:103B500048012D02B20247031804A9043F0551068B
:103B60008F06CE060B074A078C07CE0714085608A7
:103B70008008AE08D8080409320960098E09BA091C
:103B8000D209EA09020A1B0A350A4F0A690A820A9F
:103B90009B0AB40ACD0AE70A020B1D0B380B9F489B
:103BA0000EF0F8FB88200EF0D9FB95F829000228CA
:103BB00012D0012812D0032812D0042812D00528D0
:103BC00012D0062812D0072812D0082812D00928AF
:103BD00012D00B2812D016E091A210E092A20EE0B3
:103BE00093A20CE094A20AE095A208E096A206E057
:103BF00097A204E098A202E099A200E09AA26421B0
:103C00002F200DF0A3FF95F82D0020B1012835D00D
:103C100002284FD04AE0207B40B101280BD0022877
:103C20000ED0032811D0042814D01CE0287820F0EE
:103C300041F98EA213E0287A20F03CF98CA20EE024
:103C4000287C20F037F98BA209E0287E20F032F999
:103C500089A204E095F8200020F02CF987A20A211F
:103C600064200DF0A9FF95F8300028B184A003F07E
:103C700099F8012001F0BBBA84A0F8E7207B10B1CD
:103C8000012805D020E0287820F014F977A203E07D
:103C9000287E20F00FF978A20A216420FFF7F2FBBA
:103CA00012E07AA000E076A003F07CF8012005F095
:103CB0004DF8F1E6207B38B9287820F0FBF86BA2AC
:103CC0000A216420FFF714FC0120E07295F830000F
:103CD0000028E8D1E5E74E4F02263F7832B1012AAD
:103CE0004FD0022AE2D100296AD080E241B10129F5
:103CF0000BD002290DD0032910D0042913D0F4E7EA
:103D0000384620F09FF859A211E020F09BF858A205
:103D10000DE0184620F096F856A208E0584620F02C
:103D200091F855A203E0704620F08CF853A20A21C6
:103D300064200DF041FF207B40B101280BD0022808
:103D40000ED0032811D0042814D0CEE7687820F0D4
:103D5000B1F851A213E0687A20F0ACF84FA20EE05F
:103D6000687C20F0A7F84EA209E0687E20F0A2F857
:103D70004CA204E095F8210020F09CF84AA20A2108
:103D80008DE211B101290DD0AFE7384620F05AF885
:103D900036A20A216420FFF775FB687820F08AF8C4
:103DA0003DA20BE0584620F04DF833A20A216420D2
:103DB000FFF768FB687E20F07DF83AA20A21EFE366
:103DC000384620F03FF829A20A216420FFF790FB33
:103DD000687820F06FF830A20A21F5E30C4803263A
:103DE000407832B1012A10D0022A7FF413AF51B1CA
:103DF0007BE749B101295ED0022962D0032966D050
:103E000004296AD071E7BDE050E098E0400100204D
:103E1000E0080020253033640000000000FFFF00B0
:103E200054432D4B0000000054432D54000000006B
:103E300054432D4A0000000054432D4E0000000062
:103E400054432D450000000054432D530000000052
:103E500054432D520000000054432D420000000046
:103E60005054313030000000315600003030310005
:103E700030303900303137003032350030333300E4
:103E80004368616E6E656C2073657400CDA8B5C023
:103E9000C9E8D6C3000000003030320030313000B5
:103EA0003031380030323600303334001FF0CAFF72
:103EB000AFF21C0216E003981FF0C4FFAFF2240219
:103EC00010E004981FF0BEFFAFF22C020AE0059844
:103ED0001FF0B8FFAFF2340204E006981FF0B2FF03
:103EE000AFF23C020A21B4200DF066FE207B40B107
:103EF00001280BD002280ED0032811D0042814D09A
:103F0000F3E6A8781FF0D6FFFDA213E0A87A1FF011
:103F1000D1FFFCA20EE0A87C1FF0CCFFFAA209E0C2
:103F2000A87E1FF0C7FFF9A204E095F822001FF059
:103F3000C1FFF7A20A217EE20DF03EFED5E611B1E7
:103F400001290DD0D1E61FF07DFFAFF2B4020A21A6
:103F50008C20FFF797FAA8781FF0ACFFE8A20CE0DE
:103F600005981FF06FFFAFF2C4020A218C20FFF703
:103F700089FAA87E1FF09EFFE4A20A21EDE3FFF775
:103F800081FAB2E61FF05EFFAFF2F4020A218C2044
:103F9000FFF7AEFAA8781FF08DFFD9A20A21F5E34A
:103FA000FFF7A6FAA1E6DB480426807832B1012AA1
:103FB00053D0022A7FF42EAE89B396E641B101298F
:103FC0000AD002290DD0032910D0042913D08CE681
:103FD0001FF038FFCAA212E007981FF033FFC9A2F2
:103FE0000DE008981FF02EFFC7A208E009981FF007
:103FF00029FFC6A203E00A981FF024FFC4A20A21E9
:104000004FF482700DF0D8FD207B48B101280CD010
:1040100002280FD0032812D0042815D065E63AE014
:10402000E8781FF047FFBCA213E0E87A1FF042FFD8
:10403000BAA20EE0E87C1FF03DFFB9A209E0E87EDD
:104040001FF038FFB7A204E095F823001FF032FFFD
:10405000B5A20A214FF4AA706EE711B101290CD064
:1040600043E61FF0EFFEA6A20A21B420FFF70AFAEA
:10407000E8781FF01FFFA8A20BE009981FF0E2FEEE
:10408000A2A20A21B420FFF7FDF9E87E1FF012FF7B
:10409000A4A20A21F0E31FF0D5FE99A20A21B420C0
:1040A000FFF726FAE8781FF005FF9BA20A21F7E345
:1040B0009848C07832B1012A59D0022A7FF4F9AD6C
:1040C000F1B375E041B101290AD002290DD00329CD
:1040D00010D0042913D01BE01FF0B4FE8EA212E012
:1040E0000B981FF0AFFE8DA20DE00C981FF0AAFEFA
:1040F0008BA208E00D981FF0A5FE8AA203E00E989F
:104100001FF0A0FE88A20A214FF4AA700DF054FD02
:1041100000200EF03FF985480EF020F995F82900AF
:1041200002286FD001286ED003286DD004286CD0EF
:1041300005286BD006286AD0072869D0082800E037
:104140003AE06FD009286ED00B286DD003E06421CF
:104150002F200DF0FBFC95F8300008B174A000E0B2
:1041600078A002F01FFE06F061F90020A5E211B16F
:1041700001290CD01CE01FF065FE67A20A21DC209B
:10418000FFF780F928791FF095FE72A20BE00D98D9
:104190001FF058FE63A20A21DC20FFF773F9287F85
:1041A0001FF088FE6CA20A214FF48270FFF76AF9B3
:1041B000012004F0CBFD68E21FF044FE56A20A2164
:1041C000DC20FFF795F928791FF074FE61A20A211F
:1041D0004FF48270FFF78CF9EAE74E480626007923
:1041E00032B1012A5DD0022A7FF414ADD9B305E3C0
:1041F00079B1012911D0022917D003291AD0042935
:104200001DD0FBE266E268E26AE26CE26EE270E216
:1042100072E21FF017FE4FA215E00F981FF012FE7A
:104220004EA210E06BE26DE26FE210981FF00AFE02
:104230004BA208E011981FF005FE47A203E0129878
:104240001FF000FE47A24FF4A57164200DF0B4FCEE
:10425000207B48B101280CD002280FD0032812D0AF
:10426000042815D0CAE23CE068791FF023FE3EA284
:1042700013E0687B1FF01EFE3CA20EE0687D1FF07D
:1042800019FE3BA209E0687F1FF014FE39A204E08A
:1042900095F825001FF00EFE37A24FF4A571B4204B
:1042A0004AE611B101290DD0A8E21FF0CBFD29A2E9
:1042B0000A214FF48270FFF7E5F868791FF0FAFDE4
:1042C00029A20CE011981FF0BDFD23A20A214FF492
:1042D0008270FFF7D7F8687F1FF0ECFD25A20A2156
:1042E000AAE31FF0AFFD1BA20A214FF48270FFF773
:1042F000FFF868791FF0DEFD1BA20A21AFE3000082
:104300003030330030313100303139003032370055
:1043100030333500E00800203030340030313200D6
:1043200030323000303238003033360000FFFF00CA
:10433000546865726D6F636F75706C65206D6F6426
:10434000656C0000C8C8B5E7C5BCD0CDBAC5D1A161
:10435000D4F10000303035003032390030313300D4
:1043600030323100303337003030360030313400F5
:10437000303232003033300030333800F74807260F
:10438000407932B1012A59D0022A7FF443ACB1B34B
:10439000FAE341B101290BD002290FD0032913D030
:1043A000042917D0F0E31FF04DFDAFF2440216E0F0
:1043B00013981FF047FDAFF24C0210E014981FF065
:1043C00041FDAFF254020AE015981FF03BFDAFF239
:1043D0005C0204E016981FF035FDAFF264024FF462
:1043E000A571B4200DF0E8FB207B48B101280CD06A
:1043F00002280FD0032812D0042815D0C4E33FE0D0
:10440000A8791FF057FDD6A213E0A87B1FF052FD3C
:10441000D4A20EE0A87D1FF04DFDD3A209E0A87F35
:104420001FF048FDD1A204E095F826001FF042FDE0
:10443000CFA24FF4A5714FF482707DE511B101292F
:104440000ED0A1E31FF0FEFCAFF2E4020A214FF40C
:104450009670FFF717F8A8791FF02CFDC0A20DE0A9
:1044600015981FF0EFFCAFF2F4020A214FF496709A
:10447000FFF708F8A87F1FF01DFDBCA20A211DE36D
:104480001FF0E0FCAFF220120A214FF49670FFF704
:104490002FF8A8791FF00EFDB1A20A2121E3AF4841
:1044A000807932B1012A57D0022A7FF4FFAB91B351
:1044B00088E041B101290AD002290DD0032910D08A
:1044C000042913D07EE01FF0BDFCA5A212E01798CE
:1044D0001FF0B8FCA3A20DE018981FF0B3FCA2A235
:1044E00008E019981FF0AEFCA0A203E01A981FF094
:1044F000A9FC9FA24FF4A5714FF482700DF05CFBF4
:10450000207B48B101280CD002280FD0032812D0FC
:10451000042815D056E044E0E8791FF0CBFC95A2C2
:1045200013E0E87B1FF0C6FC93A20EE0E87D1FF0CD
:10453000C1FC92A209E0E87F1FF0BCFC90A204E05D
:1045400095F827001FF0B6FC8EA24FF4A5714FF42A
:10455000AA700DF031FB35E011B101290DD031E029
:104560001FF070FC7EA20A214FF4AA70FEF78AFFAA
:10457000E8791FF09FFC7FA20CE019981FF062FC05
:104580007AA20A214FF4AA70FEF77CFFE87F1FF0A1
:1045900091FC7BA20A214FF4BE70FEF773FF11E07D
:1045A0004FE11FF04FFC6EA20A214FF4AA70FEF7F4
:1045B0009FFFE8791FF07EFC6EA20A214FF4BE70C7
:1045C000FEF796FF0820D4E24CE16448C07932B18E
:1045D000012A5CD0022A7FF45FAA91B301E141B1C4
:1045E00001290AD002290DD0032910D0042913D0A3
:1045F0004BE01FF027FC5FA212E01B981FF022FC8B
:104600005DA20DE01C981FF01DFC5CA208E01D9847
:104610001FF018FC5AA203E01E981FF013FC59A2C9
:104620004FF4A5714FF4AA700DF0C6FA207B48B183
:1046300001280DD0022811D0032815D0042819D044
:1046400023E065E028791FF035FCAFF2F82217E08F
:10465000287B1FF02FFCAFF2FC2211E0287D1FF019
:1046600029FCAFF204320BE0287F1FF023FCAFF2ED
:10467000183205E095F824001FF01CFCAFF21C3244
:104680004FF4A57164200DF097FA052015E0C1B133
:104690000129A0D11D981FF0D5FB39A20A214FF4A2
:1046A000BE70FEF7EFFE287E1FF004FCAFF6380266
:1046B0000A216420FEF7E6FE0120E0721FB0BDE88B
:1046C000F08F1FF0BFFB2BA20A214FF4BE70FEF744
:1046D000D9FE1DE5AFF6B80239E5AFF6B40236E50E
:1046E000AFF6B40233E5AFF6B00230E5AFF6B00294
:1046F0002DE5AFF6AC022AE5AFF6AC0227E5AFF642
:10470000A80224E5AFF6A80221E5AFF6A4021EE553
:104710001FF098FB17A20A214FF4BE70FEF7E8FEC7
:1047200000200DF037FE18480DF018FE95F829000E
:1047300002282CD001282DD003282ED004282FD0D9
:10474000052830D0062831D0072832D0082833D0A9
:10475000092834D00B2835D03AE0B2E0E008002038
:1047600030303700303135003032330030333100F3
:1047700030333900303038003031360030323400D8
:10478000303332003034300000FFFF00AAE0AFF6D3
:10479000701219E0AFF6701216E0AFF66C1213E06B
:1047A000AFF66C1210E0AFF668120DE0AFF66812CB
:1047B0000AE0AFF6641207E0AFF6641204E0AFF669
:1047C000601201E0AFF6601264212F200DF0BEF9F7
:1047D00095F8300040B1AFF2A84002F0E3FA0020B3
:1047E000E07205F023FE69E7AFF2A840F5E70A267C
:1047F000012A04D0022A7FF459AA29B3C4E111B1D5
:1048000001290ED0C0E11FF01DFBAFF69C12D22192
:104810006420FEF737FE687A1FF04CFBAFF6841277
:104820000EE070461FF00EFBAFF6B012D2216420EE
:10483000FEF728FE95F821001FF03CFBAFF698121A
:10484000D2218C20FFF79BBB1FF0FCFAAFF6E012E1
:1048500086216420FEF74CFE687A1FF02BFBAFF632
:10486000C41286218C20FFF79BBB0B26012A04D0A3
:10487000022AC0D139B387E160E011B1012910D01B
:1048800082E103981FF0DEFAAFF6F012D2218C20FD
:10489000FEF7F8FDA87A1FF00DFBAFF298520FE07B
:1048A0005DE006981FF0CEFAAFF60422D2218C20EC
:1048B000FEF7E8FD95F822001FF0FCFAAFF2B052C7
:1048C000D221B420BEE703981FF0BCFAAFF6342221
:1048D00086218C20FEF70CFEA87A1FF0EBFAAFF2CF
:1048E000DC528621B420BEE70C26012A03D0022A1E
:1048F000BFD129B348E111B101290FD044E1079894
:104900001FF0A0FAAFF20462D221B420FEF7BAFD84
:10491000E87A1FF0CFFAAFF2FC520EE00A981FF0CF
:1049200091FAAFF21462D221B420FEF7ABFD95F8F4
:1049300022001FF0BFFAAFF21062D221DC2081E723
:1049400007981FF07FFAAFF244628621B420FEF789
:10495000CFFDE87A1FF0AEFAAFF240628621DC208C
:1049600081E70D26012A03D0022AC1D131B30BE120
:1049700011B101290FD007E10B981FF063FAAFF2D4
:104980006462D221DC20FEF77DFD287B1FF092FAC5
:10499000AFF238620EE00E981FF054FAAFF2786270
:1049A000D221DC20FEF76EFD95F824001FF082FA7C
:1049B000AFF25062D2214FF4827043E70B981FF0A0
:1049C00041FAAFF2A8628621DC20FEF791FD287B38
:1049D0001FF070FAAFF27C6286214FF4827042E7DA
:1049E0000E26012A03D0022ABFD141B3CCE011B177
:1049F000012910D0C8E00F981FF024FAAFF2A4628A
:104A0000D2214FF48270FEF73DFD687B1FF052FA11
:104A1000AFF2A8620FE012981FF014FAAFF2BC6276
:104A2000D2214FF48270FEF72DFD95F825001FF07E
:104A300041FAAFF2BC62D2214FF4967002E70F98B0
:104A40001FF000FAAFF2EC6286214FF48270FEF79D
:104A50004FFD687B1FF02EFAAFF2F06286214FF413
:104A6000967000E70F26012A03D0022ABCD141B379
:104A70008AE011B1012910D086E013981FF0E2F905
:104A8000AFF21872D2214FF49670FEF7FBFCA87BB0
:104A90001FF010FAAFF234320FE016981FF0D2F97F
:104AA000AFF22C72D2214FF49670FEF7EBFC95F822
:104AB00026001FF0FFF9AFF24832D2214FF4AA705E
:104AC000C0E613981FF0BEF9AFF2607286214FF472
:104AD0009670FEF70DFDA87B1FF0ECF9AFF27C326B
:104AE00086214FF4AA70BEE6012A03D0022ABDD166
:104AF00051B33DE011B1012910D039E017981FF0F2
:104B0000A1F9AFF2A032D2214FF4AA70FEF7BAFC9D
:104B1000A87B1FF0CFF9AFF2A0320FE01A981FF078
:104B200091F9AFF2B432D2214FF4AA70FEF7AAFC89
:104B300095F827001FF0BEF9AFF2B832D2214FF43A
:104B4000BE70FEF79FFC13E017981FF07BF9AFF2E1
:104B5000EC3286214FF4AA70FEF7CAFCE87B1FF006
:104B6000A9F9AFF2EC3286214FF4BE70FEF7C0FC1B
:104B700010203CE30926012A03D0022AB7D149B309
:104B800002E021B1012912D0E672FFF78FB81B981D
:104B90001FF058F9AFF22042D2214FF4BE70FEF759
:104BA00071FC287A1FF086F9AFF63C520FE01E9890
:104BB0001FF048F9AFF23442D2214FF4BE70FEF735
:104BC00061FC95F820001FF075F9AFF65052D22124
:104BD000642037E61B981FF035F9AFF26442862156
:104BE0004FF4BE70FEF784FC287A1FF063F9AFF62D
:104BF00080528621642036E64FF01208012A03D045
:104C0000022AC2D189B136E118461FF01BF9AFF66E
:104C10009C5231466420FEF735FC687C1FF04AF94F
:104C2000AFF6845231468C2028E018461FF00AF96E
:104C3000AFF6C05239466420FEF75AFC687C1FF07C
:104C400039F9AFF6A45239468C202AE04FF0130808
:104C5000012A03D0022A98D199B10CE104981FF0DF
:104C6000F1F8AFF6C45231468C20FEF70BFCA87C5D
:104C70001FF020F9AFF670123146B420FEF702FCA7
:104C8000F9E004981FF0DEF8AFF6EC5239468C20BC
:104C9000FEF72EFCA87C1FF00DF9AFF694123946F2
:104CA000B420FEF725FCE6E04FF01408012A03D0FB
:104CB000022AA6D189B1DEE008981FF0C3F8AFF64A
:104CC000B8123146B420FEF7DDFBE87C1FF0F2F8A5
:104CD000AFF6B4123146DC20D0E708981FF0B2F8E6
:104CE000AFF6DC123946B420FEF702FCE87C1FF078
:104CF000E1F8AFF6D4123946DC20D2E74FF01508C0
:104D0000012A03D0022AA6D191B1B4E00C981FF079
:104D100099F8AFF6F4123146DC20FEF7B3FB287D9C
:104D20001FF0C8F8AFF6C81231464FF48270A5E7FD
:104D30000C981FF087F8AFF618223946DC20FEF7F2
:104D4000D7FB287D1FF0B6F8AFF6EC1239464FF4CA
:104D50008270A6E74FF01608012A03D0022AA8D1D4
:104D600099B188E010981FF06DF8AFF60C2231462B
:104D70004FF48270FEF786FB687D1FF09BF8AFF65C
:104D8000102231464FF4967078E710981FF05AF8C9
:104D9000AFF6342239464FF48270FEF7A9FB687DE6
:104DA0001FF088F8AFF6382239464FF4967078E74E
:104DB0004FF01708012A03D0022AA4D199B15AE072
:104DC00014981FF03FF8AFF6582231464FF4967012
:104DD000FEF758FBA87D1FF06DF8AFF27462314604
:104DE0004FF4AA704AE714981FF02CF8AFF680220F
:104DF00039464FF49670FEF77BFBA87D1FF05AF8FA
:104E0000AFF29C6239464FF4AA704AE74FF0180897
:104E1000012A03D0022AA2D199B12CE018981FF0E0
:104E200011F8AFF2BC6231464FF4AA70FEF72AFBCC
:104E3000E87D1FF03FF8AFF2BC6231464FF4BE7020
:104E40001CE718981EF0FEFFAFF2E46239464FF4FB
:104E5000AA70FEF74DFBE87D1FF02CF8AFF2E4627C
:104E600039464FF4BE701CE74FF01108012A05D0F7
:104E7000022AA2D199B184F80B8086E61C981EF014
:104E8000E1FFAFF2087231464FF4BE70FEF7FAFA56
:104E9000287C1FF00FF8F74A31466420EEE61C9894
:104EA0001EF0D0FFAFF22C7239464FF4BE70FEF701
:104EB0001FFB287C1EF0FEFFEE4A39466420F0E618
:104EC000022ADAD191B958461EF0BCFFE94A4E4693
:104ED000121D49466420FEF70BFB687E1EF0EAFFB8
:104EE000E44A314630328C20FEF702FB1A207EE184
:104EF000022AC2D191B905981EF0A4FFDD4A4E46A0
:104F0000303249468C20FEF7F3FAA87E1EF0D2FF1D
:104F1000AFF608423146B420FEF7EAFA1B2066E1FC
:104F2000022AAAD191B909981EF08CFFAFF624424B
:104F30004E464946B420FEF7DBFAE87E1EF0BAFF83
:104F4000AFF620423146DC20FEF7D2FA1C204EE1BB
:104F5000022A92D199B90D981EF074FFAFF63C4227
:104F60004E464946DC20FEF7C3FA287F1EF0A2FF1A
:104F7000AFF61C4231464FF48270FEF7B9FA1D209D
:104F800035E1022A9DD1A1B911981EF05BFFAFF661
:104F900038424E4649464FF48270FEF7A9FA687FC0
:104FA0001EF088FFAFF6344231464FF49670FEF79C
:104FB0009FFA1E201BE1022A9BD1A1B915981EF071
:104FC00041FFAFF650424E4649464FF49670FEF709
:104FD0008FFAA87F1EF06EFFAFF6700231464FF4D5
:104FE000AA70FEF785FA1F2001E1022A99D1A1B922
:104FF00019981EF027FFAFF68C024E4649464FF433
:10500000AA70FEF775FAE87F1EF054FFAFF6900223
:1050100031464FF4BE70FEF76BFA2020E7E0022A1B
:1050200097D199B91D981EF00DFFAFF6AC024E4610
:1050300049464FF4BE70FEF75BFA287E1EF03AFF39
:105040008C4A3146121D6420FEF752FA1920CEE038
:10505000022A97D199B970461EF0F4FE854A564649
:10506000083251466420FEF743FA95F821001EF0FD
:1050700021FF804A314634328C20FEF739FA222053
:10508000B5E0022A98D199B906981EF0DBFE794A5C
:105090005646343251468C20FEF72AFA95F8220003
:1050A0001EF008FFAFF698523146B420FEF720FA02
:1050B00023209CE0022A99D199B90A981EF0C2FED9
:1050C000AFF6B45256465146B420FEF711FA95F8A1
:1050D00023001EF0EFFEAFF6B0523146DC20FEF7A3
:1050E00007FA242083E0022A9AD1A1B90E981EF073
:1050F000A9FEAFF6CC5256465146DC20FEF7F8F931
:1051000095F824001EF0D6FEAFF6A85231464FF4B3
:105110008270FEF7EDF9252069E0022A99D1A9B93C
:1051200012981EF08FFEAFF6C452564651464FF409
:105130008270FEF7DDF995F825001EF0BBFEAFF694
:10514000C85231464FF49670FEF7D2F926204EE051
:10515000022A97D1A9B916981EF074FEAFF6E8524C
:10516000564651464FF49670FEF7C2F995F8260060
:105170001EF0A0FEAFF6082231464FF4AA70FEF7EB
:10518000B7F9272033E0022A95D1A9B91A981EF061
:1051900059FEAFF62422564651464FF4AA70FEF748
:1051A000A7F995F827001EF085FEAFF628223146B4
:1051B0004FF4BE70FEF79CF9282018E0022A93D124
:1051C000A1B91E981EF03EFEAFF648225646514643
:1051D0004FF4BE70FEF78CF995F820001EF06AFEC1
:1051E000244A314608326420FEF782F92120E07219
:1051F000CBE44FF4FA76BCF1320F71D016DCBCF17F
:105200002C0F48D0BCF12D0F6BD0BCF12E0F69D004
:10521000BCF1310F7FF452AA1EF036FE95F82E0035
:10522000C0B301286FD002286ED078E1BCF15F0FC7
:105230006BD0BCF1610F69D0BCF1620FEAD11EF0F6
:1052400023FE95F83B3095F83A200BA1684630359F
:105250001DF0BCFE6A469621F8200CF077FC6879B8
:1052600024F048FD2878D0B306A001F09BFD332040
:10527000FFF723BA743E000825302E32643A2530F9
:105280002E3264005265636F726420696E746572B9
:1052900076616C002DE11EF0F7FD95F82C000028DA
:1052A00095F830001FD018B3F7A2962132200CF0E9
:1052B0004DFC1EF00FFE95F82A00002895F83000EE
:1052C00018D0E0B1F0A296215A200CF03FFC95F8DE
:1052D0003000B0B1EDA001F065FD2D20C8E706E17A
:1052E00044E114E05EE008B1ECA2DEE7ECA2DCE70A
:1052F000EDA2DAE708B1E9A2E5E7E9A2E3E7EAA26D
:10530000E1E7EBA0E7E7FBE001E195E0C5E01EF097
:10531000BBFD95F82A00002895F8300026D050B340
:10532000D9A296215A200CF011FCE44801460DF058
:105330001BF81F2318227F2196200CF039FD95F8C9
:105340002B00052819D004284FF000001FD00DF0C5
:1053500021F8DBA29B217F200CF0F8FB95F83000B0
:10536000F0B1D8A001F01EFD2E2081E708B1CBA23C
:10537000D7E7CBA2D5E7CCA2D3E700200DF00AF8FF
:10538000D6A296217F20FEF7B3F8D5A2E2E70DF072
:1053900001F8D2A296217F20FEF7AAF8BEA2D9E793
:1053A000D0A0DFE7882108460CF0DEFF1F2318227B
:1053B0007F2196200CF0FCFC95F82B0005281FD0CF
:1053C0000428BE4826D00CF0E5FFBDA29B217F201B
:1053D0000CF0BCFB1EF07EFD95F83600002895F819
:1053E000300020D020B3A8A29621AA200CF0AEFB5A
:1053F00095F83000F0B1BFA001F0D4FC5F2037E792
:10540000AE480CF0C7FFB5A296217F20FEF770F8DA
:10541000B3A2DBE70CF0BEFFB0A296217F20FEF71F
:1054200067F89DA2D2E708B19CA2DDE79CA2DBE76A
:105430009DA2D9E7B2A0DFE71EF026FD95F8360061
:10544000002895F830001FD018B38FA29621AA200B
:105450000CF07CFB1EF03EFD95F8393095F83820B5
:10546000AFF2EC11684630351DF0B0FD6A4696216A
:10547000D0200CF06BFB287868B1A4A001F092FC5E
:10548000012060706120F3E608B184A2DEE784A207
:10549000DCE785A2DAE79FA0F0E71EF0F5FC95F8BF
:1054A000393095F83820AFF23021684630351DF09C
:1054B0008DFD6A469621D0200CF048FB1EF00AFDB7
:1054C000EB7AAA7AAFF2502168461DF07FFD6A465A
:1054D0009621F8200CF03AFB287830B191A001F029
:1054E00061FC012060706220C2E68FA0F7E792A005
:1054F000BBE695F8300008B193A20CE094A20AE054
:1055000095F8300008B194A205E094A203E095F864
:10551000300090B193A2314632200CF017FB1EF000
:10552000D9FC95F82F0050B101280AD002280AD0E2
:1055300003280AD004280AD00EE08CA2EBE78DA243
:1055400006E08EA204E08FA202E090A200E091A209
:10555000314657200CF0FAFA95F8300020B18FA0B0
:1055600001F020FC322083E691A0F9E71EF08CFCCC
:1055700095F82F0040B1012808D0022808D0032850
:1055800008D0042808D00CE07AA206E07BA204E050
:105590007CA202E07DA200E07EA2314657200CF002
:1055A000D5FA1EF097FC95F83700002895F83000E2
:1055B0000DD088B134A2314682200CF0C7FA95F89C
:1055C000300058B17DA001F0EDFB602050E608B13D
:1055D00032A2F0E732A2EEE733A2ECE779A0F2E7DD
:1055E0007B4D7C4E7C4895ED212AD6ED214A807B6F
:1055F00096ED194AD6ED113A96ED093AD6ED012A03
:10560000D5ED191A95ED111AD5ED090A95ED010A96
:10561000ACF1380CBCF10F0FBFF450A8DFE80CF070
:105620000AF6E8E7E6E5E408E3E2E1E0DFDE33007E
:10563000FFF744B840B101280CD0022812D003284B
:1056400018D004281ED0DFE002201FF011F995EDDC
:10565000000AD6E0B0EE600A02201FF009F995EDCD
:10566000080ACEE0B0EE410A02201FF001F995EDE4
:10567000100AC6E0B0EE610A02201FF0F9F895EDBD
:10568000180ABEE0B6E047E34F4E000042757A7A52
:105690006572204F4E2F4F46460000004F46460091
:1056A000B9D8B1D500000000B4F2BFAA00000000D4
:1056B000B7E4C3F9C6F7C9E8D6C3000000FFFF008E
:1056C0004B00000053656C6563742074656D7065F4
:1056D00072617475726520756E6974006F000000E8
:1056E00043000000CEC2B6C8B5A5CEBBD1A1D4F14F
:1056F00000000000547269672054696D65720000F3
:10570000B6A8CAB1B2C9BCAF0000000053544152A0
:1057100054000000B2C9BCAFBFAACABCCAB1BCE445
:1057200000000000454E4400B2C9BCAFBDE1CAF85C
:10573000CAB1BCE400000000BCC7C2BCBCE4B8F401
:10574000CAB1BCE400000000464153540000000010
:10575000BFECCBD9000000004D454400D6D0CBD9DA
:1057600000000000534C4F5700000000C2FDCBD991
:10577000000000003936303000000000313932308E
:105780003000000033383430300000003537363018
:1057900030000000313135323030000053656C6527
:1057A00063742042617564207261746500000000BA
:1057B000B2A8CCD8C2CAC9E8D6C3000052455045E9
:1057C00041540000D6D8B8B4B2C9BCAF0000000044
:1057D0004C320020AC3100204001002066E22FE274
:1057E000F8E1C1E18AE153E11CE1E5E0AEE077E0F8
:1057F00040E00BE0B0EE420A02201FF039F895EDD0
:10580000200A01201EF0A6FF392031E540B1012811
:105810000CD0022812D0032818D004281ED027E06C
:1058200002201EF097FF95ED020A1EE0B0EE600A1E
:1058300002201EF08FFF95ED0A0A16E0B0EE410A35
:1058400002201EF087FF95ED120A0EE0B0EE610A0D
:1058500002201EF07FFF95ED1A0A06E0B0EE420A24
:1058600002201EF077FF95ED220A03201FF000F8BA
:105870003A20FDE440B101280ED0022814D00328BC
:105880001AD0042820D029E095ED020A03201EF04A
:1058900061FF95ED030A1EE095ED0A0A03201EF054
:1058A00059FF95ED0B0A16E095ED120A03201EF044
:1058B00051FF95ED130A0EE095ED1A0A03201EF034
:1058C00049FF95ED1B0A06E095ED220A03201EF024
:1058D00041FF95ED230A04201EF0CAFF3B20C7E4D8
:1058E00040B101280ED0022814D003281AD0042871
:1058F00020D029E095ED030A04201EF02BFF95ED42
:10590000040A1EE095ED0B0A04201EF023FF95ED1E
:105910000C0A16E095ED130A04201EF01BFF95ED0E
:10592000140A0EE095ED1B0A04201EF013FF95EDFE
:105930001C0A06E095ED230A04201EF00BFF95EDEE
:10594000240A05201EF094FF3C2091E440B1012878
:105950000ED0022814D003281AD0042820D029E021
:1059600095ED040A05201EF0F5FE95ED050A1EE0F2
:1059700095ED0C0A05201EF0EDFE95ED0D0A16E0E2
:1059800095ED140A05201EF0E5FE95ED150A0EE0D2
:1059900095ED1C0A05201EF0DDFE95ED1D0A06E0C2
:1059A00095ED240A05201EF0D5FE95ED250A06206A
:1059B0001EF05EFF3D205BE440B101280ED00228BE
:1059C00014D003281AD0042820D029E095ED050A28
:1059D00006201EF0BFFE95ED060A1EE095ED0D0AAD
:1059E00006201EF0B7FE95ED0E0A16E095ED150A9D
:1059F00006201EF0AFFE95ED160A0EE095ED1D0A8D
:105A000006201EF0A7FE95ED1E0A06E095ED250A7C
:105A100006201EF09FFE95ED260A07201EF028FFA7
:105A20003E2025E440B101280ED0022814D00328DE
:105A30001AD0042820D029E095ED060A07201EF090
:105A400089FE95ED070A1EE095ED0E0A07201EF06F
:105A500081FE95ED0F0A16E095ED160A07201EF05F
:105A600079FE95ED170A0EE095ED1E0A07201EF04F
:105A700071FE95ED1F0A06E095ED260A07201EF03F
:105A800069FE95ED270A08201EF0F2FE3F2025E46E
:105A900040B101280ED0022814D003281AD00428BF
:105AA00020D029E0B0EE620A02201EF0A1FD96EDA2
:105AB000000A1EE0B0EE430A02201EF099FD96EDAA
:105AC000080A16E0B0EE630A02201EF091FD96ED82
:105AD000100A0EE0B0EE440A02201EF089FD96ED99
