:020000040800F2
:10000000E80F0120C101000833180108EDEE0008D7
:1000100031180108BD10000887EA0108000000003F
:10002000000000000000000000000000A5420108E0
:10003000695D000800000000E91801081145010889
:10004000DB010008DB010008DB010008DB01000820
:10005000DB010008DB010008DB010008DB01000810
:10006000DB010008DB010008DB010008DB01000800
:10007000DB010008DB010008DB010008DB010008F0
:10008000DB010008DB010008DB010008DB010008E0
:10009000DB010008DB010008DB010008DB010008D0
:1000A000DB010008DB010008DB010008DB010008C0
:1000B000DB010008DB010008DB010008DB010008B0
:1000C000DB010008DB010008DB010008DB010008A0
:1000D000DB010008D9D20108DB010008DB010008C0
:1000E000DB010008DB010008DB010008DB01000880
:1000F000DB010008DB010008DB010008DB01000870
:10010000DB010008DB010008DB010008DB0100085F
:10011000DB010008DB010008A9450108BD46010814
:10012000DB010008DB010008DB010008DB0100083F
:10013000DB010008DB010008DB010008DB0100082F
:10014000DB010008DB010008DB010008AD18010835
:10015000DB010008DB010008DB010008DB0100080F
:10016000DB010008DB010008C5180108B918010807
:10017000DB010008D1180108DB010008DB010008E1
:10018000DB010008DB010008DB010008DB010008DF
:10019000DB010008DB010008DB010008DB010008CF
:1001A000DB010008DB010008DB010008DFF80CD0F0
:1001B00000F012FC00480047BD070208E80F0120CC
:1001C0000648804706480047FEE7FEE7FEE7FEE7F1
:1001D000FEE7FEE7FEE7FEE7FEE7FEE74D45010826
:1001E000AD010008D2B201E000F8012B491EFBD29C
:1001F00070470022F6E710B513460A460446194632
:10020000FFF7F0FF204610BD421E12F8013F002B01
:10021000FBD111F8013B02F8013B002BF9D17047EB
:1002200010B5044604E00B7800F8013B03B1491C0B
:10023000521EF8D2204610BD421C10F8011B0029A6
:10024000FBD1801A704710B5002200E0521C835C7D
:100250008C5CA34201D1002BF8D1D8B2E1B2401A94
:1002600010BD034611F8012B00F8012B002AF9D12B
:100270001846704770B506461FF096FA04680546A2
:100280000A220021304600F0ABFA2C6070BD2DE947
:10029000FE4F804681EA0300C00F0C46009021F01B
:1002A000004123F00045B8EB0200A94105D24046C9
:1002B000214690461C460B46024623F00040104360
:1002C00047D0270DC7F30A00C3F30A510290401A22
:1002D000019040286BDAC3F3130040F4801B0098B0
:1002E000924620B10023D2EB030A63EB0B0B01987B
:1002F0005946C0F14002504600F0F3F906460D465B
:1003000050465946019A00F00BFA10EB0800614183
:10031000002487EA115284EAE7731A4340D0009A16
:1003200062B3019A012A4FEA075215DC001B61EB08
:1003300002014FF0004202EA0752CDE90042001CE0
:1003400041F5801132462B4600F0C8FA03B0BDE8F3
:10035000F08F40462146F9E7001B61EB0201001CCB
:1003600041F5801300185B412018A2F5001747EBF8
:10037000030140EAD570B6196D4111E06D084FEAEE
:10038000360645EAC0754FEA0752001B61EB0201D1
:10039000001C41F5801149084FEA30000019514115
:1003A00032462B4603B0BDE8F04F00F088BA009803
:1003B000012240000023D0EB020263EBE0730098BF
:1003C00021464FEAE074B8EB000061EB0401E9E775
:1003D00083F000435BE781F0004158E72DE9FE4FD1
:1003E00081EA030404F0004421F0004100944FF03E
:1003F000000B23F0004350EA01045ED052EA0304EC
:100400005BD0C3F30A54C1F30A552C44A4F2F3346D
:100410000194A0FB0254C1F3130141F48011C3F312
:10042000130343F4801301FB024400FB034E840AD0
:10043000970A44EA815447EA8357A4FB0768029568
:100440008D0A05FB07854FEA932C04FB0C54270506
:10045000029D4FEA065847EA1637B5EB08056EEBE2
:10046000070C870E920E47EA811742EA8312A7FB18
:100470000201B6EB0B0164EB00042B0D43EA0C33D5
:100480005E1844EB1C50DA465146E7FB0201C5F307
:1004900013044FEA0B3343EA14534FEA0432019C2E
:1004A00043EA0603A4F10C040294009CCDE900B4D5
:1004B00000F014FA03B0BDE8F08F00200146F9E720
:1004C0002DE9F04D81EA030404F0004B21F00045D2
:1004D00014464FF0000A23F0004150EA050220D0F4
:1004E00054EA01021DD0C5F30A570246C5F31303AF
:1004F000C1F31300C1F30A5640F4801543F480138E
:10050000A7EB0608101BD64608F2FD3873EB050072
:1005100002D308F1010801E092185B41B8F1000F25
:1005200003DA00200146BDE8F08D00204FF4801171
:10053000064684460EE0171B73EB050705D3121B16
:1005400063EB050306434CEA010C49084FEA30000F
:1005500092185B4150EA0107EDD152EA030012D034
:1005600082EA040083EA0501084305D0101BAB4171
:1005700006D20122002306E000224FF0004302E0F1
:100580006FF0010253101AEB06004CEB085110EB10
:100590000A0041EB0B01BDE8F04D00F090B90EB53B
:1005A00040F2334102910021CDE900110A460B4689
:1005B00000F094F903B000BD70B5C1F30A5201F028
:1005C00000450024C1F3130140F2FF3341F48011D0
:1005D0009A4201DA002070BD40F233439A42A2F2FF
:1005E000334203DC524200F08BF800E090402C4391
:1005F000F1D0404270BD00F0004230F000400AD01F
:10060000C10D01F56071C0F3160042EA0151C20844
:1006100040071143704700200146704701F0004336
:1006200030B421F0004150EA010206D00A0DA2F5D3
:100630006072C1F31301002A02DC30BC0020704755
:10064000440F44EAC104C100E01830BC00EBC250C2
:1006500000F0FEB830B50B460146002020220124F0
:1006600009E021FA02F59D4205D303FA02F5491B80
:1006700004FA02F52844151EA2F10102F1DC30BD96
:100680002DE9F05F0546002092469B4688460646C7
:10069000814640241BE0284641464746224600F05A
:1006A0002FF853465A46C01A914110D311461846A6
:1006B000224600F016F82D1A67EB01084F46224635
:1006C0000120002100F00DF817EB00094E41201E1B
:1006D000A4F10104DFDC484631462A464346BDE822
:1006E000F09F202A04DB203A00FA02F10020704734
:1006F0009140C2F1200320FA03F319439040704760
:10070000202A04DB203A21FA02F00021704721FA66
:1007100002F3D040C2F120029140084319467047CD
:10072000202A06DBCB17203A41FA02F043EAE073B5
:1007300006E041FA02F3D040C2F1200291400843A2
:10074000194670470FB4002300B589B00CA9009179
:100750000B996FF00042CB601E4B06931E4B079324
:100760000423CDE901321D4A089202466B4600205F
:1007700000F0E6F909B05DF814FB70B586B00646E6
:100780004FF0FF300091CDE90101002015460C46E5
:1007900004903246694604A8FFF7D4FF0246049845
:1007A000211825B108B1084600E0204628600498C9
:1007B00000280DD0002A02DD0098884208D0081BCE
:1007C0000094CDE901043246694604A8FFF7BAFF58
:1007D00006B070BD790D0008970D0008050A0008E5
:1007E0002DE9F04791460F4680460446002614F84E
:1007F000015B2DB100F002F90068405DC007F6D141
:100800002B2D02D02D2D18D0641E4A463946204685
:1008100000F0D2FA27B13968A14201D1C7F80080AF
:1008200071054FF002040BD54042002803DD1EF095
:10083000BBFF0460A007BDE8F08746F48066E4E7EC
:100840000028F8DA1EF0B0FF04606FF00040F2E715
:100850000029A8BF7047401C490008BF20F00100D4
:10086000704710B4B0FA80FC00FA0CF050EA0104B2
:1008700004BF10BC704749B1CCF1200421FA04F444
:1008800011FA0CF118BF012121430843A3EB0C011D
:10089000CB1D4FEA00614FEA102042BF002010BC80
:1008A000704700EBC35010440029A4BF10BC704730
:1008B000401C490008BF20F0010010BC704710B573
:1008C000141E73F1000408DA401C41F10001921873
:1008D0005B411A4301D120F0010010BD2DE9F04D1C
:1008E00092469B4611B1B1FA81F202E0B0FA80F271
:1008F00020329046FFF7F5FE04460F4640EA0A0014
:1009000041EA0B0153465A46084313D0114653EAB5
:10091000010019D0C8F140025046FFF7F1FE05462C
:100920000E46504659464246FFF7DBFE084305D0C7
:10093000012004E020463946BDE8F08D0020054343
:1009400046EAE0762C4337430A986305E40AA0EBB5
:1009500008000022FD0A44EA47540A3002D500206C
:100960000146E9E7010510196941DDE9084500196B
:100970006941BDE8F04DA2E7C1F30A52C1F313018A
:1009800040F2FF3341F480119A4202DA002001461E
:10099000704740F233439A42A2F2334202DC5242A1
:1009A000FFF7AEBEFFF79DBE30B5041E71F1000427
:1009B00004DB4FF00044404264EB0101141E73F16C
:1009C000000405DB1C464FF00043524263EB040376
:1009D000994208BF904230BD064C074D06E0E068E2
:1009E00040F0010394E8070098471034AC42F6D376
:1009F000FFF7E0FB28E7030848E7030800487047D3
:100A0000B0E6030810B50446FFF7F8FF0068005D84
:100A100000F0010010BD00002DE9FF4F087883B001
:100A20009946FF2805D0491C2D2804D00024002019
:100A300008E000200BE00124F9E700EB800003EB65
:100A40004000491C0B78FF2BF7D104B14042002332
:100A50000293147819461D462D2C01D02B2C04D15D
:100A6000521C2D2C13D000240294AA461478FF2C7B
:100A70000FD00A25A3FB057801FB05814FF0000C80
:100A800003FB0C11521CE3194AEB0101EEE70124B0
:100A9000EAE7814453EA010002D019F5C87F06DA7B
:100AA00003980021C0E9001107B0BDE8F08F0025D0
:100AB000AE4E2F46DFF8B882184600F0DAF9CDE9DD
:100AC0000001B9F1000002DAC9F1000400E00446B7
:100AD0000023A74A1AEB030B42EB045A12E0E0078B
:100AE00007D02A46334638464146FFF777FC07468B
:100AF00088462A46334610461946FFF76FFC0546DE
:100B00000E466410002CEAD1DDE90001B9F1000FB6
:100B10005A46534606DAFFF7D3FC3A464346FFF7F8
:100B2000CFFC05E0FFF75AFC3A464346FFF756FC78
:100B3000029A0AB181F00041039AC2E90001B3E7C9
:100B40002DE9FF4F1F468DB0D7E901464FF0FF3822
:100B50002E2045464FF000090B90B9696D1C0E9888
:100B60008847396A824688470028F6D1BAF1FF3FA4
:100B70000AD024F4D064002E11DDBAF12B0F08D076
:100B8000BAF12D0F0BD102E0404611B08DE744F4CD
:100B90008064B9696D1C0E9888478246761E694646
:100BA000600501D52D2000E02B208DF8000001F11B
:100BB000010B0DF1200809E0B9696D1C0E988847FA
:100BC00082460F9844F40074761E0560002E02DD04
:100BD000BAF1300FF0D00B998A453ED144F0800431
:100BE00006E00F99681CA9F1010944F4007408603B
:100BF000B9696D1C761E0E98884782463028F0D061
:100C00002BE00B998A4505D1200603D444F08004DB
:100C1000761E18E050461EF0C5FE08B30DF1130114
:100C2000761E44F400748B4508D2AAF130000BF80C
:100C3000010B200607D5A9F1010003E0200602D42C
:100C400009F101008146A00502D50F99681C0860D2
:100C5000B9696D1C0E9888478246002ED1DC53E09E
:100C6000002E51DDBAF1650F02D0BAF1450F4BD11C
:100C7000A00549D5B9696D1C24F44074761E0E9800
:100C800088478246002E0CDD2B2804D0BAF12D0FA8
:100C900007D144F48074B9696D1C0E988847824668
:100CA000761EE00501D52D2100E02B2108F8011B5F
:100CB000CDF82C8021E00DF12901761E44F400745A
:100CC00088450CD2AAF1300010F0FF0088F800002F
:100CD00002D10B99884509D908F1010806E0E00521
:100CE00001D5244801E042F20F708146B9696D1CBC
:100CF0000E98884782460F980560002E04DD504606
:100D00001EF050FE0028D6D1F9690E988847FF20C2
:100D10008BF8000088F800000020069007904B46F2
:100D20006A4608A906A8FFF777FEA00502D46FF06F
:100D300001002AE714F0240F0AD0E00714D1DDE9FE
:100D400006123868031D3B600068C0E900120BE022
:100D5000DDE90601FFF762FC0146E00704D13868CF
:100D6000021D3A600068016028460EE7000014404A
:100D70000000F03FF1D8FFFF426842B1016811F86E
:100D8000013B23B1521EC0E90012184670470121F1
:100D9000C160881E704742685AB1C368016843B990
:100DA00083688B4205D0491E521CC0E90012002006
:100DB00070474FF0FF3070472DE9F05F82460078B2
:100DC000002715468B460AF10104B946302801D0A8
:100DD0009DB113E014F8010B0127782803D058289F
:100DE00001D045B10AE00DB1102D07D10027102523
:100DF00014F8010B02E0082500E00A250026B046A1
:100E00000EE005FB080005FB06F1012701EB10468B
:100E10001FFA80F8B6F5803F00D3B94614F8010BED
:100E2000294600F018F80028EBDABBF1000F05D0D6
:100E30000FB1641E00E05446CBF80040B9F1000F3A
:100E400006D01EF0B1FC02210160C81EBDE8F09F73
:100E500048EA0640FAE73A2800D2303820F020026B
:100E6000412A01D3A2F13700884201D34FF0FF306D
:100E700070470EB540F2334202920022CDE90022C3
:100E80001346FFF72BFD03B000BD70B58C1810F8AA
:100E9000015B15F0070301D110F8013B2A1106D1BF
:100EA00010F8012B03E010F8016B01F8016B5B1ED9
:100EB000F9D12B0705D40023521E0DD401F8013BB4
:100EC000FAE710F8013BCB1A921C03E013F8015B20
:100ED00001F8015B521EF9D5A142D8D3002070BDA4
:100EE0000E4910B5487A082803D0BDE810400BF031
:100EF000E5BA887A897B0B4A00EBC1015339C9B244
:100F00009FED070A02EB8101523881ED000AC0B261
:100F10001FF04EFEBDE8104013F0D6B9E8000020E7
:100F200000000000480801200029816802D041F03B
:100F3000010101E021F0010181607047084B10B50B
:100F4000D3F8042307490A40D0E900142143D0E92B
:100F50000240044321431143C3F8041310BD0000B1
:100F600000200140E030FCFF0029816802D041F4FC
:100F7000807101E021F480718160704700298168EF
:100F800002D041F4007101E021F4007181607047EA
:100F900030B542680F4B0C791A400B6842EA0422C4
:100FA0001343436082680C4B4D791A40D1E90343E7
:100FB00023438C6844EA4504234313438360C26A95
:100FC000097D22F47002491EC9B242EA0151C16290
:100FD00030BD0000FFFEFFFCFDF7FFC070B5072627
:100FE00009290AD9C568A1F10A0404EB4404A64002
:100FF000B543A3401D43C56007E0056901EB41040B
:10100000A640B543A3401D4305611F23072A09D20B
:10101000446B521E02EB820293409C4391400C436E
:10102000446370BD0D2A09D2046BD21F02EB820209
:1010300093409C4391400C43046370BDC46A0D3AD5
:1010400002EB820293409C4391400C43C46270BD0A
:10105000816841F080418160704700000749487A0B
:10106000001F052809D2DFE800F003060606060087
:10107000887A332801D11FF053B97047E800002067
:101080001CB50121080210F07BFC202001210090FA
:101090008DF8041000208DF806008DF80710064C1E
:1010A0008DF80500694620460DF0C8FE2021204637
:1010B0000DF017FF1CBD000000200240FEE70000FD
:1010C00010B5074C202120460DF00DFF40F2FF50D7
:1010D00004F0AEFE2046BDE8104020210DF001BF17
:1010E0000020024010B50446392025F02BF8E0B26C
:1010F00025F04CF8C4F3072025F048F8C4F3074066
:1011000025F044F8200E25F041F825F00BF8BDE855
:1011100010401EF063BA70B5064614460D463C20DA
:1011200025F010F8E8B225F031F8280A25F02EF85D
:1011300024F0F8FF0CB1002011E01EF04FFA1E2839
:101140000FD1304600F030F905463D2024F0FAFF7B
:1011500024F0E8FF2E44002CEFD020882844208083
:10116000EBE770BD10B510F0FFFB08B100F069F8B7
:10117000BDE81040302000F0B2B8312000F0AFB828
:101180000146362000F09EB810B508B100F0C5F851
:10119000BDE81040342000F0A2B870B5054600F05C
:1011A000A7F804000DD00146284600F021F8412898
:1011B00007D0142803D0422800D1B32070BD4320AB
:1011C00070BD2819BDE87040FFF7DEBF10B50446BA
:1011D00000F0A3F820785C2801D02F2803D100214B
:1011E000642000F0F7F8BDE81040322000F077B836
:1011F00070B50E4600210546012401E0641CE4B2EE
:10120000285D5C2813D02F2811D00028F6D10024A7
:101210006818FFF7DBFF002C08D0B44206D0412845
:101220000AD0142806D0422800D1B32070BD641C17
:10123000E4B2EDE7432070BD2146E1E7FF21FFF76F
:10124000D7BF10B5222024F07DFF322004F0F0FD3E
:1012500024F06EFF044624F065FF204610BD2DE902
:10126000F04124F065FF064624F062FF054624F0B5
:101270005FFF044624F05CFF074624F053FF46EA74
:10128000052040EA044040EA0760BDE8F08110B55F
:1012900004460C2024F056FF204624F077FFBDE8DA
:1012A0001040FFF7DCBF10B504460A2024F04AFFC7
:1012B000204624F06BFF24F03BFF044624F032FF6D
:1012C000204610BD10B50C4624F03CFF204624F00B
:1012D0005DFF24F027FFBDE810401EF07FB910B578
:1012E00024F030FF24F01EFFBDE810401EF076B958
:1012F000014600E0491C0A78002AFBD105E011F8FC
:10130000012D5C2A03D02F2A01D08142F7D18142DE
:1013100000D0491C081AC0B2704770B505460120BC
:1013200024F010FF24F004FF432828D22B20FFF7DD
:10133000BAFF102823D22F2024F004FF002024F02D
:1013400025FF3220FFF7CBFF142818D1CF20FFF75D
:10135000AAFF040013D04C20FFF799FF00EB0421F3
:101360004C2000F037F85020FFF791FF00EB0421EC
:10137000502000F02FF80021702000F02BF82F20D3
:1013800024F0E0FE2C7806E015F8014F5C2C01D02B
:101390002F2C00D10024204624F0F8FE002CF3D19D
:1013A000BDE8704024F0BEBE70B505462D2024F087
:1013B000C9FE24F0BDFE0446260007D0287824F09C
:1013C000E5FE641E6D1C14F0FF04F7D124F0AAFEA4
:1013D000304670BD70B505460C460D2024F0B2FEB7
:1013E000284624F0D3FEE0B224F0D0FEC4F3072058
:1013F00024F0CCFEC4F3074024F0C8FE200E24F0F5
:10140000C5FEBDE8704024F08DBE00002DE9F0411E
:1014100088B00121812010F0B3FA0121080310F0F7
:10142000DFFADFF8C8800522114640460DF042FD84
:101430000522062140460DF03DFD052207214046CC
:101440000DF038FD02258DF805508DF8045000246C
:1014500020278DF8064000978DF8074069464046E2
:101460000DF0ECFC40200090694640460DF0E6FC93
:1014700080200090694640460DF0E0FC10200126D7
:1014800000908DF804608DF80640694640460DF0E6
:10149000D5FC8DF8044000978DF807606946144824
:1014A0000DF0CCFCADF808404FF48270ADF80A00A6
:1014B000ADF810602802ADF812003820ADF8140025
:1014C000ADF80C40ADF8164007200A4CADF81800F6
:1014D000ADF80E5002A9204612F055FE012120461B
:1014E00012F04EFC08B0BDE8F081000000000240A0
:1014F000001C024000300140F0B5FF231A460025D1
:1015000018E0445D6240002402F0010613F0010F70
:101510004FEA53034FEA520201D042F080021EB15B
:1015200083F0A00382F00102641CE4B2082CEBD328
:101530006D1CEDB28D42E4D342EA0320F0BD000001
:101540002DE9F041FE48FF4EFF4C00784FF49B75AB
:101550004FF470474FF4A57840B1012874D00228A9
:1015600073D0032872D0042871D025E32078012895
:1015700001D028B10FE088200EF008FE304603E0CD
:1015800088200EF003FE38460EF01CFEEFA20A2162
:1015900064200EF029FA6078012801D028B10FE00C
:1015A00088200EF0F3FD304603E088200EF0EEFDBB
:1015B00038460EF007FEE6A20A21AA200EF014FA21
:1015C000A078012801D028B10FE088200EF0DEFDC0
:1015D000304603E088200EF0D9FD38460EF0F2FDCB
:1015E000DCA20A21F0200EF0FFF9E078012801D0FA
:1015F00028B10FE088200EF0C9FD304603E08820B6
:101600000EF0C4FD38460EF0DDFDD3A20A212846B7
:101610000EF0EAF92079012801D028B10FE08820E6
:101620000EF0B4FD304603E088200EF0AFFD3846E2
:101630000EF0C8FDC9A2414664200EF0D5F96079CC
:10164000012805D048B113E039E0CEE063E133E290
:1016500088200EF09BFD304603E088200EF096FDBA
:1016600038460EF0AFFDBEA24146AA200EF0BCF9EE
:10167000A079012801D028B10FE088200EF086FD66
:10168000304603E088200EF081FD38460EF09AFDCA
:10169000B4A24146F0200EF0A7F9E079012801D06C
:1016A00028B189E288200EF071FD304603E08820E1
:1016B0000EF06CFD38460EF085FDABA278E2207A84
:1016C00001284FF0880070D00EF060FD38460EF013
:1016D00079FDA6A20A2164200EF086F9607A01281D
:1016E0004FF0880065D00EF051FD38460EF06AFDCF
:1016F0009FA20A21AA200EF077F9A07A01284FF0C4
:1017000088005AD00EF042FD38460EF05BFD99A2DB
:101710000A21F0200EF068F9E07A01284FF08800E5
:101720004FD00EF033FD38460EF04CFD92A20A2148
:1017300028460EF059F9207B01284FF0880044D04C
:101740000EF024FD38460EF03DFD8CA2414664208B
:101750000EF04AF9607B01284FF0880039D00EF076
:1017600015FD38460EF02EFD85A24146AA200EF04A
:101770003BF9A07B01284FF088002ED00EF006FD2B
:1017800038460EF01FFD7FA24146F0200EF02CF9E6
:10179000E07B01284FF0880023D00EF0F7FC38469C
:1017A0000EF010FD78A203E2FFE70EF0EFFC3046EA
:1017B0008DE70EF0EBFC304698E70EF0E7FC304684
:1017C000A3E70EF0E3FC3046AEE70EF0DFFC304658
:1017D000B9E70EF0DBFC3046C4E70EF0D7FC30462C
:1017E000CFE70EF0D3FC3046DAE7207C01284FF03B
:1017F000880070D00EF0CAFC38460EF0E3FC63A2FD
:101800000A2164200EF0F0F8607C01284FF0880077
:1018100065D00EF0BBFC38460EF0D4FC5CA20A2169
:10182000AA200EF0E1F8A07C01284FF088005AD0E1
:101830000EF0ACFC38460EF0C5FC56A20A21F02092
:101840000EF0D2F8E07C01284FF088004FD00EF067
:101850009DFC38460EF0B6FC4FA20A2128460EF039
:10186000C3F8207D01284FF0880044D00EF08EFC94
:1018700038460EF0A7FC49A2414664200EF0B4F8A9
:10188000607D01284FF0880039D00EF07FFC38468B
:101890000EF098FC42A24146AA200EF0A5F8A07DC9
:1018A00001284FF088002ED00EF070FC38460EF064
:1018B00089FC3CA24146F0200EF096F8E07D01281C
:1018C0004FF0880023D00EF061FC38460EF07AFC11
:1018D00035A26DE1FFE70EF059FC30468DE70EF0C2
:1018E00055FC304698E70EF051FC3046A3E70EF069
:1018F0004DFC3046AEE70EF049FC3046B9E70EF03D
:1019000045FC3046C4E70EF041FC3046CFE70EF010
:101910003DFC3046DAE7207E01284FF088007DD07C
:101920000EF034FC38460EF04DFC20A20A21642053
:101930000EF05AF8607E01284FF088006FD037E033
:10194000F3000020935517006C0300203030310065
:101950003030320030303300303034003030350039
:101960003030360030303700303038003030390019
:10197000303130003031310030313200303133001D
:1019800030313400303135003031360030313700FD
:1019900030313800303139003032300030323100EF
:1019A00030323200303233003032340030323500E1
:1019B0000EF0ECFB38460EF005FC9AA20A21AA2094
:1019C0000EF012F8A07E01284FF088005CD00EF0D7
:1019D000DDFB38460EF0F6FB93A20A21F0200EF054
:1019E00003F8E07E01284FF0880051D00EF0CEFBC6
:1019F00038460EF0E7FB8DA20A2128460DF0F4FFD1
:101A0000207F01284FF0880046D00EF0BFFB3846FB
:101A10000EF0D8FB86A24146642001E02CE02FE0C6
:101A20000DF0E2FF607F01284FF0880038D00EF003
:101A3000ADFB38460EF0C6FB7EA24146AA200DF053
:101A4000D3FFA07F01284FF088002DD00EF09EFB21
:101A500038460EF0B7FB78A24146F0200DF0C4FFE7
:101A6000E07F01284FF0880022D00EF08FFB38462F
:101A70000EF0A8FB71A29BE00EF088FB304652E707
:101A80000EF084FB304696E70EF080FB3046A1E76F
:101A90000EF07CFB3046ACE70EF078FB3046B7E743
:101AA0000EF074FB3046C5E70EF070FB3046D0E711
:101AB0000EF06CFB3046DBE794F8200001284FF075
:101AC00088007DD00EF062FB38460EF07BFB5CA2F6
:101AD0000A2164200DF088FF94F8210001284FF0BE
:101AE00088006ED00EF052FB38460EF06BFB55A20C
:101AF0000A21AA200DF078FF94F8220001284FF067
:101B0000880074D00EF042FB38460EF05BFB4EA20C
:101B10000A21F0200DF068FF94F8230001284FF00F
:101B2000880068D00EF032FB38460EF04BFB47A21F
:101B30000A2128460DF058FF94F8240001284FF0A0
:101B400088005CD00EF022FB38460EF03BFB40A232
:101B5000414664200DF048FF94F8250001284FF01D
:101B6000880050D00EF012FB38460EF02BFB39A245
:101B70004146AA200DF038FF94F8260001284FF0C6
:101B8000880044D00EF002FB38460EF01BFB32A258
:101B90004146F0200DF028FF94F8270001284FF06F
:101BA000880038D00EF0F2FA38460EF00BFB2BA26C
:101BB000414628460DF018FF29490120C87001E070
:101BC0000CE010E0FFF77CFA94F8300038B325A061
:101BD00004F0DEFABDE8F04112F076BB0EF0D6FA62
:101BE000304672E703E00EF0D1FA30467DE70EF0A2
:101BF000CDFA304689E70EF0C9FA304695E70EF087
:101C0000C5FA3046A1E70EF0C1FA3046ADE70EF056
:101C1000BDFA3046B9E70EF0B9FA3046C5E714A070
:101C2000D6E700003032360030323700303238002C
:101C3000303239003033300030333100303332004D
:101C40003033330030333400303335003033360036
:101C5000303337003033380030333900303430001F
:101C6000400100204368616E6E656C2073657400EE
:101C7000CDA8B5C0C9E8D6C3000000002DE9F05FCB
:101C8000F648DFF8DCA3F74C00784FF482754FF488
:101C900096764FF4AA784FF4BE794FF4704B10B19A
:101CA00001286ED032E32078012801D028B10FE05E
:101CB00088200EF06BFA504603E088200EF066FA9A
:101CC00058460EF07FFAE8A20A21642001F082FA59
:101CD0006078012801D028B10FE088200EF056FA74
:101CE000504603E088200EF051FA58460EF06AFA8A
:101CF000DEA20A218C2001F06DFAA078012801D023
:101D000028B10FE088200EF041FA504603E0882009
:101D10000EF03CFA58460EF055FAD5A20A21B4202E
:101D200001F058FAE078012801D028B10FE08820AE
:101D30000EF02CFA504603E088200EF027FA5846A1
:101D40000EF040FACBA20A21DC2001F043FA207900
:101D5000012801D028B10FE088200EF017FA504674
:101D600003E088200EF012FA58460EF02BFAC2A2B9
:101D70000A21284601F02EFA6079012802D030B1FC
:101D800010E0BCE188200EF001FA504603E0882004
:101D90000EF0FCF958460EF015FAB8A20A213046AA
:101DA00001F018FAA079012801D028B10FE08820AD
:101DB0000EF0ECF9504603E088200EF0E7F95846A3
:101DC0000EF000FAAEA20A21404601F003FAE079D3
:101DD000012801D028B10FE088200EF0D7F9504635
:101DE00003E088200EF0D2F958460EF0EBF9A5A2D8
:101DF0000A21484601F0EEF9207A012801D028B1E5
:101E00000FE088200EF0C2F9504603E088200EF063
:101E1000BDF958460EF0D6F99BA2D221642001F0FC
:101E2000D9F9607A012801D028B10FE088200EF09E
:101E3000ADF9504603E088200EF0A8F958460EF0A0
:101E4000C1F992A2D2218C2001F0C4F9A07A012814
:101E500001D028B10FE088200EF098F9504603E039
:101E600088200EF093F958460EF0ACF988A2D221E2
:101E7000B42001F0AFF9E07A012801D028B10FE0D9
:101E800088200EF083F9504603E088200EF07EF99A
:101E900058460EF097F97FA2D221DC2001F09AF982
:101EA000207B012801D028B10FE088200EF06EF9C8
:101EB000504603E088200EF069F958460EF082F98A
:101EC00075A2D221284601F085F9607B012801D056
:101ED00028B10FE088200EF059F9504603E0882021
:101EE0000EF054F958460EF06DF96CA2D22130462E
:101EF00001F070F9A07B012801D028B10FE0882003
:101F00000EF044F9504603E088200EF03FF95846A1
:101F10000EF058F962A2D221404601F05BF9E07B55
:101F2000012801D028B10FE088200EF02FF950468B
:101F300003E088200EF02AF958460EF043F959A222
:101F4000D221484601F046F9207C4FF4CD77012894
:101F500001D028B10FE088200EF018F9504603E0B8
:101F600088200EF013F958460EF02CF94EA239468F
:101F7000642001F02FF9607C012801D028B10FE026
:101F800088200EF003F9504603E088200EF0FEF89A
:101F900058460EF017F945A239468C2001F01AF97F
:101FA000A07C012801D028B10FE088200EF0EEF8C7
:101FB000504603E088200EF0E9F858460EF002F98A
:101FC0003BA23946B42001F005F9E07C012801D09C
:101FD00028B10FE088200EF0D9F8504603E08820A1
:101FE0000EF0D4F858460EF0EDF832A23946DC2057
:101FF00001F0F0F8207D012801D028B10FE0882001
:102000000EF0C4F8504603E088200EF0BFF85846A2
:102010000EF0D8F828A23946284601F0DBF8607D9A
:10202000012801D028B10FE088200EF0AFF850460B
:1020300003E088200EF0AAF858460EF0C3F81FA25D
:102040003946304601F0C6F8A07D012801D0B8B36A
:1020500042E088200EF09AF8504636E0F300002067
:10206000935517006C0300203030310030303200BF
:10207000303033003030340030303500303036000E
:1020800030303700303038003030390030313000F7
:1020900030313100303132003031330030313400F2
:1020A00030313500303136003031370030313800D2
:1020B00030313900303230003032310030323200CD
:1020C000FFE788200EF062F858460EF07BF8BAA2BF
:1020D0003946404601F07EF8E07D012801D028B164
:1020E00014E188200EF052F8504603E088200EF0EC
:1020F0004DF858460EF066F8B0A2394603E1207E4E
:1021000001284FF088007CD00EF040F858460EF0C1
:1021100059F8ABA20A21642001F05CF8607E012826
:102120004FF088006ED00EF031F858460EF04AF8A5
:10213000A4A20A218C2001F04DF8A07E01284FF0C6
:1021400088007DD00EF022F858460EF03BF89EA293
:102150000A21B42001F03EF8E07E01284FF088000B
:102160006FD00EF013F858460EF02CF897A20A2103
:10217000DC2001F02FF8207F01284FF088007DD06F
:102180000EF004F858460EF01DF891A20A212846D8
:1021900001F020F8607F01284FF088006FD00DF02B
:1021A000F5FF58460EF00EF88AA20A21304601F0DB
:1021B00011F8A07F01284FF088007DD00DF0E6FFD8
:1021C00058460DF0FFFF84A20A21404601F002F8B4
:1021D000E07F01284FF088006FD00DF0D7FF584600
:1021E0000DF0F0FF7DA20A21484600F0F3FF94F8BD
:1021F000200001284FF088007ED00DF0C7FF584620
:1022000001E092E096E00DF0DDFF75A2D22164209E
:1022100000F0E0FF94F8210001284FF088006CD016
:102220000DF0B4FF58460DF0CDFF6EA2D2218C20E8
:1022300000F0D0FF94F8220001284FF0880001E060
:102240007CE07FE075D00DF0A1FF58460DF0BAFF9D
:1022500065A2D221B42000F0BDFF94F8230001282C
:102260004FF0880072D00DF091FF58460DF0AAFF94
:102270005EA2D221DC2000F0ADFF01E067E06AE061
:1022800094F8240001284FF0880070D00DF07EFFF4
:1022900058460DF097FF56A2D221284600F09AFF2B
:1022A00094F8250001284FF0880077D00DF06EFFDC
:1022B00058460DF087FF01E051E054E04DA2D221D5
:1022C000304600F087FF94F8260001284FF0880080
:1022D00068D00DF05BFF58460DF074FF46A2D22186
:1022E000404600F077FF94F8270001284FF088005F
:1022F0005CD00DF04BFF01E03BE03EE058460DF0B6
:1023000061FF3EA2D221484600F064FF3C49012013
:10231000C870FEF7D5FE94F8300048B339A003F03A
:1023200037FFBDE8F05F11F0CFBF0DF02FFF504633
:10233000EDE626E00DF02AFF5046F7E60DF026FF09
:10234000504602E70DF022FF50460DE71EE00DF06B
:102350001DFF504617E70DF019FF504622E70DF01C
:1023600015FF50462DE70DF011FF504638E711E0FC
:1023700020E00DF00BFF504642E70DF007FF5046FE
:1023800051E70DF003FF504660E707E00DF0FEFE59
:1023900050466BE70DF0FAFE50467AE70DF0F6FE78
:1023A000504686E70DF0F2FE504695E70DF0EEFE42
:1023B0005046A4E716A0B2E7303233003032340082
:1023C00030323500303236003032370030323800AB
:1023D00030323900303330003033310030333200A6
:1023E000303333003033340030333500303336008F
:1023F0003033370030333800303339003034300078
:10240000400100204368616E6E656C207365740046
:10241000CDA8B5C0C9E8D6C3000000002DE9F05F23
:10242000FB4CDFF8F0A34FF4704B2078012801D06B
:1024300028B10FE088200DF0A9FE504603E0882067
:102440000DF0A4FE58460DF0BDFEF3A20A21642053
:1024500000F0F6FE6078012801D028B10FE0882056
:102460000DF094FE504603E088200DF08FFE584694
:102470000DF0A8FEE9A20A218C2000F0E1FEA07870
:10248000012801D028B10FE088200DF07FFE5046D2
:1024900003E088200DF07AFE58460DF093FEE0A28E
:1024A0000A21B42000F0CCFEE078012801D028B148
:1024B0000FE088200DF06AFE504603E088200DF002
:1024C00065FE58460DF07EFED6A20A21DC2000F003
:1024D000B7FE20794FF48275012801D028B10FE0B2
:1024E00088200DF053FE504603E088200DF04EFE8C
:1024F00058460DF067FECCA20A21284600F0A0FE47
:1025000060794FF49676012801D028B10FE0882039
:102510000DF03CFE504603E088200DF037FE584693
:102520000DF050FEC1A20A21304600F089FEA079CC
:102530004FF4AA78012801D028B10FE088200DF0CF
:1025400025FE504603E088200DF020FE58460DF091
:1025500039FEB7A20A21404600F072FEE0794FF43E
:10256000BE79012801D028B10FE088200DF00EFEC1
:10257000504603E088200DF009FE58460DF022FE7B
:10258000ACA20A21484600F05BFE207A012801D067
:1025900028B10FE088200DF0F9FD504603E08820B7
:1025A0000DF0F4FD58460DF00DFEA3A28621642027
:1025B00000F046FE607A012801D028B10FE08820A3
:1025C0000DF0E4FD504603E088200DF0DFFD584695
:1025D0000DF0F8FD99A286218C2000F031FEA07A42
:1025E000012801D028B10FE088200DF0CFFD504622
:1025F00003E088200DF0CAFD58460DF0E3FD90A2DF
:102600008621B42000F01CFEE07A012801D028B118
:102610000FE088200DF0BAFD504603E088200DF051
:10262000B5FD58460DF0CEFD86A28621DC2000F0D7
:1026300007FE207B012801D028B10FE088200DF093
:10264000A5FD504603E088200DF0A0FD58460DF092
:10265000B9FD7DA28621284600F0F2FD607B0128AD
:1026600001D028B10FE088200DF090FD504603E026
:1026700088200DF08BFD58460DF0A4FD73A2862135
:10268000304600F0DDFDA07B012801D028B10FE02D
:1026900088200DF07BFD504603E088200DF076FD8C
:1026A00058460DF08FFD6AA28621404600F0C8FD15
:1026B000E07B012801D028B10FE088200DF066FDF5
:1026C000504603E088200DF061FD58460DF07AFD7C
:1026D00060A28621484600F0B3FD207C4FF481774C
:1026E000012801D028B10FE088200DF04FFD5046A1
:1026F00003E088200DF04AFD58460DF063FD56A218
:102700003946642000F09CFD607C012801D028B18E
:102710000FE088200DF03AFD504603E088200DF0D0
:1027200035FD58460DF04EFD4CA239468C2000F088
:1027300087FDA07C012801D028B10FE088200DF092
:1027400025FD504603E088200DF020FD58460DF091
:1027500039FD43A23946B42000F072FDE07C012827
:1027600001D028B10FE088200DF010FD504603E0A5
:1027700088200DF00BFD58460DF024FD39A2394696
:10278000DC2000F05DFD207D012801D028B10FE0A4
:1027900088200DF0FBFC504603E088200DF0F6FC8D
:1027A00058460DF00FFD30A23946284600F048FD8E
:1027B000607D012801D028B10FE088200DF0E6FCF3
:1027C000504603E088200DF0E1FC58460DF0FAFC7D
:1027D00026A23946304600F033FDA07D012801D005
:1027E00028B10FE088200DF0D1FC504603E088208E
:1027F0000DF0CCFC58460DF0E5FC1DA239464046D4
:1028000000F01EFDE07D012834D000B142E036E04A
:102810006C03002093551700303031003030320007
:102820003030330030303400303035003030360056
:10283000303037003030380030303900303130003F
:10284000303131003031320030313300303134003A
:10285000303135003031360030313700303138001A
:102860003031390030323000303231003032320015
:102870003032330088200DF089FC504603E0882078
:102880000DF084FC58460DF09DFCB9A2394648462F
:1028900000F0D6FC207E4FF4BF77012801D028B18C
:1028A0000FE088200DF072FC504603E088200DF008
:1028B0006DFC58460DF086FCAEA23946642000F04F
:1028C000BFFC607E012801D028B10FE088200DF008
:1028D0005DFC504603E088200DF058FC58460DF092
:1028E00071FCA5A239468C2000F0AAFCA07E01282C
:1028F00001D028B10FE088200DF048FC504603E0DD
:1029000088200DF043FC58460DF05CFC9BA2394634
:10291000B42000F095FCE07E012801D028B10FE042
:1029200088200DF033FC504603E088200DF02EFC8B
:1029300058460DF047FC92A23946DC2000F080FC9E
:10294000207F012801D028B10FE088200DF01EFC67
:10295000504603E088200DF019FC58460DF032FC7B
:1029600088A23946284600F06BFC607F012801D020
:1029700028B10FE088200DF009FC504603E08820C4
:102980000DF004FC58460DF01DFC7FA23946304680
:1029900000F056FCA07F012801D028B10FE088206C
:1029A0000DF0F4FB504603E088200DF0EFFB584695
:1029B0000DF008FC75A23946404600F041FCE07F6E
:1029C000012801D028B10FE088200DF0DFFB504630
:1029D00003E088200DF0DAFB58460DF0F3FB6CA203
:1029E0003946484600F02CFC94F820004FF4FD775F
:1029F000012801D028B10FE088200DF0C7FB504618
:102A000003E088200DF0C2FB58460DF0DBFB61A20D
:102A10003946642000F014FC94F82100012801D00C
:102A200028B10FE088200DF0B1FB504603E088206C
:102A30000DF0ACFB58460DF0C5FB57A239468C2073
:102A400000F0FEFB94F82200012801D028B10FE02D
:102A500088200DF09BFB504603E088200DF096FB8C
:102A600058460DF0AFFB4DA23946B42000F0E8FB0C
:102A700094F82300012801D028B10FE088200DF040
:102A800085FB504603E088200DF080FB58460DF092
:102A900099FB43A23946DC2000F0D2FB94F82400D5
:102AA000012801D028B10FE088200DF06FFB5046BF
:102AB00003E088200DF06AFB58460DF083FB39A235
:102AC0003946284600F0BCFB94F82500012801D0C7
:102AD00028B10FE088200DF059FB504603E0882014
:102AE0000DF054FB58460DF06DFB2FA239463046D1
:102AF00000F0A6FB94F82600012801D028B10FE0D1
:102B000088200DF043FB504603E088200DF03EFB8B
:102B100058460DF057FB25A23946404600F090FB81
:102B200094F82700012801D028B10FE088200DF08B
:102B30002DFB504603E088200DF028FB58460DF091
:102B400041FB1BA23946484600F07AFB1949012097
:102B5000C870FEF7B5FA94F8300030B116A003F053
:102B600017FBBDE8F05F11F0AFBB16A0F7E7000060
:102B700030323400303235003032360030323700F7
:102B800030323800303239003033300030333100E9
:102B900030333200303333003033340030333500DB
:102BA00030333600303337003033380030333900BB
:102BB00030343000400100204368616E6E656C2047
:102BC00073657400CDA8B5C0C9E8D6C30000000085
:102BD000164901EB800111ED010A154901EB800155
:102BE00051ED010A134901EB800130EE600A51ED0D
:102BF000010AB4EEE00AF1EE10FA09D30E4901EB36
:102C0000800050ED010AB4EEE00AF1EE10FA04DDA6
:102C10000A4890F82C00012804D088216FF07F40EA
:102C20000DF0BABA88214FF47F00F9E7B00900200F
:102C300048080120400C0020A00B00206C0300205D
:102C400010B50B460C0601F07F0202EB820100EB8F
:102C5000C10102D501F58E7101E001F55D710A70C7
:102C6000DA094A701BF0F5FC002010BD0A4610B5C9
:102C7000090602F07F0306D503EB830100EBC101D7
:102C800001F58E7105E002EB820100EBC10101F557
:102C90005D7100248C700B70D2094A701BF0C0FC6F
:102CA000002010BD10B50A0604D501F07F011BF00D
:102CB000F3FD01E01BF0D2FD002010BD70B50D4604
:102CC0000E0601F07F0404EB840100EBC10102D584
:102CD00001F58E7101E001F55D71ED090C704D702B
:102CE0008A60CB7000D0CC80022B01D100220A7107
:102CF0001BF062FC002070BD10B501F07F0404EBF6
:102D0000840100EBC101C1F88833C1F8802300239E
:102D1000C1F88C3381F8753381F87443C37801F5B9
:102D20005D71012B00D10A6114F0FF0F03D01BF07D
:102D3000CFFC002010BD1BF0D0FBFAE70069002299
:102D400061F30A1201681143016070470A4610B529
:102D5000090602F07F0306D503EB830100EBC101F6
:102D600001F58E7105E002EB820100EBC10101F576
:102D70005D7101248C700B70D2094A701BF090FCBD
:102D8000002010BD70B511F07F0404EB840100EB4E
:102D9000C1014FF0010581F81D5181F81C41C1F8B6
:102DA0002821C1F82C2101F58E714FF00002C1E9F4
:102DB000053203D01BF08CFC002070BD1BF08DFB96
:102DC000FAE700002DE9F041064600241BF0ADFDB6
:102DD000074655E0F80751D03069E1B20369426B0C
:102DE000CA4006EB810102F00102896943EAC2127E
:102DF0008D681540E9071AD00125426B05FA04F1E8
:102E00008A43426306EB8400806985601F48E1B213
:102E10000068426830469047F078012807D134B9FD
:102E200096F81101042802D130461BF0B3FB2807A5
:102E300004D506EB8400082580698560E80604D582
:102E400006EB8400102580698560680604D506EBD2
:102E50008400402580698560A80704D506EB8400BE
:102E6000022580698560280608D52146304600F095
:102E70006CF906EB84018020896988607F08641CF6
:102E8000002FA7D10120BDE8F0810000A0010020A3
:102E90002DE9F041054600241BF04DFD0746DFF803
:102EA000988043E0F8073FD0E1B228461BF049FD87
:102EB0000646C00725D005EB84000126416D8E60D3
:102EC000E97801290CD1406D016904EB840005EB20
:102ED000C000C1F31201D0F87C23511AC0F88C1342
:102EE000D8F80000E1B2026828469047E878012847
:102EF00007D134B995F81101052802D128461BF0F5
:102F000049FBB00704D505EB84000226406D8660BE
:102F1000300709D5D8F8000081682846884705EBB6
:102F200084010820496D88607F08641C002FB9D196
:102F30000120BDE8F0810000A001002070B5054629
:102F4000C068816921F010018161E868066A06F0B5
:102F50000F0000EB800005EBC004C6F3434004F50E
:102F60005D74072821D2DFE800F020200420202013
:102F7000150047F6F070064217D0C6F30A1632461F
:102F80002846E1681BF0E5FCE0683044E060A06999
:102F9000304409E0082205F2CC5128461BF0D9FC48
:102FA000A069C6F30A110844A061E868816941F08C
:102FB00010018161012070BD38B5044600208DF8F4
:102FC000000094F812018DF800001548006841696E
:102FD0002046884720698068E2684FF400615161AB
:102FE000A17AD1B1C00718D094F81501012814D1E5
:102FF0009DF80000032810D1D4F80C01016841F0BD
:1030000001010160D4F80C01016841F00301016085
:103010000448016841F006010160012038BD00004C
:10302000A001002010ED00E070B504460069002505
:103030000126416821F001014160294620461BF02C
:103040002BFC0020FF2206E004EB80018B699A60D4
:10305000496D8A60401C61788142F5D821694FF042
:10306000FF3088612846216966F30F0066F31F4030
:10307000C861216945F00B0048612169C1F88400ED
:10308000216945F00B0008612169486420690168E5
:1030900021F4FE61016020461BF07CFAE1684FF4E8
:1030A0008050486103480068016920468847012034
:1030B00070BD0000A001002070B504461BF05AFC52
:1030C0000120002384F8120184F814311A464025A7
:1030D00010E002EB820104EBC10181F81D0181F8CF
:1030E0001C21A1F8222181F81F31C1E94953521C4A
:1030F000C1F8303161789142EBD8002010E000EB4C
:10310000800104EBC10181F8753381F87403A1F8E3
:103110007A0381F87733C1E9DF53401CC1F8883363
:1031200061788142EBD820461BF0B2F920461BF0B3
:103130008FF8002120461BF07DFC20461BF0C8F8CC
:103140002046BDE870401BF081BB2DE9F0470E46DC
:1031500001EB860100EBC1048046D4E94C01401A22
:10316000D4F8241104F58E74814200D20846C01CA4
:10317000870808EB86091EE0451AA068A84200D21D
:103180000546E81C8708ABB2F2B24046E1681BF086
:1031900066FCE0682844E060A0692844A061616999
:1031A000884208D3207801218140D8F81000426B72
:1031B0008A4342630BE0D9F81800806980B2B842B4
:1031C00005D9D4E90501814201D20028D4D10120DA
:1031D000BDE8F0872DE9F04115460C468046154EB6
:1031E0004FF4207719E0802A0BD21348B0612146B2
:1031F00040460CF089FBB0696D1C8088204484B285
:103200000BE00E48B0612A46214640460CF092FB86
:10321000B069AD1C8088204484B2BC4208D22A78B0
:10322000002A05D0B0698088011989B28142DAD2BA
:10323000BDE8F081600000209C000020CC00002050
:103240002DE9F04115460C468046154E4FF4207787
:1032500019E0802A0BD21348B061214640460CF099
:1032600053FBB0696D1C8088204484B20BE00E488B
:10327000B0612A462146404600F018F8B069AD1CFE
:103280008088204484B2BC4208D22A78002A05D023
:10329000B0698088011989B28142DAD2BDE8F08133
:1032A000600000208C000020DC0000202DE9F041AF
:1032B00016460F46804600240D4D0FE032788A42B4
:1032C0000AD105EB400271785078814204D1394629
:1032D0004046921C0CF0FAFB641CA4B2C4EBC40080
:1032E00000EB400015F810108029E7D8BDE8F08108
:1032F0008DC002082DE9F04115460C468046154E5A
:103300004FF4207719E0802A0BD21348B061214690
:1033100040460CF0F9FAB0696D1C8088204484B2F4
:103320000BE00E48B0612A462146404600F018F8EE
:10333000B069AD1C8088204484B2BC4208D22A788F
:10334000002A05D0B0698088011989B28142DAD299
:10335000BDE8F08160000020B4000020D40000200F
:103360002DE9F04116460F46804600240C4D0EE034
:1033700032788A4209D1421971785078814204D159
:1033800039464046921C0CF0A1FB641CA4B204EB2D
:103390008400C0EB8410295C8029E9D8BDE8F08165
:1033A0000AAC02082DE9F04115460C468046154E40
:1033B0004FF4207719E0802A0BD21348B0612146E0
:1033C00040460CF0A1FAB0696D1C8088204484B29C
:1033D0000BE00E48B0612A4621464046FFF7C0FF89
:1033E000B069AD1C8088204484B2BC4208D22A78DF
:1033F000002A05D0B0698088011989B28142DAD2E9
:10340000BDE8F08160000020BC000020D400002056
:103410002DE9F041204E15460C4680466BB3012B3A
:1034200038D1882108460CF0B7FE28239022414667
:1034300020460CF0D5FBBDE8F04188216FF07F40BD
:103440000CF0AABE802A0BD21448B0612146404637
:103450000CF05AFAB0696D1C8088204484B20EE0EA
:103460000F48B0612A46214640460CF063FAB06925
:10347000AD1C8088204484B201E04FF42077BC4228
:1034800008D22A78002A05D0B0698088011989B24B
:103490008142D7D2BDE8F08160000020A400002066
:1034A000CC0000202DE9F041204E15460C46804608
:1034B0006BB3012B38D1882108460CF06DFE1C231C
:1034C0006022414620460CF08BFBBDE8F04188218C
:1034D0006FF07F400CF060BE802A0BD21448B061C0
:1034E000214640460CF010FAB0696D1C80882044DB
:1034F00084B20EE00F48B0612A46214640460CF0E7
:1035000019FAB069AD1C8088204484B201E04FF400
:103510002077BC4208D22A78002A05D0B06980887A
:10352000011989B28142D7D2BDE8F0816000002044
:10353000AC000020CC0000202DE9F041204E1546C3
:103540000C4680466BB3012B38D1882108460CF01D
:1035500023FE14233222414620460CF041FBBDE8F5
:10356000F04188216FF07F400CF016BE802A0BD20C
:103570001448B061214640460CF0C6F9B0696D1C94
:103580008088204484B20EE00F48B0612A4621466C
:1035900040460CF0CFF9B069AD1C8088204484B25D
:1035A00001E04FF42077BC4208D22A78002A05D0E7
:1035B000B0698088011989B28142D7D2BDE8F08113
:1035C0006000002094000020CC00002010B50121F4
:1035D000CC0520460EF0E0F92046BDE81040002161
:1035E0000EF0DAB9034A0146002052680A4200D0C0
:1035F0000120704700B0024030B52A4B0024196802
:10360000294A114019601968026811431960596B01
:1036100021F007015963596B4268114359634168AE
:1036200041B301292DD0022930D00329C16832D0FD
:103630000A0101694469090224038568214315438D
:103640000D43996B0D439D638169D963196C6FF3C9
:103650000D011964196CC26911431964818C5A6C8B
:1036600002F040425A645A6C006A024342EA014244
:103670005A6430BDC168047D0A02018A0904240627
:10368000DBE7C1680A02018A0904D6E7C1684A017A
:103690000169C902D1E74A01016944698902E40369
:1036A000CBE7000000B00240FCE0FCFF02480168EC
:1036B00041F001010160704700B00240002901683B
:1036C00002D041F0010101E021F0010101607047E9
:1036D00030B50368124ACC6813400A682243D1E926
:1036E00005452C432243CC6922430C6A22434C6A91
:1036F00022438C6A22434C6B22438C6B22431A4335
:103700000260426922F00703D1E90B2422431A43E5
:1037100042610A6942604A6882608968C16030BD5E
:103720003F801CF00548407A052803D0062801D0C8
:10373000082802D102A01CF0ADBF7047E8000020AD
:103740002E0000002DE9F04FF74CF84D2146607A2D
:1037500091F80AC09FB0092860D2DFE810F0090094
:103760008C115F005F00360B480CC9125F00F30F2D
:10377000ED484FF4CD764FF48177C17AEB484FF4A2
:10378000BF794FF4FD7A90F82D2090F827301E93E2
:10379000C37F1D93C37D1C93C37B1B9390F826307E
:1037A0001A93837F1993837D1893837B179390F8E3
:1037B00025301693437F1593437D1493437B1393D6
:1037C00090F824301293037F1193037D1093037BB1
:1037D0000F9390F823300E93C37E0D93C37C0C930C
:1037E000C37A0B9390F822300A93837E0993837CEB
:1037F0000893837A079390F821300693437E0593CC
:10380000437C0493437A039390F820E090F818B037
:10381000037C007ABCF1290F9ED200E0C0E0DFE813
:103820001CF02900C20045011F02A102300303045D
:1038300093041C05C105140651068E06CD060F071C
:1038400051079307D60700082E0858088408B208C5
:10385000E0080E093C0954096C0984099D09B7095F
:10386000D109EB09030A1C0A350A4E0A680A830AC1
:103870009E0AB90AAE480CF0A5FC88200CF086FC24
:1038800095F82900022810D0012810D0032810D064
:10389000042810D0052810D0062810D0072810D0F2
:1038A000082810D0092810D014E0A2A20EE0A3A28C
:1038B0000CE0A4A20AE0A5A208E0A6A206E0A7A246
:1038C00004E0A8A202E0A9A200E0AAA264212F209D
:1038D0000CF054F895F82D0038B1012838D00228A2
:1038E0005ED1E07A00284AD051E0E07A40B1012868
:1038F0000BD002280ED0032811D0042814D01CE0CD
:1039000028781CF05BFE9DA213E0287A1CF056FE7E
:103910009BA20EE0287C1CF051FE9AA209E0287EB2
:103920001CF04CFE98A204E095F820001CF046FE26
:1039300096A20A2164200CF057F895F8300028B1BF
:1039400093A002F025FC012001F03DBA93A0F8E716
:10395000E07A10B1012805D019E028781CF02EFE7D
:1039600086A203E0287E1CF029FE87A20A2164209B
:10397000FFF730FC0BE089A010E085A00EE028786E
:103980001CF01CFE7DA20A216420FFF759FC0120D7
:10399000A07295F830000028EFD1ECE702F0F8FBB8
:1039A0001FB0BDE8F08F614F02263F7832B1012A87
:1039B0004FD0022AF4D100296AD06CE241B101292A
:1039C0000BD002290DD0032910D0042913D0F4E71D
:1039D00038461CF0BBFD69A211E01CF0B7FD68A2DF
:1039E0000DE018461CF0B2FD66A208E058461CF037
:1039F000ADFD65A203E070461CF0A8FD63A20A219C
:103A000064200BF0F1FFE07A40B101280BD00228CE
:103A10000ED0032811D0042814D0CEE768781CF00B
:103A2000CDFD61A213E0687A1CF0C8FD5FA20EE034
:103A3000687C1CF0C3FD5EA209E0687E1CF0BEFD40
:103A40005CA204E095F821001CF0B8FD5AA20A21FE
:103A500078E211B101290DD0AFE738461CF076FDB0
:103A600046A20A216420FFF7B5FB68781CF0A6FD8A
:103A70004DA20BE058461CF069FD43A20A216420C8
:103A8000FFF7A8FB687E1CF099FD4AA20A21F7E324
:103A900038461CF05BFD39A20A216420FFF7D0FBF9
:103AA00068781CF08BFD40A20A21EAE31F48032638
:103AB000407832B1012A36D0022A7FF471AF81B347
:103AC0007BE741B101290AD002290DD0032910D08A
:103AD000042913D071E71CF039FD33A212E00398DA
:103AE0001CF034FD31A20DE004981CF02FFD30A233
:103AF00008E005981CF02AFD2EA203E006981CF0B1
:103B000025FD2DA20A21AA200BF06EFFE07A48B114
:103B1000012858D002285BD003285ED0042861D049
:103B20004BE78CE04AE067E0E80000206C030020EF
:103B300000FFFF0054432D4B0000000054432D5460
:103B40000000000054432D4A0000000054432D4E55
:103B50000000000054432D450000000054432D5345
:103B60000000000054432D520000000054432D4239
:103B7000000000005054313030000000303031007F
:103B800030303900303137003032350030333300D7
:103B90004368616E6E656C2073657400CDA8B5C016
:103BA000C9E8D6C3000000003030320030313000A8
:103BB000303138003032360030333400A8781CF011
:103BC000FDFCF8A213E0A87A1CF0F8FCF6A20EE0C7
:103BD000A87C1CF0F3FCF5A209E0A87E1CF0EEFC2A
:103BE000F3A204E095F822001CF0E8FCF1A20A21FF
:103BF00077E20BF0F9FEE0E611B101290DD0DCE629
:103C00001CF0A4FCAFF260020A218C20FFF7E2FA5C
:103C1000A8781CF0D3FCE3A20CE005981CF096FCFD
:103C2000AFF270020A218C20FFF7D4FAA87E1CF0B4
:103C3000C5FCDFA20A21F0E3FFF7CCFABDE61CF0D9
:103C400085FCAFF29C020A218C20FFF7F9FAA878D4
:103C50001CF0B4FCD3A20A21F6E3FFF7F1FAACE6BC
:103C6000D5480426807832B1012A50D0022A7FF448
:103C700097AE81B3A1E641B101290AD002290DD046
:103C8000032910D0042913D097E61CF05FFCC5A2CD
:103C900012E007981CF05AFCC3A20DE008981CF033
:103CA00055FCC2A208E009981CF050FCC0A203E039
:103CB0000A981CF04BFCBFA20A21F0200BF094FEE6
:103CC000E07A48B101280CD002280FD0032812D086
:103CD000042815D071E638E0E8781CF06FFCB7A234
:103CE00013E0E87A1CF06AFCB5A20EE0E87C1CF058
:103CF00065FCB4A209E0E87E1CF060FCB2A204E01E
:103D000095F823001CF05AFCB0A20A2174E211B10C
:103D100001290CD051E61CF019FCA2A20A21B42002
:103D2000FFF758FAE8781CF049FCA4A20BE00998C8
:103D30001CF00CFC9EA20A21B420FFF74BFAE87E8F
:103D40001CF03CFCA0A20A21E6E31CF0FFFB95A2BC
:103D50000A21B420FFF774FAE8781CF02FFC97A230
:103D60000A21EAE39448C07832B1012A55D0022AE8
:103D70007FF416AEF1B371E041B101290AD00229F6
:103D80000DD0032910D0042913D01BE01CF0DEFB5A
:103D90008AA212E00B981CF0D9FB89A20DE00C98C6
:103DA0001CF0D4FB87A208E00D981CF0CFFB86A284
:103DB00003E00E981CF0CAFB84A20A214FF49B700A
:103DC0000BF012FE00200CF0FDF981480CF0DEF93A
:103DD00095F82900022872D0012871D0032870D0EC
:103DE00004286FD005286ED006286DD007286CD027
:103DF000082800E034E069D0092868D003E0642195
:103E00002F200BF0BBFD95F8300008B171A000E049
:103E100077A002F0BDF9002096E511B101290CD080
:103E20001CE01CF093FB65A20A21DC20FFF7D2F90D
:103E300028791CF0C3FB72A20BE00D981CF086FBE6
:103E400061A20A21DC20FFF7C5F9287F1CF0B6FB30
:103E50006CA20A214FF48270FFF7BCF9052073E5CC
:103E60001CF074FB55A20A21DC20FFF7E9F9287940
:103E70001CF0A4FB62A20A214FF48270FFF7E0F964
:103E8000ECE74D480626007932B1012A5CD0022ABF
:103E90007FF486ADD1B38BE241B101290AD002296A
:103EA00016D0032919D004291CD081E21CF04EFB46
:103EB00053A21BE00F981CF049FB53A216E056E2F8
:103EC00058E25AE25CE25EE260E262E264E266E2EA
:103ED00010981CF03BFB4DA208E011981CF036FB3B
:103EE00048A203E012981CF031FB49A24FF4A571DF
:103EF00064200BF079FDE07A48B101280CD002284B
:103F00000FD0032812D0042815D051E23CE0687984
:103F10001CF054FB3FA213E0687B1CF04FFB3EA259
:103F20000EE0687D1CF04AFB3CA209E0687F1CF0B3
:103F300045FB3BA204E095F825001CF03FFB39A2AD
:103F40004FF4A571AA2054E611B101290DD02FE23A
:103F50001CF0FCFA2AA20A214FF48270FFF73AF90A
:103F600068791CF02BFB2BA20CE011981CF0EEFAE8
:103F700024A20A214FF48270FFF72CF9687F1CF00D
:103F80001DFB27A20A2145E31CF0E0FA1CA20A212E
:103F90004FF48270FFF754F968791CF00FFB1DA2F3
:103FA0000A214AE3303033003031310030313900FA
:103FB00030323700303335006C03002030303400AD
:103FC0003031320030323000303238003033360099
:103FD00000FFFF00546865726D6F636F75706C65EC
:103FE000206D6F64656C2073656C65637400000000
:103FF000C8C8B5E7C5BCD0CDBAC5D1A1D4F10000C1
:104000003030350030323900303133003032310059
:104010003033370030303600303134003032320047
:104020003033300030333800FC480726407932B155
:10403000012A58D0022A7FF4B3ACB1B38EE341B168
:1040400001290BD002290FD0032913D0042917D03E
:1040500084E31CF07BFAAFF2440216E013981CF0E4
:1040600075FAAFF24C0210E014981CF06FFAAFF240
:1040700054020AE015981CF069FAAFF25C0204E001
:1040800016981CF063FAAFF264024FF4A571AA20EF
:104090000BF0AAFCE07A48B101280CD002280FD01E
:1040A000032812D0042815D058E33EE0A8791CF06C
:1040B00085FADBA213E0A87B1CF080FAD9A20EE0FF
:1040C000A87D1CF07BFAD8A209E0A87F1CF076FA44
:1040D000D6A204E095F826001CF070FAD4A24FF4A2
:1040E000A571F02085E511B101290ED036E31CF051
:1040F0002DFAAFF2E0020A214FF49670FFF76AF84A
:10410000A8791CF05BFAC6A20DE015981CF01EFA07
:10411000AFF2F4020A214FF49670FFF75BF8A87F24
:104120001CF04CFAC1A20A21B6E21CF00FFAAFF261
:104130001C120A214FF49670FFF782F8A8791CF040
:104140003DFAB7A20A21BAE2B4480826807932B112
:10415000012A54D0022A7FF423AC89B3FEE241B194
:1041600001290AD002290DD0032910D0042913D027
:10417000F4E21CF0EBF9AAA212E017981CF0E6F9A1
:10418000A8A20DE018981CF0E1F9A7A208E0199880
:104190001CF0DCF9A5A203E01A981CF0D7F9A4A240
:1041A0004FF4A571F0200BF01FFCE07A48B1012814
:1041B0000CD002280FD0032812D0042815D0CDE24D
:1041C0003DE0E8791CF0FAF99AA213E0E87B1CF0D4
:1041D000F5F999A20EE0E87D1CF0F0F997A209E04C
:1041E000E87F1CF0EBF996A204E095F827001CF09C
:1041F000E5F994A24FF4A5714FF49B70F9E411B165
:1042000001290DD0AAE21CF0A1F985A20A214FF4E0
:10421000AA70FEF7DFFFE8791CF0D0F985A20CE068
:1042200019981CF093F981A20A214FF4AA70FEF7A5
:10423000D1FFE87F1CF0C2F981A20A216EE21CF0D6
:1042400085F977A20A214FF4AA70FEF7F9FFE87901
:104250001CF0B4F977A20A2173E27048C0798AB1E0
:10426000012A64D0022A7FF49BAB0029FBD11CF009
:104270006DF970A20A214FF4BE70FEF7E1FFA1E5CF
:10428000B9E0C8E041B301292AD002292DD0032981
:1042900030D004297FF46FAD1E981CF057F969A245
:1042A0004FF4A5714FF49B700BF09EFBE07A30B396
:1042B00001282AD002282ED0032832D00428E9D1A0
:1042C00095F824001CF07AF9AFF2BC224FF4A571E6
:1042D00064200BF089FBC1E51CF038F955A2DFE73B
:1042E0001B981CF033F954A2DAE71C981CF02EF945
:1042F00052A2D5E71D981CF029F951A2D0E72879E0
:104300001CF05CF9AFF20832E0E7287B1CF056F9AC
:10431000AFF20C32DAE7287D1CF050F9AFF214321C
:10432000D4E7287F1CF04AF9AFF22832CEE7A9B1D2
:10433000012998D11D981CF009F941A20A214FF4D6
:10434000BE70FEF747FF287E1CF038F9AFF2C87246
:104350000A216420FEF73EFFFFF7F5BA1CF0F6F8DD
:1043600034A20A214FF4BE70FEF734FF2AE5AFF6FF
:104370003C0244E5AFF63C0241E5AFF638023EE5CB
:10438000AFF638023BE5AFF6340238E5AFF634025B
:1043900035E5AFF6300232E5AFF630022FE5AFF685
:1043A0002C022CE50A26012A03D0022AC1D121B30E
:1043B000D4E111B101290ED0D0E11CF0C7F8AFF65D
:1043C0004002D2216420FEF705FF687A1CF0F6F85F
:1043D000AFF628020EE070461CF0B8F8AFF65402B3
:1043E000D2216420FEF7F6FE95F821001CF0E6F8D5
:1043F000AFF63C02D2218C201EE41CF0A7F8AFF6E9
:10440000800286216420FEF71BFF687A1CF0D6F834
:10441000AFF6680286218C201FE440E06C03002088
:104420003030370030313500303233003033310036
:10443000303339003030380030313600303234001B
:1044400030333200303430003AE00B26012A03D0FA
:10445000022AABD129B381E111B101290FD07DE14D
:1044600003981CF073F8AFF6BC02D2218C20FEF743
:10447000B1FEA87A1CF0A2F8AFF2D4420EE0069882
:104480001CF064F8AFF6D002D2218C20FEF7A2FE19
:1044900095F822001CF092F8AFF2E842D221B42045
:1044A000AAE703981CF052F8AFF6001286218C2080
:1044B000FEF7C6FEA87A1CF081F8AFF214528621EE
:1044C000B420A9E70C26012A03D0022AC1D129B3BE
:1044D00044E111B101290FD040E107981CF036F8F2
:1044E000AFF23C52D221B420FEF774FEE87A1CF001
:1044F00065F8AFF234520EE00A981CF027F8AFF2DC
:104500004C52D221B420FEF765FE95F822001CF033
:1045100055F8AFF24852D221DC206DE707981CF025
:1045200015F8AFF27C528621B420FEF789FEE87AB6
:104530001CF044F8AFF278528621DC206CE70D269F
:10454000012A03D0022A84D131B307E111B1012934
:104550000FD003E10B981BF0F9FFAFF29C52D22170
:10456000DC20FEF737FE287B1CF028F8AFF26852FB
:104570000EE00E981BF0EAFFAFF2B052D221DC2021
:10458000FEF728FE95F824001CF018F8AFF28052D0
:10459000D2214FF482702FE70B981BF0D7FFAFF2B8
:1045A000E0528621DC20FEF74BFE287B1CF006F84B
:1045B000AFF2AC5286214FF482702DE70E26012A0D
:1045C00003D0022ABFD141B3C8E011B1012910D0F4
:1045D000C4E00F981BF0BAFFAFF2D452D2214FF4CF
:1045E0008270FEF7F7FD687B1BF0E8FFAFF2D85250
:1045F0000FE012981BF0AAFFAFF2EC52D2214FF459
:104600008270FEF7E7FD95F825001BF0D7FFAFF2AB
:10461000EC52D2214FF49670EEE60F981BF096FF05
:10462000AFF21C6286214FF48270FEF709FE687BB0
:104630001BF0C4FFAFF2206286214FF49670EBE6C8
:104640000F26012A03D0022ABCD141B386E011B162
:10465000012910D082E013981BF078FFAFF2486276
:10466000D2214FF49670FEF7B5FDA87B1BF0A6FF94
:10467000AFF250220FE016981BF068FFAFF25C62B9
:10468000D2214FF49670FEF7A5FD95F826001BF099
:1046900095FFAFF26422D2214FF4AA70ACE61398D2
:1046A0001BF054FFAFF2906286214FF49670FEF734
:1046B000C7FDA87B1BF082FFAFF2982286214FF442
:1046C000AA70A9E61026012A03D0022ABCD141B360
:1046D00044E011B1012910D040E017981BF036FFDB
:1046E000AFF2C022D2214FF4AA70FEF773FDA87B6F
:1046F0001BF064FFAFF2C0220FE01A981BF026FFF8
:10470000AFF2D422D2214FF4AA70FEF763FD95F8E0
:1047100027001BF053FFAFF2D422D2214FF4BE701A
:104720006AE617981BF012FFAFF2083286214FF4A9
:10473000AA70FEF785FDE87B1BF040FFAFF2083260
:1047400086214FF4BE7067E60926012A03D0022AAB
:10475000BCD151B302E029B1012913D0A6721FB018
:10476000BDE8F08F1B981BF0F1FEAFF23432D2217E
:104770004FF4BE70FEF72EFD287A1BF01FFFAFF638
:1047800000420FE01E981BF0E1FEAFF24832D2214A
:104790004FF4BE70FEF71EFD95F820001BF00EFFD3
:1047A000AFF61842D221642026E61B981BF0CEFEFD
:1047B000AFF27C3286214FF4BE70FEF741FD287ABD
:1047C0001BF0FCFEAFF648428621642024E64FF041
:1047D0001208012A03D0022AC1D189B136E1184654
:1047E0001BF0B4FEAFF6644231466420FEF7F2FCE3
:1047F000687C1BF0E3FEAFF6484231468C2028E08F
:1048000018461BF0A3FEAFF6844239466420FEF73B
:1048100017FD687C1BF0D2FEAFF66C4239468C2047
:104820002AE04FF01308012A03D0022A97D199B148
:104830000CE104981BF08AFEAFF68C4231468C20C6
:10484000FEF7C8FCA87C1BF0B9FEAFF6A00231460B
:10485000B420FEF7BFFCF9E004981BF077FEAFF63A
:10486000B04239468C20FEF7EBFCA87C1BF0A6FE7C
:10487000AFF6C8023946B420FEF7E2FCE6E04FF09E
:104880001408012A03D0022AA6D189B1DEE00898D3
:104890001BF05CFEAFF6EC023146B420FEF79AFC4A
:1048A000E87C1BF08BFEAFF6E4023146DC20D0E75B
:1048B00008981BF04BFEAFF60C123946B420FEF7F9
:1048C000BFFCE87C1BF07AFEAFF608123946DC200C
:1048D000D2E74FF01508012A03D0022AA6D191B1E0
:1048E000B4E00C981BF032FEAFF628123146DC2003
:1048F000FEF770FC287D1BF061FEAFF6F00231463A
:104900004FF48270A5E70C981BF020FEAFF64C1216
:104910003946DC20FEF794FC287D1BF04FFEAFF6F5
:10492000141239464FF48270A6E74FF01608012A98
:1049300003D0022AA8D199B188E010981BF006FE96
:10494000AFF6381231464FF48270FEF743FC687DB3
:104950001BF034FEAFF63C1231464FF4967078E708
:1049600010981BF0F3FDAFF65C1239464FF48270DD
:10497000FEF766FC687D1BF021FEAFF6601239463B
:104980004FF4967078E74FF01708012A03D0022AF7
:10499000A4D199B15AE014981BF0D8FDAFF6841257
:1049A00031464FF49670FEF715FCA87D1BF006FE0D
:1049B000AFF28C5231464FF4AA704AE714981BF0BC
:1049C000C5FDAFF6A81239464FF49670FEF738FCD5
:1049D000A87D1BF0F3FDAFF2B05239464FF4AA7038
:1049E0004AE74FF01808012A03D0022AA2D199B150
:1049F0002CE018981BF0AAFDAFF2D45231464FF4C8
:104A0000AA70FEF7E7FBE87D1BF0D8FDAFF2D452A9
:104A100031464FF4BE701CE718981BF097FDAFF2BB
:104A2000F85239464FF4AA70FEF70AFCE87D1BF0F5
:104A3000C5FDAFF2F85239464FF4BE701CE74FF097
:104A40001108012A05D0022AA2D1A1B184F80A8056
:104A500085E61C981BF07AFDAFF2206231464FF4D8
:104A6000BE70FEF7B7FB287C1BF0A8FDAFF6EC622A
:104A700031466420EDE61C981BF068FDAFF24462FD
:104A800039464FF4BE70FEF7DBFB287C1BF096FD29
:104A9000AFF6107239466420EEE6022AD8D191B9F9
:104AA00058461BF053FDAFF620724E46494664202F
:104AB000FEF7C6FB687E1BF081FDAFF6087231463B
:104AC0008C20FEF7BDFB1A207DE1022AC0D191B9EE
:104AD00005981BF03BFDAFF624724E4649468C20EC
:104AE000FEF7AEFBA87E1BF069FDAFF63C32314607
:104AF000B420FEF7A5FB1B2065E1022AA8D191B9DD
:104B000009981BF023FDAFF658324E464946B420B3
:104B1000FEF796FBE87E1BF051FDAFF654323146AE
:104B2000DC20FEF78DFB1C204DE1022A90D199B9C3
:104B30000D981BF00BFDAFF670324E464946DC2057
:104B4000FEF77EFB287F1BF039FDAFF64832314679
:104B50004FF48270FEF774FB1D2034E1022A9DD1D0
:104B6000A1B911981BF0F2FCAFF668324E464946E7
:104B70004FF48270FEF764FB687F1BF01FFDAFF6F9
:104B8000603231464FF49670FEF75AFB1E201AE150
:104B9000022A9BD1A1B915981BF0D8FCAFF6803240
:104BA0004E4649464FF49670FEF74AFBA87F1BF02D
:104BB00005FDAFF2887231464FF4AA70FEF740FB54
:104BC0001F2000E1022A99D1A1B919981BF0BEFC5F
:104BD000AFF2A8724E4649464FF4AA70FEF730FB7A
:104BE000E87F1BF0EBFCAFF2A87231464FF4BE70C9
:104BF000FEF726FB2020E6E0022A97D191B91D9806
:104C00001BF0A4FCAFF2C8724E4649464FF4BE708A
:104C1000FEF716FB287E1BF0D1FCFE4A31466420CD
:104C2000FEF70EFB1920CEE0022A98D199B9704602
:104C30001BF08CFCF74A5646121D51466420FEF7C5
:104C4000FFFA95F821001BF0B9FCF24A31463032E8
:104C50008C20FEF7F5FA2220B5E0022A99D199B905
:104C600006981BF073FCEB4A5646303251468C20B6
:104C7000FEF7E6FA95F822001BF0A0FCAFF6CC4256
:104C80003146B420FEF7DCFA23209CE0022A9AD1B8
:104C900099B90A981BF05AFCAFF6E84256465146BD
:104CA000B420FEF7CDFA95F823001BF087FCAFF691
:104CB000E4423146DC20FEF7C3FA242083E0022AD6
:104CC0009BD1A1B90E981BF041FCAFF6005256469D
:104CD0005146DC20FEF7B4FA95F824001BF06EFC78
:104CE000AFF6D44231464FF48270FEF7A9FA252080
:104CF00069E0022A99D1A9B912981BF027FCAFF6F6
:104D0000F042564651464FF48270FEF799FA95F8F4
:104D100025001BF053FCAFF6F44231464FF4967079
:104D2000FEF78EFA26204EE0022A97D1A9B91698EE
:104D30001BF00CFCAFF61452564651464FF49670D9
:104D4000FEF77EFA95F826001BF038FCAFF620122D
:104D500031464FF4AA70FEF773FA272033E0022A97
:104D600095D1A9B91A981BF0F1FBAFF63C12564643
:104D700051464FF4AA70FEF763FA95F827001BF02E
:104D80001DFCAFF6401231464FF4BE70FEF758FAE4
:104D9000282018E0022A93D1A1B91E981BF0D6FB57
:104DA000AFF66012564651464FF4BE70FEF748FA11
:104DB00095F820001BF002FC964A3146121D642033
:104DC000FEF73EFA2120A072C9E4BCF12C0F14D0EA
:104DD000BCF12D0F46D0BCF12E0F72D0BCF1310FBB
:104DE000F2D11BF0D5FB95F82E004FF4FA7678B38C
:104DF000012867D0022867D0D2E01BF0C9FB95F8E4
:104E00002C00002895F830001BD0F8B182A2962122
:104E100032200AF0B3FD1BF0E1FB95F82A000028D0
:104E200095F8300015D0C8B17BA296215A200AF01F
:104E3000A5FD95F8300098B178A001F0A9F92D20D2
:104E4000C1E708B179A2E2E779A2E0E77AA2DEE75A
:104E500090E008B175A2E8E775A2E6E776A2E4E77C
:104E600077A0EAE71BF094FB95F82A00002895F854
:104E700030002AD038B368A296215A200AF07EFD6D
:104E8000724801460BF088F91F2318227F219620D3
:104E90000AF0A6FE95F82B0005281DD004284FF037
:104EA000000023D00BF08EF969A29B217F200AF02D
:104EB00065FD95F8300010B366A001F069F92E2069
:104EC00081E71EE05DE005E062E008B157A2D3E7AC
:104ED00057A2D1E758A2CFE700200BF073F963A2E5
:104EE00096217F20FEF7ACF961A2DEE70BF06AF9AC
:104EF0005EA296217F20FEF7A3F94BA2D5E75DA025
:104F0000DBE7882108460BF047F91F2318227F2191
:104F100096200AF065FE95F82B00052815D0042888
:104F20004A481CD00BF04EF949A29B217F200AF081
:104F300025FD95F83500303521F014F82878B8B102
:104F400050A001F025F933203DE740480BF03AF935
:104F500046A296217F20FEF773F945A2E5E70BF004
:104F600031F942A296217F20FEF76AF92EA2DCE7F2
:104F700048A0E6E795F8300008B14AA20CE04BA241
:104F80000AE095F8300008B14AA205E04AA203E021
:104F900095F8300090B14AA2314632200AF0EEFC7A
:104FA0001BF01CFB95F82F0050B101280AD00228F5
:104FB0000AD003280AD004280AD00EE042A2EBE768
:104FC00043A206E044A204E045A202E046A200E0BB
:104FD00047A2314657200AF0D1FC95F8300020B1A5
:104FE00045A001F0D5F83220EDE648A0F9E74B4E98
:104FF000494D4B48D6ED214A96ED194A407BD6EDF6
:10500000113A96ED093AD6ED012A95ED212AD5ED12
:10501000191A87E0883B00084F4E000042757A7AE3
:105020006572204F4E2F4F46460000004F46460007
:10503000B9D8B1D500000000B4F2BFAA000000004A
:10504000B7E4C3F9C6F7C9E8D6C3000000FFFF0004
:105050004B00000053656C6563742074656D70656A
:1050600072617475726520756E6974006F0000005E
:1050700043000000CEC2B6C8B5A5CEBBD1A1D4F1C5
:10508000000000005265636F726420696E7465727F
:1050900076616C00BCC7C2BCBCE4B8F4CAB1BCE465
:1050A000000000004641535400000000BFECCBD983
:1050B000000000004D454400D6D0CBD900000000D0
:1050C000534C4F5700000000C2FDCBD90000000038
:1050D0003936303000000000313932303000000005
:1050E00033383430300000003537363030000000BF
:1050F000313135323030000053656C6563742042C5
:10510000617564207261746500000000B2A8CCD89B
:10511000C2CAC9E8D6C30000400C0020A00B002082
:10512000E800002095ED111AD5ED090A95ED010A68
:10513000ACF1380CBCF10F0FBFF48AACDFE80CF017
:10514000093D71A7DDEFEE08EDECEBEAE9E8E700D9
:105150007EE440B101280CD0022812D0032818D0D8
:1051600004281ED027E002201BF062FE95ED000A05
:105170001EE0B0EE600A02201BF05AFE95ED080A10
:1051800016E0B0EE410A02201BF052FE95ED100A27
:105190000EE0B0EE610A02201BF04AFE95ED180AFF
:1051A00006E0B0EE420A02201BF042FE95ED200A16
:1051B00001201BF0AFFD392005E640B101280CD0DD
:1051C000022812D0032818D004281ED027E002207D
:1051D0001BF0A0FD95ED020A1EE0B0EE600A022071
:1051E0001BF098FD95ED0A0A16E0B0EE410A022088
:1051F0001BF090FD95ED120A0EE0B0EE610A022060
:105200001BF088FD95ED1A0A06E0B0EE420A022076
:105210001BF080FD95ED220A03201BF009FE3A20C9
:10522000D1E540B101280ED0022814D003281AD0AD
:10523000042820D029E095ED020A03201BF06AFD26
:1052400095ED030A1EE095ED0A0A03201BF062FDAE
:1052500095ED0B0A16E095ED120A03201BF05AFD9E
:1052600095ED130A0EE095ED1A0A03201BF052FD8E
:1052700095ED1B0A06E095ED220A03201BF04AFD7E
:1052800095ED230A04201BF0D3FD3B209BE540B1A4
:1052900001280ED0022814D003281AD0042820D0C8
:1052A00029E095ED030A04201BF034FD95ED040A76
:1052B0001EE095ED0B0A04201BF02CFD95ED0C0A69
:1052C00016E095ED130A04201BF024FD95ED140A59
:1052D0000EE095ED1B0A04201BF01CFD95ED1C0A49
:1052E00006E095ED230A04201BF014FD95ED240A39
:1052F00005201BF09DFD3C2065E588B1012817D0F5
:1053000002281DD0032823D0042829D032E0E3E16D
:10531000ACE175E13EE107E1D0E099E062E02BE02D
:1053200095ED040A05201BF0F5FC95ED050A1EE03D
:1053300095ED0C0A05201BF0EDFC95ED0D0A16E02D
:1053400095ED140A05201BF0E5FC95ED150A0EE01D
:1053500095ED1C0A05201BF0DDFC95ED1D0A06E00D
:1053600095ED240A05201BF0D5FC95ED250A0620B5
:105370001BF05EFD3D2026E540B101280ED002283D
:1053800014D003281AD0042820D029E095ED050A6E
:1053900006201BF0BFFC95ED060A1EE095ED0D0AF8
:1053A00006201BF0B7FC95ED0E0A16E095ED150AE8
:1053B00006201BF0AFFC95ED160A0EE095ED1D0AD8
:1053C00006201BF0A7FC95ED1E0A06E095ED250AC8
:1053D00006201BF09FFC95ED260A07201BF028FDF8
:1053E0003E20F0E440B101280ED0022814D003285A
:1053F0001AD0042820D029E095ED060A07201BF0DA
:1054000089FC95ED070A1EE095ED0E0A07201BF0BA
:1054100081FC95ED0F0A16E095ED160A07201BF0AA
:1054200079FC95ED170A0EE095ED1E0A07201BF09A
:1054300071FC95ED1F0A06E095ED260A07201BF08A
:1054400069FC95ED270A08201BF0F2FC3F20BAE426
:1054500040B101280ED0022814D003281AD0042805
:1054600020D029E0B0EE620A02201BF0A1FB96EDED
:10547000000A1EE0B0EE430A02201BF099FB96EDF5
:10548000080A16E0B0EE630A02201BF091FB96EDCD
:10549000100A0EE0B0EE440A02201BF089FB96EDE4
:1054A000180A06E0B0EE640A02201BF081FB96EDBC
:1054B000200A01201BF0E6FA412084E440B10128D3
:1054C0000ED0022814D003281AD0042820D029E0B6
:1054D000B0EE620A02201BF0D5FA96ED020A1EE039
:1054E000B0EE430A02201BF0CDFA96ED0A0A16E050
:1054F000B0EE630A02201BF0C5FA96ED120A0EE028
:10550000B0EE440A02201BF0BDFA96ED1A0A06E03E
:10551000B0EE640A02201BF0B5FA96ED220A0320D1
:105520001BF046FB42204EE440B101280ED0022879
:1055300014D003281AD0042820D029E096ED020ABE
:1055400003201BF09FFA96ED030A1EE096ED0A0A6F
:1055500003201BF097FA96ED0B0A16E096ED120A5F
:1055600003201BF08FFA96ED130A0EE096ED1A0A4F
:1055700003201BF087FA96ED1B0A06E096ED220A3F
:1055800003201BF07FFA96ED230A04201BF010FB8A
:10559000432018E440B101280ED0022814D003287B
:1055A0001AD0042820D029E096ED030A04201BF02D
:1055B00069FA96ED040A1EE096ED0B0A04201BF032
:1055C00061FA96ED0C0A16E096ED130A04201BF022
:1055D00059FA96ED140A0EE096ED1B0A04201BF012
:1055E00051FA96ED1C0A06E096ED230A04201BF002
:1055F00049FA96ED240A05201BF0DAFA44201FE44C
:1056000040B101280ED0022814D003281AD0042853
:1056100020D029E096ED040A05201BF033FA96ED20
:10562000050A1EE096ED0C0A05201BF02BFA96EDFC
:105630000D0A16E096ED140A05201BF023FA96EDEC
:10564000150A0EE096ED1C0A05201BF01BFA96EDDC
:105650001D0A06E096ED240A05201BF013FA96EDCC
:10566000250A06201BF0A4FA452029E440B10128B0
:105670000ED0022814D003281AD0042820D029E004
:1056800096ED050A06201BF0FDF996ED060A1EE0D0
:1056900096ED0D0A06201BF0F5F996ED0E0A16E0C0
:1056A00096ED150A06201BF0EDF996ED160A0EE0B0
:1056B00096ED1D0A06201BF0E5F996ED1E0A06E0A0
:1056C00096ED250A06201BF0DDF996ED260A072047
:1056D0001BF06EFA462037E440B101280ED00228B4
:1056E00014D003281AD0042820D029E096ED060A09
:1056F00007201BF0C7F996ED070A1EE096ED0E0A8B
:1057000007201BF0BFF996ED0F0A16E096ED160A7A
:1057100007201BF0B7F996ED170A0EE096ED1E0A6A
:1057200007201BF0AFF996ED1F0A06E096ED260A5A
:1057300007201BF0A7F996ED270A08201BF038FA7E
:10574000472051E4F64EF748ACF1530C96ED212A70
:10575000807BD6ED191A96ED111AD6ED090A96ED51
:10576000010ABCF1070F6DD2DFE80CF0043872A912
:10577000DFF2F10040B101280CD0022812D003283A
:1057800018D004281ED027E002201BF011FA96ED55
:10579000000A1EE0B0EE600A02201BF009FA96ED46
:1057A000080A16E0B0EE410A02201BF001FA96ED5D
:1057B000100A0EE0B0EE610A02201BF0F9F996ED36
:1057C000180A06E0B0EE420A02201BF0F1F996ED4D
:1057D000200A01201BF056F9542032E040B1012884
:1057E0000CD0022812D0032818D004281ED027E09D
:1057F00002201BF047F996ED020A1EE0B0EE600AA7
:1058000002201BF03FF996ED0A0A16E0B0EE410ABD
:1058100002201BF037F996ED120A0EE0B0EE610A95
:1058200002201BF02FF996ED1A0A06E0B0EE420AAC
:1058300002201BF027F996ED220A03201BF0B8F98D
:105840005520A07295F83000C0B3B7A0FEF7A6B8F7
:1058500040B101280ED0022814D003281AD0042801
:1058600020D029E096ED020A03201BF00BF996EDFB
:10587000030A1EE096ED0A0A03201BF003F996EDD9
:105880000B0A16E096ED120A03201BF0FBF896EDCA
:10589000130A0EE096ED1A0A03201BF0F3F896EDBA
:1058A0001B0A06E096ED220A03201BF0EBF896EDAA
:1058B000230A04201BF07CF95620C2E7D9E040B14E
:1058C00001280ED0022814D003281AD0042820D092
:1058D00029E096ED030A04201BF0D4F896ED040AA3
:1058E0001EE096ED0B0A04201BF0CCF896ED0C0A96
:1058F00016E096ED130A04201BF0C4F896ED140A86
:105900000EE096ED1B0A04201BF0BCF896ED1C0A75
:1059100006E096ED230A04201BF0B4F896ED240A65
:1059200005201BF045F957208BE740B1012810D026
:10593000022816D003281CD0042822D02BE096ED94
:10594000040A05201BF09EF896ED050A20E05AE0B7
:1059500023E096ED0C0A05201BF094F896ED0D0A55
:1059600016E096ED140A05201BF08CF896ED150A4A
:105970000EE096ED1C0A05201BF084F896ED1D0A3A
:1059800006E096ED240A05201BF07CF896ED250A2A
:1059900006201BF00DF9582053E740B101280ED026
:1059A000022814D003281AD0042820D029E096ED2C
:1059B000050A06201BF066F896ED060A1EE096ED35
:1059C0000D0A06201BF05EF896ED0E0A16E096ED25
:1059D000150A06201BF056F896ED160A0EE096ED15
:1059E0001D0A06201BF04EF896ED1E0A06E096ED05
:1059F000250A06201BF046F896ED260A07201BF024
:105A0000D7F859201DE740B101280ED0022814D044
:105A100003281AD0042820D029E096ED060A072092
:105A20001BF030F896ED070A1EE096ED0E0A0720EF
:105A30001BF028F896ED0F0A16E096ED160A0720DF
:105A40001BF020F896ED170A0EE096ED1E0A0720CF
:105A50001BF018F896ED1F0A06E096ED260A0720BF
:105A60001BF010F896ED270A08201BF0A1F85A2029
:105A7000E7E632A0EAE6BCF1350F11D0BCF1360FF3
:105A800024D0BCF15B0F7DD0BCF15C0F7EF467AE1F
:105A90001AF07EFD95F83000E0B3012874D0FEE0E6
:105AA0001AF076FD95F8300048B126A2AA213220DE
:105AB00009F064FF25A000F06BFB36201CE427A250
:105AC000AA21322009F05AFF26A0F4E795F8310008
:105AD00040B1012808D0022808D0032808D00428A3
