:020000040800F2
:10000000D80F0120C10100080BFB000809D100082E
:1000100009FB0008B9100008F7A301080000000060
:100020000000000000000000000000007925010829
:10003000D15D000800000000C1FB0008D5270108C1
:10004000DB010008DB010008DB010008DB01000820
:10005000DB010008DB010008DB010008DB01000810
:10006000DB010008DB010008DB010008DB01000800
:10007000DB010008DB010008DB010008DB010008F0
:10008000DB010008DB010008DB010008DB010008E0
:10009000DB010008DB010008DB010008DB010008D0
:1000A000DB010008DB010008DB010008DB010008C0
:1000B000DB010008DB010008DB010008DB010008B0
:1000C000DB010008DB010008DB010008DB010008A0
:1000D000DB01000885880108DB010008DB0100085E
:1000E000DB010008DB010008DB010008DB01000880
:1000F000DB010008DB010008DB010008DB01000870
:10010000DB010008DB010008DB010008DB0100085F
:10011000DB010008DB0100086D280108DB01000895
:10012000DB010008DB010008DB010008DB0100083F
:10013000DB010008DB010008DB010008DB0100082F
:10014000DB010008DB010008DB01000885FB00087B
:10015000DB010008DB010008DB010008DB0100080F
:10016000DB010008DB0100089DFB000891FB000893
:10017000DB010008A9FB0008DB010008DB01000827
:10018000DB010008DB010008DB010008DB010008DF
:10019000DB010008DB010008DB010008DB010008CF
:1001A000DB010008DB010008DB010008DFF80CD0F0
:1001B00000F012FC00480047A9B80108D80F012040
:1001C0000648804706480047FEE7FEE7FEE7FEE7F1
:1001D000FEE7FEE7FEE7FEE7FEE7FEE7112801087F
:1001E000AD010008D2B201E000F8012B491EFBD29C
:1001F00070470022F6E710B513460A460446194632
:10020000FFF7F0FF204610BD421E12F8013F002B01
:10021000FBD111F8013B02F8013B002BF9D17047EB
:1002200010B5044604E00B7800F8013B03B1491C0B
:10023000521EF8D2204610BD421C10F8011B0029A6
:10024000FBD1801A704710B5002200E0521C835C7D
:100250008C5CA34201D1002BF8D1D8B2E1B2401A94
:1002600010BD034611F8012B00F8012B002AF9D12B
:100270001846704770B506461AF018FB0468054624
:100280000A220021304600F0ABFA2C6070BD2DE947
:10029000FE4F804681EA0300C00F0C46009021F01B
:1002A000004123F00045B8EB0200A94105D24046C9
:1002B000214690461C460B46024623F00040104360
:1002C00047D0270DC7F30A00C3F30A510290401A22
:1002D000019040286BDAC3F3130040F4801B0098B0
:1002E000924620B10023D2EB030A63EB0B0B01987B
:1002F0005946C0F14002504600F0F3F906460D465B
:1003000050465946019A00F00BFA10EB0800614183
:10031000002487EA115284EAE7731A4340D0009A16
:1003200062B3019A012A4FEA075215DC001B61EB08
:1003300002014FF0004202EA0752CDE90042001CE0
:1003400041F5801132462B4600F0C8FA03B0BDE8F3
:10035000F08F40462146F9E7001B61EB0201001CCB
:1003600041F5801300185B412018A2F5001747EBF8
:10037000030140EAD570B6196D4111E06D084FEAEE
:10038000360645EAC0754FEA0752001B61EB0201D1
:10039000001C41F5801149084FEA30000019514115
:1003A00032462B4603B0BDE8F04F00F088BA009803
:1003B000012240000023D0EB020263EBE0730098BF
:1003C00021464FEAE074B8EB000061EB0401E9E775
:1003D00083F000435BE781F0004158E72DE9FE4FD1
:1003E00081EA030404F0004421F0004100944FF03E
:1003F000000B23F0004350EA01045ED052EA0304EC
:100400005BD0C3F30A54C1F30A552C44A4F2F3346D
:100410000194A0FB0254C1F3130141F48011C3F312
:10042000130343F4801301FB024400FB034E840AD0
:10043000970A44EA815447EA8357A4FB0768029568
:100440008D0A05FB07854FEA932C04FB0C54270506
:10045000029D4FEA065847EA1637B5EB08056EEBE2
:10046000070C870E920E47EA811742EA8312A7FB18
:100470000201B6EB0B0164EB00042B0D43EA0C33D5
:100480005E1844EB1C50DA465146E7FB0201C5F307
:1004900013044FEA0B3343EA14534FEA0432019C2E
:1004A00043EA0603A4F10C040294009CCDE900B4D5
:1004B00000F014FA03B0BDE8F08F00200146F9E720
:1004C0002DE9F04D81EA030404F0004B21F00045D2
:1004D00014464FF0000A23F0004150EA050220D0F4
:1004E00054EA01021DD0C5F30A570246C5F31303AF
:1004F000C1F31300C1F30A5640F4801543F480138E
:10050000A7EB0608101BD64608F2FD3873EB050072
:1005100002D308F1010801E092185B41B8F1000F25
:1005200003DA00200146BDE8F08D00204FF4801171
:10053000064684460EE0171B73EB050705D3121B16
:1005400063EB050306434CEA010C49084FEA30000F
:1005500092185B4150EA0107EDD152EA030012D034
:1005600082EA040083EA0501084305D0101BAB4171
:1005700006D20122002306E000224FF0004302E0F1
:100580006FF0010253101AEB06004CEB085110EB10
:100590000A0041EB0B01BDE8F04D00F090B90EB53B
:1005A00040F2334102910021CDE900110A460B4689
:1005B00000F094F903B000BD70B5C1F30A5201F028
:1005C00000450024C1F3130140F2FF3341F48011D0
:1005D0009A4201DA002070BD40F233439A42A2F2FF
:1005E000334203DC524200F08BF800E090402C4391
:1005F000F1D0404270BD00F0004230F000400AD01F
:10060000C10D01F56071C0F3160042EA0151C20844
:1006100040071143704700200146704701F0004336
:1006200030B421F0004150EA010206D00A0DA2F5D3
:100630006072C1F31301002A02DC30BC0020704755
:10064000440F44EAC104C100E01830BC00EBC250C2
:1006500000F0FEB830B50B460146002020220124F0
:1006600009E021FA02F59D4205D303FA02F5491B80
:1006700004FA02F52844151EA2F10102F1DC30BD96
:100680002DE9F05F0546002092469B4688460646C7
:10069000814640241BE0284641464746224600F05A
:1006A0002FF853465A46C01A914110D311461846A6
:1006B000224600F016F82D1A67EB01084F46224635
:1006C0000120002100F00DF817EB00094E41201E1B
:1006D000A4F10104DFDC484631462A464346BDE822
:1006E000F09F202A04DB203A00FA02F10020704734
:1006F0009140C2F1200320FA03F319439040704760
:10070000202A04DB203A21FA02F00021704721FA66
:1007100002F3D040C2F120029140084319467047CD
:10072000202A06DBCB17203A41FA02F043EAE073B5
:1007300006E041FA02F3D040C2F1200291400843A2
:10074000194670470FB4002300B589B00CA9009179
:100750000B996FF00042CB601E4B06931E4B079324
:100760000423CDE901321D4A089202466B4600205F
:1007700000F0E6F909B05DF814FB70B586B00646E6
:100780004FF0FF300091CDE90101002015460C46E5
:1007900004903246694604A8FFF7D4FF0246049845
:1007A000211825B108B1084600E0204628600498C9
:1007B00000280DD0002A02DD0098884208D0081BCE
:1007C0000094CDE901043246694604A8FFF7BAFF58
:1007D00006B070BD790D0008970D0008050A0008E5
:1007E0002DE9F04791460F4680460446002614F84E
:1007F000015B2DB100F002F90068405DC007F6D141
:100800002B2D02D02D2D18D0641E4A463946204685
:1008100000F0D2FA27B13968A14201D1C7F80080AF
:1008200071054FF002040BD54042002803DD1AF099
:100830003DF80460A007BDE8F08746F48066E4E771
:100840000028F8DA1AF032F804606FF00040F2E79E
:100850000029A8BF7047401C490008BF20F00100D4
:10086000704710B4B0FA80FC00FA0CF050EA0104B2
:1008700004BF10BC704749B1CCF1200421FA04F444
:1008800011FA0CF118BF012121430843A3EB0C011D
:10089000CB1D4FEA00614FEA102042BF002010BC80
:1008A000704700EBC35010440029A4BF10BC704730
:1008B000401C490008BF20F0010010BC704710B573
:1008C000141E73F1000408DA401C41F10001921873
:1008D0005B411A4301D120F0010010BD2DE9F04D1C
:1008E00092469B4611B1B1FA81F202E0B0FA80F271
:1008F00020329046FFF7F5FE04460F4640EA0A0014
:1009000041EA0B0153465A46084313D0114653EAB5
:10091000010019D0C8F140025046FFF7F1FE05462C
:100920000E46504659464246FFF7DBFE084305D0C7
:10093000012004E020463946BDE8F08D0020054343
:1009400046EAE0762C4337430A986305E40AA0EBB5
:1009500008000022FD0A44EA47540A3002D500206C
:100960000146E9E7010510196941DDE9084500196B
:100970006941BDE8F04DA2E7C1F30A52C1F313018A
:1009800040F2FF3341F480119A4202DA002001461E
:10099000704740F233439A42A2F2334202DC5242A1
:1009A000FFF7AEBEFFF79DBE30B5041E71F1000427
:1009B00004DB4FF00044404264EB0101141E73F16C
:1009C000000405DB1C464FF00043524263EB040376
:1009D000994208BF904230BD064C074D06E0E068E2
:1009E00040F0010394E8070098471034AC42F6D376
:1009F000FFF7E0FBCC910308EC9103080048704737
:100A00005491030810B50446FFF7F8FF0068005D35
:100A100000F0010010BD00002DE9FF4F087883B001
:100A20009946FF2805D0491C2D2804D00024002019
:100A300008E000200BE00124F9E700EB800003EB65
:100A40004000491C0B78FF2BF7D104B14042002332
:100A50000293147819461D462D2C01D02B2C04D15D
:100A6000521C2D2C13D000240294AA461478FF2C7B
:100A70000FD00A25A3FB057801FB05814FF0000C80
:100A800003FB0C11521CE3194AEB0101EEE70124B0
:100A9000EAE7814453EA010002D019F5C87F06DA7B
:100AA00003980021C0E9001107B0BDE8F08F0025D0
:100AB000AE4E2F46DFF8B882184600F0DAF9CDE9DD
:100AC0000001B9F1000002DAC9F1000400E00446B7
:100AD0000023A74A1AEB030B42EB045A12E0E0078B
:100AE00007D02A46334638464146FFF777FC07468B
:100AF00088462A46334610461946FFF76FFC0546DE
:100B00000E466410002CEAD1DDE90001B9F1000FB6
:100B10005A46534606DAFFF7D3FC3A464346FFF7F8
:100B2000CFFC05E0FFF75AFC3A464346FFF756FC78
:100B3000029A0AB181F00041039AC2E90001B3E7C9
:100B40002DE9FF4F1F468DB0D7E901464FF0FF3822
:100B50002E2045464FF000090B90B9696D1C0E9888
:100B60008847396A824688470028F6D1BAF1FF3FA4
:100B70000AD024F4D064002E11DDBAF12B0F08D076
:100B8000BAF12D0F0BD102E0404611B08DE744F4CD
:100B90008064B9696D1C0E9888478246761E694646
:100BA000600501D52D2000E02B208DF8000001F11B
:100BB000010B0DF1200809E0B9696D1C0E988847FA
:100BC00082460F9844F40074761E0560002E02DD04
:100BD000BAF1300FF0D00B998A453ED144F0800431
:100BE00006E00F99681CA9F1010944F4007408603B
:100BF000B9696D1C761E0E98884782463028F0D061
:100C00002BE00B998A4505D1200603D444F08004DB
:100C1000761E18E0504619F049FF08B30DF1130194
:100C2000761E44F400748B4508D2AAF130000BF80C
:100C3000010B200607D5A9F1010003E0200602D42C
:100C400009F101008146A00502D50F99681C0860D2
:100C5000B9696D1C0E9888478246002ED1DC53E09E
:100C6000002E51DDBAF1650F02D0BAF1450F4BD11C
:100C7000A00549D5B9696D1C24F44074761E0E9800
:100C800088478246002E0CDD2B2804D0BAF12D0FA8
:100C900007D144F48074B9696D1C0E988847824668
:100CA000761EE00501D52D2100E02B2108F8011B5F
:100CB000CDF82C8021E00DF12901761E44F400745A
:100CC00088450CD2AAF1300010F0FF0088F800002F
:100CD00002D10B99884509D908F1010806E0E00521
:100CE00001D5244801E042F20F708146B9696D1CBC
:100CF0000E98884782460F980560002E04DD504606
:100D000019F0D4FE0028D6D1F9690E988847FF2043
:100D10008BF8000088F800000020069007904B46F2
:100D20006A4608A906A8FFF777FEA00502D46FF06F
:100D300001002AE714F0240F0AD0E00714D1DDE9FE
:100D400006123868031D3B600068C0E900120BE022
:100D5000DDE90601FFF762FC0146E00704D13868CF
:100D6000021D3A600068016028460EE7000014404A
:100D70000000F03FF1D8FFFF426842B1016811F86E
:100D8000013B23B1521EC0E90012184670470121F1
:100D9000C160881E704742685AB1C368016843B990
:100DA00083688B4205D0491E521CC0E90012002006
:100DB00070474FF0FF3070472DE9F05F82460078B2
:100DC000002715468B460AF10104B946302801D0A8
:100DD0009DB113E014F8010B0127782803D058289F
:100DE00001D045B10AE00DB1102D07D10027102523
:100DF00014F8010B02E0082500E00A250026B046A1
:100E00000EE005FB080005FB06F1012701EB10468B
:100E10001FFA80F8B6F5803F00D3B94614F8010BED
:100E2000294600F018F80028EBDABBF1000F05D0D6
:100E30000FB1641E00E05446CBF80040B9F1000F3A
:100E400006D019F033FD02210160C81EBDE8F09FF5
:100E500048EA0640FAE73A2800D2303820F020026B
:100E6000412A01D3A2F13700884201D34FF0FF306D
:100E700070470EB540F2334202920022CDE90022C3
:100E80001346FFF72BFD03B000BD70B58C1810F8AA
:100E9000015B15F0070301D110F8013B2A1106D1BF
:100EA00010F8012B03E010F8016B01F8016B5B1ED9
:100EB000F9D12B0705D40023521E0DD401F8013BB4
:100EC000FAE710F8013BCB1A921C03E013F8015B20
:100ED00001F8015B521EF9D5A142D8D3002070BDA4
:100EE0000E4910B5887A082803D0BDE8104009F0F3
:100EF00003BCC87AC97B0B4A00EBC1015339C9B2A4
:100F00009FED070A02EB8101523881ED000AC0B261
:100F10001AF086FEBDE8104011F040BBE80000204A
:100F200000000000340801200029816802D041F04F
:100F3000010101E021F0010181607047084B10B50B
:100F4000D3F8042307490A40D0E900142143D0E92B
:100F50000240044321431143C3F8041310BD0000B1
:100F600000200140E030FCFF0029816802D041F4FC
:100F7000807101E021F480718160704700298168EF
:100F800002D041F4007101E021F4007181607047EA
:100F900030B542680F4B0C791A400B6842EA0422C4
:100FA0001343436082680C4B4D791A40D1E90343E7
:100FB00023438C6844EA4504234313438360C26A95
:100FC000097D22F47002491EC9B242EA0151C16290
:100FD00030BD0000FFFEFFFCFDF7FFC070B5072627
:100FE00009290AD9C568A1F10A0404EB4404A64002
:100FF000B543A3401D43C56007E0056901EB41040B
:10100000A640B543A3401D4305611F23072A09D20B
:10101000446B521E02EB820293409C4391400C436E
:10102000446370BD0D2A09D2046BD21F02EB820209
:1010300093409C4391400C43046370BDC46A0D3AD5
:1010400002EB820293409C4391400C43C46270BD0A
:10105000816841F080418160704700000648807AD5
:10106000052805D0062803D0072801D0082801D17B
:101070001AF0D2B970470000E80000201CB5012129
:1010800008020EF0C3FD2020012100908DF804100D
:1010900000208DF806008DF80710064C8DF805002D
:1010A000694620460BF0D8FF202120460CF027F897
:1010B0001CBD000000200240FEE710B504463920A8
:1010C0001FF026FEE0B21FF047FEC4F307201FF01A
:1010D00043FEC4F307401FF03FFE200E1FF03CFE0E
:1010E0001FF006FEBDE8104019F0FABA70B50646CA
:1010F00014460D463C201FF00BFEE8B21FF02CFEFC
:10110000280A1FF029FE1FF0F3FD0CB1002011E0AA
:1011100019F0E6FA1E280FD1304600F02DF90546E9
:101120003D201FF0F5FD1FF0E3FD2E44002CEFD015
:10113000208828442080EBE770BD10B50EF05AFDE2
:1011400008B100F069F8BDE81040302000F0AFB8F9
:10115000312000F0ACB80146362000F09BB810B545
:1011600008B100F0C2F8BDE81040342000F09FB88C
:1011700070B5054600F0A4F804000DD001462846DD
:1011800000F021F8412807D0142803D0422800D1CC
:10119000B32070BD432070BD2819BDE87040FFF733
:1011A000DEBF10B5044600F0A0F820785C2801D01E
:1011B0002F2803D10021642000F0F4F8BDE810408E
:1011C000322000F074B870B50E46002105460124A7
:1011D00001E0641CE4B2285D5C2813D02F2811D0F4
:1011E0000028F6D100246818FFF7DBFF002C08D098
:1011F000B44206D041280AD0142806D0422800D193
:10120000B32070BD641CE4B2EDE7432070BD2146FD
:10121000E1E7FF21FFF7D7BF10B522201FF078FDCF
:101220001FF06CFD04461FF063FD204610BD2DE944
:10123000F0411FF063FD06461FF060FD05461FF0FC
:101240005DFD04461FF05AFD07461FF051FD46EABA
:10125000052040EA044040EA0760BDE8F08110B58F
:1012600004460C201FF054FD20461FF075FDBDE81C
:101270001040FFF7DCBF10B504460A201FF048FD00
:1012800020461FF069FD1FF039FD04461FF030FDB8
:10129000204610BD10B50C461FF03AFD20461FF049
:1012A0005BFD1FF025FDBDE8104019F019BA10B51F
:1012B0001FF02EFD1FF01CFDBDE8104019F010BA04
:1012C000014600E0491C0A78002AFBD105E011F82C
:1012D000012D5C2A03D02F2A01D08142F7D181420F
:1012E00000D0491C081AC0B2704770B505460120ED
:1012F0001FF00EFD1FF002FD432828D22B20FFF720
:10130000BAFF102823D22F201FF002FD00201FF06B
:1013100023FD3220FFF7CBFF142818D1CF20FFF791
:10132000AAFF040013D04C20FFF799FF00EB042123
:101330004C2000F037F85020FFF791FF00EB04211C
:10134000502000F02FF80021702000F02BF82F2003
:101350001FF0DEFC2C7806E015F8014F5C2C01D064
:101360002F2C00D1002420461FF0F6FC002CF3D1D6
:10137000BDE870401FF0BCBC70B505462D201FF0C5
:10138000C7FC1FF0BBFC0446260007D028781FF0DE
:10139000E3FC641E6D1C14F0FF04F7D11FF0A8FCE1
:1013A000304670BD70B505460C460D201FF0B0FCF0
:1013B00028461FF0D1FCE0B21FF0CEFCC4F307209A
:1013C0001FF0CAFCC4F307401FF0C6FC200E1FF03C
:1013D000C3FCBDE870401FF08BBC00002DE9F0415C
:1013E00088B0012181200EF011FC012108030EF0CC
:1013F0003DFCDFF8C8800522114640460BF068FE30
:101400000522062140460BF063FE052207214046D7
:101410000BF05EFE02258DF805508DF80450002477
:1014200020278DF8064000978DF807406946404612
:101430000BF012FE40200090694640460BF00CFE77
:1014400080200090694640460BF006FE10200126E1
:1014500000908DF804608DF80640694640460BF018
:10146000FBFD8DF8044000978DF80760694614482D
:101470000BF0F2FDADF808404FF48270ADF80A00B1
:10148000ADF810602802ADF812003820ADF8140055
:10149000ADF80C40ADF8164007200A4CADF8180026
:1014A000ADF80E5002A9204610F0D7FF01212046CA
:1014B00010F0D0FD08B0BDE8F0810000000002404F
:1014C000001C024000300140F0B5FF231A46002501
:1014D00018E0445D6240002402F0010613F0010FA1
:1014E0004FEA53034FEA520201D042F080021EB18C
:1014F00083F0A00382F00102641CE4B2082CEBD359
:101500006D1CEDB28D42E4D342EA0320F0BD000031
:101510002DE9F041FE48FF4EFF4C00784FF49B75DB
:101520004FF470474FF4A57840B1012874D00228D9
:1015300073D0032872D0042871D025E320780128C5
:1015400001D028B10FE088200CF052FF304603E0B4
:1015500088200CF04DFF38460CF066FFEFA20A2100
:1015600064200CF025FB6078012801D028B10FE041
:1015700088200CF03DFF304603E088200CF038FF57
:1015800038460CF051FFE6A20A21AA200CF010FB0D
:10159000A078012801D028B10FE088200CF028FFA6
:1015A000304603E088200CF023FF38460CF03CFF67
:1015B000DCA20A21F0200CF0FBFAE078012801D02F
:1015C00028B10FE088200CF013FF304603E088209C
:1015D0000CF00EFF38460CF027FFD3A20A21284654
:1015E0000CF0E6FA2079012801D028B10FE088201C
:1015F0000CF0FEFE304603E088200CF0F9FE384681
:101600000CF012FFC9A2414664200CF0D1FA6079B7
:10161000012805D048B113E039E0CEE063E133E2C0
:1016200088200CF0E5FE304603E088200CF0E0FE58
:1016300038460CF0F9FEBEA24146AA200CF0B8FADA
:10164000A079012801D028B10FE088200CF0D0FE4D
:10165000304603E088200CF0CBFE38460CF0E4FE68
:10166000B4A24146F0200CF0A3FAE079012801D0A1
:1016700028B189E288200CF0BBFE304603E08820C8
:101680000CF0B6FE38460CF0CFFEABA278E2207A22
:1016900001284FF0880070D00CF0AAFE38460CF0FC
:1016A000C3FEA6A20A2164200CF082FA607A012807
:1016B0004FF0880065D00CF09BFE38460CF0B4FE6D
:1016C0009FA20A21AA200CF073FAA07A01284FF0F9
:1016D00088005AD00CF08CFE38460CF0A5FE99A27A
:1016E0000A21F0200CF064FAE07A01284FF088001B
:1016F0004FD00CF07DFE38460CF096FE92A20A21E7
:1017000028460CF055FA207B01284FF0880044D081
:101710000CF06EFE38460CF087FE8CA24146642029
:101720000CF046FA607B01284FF0880039D00CF0AD
:101730005FFE38460CF078FE85A24146AA200CF0E8
:1017400037FAA07B01284FF088002ED00CF050FE15
:1017500038460CF069FE7FA24146F0200CF028FAD2
:10176000E07B01284FF0880023D00CF041FE384682
:101770000CF05AFE78A203E2FFE70CF039FE304687
:101780008DE70CF035FE304698E70CF031FE304620
:10179000A3E70CF02DFE3046AEE70CF029FE3046F4
:1017A000B9E70CF025FE3046C4E70CF021FE3046C8
:1017B000CFE70CF01DFE3046DAE7207C01284FF021
:1017C000880070D00CF014FE38460CF02DFE63A299
:1017D0000A2164200CF0ECF9607C01284FF08800AD
:1017E00065D00CF005FE38460CF01EFE5CA20A2106
:1017F000AA200CF0DDF9A07C01284FF088005AD017
:101800000CF0F6FD38460CF00FFE56A20A21F0202F
:101810000CF0CEF9E07C01284FF088004FD00CF09E
:10182000E7FD38460CF000FE4FA20A2128460CF0D6
:10183000BFF9207D01284FF0880044D00CF0D8FD7E
:1018400038460CF0F1FD49A2414664200CF0B0F995
:10185000607D01284FF0880039D00CF0C9FD384672
:101860000CF0E2FD42A24146AA200CF0A1F9A07DB5
:1018700001284FF088002ED00CF0BAFD38460CF04D
:10188000D3FD3CA24146F0200CF092F9E07D012806
:101890004FF0880023D00CF0ABFD38460CF0C4FDAF
:1018A00035A26DE1FFE70CF0A3FD30468DE70CF0AB
:1018B0009FFD304698E70CF09BFD3046A3E70CF007
:1018C00097FD3046AEE70CF093FD3046B9E70CF0DB
:1018D0008FFD3046C4E70CF08BFD3046CFE70CF0AF
:1018E00087FD3046DAE7207E01284FF088007DD062
:1018F0000CF07EFD38460CF097FD20A20A216420F2
:101900000CF056F9607E01284FF088006FD037E068
:10191000F4000020935517001803002030303100E8
:101920003030320030303300303034003030350069
:101930003030360030303700303038003030390049
:10194000303130003031310030313200303133004D
:10195000303134003031350030313600303137002D
:10196000303138003031390030323000303231001F
:101970003032320030323300303234003032350011
:101980000CF036FD38460CF04FFD99A20A21AA2032
:101990000CF00EF9A07E01284FF088005CD00CF00E
:1019A00027FD38460CF040FD92A20A21F0200CF0F1
:1019B000FFF8E07E01284FF0880051D00CF018FDB0
:1019C00038460CF031FD8CA20A2128460CF0F0F8C4
:1019D000207F01284FF0880046D00CF009FD3846E2
:1019E0000CF022FD85A24146642001E02CE02FE0AE
:1019F0000CF0DEF8607F01284FF0880038D00CF042
:101A0000F7FC38460CF010FD7DA24146AA200CF0F0
:101A1000CFF8A07F01284FF088002DD00CF0E8FC13
:101A200038460CF001FD77A24146F0200CF0C0F8DA
:101A3000E07F01284FF0880022D00CF0D9FC384616
:101A40000CF0F2FC70A29BE00CF0D2FC304652E7A6
:101A50000CF0CEFC304696E70CF0CAFC3046A1E70D
:101A60000CF0C6FC3046ACE70CF0C2FC3046B7E7E1
:101A70000CF0BEFC3046C5E70CF0BAFC3046D0E7AF
:101A80000CF0B6FC3046DBE794F8200001284FF05C
:101A900088007DD00CF0ACFC38460CF0C5FC5BA295
:101AA0000A2164200CF084F894F8210001284FF0FA
:101AB00088007DD00CF09CFC38460CF0B5FC54A29C
:101AC0000A21AA200CF074F894F8220001284FF0A3
:101AD000880072D00CF08CFC38460CF0A5FC4DA2AE
:101AE0000A21F0200CF064F894F8230001284FF04C
:101AF000880066D00CF07CFC38460CF095FC46A2C1
:101B00000A2128460CF054F894F8240001284FF0DC
:101B100088005AD00CF06CFC38460CF085FC3FA2D3
:101B2000414664200CF044F894F8250001284FF059
:101B300088004ED00CF05CFC38460CF075FC38A2E6
:101B40004146AA200CF034F894F8260001284FF002
:101B5000880042D00CF04CFC38460CF065FC31A2F9
:101B60004146F0200CF024F894F8270001284FF0AB
:101B7000880036D00CF03CFC38460CF055FC2AA20C
:101B8000414628460CF014F828490120C87001E0AD
:101B90000AE00DE094F8300038B325A004F02CFBE7
:101BA000BDE8F04110F0FABC0CF022FC304674E7BE
:101BB0000CF01EFC304680E7FFE70CF019FC3046C5
:101BC0008BE70CF015FC304697E70CF011FC304623
:101BD000A3E70CF00DFC3046AFE70CF009FC3046F3
:101BE000BBE70CF005FC3046C7E714A0D6E70000C1
:101BF000303236003032370030323800303239007F
:101C00003033300030333100303332003033330082
:101C10003033340030333500303336003033370062
:101C20003033380030333900303430002C0100209C
:101C30004368616E6E656C2073657400CDA8B5C095
:101C4000C9E8D6C3000000002DE9F05FF648DFF8D0
:101C5000DCA3F74C00784FF482754FF496764FF47E
:101C6000AA784FF4BE794FF4704B10B101286ED0B2
:101C700032E32078012801D028B10FE088200CF051
:101C8000B7FB504603E088200CF0B2FB58460CF03E
:101C9000CBFBE8A20A21642001F07EFA60780128DB
:101CA00001D028B10FE088200CF0A2FB504603E0E1
:101CB00088200CF09DFB58460CF0B6FBDEA20A21F2
:101CC0008C2001F069FAA078012801D028B10FE03A
:101CD00088200CF08DFB504603E088200CF088FB38
:101CE00058460CF0A1FBD5A20A21B42001F054FA09
:101CF000E078012801D028B10FE088200CF078FBB3
:101D0000504603E088200CF073FB58460CF08CFB27
:101D1000CBA20A21DC2001F03FFA2079012801D072
:101D200028B10FE088200CF063FB504603E08820C8
:101D30000CF05EFB58460CF077FBC2A20A21284645
:101D400001F02AFA6079012802D030B110E0BCE13C
:101D500088200CF04DFB504603E088200CF048FB37
:101D600058460CF061FBB8A20A21304601F014FA83
:101D7000A079012801D028B10FE088200CF038FBB1
:101D8000504603E088200CF033FB58460CF04CFB27
:101D9000AEA20A21404601F0FFF9E079012801D006
:101DA00028B10FE088200CF023FB504603E0882088
:101DB0000CF01EFB58460CF037FBA5A20A21484642
:101DC00001F0EAF9207A012801D028B10FE088203B
:101DD0000CF00EFB504603E088200CF009FB58463F
:101DE0000CF022FB9BA2D221642001F0D5F9607A8D
:101DF000012801D028B10FE088200CF0F9FA5046F4
:101E000003E088200CF0F4FA58460CF00DFB92A287
:101E1000D2218C2001F0C0F9A07A012801D028B18C
:101E20000FE088200CF0E4FA504603E088200CF024
:101E3000DFFA58460CF0F8FA88A2D221B42001F05B
:101E4000ABF9E07A012801D028B10FE088200CF02E
:101E5000CFFA504603E088200CF0CAFA58460CF03E
:101E6000E3FA7FA2D221DC2001F096F9207B012841
:101E700001D028B10FE088200CF0BAFA504603E0F8
:101E800088200CF0B5FA58460CF0CEFA75A2D22193
:101E9000284601F081F9607B012801D028B10FE0CC
:101EA00088200CF0A5FA504603E088200CF0A0FA38
:101EB00058460CF0B9FA6CA2D221304601F06CF908
:101EC000A07B012801D028B10FE088200CF090FA07
:101ED000504603E088200CF08BFA58460CF0A4FA28
:101EE00062A2D221404601F057F9E07B012801D0DF
:101EF00028B10FE088200CF07BFA504603E08820E0
:101F00000CF076FA58460CF08FFA59A2D2214846C6
:101F100001F042F9207C4FF4CD77012801D028B19F
:101F20000FE088200CF064FA504603E088200CF0A3
:101F30005FFA58460CF078FA4EA23946642001F058
:101F40002BF9607C012801D028B10FE088200CF02B
:101F50004FFA504603E088200CF04AFA58460CF03D
:101F600063FA45A239468C2001F016F9A07C0128BD
:101F700001D028B10FE088200CF03AFA504603E077
:101F800088200CF035FA58460CF04EFA3BA2394640
:101F9000B42001F001F9E07C012801D028B10FE064
:101FA00088200CF025FA504603E088200CF020FA37
:101FB00058460CF039FA32A23946DC2001F0ECF830
:101FC000207D012801D028B10FE088200CF010FA04
:101FD000504603E088200CF00BFA58460CF024FA27
:101FE00028A23946284601F0D7F8607D012801D0A3
:101FF00028B10FE088200CF0FBF9504603E0882060
:102000000CF0F6F958460CF00FFA1FA2394630468C
:1020100001F0C2F8A07D012801D0B8B342E08820C9
:102020000CF0E6F9504636E0F40000209355170016
:1020300018030020303031003030320030303300AF
:10204000303034003030350030303600303037003A
:10205000303038003030390030313000303131002C
:10206000303132003031330030313400303135001E
:1020700030313600303137003031380030313900FE
:10208000303230003032310030323200FFE7882009
:102090000CF0AEF958460CF0C7F9B9A239464046E3
:1020A00001F07AF8E07D012801D028B114E1882000
:1020B0000CF09EF9504603E088200CF099F9584640
:1020C0000CF0B2F9AFA2394603E1207E01284FF0AF
:1020D00088007CD00CF08CF958460CF0A5F9AAA227
:1020E0000A21642001F058F8607E01284FF0880032
:1020F0006ED00CF07DF958460CF096F9A3A20A2197
:102100008C2001F049F8A07E01284FF088007DD096
:102110000CF06EF958460CF087F99DA20A21B42004
:1021200001F03AF8E07E01284FF088006FD00CF003
:102130005FF958460CF078F996A20A21DC2001F0EC
:102140002BF8207F01284FF088007DD00CF050F94B
:1021500058460CF069F990A20A21284601F01CF8B3
:10216000607F01284FF088006FD00CF041F958468D
:102170000CF05AF989A20A21304601F00DF8A07F2F
:1021800001284FF088007DD00CF032F958460CF051
:102190004BF983A20A21404600F0FEFFE07F0128B0
:1021A0004FF088006FD00CF023F958460CF03CF942
:1021B0007CA20A21484600F0EFFF94F82000012895
:1021C0004FF088007ED00CF013F9584601E090E003
:1021D00094E00CF029F974A2D221642000F0DCFF15
:1021E00094F8210001284FF088006CD00CF000F921
:1021F00058460CF019F96DA2D2218C2000F0CCFFCA
:1022000094F8220001284FF0880001E07AE07DE098
:1022100073D00CF0EDF858460CF006F964A2D22108
:10222000B42000F0B9FF94F8230001284FF0880093
:1022300070D00CF0DDF858460CF0F6F85DA2D22113
:10224000DC2000F0A9FF01E065E068E094F82400DC
:1022500001284FF088006ED00CF0CAF858460CF0F8
:10226000E3F855A2D221284600F096FF94F8250005
:1022700001284FF0880075D00CF0BAF858460CF0E1
:10228000D3F801E04FE052E04CA2D221304600F0FA
:1022900083FF94F8260001284FF0880066D00CF0E8
:1022A000A7F858460CF0C0F845A2D221404600F0ED
:1022B00073FF94F8270001284FF088005AD00CF0E3
:1022C00097F801E039E03CE058460CF0ADF83DA24B
:1022D000D221484600F060FF3B490120C87094F8C5
:1022E000300048B339A003F087FFBDE8F05F10F07D
:1022F00055B90CF07DF85046EFE626E00CF078F882
:102300005046F9E60CF074F8504604E70CF070F80B
:1023100050460FE71DE00CF06BF8504619E70CF043
:1023200067F8504624E70CF063F850462FE70CF0AE
:102330005FF850463AE711E020E00CF059F85046BB
:1023400044E70CF055F8504653E70CF051F850466E
:1023500062E70CF04DF850466EE703E00CF048F8E9
:1023600050467CE70CF044F8504688E70CF040F803
:10237000504697E70CF03CF85046A6E716A0B2E7A7
:1023800030323300303234003032350030323600F3
:1023900030323700303238003032390030333000DC
:1023A00030333100303332003033330030333400D7
:1023B00030333500303336003033370030333800B7
:1023C00030333900303430002C0100204368616E16
:1023D0006E656C2073657400CDA8B5C0C9E8D6C31E
:1023E000000000002DE9F05FFB4CDFF8F0A34FF494
:1023F000704B2078012801D028B10FE088200BF025
:10240000F7FF504603E088200BF0F2FF58460CF02F
:102410000BF8F3A20A21642000F0F4FE6078012892
:1024200001D028B10FE088200BF0E2FF504603E016
:1024300088200BF0DDFF58460BF0F6FFE9A20A21D9
:102440008C2000F0DFFEA078012801D028B10FE039
:1024500088200BF0CDFF504603E088200BF0C8FF2A
:1024600058460BF0E1FFE0A20A21B42000F0CAFEBA
:10247000E078012801D028B10FE088200BF0B8FFE8
:10248000504603E088200BF0B3FF58460BF0CCFF1A
:10249000D6A20A21DC2000F0B5FE20794FF4827527
:1024A000012801D028B10FE088200BF0A1FF504691
:1024B00003E088200BF09CFF58460BF0B5FFCCA240
:1024C0000A21284600F09EFE60794FF49676012896
:1024D00001D028B10FE088200BF08AFF504603E0BE
:1024E00088200BF085FF58460BF09EFFC1A20A2101
:1024F000304600F087FEA0794FF4AA78012801D079
:1025000028B10FE088200BF073FF504603E08820CD
:102510000BF06EFF58460BF087FFB7A20A2140462A
:1025200000F070FEE0794FF4BE79012801D028B1A7
:102530000FE088200BF05CFF504603E088200BF092
:1025400057FF58460BF070FFACA20A21484600F036
:1025500059FE207A012801D028B10FE088200BF025
:1025600047FF504603E088200BF042FF58460BF02F
:102570005BFFA3A28621642000F044FE607A01285C
:1025800001D028B10FE088200BF032FF504603E065
:1025900088200BF02DFF58460BF046FF99A28621AC
:1025A0008C2000F02FFEA07A012801D028B10FE086
:1025B00088200BF01DFF504603E088200BF018FF29
:1025C00058460BF031FF90A28621B42000F01AFE8D
:1025D000E07A012801D028B10FE088200BF008FF35
:1025E000504603E088200BF003FF58460BF01CFF19
:1025F00086A28621DC2000F005FE207B012801D088
:1026000028B10FE088200BF0F3FE504603E088204D
:102610000BF0EEFE58460BF007FF7DA28621284600
:1026200000F0F0FD607B012801D028B10FE0882088
:102630000BF0DEFE504603E088200BF0D9FE584632
:102640000BF0F2FE73A28621304600F0DBFDA07B8A
:10265000012801D028B10FE088200BF0C9FE5046B8
:1026600003E088200BF0C4FE58460BF0DDFE6AA2A2
:102670008621404600F0C6FDE07B012801D028B14C
:102680000FE088200BF0B4FE504603E088200BF0EA
:10269000AFFE58460BF0C8FE60A28621484600F007
:1026A000B1FD207C4FF48177012801D028B10FE0E3
:1026B00088200BF09DFE504603E088200BF098FE2A
:1026C00058460BF0B1FE56A23946642000F09AFD40
:1026D000607C012801D028B10FE088200BF088FE33
:1026E000504603E088200BF083FE58460BF09CFE1A
:1026F0004CA239468C2000F085FDA07C012801D039
:1027000028B10FE088200BF073FE504603E08820CC
:102710000BF06EFE58460BF087FE43A23946B420FC
:1027200000F070FDE07C012801D028B10FE0882086
:102730000BF05EFE504603E088200BF059FE584631
:102740000BF072FE39A23946DC2000F05BFD207DE3
:10275000012801D028B10FE088200BF049FE504637
:1027600003E088200BF044FE58460BF05DFE30A2DB
:102770003946284600F046FD607D012801D028B189
:102780000FE088200BF034FE504603E088200BF069
:102790002FFE58460BF048FE26A23946304600F080
:1027A00031FDA07D012801D028B10FE088200BF079
:1027B0001FFE504603E088200BF01AFE58460BF02F
:1027C00033FE1DA23946404600F01CFDE07D012885
:1027D00034D000B142E036E01803002093551700D2
:1027E000303031003030320030303300303034009F
:1027F000303035003030360030303700303038007F
:102800003030390030313000303131003031320079
:102810003031330030313400303135003031360062
:10282000303137003031380030313900303230004B
:1028300030323100303232003032330088200BF039
:10284000D7FD504603E088200BF0D2FD58460BF030
:10285000EBFDB8A23946484600F0D4FC207E4FF488
:10286000BF77012801D028B10FE088200BF0C0FD10
:10287000504603E088200BF0BBFD58460BF0D4FD1A
:10288000ADA23946642000F0BDFC607E012801D075
:1028900028B10FE088200BF0ABFD504603E0882004
:1028A0000BF0A6FD58460BF0BFFDA4A239468C20C4
:1028B00000F0A8FCA07E012801D028B10FE08820FC
:1028C0000BF096FD504603E088200BF091FD584632
:1028D0000BF0AAFD9AA23946B42000F093FCE07EEA
:1028E000012801D028B10FE088200BF081FD50466F
:1028F00003E088200BF07CFD58460BF095FD91A27B
:102900003946DC2000F07EFC207F012801D028B170
:102910000FE088200BF06CFD504603E088200BF0A0
:1029200067FD58460BF080FD87A23946284600F027
:1029300069FC607F012801D028B10FE088200BF0EE
:1029400057FD504603E088200BF052FD58460BF02F
:102950006BFD7EA23946304600F054FCA07F012872
:1029600001D028B10FE088200BF042FD504603E073
:1029700088200BF03DFD58460BF056FD74A23946F9
:10298000404600F03FFCE07F012801D028B10FE075
:1029900088200BF02DFD504603E088200BF028FD29
:1029A00058460BF041FD6BA23946484600F02AFC20
:1029B00094F820004FF4FD77012801D028B10FE0F2
:1029C00088200BF015FD504603E088200BF010FD29
:1029D00058460BF029FD60A23946642000F012FC35
:1029E00094F82100012801D028B10FE088200BF0D5
:1029F000FFFC504603E088200BF0FAFC58460BF031
:102A000013FD56A239468C2000F0FCFB94F82200FE
:102A1000012801D028B10FE088200BF0E9FC5046D6
:102A200003E088200BF0E4FC58460BF0FDFC4CA2C0
:102A30003946B42000F0E6FB94F82300012801D0C9
:102A400028B10FE088200BF0D3FC504603E088202B
:102A50000BF0CEFC58460BF0E7FC42A23946DC20D6
:102A600000F0D0FB94F82400012801D028B10FE039
:102A700088200BF0BDFC504603E088200BF0B8FC2A
:102A800058460BF0D1FC38A23946284600F0BAFB74
:102A900094F82500012801D028B10FE088200BF020
:102AA000A7FC504603E088200BF0A2FC58460BF030
:102AB000BBFC2EA23946304600F0A4FB94F8260059
:102AC000012801D028B10FE088200BF091FC50467E
:102AD00003E088200BF08CFC58460BF0A5FC24A2E8
:102AE0003946404600F08EFB94F82700012801D0BB
:102AF00028B10FE088200BF07BFC504603E08820D3
:102B00000BF076FC58460BF08FFC1AA2394648466B
:102B100000F078FB18490120C87094F8300030B1FB
:102B200016A003F069FBBDE8F05F0FF037BD16A0FB
:102B3000F7E70000303234003032350030323600F2
:102B40003032370030323800303239003033300024
:102B5000303331003033320030333300303334001F
:102B600030333500303336003033370030333800FF
:102B700030333900303430002C0100204368616E5E
:102B80006E656C2073657400CDA8B5C0C9E8D6C366
:102B900000000000164901EB800111ED010A154902
:102BA00001EB800151ED010A134901EB800130EE88
:102BB000600A51ED010AB4EEE00AF1EE10FA09D311
:102BC0000E4901EB800050ED010AB4EEE00AF1EE8F
:102BD00010FA04DD0A4890F82C00012804D088215E
:102BE0006FF07F400BF00ABC88214FF47F00F9E7BB
:102BF0005C090020340801202C0C00208C0B0020E4
:102C00001803002010B50B460C0601F07F0202EB02
:102C1000820100EBC10102D501F58E7101E001F5E1
:102C20005D710A70DA094A7017F0CBF9002010BD07
:102C30000A4610B5090602F07F0306D503EB8301AF
:102C400000EBC10101F58E7105E002EB820100EBA2
:102C5000C10101F55D7100248C700B70D2094A70BE
:102C600017F096F9002010BD10B50A0604D501F042
:102C70007F0117F0C9FA01E017F0A8FA002010BD93
:102C800070B50D460E0601F07F0404EB840100EBE5
:102C9000C10102D501F58E7101E001F55D71ED090B
:102CA0000C704D708A60CB7000D0CC80022B01D1AB
:102CB00000220A7117F038F9002070BD10B501F03C
:102CC0007F0404EB840100EBC101C1F88833C1F833
:102CD00080230023C1F88C3381F8753381F8744365
:102CE000C37801F55D71012B00D10A6114F0FF0F6B
:102CF00003D017F0A5F9002010BD17F0A6F8FAE7E9
:102D00000069002261F30A120168114301607047F3
:102D10000A4610B5090602F07F0306D503EB8301CE
:102D200000EBC10101F58E7105E002EB820100EBC1
:102D3000C10101F55D7101248C700B70D2094A70DC
:102D400017F066F9002010BD70B511F07F0404EB98
:102D5000840100EBC1014FF0010581F81D5181F89C
:102D60001C41C1F82821C1F82C2101F58E714FF0CA
:102D70000002C1E9053203D017F062F9002070BDEE
:102D800017F063F8FAE700002DE9F0410646002449
:102D900017F083FA074655E0F80751D03069E1B2E1
:102DA0000369426BCA4006EB810102F001028969A6
:102DB00043EAC2128D681540E9071AD00125426B1B
:102DC00005FA04F18A43426306EB8400806985605A
:102DD0001F48E1B20068426830469047F078012809
:102DE00007D134B996F81101042802D1304617F002
:102DF00089F8280704D506EB8400082580698560DA
:102E0000E80604D506EB8400102580698560680615
:102E100004D506EB8400402580698560A80704D5A9
:102E200006EB8400022580698560280608D52146C6
:102E3000304600F06CF906EB8401802089698860D7
:102E40007F08641C002FA7D10120BDE8F08100009D
:102E50008C0100202DE9F0410546002417F023FAEB
:102E60000746DFF8988043E0F8073FD0E1B22846F4
:102E700017F01FFA0646C00725D005EB840001268F
:102E8000416D8E60E97801290CD1406D016904EB38
:102E9000840005EBC000C1F31201D0F87C23511A65
:102EA000C0F88C13D8F80000E1B2026828469047B9
:102EB000E878012807D134B995F81101052802D125
:102EC000284617F01FF8B00704D505EB840002264A
:102ED000406D8660300709D5D8F800008168284623
:102EE000884705EB84010820496D88607F08641CD1
:102EF000002FB9D10120BDE8F08100008C01002035
:102F000070B50546C068816921F010018161E868EB
:102F1000066A06F00F0000EB800005EBC004C6F364
:102F2000434004F55D74072821D2DFE800F020203B
:102F300004202020150047F6F070064217D0C6F393
:102F40000A1632462846E16817F0BBF9E0683044BB
:102F5000E060A069304409E0082205F2CC5128461F
:102F600017F0AFF9A069C6F30A110844A061E86838
:102F7000816941F010018161012070BD38B50446BE
:102F800000208DF8000094F812018DF8000015481B
:102F9000006841692046884720698068E2684FF4EC
:102FA00000615161A17AD1B1C00718D094F8150120
:102FB000012814D19DF80000032810D1D4F80C0189
:102FC000016841F001010160D4F80C01016841F091
:102FD000030101600448016841F00601016001201D
:102FE00038BD00008C01002010ED00E070B50446F3
:102FF000006900250126416821F001014160294650
:10300000204617F001F90020FF2206E004EB8001C2
:103010008B699A60496D8A60401C61788142F5D85D
:1030200021694FF0FF3088612846216966F30F005F
:1030300066F31F40C861216945F00B0048612169B2
:10304000C1F88400216945F00B00086121694864DA
:103050002069016821F4FE610160204616F052FFEC
:10306000E1684FF4805048610348006801692046D8
:103070008847012070BD00008C01002070B5044617
:1030800017F030F90120002384F8120184F814317C
:103090001A46402510E002EB820104EBC10181F8E1
:1030A0001D0181F81C21A1F8222181F81F31C1E9FD
:1030B0004953521CC1F8303161789142EBD800205D
:1030C00010E000EB800104EBC10181F8753381F859
:1030D0007403A1F87A0381F87733C1E9DF53401C08
:1030E000C1F8883361788142EBD8204616F088FE1B
:1030F000204616F06BFD0021204617F053F92046BC
:1031000016F0A4FD2046BDE8704017F057B82DE931
:10311000F0470E4601EB860100EBC1048046D4E97E
:103120004C01401AD4F8241104F58E74814200D267
:103130000846C01C870808EB86091EE0451AA068EF
:10314000A84200D20546E81C8708ABB2F2B240465E
:10315000E16817F03CF9E0682844E060A069284481
:10316000A0616169884208D3207801218140D8F8A4
:103170001000426B8A4342630BE0D9F81800806963
:1031800080B2B84205D9D4E90501814201D20028B4
:10319000D4D10120BDE8F0872DE9F04115460C4659
:1031A0008046154E4FF4207719E0802A0BD2134841
:1031B000B061214640460AF08BFCB0696D1C8088E6
:1031C000204484B20BE00E48B0612A4621464046B6
:1031D0000AF094FCB069AD1C8088204484B2BC42E3
:1031E00008D22A78002A05D0B0698088011989B2EE
:1031F0008142DAD2BDE8F081600000209C0000200E
:10320000CC0000202DE9F04115460C468046154EB5
:103210004FF4207719E0802A0BD21348B061214681
:1032200040460AF055FCB0696D1C8088204484B289
:103230000BE00E48B0612A462146404600F018F8DF
:10324000B069AD1C8088204484B2BC4208D22A7880
:10325000002A05D0B0698088011989B28142DAD28A
:10326000BDE8F081600000208C000020DC00002020
:103270002DE9F04116460F46804600240D4D0FE023
:1032800032788A420AD105EB400271785078814247
:1032900004D139464046921C0AF0FCFC641CA4B2DE
:1032A000C4EBC40000EB400015F810108029E7D8EB
:1032B000BDE8F081316B02082DE9F04115460C465E
:1032C0008046154E4FF4207719E0802A0BD2134820
:1032D000B061214640460AF0FBFBB0696D1C808856
:1032E000204484B20BE00E48B0612A462146404695
:1032F00000F018F8B069AD1C8088204484B2BC424C
:1033000008D22A78002A05D0B0698088011989B2CC
:103310008142DAD2BDE8F08160000020B4000020D4
:10332000D40000202DE9F04116460F4680460024C7
:103330000C4D0EE032788A4209D1421971785078EA
:10334000814204D139464046921C0AF0A3FC641C19
:10335000A4B204EB8400C0EB8410295C8029E9D876
:10336000BDE8F081AE5602082DE9F04115460C4645
:103370008046154E4FF4207719E0802A0BD213486F
:10338000B061214640460AF0A3FBB0696D1C8088FD
:10339000204484B20BE00E48B0612A4621464046E4
:1033A000FFF7C0FFB069AD1C8088204484B2BC42E6
:1033B00008D22A78002A05D0B0698088011989B21C
:1033C0008142DAD2BDE8F08160000020BC0000201C
:1033D000D40000202DE9F041204E15460C468046D1
:1033E0006BB3012B38D1882108460BF007F828234E
:1033F0009022414620460AF025FDBDE8F041882193
:103400006FF07F400AF0FABF802A0BD21448B061F7
:10341000214640460AF05CFBB0696D1C8088204460
:1034200084B20EE00F48B0612A46214640460AF0B9
:1034300065FBB069AD1C8088204484B201E04FF484
:103440002077BC4208D22A78002A05D0B06980884B
:10345000011989B28142D7D2BDE8F0816000002015
:10346000A4000020CC0000202DE9F041204E15469C
:103470000C4680466BB3012B38D1882108460AF0F0
:10348000BDFF1C236022414620460AF0DBFCBDE85C
:10349000F04188216FF07F400AF0B0BF802A0BD244
:1034A0001448B061214640460AF012FBB0696D1C19
:1034B0008088204484B20EE00F48B0612A4621463D
:1034C00040460AF01BFBB069AD1C8088204484B2E2
:1034D00001E04FF42077BC4208D22A78002A05D0B8
:1034E000B0698088011989B28142D7D2BDE8F081E4
:1034F00060000020AC000020CC0000202DE9F0414D
:10350000204E15460C4680466BB3012B38D18821DE
:1035100008460AF073FF14233222414620460AF07F
:1035200091FCBDE8F04188216FF07F400AF066BF52
:10353000802A0BD21448B061214640460AF0C8FAEE
:10354000B0696D1C8088204484B20EE00F48B061E1
:103550002A46214640460AF0D1FAB069AD1C80885F
:10356000204484B201E04FF42077BC4208D22A788C
:10357000002A05D0B0698088011989B28142D7D26A
:10358000BDE8F0816000002094000020CC00002005
:1035900010B50121CC0520460CF044FB2046BDE8C7
:1035A000104000210CF03EBB034A01460020526847
:1035B0000A4200D00120704700B0024030B52A4BCB
:1035C00000241968294A11401960196802681143DA
:1035D0001960596B21F007015963596B4268114317
:1035E0005963416841B301292DD0022930D0032904
:1035F000C16832D00A01016944690902240385685F
:10360000214315430D43996B0D439D638169D96334
:10361000196C6FF30D011964196CC26911431964B7
:10362000818C5A6C02F040425A645A6C006A024320
:1036300042EA01425A6430BDC168047D0A02018A2F
:1036400009042406DBE7C1680A02018A0904D6E7F7
:10365000C1684A010169C902D1E74A0101694469A7
:103660008902E403CBE7000000B00240FCE0FCFF6D
:103670000248016841F001010160704700B002405A
:103680000029016802D041F0010101E021F00101AF
:103690000160704730B50368124ACC6813400A686D
:1036A0002243D1E905452C432243CC6922430C6ACD
:1036B00022434C6A22438C6A22434C6B22438C6B1C
:1036C00022431A430260426922F00703D1E90B2426
:1036D00022431A4342610A6942604A6882608968EB
:1036E000C16030BD3F801CF00548807A052803D0BA
:1036F000062801D0082802D102A018F041B870476E
:10370000E80000202E0000002DE9F04FF74CF84DA6
:103710002146A07A91F80BC09FB0092860D2DFE85B
:1037200010F00900DE115F005F00360B0A0D1B135D
:103730005F004510ED484FF4CD764FF48177017B63
:10374000EB484FF4BF794FF4FD7A90F82D2090F8B4
:1037500027301E93C37F1D93C37D1C93C37B1B9394
:1037600090F826301A93837F1993837D1893837B77
:10377000179390F825301693437F1593437D149348
:10378000437B139390F824301293037F1193037DAE
:103790001093037B0F9390F823300E93C37E0D9309
:1037A000C37C0C93C37A0B9390F822300A93837EE8
:1037B0000993837C0893837A079390F821300693CA
:1037C000437E0593437C0493437A039390F820E06F
:1037D00090F818B0037C007ABCF1290F9ED200E06B
:1037E000C0E0DFE81CF02900C20045011F02A10271
:1037F0003003030493041C05C105140651068E060C
:10380000CD060F0751079307D60700082E08580862
:103810008408B208E0080E093C0954096C098409BF
:103820009D09B709D109EB09030A1C0A350A4E0A9A
:10383000680A830A9E0AB90AAE480AF0F5FD882094
:103840000AF0D6FD95F82900022810D0012810D0E2
:10385000032810D0042810D0052810D0062810D036
:10386000072810D0082810D0092810D014E0A2A2F0
:103870000EE0A3A20CE0A4A20AE0A5A208E0A6A282
:1038800006E0A7A204E0A8A202E0A9A200E0AAA282
:1038900064212F200AF056F995F82D0038B101283F
:1038A00038D002285ED1207B00284AD051E0207B0E
:1038B00040B101280BD002280ED0032811D00428D3
:1038C00014D01CE0287817F0EFFE9DA213E0287AB0
:1038D00017F0EAFE9BA20EE0287C17F0E5FE9AA204
:1038E00009E0287E17F0E0FE98A204E095F8200099
:1038F00017F0DAFE96A20A2164200AF059F995F829
:10390000300028B193A002F077FC012001F03DBA0D
:1039100093A0F8E7207B10B1012805D019E02878A2
:1039200017F0C2FE86A203E0287E17F0BDFE87A234
:103930000A216420FFF730FC0BE089A010E085A08D
:103940000EE0287817F0B0FE7DA20A216420FFF770
:1039500059FC0120E07295F830000028EFD1ECE727
:1039600002F04AFC1FB0BDE8F08F614F02263F789D
:1039700032B1012A4FD0022AF4D100296AD06CE278
:1039800041B101290BD002290DD0032910D00429FF
:1039900013D0F4E7384617F04FFE69A211E017F094
:1039A0004BFE68A20DE0184617F046FE66A208E03E
:1039B000584617F041FE65A203E0704617F03CFE42
:1039C00063A20A2164200AF0F3F8207B40B10128A9
:1039D0000BD002280ED0032811D0042814D0CEE733
:1039E000687817F061FE61A213E0687A17F05CFE58
:1039F0005FA20EE0687C17F057FE5EA209E0687EC9
:103A000017F052FE5CA204E095F8210017F04CFE7E
:103A10005AA20A2178E211B101290DD0AFE7384648
:103A200017F00AFE46A20A216420FFF7B5FB68786A
:103A300017F03AFE4DA20BE0584617F0FDFD43A2E9
:103A40000A216420FFF7A8FB687E17F02DFE4AA22A
:103A50000A21F7E3384617F0EFFD39A20A21642066
:103A6000FFF7D0FB687817F01FFE40A20A21EAE3B7
:103A70001F480326407832B1012A36D0022A7FF44B
:103A800071AF81B37BE741B101290AD002290DD082
:103A9000032910D0042913D071E717F0CDFD33A20C
:103AA00012E0039817F0C8FD31A20DE0049817F05A
:103AB000C3FD30A208E0059817F0BEFD2EA203E07A
:103AC000069817F0B9FD2DA20A21AA200AF070F875
:103AD000207B48B1012858D002285BD003285ED053
:103AE000042861D04BE78CE04AE067E0E800002062
:103AF0001803002000FFFF0054432D4B000000007E
:103B000054432D540000000054432D4A000000008F
:103B100054432D4E0000000054432D45000000008A
:103B200054432D530000000054432D520000000068
:103B300054432D420000000050543130300000004A
:103B4000303031003030390030313700303235001C
:103B5000303333004368616E6E656C2073657400AA
:103B6000CDA8B5C0C9E8D6C300000000303032008F
:103B700030313000303138003032360030333400EC
:103B8000A87817F091FDF8A213E0A87A17F08CFD41
:103B9000F6A20EE0A87C17F087FDF5A209E0A87E4A
:103BA00017F082FDF3A204E095F8220017F07CFDE7
:103BB000F1A20A2177E209F0FBFFE0E611B1012949
:103BC0000DD0DCE617F038FDAFF260020A218C2040
:103BD000FFF7E2FAA87817F067FDE3A20CE005987A
:103BE00017F02AFDAFF270020A218C20FFF7D4FAF9
:103BF000A87E17F059FDDFA20A21F0E3FFF7CCFA07
:103C0000BDE617F019FDAFF29C020A218C20FFF7E8
:103C1000F9FAA87817F048FDD3A20A21F6E3FFF7D6
:103C2000F1FAACE6D5480426807832B1012A50D0AA
:103C3000022A7FF497AE81B3A1E641B101290AD0EF
:103C400002290DD0032910D0042913D097E617F0CC
:103C5000F3FCC5A212E0079817F0EEFCC3A20DE03A
:103C6000089817F0E9FCC2A208E0099817F0E4FCF4
:103C7000C0A203E00A9817F0DFFCBFA20A21F020DF
:103C800009F096FF207B48B101280CD002280FD004
:103C9000032812D0042815D071E638E0E87817F030
:103CA00003FDB7A213E0E87A17F0FEFCB5A20EE020
:103CB000E87C17F0F9FCB4A209E0E87E17F0F4FC08
:103CC000B2A204E095F8230017F0EEFCB0A20A219E
:103CD00074E211B101290CD051E617F0ADFCA2A29B
:103CE0000A21B420FFF758FAE87817F0DDFCA4A207
:103CF0000BE0099817F0A0FC9EA20A21B420FFF760
:103D00004BFAE87E17F0D0FCA0A20A21E6E317F0F8
:103D100093FC95A20A21B420FFF774FAE87817F013
:103D2000C3FC97A20A21EAE39448C07832B1012A81
:103D300055D0022A7FF416AEF1B371E041B10129EA
:103D40000AD002290DD0032910D0042913D01BE07A
:103D500017F072FC8AA212E00B9817F06DFC89A292
:103D60000DE00C9817F068FC87A208E00D9817F09A
:103D700063FC86A203E00E9817F05EFC84A20A2181
:103D80004FF49B7009F014FF00200AF04DFB8148AE
:103D90000AF02EFB95F82900022872D0012871D074
:103DA000032870D004286FD005286ED006286DD067
:103DB00007286CD0082800E034E069D0092868D0D2
:103DC00003E064212F2009F0BDFE95F8300008B112
:103DD00071A000E077A002F00FFA002096E511B183
:103DE00001290CD01CE017F027FC65A20A21DC2079
:103DF000FFF7D2F9287917F057FC72A20BE00D9863
:103E000017F01AFC61A20A21DC20FFF7C5F9287F10
:103E100017F04AFC6CA20A214FF48270FFF7BCF93C
:103E2000052073E517F008FC55A20A21DC20FFF7F6
:103E3000E9F9287917F038FC62A20A214FF4827060
:103E4000FFF7E0F9ECE74D480626007932B1012A88
:103E50005CD0022A7FF486ADD1B38BE241B1012957
:103E60000AD0022916D0032919D004291CD081E2D6
:103E700017F0E2FB53A21BE00F9817F0DDFB53A2F3
:103E800016E056E258E25AE25CE25EE260E262E28A
:103E900064E266E2109817F0CFFB4DA208E011989B
:103EA00017F0CAFB48A203E0129817F0C5FB49A21D
:103EB0004FF4A571642009F07BFE207B48B10128F6
:103EC0000CD002280FD0032812D0042815D051E2BC
:103ED0003CE0687917F0E8FB3FA213E0687B17F03D
:103EE000E3FB3EA20EE0687D17F0DEFB3CA209E09A
:103EF000687F17F0D9FB3BA204E095F8250017F086
:103F0000D3FB39A24FF4A571AA2054E611B10129BF
:103F10000DD02FE217F090FB2AA20A214FF48270F5
:103F2000FFF73AF9687917F0BFFB2BA20CE0119864
:103F300017F082FB24A20A214FF48270FFF72CF9BC
:103F4000687F17F0B1FB27A20A2145E317F074FB45
:103F50001CA20A214FF48270FFF754F9687917F018
:103F6000A3FB1DA20A214AE3303033003031310077
:103F7000303139003032370030333500180300203B
:103F800030303400303132003032300030323800DE
:103F90003033360000FFFF00546865726D6F636F49
:103FA00075706C65206D6F64656C2073656C6563FE
:103FB00074000000C8C8B5E7C5BCD0CDBAC5D1A152
:103FC000D4F1000030303500303239003031330068
:103FD0003032310030333700303036003031340089
:103FE000303232003033300030333800FC4807269E
:103FF000407932B1012A58D0022A7FF4B3ACB1B370
:104000008EE341B101290BD002290FD0032913D02F
:10401000042917D084E317F00FFBAFF2440216E037
:10402000139817F009FBAFF24C0210E0149817F048
:1040300003FBAFF254020AE0159817F0FDFAAFF255
:104040005C0204E0169817F0F7FAAFF264024FF43E
:10405000A571AA2009F0ACFD207B48B101280CD045
:1040600002280FD0032812D0042815D058E33EE0D0
:10407000A87917F019FBDBA213E0A87B17F014FB5B
:10408000D9A20EE0A87D17F00FFBD8A209E0A87F07
:1040900017F00AFBD6A204E095F8260017F004FBFF
:1040A000D4A24FF4A571F02085E511B101290ED0FD
:1040B00036E317F0C1FAAFF2E0020A214FF496702E
:1040C000FFF76AF8A87917F0EFFAC6A20DE0159885
:1040D00017F0B2FAAFF2F4020A214FF49670FFF72C
:1040E0005BF8A87F17F0E0FAC1A20A21B6E217F048
:1040F000A3FAAFF21C120A214FF49670FFF782F870
:10410000A87917F0D1FAB7A20A21BAE2B448082672
:10411000807932B1012A54D0022A7FF423AC89B3CA
:10412000FEE241B101290AD002290DD0032910D0A5
:10413000042913D0F4E217F07FFAAAA212E017982C
:1041400017F07AFAA8A20DE0189817F075FAA7A24E
:1041500008E0199817F070FAA5A203E01A9817F072
:104160006BFAA4A24FF4A571F02009F021FD207B89
:1041700048B101280CD002280FD0032812D00428FF
:1041800015D0CDE23DE0E87917F08EFA9AA213E05F
:10419000E87B17F089FA99A20EE0E87D17F084FA1F
:1041A00097A209E0E87F17F07FFA96A204E095F85D
:1041B000270017F079FA94A24FF4A5714FF49B7081
:1041C000F9E411B101290DD0AAE217F035FA85A260
:1041D0000A214FF4AA70FEF7DFFFE87917F064FABE
:1041E00085A20CE0199817F027FA81A20A214FF452
:1041F000AA70FEF7D1FFE87F17F056FA81A20A21D4
:104200006EE217F019FA77A20A214FF4AA70FEF7AE
:10421000F9FFE87917F048FA77A20A2173E27048AB
:10422000C0798AB1012A64D0022A7FF49BAB0029AD
:10423000FBD117F001FA70A20A214FF4BE70FEF70D
:10424000E1FFA1E5B9E0C8E041B301292AD0022984
:104250002DD0032930D004297FF46FAD1E9817F0BC
:10426000EBF969A24FF4A5714FF49B7009F0A0FC23
:10427000207B30B301282AD002282ED0032832D048
:104280000428E9D195F8240017F00EFAAFF2BC2209
:104290004FF4A571642009F08BFCC1E517F0CCF94F
:1042A00055A2DFE71B9817F0C7F954A2DAE71C986C
:1042B00017F0C2F952A2D5E71D9817F0BDF951A227
:1042C000D0E7287917F0F0F9AFF20832E0E7287B61
:1042D00017F0EAF9AFF20C32DAE7287D17F0E4F9CB
:1042E000AFF21432D4E7287F17F0DEF9AFF22832AC
:1042F000CEE7A9B1012998D11D9817F09DF941A2E7
:104300000A214FF4BE70FEF747FF287E17F0CCF964
:10431000AFF2C8720A216420FEF73EFFFFF7F5BA3C
:1043200017F08AF934A20A214FF4BE70FEF734FF69
:104330002AE5AFF63C0244E5AFF63C0241E5AFF6B4
:1043400038023EE5AFF638023BE5AFF6340238E519
:10435000AFF6340235E5AFF6300232E5AFF63002A3
:104360002FE5AFF62C022CE50A26012A03D0022AFB
:10437000C1D121B3D4E111B101290ED0D0E117F0A0
:104380005BF9AFF64002D2216420FEF705FF687AA0
:1043900017F08AF9AFF628020EE0704617F04CF9D4
:1043A000AFF65402D2216420FEF7F6FE95F8210004
:1043B00017F07AF9AFF63C02D2218C201EE417F0F8
:1043C0003BF9AFF6800286216420FEF71BFF687A76
:1043D00017F06AF9AFF6680286218C201FE440E0EE
:1043E00018030020303037003031350030323300D0
:1043F000303331003033390030303800303136005E
:104400003032340030333200303430003AE00B26A2
:10441000012A03D0022AABD129B381E111B10129CC
:104420000FD07DE1039817F007F9AFF6BC02D22157
:104430008C20FEF7B1FEA87A17F036F9AFF2D4421D
:104440000EE0069817F0F8F8AFF6D002D2218C20D3
:10445000FEF7A2FE95F8220017F026F9AFF2E84227
:10446000D221B420AAE7039817F0E6F8AFF60012BD
:1044700086218C20FEF7C6FEA87A17F015F9AFF258
:1044800014528621B420A9E70C26012A03D0022A5F
:10449000C1D129B344E111B101290FD040E10798FE
:1044A00017F0CAF8AFF23C52D221B420FEF774FEE6
:1044B000E87A17F0F9F8AFF234520EE00A9817F0E4
:1044C000BBF8AFF24C52D221B420FEF765FE95F84E
:1044D000220017F0E9F8AFF24852D221DC206DE754
:1044E000079817F0A9F8AFF27C528621B420FEF7A6
:1044F00089FEE87A17F0D8F8AFF278528621DC20EE
:104500006CE70D26012A03D0022A84D131B307E1DA
:1045100011B101290FD003E10B9817F08DF8AFF21C
:104520009C52D221DC20FEF737FE287B17F0BCF826
:10453000AFF268520EE00E9817F07EF8AFF2B0526C
:10454000D221DC20FEF728FE95F8240017F0ACF805
:10455000AFF28052D2214FF482702FE70B9817F000
:104560006BF8AFF2E0528621DC20FEF74BFE287B91
:1045700017F09AF8AFF2AC5286214FF482702DE713
:104580000E26012A03D0022ABFD141B3C8E011B1DF
:10459000012910D0C4E00F9817F04EF8AFF2D452B2
:1045A000D2214FF48270FEF7F7FD687B17F07CF89C
:1045B000AFF2D8520FE0129817F03EF8AFF2EC527B
:1045C000D2214FF48270FEF7E7FD95F8250017F031
:1045D0006BF8AFF2EC52D2214FF49670EEE60F98E2
:1045E00017F02AF8AFF21C6286214FF48270FEF7B2
:1045F00009FE687B17F058F8AFF2206286214FF46D
:104600009670EBE60F26012A03D0022ABCD141B3F3
:1046100086E011B1012910D082E0139817F00CF850
:10462000AFF24862D2214FF49670FEF7B5FDA87B39
:1046300017F03AF8AFF250220FE0169816F0FCFF90
:10464000AFF25C62D2214FF49670FEF7A5FD95F8AB
:10465000260017F029F8AFF26422D2214FF4AA7095
:10466000ACE6139816F0E8FFAFF2906286214FF4A3
:104670009670FEF7C7FDA87B17F016F8AFF29822E8
:1046800086214FF4AA70A9E61026012A03D0022A37
:10469000BCD141B344E011B1012910D040E01798DA
:1046A00016F0CAFFAFF2C022D2214FF4AA70FEF773
:1046B00073FDA87B16F0F8FFAFF2C0220FE01A9846
:1046C00016F0BAFFAFF2D422D2214FF4AA70FEF74F
:1046D00063FD95F8270016F0E7FFAFF2D422D22150
:1046E0004FF4BE706AE6179816F0A6FFAFF20832D4
:1046F00086214FF4AA70FEF785FDE87B16F0D4FF03
:10470000AFF2083286214FF4BE7067E60926012A0F
:1047100003D0022ABCD151B302E029B1012913D040
:10472000E6721FB0BDE8F08F1B9816F085FFAFF260
:104730003432D2214FF4BE70FEF72EFD287A16F0E7
:10474000B3FFAFF600420FE01E9816F075FFAFF210
:104750004832D2214FF4BE70FEF71EFD95F82000BE
:1047600016F0A2FFAFF61842D221642026E61B986D
:1047700016F062FFAFF27C3286214FF4BE70FEF776
:1047800041FD287A16F090FFAFF64842862164205A
:1047900024E64FF01208012A03D0022AC1D189B1C0
:1047A00036E1184616F048FFAFF664423146642001
:1047B000FEF7F2FC687C16F077FFAFF64842314610
:1047C0008C2028E0184616F037FFAFF684423946B1
:1047D0006420FEF717FD687C16F066FFAFF66C42AA
:1047E00039468C202AE04FF01308012A03D0022A10
:1047F00097D199B10CE1049816F01EFFAFF68C42E8
:1048000031468C20FEF7C8FCA87C16F04DFFAFF6B1
:10481000A0023146B420FEF7BFFCF9E0049816F080
:104820000BFFAFF6B04239468C20FEF7EBFCA87CBC
:1048300016F03AFFAFF6C8023946B420FEF7E2FCA4
:10484000E6E04FF01408012A03D0022AA6D189B16C
:10485000DEE0089816F0F0FEAFF6EC023146B42028
:10486000FEF79AFCE87C16F01FFFAFF6E402314633
:10487000DC20D0E7089816F0DFFEAFF60C123946C0
:10488000B420FEF7BFFCE87C16F00EFFAFF608126E
:104890003946DC20D2E74FF01508012A03D0022A5E
:1048A000A6D191B1B4E00C9816F0C6FEAFF628126E
:1048B0003146DC20FEF770FC287D16F0F5FEAFF6E1
:1048C000F00231464FF48270A5E70C9816F0B4FE62
:1048D000AFF64C123946DC20FEF794FC287D16F02A
:1048E000E3FEAFF6141239464FF48270A6E74FF09C
:1048F0001608012A03D0022AA8D199B188E010989D
:1049000016F09AFEAFF6381231464FF48270FEF779
:1049100043FC687D16F0C8FEAFF63C1231464FF4FA
:10492000967078E7109816F087FEAFF65C1239465D
:104930004FF48270FEF766FC687D16F0B5FEAFF6A8
:10494000601239464FF4967078E74FF01708012A45
:1049500003D0022AA4D199B15AE0149816F06CFE43
:10496000AFF6841231464FF49670FEF715FCA87D21
:1049700016F09AFEAFF28C5231464FF4AA704AE715
:10498000149816F059FEAFF6A81239464FF49670F7
:10499000FEF738FCA87D16F087FEAFF2B05239461C
:1049A0004FF4AA704AE74FF01808012A03D0022AF0
:1049B000A2D199B12CE0189816F03EFEAFF2D45275
:1049C00031464FF4AA70FEF7E7FBE87D16F06CFE67
:1049D000AFF2D45231464FF4BE701CE7189816F06F
:1049E0002BFEAFF2F85239464FF4AA70FEF70AFCDC
:1049F000E87D16F059FEAFF2F85239464FF4BE701A
:104A00001CE74FF01108012A05D0022AA2D1A1B15A
:104A100084F80B8085E61C9816F00EFEAFF220623B
:104A200031464FF4BE70FEF7B7FB287C16F03CFE13
:104A3000AFF6EC6231466420EDE61C9816F0FCFD02
:104A4000AFF2446239464FF4BE70FEF7DBFB287CC0
:104A500016F02AFEAFF6107239466420EEE6022AFE
:104A6000D8D191B9584616F0E7FDAFF620724E4600
:104A700049466420FEF7C6FB687E16F015FEAFF6C9
:104A8000087231468C20FEF7BDFB1A207DE1022A18
:104A9000C0D191B9059816F0CFFDAFF624724E46FD
:104AA00049468C20FEF7AEFBA87E16F0FDFDAFF662
:104AB0003C323146B420FEF7A5FB1B2065E1022AFB
:104AC000A8D191B9099816F0B7FDAFF658324E4605
:104AD0004946B420FEF796FBE87E16F0E5FDAFF6FA
:104AE00054323146DC20FEF78DFB1C204DE1022ABA
:104AF00090D199B90D9816F09FFDAFF670324E46E1
:104B00004946DC20FEF77EFB287F16F0CDFDAFF690
:104B1000483231464FF48270FEF774FB1D2034E1B9
:104B2000022A9DD1A1B9119816F086FDAFF6683220
:104B30004E4649464FF48270FEF764FB687F16F0DC
:104B4000B3FDAFF6603231464FF49670FEF75AFB74
:104B50001E201AE1022A9BD1A1B9159816F06CFD0E
:104B6000AFF680324E4649464FF49670FEF74AFB48
:104B7000A87F16F099FDAFF2887231464FF4AA7003
:104B8000FEF740FB1F2000E1022A99D1A1B9199834
:104B900016F052FDAFF2A8724E4649464FF4AA7085
:104BA000FEF730FBE87F16F07FFDAFF2A8723146CA
:104BB0004FF4BE70FEF726FB2020E6E0022A97D1D4
:104BC00091B91D9816F038FDAFF2C8724E464946AD
:104BD0004FF4BE70FEF716FB287E16F065FDFE4A08
:104BE00031466420FEF70EFB1920CEE0022A98D150
:104BF00099B9704616F020FDF74A5646121D5146E7
:104C00006420FEF7FFFA95F8210016F04DFDF24AF8
:104C1000314630328C20FEF7F5FA2220B5E0022A28
:104C200099D199B9069816F007FDEB4A56463032ED
:104C300051468C20FEF7E6FA95F8220016F034FD76
:104C4000AFF6CC423146B420FEF7DCFA23209CE0DC
:104C5000022A9AD199B90A9816F0EEFCAFF6E8420A
:104C600056465146B420FEF7CDFA95F8230016F0CB
:104C70001BFDAFF6E4423146DC20FEF7C3FA2420E8
:104C800083E0022A9BD1A1B90E9816F0D5FCAFF6AD
:104C9000005256465146DC20FEF7B4FA95F824003F
:104CA00016F002FDAFF6D44231464FF48270FEF7A3
:104CB000A9FA252069E0022A99D1A9B9129816F01B
:104CC000BBFCAFF6F042564651464FF48270FEF7F9
:104CD00099FA95F8250016F0E7FCAFF6F442314654
:104CE0004FF49670FEF78EFA26204EE0022A97D1F6
:104CF000A9B9169816F0A0FCAFF6145256465146C4
:104D00004FF49670FEF77EFA95F8260016F0CCFC6C
:104D1000AFF6201231464FF4AA70FEF773FA27203F
:104D200033E0022A95D1A9B91A9816F085FCAFF69E
:104D30003C12564651464FF4AA70FEF763FA95F8B6
:104D4000270016F0B1FCAFF6401231464FF4BE70AA
:104D5000FEF758FA282018E0022A93D1A1B91E982C
:104D600016F06AFCAFF66012564651464FF4BE701C
:104D7000FEF748FA95F8200016F096FC964A314660
:104D8000121D6420FEF73EFA2120E072C9E4ACF166
:104D90002C0C40F23D164FF4FA77BCF1070FF5D218
:104DA000DFE80CF00539840404C0F000B9E416F023
:104DB00065FC95F82C00002895F830001BD0F8B160
:104DC00086A29621322008F0BDFE16F07DFC95F8F3
:104DD0002A00002895F8300014D0C0B17FA2962197
:104DE0005A2008F0AFFE95F8300090B17CA001F099
:104DF00003FA2D20C9E708B17DA2E2E77DA2E0E732
:104E00007EA2DEE708B17AA2E9E77AA2E7E77BA211
:104E1000E5E77CA0EBE716F031FC95F82A000028C6
:104E200095F8300026D050B36CA296215A2008F095
:104E300089FE7748014609F0E1FA1F2318227F21F5
:104E4000962008F0FFFF95F82B00052819D00428BC
:104E50004FF000001FD009F0E7FA6EA29B217F20DF
:104E600008F070FE95F83000F0B16BA001F0C4F9C5
:104E70002E208AE708B15EA2D7E75EA2D5E75FA23F
:104E8000D3E7002009F0D0FA69A296217F20FEF72F
:104E9000B9F968A2E2E709F0C7FA65A296217F2076
:104EA000FEF7B0F951A2D9E763A0DFE788210846F1
:104EB00009F0A4FA1F2318227F21962008F0C2FFD0
:104EC00095F82B00052818D0042851481FD009F068
:104ED000ABFA50A29B217F2008F034FE16F0F4FBC1
:104EE00059A29621304608F02DFE3020E07295F848
:104EF0003000A8B156A0FEF733BD454809F094FA3A
:104F00004BA296217F20FEF77DF94AA2E2E709F045
:104F10008BFA47A296217F20FEF774F933A2D9E7D6
:104F200051A0E8E716F0AAFB95F82E0020B1012861
:104F300009D002280ED015E095F8300008B14EA235
:104F40000CE04FA20AE095F8300008B14EA205E04F
:104F50004EA203E095F8300090B14EA239463220BF
:104F600008F0F0FD16F0B0FB95F82F0058B10128BD
:104F70000BD002280BD003280BD004280BD00FE055
:104F800046A2EBE716E047A206E048A204E049A2E9
:104F900002E04AA200E04BA23946572008F0D2FDB9
:104FA00095F8300020B149A001F026F93220ECE656
:104FB0004BA0F9E716F062FB95F82F0038B10128F5
:104FC00006D0022805D0032804D004288EE08FE004
:104FD00091E093E095E000004C3B00084F4E00004C
:104FE00042757A7A6572204F4E2F4F464600000078
:104FF0004F464600B9D8B1D500000000B4F2BFAAB0
:1050000000000000B7E4C3F9C6F7C9E8D6C3000042
:1050100000FFFF004B00000053656C656374207453
:10502000656D706572617475726520756E69740066
:105030006F00000043000000CEC2B6C8B5A5CEBBCD
:10504000D1A1D4F1000000004155544F00000000F0
:10505000496E7075742066696C65206E616D65209F
:105060007072656669780000CEC4BCFEC3FBB5C42F
:10507000C7B0D7BA000000004641535400000000FA
:10508000BFECCBD9000000004D454400D6D0CBD9B1
:1050900000000000534C4F5700000000C2FDCBD968
:1050A0000000000039363030000000003139323065
:1050B00030000000333834303000000035373630EF
:1050C00030000000313135323030000053656C65FE
:1050D0006374204261756420726174650000000091
:1050E000B2A8CCD8C2CAC9E8D6C300000CD011E01F
:1050F000AFF250020AE0AFF24C0207E0AFF24C020E
:1051000004E0AFF2480201E0AFF24802394657200E
:1051100008F018FD16F0D8FAF6A23946304608F025
:1051200011FD95F8300020B1F3A001F065F83320AF
:105130002BE6F5A0F9E7F84DF84EF94895ED212A50
:10514000D6ED214A807B96ED194AD6ED113A96EDBF
:10515000093AD6ED012AD5ED191A95ED111AD5EDBA
:10516000090A95ED010AACF1380CBCF10F0FBFF440
:1051700051ACDFE80CF0093D71A7DDEFEE08EDEC76
:10518000EBEAE9E8E70045E440B101280CD0022849
:1051900012D0032818D004281ED027E0022016F0D1
:1051A0007FFE95ED000A1EE0B0EE600A022016F0C8
:1051B00077FE95ED080A16E0B0EE410A022016F0DF
:1051C0006FFE95ED100A0EE0B0EE610A022016F0B7
:1051D00067FE95ED180A06E0B0EE420A022016F0CE
:1051E0005FFE95ED200A012016F0CCFD3920CCE5BC
:1051F00040B101280CD0022812D0032818D004286E
:105200001ED027E0022016F0BDFD95ED020A1EE03B
:10521000B0EE600A022016F0B5FD95ED0A0A16E020
:10522000B0EE410A022016F0ADFD95ED120A0EE037
:10523000B0EE610A022016F0A5FD95ED1A0A06E00F
:10524000B0EE420A022016F09DFD95ED220A0320E1
:1052500016F026FE3A2098E540B101280ED002282B
:1052600014D003281AD0042820D029E095ED020A92
:10527000032016F087FD95ED030A1EE095ED0A0A5E
:10528000032016F07FFD95ED0B0A16E095ED120A4E
:10529000032016F077FD95ED130A0EE095ED1A0A3E
:1052A000032016F06FFD95ED1B0A06E095ED220A2E
:1052B000032016F067FD95ED230A042016F0F0FD9B
:1052C0003B2062E540B101280ED0022814D003280B
:1052D0001AD0042820D029E095ED030A042016F006
:1052E00051FD95ED040A1EE095ED0B0A042016F021
:1052F00049FD95ED0C0A16E095ED130A042016F011
:1053000041FD95ED140A0EE095ED1B0A042016F000
:1053100039FD95ED1C0A06E095ED230A042016F0F0
:1053200031FD95ED240A052016F0BAFD3C202CE550
:1053300088B1012817D002281DD0032823D00428C3
:1053400029D032E0FCE1C5E18EE157E120E1E9E05E
:1053500099E062E02BE095ED040A052016F012FDBD
:1053600095ED050A1EE095ED0C0A052016F00AFDE4
:1053700095ED0D0A16E095ED140A052016F002FDD4
:1053800095ED150A0EE095ED1C0A052016F0FAFCC5
:1053900095ED1D0A06E095ED240A052016F0F2FCB5
:1053A00095ED250A062016F07BFD3D20EDE440B189
:1053B00001280ED0022814D003281AD0042820D0A7
:1053C00029E095ED050A062016F0DCFC95ED060AAD
:1053D0001EE095ED0D0A062016F0D4FC95ED0E0AA0
:1053E00016E095ED150A062016F0CCFC95ED160A90
:1053F0000EE095ED1D0A062016F0C4FC95ED1E0A80
:1054000006E095ED250A062016F0BCFC95ED260A6F
:10541000072016F045FD3E20B7E440B101280ED02C
:10542000022814D003281AD0042820D029E095EDB2
:10543000060A072016F0A6FC95ED070A1EE095ED7A
:105440000E0A072016F09EFC95ED0F0A16E095ED6A
:10545000160A072016F096FC95ED170A0EE095ED5A
:105460001E0A072016F08EFC95ED1F0A06E095ED4A
:10547000260A072016F086FC95ED270A082016F06C
:105480000FFD3F2081E440B101280ED0022814D046
:1054900003281AD0042820D029E0B0EE620A0220A6
:1054A00016F0BEFB96ED000A1EE0B0EE430A0220A5
:1054B00016F0B6FB96ED080A16E0B0EE630A02207D
:1054C00016F0AEFB96ED100A0EE0B0EE440A022094
:1054D00016F0A6FB96ED180A06E0B0EE640A02206C
:1054E00016F09EFB96ED200A012016F003FB4120EA
:1054F0004BE40000310000005265636F7264206964
:105500006E74657276616C00BCC7C2BCBCE4B8F452
:10551000CAB1BCE4000000002C0C00208C0B002061
:10552000E800002040B101280ED0022814D0032842
:105530001AD0042820D029E0B0EE620A022016F02A
:10554000D9FA96ED020A1EE0B0EE430A022016F0E8
:10555000D1FA96ED0A0A16E0B0EE630A022016F0C0
:10556000C9FA96ED120A0EE0B0EE440A022016F0D7
:10557000C1FA96ED1A0A06E0B0EE640A022016F0AF
:10558000B9FA96ED220A032016F04AFB422031E4D4
:1055900040B101280ED0022814D003281AD00428C4
:1055A00020D029E096ED020A032016F0A3FA96ED2A
:1055B000030A1EE096ED0A0A032016F09BFA96ED08
:1055C0000B0A16E096ED120A032016F093FA96EDF8
:1055D000130A0EE096ED1A0A032016F08BFA96EDE8
:1055E0001B0A06E096ED220A032016F083FA96EDD8
:1055F000230A042016F014FB43203AE440B10128AA
:105600000ED0022814D003281AD0042820D029E074
:1056100096ED030A042016F06DFA96ED040A1EE0DA
:1056200096ED0B0A042016F065FA96ED0C0A16E0CA
:1056300096ED130A042016F05DFA96ED140A0EE0BA
:1056400096ED1B0A042016F055FA96ED1C0A06E0AA
:1056500096ED230A042016F04DFA96ED240A052053
:1056600016F0DEFA442004E440B101280ED00228EE
:1056700014D003281AD0042820D029E096ED040A7B
:10568000052016F037FA96ED050A1EE096ED0C0A95
:10569000052016F02FFA96ED0D0A16E096ED140A85
:1056A000052016F027FA96ED150A0EE096ED1C0A75
:1056B000052016F01FFA96ED1D0A06E096ED240A65
:1056C000052016F017FA96ED250A062016F0A8FA1E
:1056D00045206CE440B101280ED0022814D00328E4
:1056E0001AD0042820D029E096ED050A062016F0ED
:1056F00001FA96ED060A1EE096ED0D0A062016F058
:10570000F9F996ED0E0A16E096ED150A062016F048
:10571000F1F996ED160A0EE096ED1D0A062016F038
:10572000E9F996ED1E0A06E096ED250A062016F028
:10573000E1F996ED260A072016F072FA462036E4C3
:1057400040B101280ED0022814D003281AD0042812
:1057500020D029E096ED060A072016F0CBF996ED49
:10576000070A1EE096ED0E0A072016F0C3F996ED23
:105770000F0A16E096ED160A072016F0BBF996ED13
:10578000170A0EE096ED1E0A072016F0B3F996ED03
:105790001F0A06E096ED260A072016F0ABF996EDF3
:1057A000270A082016F03CFA4720C1E4F64EF748D5
:1057B000ACF1530C96ED212AC07BD6ED191A96ED6B
:1057C000111AD6ED090A96ED010ABCF1070F6DD248
:1057D000DFE80CF0043872A9DFF2F10040B10128D3
:1057E0000CD0022812D0032818D004281ED027E09D
:1057F000022016F015FA96ED000A1EE0B0EE600ADF
:10580000022016F00DFA96ED080A16E0B0EE410AF5
:10581000022016F005FA96ED100A0EE0B0EE610ACD
:10582000022016F0FDF996ED180A06E0B0EE420AE5
:10583000022016F0F5F996ED200A012016F05AF92B
:10584000542032E040B101280CD0022812D00328A5
:1058500018D004281ED027E0022016F04BF996ED50
:10586000020A1EE0B0EE600A022016F043F996ED3F
:105870000A0A16E0B0EE410A022016F03BF996ED56
:10588000120A0EE0B0EE610A022016F033F996ED2E
:105890001A0A06E0B0EE420A022016F02BF996ED45
:1058A000220A032016F0BCF95520E07295F830006A
:1058B000C0B3B7A0FEF754B840B101280ED00228FB
:1058C00014D003281AD0042820D029E096ED020A2B
:1058D000032016F00FF996ED030A1EE096ED0A0A72
:1058E000032016F007F996ED0B0A16E096ED120A62
:1058F000032016F0FFF896ED130A0EE096ED1A0A53
:10590000032016F0F7F896ED1B0A06E096ED220A42
:10591000032016F0EFF896ED230A042016F080F924
:105920005620C2E7D9E040B101280ED0022814D099
:1059300003281AD0042820D029E096ED030A042079
:1059400016F0D8F896ED040A1EE096ED0B0A042036
:1059500016F0D0F896ED0C0A16E096ED130A042026
:1059600016F0C8F896ED140A0EE096ED1B0A042016
:1059700016F0C0F896ED1C0A06E096ED230A042006
:1059800016F0B8F896ED240A052016F049F95720CC
:105990008BE740B1012810D0022816D003281CD074
:1059A000042822D02BE096ED040A052016F0A2F878
:1059B00096ED050A20E05AE023E096ED0C0A05205A
:1059C00016F098F896ED0D0A16E096ED140A0520EB
:1059D00016F090F896ED150A0EE096ED1C0A0520DB
:1059E00016F088F896ED1D0A06E096ED240A0520CB
:1059F00016F080F896ED250A062016F011F95820C9
:105A000053E740B101280ED0022814D003281AD041
:105A1000042820D029E096ED050A062016F06AF841
:105A200096ED060A1EE096ED0D0A062016F062F8C5
:105A300096ED0E0A16E096ED150A062016F05AF8B5
:105A400096ED160A0EE096ED1D0A062016F052F8A5
:105A500096ED1E0A06E096ED250A062016F04AF895
:105A600096ED260A072016F0DBF859201DE740B115
:105A700001280ED0022814D003281AD0042820D0E0
:105A800029E096ED060A072016F034F896ED070A8D
:105A90001EE096ED0E0A072016F02CF896ED0F0A80
:105AA00016E096ED160A072016F024F896ED170A70
:105AB0000EE096ED1E0A072016F01CF896ED1F0A60
:105AC00006E096ED260A072016F014F896ED270A50
:105AD000082016F0A5F85A20E7E632A0EAE6BCF165
