:020000040800F2
:10000000C00D0120C10100088BD9000845B20008CD
:1000100089D90008390F00087B680108000000003A
:10002000000000000000000000000000B101010815
:10003000894200080000000041DA0008DD020108E2
:10004000DB010008DB010008DB010008DB01000820
:10005000DB010008DB010008DB010008DB01000810
:10006000DB010008DB010008DB010008DB01000800
:10007000DB010008DB010008DB010008DB010008F0
:10008000DB010008DB010008DB010008DB010008E0
:10009000DB010008DB010008DB010008DB010008D0
:1000A000DB010008DB010008DB010008DB010008C0
:1000B000DB010008DB010008DB010008DB010008B0
:1000C000DB010008DB010008DB010008DB010008A0
:1000D000DB010008514E0108DB010008DB010008CC
:1000E000DB010008DB010008DB010008DB01000880
:1000F000DB010008DB010008DB010008DB01000870
:10010000DB010008DB010008DB010008DB0100085F
:10011000DB010008DB01000875030108DB010008B2
:10012000DB010008DB010008DB010008DB0100083F
:10013000DB010008DB010008DB010008DB0100082F
:10014000DB010008DB010008DB01000805DA00081C
:10015000DB010008DB010008DB010008DB0100080F
:10016000DB010008DB0100081DDA000811DA0008D5
:10017000DB01000829DA0008DB010008DB010008C8
:10018000DB010008DB010008DB010008DB010008DF
:10019000DB010008DB010008DB010008DB010008CF
:1001A000DB010008DB010008DB010008DFF80CD0F0
:1001B00000F0E6FB004800473D810108C00D01202A
:1001C0000648804706480047FEE7FEE7FEE7FEE7F1
:1001D000FEE7FEE7FEE7FEE7FEE7FEE7190301089C
:1001E000AD01000840EA01039B0703D009E008C9FC
:1001F000121F08C0042AFAD203E011F8013B00F8EC
:10020000013B521EF9D27047D2B201E000F8012B37
:10021000491EFBD270470022F6E710B513460A4686
:1002200004461946FFF7F0FF204610BD421E12F8A3
:10023000013F002BFBD111F8013B02F8013B002BE1
:10024000F9D1704710B5044604E00B7800F8013B83
:1002500003B1491C521EF8D2204610BD10B5002231
:1002600000E0521C835C8C5CA34201D1002BF8D1CE
:10027000D8B2E1B2401A10BD70B5064616F06EFF56
:10028000046805460A220021304600F00BFA2C6073
:1002900070BD2DE9FE4F804681EA0300C00F0C4679
:1002A000009021F0004123F00045B8EB0200A94185
:1002B00005D24046214690461C460B46024623F096
:1002C0000040104347D0270DC7F30A00C3F30A517B
:1002D0000290401A019040286BDAC3F3130040F4F7
:1002E000801B0098924620B10023D2EB030A63EBF7
:1002F0000B0B01985946C0F14002504600F062F9DC
:1003000006460D4650465946019A00F06AF910EB30
:1003100008006141002487EA115284EAE7731A4316
:1003200040D0009A62B3019A012A4FEA075215DCC5
:10033000001B61EB02014FF0004202EA0752CDE9D7
:100340000042001C41F5801132462B4600F028FA8D
:1003500003B0BDE8F08F40462146F9E7001B61EB92
:100360000201001C41F5801300185B412018A2F522
:10037000001747EB030140EAD570B6196D4111E053
:100380006D084FEA360645EAC0754FEA0752001B72
:1003900061EB0201001C41F5801149084FEA300071
:1003A0000019514132462B4603B0BDE8F04F00F032
:1003B000E8B90098012240000023D0EB020263EB71
:1003C000E073009821464FEAE074B8EB000061EB5F
:1003D0000401E9E783F000435BE781F0004158E75F
:1003E0002DE9F04D81EA030404F0004B21F00045B3
:1003F00014464FF0000A23F0004150EA050220D0D5
:1004000054EA01021DD0C5F30A570246C5F313038F
:10041000C1F31300C1F30A5640F4801543F480136E
:10042000A7EB0608101BD64608F2FD3873EB050053
:1004300002D308F1010801E092185B41B8F1000F06
:1004400003DA00200146BDE8F08D00204FF4801152
:10045000064684460EE0171B73EB050705D3121BF7
:1004600063EB050306434CEA010C49084FEA3000F0
:1004700092185B4150EA0107EDD152EA030012D015
:1004800082EA040083EA0501084305D0101BAB4152
:1004900006D20122002306E000224FF0004302E0D2
:1004A0006FF0010253101AEB06004CEB085110EBF1
:1004B0000A0041EB0B01BDE8F04D00F062B90EB54A
:1004C00040F2334102910021CDE900110A460B466A
:1004D00000F066F903B000BD00F0004230F00040CB
:1004E0000AD0C10D01F56071C0F3160042EA015156
:1004F000C20840071143704700200146704701F0D1
:10050000004330B421F0004150EA010206D00A0D48
:10051000A2F56072C1F31301002A02DC30BC002096
:100520007047440F44EAC104C100E01830BC00EB3E
:10053000C25000F0EFB830B50B4601460020202233
:10054000012409E021FA02F59D4205D303FA02F5E0
:10055000491B04FA02F52844151EA2F10102F1DC40
:1005600030BD2DE9F05F0546002092469B46884647
:100570000646814640241BE028464146474622461F
:1005800000F010FA53465A46C01A914110D3114652
:100590001846224600F016F82D1A67EB01084F4660
:1005A00022460120002100F00DF817EB00094E4112
:1005B000201EA4F10104DFDC484631462A464346AA
:1005C000BDE8F09F202A04DB203A00FA02F1002067
:1005D00070479140C2F1200320FA03F31943904081
:1005E0007047202A06DBCB17203A41FA02F043EA93
:1005F000E07306E041FA02F3D040C2F120029140DC
:1006000008431946704700000FB4002300B589B0B5
:100610000CA900910B996FF00042CB601E4B069322
:100620001E4B07930423CDE901321D4A089202466E
:100630006B46002000F068FA09B05DF814FB70B555
:1006400086B006464FF0FF300091CDE90101002051
:1006500015460C4604903246694604A8FFF7D4FFBD
:1006600002460498211825B108B1084600E020464A
:100670002860049800280DD0002A02DD00988842E6
:1006800008D0081B0094CDE901043246694604A84D
:10069000FFF7BAFF06B070BD410D00085F0D0008FE
:1006A000CD0900082DE9F04791460F4680460446E3
:1006B000002614F8015B2DB100F084F90068405D5C
:1006C000C007F6D12B2D02D02D2D18D0641E4A461E
:1006D0003946204600F054FB27B13968A14201D1C8
:1006E000C7F8008071054FF002040BD54042002886
:1006F00003DD16F033FD0460A007BDE8F08746F483
:100700008066E4E70028F8DA16F028FD04606FF050
:100710000040F2E70029A8BF7047401C490008BF0D
:1007200020F00100704710B4B0FA80FC00FA0CF021
:1007300050EA010404BF10BC704749B1CCF1200459
:1007400021FA04F411FA0CF118BF012121430843E6
:10075000A3EB0C01CB1D4FEA00614FEA102042BF12
:10076000002010BC704700EBC35010440029A4BF08
:1007700010BC7047401C490008BF20F0010010BCAD
:10078000704710B5141E73F1000408DA401C41F1E3
:10079000000192185B411A4301D120F0010010BD05
:1007A0002DE9F04D92469B4611B1B1FA81F202E07B
:1007B000B0FA80F220329046FFF704FF04460F465D
:1007C00040EA0A0041EA0B0153465A46084313D057
:1007D000114653EA010019D0C8F14002504600F01A
:1007E000E1F805460E46504659464246FFF7EAFEF6
:1007F000084305D0012004E020463946BDE8F08DCD
:100800000020054346EAE0762C4337430A98630507
:10081000E40AA0EB08000022FD0A44EA47540A302B
:1008200002D500200146E9E7010510196941DDE91B
:10083000084500196941BDE8F04DA2E72DE9FE4FDA
:1008400081EA030404F0004421F0004100944FF0D9
:10085000000B23F0004350EA01045ED052EA030487
:100860005BD0C3F30A54C1F30A552C44A4F2F33409
:100870000194A0FB0254C1F3130141F48011C3F3AE
:10088000130343F4801301FB024400FB034E840A6C
:10089000970A44EA815447EA8357A4FB0768029504
:1008A0008D0A05FB07854FEA932C04FB0C542705A2
:1008B000029D4FEA065847EA1637B5EB08056EEB7E
:1008C000070C870E920E47EA811742EA8312A7FBB4
:1008D0000201B6EB0B0164EB00042B0D43EA0C3371
:1008E0005E1844EB1C50DA465146E7FB0201C5F3A3
:1008F00013044FEA0B3343EA14534FEA0432019CCA
:1009000043EA0603A4F10C040294009CCDE900B470
:10091000FFF746FF03B0BDE8F08F00200146F9E77E
:10092000C1F30A52C1F3130140F2FF3341F48011C5
:100930009A4202DA00200146704740F233439A425D
:10094000A2F2334202DC524200F02CB8FFF73ABE6A
:1009500030B5041E71F1000404DB4FF00044404246
:1009600064EB0101141E73F1000405DB1C464FF01B
:100970000043524263EB0403994208BF904230BDEA
:10098000064C074D06E0E06840F0010394E80700DC
:1009900098471034AC42F6D3FFF70CFCC05603085E
:1009A000E0560308202A04DB203A21FA02F0002155
:1009B000704721FA02F3D040C2F12002914008436F
:1009C0001946704700487047BC56030810B50446E6
:1009D000FFF7F8FF0068005D00F0010010BD0000A7
:1009E0002DE9FF4F087883B09946FF2805D0491CB0
:1009F0002D2804D00024002008E000200BE0012472
:100A0000F9E700EB800003EB4000491C0B78FF2B5B
:100A1000F7D104B1404200230293147819461D46D1
:100A20002D2C01D02B2C04D1521C2D2C13D00024A2
:100A30000294AA461478FF2C0FD00A25A3FB057850
:100A400001FB05814FF0000C03FB0C11521CE31954
:100A50004AEB0101EEE70124EAE7814453EA010091
:100A600002D019F5C87F06DA03980021C0E9001109
:100A700007B0BDE8F08F0025AE4E2F46DFF8B882F4
:100A8000184600F0DAF9CDE90001B9F1000002DA08
:100A9000C9F1000400E004460023A74A1AEB030B47
:100AA00042EB045A12E0E00707D02A4633463846A4
:100AB0004146FFF7C3FE074688462A46334610469E
:100AC0001946FFF7BBFE05460E466410002CEAD11E
:100AD000DDE90001B9F1000F5A46534606DAFFF787
:100AE0007FFC3A464346FFF77BFC05E0FFF7A6FE96
:100AF0003A464346FFF7A2FE029A0AB181F000414E
:100B0000039AC2E90001B3E72DE9FF4F1F468DB0FC
:100B1000D7E901464FF0FF382E2045464FF0000937
:100B20000B90B9696D1C0E988847396A82468847D0
:100B30000028F6D1BAF1FF3F0AD024F4D064002E89
:100B400011DDBAF12B0F08D0BAF12D0F0BD102E055
:100B5000404611B08DE744F48064B9696D1C0E986D
:100B600088478246761E6946600501D52D2000E043
:100B70002B208DF8000001F1010B0DF1200809E098
:100B8000B9696D1C0E98884782460F9844F400742A
:100B9000761E0560002E02DDBAF1300FF0D00B9901
:100BA0008A453ED144F0800406E00F99681CA9F103
:100BB000010944F400740860B9696D1C761E0E9832
:100BC000884782463028F0D02BE00B998A4505D122
:100BD000200603D444F08004761E18E0504616F038
:100BE000BDFB08B30DF11301761E44F400748B4570
:100BF00008D2AAF130000BF8010B200607D5A9F1A5
:100C0000010003E0200602D409F101008146A0059D
:100C100002D50F99681C0860B9696D1C0E98884749
:100C20008246002ED1DC53E0002E51DDBAF1650F73
:100C300002D0BAF1450F4BD1A00549D5B9696D1C59
:100C400024F44074761E0E9888478246002E0CDDF0
:100C50002B2804D0BAF12D0F07D144F48074B96960
:100C60006D1C0E9888478246761EE00501D52D2121
:100C700000E02B2108F8011BCDF82C8021E00DF1BC
:100C80002901761E44F4007488450CD2AAF1300084
:100C900010F0FF0088F8000002D10B99884509D9AF
:100CA00008F1010806E0E00501D5244801E042F220
:100CB0000F708146B9696D1C0E98884782460F985F
:100CC0000560002E04DD504616F048FB0028D6D102
:100CD000F9690E988847FF208BF8000088F800001B
:100CE0000020069007904B466A4608A906A8FFF721
:100CF00077FEA00502D46FF001002AE714F0240F5C
:100D00000AD0E00714D1DDE906123868031D3B6004
:100D10000068C0E900120BE0DDE90601FFF7EFFB18
:100D20000146E00704D13868021D3A60006801609E
:100D300028460EE7000014400000F03FF1D8FFFF06
:100D4000426842B1016811F8013B23B1521EC0E96B
:100D50000012184670470121C160881E7047426822
:100D60005AB1C368016843B983688B4205D0491EF4
:100D7000521CC0E90012002070474FF0FF3070474E
:100D80002DE9F05F82460078002715468B460AF170
:100D90000104B946302801D09DB113E014F8010BCD
:100DA0000127782803D0582801D045B10AE00DB1B9
:100DB000102D07D10027102514F8010B02E008259B
:100DC00000E00A250026B0460EE005FB080005FB02
:100DD00006F1012701EB10461FFA80F8B6F5803FB7
:100DE00000D3B94614F8010B294600F018F8002882
:100DF000EBDABBF1000F05D00FB1641E00E05446E2
:100E0000CBF80040B9F1000F06D016F0A7F9022187
:100E10000160C81EBDE8F09F48EA0640FAE73A289C
:100E200000D2303820F02002412A01D3A2F137004D
:100E3000884201D34FF0FF3070470EB540F2334285
:100E400002920022CDE900221346FFF7A9FC03B06D
:100E500000BD70B58C1810F8015B15F0070301D1C7
:100E600010F8013B2A1106D110F8012B03E010F80D
:100E7000016B01F8016B5B1EF9D12B0705D4002330
:100E8000521E0DD401F8013BFAE710F8013BCB1AD2
:100E9000921C03E013F8015B01F8015B521EF9D5C7
:100EA000A142D8D3002070BD0A49087A082810D181
:100EB000487A897B094A00EBC1015339C9B29FEDD9
:100EC000060A02EB8101523881ED000AC0B217F028
:100ED000BBBA7047D8000020000000001C060120AB
:100EE0000548007A052803D0062801D0082801D13A
:100EF00016F0EABE70470000D80000207CB5012142
:100F000008020CF0C3FD01228DF8042000208DF8AA
:100F100006008DF80720074D4FF400648DF805009A
:100F20000094694628460AF035F9214628460AF019
:100F300084F97CBD00200240FEE710B50CF09AFD5C
:100F400008B100F008F8BDE81040302000F00EB8FD
:100F5000312000F00BB810B522201CF0FBF91CF07A
:100F6000EFF904461CF0E6F9204610BD10B51CF060
:100F7000F1F91CF0DFF9BDE8104016F0B9B8000037
:100F80002DE9F04188B0012181200CF07FFD012185
:100F900008030CF0ABFDDFF8C8800522114640467F
:100FA0000AF034F90522062140460AF02FF90522FD
:100FB000072140460AF02AF902258DF805508DF8E0
:100FC0000450002420278DF8064000978DF8074034
:100FD000694640460AF0DEF84020009069464046E7
:100FE0000AF0D8F880200090694640460AF0D2F80E
:100FF0001020012600908DF804608DF806406946A7
:1010000040460AF0C7F88DF8044000978DF8076055
:10101000694614480AF0BEF8ADF808404FF48270F3
:10102000ADF80A00ADF810602802ADF812003820C3
:10103000ADF81400ADF80C40ADF8164007200A4C8E
:10104000ADF81800ADF80E5002A920460FF021F8B7
:10105000012120460EF01AFE08B0BDE8F081000024
:1010600000000240001C024000300140F0B5FF23A8
:101070001A46002518E0445D6240002402F0010693
:1010800013F0010F4FEA53034FEA520201D042F02E
:1010900080021EB183F0A00382F00102641CE4B25E
:1010A000082CEBD36D1CEDB28D42E4D342EA032051
:1010B000F0BD0000164901EB800111ED010A154950
:1010C00001EB800151ED010A134901EB800130EE83
:1010D000600A51ED010AB4EEE00AF1EE10FA09D30C
:1010E0000E4901EB800050ED010AB4EEE00AF1EE8A
:1010F00010FA04DD0A4890F82C00012804D0882159
:101100006FF07F400BF03AB988214FF47F00F9E788
:10111000140900201C060120140B0020740A002072
:10112000D002002010B50B460C0601F07F0202EB46
:10113000820100EBC10102D501F58E7101E001F5DC
:101140005D710A70DA094A7015F07DF9002010BD52
:101150000A4610B5090602F07F0306D503EB8301AA
:1011600000EBC10101F58E7105E002EB820100EB9D
:10117000C10101F55D7100248C700B70D2094A70B9
:1011800015F048F9002010BD10B50A0604D501F08D
:101190007F0115F07BFA01E015F05AFA002010BD2E
:1011A00070B50D460E0601F07F0404EB840100EBE0
:1011B000C10102D501F58E7101E001F55D71ED0906
:1011C0000C704D708A60CB7000D0CC80022B01D1A6
:1011D00000220A7115F0EAF8002070BD10B501F088
:1011E0007F0404EB840100EBC101C1F88833C1F82E
:1011F00080230023C1F88C3381F8753381F8744360
:10120000C37801F55D71012B00D10A6114F0FF0F65
:1012100003D015F057F9002010BD15F058F8FAE783
:101220000069002261F30A120168114301607047EE
:101230000A4610B5090602F07F0306D503EB8301C9
:1012400000EBC10101F58E7105E002EB820100EBBC
:10125000C10101F55D7101248C700B70D2094A70D7
:1012600015F018F9002010BD70B511F07F0404EBE3
:10127000840100EBC1014FF0010581F81D5181F897
:101280001C41C1F82821C1F82C2101F58E714FF0C5
:101290000002C1E9053203D015F014F9002070BD39
:1012A00015F015F8FAE700002DE9F0410646002494
:1012B00015F035FA074655E0F80751D03069E1B22C
:1012C0000369426BCA4006EB810102F001028969A1
:1012D00043EAC2128D681540E9071AD00125426B16
:1012E00005FA04F18A43426306EB84008069856055
:1012F0001F48E1B20068426830469047F078012804
:1013000007D134B996F81101042802D1304615F0FE
:101310003BF8280704D506EB840008258069856022
:10132000E80604D506EB8400102580698560680610
:1013300004D506EB8400402580698560A80704D5A4
:1013400006EB8400022580698560280608D52146C1
:10135000304600F06CF906EB8401802089698860D2
:101360007F08641C002FA7D10120BDE8F081000098
:10137000440100202DE9F0410546002415F0D5F97F
:101380000746DFF8988043E0F8073FD0E1B22846EF
:1013900015F0D1F90646C00725D005EB84000126DB
:1013A000416D8E60E97801290CD1406D016904EB33
:1013B000840005EBC000C1F31201D0F87C23511A60
:1013C000C0F88C13D8F80000E1B2026828469047B4
:1013D000E878012807D134B995F81101052802D120
:1013E000284614F0D1FFB00704D505EB840002268F
:1013F000406D8660300709D5D8F80000816828461E
:10140000884705EB84010820496D88607F08641CCB
:10141000002FB9D10120BDE8F08100004401002077
:1014200070B50546C068816921F010018161E868E6
:10143000066A06F00F0000EB800005EBC004C6F35F
:10144000434004F55D74072821D2DFE800F0202036
:1014500004202020150047F6F070064217D0C6F38E
:101460000A1632462846E16815F06DF9E068304406
:10147000E060A069304409E0082205F2CC5128461A
:1014800015F061F9A069C6F30A110844A061E86883
:10149000816941F010018161012070BD38B50446B9
:1014A00000208DF8000094F812018DF80000154816
:1014B000006841692046884720698068E2684FF4E7
:1014C00000615161A17AD1B1C00718D094F815011B
:1014D000012814D19DF80000032810D1D4F80C0184
:1014E000016841F001010160D4F80C01016841F08C
:1014F000030101600448016841F006010160012018
:1015000038BD00004401002010ED00E070B5044635
:10151000006900250126416821F00101416029464A
:10152000204615F0B3F80020FF2206E004EB80010E
:101530008B699A60496D8A60401C61788142F5D858
:1015400021694FF0FF3088612846216966F30F005A
:1015500066F31F40C861216945F00B0048612169AD
:10156000C1F88400216945F00B00086121694864D5
:101570002069016821F4FE610160204614F004FF37
:10158000E1684FF4805048610348006801692046D3
:101590008847012070BD00004401002070B504465A
:1015A00015F0E2F80120002384F8120184F81431C8
:1015B0001A46402510E002EB820104EBC10181F8DC
:1015C0001D0181F81C21A1F8222181F81F31C1E9F8
:1015D0004953521CC1F8303161789142EBD8002058
:1015E00010E000EB800104EBC10181F8753381F854
:1015F0007403A1F87A0381F87733C1E9DF53401C03
:10160000C1F8883361788142EBD8204614F03AFE65
:10161000204614F01DFD0021204615F005F9204656
:1016200014F056FD2046BDE8704015F009B82DE9CC
:10163000F0470E4601EB860100EBC1048146D4E978
:101640004C01401AD4F8241104F58E74814200D262
:101650000846C01C870809EB860812E0451AA068F6
:10166000A84200D20546E81C8708ABB2F2B2484651
:10167000E16815F0EEF8E0682844E060A0692844CD
:10168000A061D8F81800806980B2B84205D9D4E9C1
:101690000501814201D20028E0D10120BDE8F08798
:1016A0002DE9F04115460C468046154E4FF4207743
:1016B00019E0802A0BD21348B061214640460AF057
:1016C00063FAB0696D1C8088204484B20BE00E4838
:1016D000B0612A46214640460AF06CFAB069AD1C5A
:1016E0008088204484B2BC4208D22A78002A05D0DF
:1016F000B0698088011989B28142DAD2BDE8F081EF
:10170000500000208C000020BC0000202DE9F0419A
:1017100015460C468046154E4FF4207719E0802A76
:101720000BD21348B061214640460AF02DFAB06949
:101730006D1C8088204484B20BE00E48B0612A46BC
:101740002146404600F018F8B069AD1C808820445E
:1017500084B2BC4208D22A78002A05D0B0698088B9
:10176000011989B28142DAD2BDE8F081500000202F
:101770007C000020CC0000202DE9F04116460F46E9
:10178000804600240D4D0FE032788A420AD105EBE5
:10179000400271785078814204D139464046921C0B
:1017A0000AF0D4FA641CA4B2C4EBC40000EB4000FD
:1017B00015F810108029E7D8BDE8F08197300208AD
:1017C0002DE9F04115460C468046154E4FF4207722
:1017D00019E0802A0BD21348B061214640460AF036
:1017E000D3F9B0696D1C8088204484B20BE00E48A8
:1017F000B0612A462146404600F018F8B069AD1C99
:101800008088204484B2BC4208D22A78002A05D0BD
:10181000B0698088011989B28142DAD2BDE8F081CD
:1018200050000020A4000020C40000202DE9F04159
:1018300016460F46804600240C4D0EE032788A4250
:1018400009D1421971785078814204D13946404615
:10185000921C0AF07BFA641CA4B204EB8400C0EB77
:101860008410295C8029E9D8BDE8F081141C0208A5
:101870002DE9F04115460C468046154E4FF4207771
:1018800019E0802A0BD21348B061214640460AF085
:101890007BF9B0696D1C8088204484B20BE00E484F
:1018A000B0612A4621464046FFF7C0FFB069AD1C33
:1018B0008088204484B2BC4208D22A78002A05D00D
:1018C000B0698088011989B28142DAD2BDE8F0811D
:1018D00050000020AC000020C40000202DE9F041A1
:1018E000204E15460C4680466BB3012B38D188211B
:1018F00008460AF043FD28239022414620460AF07C
:1019000061FABDE8F04188216FF07F400AF036BDF2
:10191000802A0BD21448B061214640460AF034F9BF
:10192000B0696D1C8088204484B20EE00F48B0611D
:101930002A46214640460AF03DF9B069AD1C808830
:10194000204484B201E04FF42077BC4208D22A78C8
:10195000002A05D0B0698088011989B28142D7D2A6
:10196000BDE8F0815000002094000020BC00002061
:101970002DE9F041204E15460C4680466BB3012BF5
:1019800038D1882108460AF0F9FC1C236022414620
:1019900020460AF017FABDE8F04188216FF07F4039
:1019A0000AF0ECBC802A0BD21448B06121464046B4
:1019B0000AF0EAF8B0696D1C8088204484B20EE019
:1019C0000F48B0612A46214640460AF0F3F8B06954
:1019D000AD1C8088204484B201E04FF42077BC42E3
:1019E00008D22A78002A05D0B0698088011989B206
:1019F0008142D7D2BDE8F081500000209C00002039
:101A0000BC0000202DE9F041204E15460C468046D2
:101A10006BB3012B38D1882108460AF0AFFC1423A0
:101A20003222414620460AF0CDF9BDE8F041882136
:101A30006FF07F400AF0A2BC802A0BD21448B0613C
:101A4000214640460AF0A0F8B0696D1C8088204409
:101A500084B20EE00F48B0612A46214640460AF0A3
:101A6000A9F8B069AD1C8088204484B201E04FF42D
:101A70002077BC4208D22A78002A05D0B069808835
:101A8000011989B28142D7D2BDE8F081500000200F
:101A900084000020BC00002010B50121CC052046A8
:101AA0000CF000F82046BDE8104000210BF0FABF12
:101AB000034A0146002052680A4200D001207047C4
:101AC00000B0024030B52A4B00241968294A114061
:101AD00019601968026811431960596B21F00701F8
:101AE0005963596B426811435963416841B30129F5
:101AF0002DD0022930D00329C16832D00A010169F2
:101B00004469090224038568214315430D43996BF9
:101B10000D439D638169D963196C6FF30D011964DD
:101B2000196CC26911431964818C5A6C02F04042ED
:101B30005A645A6C006A024342EA01425A6430BD58
:101B4000C168047D0A02018A09042406DBE7C16832
:101B50000A02018A0904D6E7C1684A010169C9027B
:101B6000D1E74A01016944698902E403CBE7000037
:101B700000B00240FCE0FCFF0248016841F00101B6
:101B80000160704700B002400548007A052803D084
:101B9000062801D0082802D102A016F03BBA7047EF
:101BA000D80000202E0000002DE9F04FF74CF84D32
:101BB0002146207A91F809C09FB0092860D2DFE859
:101BC00010F0090042125F005F00360B200D271352
:101BD0005F00A910ED484FF4CD764FF48177817AFC
:101BE000EB484FF4BF794FF4FD7A90F82D2090F830
:101BF00027301E93C37F1D93C37D1C93C37B1B9310
:101C000090F826301A93837F1993837D1893837BF2
:101C1000179390F825301693437F1593437D1493C3
:101C2000437B139390F824301293037F1193037D29
:101C30001093037B0F9390F823300E93C37E0D9384
:101C4000C37C0C93C37A0B9390F822300A93837E63
:101C50000993837C0893837A079390F82130069345
:101C6000437E0593437C0493437A039390F820E0EA
:101C700090F818B0037C007ABCF1290F9ED200E0E6
:101C8000C0E0DFE81CF02900C20045011F02A102EC
:101C90003003030493041C05C105140651068E0687
:101CA000CD060F0751079307D60700082E085808DE
:101CB0008408B208E0080E093C0954096C0984093B
:101CC0009D09B709D109EB09030A1C0A350A4E0A16
:101CD000680A830A9E0AB90AAE480AF065FB8820A2
:101CE0000AF046FB95F82900022810D0012810D0F0
:101CF000032810D0042810D0052810D0062810D0B2
:101D0000072810D0082810D0092810D014E0A2A26B
:101D10000EE0A3A20CE0A4A20AE0A5A208E0A6A2FD
:101D200006E0A7A204E0A8A202E0A9A200E0AAA2FD
:101D300064212F2009F062FF95F82D0038B10128A9
:101D400038D002285ED1A07A00284AD051E0A07A8B
:101D500040B101280BD002280ED0032811D004284E
:101D600014D01CE0287816F0F7F89DA213E0287A2A
:101D700016F0F2F89BA20EE0287C16F0EDF89AA27D
:101D800009E0287E16F0E8F898A204E095F8200013
:101D900016F0E2F896A20A21642009F065FF95F892
:101DA000300028B193A002F083FC012001F03DBA7D
:101DB00093A0F8E7A07A10B1012805D019E028789F
:101DC00016F0CAF886A203E0287E16F0C5F887A2AE
:101DD0000A216420FFF764FC0BE089A010E085A0D5
:101DE0000EE0287816F0B8F87DA20A216420FFF7EB
:101DF0008DFC0120607295F830000028EFD1ECE7EF
:101E000002F056FC1FB0BDE8F08F614F02263F780C
:101E100032B1012A4FD0022AF4D100296AD06CE2F3
:101E200041B101290BD002290DD0032910D004297A
:101E300013D0F4E7384616F057F869A211E016F00F
:101E400053F868A20DE0184616F04EF866A208E0B6
:101E5000584616F049F865A203E0704616F044F8BB
:101E600063A20A21642009F0FFFEA07A40B1012894
:101E70000BD002280ED0032811D0042814D0CEE7AE
:101E8000687816F069F861A213E0687A16F064F8D1
:101E90005FA20EE0687C16F05FF85EA209E0687E43
:101EA00016F05AF85CA204E095F8210016F054F8F8
:101EB0005AA20A2178E211B101290DD0AFE73846C4
:101EC00016F012F846A20A216420FFF7E9FB6878B1
:101ED00016F042F84DA20BE0584616F005F843A262
:101EE0000A216420FFF7DCFB687E16F035F84AA271
:101EF0000A21F7E3384615F0F7FF39A20A216420DA
:101F0000FFF704FC687816F027F840A20A21EAE3FC
:101F10001F480326407832B1012A36D0022A7FF4C6
:101F200071AF81B37BE741B101290AD002290DD0FD
:101F3000032910D0042913D071E715F0D5FF33A27F
:101F400012E0039815F0D0FF31A20DE0049815F0CF
:101F5000CBFF30A208E0059815F0C6FF2EA203E0E3
:101F6000069815F0C1FF2DA20A21AA2009F07CFED7
:101F7000A07A48B1012858D002285BD003285ED04F
:101F8000042861D04BE78CE04AE067E0D8000020ED
:101F9000D002002000FFFF0054432D4B0000000042
:101FA00054432D540000000054432D4A000000000B
:101FB00054432D4E0000000054432D450000000006
:101FC00054432D530000000054432D5200000000E4
:101FD00054432D42000000005054313030000000C6
:101FE0003030310030303900303137003032350098
:101FF000303333004368616E6E656C207365740026
:10200000CDA8B5C0C9E8D6C300000000303032000A
:102010003031300030313800303236003033340067
:10202000A87815F099FFF8A213E0A87A15F094FFAC
:10203000F6A20EE0A87C15F08FFFF5A209E0A87EBD
:1020400015F08AFFF3A204E095F8220015F084FF52
:10205000F1A20A2177E209F007FEE0E611B10129B9
:102060000DD0DCE615F040FFAFF260020A218C20B3
:10207000FFF716FBA87815F06FFFE3A20CE00598B8
:1020800015F032FFAFF270020A218C20FFF708FB37
:10209000A87E15F061FFDFA20A21F0E3FFF700FB45
:1020A000BDE615F021FFAFF29C020A218C20FFF75C
:1020B0002DFBA87815F050FFD3A20A21F6E3FFF715
:1020C00025FBACE6D5480426807832B1012A50D0F1
:1020D000022A7FF497AE81B3A1E641B101290AD06B
:1020E00002290DD0032910D0042913D097E615F04A
:1020F000FBFEC5A212E0079815F0F6FEC3A20DE0A4
:10210000089815F0F1FEC2A208E0099815F0ECFE5F
:10211000C0A203E00A9815F0E7FEBFA20A21F02052
:1021200009F0A2FDA07A48B101280CD002280FD0F6
:10213000032812D0042815D071E638E0E87815F0AD
:102140000BFFB7A213E0E87A15F006FFB5A20EE088
:10215000E87C15F001FFB4A209E0E87E15F0FCFE72
:10216000B2A204E095F8230015F0F6FEB0A20A2111
:1021700074E211B101290CD051E615F0B5FEA2A20E
:102180000A21B420FFF78CFAE87815F0E5FEA4A246
:102190000BE0099815F0A8FE9EA20A21B420FFF7D3
:1021A0007FFAE87E15F0D8FEA0A20A21E6E315F03A
:1021B0009BFE95A20A21B420FFF7A8FAE87815F053
:1021C000CBFE97A20A21EAE39448C07832B1012AF3
:1021D00055D0022A7FF416AEF1B371E041B1012966
:1021E0000AD002290DD0032910D0042913D01BE0F6
:1021F00015F07AFE8AA212E00B9815F075FE89A2FE
:102200000DE00C9815F070FE87A208E00D9815F00F
:102210006BFE86A203E00E9815F066FE84A20A21EA
:102220004FF49B7009F020FD00200AF0BDF88148B2
:102230000AF09EF895F82900022872D0012871D082
:10224000032870D004286FD005286ED006286DD0E2
:1022500007286CD0082800E034E069D0092868D04D
:1022600003E064212F2009F0C9FC95F8300008B183
:1022700071A000E077A002F01BFA002096E511B1F2
:1022800001290CD01CE015F02FFE65A20A21DC20EC
:10229000FFF706FA287915F05FFE72A20BE00D98A1
:1022A00015F022FE61A20A21DC20FFF7F9F9287F50
:1022B00015F052FE6CA20A214FF48270FFF7F0F97C
:1022C000052073E515F010FE55A20A21DC20FFF76A
:1022D0001DFA287915F040FE62A20A214FF482709F
:1022E000FFF714FAECE74D480626007932B1012ACF
:1022F0005CD0022A7FF486ADD1B38BE241B10129D3
:102300000AD0022916D0032919D004291CD081E251
:1023100015F0EAFD53A21BE00F9815F0E5FD53A25E
:1023200016E056E258E25AE25CE25EE260E262E205
:1023300064E266E2109815F0D7FD4DA208E011980E
:1023400015F0D2FD48A203E0129815F0CDFD49A288
:102350004FF4A571642009F087FCA07A48B10128E8
:102360000CD002280FD0032812D0042815D051E237
:102370003CE0687915F0F0FD3FA213E0687B15F0B2
:10238000EBFD3EA20EE0687D15F0E6FD3CA209E003
:10239000687F15F0E1FD3BA204E095F8250015F0FB
:1023A000DBFD39A24FF4A571AA2054E611B1012931
:1023B0000DD02FE215F098FD2AA20A214FF4827069
:1023C000FFF76EF9687915F0C7FD2BA20CE01198A4
:1023D00015F08AFD24A20A214FF48270FFF760F9FC
:1023E000687F15F0B9FD27A20A2145E315F07CFDB1
:1023F0001CA20A214FF48270FFF788F9687915F062
:10240000ABFD1DA20A214AE33030330030313100E8
:10241000303139003032370030333500D0020020FF
:102420003030340030313200303230003032380059
:102430003033360000FFFF00546865726D6F636FC4
:1024400075706C65206D6F64656C2073656C656379
:1024500074000000C8C8B5E7C5BCD0CDBAC5D1A1CD
:10246000D4F10000303035003032390030313300E3
:102470003032310030333700303036003031340004
:10248000303232003033300030333800FC48072619
:10249000407932B1012A58D0022A7FF4B3ACB1B3EB
:1024A0008EE341B101290BD002290FD0032913D0AB
:1024B000042917D084E315F017FDAFF2440216E0AB
:1024C000139815F011FDAFF24C0210E0149815F0BE
:1024D0000BFDAFF254020AE0159815F005FDAFF2BE
:1024E0005C0204E0169815F0FFFCAFF264024FF4B2
:1024F000A571AA2009F0B8FBA07A48B101280CD038
:1025000002280FD0032812D0042815D058E33EE04B
:10251000A87915F021FDDBA213E0A87B15F01CFDC6
:10252000D9A20EE0A87D15F017FDD8A209E0A87F7A
:1025300015F012FDD6A204E095F8260015F00CFD6A
:10254000D4A24FF4A571F02085E511B101290ED078
:1025500036E315F0C9FCAFF2E0020A214FF49670A1
:10256000FFF79EF8A87915F0F7FCC6A20DE01598C4
:1025700015F0BAFCAFF2F4020A214FF49670FFF79F
:102580008FF8A87F15F0E8FCC1A20A21B6E215F089
:10259000ABFCAFF21C120A214FF49670FFF7B6F8AD
:1025A000A87915F0D9FCB7A20A21BAE2B4480826E6
:1025B000807932B1012A54D0022A7FF423AC89B346
:1025C000FEE241B101290AD002290DD0032910D021
:1025D000042913D0F4E215F087FCAAA212E01798A0
:1025E00015F082FCA8A20DE0189815F07DFCA7A2BA
:1025F00008E0199815F078FCA5A203E01A9815F0E8
:1026000073FCA4A24FF4A571F02009F02DFBA07A71
:1026100048B101280CD002280FD0032812D004287A
:1026200015D0CDE23DE0E87915F096FC9AA213E0D2
:10263000E87B15F091FC99A20EE0E87D15F08CFC8A
:1026400097A209E0E87F15F087FC96A204E095F8D0
:10265000270015F081FC94A24FF4A5714FF49B70F4
:10266000F9E411B101290DD0AAE215F03DFC85A2D3
:102670000A214FF4AA70FFF713F8E87915F06CFC03
:1026800085A20CE0199815F02FFC81A20A214FF4C5
:10269000AA70FFF705F8E87F15F05EFC81A20A2119
:1026A0006EE215F021FC77A20A214FF4AA70FFF721
:1026B0002DF8E87915F050FC77A20A2173E27048F2
:1026C000C0798AB1012A64D0022A7FF49BAB002929
:1026D000FBD115F009FC70A20A214FF4BE70FFF780
:1026E00015F8A1E5B9E0C8E041B301292AD00229D3
:1026F0002DD0032930D004297FF46FAD1E9815F03A
:10270000F3FB69A24FF4A5714FF49B7009F0ACFA8A
:10271000A07A30B301282AD002282ED0032832D044
:102720000428E9D195F8240015F016FCAFF2BC227C
:102730004FF4A571642009F097FAC1E515F0D4FBB8
:1027400055A2DFE71B9815F0CFFB54A2DAE71C98DF
:1027500015F0CAFB52A2D5E71D9815F0C5FB51A292
:10276000D0E7287915F0F8FBAFF20832E0E7287BD4
:1027700015F0F2FBAFF20C32DAE7287D15F0ECFB36
:10278000AFF21432D4E7287F15F0E6FBAFF228321F
:10279000CEE7A9B1012998D11D9815F0A5FB41A25A
:1027A0000A214FF4BE70FEF77BFF287E15F0D4FBA4
:1027B000AFF2C8720A216420FEF772FFFFF7F5BA84
:1027C00015F092FB34A20A214FF4BE70FEF768FFA9
:1027D0002AE5AFF63C0244E5AFF63C0241E5AFF630
:1027E00038023EE5AFF638023BE5AFF6340238E595
:1027F000AFF6340235E5AFF6300232E5AFF630021F
:102800002FE5AFF62C022CE50A26012A03D0022A76
:10281000C1D121B3D4E111B101290ED0D0E115F01D
:1028200063FBAFF64002D2216420FEF739FF687ADD
:1028300015F092FBAFF628020EE0704615F054FB3F
:10284000AFF65402D2216420FEF72AFF95F821004A
:1028500015F082FBAFF63C02D2218C201EE415F06D
:1028600043FBAFF6800286216420FEF74FFF687AB3
:1028700015F072FBAFF6680286218C201FE440E061
:10288000D002002030303700303135003032330094
:1028900030333100303339003030380030313600D9
:1028A0003032340030333200303430003AE00B261E
:1028B000012A03D0022AABD129B381E111B1012948
:1028C0000FD07DE1039815F00FFBAFF6BC02D221CB
:1028D0008C20FEF7E5FEA87A15F03EFBAFF2D4425D
:1028E0000EE0069815F000FBAFF6D002D2218C2046
:1028F000FEF7D6FE95F8220015F02EFBAFF2E84267
:10290000D221B420AAE7039815F0EEFAAFF6001230
:1029100086218C20FEF7FAFEA87A15F01DFBAFF297
:1029200014528621B420A9E70C26012A03D0022ADA
:10293000C1D129B344E111B101290FD040E1079879
:1029400015F0D2FAAFF23C52D221B420FEF7A8FE25
:10295000E87A15F001FBAFF234520EE00A9815F058
:10296000C3FAAFF24C52D221B420FEF799FE95F88B
:10297000220015F0F1FAAFF24852D221DC206DE7C7
:10298000079815F0B1FAAFF27C528621B420FEF719
:10299000BDFEE87A15F0E0FAAFF278528621DC202D
:1029A0006CE70D26012A03D0022A84D131B307E156
:1029B00011B101290FD003E10B9815F095FAAFF290
:1029C0009C52D221DC20FEF76BFE287B15F0C4FA66
:1029D000AFF268520EE00E9815F086FAAFF2B052E0
:1029E000D221DC20FEF75CFE95F8240015F0B4FA45
:1029F000AFF28052D2214FF482702FE70B9815F07E
:102A000073FAAFF2E0528621DC20FEF77FFE287BCE
:102A100015F0A2FAAFF2AC5286214FF482702DE786
:102A20000E26012A03D0022ABFD141B3C8E011B15A
:102A3000012910D0C4E00F9815F056FAAFF2D45225
:102A4000D2214FF48270FEF72BFE687B15F084FADA
:102A5000AFF2D8520FE0129815F046FAAFF2EC52EE
:102A6000D2214FF48270FEF71BFE95F8250015F079
:102A700073FAAFF2EC52D2214FF49670EEE60F9853
:102A800015F032FAAFF21C6286214FF48270FEF725
:102A90003DFE687B15F060FAAFF2206286214FF4AC
:102AA0009670EBE60F26012A03D0022ABCD141B36F
:102AB00086E011B1012910D082E0139815F014FAC4
:102AC000AFF24862D2214FF49670FEF7E9FDA87B81
:102AD00015F042FAAFF250220FE0169815F004FA02
:102AE000AFF25C62D2214FF49670FEF7D9FD95F8F3
:102AF000260015F031FAAFF26422D2214FF4AA7009
:102B0000ACE6139815F0F0F9AFF2906286214FF41D
:102B10009670FEF7FBFDA87B15F01EFAAFF2982227
:102B200086214FF4AA70A9E61026012A03D0022AB2
:102B3000BCD141B344E011B1012910D040E0179855
:102B400015F0D2F9AFF2C022D2214FF4AA70FEF7ED
:102B5000A7FDA87B15F000FAAFF2C0220FE01A988B
:102B600015F0C2F9AFF2D422D2214FF4AA70FEF7C9
:102B700097FD95F8270015F0EFF9AFF2D422D22196
:102B80004FF4BE706AE6179815F0AEF9AFF208324E
:102B900086214FF4AA70FEF7B9FDE87B15F0DCF949
:102BA000AFF2083286214FF4BE7067E60926012A8B
:102BB00003D0022ABCD151B302E029B1012913D0BC
:102BC00066721FB0BDE8F08F1B9815F08DF9AFF25B
:102BD0003432D2214FF4BE70FEF762FD287A15F030
:102BE000BBF9AFF600420FE01E9815F07DF9AFF289
:102BF0004832D2214FF4BE70FEF752FD95F8200006
:102C000015F0AAF9AFF61842D221642026E61B98E7
:102C100015F06AF9AFF27C3286214FF4BE70FEF7F0
:102C200075FD287A15F098F9AFF6484286216420A0
:102C300024E64FF01208012A03D0022AC1D189B13B
:102C400036E1184615F050F9AFF66442314664207B
:102C5000FEF726FD687C15F07FF9AFF64842314655
:102C60008C2028E0184615F03FF9AFF6844239462B
:102C70006420FEF74BFD687C15F06EF9AFF66C42F0
:102C800039468C202AE04FF01308012A03D0022A8B
:102C900097D199B10CE1049815F026F9AFF68C4262
:102CA00031468C20FEF7FCFCA87C15F055F9AFF6F8
:102CB000A0023146B420FEF7F3FCF9E0049815F0C9
:102CC00013F9AFF6B04239468C20FEF71FFDA87C01
:102CD00015F042F9AFF6C8023946B420FEF716FDEA
:102CE000E6E04FF01408012A03D0022AA6D189B1E8
:102CF000DEE0089815F0F8F8AFF6EC023146B420A3
:102D0000FEF7CEFCE87C15F027F9AFF6E402314679
:102D1000DC20D0E7089815F0E7F8AFF60C1239463A
:102D2000B420FEF7F3FCE87C15F016F9AFF60812B4
:102D30003946DC20D2E74FF01508012A03D0022AD9
:102D4000A6D191B1B4E00C9815F0CEF8AFF62812E8
:102D50003146DC20FEF7A4FC287D15F0FDF8AFF627
:102D6000F00231464FF48270A5E70C9815F0BCF8DC
:102D7000AFF64C123946DC20FEF7C8FC287D15F072
:102D8000EBF8AFF6141239464FF48270A6E74FF015
:102D90001608012A03D0022AA8D199B188E0109818
:102DA00015F0A2F8AFF6381231464FF48270FEF7F4
:102DB00077FC687D15F0D0F8AFF63C1231464FF441
:102DC000967078E7109815F08FF8AFF65C123946D8
:102DD0004FF48270FEF79AFC687D15F0BDF8AFF6EF
:102DE000601239464FF4967078E74FF01708012AC1
:102DF00003D0022AA4D199B15AE0149815F074F8BE
:102E0000AFF6841231464FF49670FEF749FCA87D68
:102E100015F0A2F8AFF28C5231464FF4AA704AE78F
:102E2000149815F061F8AFF6A81239464FF4967071
:102E3000FEF76CFCA87D15F08FF8AFF2B052394662
:102E40004FF4AA704AE74FF01808012A03D0022A6B
:102E5000A2D199B12CE0189815F046F8AFF2D452EF
:102E600031464FF4AA70FEF71BFCE87D15F074F8AC
:102E7000AFF2D45231464FF4BE701CE7189815F0EB
:102E800033F8AFF2F85239464FF4AA70FEF73EFC21
:102E9000E87D15F061F8AFF2F85239464FF4BE7094
:102EA0001CE74FF01108012A05D0022AA2D1A1B1D6
:102EB00084F8098085E61C9815F016F8AFF22062B8
:102EC00031464FF4BE70FEF7EBFB287C15F044F85A
:102ED000AFF6EC6231466420EDE61C9815F004F87C
:102EE000AFF2446239464FF4BE70FEF70FFC287C07
:102EF00015F032F8AFF6107239466420EEE6022A79
:102F0000D8D191B9584614F0EFFFAFF620724E4673
:102F100049466420FEF7FAFB687E15F01DF8AFF60F
:102F2000087231468C20FEF7F1FB1A207DE1022A5F
:102F3000C0D191B9059814F0D7FFAFF624724E4670
:102F400049468C20FEF7E2FBA87E15F005F8AFF6A7
:102F50003C323146B420FEF7D9FB1B2065E1022A42
:102F6000A8D191B9099814F0BFFFAFF658324E4678
:102F70004946B420FEF7CAFBE87E14F0EDFFAFF639
:102F800054323146DC20FEF7C1FB1C204DE1022A01
:102F900090D199B90D9814F0A7FFAFF670324E4654
:102FA0004946DC20FEF7B2FB287F14F0D5FFAFF6D0
:102FB000483231464FF48270FEF7A8FB1D2034E101
:102FC000022A9DD1A1B9119814F08EFFAFF6683294
:102FD0004E4649464FF48270FEF798FB687F14F026
:102FE000BBFFAFF6603231464FF49670FEF78EFBB2
:102FF0001E201AE1022A9BD1A1B9159814F074FF82
:10300000AFF680324E4649464FF49670FEF77EFB8F
:10301000A87F14F0A1FFAFF2887231464FF4AA7076
:10302000FEF774FB1F2000E1022A99D1A1B919987B
:1030300014F05AFFAFF2A8724E4649464FF4AA70F8
:10304000FEF764FBE87F14F087FFAFF2A872314609
:103050004FF4BE70FEF75AFB2020E6E0022A97D11B
:1030600091B91D9814F040FFAFF2C8724E46494620
:103070004FF4BE70FEF74AFB287E14F06DFFF84A4D
:1030800031466420FEF742FB1920CEE0022A98D197
:1030900099B9704614F028FFF14A5646121D514660
:1030A0006420FEF733FB95F8210014F055FFEC4A3D
:1030B000314630328C20FEF729FB2220B5E0022A6F
:1030C00099D199B9069814F00FFFE54A5646303267
:1030D00051468C20FEF71AFB95F8220014F03CFFB5
:1030E000AFF6CC423146B420FEF710FB23209CE023
:1030F000022A9AD199B90A9814F0F6FEAFF6E8427E
:1031000056465146B420FEF701FB95F8230014F013
:1031100023FFAFF6E4423146DC20FEF7F7FA242025
:1031200083E0022A9BD1A1B90E9814F0DDFEAFF620
:10313000005256465146DC20FEF7E8FA95F8240086
:1031400014F00AFFAFF6D44231464FF48270FEF716
:10315000DDFA252069E0022A99D1A9B9129814F064
:10316000C3FEAFF6F042564651464FF48270FEF76A
:10317000CDFA95F8250014F0EFFEAFF6F442314693
:103180004FF49670FEF7C2FA26204EE0022A97D13D
:10319000A9B9169814F0A8FEAFF614525646514637
:1031A0004FF49670FEF7B2FA95F8260014F0D4FEAC
:1031B000AFF6201231464FF4AA70FEF7A7FA272087
:1031C00033E0022A95D1A9B91A9814F08DFEAFF612
:1031D0003C12564651464FF4AA70FEF797FA95F8FE
:1031E000270014F0B9FEAFF6401231464FF4BE701E
:1031F000FEF78CFA282018E0022A93D1A1B91E9874
:1032000014F072FEAFF66012564651464FF4BE708F
:10321000FEF77CFA95F8200014F09EFE904A3146A5
:10322000121D6420FEF772FA21206072C9E4ACF12D
:103230002C0C40F23D164FF4FA77BCF1090FF5D291
:10324000DFE80CF0063A850505EEED05DC00B8E494
:1032500014F06CFE95F82C00002895F830001BD077
:10326000F8B180A29621322008F0C8FC14F084FE48
:1032700095F82A00002895F8300014D0C0B179A242
:1032800096215A2008F0BAFC95F8300090B176A04B
:1032900001F00EFA2D20C8E708B177A2E2E777A285
:1032A000E0E778A2DEE708B173A2E9E773A2E7E7F7
:1032B00074A2E5E775A0EBE714F038FE95F82A0054
:1032C000002895F8300026D050B366A296215A20E7
:1032D00008F094FC7048014609F050F81F231822AA
:1032E0007F21962008F06EFD95F82B00052819D057
:1032F00004284FF000001FD009F056F867A29B2168
:103300007F2008F07BFC95F83000F0B164A001F05C
:10331000CFF92E2089E708B157A2D7E757A2D5E702
:1033200058A2D3E7002009F03FF863A296217F203E
:10333000FEF7ECF961A2E2E709F036F85EA2962109
:103340007F20FEF7E3F94BA2D9E75DA0DFE78821F4
:10335000084609F013F81F2318227F21962008F051
:1033600031FD95F82B00052813D004284A481AD0BF
:1033700009F01AF849A29B217F2008F03FFC14F0C5
:10338000FBFD95F82D00B8B101281CD0022821D0F2
:1033900028E0414809F008F847A296217F20FEF76F
:1033A000B5F946A2E7E708F0FFFF43A296217F2088
:1033B000FEF7ACF92FA2DEE795F8300008B144A281
:1033C0000CE044A20AE095F8300008B142A205E002
:1033D00042A203E095F8300060B141A29621AA20F4
:1033E00008F00CFC95F8300030B13EA001F060F917
:1033F00034201AE73EA2F1E73EA0F7E714F096FD6D
:1034000095F82D0020B101280BD0022810D017E02C
:1034100095F8300008B12EA20EE02EA20CE0C4E018
:103420007CE095F8300008B12BA205E02BA203E068
:1034300095F8300088B12AA29621AA2008F0DEFB78
:1034400014F09AFD2FA29621304608F0D7FB3020C9
:10345000607295F8300008B158E05AE05CE0000076
:10346000EC1F00084F4E000042757A7A6572204FBB
:103470004E2F4F46460000004F464600B9D8B1D502
:1034800000000000B4F2BFAA00000000B7E4C3F9D6
:10349000C6F7C9E8D6C3000000FFFF004B000000DC
:1034A00053656C6563742074656D706572617475C5
:1034B000726520756E6974006F00000043000000A3
:1034C000CEC2B6C8B5A5CEBBD1A1D4F100000000D4
:1034D0004C000000B4F300004D000000D6D0000006
:1034E00053000000466F6E742053657400000000A6
:1034F000D0A10000CDA8B5C0D7D6CCE5C9E8D6C3C9
:10350000000000004155544F00000000F6A0FEF7F7
:1035100077BCAFF224028FE7F9A0F8E714F006FDBC
:1035200095F82E0020B1012809D002280ED015E010
:1035300095F8300008B1F6A20CE0F7A20AE095F881
:10354000300008B1F6A205E0F6A203E095F83000DD
:1035500090B1F6A23946322008F050FB14F00CFD71
:1035600095F82F0050B101280AD002280AD003286C
:103570000AD004280AD00EE0EEA2EBE7EFA206E0A4
:10358000F0A204E0F1A202E0F2A200E0F3A23946C8
:10359000572008F033FB95F8300020B1F1A001F07E
:1035A00087F8322041E6F4A0F9E714F0BFFC95F863
:1035B0002F0040B1012808D0022808D0032808D0E5
:1035C000042808D00CE0DDA206E0DEA204E0DFA2C1
:1035D00002E0E0A200E0E1A23946572008F00EFB2D
:1035E00014F0CAFCE7A23946304608F007FB95F80C
:1035F000300020B1E4A001F05BF8332015E6E6A02E
:10360000F9E7E94DE94EEA4895ED212AD6ED214A40
:10361000407B96ED194AD6ED113A96ED093AD6ED72
:10362000012AD5ED191A95ED111AD5ED090A95ED76
:10363000010AACF1380CBCF10F0FBFF43BACDFE872
:103640000CF0093D71A7DDEFEE08EDECEBEAE9E8DF
:10365000E7002FE440B101280CD0022812D0032843
:1036600018D004281ED027E0022015F02DF895ED83
:10367000000A1EE0B0EE600A022015F025F895ED74
:10368000080A16E0B0EE410A022015F01DF895ED8B
:10369000100A0EE0B0EE610A022015F015F895ED63
:1036A000180A06E0B0EE420A022015F00DF895ED7A
:1036B000200A012014F07AFF3920B6E540B1012834
:1036C0000CD0022812D0032818D004281ED027E0DE
:1036D000022014F06BFF95ED020A1EE0B0EE600AC6
:1036E000022014F063FF95ED0A0A16E0B0EE410ADD
:1036F000022014F05BFF95ED120A0EE0B0EE610AB5
:10370000022014F053FF95ED1A0A06E0B0EE420ACB
:10371000022014F04BFF95ED220A032014F0D4FF91
:103720003A2082E540B101280ED0022814D00328A7
:103730001AD0042820D029E095ED020A032014F0C5
:1037400035FF95ED030A1EE095ED0A0A032014F0FB
:103750002DFF95ED0B0A16E095ED120A032014F0EB
:1037600025FF95ED130A0EE095ED1A0A032014F0DB
:103770001DFF95ED1B0A06E095ED220A032014F0CB
:1037800015FF95ED230A042014F09EFF3B204CE525
:1037900040B101280ED0022814D003281AD00428E2
:1037A00020D029E095ED030A042014F0FFFE95EDEA
:1037B000040A1EE095ED0B0A042014F0F7FE95EDC7
:1037C0000C0A16E095ED130A042014F0EFFE95EDB7
:1037D000140A0EE095ED1B0A042014F0E7FE95EDA7
:1037E0001C0A06E095ED230A042014F0DFFE95ED97
:1037F000240A052014F068FF3C2016E588B1012852
:1038000017D002281DD0032823D0042829D032E065
:103810004AE213E2DCE1A5E16EE137E100E1C9E053
:103820002BE095ED040A052014F0C0FE95ED050A85
:103830001EE095ED0C0A052014F0B8FE95ED0D0A7A
:1038400016E095ED140A052014F0B0FE95ED150A6A
:103850000EE095ED1C0A052014F0A8FE95ED1D0A5A
:1038600006E095ED240A052014F0A0FE95ED250A4A
:10387000062014F029FF3D20D7E440B101280ED0E6
:10388000022814D003281AD0042820D029E095ED6E
:10389000050A062014F08AFE95ED060A1EE095ED55
:1038A0000D0A062014F082FE95ED0E0A16E095ED45
:1038B000150A062014F07AFE95ED160A0EE095ED35
:1038C0001D0A062014F072FE95ED1E0A06E095ED25
:1038D000250A062014F06AFE95ED260A072014F04A
:1038E000F3FE3E20A1E40000496E70757420666905
:1038F0006C65206E616D6520707265666978000088
:10390000CEC4BCFEC3FBB5C4C7B0D7BA000000002C
:103910004641535400000000BFECCBD9000000002A
:103920004D454400D6D0CBD900000000534C4F5732
:1039300000000000C2FDCBD9000000003936303055
:1039400000000000313932303000000033383430AC
:10395000300000003537363030000000313135326C
:103960003030000053656C656374204261756420DB
:103970007261746500000000B2A8CCD8C2CAC9E860
:10398000D6C30000310000005265636F7264206985
:103990006E74657276616C00BCC7C2BCBCE4B8F4DE
:1039A000CAB1BCE400000000140B0020740A00201F
:1039B000D800002040B101280ED0022814D00328DE
:1039C0001AD0042820D029E095ED060A072014F02B
:1039D000EDFD95ED070A1EE095ED0E0A072014F0A7
:1039E000E5FD95ED0F0A16E095ED160A072014F097
:1039F000DDFD95ED170A0EE095ED1E0A072014F087
:103A0000D5FD95ED1F0A06E095ED260A072014F076
:103A1000CDFD95ED270A082014F056FE3F2004E462
:103A200040B101280ED0022814D003281AD004284F
:103A300020D029E0B0EE620A022014F005FD96EDD8
:103A4000000A1EE0B0EE430A022014F0FDFC96EDE1
:103A5000080A16E0B0EE630A022014F0F5FC96EDB9
:103A6000100A0EE0B0EE440A022014F0EDFC96EDD0
:103A7000180A06E0B0EE640A022014F0E5FC96EDA8
:103A8000200A012014F04AFC412004E440B101283E
:103A90000ED0022814D003281AD0042820D029E000
:103AA000B0EE620A022014F039FC96ED020A1EE024
:103AB000B0EE430A022014F031FC96ED0A0A16E03B
:103AC000B0EE630A022014F029FC96ED120A0EE013
:103AD000B0EE440A022014F021FC96ED1A0A06E02A
:103AE000B0EE640A022014F019FC96ED220A0320BD
:103AF00014F0AAFC42200DE440B101280ED00228A7
:103B000014D003281AD0042820D029E096ED020A08
:103B1000032014F003FC96ED030A1EE096ED0A0A5A
:103B2000032014F0FBFB96ED0B0A16E096ED120A4B
:103B3000032014F0F3FB96ED130A0EE096ED1A0A3B
:103B4000032014F0EBFB96ED1B0A06E096ED220A2B
:103B5000032014F0E3FB96ED230A042014F074FC18
:103B6000432046E440B101280ED0022814D0032897
:103B70001AD0042820D029E096ED030A042014F07E
:103B8000CDFB96ED040A1EE096ED0B0A042014F01E
:103B9000C5FB96ED0C0A16E096ED130A042014F00E
:103BA000BDFB96ED140A0EE096ED1B0A042014F0FE
:103BB000B5FB96ED1C0A06E096ED230A042014F0EE
:103BC000ADFB96ED240A052014F03EFC442010E4E1
:103BD00040B101280ED0022814D003281AD004289E
:103BE00020D029E096ED040A052014F097FB96ED0D
:103BF000050A1EE096ED0C0A052014F08FFB96EDE9
:103C00000D0A16E096ED140A052014F087FB96EDD8
:103C1000150A0EE096ED1C0A052014F07FFB96EDC8
:103C20001D0A06E096ED240A052014F077FB96EDB8
:103C3000250A062014F008FC4520B3E440B1012811
:103C40000ED0022814D003281AD0042820D029E04E
:103C500096ED050A062014F061FB96ED060A1EE0BB
:103C600096ED0D0A062014F059FB96ED0E0A16E0AB
:103C700096ED150A062014F051FB96ED160A0EE09B
:103C800096ED1D0A062014F049FB96ED1E0A06E08B
:103C900096ED250A062014F041FB96ED260A072032
:103CA00014F0D2FB46207DE440B101280ED002285A
:103CB00014D003281AD0042820D029E096ED060A53
:103CC000072014F02BFB96ED070A1EE096ED0E0A76
:103CD000072014F023FB96ED0F0A16E096ED160A66
:103CE000072014F01BFB96ED170A0EE096ED1E0A56
:103CF000072014F013FB96ED1F0A06E096ED260A46
:103D0000072014F00BFB96ED270A082014F09CFB0B
:103D1000472047E4F74EF848ACF1530C96ED212AC2
:103D2000807BD6ED191A96ED111AD6ED090A96ED9B
:103D3000010ABCF1070F6DD2DFE80CF0043872A95C
:103D4000DFF2F10040B101280CD0022812D0032884
:103D500018D004281ED027E0022014F075FB96ED41
:103D6000000A1EE0B0EE600A022014F06DFB96ED32
:103D7000080A16E0B0EE410A022014F065FB96ED49
:103D8000100A0EE0B0EE610A022014F05DFB96ED21
:103D9000180A06E0B0EE420A022014F055FB96ED38
:103DA000200A012014F0BAFA542032E040B1012870
:103DB0000CD0022812D0032818D004281ED027E0E7
:103DC000022014F0ABFA96ED020A1EE0B0EE600A93
:103DD000022014F0A3FA96ED0A0A16E0B0EE410AAA
:103DE000022014F09BFA96ED120A0EE0B0EE610A82
:103DF000022014F093FA96ED1A0A06E0B0EE420A99
:103E0000022014F08BFA96ED220A032014F01CFB1A
:103E10005520607295F83000C0B3B8A0FDF7F0BF30
:103E200040B101280ED0022814D003281AD004284B
:103E300020D029E096ED020A032014F06FFA96EDE7
:103E4000030A1EE096ED0A0A032014F067FA96EDC5
:103E50000B0A16E096ED120A032014F05FFA96EDB5
:103E6000130A0EE096ED1A0A032014F057FA96EDA5
:103E70001B0A06E096ED220A032014F04FFA96ED95
:103E8000230A042014F0E0FA5620C2E7D9E040B13A
:103E900001280ED0022814D003281AD0042820D0DC
:103EA00029E096ED030A042014F038FA96ED040A8E
:103EB0001EE096ED0B0A042014F030FA96ED0C0A81
:103EC00016E096ED130A042014F028FA96ED140A71
:103ED0000EE096ED1B0A042014F020FA96ED1C0A61
:103EE00006E096ED230A042014F018FA96ED240A51
:103EF000052014F0A9FA57208BE740B1012810D013
:103F0000022816D003281CD0042822D02BE096EDDE
:103F1000040A052014F002FA96ED050A20E05AE0A2
:103F200023E096ED0C0A052014F0F8F996ED0D0A41
:103F300016E096ED140A052014F0F0F996ED150A36
:103F40000EE096ED1C0A052014F0E8F996ED1D0A26
:103F500006E096ED240A052014F0E0F996ED250A16
:103F6000062014F071FA582053E740B101280ED012
:103F7000022814D003281AD0042820D029E096ED76
:103F8000050A062014F0CAF996ED060A1EE096ED21
:103F90000D0A062014F0C2F996ED0E0A16E096ED11
:103FA000150A062014F0BAF996ED160A0EE096ED01
:103FB0001D0A062014F0B2F996ED1E0A06E096EDF1
:103FC000250A062014F0AAF996ED260A072014F017
:103FD0003BFA59201DE740B101280ED0022814D029
:103FE00003281AD0042820D029E096ED060A0720DD
:103FF00014F094F996ED070A1EE096ED0E0A0720DC
:1040000014F08CF996ED0F0A16E096ED160A0720CB
:1040100014F084F996ED170A0EE096ED1E0A0720BB
:1040200014F07CF996ED1F0A06E096ED260A0720AB
:1040300014F074F996ED270A082014F005FA5A20B6
:10404000E7E633A0EAE6BCF1350F14D0BCF1360F39
:1040500027D0BCF15B0F7EF4B4AD13F067FF95F889
:10406000310070B3012877D0022877D0032876D0AA
:10407000042875D085E013F059FF95F8300048B159
:1040800025A2AA21322007F0B9FD25A000F010FBDF
:10409000362027E426A2AA21322007F0AFFD26A071
:1040A000F4E795F8310040B1012808D0022809D082
:1040B000032809D0042809D00DE00A2207E01922BC
:1040C00005E050E0322202E04B2200E064221DA114
:1040D000684613F02FF813F04FFF6A46AA2182209A
:1040E00007F08CFD95F83000B8B317A000F0E0FAA7
:1040F0005B2094E41C060120D8000020496E7075F6
:10410000742054656D70657261747572650000008D
:10411000D0DED5FDD6B50000454E474C495348008A
:10412000594541522D4D4F4E54482D4441590000A0
:104130004348494E45534500C4EA2DD4C22DC8D545
:1041400000000000256400005365742062726967F6
:1041500068746E657373000007E002E007E008E032
:1041600009E03BA0C2E70A2206E0192204E032225D
:1041700002E04B2200E06422AFF23801684612F000
:10418000D9FF6A46AA21822007F038FD13F0F4FE19
:1041900095F8300010B1012816D02AE095F83200C9
:1041A00040B101282AD002282AD003282AD0062884
:1041B0002AD02BE0AFF63C5214E0AFF2780168460B
:1041C00012F0B8FF6A460DE095F8320040B10128C0
:1041D00014D0022814D0032814D0062814D008E0E4
:1041E000AFF66C52AA21AC2007F008FD95F830001C
:1041F00060B11BA000F05CFA5C2010E40522DCE753
:104200000A22DAE70F22D8E71E22D6E719A0F1E743
:104210001C4DBCF1480F11D0BCF1490F7EF4D1AC5C
:1042200095ED010A19F0E6F995ED020ABDEEC00A16
:1042300010EE100A14F0F8FB4A2026E495ED000A6F
:1042400019F0B4F895ED010A19F058FA49201CE468
:10425000B1B3B9E2C1C1B6C8C9E8D6C30000000015
:10426000526564756365206272696768746E657310
:1042700073000000BDB5B5CDC1C1B6C8CAB1BCE4BC
:1042800000000000FC05012070470000F0B501218E
:1042900087B0084609F0FAFB0121102009F026FC3E
:1042A000012500248DF806408DF80750022668028B
:1042B000254F8DF8056000908DF8046069463846FA
:1042C00006F068FFA80200908DF804606946384641
:1042D00006F060FF07220A21384606F097FF072202
:1042E0000921384606F092FF4FF416500290ADF8BF
:1042F0000C406803ADF80E00ADF81040ADF8144066
:104300000C20124CADF8120002A9204610F06CFFF0
:104310004FF4A06009F06CFB25208DF818008DF893
:1043200019508DF81A508DF81B5006A809F02EFB75
:10433000012240F22551204610F03EFF0121204687
:1043400010F00AFF07B0F0BD00000240001001406D
:1043500001B5009801E0401E00900028FBD108BD87
:104360002DE9F04104464248007809281ED0414E0C
:10437000414D4FF4FA7730782978884203D1697833
:10438000A1420AD058B98821084607F0F7FF172341
:1043900032220A21384607F015FD307840B1C0B20C
:1043A000802803D100F0A2F880202870BDE8F081B9
:1043B000A4F13A0000EE100ADFED300A8821B8EED1
:1043C000C00A6FF07F4080EE201A85ED051A07F0D5
:1043D000D5FF3A461E230A21104607F086FD0A2320
:1043E0004FF4077632461946384607F07EFD1E2305
:1043F00032461946384607F078FD32460F230A2127
:10440000104607F072FD0F23771D3A4619463046D5
:1044100007F06BFD3A4619230F21104607F065FDA2
:1044200019233A461946304607F05FFD32461E23EF
:104430001921104607F059FD3A2C15D988214FF45F
:104440007F4007F09BFF95ED050ADFED0D0A112374
:104450000C2120EE200ABDEEC00A10EE100A82B236
:104460004FF4FB7007F0AEFC002028706C709DE7E5
:10447000E0000020440000205000002000002842FE
:104480000000144210B5134911484FF4E17448601C
:104490000020886010A22321204607F0AFFB0FA266
:1044A000A521204607F0AAFB0DA240F225112046C7
:1044B00007F0A4FB0BA24FF4D271204607F09EFB3D
:1044C0002046BDE8104008A24FF4097107F096BBE2
:1044D00000FFFF00500000203130000032350000A6
:1044E00035300000373500003130300070B588219C
:1044F0006FF07F4007F042FF4FF4FF7422460D2318
:104500000A21104607F0F1FC251D2A460D230A2139
:10451000104607F0EAFC0F23E21D1946E01E07F0E3
:10452000E4FC072309221021A01E07F04BFC1723EF
:10453000621D1946901F07F0D8FC18232A46194619
:10454000204607F0D2FC1923E21C1946901E07F002
:10455000CCFC2023BDE87040180102461A2107F068
:10456000C4BC0000F0B51A481A491B4A90F8300044
:104570004FF4E17440F225154FF4D2764FF40977E9
:10458000F8B1012822D10020C2E9011013A2232191
:10459000204607F033FB12A2A521204607F02EFB90
:1045A00010A22946204607F029FB0FA231462046DB
:1045B00007F024FB39462046BDE8F0400BA207F087
:1045C0001DBB0020C2E9011009A2E0E7F0BD000018
:1045D000D002002000FFFF00500000204F464600A0
:1045E000350000003130000031350000333000006C
:1045F000B9D8B1D5000000002DE9F0412B4C21467F
:10460000084607F0BBFE40F25F1340F2F51232217C
:104610001E2007F04BFC0021084607F0AFFE4FF4C8
:10462000AF734FF4FA7233211F2007F0CBFB214602
:10463000084607F0A3FE00251F274FF0650805EB8D
:10464000C50101EB0511002408EB410604EB8400D1
:10465000314607EB40000023052207F0E7FB641C0E
:10466000E4B2322CF2D36D1CEDB2062DE7D3002557
:1046700033274FF0510805EBC50000EB051000246F
:1046800008EB400604EB840007EB400130460123B1
:10469000052207F0CBFB641CE4B2232CF2D36D1C83
:1046A000EDB2092DE7D3BDE8F08100008B4E10007C
:1046B00070B505468821084607F060FE4FF4D074B7
:1046C00018234FF4C8722146032007F07BFB064BEA
:1046D00088202A4698606FF07F4058602046BDE8E9
:1046E00070400321FDF76CB85000002070B5FF2129
:1046F000002007F043FE28231C014FF4DC752246FE
:104700002946002007F05EFBFF21184807F036FE1F
:10471000022322462946002007F054FB2C1D2623A5
:10472000012221467F2007F04DFB2623012221464E
:10473000FF2007F047FB26230122214640F27F108D
:1047400007F040FB26230122214640F2FF1007F02C
:1047500039FB07480078012803D0BDE8704000F01D
:1047600009B8BDE8704000F061B800008B4E100041
:104770002400002070B58821084607F0FFFD4FF4A3
:10478000E07417230F220A21204607F01BFB882123
:104790006FF07F4007F0F2FDA51C02230B220A21D7
:1047A000284607F00FFB062302220C21284607F0BB
:1047B00009FB062302220C2140F2CB1007F002FB7A
:1047C00002231A460E21601D07F0FCFA02231A4646
:1047D0000E21A81D07F0F6FA02230F22122120460F
:1047E00007F0F0FA0B2302221421204607F0EAFA20
:1047F0000B230222142140F2CD1007F0E3FA02232A
:104800000F221F21204607F0DDFA4FF4E574A51FA3
:104810001C2322461621284607F067FB2A4620461D
:10482000BDE870401C23162107F05FBB70B58821DE
:10483000084607F0A3FD4FF4E07517230F220A2165
:10484000284607F0BFFA88214FF47F4007F096FD15
:10485000AC1C02230B220A21204607F0B3FA0623E0
:1048600002220C21204607F0ADFA40F2CB140623B9
:1048700002220C21204607F0A5FA02231A460E2137
:10488000A01F07F09FFA02231A460E21E01E07F030
:1048900099FA02230F221221284607F093FA0B23DC
:1048A00002221421284607F08DFA0B23022214213C
:1048B000A01C07F087FA02230F221F21284607F0C9
:1048C00081FA621F1C231921D01E07F00EFB17234B
:1048D0001B212246201FBDE8704007F006BB0000E8
:1048E00010B588216FF07F4007F048FD0F4840F277
:1048F0008B114C1D90F82B0005280AD004280ED0EF
:10490000012812D10AA22146BDE81040052007F077
:1049100075B908A20520FCF7F9FE07A2F3E705A286
:104920000520FCF7F3FE05A2EDE710BDD002002044
:104930004B0000006F000000430000004600000034
:104940002DE9F05FFE4D2DED028B95EC020A30EE65
:10495000601ADFEDFC1AFC4CDFF8F0B381EE812A1F
:10496000DFF8ECA3DFF8EC83DFF8EC9384ED012AA9
:104970009BF800009FEDF98AF94EFA4FF0BB9AF8C8
:10498000000003283ED1388806EB800090ED001A25
:10499000B4EEC01AF1EE10FA34D2B4EEE01AF1EE31
:1049A00010FA2FDD88214FF47F0007F0E7FC3888EC
:1049B00060B306EB800195ED010AD1ED000AB0EE7F
:1049C000481A70EEC01AD4ED010A01EEE01ABCEEEE
:1049D000C11A11EE102A11ED011A93B231EE401AEC
:1049E000B0EE480A00F1200292B201EE600A1F30D8
:1049F000BDEEC00A10EE101A89B200E002E080B2EB
:104A000007F073FA9BF80100D8B163E098ED000A53
:104A1000D9ED000A94ED011A202230EE600AD5ED9E
:104A2000010A70EE600AB0EE480A00EEC10ABDEE5F
:104A3000C00A10EE100A83B210EE100A81B21F20D5
:104A4000DEE79AF80000032844D13888D5ED000A43
:104A500006EB800000F5806090EDF40AB4EEE00A09
:104A6000F1EE10FA36D2D5ED010AB4EEE00AF1EE1D
:104A700010FA2FDD88214FF47F4007F07FFC388843
:104A800060B306EB800101F5806195ED010AD1ED7F
:104A9000F40AB0EE481A70EEC01AD4ED010A01EE25
:104AA000E01ABCEEC11A11EE102A91EDF31A93B27E
:104AB00031EE401AB0EE480A00F120021F3001EE3C
:104AC000600A92B280B2BDEEC00A10EE101A89B22E
:104AD00007F00BFA9BF80200D8B163E098ED010AE9
:104AE000D9ED010A94ED011A202230EE600AD5EDCD
:104AF000010A70EE600AB0EE480A00EEC10ABDEE8F
:104B0000C00A10EE100A83B210EE100A81B21F2004
:104B1000DEE79AF80000032844D13888D5ED000A72
:104B200006EB800000F5406090EDE80AB4EEE00A84
:104B3000F1EE10FA36D2D5ED010AB4EEE00AF1EE4C
:104B400010FA2FDD88214FF0FF1007F017FC38888E
:104B500060B306EB800101F5406195ED010AD1EDEE
:104B6000E80AB0EE481A70EEC01AD4ED010A01EE60
:104B7000E01ABCEEC11A11EE102A91EDE71A93B2B9
:104B800031EE401AB0EE480A00F120021F3001EE6B
:104B9000600A92B280B2BDEEC00A10EE101A89B25D
:104BA00007F0A3F99BF80300D8B163E098ED020A7F
:104BB000D9ED020A94ED011A202230EE600AD5EDFB
:104BC000010A70EE600AB0EE480A00EEC10ABDEEBE
:104BD000C00A10EE100A83B210EE100A81B21F2034
:104BE000DEE79AF80000032844D13888D5ED000AA2
:104BF00006EB800000F5A05090EDDC0AB4EEE00A70
:104C0000F1EE10FA36D2D5ED010AB4EEE00AF1EE7B
:104C100010FA2FDD88214FF6FF7007F0AFFB3888C0
:104C200060B306EB800101F5A05195ED010AD1EDCD
:104C3000DC0AB0EE481A70EEC01AD4ED010A01EE9B
:104C4000E01ABCEEC11A11EE102A91EDDB1A93B2F4
:104C500031EE401AB0EE480A00F120021F3001EE9A
:104C6000600A92B280B2BDEEC00A10EE101A89B28C
:104C700007F03BF99BF80400D8B17AE098ED030AFD
:104C8000D9ED030A94ED011A202230EE600AD5ED29
:104C9000010A70EE600AB0EE480A00EEC10ABDEEED
:104CA000C00A10EE100A83B210EE100A81B21F2063
:104CB000DEE79AF8000003285BD13888D5ED000ABA
:104CC00006EB800000F5E05090EDD00AB4EEE00A6B
:104CD000F1EE10FA4DD2D5ED010AB4EEE00AF1EE94
:104CE00010FA46DD8821204807F048FB3888E8B3F1
:104CF00006EB800101F5E05195ED010AD1EDD00AF6
:104D0000B0EE481A70EEC01AD4ED010A01EEE01AB6
:104D1000BCEEC11A11EE102A91EDCF1A93B231EE0A
:104D2000401AB0EE480A00F120021F3001EE600A7E
:104D300092B280B2BDEEC00A10EE101A89B216E02F
:104D4000FC0501200000AF4310010020D00200202C
:104D5000E0000020140900201C0601200000C843C8
:104D6000B40B00203C00002000FFFF0005E007F02E
:104D7000BCF89BF80500D8B163E098ED040AD9EDC2
:104D8000040A94ED011A202230EE600AD5ED010AE2
:104D900070EE600AB0EE480A00EEC10ABDEEC00A2D
:104DA00010EE100A83B210EE100A81B21F20C6E77F
:104DB0009AF80000032844D13888D5ED000A06EBA4
:104DC000800000F5105090EDC40AB4EEE00AF1EE58
:104DD00010FA36D2D5ED010AB4EEE00AF1EE10FA7F
:104DE0002FDD88214FF4704007F0C8FA388860B38F
:104DF00006EB800101F5105195ED010AD1EDC40AD1
:104E0000B0EE481A70EEC01AD4ED010A01EEE01AB5
:104E1000BCEEC11A11EE102A91EDC31A93B231EE15
:104E2000401AB0EE480A00F120021F3001EE600A7D
:104E300092B280B2BDEEC00A10EE101A89B207F02D
:104E400054F89BF80600D8B163E098ED050AD9ED57
:104E5000050A94ED011A202230EE600AD5ED010A10
:104E600070EE600AB0EE480A00EEC10ABDEEC00A5C
:104E700010EE100A83B210EE100A81B21F20DEE796
:104E80009AF80000032844D13888D5ED000A06EBD3
:104E9000800000F5305090EDB80AB4EEE00AF1EE73
:104EA00010FA36D2D5ED010AB4EEE00AF1EE10FAAE
:104EB0002FDD88214FF2902007F060FA388860B328
:104EC00006EB800101F5305195ED010AD1EDB80AEC
:104ED000B0EE481A70EEC01AD4ED010A01EEE01AE5
:104EE000BCEEC11A11EE102A91EDB71A93B231EE51
:104EF000401AB0EE480A00F120021F3001EE600AAD
:104F000092B280B2BDEEC00A10EE101A89B206F05D
:104F1000ECFF9BF80700D8B162E098ED060AD9EDE6
:104F2000060A94ED011A202230EE600AD5ED010A3E
:104F300070EE600AB0EE480A00EEC10ABDEEC00A8B
:104F400010EE100A83B210EE100A81B21F20DEE7C5
:104F50009AF80000032843D13888D5ED000A06EB03
:104F6000800000F5505090EDAC0AB4EEE00AF1EE8E
:104F700010FA35D2D5ED010AB4EEE00AF1EE10FADE
:104F80002EDD8821FF2007F0F9F9388860B306EBA1
:104F9000800101F5505195ED010AD1EDAC0AB0EE5A
:104FA000481A70EEC01AD4ED010A01EEE01ABCEE08
:104FB000C11A11EE102A91EDAB1A93B231EE401ADC
:104FC000B0EE480A00F120021F3001EE600A92B2F2
:104FD00080B2BDEEC00A10EE101A89B206F085FF4D
:104FE0009BF80800D8B163E098ED070AD9ED070AED
:104FF00094ED011A202230EE600AD5ED010A70EE20
:10500000600AB0EE480A00EEC10ABDEEC00A10EE1A
:10501000100A83B210EE100A81B21F20DEE79AF860
:105020000000032844D13888D5ED000A06EB800043
:1050300000F5705090EDA00AB4EEE00AF1EE10FA1F
:1050400036D2D5ED010AB4EEE00AF1EE10FA2FDD0A
:1050500088216FF07F4007F091F9388860B306EB44
:10506000800101F5705195ED010AD1EDA00AB0EE75
:10507000481A70EEC01AD4ED010A01EEE01ABCEE37
:10508000C11A11EE102A91ED9F1A93B231EE401A17
:10509000B0EE480A00F120021F3001EE600A92B221
:1050A00080B2BDEEC00A10EE101A89B206F01DFFE4
:1050B0009BF80900D8B163E098ED080AD9ED080A19
:1050C00094ED011A202230EE600AD5ED010A70EE4F
:1050D000600AB0EE480A00EEC10ABDEEC00A10EE4A
:1050E000100A83B210EE100A81B21F20DEE79AF890
:1050F0000000032844D13888D5ED000A06EB800073
:1051000000F5884090ED940AB4EEE00AF1EE10FA52
:1051100036D2D5ED010AB4EEE00AF1EE10FA2FDD39
:1051200088214FF6A07007F029F9388860B306EBA4
:10513000800101F5884195ED010AD1ED940AB0EEA8
:10514000481A70EEC01AD4ED010A01EEE01ABCEE66
:10515000C11A11EE102A91ED931A93B231EE401A52
:10516000B0EE480A00F120021F3001EE600A92B250
:1051700080B2BDEEC00A10EE101A89B206F0B5FE7C
:105180009BF80A00D8B163E098ED090AD9ED090A45
:1051900094ED011A202230EE600AD5ED010A70EE7E
:1051A000600AB0EE480A00EEC10ABDEEC00A10EE79
:1051B000100A83B210EE100A81B21F20DEE79AF8BF
:1051C0000000032844D13888D5ED000A06EB8000A2
:1051D00000F5984090ED880AB4EEE00AF1EE10FA7E
:1051E00036D2D5ED010AB4EEE00AF1EE10FA2FDD69
:1051F00088214AF6F07007F0C1F8388860B306EBF2
:10520000800101F5984195ED010AD1ED880AB0EED3
:10521000481A70EEC01AD4ED010A01EEE01ABCEE95
:10522000C11A11EE102A91ED871A93B231EE401A8D
:10523000B0EE480A00F120021F3001EE600A92B27F
:1052400080B2BDEEC00A10EE101A89B206F04DFE13
:105250009BF80B00D8B162E098ED0A0AD9ED0A0A72
:1052600094ED011A202230EE600AD5ED010A70EEAD
:10527000600AB0EE480A00EEC10ABDEEC00A10EEA8
:10528000100A83B210EE100A81B21F20DEE79AF8EE
:105290000000032843D13888D5ED000A06EB8000D2
:1052A00000F5A84090ED7C0AB4EEE00AF1EE10FAA9
:1052B00035D2D5ED010AB4EEE00AF1EE10FA2EDD9A
:1052C0008821F84807F05AF8388860B306EB800167
:1052D00001F5A84195ED010AD1ED7C0AB0EE481A1E
:1052E00070EEC01AD4ED010A01EEE01ABCEEC11A4C
:1052F00011EE102A91ED7B1A93B231EE401AB0EE06
:10530000480A00F120021F3001EE600A92B280B21A
:10531000BDEEC00A10EE101A89B206F0E6FD9BF849
:105320000C00D8B162E098ED0B0AD9ED0B0A94EDB0
:10533000011A202230EE600AD5ED010A70EE600AF3
:10534000B0EE480A00EEC10ABDEEC00A10EE100A27
:1053500083B210EE100A81B21F20DEE79AF8000037
:10536000032843D13888D5ED000A06EB800000F50C
:10537000B84090ED700AB4EEE00AF1EE10FA35D2C2
:10538000D5ED010AB4EEE00AF1EE10FA2EDD882127
:10539000C54806F0F3FF388860B306EB800101F5DD
:1053A000B84195ED010AD1ED700AB0EE481A70EEE1
:1053B000C01AD4ED010A01EEE01ABCEEC11A11EEDA
:1053C000102A91ED6F1A93B231EE401AB0EE480AEE
:1053D00000F120021F3001EE600A92B280B2BDEEF1
:1053E000C00A10EE101A89B206F07FFD9BF80D007E
:1053F000D8B162E098ED0C0AD9ED0C0A94ED011ACF
:10540000202230EE600AD5ED010A70EE600AB0EE9F
:10541000480A00EEC10ABDEEC00A10EE100A83B2BF
:1054200010EE100A81B21F20DEE79AF80000032870
:1054300043D13888D5ED000A06EB800000F5C8405E
:1054400090ED640AB4EEE00AF1EE10FA35D2D5ED33
:10545000010AB4EEE00AF1EE10FA2EDD882193483D
:1054600006F08CFF388860B306EB800101F5C84177
:1054700095ED010AD1ED640AB0EE481A70EEC01A3B
:10548000D4ED010A01EEE01ABCEEC11A11EE102AA9
:1054900091ED631A93B231EE401AB0EE480A00F172
:1054A00020021F3001EE600A92B280B2BDEEC00A47
:1054B00010EE101A89B206F018FD9BF80E00D8B154
:1054C00062E098ED0D0AD9ED0D0A94ED011A202243
:1054D00030EE600AD5ED010A70EE600AB0EE480ABF
:1054E00000EEC10ABDEEC00A10EE100A83B210EE43
:1054F000100A81B21F20DEE79AF80000032843D18A
:105500003888D5ED000A06EB800000F5D84090ED14
:10551000580AB4EEE00AF1EE10FA35D2D5ED010AE0
:10552000B4EEE00AF1EE10FA2EDD8821604806F0B4
:1055300025FF3888F0B306EB800101F5D84195EDE1
:10554000010AD1ED580AB0EE481A70EEC01AD4ED37
:10555000010A01EEE01ABCEEC11A11EE102A91ED1B
:10556000571A93B231EE401AB0EE480A00F1200209
:105570001F3001EE600A92B280B2BDEEC00A10EE9A
:10558000101A89B206F0B1FC9BF80F0000287DD1FB
:105590009AF80000032879D13888D5ED000A06EB87
:1055A000800000F5E84090ED4C0AB4EEE00AF1EE20
:1055B00010FA00E03AE071D2D5ED010AB4EEE00A4B
:1055C000F1EE10FA6ADD88213A4806F0D7FE3888F5
:1055D000E8B306EB800101F5E84195ED010AD1ED54
:1055E0004C0AF0EE481A30EEC01AD4ED010A01EE72
:1055F000608ABCEEC81AB0EE618A11EE102A91EDF5
:105600004B1A93B231EE400A00F120021F3092B2E1
:1056100000EE608A80B2BDEEC80A10EE101A89B2A0
:10562000BDEC028BBDE8F05F06F05FBC98ED0E0AA2
:10563000D9ED0E0A94ED011A30EE600AD5ED010A9B
:1056400070EE600AB0EE480A00EEC10A00E00AE01F
:10565000BDEEC00A202210EE100A83B210EE100A2E
:1056600081B21F208EE798ED0F0AD9ED0F0A30EEB8
:10567000600AD5ED010A30EE600AD4ED010A00EEB1
:10568000608ABDEEC80A10EE100A00E006E083B2A0
:1056900010EE100A202281B21F20C1E7BDEC028B60
:1056A000BDE8F09FF033110000AF22005900330035
:1056B000FF05E2000093FF00224910B54FF2902051
:1056C00048600020886020484FF4E17490F8301062
:1056D000E9B11EA20A21204606F090FA1DA29921E6
:1056E000204606F08BFA1DA240F21311204606F068
:1056F00085FA1CA24FF4CD71204606F07FFA1BA25A
:1057000040F221212046BDE8104006F077BA19A2E8
:105710002321204606F072FA18A29921204606F0AD
:105720006DFA18A240F22511204606F067FA17A27A
:105730004FF4D271204606F061FA16A24FF40971B7
:10574000E0E7000050000020D00200204449535000
:105750004C4159004752415048000000535953549E
:10576000454D0000534554555000000050414745F9
:1057700000000000CFD4CABE00000000C7FACFDF8F
:10578000CDBC0000CFB5CDB300000000C9E8D6C342
:1057900000000000B7ADD2B30000000030B52249D0
:1057A00020484FF4E1744860002088601F484FF49F
:1057B000097590F83020E2B11DA22321204606F0A1
:1057C0001DFA1DA2A521204606F018FA1CA24FF4CE
:1057D0008B71204606F012FA1BA240F2951120466A
:1057E00006F00CFA1AA229462046BDE8304006F021
:1057F00005BA19A22321204606F000FA17A2A52116
:10580000204606F0FBF916A240F22511204606F0CC
:10581000F5F914A24FF4D271204606F0EFF912A266
:10582000E1E7000000FFFF0050000020D002002050
:10583000594541522B000000594541522D000000AE
:105840004D4F4E54482B00004D4F4E54482D0000F4
:105850004D4F524500000000C4EA2B00C4EA5F002F
:10586000D4C22B00D4C25F00B8FCB6E00000000038
:1058700030B5164914484FF4E17448600020886040
:1058800013484FF4097590F8302082B111A22321FA
:10589000204606F0B3F911A2A521204606F0AEF984
:1058A00010A229462046BDE8304006F0A7B90FA255
:1058B0002321204606F0A2F90DA2A521204606F0DC
:1058C0009DF90CA2EDE7000000FFFF005000002052
:1058D000D00200204441592B000000004441592DC2
:1058E000000000004D4F524500000000C8D52B00BD
:1058F000C8D55F00B8FCB6E000000000224910B532
:105900004FF2902048600020886020484FF4E174F6
:1059100090F83010E9B11EA20A21204606F06EF977
:105920001DA28C21204606F069F91DA240F2131138
:10593000204606F063F91CA24FF4CD71204606F014
:105940005DF91BA240F20A212046BDE8104006F096
:1059500055B919A22321204606F050F918A2992121
:10596000204606F04BF918A240F22511204606F019
:1059700045F917A24FF4D271204606F03FF916A25E
:105980004FF40471E0E7000050000020D002002036
:10599000444953504C415900484953544F525900BF
:1059A00053595354454D0000534554555000000081
:1059B000472E534554000000CFD4CABE000000005B
:1059C000C0FACAB700000000CFB5CDB30000000098
:1059D000C9E8D6C300000000C7FACFDFC9E8D6C3C4
:1059E00000000000224910B54FF2902048600020CE
:1059F000886020484FF4E17490F83010E9B11EA29D
:105A00000A21204606F0FAF81DA29921204606F048
:105A1000F5F81DA240F21311204606F0EFF81CA283
:105A20004FF4CD71204606F0E9F81BA240F20A219E
:105A30002046BDE8104006F0E1B819A22321204617
:105A400006F0DCF818A29921204606F0D7F818A233
:105A500040F22511204606F0D1F817A24FF4D2717A
:105A6000204606F0CBF816A24FF40771E0E70000DD
:105A700050000020D0020020444953504C415900AE
:105A8000475241504800000053595354454D0000BF
:105A90005345545550000000484953544F52590043
:105AA000CFD4CABE00000000C7FACFDFCDBC0000D3
:105AB000CFB5CDB300000000C9E8D6C30000000098
:105AC000C0FACAB700000000224910B54FF290207A
:105AD00048600020886020484FF4E17490F830104E
