:020000040800F2
:1000000010100120C10100085F350108F90801083E
:100010005D350108BD110008E70C02080000000072
:100020000000000000000000000000001D61010849
:1000300031620008000000001536010865640108FF
:10004000DB010008DB010008DB010008DB01000820
:10005000DB010008DB010008DB010008DB01000810
:10006000DB010008DB010008DB010008DB01000800
:10007000DB010008DB010008DB010008DB010008F0
:10008000DB010008DB010008DB010008DB010008E0
:10009000DB010008DB010008DB010008DB010008D0
:1000A000DB010008DB010008DB010008DB010008C0
:1000B000DB010008DB010008DB010008DB010008B0
:1000C000DB010008DB010008DB010008DB010008A0
:1000D000DB01000839F50108DB010008DB0100083D
:1000E000DB010008DB010008DB010008DB01000880
:1000F000DB010008DB010008DB010008DB01000870
:10010000DB010008DB010008DB010008DB0100085F
:10011000DB010008DB010008FD640108A566010899
:10012000DB010008DB010008DB010008DB0100083F
:10013000DB010008DB010008DB010008DB0100082F
:10014000DB010008DB010008DB010008D9350108EC
:10015000DB010008DB010008DB010008DB0100080F
:10016000DB010008DB010008F1350108E535010875
:10017000DB010008FD350108DB010008DB01000898
:10018000DB010008DB010008DB010008DB010008DF
:10019000DB010008DB010008DB010008DB010008CF
:1001A000DB010008DB010008DB010008DFF80CD0F0
:1001B00000F012FC00480047752A020810100120C8
:1001C0000648804706480047FEE7FEE7FEE7FEE7F1
:1001D000FEE7FEE7FEE7FEE7FEE7FEE7A1640108B3
:1001E000AD010008D2B201E000F8012B491EFBD29C
:1001F00070470022F6E710B513460A460446194632
:10020000FFF7F0FF204610BD421E12F8013F002B01
:10021000FBD111F8013B02F8013B002BF9D17047EB
:1002200010B5044604E00B7800F8013B03B1491C0B
:10023000521EF8D2204610BD421C10F8011B0029A6
:10024000FBD1801A704710B5002200E0521C835C7D
:100250008C5CA34201D1002BF8D1D8B2E1B2401A94
:1002600010BD034611F8012B00F8012B002AF9D12B
:100270001846704770B5064621F0F2FB0468054643
:100280000A220021304600F0ABFA2C6070BD2DE947
:10029000FE4F804681EA0300C00F0C46009021F01B
:1002A000004123F00045B8EB0200A94105D24046C9
:1002B000214690461C460B46024623F00040104360
:1002C00047D0270DC7F30A00C3F30A510290401A22
:1002D000019040286BDAC3F3130040F4801B0098B0
:1002E000924620B10023D2EB030A63EB0B0B01987B
:1002F0005946C0F14002504600F0F3F906460D465B
:1003000050465946019A00F00BFA10EB0800614183
:10031000002487EA115284EAE7731A4340D0009A16
:1003200062B3019A012A4FEA075215DC001B61EB08
:1003300002014FF0004202EA0752CDE90042001CE0
:1003400041F5801132462B4600F0C8FA03B0BDE8F3
:10035000F08F40462146F9E7001B61EB0201001CCB
:1003600041F5801300185B412018A2F5001747EBF8
:10037000030140EAD570B6196D4111E06D084FEAEE
:10038000360645EAC0754FEA0752001B61EB0201D1
:10039000001C41F5801149084FEA30000019514115
:1003A00032462B4603B0BDE8F04F00F088BA009803
:1003B000012240000023D0EB020263EBE0730098BF
:1003C00021464FEAE074B8EB000061EB0401E9E775
:1003D00083F000435BE781F0004158E72DE9FE4FD1
:1003E00081EA030404F0004421F0004100944FF03E
:1003F000000B23F0004350EA01045ED052EA0304EC
:100400005BD0C3F30A54C1F30A552C44A4F2F3346D
:100410000194A0FB0254C1F3130141F48011C3F312
:10042000130343F4801301FB024400FB034E840AD0
:10043000970A44EA815447EA8357A4FB0768029568
:100440008D0A05FB07854FEA932C04FB0C54270506
:10045000029D4FEA065847EA1637B5EB08056EEBE2
:10046000070C870E920E47EA811742EA8312A7FB18
:100470000201B6EB0B0164EB00042B0D43EA0C33D5
:100480005E1844EB1C50DA465146E7FB0201C5F307
:1004900013044FEA0B3343EA14534FEA0432019C2E
:1004A00043EA0603A4F10C040294009CCDE900B4D5
:1004B00000F014FA03B0BDE8F08F00200146F9E720
:1004C0002DE9F04D81EA030404F0004B21F00045D2
:1004D00014464FF0000A23F0004150EA050220D0F4
:1004E00054EA01021DD0C5F30A570246C5F31303AF
:1004F000C1F31300C1F30A5640F4801543F480138E
:10050000A7EB0608101BD64608F2FD3873EB050072
:1005100002D308F1010801E092185B41B8F1000F25
:1005200003DA00200146BDE8F08D00204FF4801171
:10053000064684460EE0171B73EB050705D3121B16
:1005400063EB050306434CEA010C49084FEA30000F
:1005500092185B4150EA0107EDD152EA030012D034
:1005600082EA040083EA0501084305D0101BAB4171
:1005700006D20122002306E000224FF0004302E0F1
:100580006FF0010253101AEB06004CEB085110EB10
:100590000A0041EB0B01BDE8F04D00F090B90EB53B
:1005A00040F2334102910021CDE900110A460B4689
:1005B00000F094F903B000BD70B5C1F30A5201F028
:1005C00000450024C1F3130140F2FF3341F48011D0
:1005D0009A4201DA002070BD40F233439A42A2F2FF
:1005E000334203DC524200F08BF800E090402C4391
:1005F000F1D0404270BD00F0004230F000400AD01F
:10060000C10D01F56071C0F3160042EA0151C20844
:1006100040071143704700200146704701F0004336
:1006200030B421F0004150EA010206D00A0DA2F5D3
:100630006072C1F31301002A02DC30BC0020704755
:10064000440F44EAC104C100E01830BC00EBC250C2
:1006500000F0FEB830B50B460146002020220124F0
:1006600009E021FA02F59D4205D303FA02F5491B80
:1006700004FA02F52844151EA2F10102F1DC30BD96
:100680002DE9F05F0546002092469B4688460646C7
:10069000814640241BE0284641464746224600F05A
:1006A0002FF853465A46C01A914110D311461846A6
:1006B000224600F016F82D1A67EB01084F46224635
:1006C0000120002100F00DF817EB00094E41201E1B
:1006D000A4F10104DFDC484631462A464346BDE822
:1006E000F09F202A04DB203A00FA02F10020704734
:1006F0009140C2F1200320FA03F319439040704760
:10070000202A04DB203A21FA02F00021704721FA66
:1007100002F3D040C2F120029140084319467047CD
:10072000202A06DBCB17203A41FA02F043EAE073B5
:1007300006E041FA02F3D040C2F1200291400843A2
:10074000194670470FB4002300B589B00CA9009179
:100750000B996FF00042CB601E4B06931E4B079324
:100760000423CDE901321D4A089202466B4600205F
:1007700000F0E6F909B05DF814FB70B586B00646E6
:100780004FF0FF300091CDE90101002015460C46E5
:1007900004903246694604A8FFF7D4FF0246049845
:1007A000211825B108B1084600E0204628600498C9
:1007B00000280DD0002A02DD0098884208D0081BCE
:1007C0000094CDE901043246694604A8FFF7BAFF58
:1007D00006B070BD790D0008970D0008050A0008E5
:1007E0002DE9F04791460F4680460446002614F84E
:1007F000015B2DB100F002F90068405DC007F6D141
:100800002B2D02D02D2D18D0641E4A463946204685
:1008100000F0D2FA27B13968A14201D1C7F80080AF
:1008200071054FF002040BD54042002803DD21F092
:1008300017F90460A007BDE8F08746F48066E4E796
:100840000028F8DA21F00CF904606FF00040F2E7BC
:100850000029A8BF7047401C490008BF20F00100D4
:10086000704710B4B0FA80FC00FA0CF050EA0104B2
:1008700004BF10BC704749B1CCF1200421FA04F444
:1008800011FA0CF118BF012121430843A3EB0C011D
:10089000CB1D4FEA00614FEA102042BF002010BC80
:1008A000704700EBC35010440029A4BF10BC704730
:1008B000401C490008BF20F0010010BC704710B573
:1008C000141E73F1000408DA401C41F10001921873
:1008D0005B411A4301D120F0010010BD2DE9F04D1C
:1008E00092469B4611B1B1FA81F202E0B0FA80F271
:1008F00020329046FFF7F5FE04460F4640EA0A0014
:1009000041EA0B0153465A46084313D0114653EAB5
:10091000010019D0C8F140025046FFF7F1FE05462C
:100920000E46504659464246FFF7DBFE084305D0C7
:10093000012004E020463946BDE8F08D0020054343
:1009400046EAE0762C4337430A986305E40AA0EBB5
:1009500008000022FD0A44EA47540A3002D500206C
:100960000146E9E7010510196941DDE9084500196B
:100970006941BDE8F04DA2E7C1F30A52C1F313018A
:1009800040F2FF3341F480119A4202DA002001461E
:10099000704740F233439A42A2F2334202DC5242A1
:1009A000FFF7AEBEFFF79DBE30B5041E71F1000427
:1009B00004DB4FF00044404264EB0101141E73F16C
:1009C000000405DB1C464FF00043524263EB040376
:1009D000994208BF904230BD064C074D06E0E068E2
:1009E00040F0010394E8070098471034AC42F6D376
:1009F000FFF7E0FBAC1C0408CC1C0408004870475F
:100A0000341C040810B50446FFF7F8FF0068005DC9
:100A100000F0010010BD00002DE9FF4F087883B001
:100A20009946FF2805D0491C2D2804D00024002019
:100A300008E000200BE00124F9E700EB800003EB65
:100A40004000491C0B78FF2BF7D104B14042002332
:100A50000293147819461D462D2C01D02B2C04D15D
:100A6000521C2D2C13D000240294AA461478FF2C7B
:100A70000FD00A25A3FB057801FB05814FF0000C80
:100A800003FB0C11521CE3194AEB0101EEE70124B0
:100A9000EAE7814453EA010002D019F5C87F06DA7B
:100AA00003980021C0E9001107B0BDE8F08F0025D0
:100AB000AE4E2F46DFF8B882184600F0DAF9CDE9DD
:100AC0000001B9F1000002DAC9F1000400E00446B7
:100AD0000023A74A1AEB030B42EB045A12E0E0078B
:100AE00007D02A46334638464146FFF777FC07468B
:100AF00088462A46334610461946FFF76FFC0546DE
:100B00000E466410002CEAD1DDE90001B9F1000FB6
:100B10005A46534606DAFFF7D3FC3A464346FFF7F8
:100B2000CFFC05E0FFF75AFC3A464346FFF756FC78
:100B3000029A0AB181F00041039AC2E90001B3E7C9
:100B40002DE9FF4F1F468DB0D7E901464FF0FF3822
:100B50002E2045464FF000090B90B9696D1C0E9888
:100B60008847396A824688470028F6D1BAF1FF3FA4
:100B70000AD024F4D064002E11DDBAF12B0F08D076
:100B8000BAF12D0F0BD102E0404611B08DE744F4CD
:100B90008064B9696D1C0E9888478246761E694646
:100BA000600501D52D2000E02B208DF8000001F11B
:100BB000010B0DF1200809E0B9696D1C0E988847FA
:100BC00082460F9844F40074761E0560002E02DD04
:100BD000BAF1300FF0D00B998A453ED144F0800431
:100BE00006E00F99681CA9F1010944F4007408603B
:100BF000B9696D1C761E0E98884782463028F0D061
:100C00002BE00B998A4505D1200603D444F08004DB
:100C1000761E18E0504621F021F808B30DF11301BB
:100C2000761E44F400748B4508D2AAF130000BF80C
:100C3000010B200607D5A9F1010003E0200602D42C
:100C400009F101008146A00502D50F99681C0860D2
:100C5000B9696D1C0E9888478246002ED1DC53E09E
:100C6000002E51DDBAF1650F02D0BAF1450F4BD11C
:100C7000A00549D5B9696D1C24F44074761E0E9800
:100C800088478246002E0CDD2B2804D0BAF12D0FA8
:100C900007D144F48074B9696D1C0E988847824668
:100CA000761EE00501D52D2100E02B2108F8011B5F
:100CB000CDF82C8021E00DF12901761E44F400745A
:100CC00088450CD2AAF1300010F0FF0088F800002F
:100CD00002D10B99884509D908F1010806E0E00521
:100CE00001D5244801E042F20F708146B9696D1CBC
:100CF0000E98884782460F980560002E04DD504606
:100D000020F0ACFF0028D6D1F9690E988847FF2063
:100D10008BF8000088F800000020069007904B46F2
:100D20006A4608A906A8FFF777FEA00502D46FF06F
:100D300001002AE714F0240F0AD0E00714D1DDE9FE
:100D400006123868031D3B600068C0E900120BE022
:100D5000DDE90601FFF762FC0146E00704D13868CF
:100D6000021D3A600068016028460EE7000014404A
:100D70000000F03FF1D8FFFF426842B1016811F86E
:100D8000013B23B1521EC0E90012184670470121F1
:100D9000C160881E704742685AB1C368016843B990
:100DA00083688B4205D0491E521CC0E90012002006
:100DB00070474FF0FF3070472DE9F05F82460078B2
:100DC000002715468B460AF10104B946302801D0A8
:100DD0009DB113E014F8010B0127782803D058289F
:100DE00001D045B10AE00DB1102D07D10027102523
:100DF00014F8010B02E0082500E00A250026B046A1
:100E00000EE005FB080005FB06F1012701EB10468B
:100E10001FFA80F8B6F5803F00D3B94614F8010BED
:100E2000294600F018F80028EBDABBF1000F05D0D6
:100E30000FB1641E00E05446CBF80040B9F1000F3A
:100E400006D020F00DFE02210160C81EBDE8F09F13
:100E500048EA0640FAE73A2800D2303820F020026B
:100E6000412A01D3A2F13700884201D34FF0FF306D
:100E700070470EB540F2334202920022CDE90022C3
:100E80001346FFF72BFD03B000BD70B58C1810F8AA
:100E9000015B15F0070301D110F8013B2A1106D1BF
:100EA00010F8012B03E010F8016B01F8016B5B1ED9
:100EB000F9D12B0705D40023521E0DD401F8013BB4
:100EC000FAE710F8013BCB1A921C03E013F8015B20
:100ED00001F8015B521EF9D5A142D8D3002070BDA4
:100EE0000E4910B5487A082803D0BDE810400CF030
:100EF00079B8887A897B0B4A00EBC1015339C9B2B2
:100F00009FED070A02EB8101523881ED000AC0B261
:100F100021F0A6FFBDE8104015F012B9F80000203E
:100F2000000000006C0801200029816802D041F017
:100F3000010101E021F0010181607047084B10B50B
:100F4000D3F8042307490A40D0E900142143D0E92B
:100F50000240044321431143C3F8041310BD0000B1
:100F600000200140E030FCFF0029816802D041F4FC
:100F7000807101E021F480718160704700298168EF
:100F800002D041F4007101E021F4007181607047EA
:100F900030B542680F4B0C791A400B6842EA0422C4
:100FA0001343436082680C4B4D791A40D1E90343E7
:100FB00023438C6844EA4504234313438360C26A95
:100FC000097D22F47002491EC9B242EA0151C16290
:100FD00030BD0000FFFEFFFCFDF7FFC070B5072627
:100FE00009290AD9C568A1F10A0404EB4404A64002
:100FF000B543A3401D43C56007E0056901EB41040B
:10100000A640B543A3401D4305611F23072A09D20B
:10101000446B521E02EB820293409C4391400C436E
:10102000446370BD0D2A09D2046BD21F02EB820209
:1010300093409C4391400C43046370BDC46A0D3AD5
:1010400002EB820293409C4391400C43C46270BD0A
:10105000816841F08041816070470000F0B5324BFB
:10106000DFED300A9FED310AC3ED010AA3F2E46718
:10107000002183ED020A08462D4EA3F1A00597F842
:1010800033200AE017F800C0BCF1000F03D155F877
:1010900020C0B4450CDB401CC0B28242F2D8012C07
:1010A00006D0C3ED000AC3ED010AC3ED020AF0BD8C
:1010B0000020204C2AE017F800C0BCF1000F23D11B
:1010C00005EB800C9CED000A10EE10CAB4451BDA4B
:1010D00004EB800C491C9CED001AC9B230EE410AA9
:1010E00093ED011A70EE200AB4EEC10AF1EE10FA87
:1010F00001DD83ED010A93ED021AB4EEC10AF1EEAF
:1011000010FA01D283ED020A401CC0B28242D2D84A
:1011100000EE101AB8EE400A80EE801A83ED001A35
:10112000F0BD000000000000680A002000E0F94463
:1011300000E0F9446C0801200749487A001F05289F
:1011400009D2DFE800F0030606060600887A332895
:1011500001D121F041BA7047F80000202DE9FC418F
:1011600001210E02304612F0A1FA01248DF804404C
:10117000002520208DF806500E4F00908DF8074076
:101180008DF80550694638460FF05EFB8DF8044037
:101190008DF806508DF8074000968DF80550694689
:1011A00005480FF051FB202138460FF0A0FBBDE8A9
:1011B000FC8100000020024000000240FEE7000029
:1011C00010B5074C202120460FF093FB40F2FF5052
:1011D00005F092F82046BDE8104020210FF087BBB3
:1011E0000020024010B50446392027F005FAE0B28D
:1011F00027F026FAC4F3072027F022FAC4F30740A9
:1012000027F01EFA200E27F01BFA27F0E5F9BDE8BB
:10121000104020F03FBB70B5064614460D463C20FA
:1012200027F0EAF9E8B227F00BFA280A27F008FAC3
:1012300027F0D2F90CB1002011E020F02BFB1E2882
:101240000FD1304600F030F905463D2027F0D4F9A3
:1012500027F0C2F92E44002CEFD0208828442080AB
:10126000EBE770BD10B512F015FA08B100F069F89F
:10127000BDE81040302000F0B2B8312000F0AFB827
:101280000146362000F09EB810B508B100F0C5F850
:10129000BDE81040342000F0A2B870B5054600F05B
:1012A000A7F804000DD00146284600F021F8412897
:1012B00007D0142803D0422800D1B32070BD4320AA
:1012C00070BD2819BDE87040FFF7DEBF10B50446B9
:1012D00000F0A3F820785C2801D02F2803D100214A
:1012E000642000F0F7F8BDE81040322000F077B835
:1012F00070B50E4600210546012401E0641CE4B2ED
:10130000285D5C2813D02F2811D00028F6D10024A6
:101310006818FFF7DBFF002C08D0B44206D0412844
:101320000AD0142806D0422800D1B32070BD641C16
:10133000E4B2EDE7432070BD2146E1E7FF21FFF76E
:10134000D7BF10B5222027F057F9322004F0D4FF80
:1013500027F048F9044627F03FF9204610BD2DE953
:10136000F04127F03FF9064627F03CF9054627F003
:1013700039F9044627F036F9074627F02DF946EAF1
:10138000052040EA044040EA0760BDE8F08110B55E
:1013900004460C2027F030F9204627F051F9BDE82B
:1013A0001040FFF7DCBF10B504460A2027F024F9EF
:1013B000204627F045F927F015F9044627F00CF9E7
:1013C000204610BD10B50C4627F016F9204627F030
:1013D00037F927F001F9BDE8104020F05BBA10B5ED
:1013E00027F00AF927F0F8F8BDE8104020F052BACB
:1013F000014600E0491C0A78002AFBD105E011F8FB
:10140000012D5C2A03D02F2A01D08142F7D18142DD
:1014100000D0491C081AC0B2704770B505460120BB
:1014200027F0EAF827F0DEF8432828D22B20FFF730
:10143000BAFF102823D22F2027F0DEF8002027F053
:10144000FFF83220FFF7CBFF142818D1CF20FFF789
:10145000AAFF040013D04C20FFF799FF00EB0421F2
:101460004C2000F037F85020FFF791FF00EB0421EB
:10147000502000F02FF80021702000F02BF82F20D2
:1014800027F0BAF82C7806E015F8014F5C2C01D053
:101490002F2C00D10024204627F0D2F8002CF3D1C5
:1014A000BDE8704027F098B870B505462D2027F0AC
:1014B000A3F827F097F80446260007D0287827F0ED
:1014C000BFF8641E6D1C14F0FF04F7D127F084F8F8
:1014D000304670BD70B505460C460D2027F08CF8DF
:1014E000284627F0ADF8E0B227F0AAF8C4F30720A9
:1014F00027F0A6F8C4F3074027F0A2F8200E27F043
:101500009FF8BDE8704027F067B800002DE9F04172
:1015100088B00121812012F0C9F80121080312F0DE
:10152000F5F8DFF8C8800522114640460FF0C8F9EB
:101530000522062140460FF0C3F905220721404647
:101540000FF0BEF902258DF805508DF804500024E7
:1015500020278DF8064000978DF8074069464046E1
:101560000FF072F940200090694640460FF06CF988
:1015700080200090694640460FF066F91020012651
:1015800000908DF804608DF80640694640460FF0E3
:101590005BF98DF8044000978DF8076069461448A0
:1015A0000FF052F9ADF808404FF48270ADF80A0020
:1015B000ADF810602802ADF812003820ADF8140024
:1015C000ADF80C40ADF8164007200A4CADF81800F5
:1015D000ADF80E5002A9204614F011FD012120465D
:1015E00014F00AFB08B0BDE8F081000000000240E2
:1015F000001C024000300140F0B5FF231A460025D0
:1016000018E0445D6240002402F0010613F0010F6F
:101610004FEA53034FEA520201D042F080021EB15A
:1016200083F0A00382F00102641CE4B2082CEBD327
:101630006D1CEDB28D42E4D342EA0320F0BD000000
:101640002DE9F041FE48FF4EFF4C00784FF49B75AA
:101650004FF470474FF4A57840B1012874D00228A8
:1016600073D0032872D0042871D025E32078012894
:1016700001D028B10FE0882010F0A2FB304603E033
:10168000882010F09DFB384610F0B6FBEFA20A212F
:1016900064200FF0C3FF6078012801D028B10FE06B
:1016A000882010F08DFB304603E0882010F088FB86
:1016B000384610F0A1FBE6A20A21AA200FF0AEFFE7
:1016C000A078012801D028B10FE0882010F078FB25
:1016D000304603E0882010F073FB384610F08CFB96
:1016E000DCA20A21F0200FF099FFE078012801D058
:1016F00028B10FE0882010F063FB304603E088201B
:1017000010F05EFB384610F077FBD3A20A21284682
:101710000FF084FF2079012801D028B10FE0882044
:1017200010F04EFB304603E0882010F049FB3846AD
:1017300010F062FBC9A2414664200FF06FFF607990
:10174000012805D048B113E039E0CEE063E133E28F
:10175000882010F035FB304603E0882010F030FB85
:10176000384610F049FBBEA24146AA200FF056FFB2
:10177000A079012801D028B10FE0882010F020FBCB
:10178000304603E0882010F01BFB384610F034FB95
:10179000B4A24146F0200FF041FFE079012801D0CA
:1017A00028B189E2882010F00BFB304603E0882046
:1017B00010F006FB384610F01FFBABA278E2207A4F
:1017C00001284FF0880070D010F0FAFA384610F077
:1017D00013FBA6A20A2164200FF020FF607A0128E3
:1017E0004FF0880065D010F0EBFA384610F004FB9B
:1017F0009FA20A21AA200FF011FFA07A01284FF022
:1018000088005AD010F0DCFA384610F0F5FA99A2A8
:101810000A21F0200FF002FFE07A01284FF0880043
:101820004FD010F0CDFA384610F0E6FA92A20A2115
:1018300028460FF0F3FE207B01284FF0880044D0AB
:1018400010F0BEFA384610F0D7FA8CA24146642058
:101850000FF0E4FE607B01284FF0880039D010F0D3
:10186000AFFA384610F0C8FA85A24146AA200FF018
:10187000D5FEA07B01284FF088002ED010F0A0FAF2
:10188000384610F0B9FA7FA24146F0200FF0C6FEAC
:10189000E07B01284FF0880023D010F091FA384601
:1018A00010F0AAFA78A203E2FFE710F089FA3046B6
:1018B0008DE710F085FA304698E710F081FA30464F
:1018C000A3E710F07DFA3046AEE710F079FA304623
:1018D000B9E710F075FA3046C4E710F071FA3046F7
:1018E000CFE710F06DFA3046DAE7207C01284FF0A0
:1018F000880070D010F064FA384610F07DFA63A2C8
:101900000A2164200FF08AFE607C01284FF08800D5
:1019100065D010F055FA384610F06EFA5CA20A2134
:10192000AA200FF07BFEA07C01284FF088005AD03F
:1019300010F046FA384610F05FFA56A20A21F0205D
:101940000FF06CFEE07C01284FF088004FD010F0C3
:1019500037FA384610F050FA4FA20A2128460FF005
:101960005DFE207D01284FF0880044D010F028FA59
:10197000384610F041FA49A2414664200FF04EFE6D
:10198000607D01284FF0880039D010F019FA3846F0
:1019900010F032FA42A24146AA200FF03FFEA07D8D
:1019A00001284FF088002ED010F00AFA384610F0C7
:1019B00023FA3CA24146F0200FF030FEE07D0128E2
:1019C0004FF0880023D010F0FBF9384610F014FADD
:1019D00035A26DE1FFE710F0F3F930468DE710F026
:1019E000EFF9304698E710F0EBF93046A3E710F036
:1019F000E7F93046AEE710F0E3F93046B9E710F00A
:101A0000DFF93046C4E710F0DBF93046CFE710F0DD
:101A1000D7F93046DAE7207E01284FF088007DD0E4
:101A200010F0CEF9384610F0E7F920A20A21642020
:101A30000FF0F4FD607E01284FF088006FD037E092
:101A4000030100209355170084030020303031003B
:101A50003030320030303300303034003030350038
:101A60003030360030303700303038003030390018
:101A7000303130003031310030313200303133001C
:101A800030313400303135003031360030313700FC
:101A900030313800303139003032300030323100EE
:101AA00030323200303233003032340030323500E0
:101AB00010F086F9384610F09FF99AA20A21AA2060
:101AC0000FF0ACFDA07E01284FF088005CD010F034
:101AD00077F9384610F090F993A20A21F0200FF020
:101AE0009DFDE07E01284FF0880051D010F068F98C
:101AF000384610F081F98DA20A2128460FF08EFD9C
:101B0000207F01284FF0880046D010F059F9384660
:101B100010F072F986A24146642001E02CE02FE02B
:101B20000FF07CFD607F01284FF0880038D010F066
:101B300047F9384610F060F97EA24146AA200FF01E
:101B40006DFDA07F01284FF088002DD010F038F9EE
:101B5000384610F051F978A24146F0200FF05EFDB2
:101B6000E07F01284FF0880022D010F029F9384694
:101B700010F042F971A29BE010F022F9304652E7D2
:101B800010F01EF9304696E710F01AF93046A1E73A
:101B900010F016F93046ACE710F012F93046B7E70E
:101BA00010F00EF93046C5E710F00AF93046D0E7DC
:101BB00010F006F93046DBE794F8200001284FF0DA
:101BC00088007DD010F0FCF8384610F015F95CA2C2
:101BD0000A2164200FF022FD94F8210001284FF023
:101BE00088006ED010F0ECF8384610F005F955A2D8
:101BF0000A21AA200FF012FD94F8220001284FF0CC
:101C0000880074D010F0DCF8384610F0F5F84EA2D9
:101C10000A21F0200FF002FD94F8230001284FF074
:101C2000880068D010F0CCF8384610F0E5F847A2EC
:101C30000A2128460FF0F2FC94F8240001284FF006
:101C400088005CD010F0BCF8384610F0D5F840A2FF
:101C5000414664200FF0E2FC94F8250001284FF083
:101C6000880050D010F0ACF8384610F0C5F839A212
:101C70004146AA200FF0D2FC94F8260001284FF02C
:101C8000880044D010F09CF8384610F0B5F832A225
:101C90004146F0200FF0C2FC94F8270001284FF0D5
:101CA000880038D010F08CF8384610F0A5F82BA238
:101CB000414628460FF0B2FC29490120C87001E0D6
:101CC0000CE010E0FFF77CFA94F8300038B325A060
:101CD00004F03EFFBDE8F04114F032BA10F070F8A5
:101CE000304672E703E010F06BF830467DE710F005
:101CF00067F8304689E710F063F8304695E710F052
:101D00005FF83046A1E710F05BF83046ADE710F021
:101D100057F83046B9E710F053F83046C5E714A03D
:101D2000D6E700003032360030323700303238002B
:101D3000303239003033300030333100303332004C
:101D40003033330030333400303335003033360035
:101D5000303337003033380030333900303430001E
:101D6000580100204368616E6E656C2073657400D5
:101D7000CDA8B5C0C9E8D6C3000000002DE9F05FCA
:101D8000F648DFF8DCA3F74C00784FF482754FF487
:101D900096764FF4AA784FF4BE794FF4704B10B199
:101DA00001286ED032E32078012801D028B10FE05D
:101DB000882010F005F8504603E0882010F000F865
:101DC000584610F019F8E8A20A21642001F0B8FA88
:101DD0006078012801D028B10FE088200FF0F0FFD3
:101DE000504603E088200FF0EBFF584610F004F84F
:101DF000DEA20A218C2001F0A3FAA078012801D0EC
:101E000028B10FE088200FF0DBFF504603E0882068
:101E10000FF0D6FF58460FF0EFFFD5A20A21B420ED
:101E200001F08EFAE078012801D028B10FE0882077
:101E30000FF0C6FF504603E088200FF0C1FF584660
:101E40000FF0DAFFCBA20A21DC2001F079FA207929
:101E5000012801D028B10FE088200FF0B1FF5046D3
:101E600003E088200FF0ACFF58460FF0C5FFC2A278
:101E70000A21284601F064FA6079012802D030B1C5
:101E800010E0BCE188200FF09BFF504603E0882063
:101E90000FF096FF58460FF0AFFFB8A20A21304668
:101EA00001F04EFAA079012801D028B10FE0882076
:101EB0000FF086FF504603E088200FF081FF584660
:101EC0000FF09AFFAEA20A21404601F039FAE079FC
:101ED000012801D028B10FE088200FF071FF504693
:101EE00003E088200FF06CFF58460FF085FFA5A295
:101EF0000A21484601F024FA207A012801D028B1AD
:101F00000FE088200FF05CFF504603E088200FF0C0
:101F100057FF58460FF070FF9BA2D221642001F0BA
:101F20000FFA607A012801D028B10FE088200FF065
:101F300047FF504603E088200FF042FF58460FF05D
:101F40005BFF92A2D2218C2001F0FAF9A07A01283D
:101F500001D028B10FE088200FF032FF504603E097
:101F600088200FF02DFF58460FF046FF88A2D2219F
:101F7000B42001F0E5F9E07A012801D028B10FE0A2
:101F800088200FF01DFF504603E088200FF018FF57
:101F900058460FF031FF7FA2D221DC2001F0D0F9AA
:101FA000207B012801D028B10FE088200FF008FF26
:101FB000504603E088200FF003FF58460FF01CFF47
:101FC00075A2D221284601F0BBF9607B012801D01F
:101FD00028B10FE088200FF0F3FE504603E0882080
:101FE0000FF0EEFE58460FF007FF6CA2D2213046EC
:101FF00001F0A6F9A07B012801D028B10FE08820CC
:102000000FF0DEFE504603E088200FF0D9FE584660
:102010000FF0F2FE62A2D221404601F091F9E07B7E
:10202000012801D028B10FE088200FF0C9FE5046EA
:1020300003E088200FF0C4FE58460FF0DDFE59A2E1
:10204000D221484601F07CF9207C4FF4CD7701285D
:1020500001D028B10FE088200FF0B2FE504603E017
:1020600088200FF0ADFE58460FF0C6FE4EA239464E
:10207000642001F065F9607C012801D028B10FE0EF
:1020800088200FF09DFE504603E088200FF098FE58
:1020900058460FF0B1FE45A239468C2001F050F9A8
:1020A000A07C012801D028B10FE088200FF088FE25
:1020B000504603E088200FF083FE58460FF09CFE48
:1020C0003BA23946B42001F03BF9E07C012801D065
:1020D00028B10FE088200FF073FE504603E08820FF
:1020E0000FF06EFE58460FF087FE32A23946DC2014
:1020F00001F026F9207D012801D028B10FE08820C9
:102100000FF05EFE504603E088200FF059FE58465F
:102110000FF072FE28A23946284601F011F9607DC1
:10212000012801D028B10FE088200FF049FE504669
:1021300003E088200FF044FE58460FF05DFE1FA21A
:102140003946304601F0FCF8A07D012801D0B8B333
:1021500042E088200FF034FE504636E003010020B4
:1021600093551700840300203030310030303200A6
:10217000303033003030340030303500303036000D
:1021800030303700303038003030390030313000F6
:1021900030313100303132003031330030313400F1
:1021A00030313500303136003031370030313800D1
:1021B00030313900303230003032310030323200CC
:1021C000FFE788200FF0FCFD58460FF015FEBAA27D
:1021D0003946404601F0B4F8E07D012801D028B12D
:1021E00014E188200FF0ECFD504603E088200FF04A
:1021F000E7FD58460FF000FEB0A2394603E1207E0D
:1022000001284FF088007CD00FF0DAFD58460FF01F
:10221000F3FDABA20A21642001F092F8607E012850
:102220004FF088006ED00FF0CBFD58460FF0E4FD64
:10223000A4A20A218C2001F083F8A07E01284FF08F
:1022400088007DD00FF0BCFD58460FF0D5FD9EA252
:102250000A21B42001F074F8E07E01284FF08800D4
:102260006FD00FF0ADFD58460FF0C6FD97A20A21C2
:10227000DC2001F065F8207F01284FF088007DD038
:102280000FF09EFD58460FF0B7FD91A20A21284697
:1022900001F056F8607F01284FF088006FD00FF0F2
:1022A0008FFD58460FF0A8FD8AA20A21304601F0A2
:1022B00047F8A07F01284FF088007DD00FF080FD07
:1022C00058460FF099FD84A20A21404601F038F8E3
:1022D000E07F01284FF088006FD00FF071FD584665
:1022E0000FF08AFD7DA20A21484601F029F894F8F2
:1022F000200001284FF088007ED00FF061FD584685
:1023000001E092E096E00FF077FD75A2D221642003
:1023100001F016F894F8210001284FF088006CD0E5
:102320000FF04EFD58460FF067FD6EA2D2218C20B3
:1023300001F006F894F8220001284FF0880001E02F
:102340007CE07FE075D00FF03BFD58460FF054FD68
:1023500065A2D221B42000F0F3FF94F823000128F5
:102360004FF0880072D00FF02BFD58460FF044FD5F
:102370005EA2D221DC2000F0E3FF01E067E06AE02A
:1023800094F8240001284FF0880070D00FF018FD59
:1023900058460FF031FD56A2D221284600F0D0FF5A
:1023A00094F8250001284FF0880077D00FF008FD41
:1023B00058460FF021FD01E051E054E04DA2D2213A
:1023C000304600F0BDFF94F8260001284FF0880049
:1023D00068D00FF0F5FC58460FF00EFD46A2D22152
:1023E000404600F0ADFF94F8270001284FF0880028
:1023F0005CD00FF0E5FC01E03BE03EE058460FF01A
:10240000FBFC3EA2D221484600F09AFF3C49012045
:10241000C870FEF7D5FE94F8300048B339A004F038
:1024200097FBBDE8F05F13F08BBE0FF0C9FC504680
:10243000EDE626E00FF0C4FC5046F7E60FF0C0FCD6
:10244000504602E70FF0BCFC50460DE71EE00FF0CF
:10245000B7FC504617E70FF0B3FC504622E70FF0E9
:10246000AFFC50462DE70FF0ABFC504638E711E0CB
:1024700020E00FF0A5FC504642E70FF0A1FC5046CB
:1024800051E70FF09DFC504660E707E00FF098FC25
:1024900050466BE70FF094FC50467AE70FF090FC43
:1024A000504686E70FF08CFC504695E70FF088FC0D
:1024B0005046A4E716A0B2E7303233003032340081
:1024C00030323500303236003032370030323800AA
:1024D00030323900303330003033310030333200A5
:1024E000303333003033340030333500303336008E
:1024F0003033370030333800303339003034300077
:10250000580100204368616E6E656C20736574002D
:10251000CDA8B5C0C9E8D6C3000000002DE9F05F22
:10252000FB4CDFF8F0A34FF4704B2078012801D06A
:1025300028B10FE088200FF043FC504603E08820CC
:102540000FF03EFC58460FF057FCF3A20A2164201E
:1025500000F02CFF6078012801D028B10FE088201E
:102560000FF02EFC504603E088200FF029FC58465F
:102570000FF042FCE9A20A218C2000F017FFA0789E
:10258000012801D028B10FE088200FF019FC504637
:1025900003E088200FF014FC58460FF02DFCE0A259
:1025A0000A21B42000F002FFE078012801D028B110
:1025B0000FE088200FF004FC504603E088200FF065
:1025C000FFFB58460FF018FCD6A20A21DC2000F0D1
:1025D000EDFE20794FF48275012801D028B10FE07B
:1025E00088200FF0EDFB504603E088200FF0E8FB59
:1025F00058460FF001FCCCA20A21284600F0D6FE76
:1026000060794FF49676012801D028B10FE0882038
:102610000FF0D6FB504603E088200FF0D1FB584660
:102620000FF0EAFBC1A20A21304600F0BFFEA079FC
:102630004FF4AA78012801D028B10FE088200FF0CC
:10264000BFFB504603E088200FF0BAFB58460FF05E
:10265000D3FBB7A20A21404600F0A8FEE0794FF470
:10266000BE79012801D028B10FE088200FF0A8FB27
:10267000504603E088200FF0A3FB58460FF0BCFB48
:10268000ACA20A21484600F091FE207A012801D030
:1026900028B10FE088200FF093FB504603E088201C
:1026A0000FF08EFB58460FF0A7FBA3A286216420F3
:1026B00000F07CFE607A012801D028B10FE088206C
:1026C0000FF07EFB504603E088200FF079FB584660
:1026D0000FF092FB99A286218C2000F067FEA07A71
:1026E000012801D028B10FE088200FF069FB504687
:1026F00003E088200FF064FB58460FF07DFB90A2AA
:102700008621B42000F052FEE07A012801D028B1E1
:102710000FE088200FF054FB504603E088200FF0B4
:102720004FFB58460FF068FB86A28621DC2000F0A4
:102730003DFE207B012801D028B10FE088200FF05A
:102740003FFB504603E088200FF03AFB58460FF05D
:1027500053FB7DA28621284600F028FE607B0128DD
:1027600001D028B10FE088200FF02AFB504603E08B
:1027700088200FF025FB58460FF03EFB73A2862100
:10278000304600F013FEA07B012801D028B10FE0F5
:1027900088200FF015FB504603E088200FF010FB57
:1027A00058460FF029FB6AA28621404600F0FEFD44
:1027B000E07B012801D028B10FE088200FF000FB5A
:1027C000504603E088200FF0FBFA58460FF014FB48
:1027D00060A28621484600F0E9FD207C4FF4817715
:1027E000012801D028B10FE088200FF0E9FA504607
:1027F00003E088200FF0E4FA58460FF0FDFA56A2E5
:102800003946642000F0D2FD607C012801D028B157
:102810000FE088200FF0D4FA504603E088200FF034
:10282000CFFA58460FF0E8FA4CA239468C2000F057
:10283000BDFDA07C012801D028B10FE088200FF059
:10284000BFFA504603E088200FF0BAFA58460FF05E
:10285000D3FA43A23946B42000F0A8FDE07C012859
:1028600001D028B10FE088200FF0AAFA504603E00B
:1028700088200FF0A5FA58460FF0BEFA39A2394663
:10288000DC2000F093FD207D012801D028B10FE06D
:1028900088200FF095FA504603E088200FF090FA58
:1028A00058460FF0A9FA30A23946284600F07EFDBE
:1028B000607D012801D028B10FE088200FF080FA58
:1028C000504603E088200FF07BFA58460FF094FA48
:1028D00026A23946304600F069FDA07D012801D0CE
:1028E00028B10FE088200FF06BFA504603E08820F3
:1028F0000FF066FA58460FF07FFA1DA2394640469F
:1029000000F054FDE07D012834D000B142E036E013
:1029100084030020935517003030310030303200EE
:102920003030330030303400303035003030360055
:10293000303037003030380030303900303130003E
:102940003031310030313200303133003031340039
:102950003031350030313600303137003031380019
:102960003031390030323000303231003032320014
:102970003032330088200FF023FA504603E08820DD
:102980000FF01EFA58460FF037FAB9A239464846FA
:1029900000F00CFD207E4FF4BF77012801D028B154
:1029A0000FE088200FF00CFA504603E088200FF06B
:1029B00007FA58460FF020FAAEA23946642000F01C
:1029C000F5FC607E012801D028B10FE088200FF0CF
:1029D000F7F9504603E088200FF0F2F958460FF05F
:1029E0000BFAA5A239468C2000F0E0FCA07E01285D
:1029F00001D028B10FE088200FF0E2F9504603E043
:102A000088200FF0DDF958460FF0F6F99BA2394601
:102A1000B42000F0CBFCE07E012801D028B10FE00B
:102A200088200FF0CDF9504603E088200FF0C8F958
:102A300058460FF0E1F992A23946DC2000F0B6FCCE
:102A4000207F012801D028B10FE088200FF0B8F9CD
:102A5000504603E088200FF0B3F958460FF0CCF948
:102A600088A23946284600F0A1FC607F012801D0E9
:102A700028B10FE088200FF0A3F9504603E088202A
:102A80000FF09EF958460FF0B7F97FA2394630464D
:102A900000F08CFCA07F012801D028B10FE0882035
:102AA0000FF08EF9504603E088200FF089F9584660
:102AB0000FF0A2F975A23946404600F077FCE07F9E
:102AC000012801D028B10FE088200FF079F9504695
:102AD00003E088200FF074F958460FF08DF96CA2CE
:102AE0003946484600F062FC94F820004FF4FD7728
:102AF000012801D028B10FE088200FF061F950467D
:102B000003E088200FF05CF958460FF075F961A2D8
:102B10003946642000F04AFC94F82100012801D0D5
:102B200028B10FE088200FF04BF9504603E08820D1
:102B30000FF046F958460FF05FF957A239468C203E
:102B400000F034FC94F82200012801D028B10FE0F5
:102B500088200FF035F9504603E088200FF030F957
:102B600058460FF049F94DA23946B42000F01EFC3A
:102B700094F82300012801D028B10FE088200FF03D
:102B80001FF9504603E088200FF01AF958460FF05D
:102B900033F943A23946DC2000F008FC94F8240005
:102BA000012801D028B10FE088200FF009F9504624
:102BB00003E088200FF004F958460FF01DF939A200
:102BC0003946284600F0F2FB94F82500012801D090
:102BD00028B10FE088200FF0F3F8504603E088207A
:102BE0000FF0EEF858460FF007F92FA2394630469D
:102BF00000F0DCFB94F82600012801D028B10FE09A
:102C000088200FF0DDF8504603E088200FF0D8F858
:102C100058460FF0F1F825A23946404600F0C6FBB1
:102C200094F82700012801D028B10FE088200FF088
:102C3000C7F8504603E088200FF0C2F858460FF05E
:102C4000DBF81BA23946484600F0B0FB19490120C9
:102C5000C870FEF7B5FA94F8300030B116A003F052
:102C600077FFBDE8F05F13F06BBA16A0F7E700003E
:102C700030323400303235003032360030323700F6
:102C800030323800303239003033300030333100E8
:102C900030333200303333003033340030333500DA
:102CA00030333600303337003033380030333900BA
:102CB00030343000580100204368616E6E656C202E
:102CC00073657400CDA8B5C0C9E8D6C30000000084
:102CD000164901EB800111ED010A154901EB800154
:102CE00051ED010A134901EB800130EE600A51ED0C
:102CF000010AB4EEE00AF1EE10FA09D30E4901EB35
:102D0000800050ED010AB4EEE00AF1EE10FA04DDA5
:102D10000A4890F82C00012804D088216FF07F40E9
:102D20000FF054B888214FF47F00F9E7C80900205C
:102D30006C080120640C0020C40B002084030020D8
:102D400010B50B460C0601F07F0202EB820100EB8E
:102D5000C10102D501F58E7101E001F55D710A70C6
:102D6000DA094A701DF0A5FD002010BD0A4610B515
:102D7000090602F07F0306D503EB830100EBC101D6
:102D800001F58E7105E002EB820100EBC10101F556
:102D90005D7100248C700B70D2094A701DF070FDBB
:102DA000002010BD10B50A0604D501F07F011DF00A
:102DB000A3FE01E01DF082FE002010BD70B50D469F
:102DC0000E0601F07F0404EB840100EBC10102D583
:102DD00001F58E7101E001F55D71ED090C704D702A
:102DE0008A60CB7000D0CC80022B01D100220A7106
:102DF0001DF012FD002070BD10B501F07F0404EB42
:102E0000840100EBC101C1F88833C1F8802300239D
:102E1000C1F88C3381F8753381F87443C37801F5B8
:102E20005D71012B00D10A6114F0FF0F03D01DF07A
:102E30007FFD002010BD1DF080FCFAE70069002234
:102E400061F30A1201681143016070470A4610B528
:102E5000090602F07F0306D503EB830100EBC101F5
:102E600001F58E7105E002EB820100EBC10101F575
:102E70005D7101248C700B70D2094A701DF040FD09
:102E8000002010BD70B511F07F0404EB840100EB4D
:102E9000C1014FF0010581F81D5181F81C41C1F8B5
:102EA0002821C1F82C2101F58E714FF00002C1E9F3
:102EB000053203D01DF03CFD002070BD1DF03DFC2F
:102EC000FAE700002DE9F041064600241DF05DFE02
:102ED000074655E0F80751D03069E1B20369426B0B
:102EE000CA4006EB810102F00102896943EAC2127D
:102EF0008D681540E9071AD00125426B05FA04F1E7
:102F00008A43426306EB8400806985601F48E1B212
:102F10000068426830469047F078012807D134B9FC
:102F200096F81101042802D130461DF063FC2807F1
:102F300004D506EB8400082580698560E80604D581
:102F400006EB8400102580698560680604D506EBD1
:102F50008400402580698560A80704D506EB8400BD
:102F6000022580698560280608D52146304600F094
:102F70006CF906EB84018020896988607F08641CF5
:102F8000002FA7D10120BDE8F0810000B80100208A
:102F90002DE9F041054600241DF0FDFD0746DFF850
:102FA000988043E0F8073FD0E1B228461DF0F9FDD4
:102FB0000646C00725D005EB84000126416D8E60D2
:102FC000E97801290CD1406D016904EB840005EB1F
:102FD000C000C1F31201D0F87C23511AC0F88C1341
:102FE000D8F80000E1B2026828469047E878012846
:102FF00007D134B995F81101052802D128461DF0F2
:10300000F9FBB00704D505EB84000226406D86600D
:10301000300709D5D8F8000081682846884705EBB5
:1030200084010820496D88607F08641C002FB9D195
:103030000120BDE8F0810000B801002070B5054610
:10304000C068816921F010018161E868066A06F0B4
:103050000F0000EB800005EBC004C6F3434004F50D
:103060005D74072821D2DFE800F020200420202012
:10307000150047F6F070064217D0C6F30A1632461E
:103080002846E1681DF095FDE0683044E060A069E5
:10309000304409E0082205F2CC5128461DF089FD94
:1030A000A069C6F30A110844A061E868816941F08B
:1030B00010018161012070BD38B5044600208DF8F3
:1030C000000094F812018DF800001548006841696D
:1030D0002046884720698068E2684FF400615161AA
:1030E000A17AD1B1C00718D094F81501012814D1E4
:1030F0009DF80000032810D1D4F80C01016841F0BC
:1031000001010160D4F80C01016841F00301016084
:103110000448016841F006010160012038BD00004B
:10312000B801002010ED00E070B5044600690025EC
:103130000126416821F001014160294620461DF029
:10314000DBFC0020FF2206E004EB80018B699A6023
:10315000496D8A60401C61788142F5D821694FF041
:10316000FF3088612846216966F30F0066F31F402F
:10317000C861216945F00B0048612169C1F88400EC
:10318000216945F00B0008612169486420690168E4
:1031900021F4FE61016020461DF02CFBE1684FF434
:1031A0008050486103480068016920468847012033
:1031B00070BD0000B801002070B504461DF00AFD86
:1031C0000120002384F8120184F814311A464025A6
:1031D00010E002EB820104EBC10181F81D0181F8CE
:1031E0001C21A1F8222181F81F31C1E94953521C49
:1031F000C1F8303161789142EBD8002010E000EB4B
:10320000800104EBC10181F8753381F87403A1F8E2
:103210007A0381F87733C1E9DF53401CC1F8883362
:1032200061788142EBD820461DF062FA20461DF0FD
:103230003FF9002120461DF02DFD20461DF078F9B4
:103240002046BDE870401DF031BC2DE9F0470E4628
:1032500001EB860100EBC1048046D4E94C01401A21
:10326000D4F8241104F58E74814200D20846C01CA3
:10327000870808EB86091EE0451AA068A84200D21C
:103280000546E81C8708ABB2F2B24046E1681DF083
:1032900016FDE0682844E060A0692844A0616169E7
:1032A000884208D3207801218140D8F81000426B71
:1032B0008A4342630BE0D9F81800806980B2B842B3
:1032C00005D9D4E90501814201D20028D4D10120D9
:1032D000BDE8F0872DE9F04115460C468046154EB5
:1032E0004FF4207719E0802A0BD21348B0612146B1
:1032F00040460EF023F9B0696D1C8088204484B2EA
:103300000BE00E48B0612A462146404600F0DEF848
:10331000B069AD1C8088204484B2BC4208D22A78AF
:10332000002A05D0B0698088011989B28142DAD2B9
:10333000BDE8F08160000020A4000020E40000202F
:103340002DE9F04115460C468046154E4FF4207786
:1033500019E0802A0BD21348B061214640460EF096
:10336000EDF8B0696D1C8088204484B20BE00E48F3
:10337000B0612A46214640460EF0F6F8B069AD1C11
:103380008088204484B2BC4208D22A78002A05D022
:10339000B0698088011989B28142DAD2BDE8F08132
:1033A000600000209C000020D40000202DE9F041A6
:1033B00015460C468046154E4FF4207719E0802ABA
:1033C0000BD21348B061214640460EF0B7F8B06901
:1033D0006D1C8088204484B20BE00E48B0612A4600
:1033E0002146404600F018F8B069AD1C80882044A2
:1033F00084B2BC4208D22A78002A05D0B0698088FD
:10340000011989B28142DAD2BDE8F0816000002062
:103410008C000020EC0000202DE9F04116460F46FC
:10342000804600240D4D0FE032788A420AD105EB28
:10343000400271785078814204D139464046921C4E
:103440000EF05EF9641CA4B2C4EBC40000EB4000B3
:1034500015F810108029E7D8BDE8F081AEEA02081F
:103460002DE9F04115460C468046154E4FF4207765
:1034700019E0802A0BD21348B061214640460EF075
:103480005DF8B0696D1C8088204484B20BE00E4862
:10349000B0612A462146404600F018F8B069AD1CDC
:1034A0008088204484B2BC4208D22A78002A05D001
:1034B000B0698088011989B28142DAD2BDE8F08111
:1034C00060000020BC000020DC0000202DE9F0415D
:1034D00016460F46804600240C4D0EE032788A4294
:1034E00009D1421971785078814204D13946404659
:1034F000921C0EF005F9641CA4B204EB8400C0EB2E
:103500008410295C8029E9D8BDE8F081A2D30208A3
:103510002DE9F04115460C468046154E4FF42077B4
:1035200019E0802A0BD21348B061214640460EF0C4
:1035300005F8B0696D1C8088204484B20BE00E4809
:10354000B0612A4621464046FFF7C0FFB069AD1C76
:103550008088204484B2BC4208D22A78002A05D050
:10356000B0698088011989B28142DAD2BDE8F08160
:1035700060000020C4000020DC0000202DE9F041A4
:10358000204E15460C4680466BB3012B38D188215E
:1035900008460EF01BFC28239022414620460EF0E0
:1035A00039F9BDE8F04188216FF07F400EF00EBC84
:1035B000802A0BD21448B061214640460DF0BEFF70
:1035C000B0696D1C8088204484B20EE00F48B06161
:1035D0002A46214640460DF0C7FFB069AD1C8088E1
:1035E000204484B201E04FF42077BC4208D22A780C
:1035F000002A05D0B0698088011989B28142D7D2EA
:10360000BDE8F08160000020AC000020D400002064
:103610002DE9F041204E15460C4680466BB3012B38
:1036200038D1882108460EF0D1FB1C236022414688
:1036300020460EF0EFF8BDE8F04188216FF07F40A2
:103640000EF0C4BB802A0BD21448B061214640461C
:103650000DF074FFB0696D1C8088204484B20EE0C8
:103660000F48B0612A46214640460DF07DFFB06903
:10367000AD1C8088204484B201E04FF42077BC4226
:1036800008D22A78002A05D0B0698088011989B249
:103690008142D7D2BDE8F08160000020B400002054
:1036A000D40000202DE9F041204E15460C468046FE
:1036B0006BB3012B38D1882108460EF087FB142309
:1036C0003222414620460EF0A5F8BDE8F04188219F
:1036D0006FF07F400EF07ABB802A0BD21448B061A5
:1036E000214640460DF02AFFB0696D1C80882044B9
:1036F00084B20EE00F48B0612A46214640460DF0E4
:1037000033FFB069AD1C8088204484B201E04FF4DF
:103710002077BC4208D22A78002A05D0B069808878
:10372000011989B28142D7D2BDE8F0816000002042
:1037300094000020D400002010B50121CC052046C3
:103740000FF0C0FF2046BDE8104000210FF0BABFC7
:10375000034A0146002052680A4200D00120704707
:1037600000B0024030B52A4B00241968294A1140A4
:1037700019601968026811431960596B21F007013B
:103780005963596B426811435963416841B3012938
:103790002DD0022930D00329C16832D00A01016935
:1037A0004469090224038568214315430D43996B3D
:1037B0000D439D638169D963196C6FF30D01196421
:1037C000196CC26911431964818C5A6C02F0404231
:1037D0005A645A6C006A024342EA01425A6430BD9C
:1037E000C168047D0A02018A09042406DBE7C16876
:1037F0000A02018A0904D6E7C1684A010169C902BF
:10380000D1E74A01016944698902E403CBE700007A
:1038100000B00240FCE0FCFF0248016841F00101F9
:103820000160704700B002400029016802D041F0F9
:10383000010101E021F001010160704730B503682A
:10384000124ACC6813400A682243D1E905452C434B
:103850002243CC6922430C6A22434C6A22438C6A7D
:1038600022434C6B22438C6B22431A430260426911
:1038700022F00703D1E90B2422431A4342610A696B
:1038800042604A6882608968C16030BD3F801CF038
:103890000548407A052803D0062801D0082802D11F
:1038A00002A01FF053B87047F80000202E0000005F
:1038B0002DE9F04FF84CF94D2146607A91F80AC095
:1038C0009FB0092860D2DFE810F0090039135F00CB
:1038D0005F00CE0BC50D76145F009D11EE484FF4CE
:1038E000CD764FF48177C17AEC484FF4BF794FF42D
:1038F000FD7A90F82D2090F827301E93C37F1D93FA
:10390000C37D1C93C37B1B9390F826301A93837F4F
:103910001993837D1893837B179390F82530169322
:10392000437F1593437D1493437B139390F8243086
:103930001293037F1193037D1093037B0F9390F8F1
:1039400023300E93C37E0D93C37C0C93C37A0B93E9
:1039500090F822300A93837E0993837C0893837ABC
:10396000079390F821300693437E0593437C04939C
:10397000437A039390F820E090F818B0037C007A23
:10398000BCF1290F9ED200E0B0E0DFE81CF0290076
:10399000C30046012102A4024E031B04AC043805F7
:1039A0006D06AE06EB0628076707A907EB072D088B
:1039B0006F089908C708F1081D094B097909A7097B
:1039C000D309EB09030A1B0A340A4E0A680A820A61
:1039D0009B0AB40ACD0AE60A000B1B0B360B510BEF
:1039E000AF480EF009FA88200EF0EAF995F82900A0
:1039F000022810D0012810D0032810D0042810D09D
:103A0000052810D0062810D0072810D0082810D07C
:103A1000092810D014E0A3A20EE0A4A20CE0A5A2F5
:103A20000AE0A6A208E0A7A206E0A8A204E0A9A2D4
:103A300002E0AAA200E0ABA264212F200DF0B8FDA5
:103A400095F82D0020B1012835D0022851D04AE048
:103A5000E07A40B101280BD002280ED0032811D003
:103A6000042814D01CE028781EF004FF9FA213E065
:103A7000287A1EF0FFFE9EA20EE0287C1EF0FAFEC1
:103A80009CA209E0287E1EF0F5FE9BA204E095F8BA
:103A900020001EF0EFFE99A20A2164200DF0BEFD69
:103AA00095F8300028B196A003F052F8012001F0FB
:103AB000D8BA96A0F8E7E07A10B1012805D022E044
:103AC00028781EF0D7FE89A203E0287E1EF0D2FEE1
:103AD00089A20A216420FFF733FC14E08BA000E0E8
:103AE00087A003F035F8012004F0B0FF1FB0BDE857
:103AF000F08FE07A38B928781EF0BCFE7BA20A214C
:103B00006420FFF753FC0120A07295F830000028D4
:103B1000E6D1E3E7614F02263F7832B1012A4FD068
:103B2000022AE0D100296AD093E241B101290BD0E9
:103B300002290DD0032910D0042913D0F4E7384608
:103B40001EF060FE69A211E01EF05CFE68A20DE0AE
:103B500018461EF057FE67A208E058461EF052FEB7
:103B600065A203E070461EF04DFE64A20A216420A7
:103B70000DF054FDE07A40B101280BD002280ED0A0
:103B8000032811D0042814D0CEE768781EF072FE06
:103B900061A213E0687A1EF06DFE60A20EE0687C00
:103BA0001EF068FE5EA209E0687E1EF063FE5DA264
:103BB00004E095F821001EF05DFE5BA20A218CE274
:103BC00011B101290DD0AFE738461EF01BFE47A208
:103BD0000A216420FFF7B4FB68781EF04BFE4EA26A
:103BE0000BE058461EF00EFE43A20A216420FFF7A8
:103BF000A7FB687E1EF03EFE4AA20A21EFE338468C
:103C00001EF000FE39A20A216420FFF7CFFB68787E
:103C10001EF030FE40A20A21F0E32048032640783F
:103C200032B1012A36D0022A7FF411AF81B37BE78B
:103C300041B101290AD002290DD0032910D004294D
:103C400013D071E71EF0DEFD33A212E003981EF0E0
:103C5000D9FD32A20DE004981EF0D4FD30A208E098
:103C600005981EF0CFFD2FA203E006981EF0CAFDB6
:103C70002DA20A21B4200DF0D1FCE07A48B1012830
:103C800059D002285CD003285FD0042862D04BE7CB
:103C90008DE04BE068E00000F80000208403002085
:103CA00000FFFF0054432D4B0000000054432D54EF
:103CB0000000000054432D4A0000000054432D4EE4
:103CC0000000000054432D450000000054432D53D4
:103CD0000000000054432D520000000054432D42C8
:103CE000000000005054313030000000303031000E
:103CF0003030390030313700303235003033330066
:103D00004368616E6E656C2073657400CDA8B5C0A4
:103D1000C9E8D6C300000000303032003031300036
:103D2000303138003032360030333400A8781EF09D
:103D3000A1FDFBA213E0A87A1EF09CFDF9A20EE003
:103D4000A87C1EF097FDF8A209E0A87E1EF092FD67
:103D5000F6A204E095F822001EF08CFDF4A20A21E0
:103D60008DE20DF05BFCDFE611B101290DD0DBE641
:103D70001EF048FDAFF260020A218C20FFF7E0FA46
:103D8000A8781EF077FDE6A20CE005981EF03AFD3B
:103D9000AFF270020A218C20FFF7D2FAA87E1EF043
:103DA00069FDE2A20A21F0E3FFF7CAFABCE61EF0C1
:103DB00029FDAFF29C020A218C20FFF7F7FAA878C0
:103DC0001EF058FDD6A20A21F8E3FFF7EFFAABE6A2
:103DD000D8480426807832B1012A51D0022A7FF4D3
:103DE00036AE89B3A0E641B101290AD002290DD02F
:103DF000032910D0042913D096E61EF003FDC8A2B3
:103E000012E007981EF0FEFCC6A20DE008981EF016
:103E1000F9FCC5A208E009981EF0F4FCC3A203E077
:103E20000A981EF0EFFCC2A20A214FF482700DF036
:103E3000F5FBE07A48B101280CD002280FD0032806
:103E400012D0042815D06FE638E0E8781EF012FD95
:103E5000B9A213E0E87A1EF00DFDB8A20EE0E87CEE
:103E60001EF008FDB6A209E0E87E1EF003FDB5A233
:103E700004E095F823001EF0FDFCB3A20A218BE2BA
:103E800011B101290CD04FE61EF0BCFCA4A20A21FE
:103E9000B420FFF755FAE8781EF0ECFCA6A20BE080
:103EA00009981EF0AFFCA1A20A21B420FFF748FA3E
:103EB000E87E1EF0DFFCA3A20A21EFE31EF0A2FCC5
:103EC00097A20A21B420FFF771FAE8781EF0D2FC1D
:103ED00099A20A21F6E39748C07832B1012A70D03E
:103EE000022A7FF4B4ADE9B39DE041B101290AD0C3
:103EF00002290DD0032910D0042913D01BE01EF095
:103F000081FC8DA212E00B981EF07CFC8BA20DE0D0
:103F10000C981EF077FC8AA208E00D981EF072FC47
:103F200088A203E00E981EF06DFC87A20A214FF4D0
:103F3000AA700DF073FB00200DF05EFF83480DF0BA
:103F40003FFF95F82900022812D0012813D003283A
:103F500014D0042815D0052816D0062817D0072815
:103F600018D000E04FE0082817D0092818D01DE02D
:103F7000AFF2D02216E0AFF2CC2213E0AFF2CC22A7
:103F800010E0AFF2C8220DE0AFF2C8220AE0AFF2B3
:103F9000C42207E0AFF2C42204E0AFF2C02201E085
:103FA000AFF2C02264212F200DF002FB95F8300003
:103FB00020B167A002F0CCFD002078E56BA0F9E706
:103FC000FFE711B101290CD02DE01EF01BFC5AA215
:103FD0000A21DC20FFF7B4F928791EF04BFC67A218
:103FE0000BE00D981EF00EFC56A20A21DC20FFF714
:103FF000A7F9287F1EF03EFC61A20A214FF48270CF
:10400000FFF79EF90FE01EF0FDFB4BA20A21DC201A
:10401000FFF7CCF928791EF02DFC58A20A214FF4A5
:104020008270FFF7C3F9052041E542480626007972
:1040300032B1012A53D0022A7FF409AD89B373E566
:1040400041B101290AD002290DD0032910D0042939
:1040500013D010E31EF0D6FB48A212E00F981EF01A
:10406000D1FB48A20DE010981EF0CCFB46A208E060
:1040700011981EF0C7FB42A203E012981EF0C2FB8B
:1040800042A24FF4A57164200DF0C8FAE07A48B15D
:1040900001280CD002280FD0032812D0042815D0F4
:1040A000E9E27FE068791EF0E5FB39A213E0687B66
:1040B0001EF0E0FB37A20EE0687D1EF0DBFB36A2AF
:1040C00009E0687F1EF0D6FB34A204E095F82500D5
:1040D0001EF0D0FB32A24FF4A571B42041E611B11D
:1040E00001290DD0C7E21EF08DFB24A20A214FF456
:1040F0008270FFF725F968791EF0BCFB24A20CE062
:1041000011981EF07FFB1EA20A214FF48270FFF768
:1041100017F9687F1EF0AEFB20A20A21CAE3000057
:104120003030330030313100303139003032370037
:104130003033350084030020303034003031320019
:1041400030323000303238003033360000FFFF00AC
:10415000546865726D6F636F75706C65206D6F6408
:10416000656C2073656C656374000000C8C8B5E7B2
:10417000C5BCD0CDBAC5D1A1D4F1000030303500D6
:1041800030323900303133003032310030333700D3
:1041900030303600303134003032320030333000CD
:1041A000303338001EF02EFBAFF230020A214FF4FC
:1041B0008270FFF7FBF868791EF05CFBAFF230020B
:1041C0000A218AE3FE480726407932B1012A59D0F4
:1041D000022A7FF43CACB1B34DE241B101290BD0CE
:1041E00002290FD0032913D0042917D043E21EF06F
:1041F00009FBAFF2640216E013981EF003FBAFF266
:104200006C0210E014981EF0FDFAAFF274020AE09E
:1042100015981EF0F7FAAFF27C0204E016981EF033
:10422000F1FAAFF284024FF4A571B4200DF0F6F963
:10423000E07A48B101280CD002280FD0032812D010
:10424000042815D0DAE33FE0A8791EF013FBDDA2C5
:1042500013E0A87B1EF00EFBDBA20EE0A87D1EF093
:1042600009FBDAA209E0A87F1EF004FBD8A204E053
:1042700095F826001EF0FEFAD6A24FF4A5714FF471
:1042800082706EE511B101290ED0B7E31EF0BAFAC3
:10429000AFF204120A214FF49670FFF751F8A87993
:1042A0001EF0E8FAC7A20DE015981EF0ABFAAFF2C7
:1042B00014120A214FF49670FFF742F8A87F1EF0FF
:1042C000D9FAC3A20A2137E31EF09CFAAFF24012DA
:1042D0000A214FF49670FFF769F8A8791EF0CAFA20
:1042E000B8A20A213BE3B6480826807932B1012AF8
:1042F00055D0022A7FF4F7AB91B37FE341B1012996
:104300000AD002290DD0032910D0042913D075E357
:104310001EF078FAABA212E017981EF073FAAAA268
:104320000DE018981EF06EFAA8A208E019981EF089
:1043300069FAA7A203E01A981EF064FAA5A24FF446
:10434000A5714FF482700DF069F9E07A48B1012847
:104350000CD002280FD0032812D0042815D04DE32A
:104360003EE0E8791EF086FA9BA213E0E87B1EF09F
:1043700081FA9AA20EE0E87D1EF07CFA98A209E08C
:10438000E87F1EF077FA97A204E095F827001EF068
:1043900071FA95A24FF4A5714FF4AA70E1E411B13E
:1043A00001290DD02AE31EF02DFA86A20A214FF42E
:1043B000AA70FEF7C5FFE8791EF05CFA86A20CE051
:1043C00019981EF01FFA82A20A214FF4AA70FEF774
:1043D000B7FFE87F1EF04EFA82A20A21EEE26EE1FC
:1043E0001EF010FA77A20A214FF4AA70FEF7DEFF42
:1043F000E8791EF03FFA78A20A21F2E272E17048F1
:10440000C07932B1012A5CD0022A7FF46FAB91B33C
:1044100024E141B101290AD002290DD0032910D08D
:10442000042913D04BE01EF0EDF96BA212E01B98AB
:104430001EF0E8F969A20DE01C981EF0E3F968A2ED
:1044400008E01D981EF0DEF966A203E01E981EF03B
:10445000D9F965A24FF4A5714FF4AA700DF0DEF8FA
:10446000E07A48B101280DD0022811D0032815D0D8
:10447000042819D023E08CE028791EF0FBF9AFF274
:10448000043217E0287B1EF0F5F9AFF2083211E094
:10449000287D1EF0EFF9AFF210320BE0287F1EF0FE
:1044A000E9F9AFF2243205E095F824001EF0E2F9B4
:1044B000AFF228324FF4A57164200DF0AFF805205B
:1044C00015E0C1B10129A0D11D981EF09BF945A2AC
:1044D0000A214FF4BE70FEF733FF287E1EF0CAF9A2
:1044E000AFF2EC720A216420FEF72AFF0120A072CD
:1044F0001FB0BDE8F08F1EF085F937A20A214FF4F6
:10450000BE70FEF71DFF00200DF076FC37480DF061
:1045100057FC95F82900022810D0012811D0032853
:1045200012D0042813D0052814D0062815D0072847
:1045300016D0082817D0092818D01DE0AFF69C0225
:1045400016E0AFF6980213E0AFF6980210E0AFF66F
:1045500094020DE0AFF694020AE0AFF6900207E095
:10456000AFF6900204E0AFF68C0201E0AFF68C02E9
:1045700064212F200DF01CF895F8300030B1AFF217
:10458000304002F0E5FA0020B1E7D8E0AFF2244075
:10459000F7E71EF037F910A20A214FF4BE70FEF7BC
:1045A00005FF00200DF028FC10480DF009FC95F8DF
:1045B000290002282BD001282CD019E0D0E00000DF
:1045C0008403002030303700303135003032330082
:1045D000303331003033390030303800303136007C
:1045E00030323400303332003034300000FFFF000E
:1045F000032812D0042813D0052814D0062815D07B
:10460000072816D0082817D0092818D01DE0AFF6C3
:104610006C1216E0AFF66C1213E0AFF6681210E001
:10462000AFF668120DE0AFF664120AE0AFF664125E
:1046300007E0AFF6601204E0AFF6601201E0AFF6FB
:104640005C1264212F200CF0B3FF95F8300040B1CC
:10465000AFF2045002F07CFA0020A07205F072FD67
:1046600046E7AFF2F840F5E70A26012A04D0022A0D
:104670007FF439AA39B3C1E111B101290FD0BDE1ED
:104680001EF0C0F8AFF69812D2216420FEF758FE53
:10469000687A1EF0EFF8AFF67C120FE08CE07046FF
:1046A0001EF0B0F8AFF6AC12D2216420FEF748FE3F
:1046B00095F821001EF0DEF8AFF69412D2218C207E
:1046C000FFF772BB89E0FFE71EF09CF8AFF6E0123F
:1046D00086216420FEF76AFE687A1EF0CBF8AFF6FA
:1046E000C41286218C20FFF770BB0B26012A03D051
:1046F000022ABDD129B381E111B101290FD07DE199
:1047000003981EF07FF8AFF6EC12D2218C20FEF752
:1047100017FEA87A1EF0AEF8AFF2F8520EE0069837
:104720001EF070F8AFF60022D2218C20FEF708FEB2
:1047300095F822001EF09EF8AFF20C62D221B42050
:10474000BEE703981EF05EF8AFF6302286218C207B
:10475000FEF72CFEA87A1EF08DF8AFF238628621A3
:10476000B420C0E70C26012A03D0022AC1D129B304
:1047700044E111B101290FD040E107981EF042F841
:10478000AFF26062D221B420FEF7DAFDE87A1EF0C3
:1047900071F8AFF258620EE00A981EF033F8AFF2EB
:1047A0007062D221B420FEF7CBFD95F822001EF0F6
:1047B00061F8AFF26C62D221DC2081E707981EF02D
:1047C00021F8AFF2A0628621B420FEF7EFFDE87A6F
:1047D0001EF050F8AFF29C628621DC2083E70D26A4
:1047E000012A03D0022A84D131B307E111B1012992
:1047F0000FD003E10B981EF005F8AFF2C062D22192
:10480000DC20FEF79DFD287B1EF034F8AFF28C62B1
:104810000EE00E981DF0F6FFAFF2D462D221DC203C
:10482000FEF78EFD95F824001EF024F8AFF2A46286
:10483000D2214FF4827043E70B981DF0E3FFAFF2F3
:1048400004728621DC20FEF7B1FD287B1EF012F8F1
:10485000AFF2D06286214FF4827044E70E26012A1F
:1048600003D0022ABFD141B3C8E011B1012910D051
:10487000C4E00F981DF0C6FFAFF2F862D2214FF4EA
:104880008270FEF75DFD687B1DF0F4FFAFF2FC6205
:104890000FE012981DF0B6FFAFF21072D2214FF464
:1048A0008270FEF74DFD95F825001DF0E3FFAFF295
:1048B0001072D2214FF4967002E70F981DF0A2FFFC
:1048C000AFF2407286214FF48270FEF76FFD687B75
:1048D0001DF0D0FFAFF2447286214FF4967002E7CC
:1048E0000F26012A03D0022ABCD141B386E011B1C0
:1048F000012910D082E013981DF084FFAFF26C7292
:10490000D2214FF49670FEF71BFDA87B1DF0B2FF7D
:10491000AFF24C320FE016981DF074FFAFF28072C8
:10492000D2214FF49670FEF70BFD95F826001DF08E
:10493000A1FFAFF26032D2214FF4AA70C0E6139803
:104940001DF060FFAFF2B47286214FF49670FEF74F
:104950002DFDA87B1DF08EFFAFF2943286214FF41F
:10496000AA70C0E61026012A03D0022ABCD141B3A6
:1049700044E011B1012910D040E017981DF042FF2A
:10498000AFF2BC32D2214FF4AA70FEF7D9FCA87B5B
:104990001DF070FFAFF2BC320FE01A981DF032FF2D
:1049A000AFF2D032D2214FF4AA70FEF7C9FC95F8CD
:1049B00027001DF05FFFAFF2D032D2214FF4BE705E
:1049C0007EE617981DF01EFFAFF2044286214FF4D9
:1049D000AA70FEF7EBFCE87B1DF04CFFAFF204423F
:1049E00086214FF4BE707EE60926012A03D0022AF2
:1049F000BCD149B302E021B1012912D0A672FFF760
:104A000072B81B981DF0FEFEAFF23042D2214FF477
:104A1000BE70FEF795FC287A1DF02CFFAFF63052E1
:104A20000FE01E981DF0EEFEAFF24442D2214FF48B
:104A3000BE70FEF785FC95F820001DF01BFFAFF659
:104A40004452D22164203BE61B981DF0DBFEAFF2FE
:104A5000744286214FF4BE70FEF7A8FC287A1DF040
:104A600009FFAFF67452862164203CE64FF012082D
:104A7000012A03D0022AC2D189B136E118461DF0BD
:104A8000C1FEAFF6905231466420FEF759FC687CB7
:104A90001DF0F0FEAFF6785231468C2028E0184623
:104AA0001DF0B0FEAFF6B45239466420FEF77EFC2E
:104AB000687C1DF0DFFEAFF6985239468C202AE064
:104AC0004FF01308012A03D0022A98D199B10CE1C2
:104AD00004981DF097FEAFF6B85231468C20FEF7D1
:104AE0002FFCA87C1DF0C6FEAFF6C4123146B420E0
:104AF000FEF726FCF9E004981DF084FEAFF6E052C4
:104B000039468C20FEF752FCA87C1DF0B3FEAFF6B0
:104B1000E8123946B420FEF749FCE6E04FF01408ED
:104B2000012A03D0022AA6D189B1DEE008981DF03F
:104B300069FEAFF60C223146B420FEF701FCE87C9A
:104B40001DF098FEAFF608223146DC20D0E7089829
:104B50001DF058FEAFF630223946B420FEF726FC91
:104B6000E87C1DF087FEAFF628223946DC20D2E72C
:104B70004FF01508012A03D0022AA6D191B1B4E062
:104B80000C981DF03FFEAFF648223146DC20FEF7C0
:104B9000D7FB287D1DF06EFEAFF6142231464FF490
:104BA0008270A5E70C981DF02DFEAFF66C223946F9
:104BB000DC20FEF7FBFB287D1DF05CFEAFF6382203
:104BC00039464FF48270A6E74FF01608012A03D049
:104BD000022AA8D199B188E010981DF013FEAFF613
:104BE000582231464FF48270FEF7AAFB687D1DF013
:104BF00041FEAFF65C2231464FF4967078E710988C
:104C00001DF000FEAFF6802239464FF48270FEF7A9
:104C1000CDFB687D1DF02EFEAFF6842239464FF4A1
:104C2000967078E74FF01708012A03D0022AA4D122
:104C300099B15AE014981DF0E5FDAFF6A422314673
:104C40004FF49670FEF77CFBA87D1DF013FEAFF2CB
:104C5000846231464FF4AA704AE714981DF0D2FDE1
:104C6000AFF6CC2239464FF49670FEF79FFBA87D35
:104C70001DF000FEAFF2AC6239464FF4AA704AE76D
:104C80004FF01808012A03D0022AA2D199B12CE0D2
:104C900018981DF0B7FDAFF2CC6231464FF4AA7000
:104CA000FEF74EFBE87D1DF0E5FDAFF2CC6231462C
:104CB0004FF4BE701CE718981DF0A4FDAFF2F4622B
:104CC00039464FF4AA70FEF771FBE87D1DF0D2FD66
:104CD000AFF2F46239464FF4BE701CE74FF0110892
:104CE000012A05D0022AA2D199B184F80A8086E669
:104CF0001C981DF087FDAFF2187231464FF4BE705C
:104D0000FEF71EFB287C1DF0B5FDF74A31466420F6
:104D1000EEE61C981DF076FDAFF23C7239464FF47A
:104D2000BE70FEF743FB287C1DF0A4FDEE4A394619
:104D30006420F0E6022ADAD191B958461DF062FDEE
:104D4000E94A4E46121D49466420FEF72FFB687E55
:104D50001DF090FDE44A314630328C20FEF726FBF0
:104D60001A207EE1022AC2D191B905981DF04AFDB0
:104D7000DD4A4E46303249468C20FEF717FBA87EAE
:104D80001DF078FDAFF65C423146B420FEF70EFB15
:104D90001B2066E1022AAAD191B909981DF032FDC3
:104DA000AFF678424E464946B420FEF7FFFAE87E59
:104DB0001DF060FDAFF674423146DC20FEF7F6FAD6
:104DC0001C204EE1022A92D199B90D981DF01AFDCE
:104DD000AFF690424E464946DC20FEF7E7FA287FC0
:104DE0001DF048FDAFF6684231464FF48270FEF781
:104DF000DDFA1D2035E1022A9DD1A1B911981DF0DF
:104E000001FDAFF684424E4649464FF48270FEF7EC
:104E1000CDFA687F1DF02EFDAFF6804231464FF48B
:104E20009670FEF7C3FA1E201BE1022A9BD1A1B99E
:104E300015981DF0E7FCAFF69C424E4649464FF4EC
:104E40009670FEF7B3FAA87F1DF014FDAFF680024E
:104E500031464FF4AA70FEF7A9FA1F2001E1022A99
:104E600099D1A1B919981DF0CDFCAFF69C024E4620
:104E700049464FF4AA70FEF799FAE87F1DF0FAFC54
:104E8000AFF6A00231464FF4BE70FEF78FFA202035
:104E9000E7E0022A97D199B91D981DF0B3FCAFF64F
:104EA000BC024E4649464FF4BE70FEF77FFA287E9C
:104EB0001DF0E0FC8C4A3146121D6420FEF776FAA4
:104EC0001920CEE0022A97D199B970461DF09AFCBC
:104ED000854A5646083251466420FEF767FA95F82F
:104EE00021001DF0C7FC804A314634328C20FEF789
:104EF0005DFA2220B5E0022A98D199B906981DF0F2
:104F000081FC794A5646343251468C20FEF74EFADF
:104F100095F822001DF0AEFCAFF6EC523146B420FD
:104F2000FEF744FA23209CE0022A99D199B90A9805
:104F30001DF068FCAFF6086256465146B420FEF7F5
:104F400035FA95F823001DF095FCAFF60462314662
:104F5000DC20FEF72BFA242083E0022A9AD1A1B9A3
:104F60000E981DF04FFCAFF6206256465146DC20ED
:104F7000FEF71CFA95F824001DF07CFCAFF6F45205
:104F800031464FF48270FEF711FA252069E0022ABB
:104F900099D1A9B912981DF035FCAFF610625646AA
:104FA00051464FF48270FEF701FA95F825001DF086
:104FB00061FCAFF6146231464FF49670FEF7F6F9D5
:104FC00026204EE0022A97D1A9B916981DF01AFCA6
:104FD000AFF63462564651464FF49670FEF7E6F946
:104FE00095F826001DF046FCAFF6182231464FF426
:104FF000AA70FEF7DBF9272033E0022A95D1A9B980
:105000001A981DF0FFFBAFF63422564651464FF476
:10501000AA70FEF7CBF995F827001DF02BFCAFF630
:10502000382231464FF4BE70FEF7C0F9282018E050
:10503000022A93D1A1B91E981DF0E4FBAFF65822C5
:10504000564651464FF4BE70FEF7B0F995F8200071
:105050001DF010FC244A314608326420FEF7A6F900
:105060002120A072CBE44FF4FA76BCF1320F71D05C
:1050700016DCBCF12C0F48D0BCF12D0F6BD0BCF16D
:105080002E0F69D0BCF1310F7FF432AA1DF0DCFB8A
:1050900095F82E00C0B301286FD002286ED078E1B9
:1050A000BCF15F0F6BD0BCF1610F69D0BCF1620F36
:1050B000EAD11DF0C9FB95F83B3095F83A200BA1D9
:1050C000684630351CF0B8FC6A469621F8200CF092
:1050D0006FFA687923F0A0F92878D0B306A001F020
:1050E00037FD3320FFF703BAF43C000825302E3299
:1050F000643A25302E3264005265636F7264206911
:105100006E74657276616C002DE11DF09DFB95F863
:105110002C00002895F830001FD018B3F7A2962174
:1051200032200CF045FA1DF0B5FB95F82A00002856
:1051300095F8300018D0E0B1F0A296215A200CF07A
:1051400037FA95F83000B0B1EDA001F001FD2D2047
:10515000C8E706E144E114E05EE008B1ECA2DEE756
:10516000ECA2DCE7EDA2DAE708B1E9A2E5E7E9A203
:10517000E3E7EAA2E1E7EBA0E7E7FBE001E195E086
:10518000C5E01DF061FB95F82A00002895F8300075
:1051900026D050B3D9A296215A200CF009FAE4483F
:1051A00001460CF013FE1F2318227F2196200CF0DD
:1051B00031FB95F82B00052819D004284FF000008A
:1051C0001FD00CF019FEDBA29B217F200CF0F0F920
:1051D00095F83000F0B1D8A001F0BAFC2E2081E79C
:1051E00008B1CBA2D7E7CBA2D5E7CCA2D3E700206A
:1051F0000CF002FED6A296217F20FEF7D7F8D5A2AA
:10520000E2E70CF0F9FDD2A296217F20FEF7CEF85E
:10521000BEA2D9E7D0A0DFE7882108460CF0D6FD72
:105220001F2318227F2196200CF0F4FA95F82B000A
:1052300005281FD00428BE4826D00CF0DDFDBDA2F5
:105240009B217F200CF0B4F91DF024FB95F836006B
:10525000002895F8300020D020B3A8A29621AA20DB
:105260000CF0A6F995F83000F0B1BFA001F070FC89
:105270005F2037E7AE480CF0BFFDB5A296217F2036
:10528000FEF794F8B3A2DBE70CF0B6FDB0A29621CE
:105290007F20FEF78BF89DA2D2E708B19CA2DDE744
:1052A0009CA2DBE79DA2D9E7B2A0DFE71DF0CCFA14
:1052B00095F83600002895F830001FD018B38FA25B
:1052C0009621AA200CF074F91DF0E4FA95F8393013
:1052D00095F83820AFF2EC11684630351CF0ACFB85
:1052E0006A469621D0200CF063F9287868B1A4A012
:1052F00001F02EFC012060706120F3E608B184A269
:10530000DEE784A2DCE785A2DAE7A0A0F0E71DF0E3
:105310009BFA95F8393095F83820AFF2302168467D
:1053200030351CF089FB6A469621D0200CF040F9FC
:105330001DF0B0FAEB7AAA7AAFF2502168461CF061
:105340007BFB6A469621F8200CF032F9287830B1C0
:1053500092A001F0FDFB012060706220C2E692A0E5
:10536000F7E795A0BBE695F8300008B196A20CE0EF
:1053700097A20AE095F8300008B197A205E097A23D
:1053800003E095F8300090B196A2314632200CF03F
:105390000FF91DF07FFA95F82F0050B101280AD0BF
:1053A00002280AD003280AD004280AD00EE08FA2CF
:1053B000EBE790A206E091A204E092A202E093A2A1
:1053C00000E094A2314657200CF0F2F895F8300036
:1053D00020B192A001F0BCFB322083E694A0F9E753
:1053E0001DF032FA95F82F0040B1012808D00228AC
:1053F00008D0032808D0042808D00CE07DA206E0DD
:105400007EA204E07FA202E080A200E081A23146F9
:1054100057200CF0CDF81DF03DFA95F83700002824
:1054200095F830000DD088B134A2314682200CF0BE
:10543000BFF895F8300058B180A001F089FB6020DA
:1054400050E608B132A2F0E732A2EEE733A2ECE771
:105450007CA0F2E77E4D7F4E7F4895ED212AD6ED68
:10546000214A407B96ED194AD6ED113A96ED093A5C
:10547000D6ED012AD5ED191A95ED111AD5ED090AC7
:1054800095ED010AACF1380CBCF10F0FBFF430A858
:10549000DFE80CF00AFCEEEDECEBEA08E9E8E7E601
:1054A000E5E43300FFF724B840B101280CD002280E
:1054B00012D0032818D004281ED0E5E002201DF0E9
:1054C0000FFE95ED000ADCE0B0EE600A02201DF050
:1054D00007FE95ED080AD4E0B0EE410A02201DF067
:1054E000FFFD95ED100ACCE0B0EE610A02201DF040
:1054F000F7FD95ED180AC4E0BCE04DE34F4E000007
:1055000042757A7A6572204F4E2F4F464600000052
:105510004F464600B9D8B1D500000000B4F2BFAA8A
:1055200000000000B7E4C3F9C6F7C9E8D6C300001D
:1055300000FFFF004B00000053656C65637420742E
:10554000656D706572617475726520756E69740041
:105550006F00000043000000CEC2B6C8B5A5CEBBA8
:10556000D1A1D4F100000000547269672054696D24
:1055700065720000B6A8CAB1B2C9BCAF0000000095
:1055800053746172742054696D650000B2C9BCAF78
:10559000BFAACABCCAB1BCE400000000456E6420CA
:1055A00054696D6500000000B2C9BCAFBDE1CAF826
:1055B000CAB1BCE400000000BCC7C2BCBCE4B8F483
:1055C000CAB1BCE400000000464153540000000092
:1055D000BFECCBD9000000004D454400D6D0CBD95C
:1055E00000000000534C4F5700000000C2FDCBD913
:1055F0000000000039363030000000003139323010
:105600003000000033383430300000003537363099
:1056100030000000313135323030000053656C65A8
:10562000637420426175642072617465000000003B
:10563000B2A8CCD8C2CAC9E8D6C30000524550456A
:1056400041540000D6D8B8B4B2C9BCAF00000000C5
:10565000640C0020C40B0020F800002066E22FE25A
:10566000F8E1C1E18AE153E11CE1E5E0AEE077E079
:1056700040E00BE0B0EE420A02201DF031FD95ED56
:10568000200A01201DF09EFC39202BE540B10128A5
:105690000CD0022812D0032818D004281ED027E0EE
:1056A00002201DF08FFC95ED020A1EE0B0EE600AAC
:1056B00002201DF087FC95ED0A0A16E0B0EE410AC3
:1056C00002201DF07FFC95ED120A0EE0B0EE610A9B
:1056D00002201DF077FC95ED1A0A06E0B0EE420AB2
:1056E00002201DF06FFC95ED220A03201DF0F8FC4E
:1056F0003A20F7E440B101280ED0022814D0032844
:105700001AD0042820D029E095ED020A03201DF0CC
:1057100059FC95ED030A1EE095ED0A0A03201DF0E1
:1057200051FC95ED0B0A16E095ED120A03201DF0D1
:1057300049FC95ED130A0EE095ED1A0A03201DF0C1
:1057400041FC95ED1B0A06E095ED220A03201DF0B1
:1057500039FC95ED230A04201DF0C2FC3B20C1E476
:1057600040B101280ED0022814D003281AD00428F2
:1057700020D029E095ED030A04201DF023FC95EDCF
:10578000040A1EE095ED0B0A04201DF01BFC95EDAC
:105790000C0A16E095ED130A04201DF013FC95ED9C
:1057A000140A0EE095ED1B0A04201DF00BFC95ED8C
:1057B0001C0A06E095ED230A04201DF003FC95ED7C
:1057C000240A05201DF08CFC3C208BE440B101280C
:1057D0000ED0022814D003281AD0042820D029E0A3
:1057E00095ED040A05201DF0EDFB95ED050A1EE080
:1057F00095ED0C0A05201DF0E5FB95ED0D0A16E070
:1058000095ED140A05201DF0DDFB95ED150A0EE05F
:1058100095ED1C0A05201DF0D5FB95ED1D0A06E04F
:1058200095ED240A05201DF0CDFB95ED250A0620F7
:105830001DF056FC3D2055E440B101280ED0022851
:1058400014D003281AD0042820D029E095ED050AA9
:1058500006201DF0B7FB95ED060A1EE095ED0D0A3A
:1058600006201DF0AFFB95ED0E0A16E095ED150A2A
:1058700006201DF0A7FB95ED160A0EE095ED1D0A1A
:1058800006201DF09FFB95ED1E0A06E095ED250A0A
:1058900006201DF097FB95ED260A07201DF020FC41
:1058A0003E201FE440B101280ED0022814D0032866
:1058B0001AD0042820D029E095ED060A07201DF013
:1058C00081FB95ED070A1EE095ED0E0A07201DF0FD
:1058D00079FB95ED0F0A16E095ED160A07201DF0ED
:1058E00071FB95ED170A0EE095ED1E0A07201DF0DD
:1058F00069FB95ED1F0A06E095ED260A07201DF0CD
:1059000061FB95ED270A08201DF0EAFB3F201FE40C
:1059100040B101280ED0022814D003281AD0042840
:1059200020D029E0B0EE620A02201DF099FA96ED2F
:10593000000A1EE0B0EE430A02201DF091FA96ED37
:10594000080A16E0B0EE630A02201DF089FA96ED0F
:10595000100A0EE0B0EE440A02201DF081FA96ED26
:10596000180A06E0B0EE640A02201DF079FA96EDFE
:10597000200A01201DF0DEF9412030E440B1012869
:105980000ED0022814D003281AD0042820D029E0F1
:10599000B0EE620A02201DF0CDF996ED020A1EE07B
:1059A000B0EE430A02201DF0C5F996ED0A0A16E092
:1059B000B0EE630A02201DF0BDF996ED120A0EE06A
:1059C000B0EE440A02201DF0B5F996ED1A0A06E081
:1059D000B0EE640A02201DF0ADF996ED220A032014
:1059E0001DF03EFA422044E440B101280ED00228C6
:1059F00014D003281AD0042820D029E096ED020AFA
:105A000003201DF097F996ED030A1EE096ED0A0AB1
:105A100003201DF08FF996ED0B0A16E096ED120AA1
:105A200003201DF087F996ED130A0EE096ED1A0A91
:105A300003201DF07FF996ED1B0A06E096ED220A81
:105A400003201DF077F996ED230A04201DF008FAD3
:105A500043200EE440B101280ED0022814D00328C0
:105A60001AD0042820D029E096ED030A04201DF066
:105A700061F996ED040A1EE096ED0B0A04201DF074
:105A800059F996ED0C0A16E096ED130A04201DF064
:105A900051F996ED140A0EE096ED1B0A04201DF054
:105AA00049F996ED1C0A06E096ED230A04201DF044
:105AB00041F996ED240A05201DF0D2F944201CE49A
:105AC00040B101280ED0022814D003281AD004288F
:105AD00020D029E096ED040A05201DF02BF996ED63
