:020000040800F2
:10000000D80F0120C101000833FA000811D10008FF
:1000100031FA0008B9100008FFA201080000000032
:10002000000000000000000000000000A123010803
:10003000995E000800000000E9FA0008FD250108AB
:10004000DB010008DB010008DB010008DB01000820
:10005000DB010008DB010008DB010008DB01000810
:10006000DB010008DB010008DB010008DB01000800
:10007000DB010008DB010008DB010008DB010008F0
:10008000DB010008DB010008DB010008DB010008E0
:10009000DB010008DB010008DB010008DB010008D0
:1000A000DB010008DB010008DB010008DB010008C0
:1000B000DB010008DB010008DB010008DB010008B0
:1000C000DB010008DB010008DB010008DB010008A0
:1000D000DB01000889870108DB010008DB0100085B
:1000E000DB010008DB010008DB010008DB01000880
:1000F000DB010008DB010008DB010008DB01000870
:10010000DB010008DB010008DB010008DB0100085F
:10011000DB010008DB01000895260108DB0100086F
:10012000DB010008DB010008DB010008DB0100083F
:10013000DB010008DB010008DB010008DB0100082F
:10014000DB010008DB010008DB010008ADFA000854
:10015000DB010008DB010008DB010008DB0100080F
:10016000DB010008DB010008C5FA0008B9FA000845
:10017000DB010008D1FA0008DB010008DB01000800
:10018000DB010008DB010008DB010008DB010008DF
:10019000DB010008DB010008DB010008DB010008CF
:1001A000DB010008DB010008DB010008DFF80CD0F0
:1001B00000F012FC00480047ADB70108D80F01203D
:1001C0000648804706480047FEE7FEE7FEE7FEE7F1
:1001D000FEE7FEE7FEE7FEE7FEE7FEE73926010859
:1001E000AD010008D2B201E000F8012B491EFBD29C
:1001F00070470022F6E710B513460A460446194632
:10020000FFF7F0FF204610BD421E12F8013F002B01
:10021000FBD111F8013B02F8013B002BF9D17047EB
:1002200010B5044604E00B7800F8013B03B1491C0B
:10023000521EF8D2204610BD421C10F8011B0029A6
:10024000FBD1801A704710B5002200E0521C835C7D
:100250008C5CA34201D1002BF8D1D8B2E1B2401A94
:1002600010BD034611F8012B00F8012B002AF9D12B
:100270001846704770B506461AF09CFA04680546A1
:100280000A220021304600F0ABFA2C6070BD2DE947
:10029000FE4F804681EA0300C00F0C46009021F01B
:1002A000004123F00045B8EB0200A94105D24046C9
:1002B000214690461C460B46024623F00040104360
:1002C00047D0270DC7F30A00C3F30A510290401A22
:1002D000019040286BDAC3F3130040F4801B0098B0
:1002E000924620B10023D2EB030A63EB0B0B01987B
:1002F0005946C0F14002504600F0F3F906460D465B
:1003000050465946019A00F00BFA10EB0800614183
:10031000002487EA115284EAE7731A4340D0009A16
:1003200062B3019A012A4FEA075215DC001B61EB08
:1003300002014FF0004202EA0752CDE90042001CE0
:1003400041F5801132462B4600F0C8FA03B0BDE8F3
:10035000F08F40462146F9E7001B61EB0201001CCB
:1003600041F5801300185B412018A2F5001747EBF8
:10037000030140EAD570B6196D4111E06D084FEAEE
:10038000360645EAC0754FEA0752001B61EB0201D1
:10039000001C41F5801149084FEA30000019514115
:1003A00032462B4603B0BDE8F04F00F088BA009803
:1003B000012240000023D0EB020263EBE0730098BF
:1003C00021464FEAE074B8EB000061EB0401E9E775
:1003D00083F000435BE781F0004158E72DE9FE4FD1
:1003E00081EA030404F0004421F0004100944FF03E
:1003F000000B23F0004350EA01045ED052EA0304EC
:100400005BD0C3F30A54C1F30A552C44A4F2F3346D
:100410000194A0FB0254C1F3130141F48011C3F312
:10042000130343F4801301FB024400FB034E840AD0
:10043000970A44EA815447EA8357A4FB0768029568
:100440008D0A05FB07854FEA932C04FB0C54270506
:10045000029D4FEA065847EA1637B5EB08056EEBE2
:10046000070C870E920E47EA811742EA8312A7FB18
:100470000201B6EB0B0164EB00042B0D43EA0C33D5
:100480005E1844EB1C50DA465146E7FB0201C5F307
:1004900013044FEA0B3343EA14534FEA0432019C2E
:1004A00043EA0603A4F10C040294009CCDE900B4D5
:1004B00000F014FA03B0BDE8F08F00200146F9E720
:1004C0002DE9F04D81EA030404F0004B21F00045D2
:1004D00014464FF0000A23F0004150EA050220D0F4
:1004E00054EA01021DD0C5F30A570246C5F31303AF
:1004F000C1F31300C1F30A5640F4801543F480138E
:10050000A7EB0608101BD64608F2FD3873EB050072
:1005100002D308F1010801E092185B41B8F1000F25
:1005200003DA00200146BDE8F08D00204FF4801171
:10053000064684460EE0171B73EB050705D3121B16
:1005400063EB050306434CEA010C49084FEA30000F
:1005500092185B4150EA0107EDD152EA030012D034
:1005600082EA040083EA0501084305D0101BAB4171
:1005700006D20122002306E000224FF0004302E0F1
:100580006FF0010253101AEB06004CEB085110EB10
:100590000A0041EB0B01BDE8F04D00F090B90EB53B
:1005A00040F2334102910021CDE900110A460B4689
:1005B00000F094F903B000BD70B5C1F30A5201F028
:1005C00000450024C1F3130140F2FF3341F48011D0
:1005D0009A4201DA002070BD40F233439A42A2F2FF
:1005E000334203DC524200F08BF800E090402C4391
:1005F000F1D0404270BD00F0004230F000400AD01F
:10060000C10D01F56071C0F3160042EA0151C20844
:1006100040071143704700200146704701F0004336
:1006200030B421F0004150EA010206D00A0DA2F5D3
:100630006072C1F31301002A02DC30BC0020704755
:10064000440F44EAC104C100E01830BC00EBC250C2
:1006500000F0FEB830B50B460146002020220124F0
:1006600009E021FA02F59D4205D303FA02F5491B80
:1006700004FA02F52844151EA2F10102F1DC30BD96
:100680002DE9F05F0546002092469B4688460646C7
:10069000814640241BE0284641464746224600F05A
:1006A0002FF853465A46C01A914110D311461846A6
:1006B000224600F016F82D1A67EB01084F46224635
:1006C0000120002100F00DF817EB00094E41201E1B
:1006D000A4F10104DFDC484631462A464346BDE822
:1006E000F09F202A04DB203A00FA02F10020704734
:1006F0009140C2F1200320FA03F319439040704760
:10070000202A04DB203A21FA02F00021704721FA66
:1007100002F3D040C2F120029140084319467047CD
:10072000202A06DBCB17203A41FA02F043EAE073B5
:1007300006E041FA02F3D040C2F1200291400843A2
:10074000194670470FB4002300B589B00CA9009179
:100750000B996FF00042CB601E4B06931E4B079324
:100760000423CDE901321D4A089202466B4600205F
:1007700000F0E6F909B05DF814FB70B586B00646E6
:100780004FF0FF300091CDE90101002015460C46E5
:1007900004903246694604A8FFF7D4FF0246049845
:1007A000211825B108B1084600E0204628600498C9
:1007B00000280DD0002A02DD0098884208D0081BCE
:1007C0000094CDE901043246694604A8FFF7BAFF58
:1007D00006B070BD790D0008970D0008050A0008E5
:1007E0002DE9F04791460F4680460446002614F84E
:1007F000015B2DB100F002F90068405DC007F6D141
:100800002B2D02D02D2D18D0641E4A463946204685
:1008100000F0D2FA27B13968A14201D1C7F80080AF
:1008200071054FF002040BD54042002803DD19F09A
:10083000C1FF0460A007BDE8F08746F48066E4E7E6
:100840000028F8DA19F0B6FF04606FF00040F2E714
:100850000029A8BF7047401C490008BF20F00100D4
:10086000704710B4B0FA80FC00FA0CF050EA0104B2
:1008700004BF10BC704749B1CCF1200421FA04F444
:1008800011FA0CF118BF012121430843A3EB0C011D
:10089000CB1D4FEA00614FEA102042BF002010BC80
:1008A000704700EBC35010440029A4BF10BC704730
:1008B000401C490008BF20F0010010BC704710B573
:1008C000141E73F1000408DA401C41F10001921873
:1008D0005B411A4301D120F0010010BD2DE9F04D1C
:1008E00092469B4611B1B1FA81F202E0B0FA80F271
:1008F00020329046FFF7F5FE04460F4640EA0A0014
:1009000041EA0B0153465A46084313D0114653EAB5
:10091000010019D0C8F140025046FFF7F1FE05462C
:100920000E46504659464246FFF7DBFE084305D0C7
:10093000012004E020463946BDE8F08D0020054343
:1009400046EAE0762C4337430A986305E40AA0EBB5
:1009500008000022FD0A44EA47540A3002D500206C
:100960000146E9E7010510196941DDE9084500196B
:100970006941BDE8F04DA2E7C1F30A52C1F313018A
:1009800040F2FF3341F480119A4202DA002001461E
:10099000704740F233439A42A2F2334202DC5242A1
:1009A000FFF7AEBEFFF79DBE30B5041E71F1000427
:1009B00004DB4FF00044404264EB0101141E73F16C
:1009C000000405DB1C464FF00043524263EB040376
:1009D000994208BF904230BD064C074D06E0E068E2
:1009E00040F0010394E8070098471034AC42F6D376
:1009F000FFF7E0FBB4900308D49003080048704769
:100A00003C90030810B50446FFF7F8FF0068005D4E
:100A100000F0010010BD00002DE9FF4F087883B001
:100A20009946FF2805D0491C2D2804D00024002019
:100A300008E000200BE00124F9E700EB800003EB65
:100A40004000491C0B78FF2BF7D104B14042002332
:100A50000293147819461D462D2C01D02B2C04D15D
:100A6000521C2D2C13D000240294AA461478FF2C7B
:100A70000FD00A25A3FB057801FB05814FF0000C80
:100A800003FB0C11521CE3194AEB0101EEE70124B0
:100A9000EAE7814453EA010002D019F5C87F06DA7B
:100AA00003980021C0E9001107B0BDE8F08F0025D0
:100AB000AE4E2F46DFF8B882184600F0DAF9CDE9DD
:100AC0000001B9F1000002DAC9F1000400E00446B7
:100AD0000023A74A1AEB030B42EB045A12E0E0078B
:100AE00007D02A46334638464146FFF777FC07468B
:100AF00088462A46334610461946FFF76FFC0546DE
:100B00000E466410002CEAD1DDE90001B9F1000FB6
:100B10005A46534606DAFFF7D3FC3A464346FFF7F8
:100B2000CFFC05E0FFF75AFC3A464346FFF756FC78
:100B3000029A0AB181F00041039AC2E90001B3E7C9
:100B40002DE9FF4F1F468DB0D7E901464FF0FF3822
:100B50002E2045464FF000090B90B9696D1C0E9888
:100B60008847396A824688470028F6D1BAF1FF3FA4
:100B70000AD024F4D064002E11DDBAF12B0F08D076
:100B8000BAF12D0F0BD102E0404611B08DE744F4CD
:100B90008064B9696D1C0E9888478246761E694646
:100BA000600501D52D2000E02B208DF8000001F11B
:100BB000010B0DF1200809E0B9696D1C0E988847FA
:100BC00082460F9844F40074761E0560002E02DD04
:100BD000BAF1300FF0D00B998A453ED144F0800431
:100BE00006E00F99681CA9F1010944F4007408603B
:100BF000B9696D1C761E0E98884782463028F0D061
:100C00002BE00B998A4505D1200603D444F08004DB
:100C1000761E18E0504619F0CDFE08B30DF1130111
:100C2000761E44F400748B4508D2AAF130000BF80C
:100C3000010B200607D5A9F1010003E0200602D42C
:100C400009F101008146A00502D50F99681C0860D2
:100C5000B9696D1C0E9888478246002ED1DC53E09E
:100C6000002E51DDBAF1650F02D0BAF1450F4BD11C
:100C7000A00549D5B9696D1C24F44074761E0E9800
:100C800088478246002E0CDD2B2804D0BAF12D0FA8
:100C900007D144F48074B9696D1C0E988847824668
:100CA000761EE00501D52D2100E02B2108F8011B5F
:100CB000CDF82C8021E00DF12901761E44F400745A
:100CC00088450CD2AAF1300010F0FF0088F800002F
:100CD00002D10B99884509D908F1010806E0E00521
:100CE00001D5244801E042F20F708146B9696D1CBC
:100CF0000E98884782460F980560002E04DD504606
:100D000019F058FE0028D6D1F9690E988847FF20BF
:100D10008BF8000088F800000020069007904B46F2
:100D20006A4608A906A8FFF777FEA00502D46FF06F
:100D300001002AE714F0240F0AD0E00714D1DDE9FE
:100D400006123868031D3B600068C0E900120BE022
:100D5000DDE90601FFF762FC0146E00704D13868CF
:100D6000021D3A600068016028460EE7000014404A
:100D70000000F03FF1D8FFFF426842B1016811F86E
:100D8000013B23B1521EC0E90012184670470121F1
:100D9000C160881E704742685AB1C368016843B990
:100DA00083688B4205D0491E521CC0E90012002006
:100DB00070474FF0FF3070472DE9F05F82460078B2
:100DC000002715468B460AF10104B946302801D0A8
:100DD0009DB113E014F8010B0127782803D058289F
:100DE00001D045B10AE00DB1102D07D10027102523
:100DF00014F8010B02E0082500E00A250026B046A1
:100E00000EE005FB080005FB06F1012701EB10468B
:100E10001FFA80F8B6F5803F00D3B94614F8010BED
:100E2000294600F018F80028EBDABBF1000F05D0D6
:100E30000FB1641E00E05446CBF80040B9F1000F3A
:100E400006D019F0B7FC02210160C81EBDE8F09F72
:100E500048EA0640FAE73A2800D2303820F020026B
:100E6000412A01D3A2F13700884201D34FF0FF306D
:100E700070470EB540F2334202920022CDE90022C3
:100E80001346FFF72BFD03B000BD70B58C1810F8AA
:100E9000015B15F0070301D110F8013B2A1106D1BF
:100EA00010F8012B03E010F8016B01F8016B5B1ED9
:100EB000F9D12B0705D40023521E0DD401F8013BB4
:100EC000FAE710F8013BCB1A921C03E013F8015B20
:100ED00001F8015B521EF9D5A142D8D3002070BDA4
:100EE0000E4910B5887A082803D0BDE8104009F0F3
:100EF00023BCC87AC97B0B4A00EBC1015339C9B284
:100F00009FED070A02EB8101523881ED000AC0B261
:100F10001AF008FEBDE8104011F054BAE8000020B5
:100F200000000000340801200029816802D041F04F
:100F3000010101E021F0010181607047084B10B50B
:100F4000D3F8042307490A40D0E900142143D0E92B
:100F50000240044321431143C3F8041310BD0000B1
:100F600000200140E030FCFF0029816802D041F4FC
:100F7000807101E021F480718160704700298168EF
:100F800002D041F4007101E021F4007181607047EA
:100F900030B542680F4B0C791A400B6842EA0422C4
:100FA0001343436082680C4B4D791A40D1E90343E7
:100FB00023438C6844EA4504234313438360C26A95
:100FC000097D22F47002491EC9B242EA0151C16290
:100FD00030BD0000FFFEFFFCFDF7FFC070B5072627
:100FE00009290AD9C568A1F10A0404EB4404A64002
:100FF000B543A3401D43C56007E0056901EB41040B
:10100000A640B543A3401D4305611F23072A09D20B
:10101000446B521E02EB820293409C4391400C436E
:10102000446370BD0D2A09D2046BD21F02EB820209
:1010300093409C4391400C43046370BDC46A0D3AD5
:1010400002EB820293409C4391400C43C46270BD0A
:10105000816841F080418160704700000648807AD5
:10106000052805D0062803D0072801D0082801D17B
:101070001AF056B970470000E80000201CB50121A5
:1010800008020EF057FD2020012100908DF8041079
:1010900000208DF806008DF80710064C8DF805002D
:1010A000694620460BF0DCFF202120460CF02BF88F
:1010B0001CBD000000200240FEE710B504463920A8
:1010C0001FF09AFDE0B21FF0BBFDC4F307201FF034
:1010D000B7FDC4F307401FF0B3FD200E1FF0B0FDB5
:1010E0001FF07AFDBDE8104019F07EBA70B50646D3
:1010F00014460D463C201FF07FFDE8B21FF0A0FD16
:10110000280A1FF09DFD1FF067FD0CB1002011E0C3
:1011100019F06AFA1E280FD1304600F02DF9054665
:101120003D201FF069FD1FF057FD2E44002CEFD02D
:10113000208828442080EBE770BD10B50EF0EEFC4F
:1011400008B100F069F8BDE81040302000F0AFB8F9
:10115000312000F0ACB80146362000F09BB810B545
:1011600008B100F0C2F8BDE81040342000F09FB88C
:1011700070B5054600F0A4F804000DD001462846DD
:1011800000F021F8412807D0142803D0422800D1CC
:10119000B32070BD432070BD2819BDE87040FFF733
:1011A000DEBF10B5044600F0A0F820785C2801D01E
:1011B0002F2803D10021642000F0F4F8BDE810408E
:1011C000322000F074B870B50E46002105460124A7
:1011D00001E0641CE4B2285D5C2813D02F2811D0F4
:1011E0000028F6D100246818FFF7DBFF002C08D098
:1011F000B44206D041280AD0142806D0422800D193
:10120000B32070BD641CE4B2EDE7432070BD2146FD
:10121000E1E7FF21FFF7D7BF10B522201FF0ECFC5C
:101220001FF0E0FC04461FF0D7FC204610BD2DE95E
:10123000F0411FF0D7FC06461FF0D4FC05461FF016
:10124000D1FC04461FF0CEFC07461FF0C5FC46EA61
:10125000052040EA044040EA0760BDE8F08110B58F
:1012600004460C201FF0C8FC20461FF0E9FCBDE836
:101270001040FFF7DCBF10B504460A201FF0BCFC8D
:1012800020461FF0DDFC1FF0ADFC04461FF0A4FC5F
:10129000204610BD10B50C461FF0AEFC20461FF0D6
:1012A000CFFC1FF099FCBDE8104019F09DB910B5B6
:1012B0001FF0A2FC1FF090FCBDE8104019F094B99B
:1012C000014600E0491C0A78002AFBD105E011F82C
:1012D000012D5C2A03D02F2A01D08142F7D181420F
:1012E00000D0491C081AC0B2704770B505460120ED
:1012F0001FF082FC1FF076FC432828D22B20FFF73A
:10130000BAFF102823D22F201FF076FC00201FF0F8
:1013100097FC3220FFF7CBFF142818D1CF20FFF71E
:10132000AAFF040013D04C20FFF799FF00EB042123
:101330004C2000F037F85020FFF791FF00EB04211C
:10134000502000F02FF80021702000F02BF82F2003
:101350001FF052FC2C7806E015F8014F5C2C01D0F0
:101360002F2C00D1002420461FF06AFC002CF3D162
:10137000BDE870401FF030BC70B505462D201FF051
:101380003BFC1FF02FFC0446260007D028781FF0F6
:1013900057FC641E6D1C14F0FF04F7D11FF01CFCF9
:1013A000304670BD70B505460C460D201FF024FC7C
:1013B00028461FF045FCE0B21FF042FCC4F30720B2
:1013C0001FF03EFCC4F307401FF03AFC200E1FF054
:1013D00037FCBDE870401FF0FFBB00002DE9F04175
:1013E00088B0012181200EF0A5FB012108030EF039
:1013F000D1FBDFF8C8800522114640460BF06CFE99
:101400000522062140460BF067FE052207214046D3
:101410000BF062FE02258DF805508DF80450002473
:1014200020278DF8064000978DF807406946404612
:101430000BF016FE40200090694640460BF010FE6F
:1014400080200090694640460BF00AFE10200126DD
:1014500000908DF804608DF80640694640460BF018
:10146000FFFD8DF8044000978DF807606946144829
:101470000BF0F6FDADF808404FF48270ADF80A00AD
:10148000ADF810602802ADF812003820ADF8140055
:10149000ADF80C40ADF8164007200A4CADF8180026
:1014A000ADF80E5002A9204610F0EBFE01212046B7
:1014B00010F0E4FC08B0BDE8F0810000000002403C
:1014C000001C024000300140F0B5FF231A46002501
:1014D00018E0445D6240002402F0010613F0010FA1
:1014E0004FEA53034FEA520201D042F080021EB18C
:1014F00083F0A00382F00102641CE4B2082CEBD359
:101500006D1CEDB28D42E4D342EA0320F0BD000031
:101510002DE9F041FE48FF4EFF4C00784FF49B75DB
:101520004FF470474FF4A57840B1012874D00228D9
:1015300073D0032872D0042871D025E320780128C5
:1015400001D028B10FE088200CF056FF304603E0B0
:1015500088200CF051FF38460CF06AFFEFA20A21F8
:1015600064200CF029FB6078012801D028B10FE03D
:1015700088200CF041FF304603E088200CF03CFF4F
:1015800038460CF055FFE6A20A21AA200CF014FB05
:10159000A078012801D028B10FE088200CF02CFFA2
:1015A000304603E088200CF027FF38460CF040FF5F
:1015B000DCA20A21F0200CF0FFFAE078012801D02B
:1015C00028B10FE088200CF017FF304603E0882098
:1015D0000CF012FF38460CF02BFFD3A20A2128464C
:1015E0000CF0EAFA2079012801D028B10FE0882018
:1015F0000CF002FF304603E088200CF0FDFE384678
:101600000CF016FFC9A2414664200CF0D5FA6079AF
:10161000012805D048B113E039E0CEE063E133E2C0
:1016200088200CF0E9FE304603E088200CF0E4FE50
:1016300038460CF0FDFEBEA24146AA200CF0BCFAD2
:10164000A079012801D028B10FE088200CF0D4FE49
:10165000304603E088200CF0CFFE38460CF0E8FE60
:10166000B4A24146F0200CF0A7FAE079012801D09D
:1016700028B189E288200CF0BFFE304603E08820C4
:101680000CF0BAFE38460CF0D3FEABA278E2207A1A
:1016900001284FF0880070D00CF0AEFE38460CF0F8
:1016A000C7FEA6A20A2164200CF086FA607A0128FF
:1016B0004FF0880065D00CF09FFE38460CF0B8FE65
:1016C0009FA20A21AA200CF077FAA07A01284FF0F5
:1016D00088005AD00CF090FE38460CF0A9FE99A272
:1016E0000A21F0200CF068FAE07A01284FF0880017
:1016F0004FD00CF081FE38460CF09AFE92A20A21DF
:1017000028460CF059FA207B01284FF0880044D07D
:101710000CF072FE38460CF08BFE8CA24146642021
:101720000CF04AFA607B01284FF0880039D00CF0A9
:1017300063FE38460CF07CFE85A24146AA200CF0E0
:101740003BFAA07B01284FF088002ED00CF054FE0D
:1017500038460CF06DFE7FA24146F0200CF02CFACA
:10176000E07B01284FF0880023D00CF045FE38467E
:101770000CF05EFE78A203E2FFE70CF03DFE30467F
:101780008DE70CF039FE304698E70CF035FE304618
:10179000A3E70CF031FE3046AEE70CF02DFE3046EC
:1017A000B9E70CF029FE3046C4E70CF025FE3046C0
:1017B000CFE70CF021FE3046DAE7207C01284FF01D
:1017C000880070D00CF018FE38460CF031FE63A291
:1017D0000A2164200CF0F0F9607C01284FF08800A9
:1017E00065D00CF009FE38460CF022FE5CA20A21FE
:1017F000AA200CF0E1F9A07C01284FF088005AD013
:101800000CF0FAFD38460CF013FE56A20A21F02027
:101810000CF0D2F9E07C01284FF088004FD00CF09A
:10182000EBFD38460CF004FE4FA20A2128460CF0CE
:10183000C3F9207D01284FF0880044D00CF0DCFD76
:1018400038460CF0F5FD49A2414664200CF0B4F98D
:10185000607D01284FF0880039D00CF0CDFD38466E
:101860000CF0E6FD42A24146AA200CF0A5F9A07DAD
:1018700001284FF088002ED00CF0BEFD38460CF049
:10188000D7FD3CA24146F0200CF096F9E07D0128FE
:101890004FF0880023D00CF0AFFD38460CF0C8FDA7
:1018A00035A26DE1FFE70CF0A7FD30468DE70CF0A7
:1018B000A3FD304698E70CF09FFD3046A3E70CF0FF
:1018C0009BFD3046AEE70CF097FD3046B9E70CF0D3
:1018D00093FD3046C4E70CF08FFD3046CFE70CF0A7
:1018E0008BFD3046DAE7207E01284FF088007DD05E
:1018F0000CF082FD38460CF09BFD20A20A216420EA
:101900000CF05AF9607E01284FF088006FD037E064
:10191000F4000020935517001803002030303100E8
:101920003030320030303300303034003030350069
:101930003030360030303700303038003030390049
:10194000303130003031310030313200303133004D
:10195000303134003031350030313600303137002D
:10196000303138003031390030323000303231001F
:101970003032320030323300303234003032350011
:101980000CF03AFD38460CF053FD99A20A21AA202A
:101990000CF012F9A07E01284FF088005CD00CF00A
:1019A0002BFD38460CF044FD92A20A21F0200CF0E9
:1019B00003F9E07E01284FF0880051D00CF01CFDA7
:1019C00038460CF035FD8CA20A2128460CF0F4F8BC
:1019D000207F01284FF0880046D00CF00DFD3846DE
:1019E0000CF026FD85A24146642001E02CE02FE0AA
:1019F0000CF0E2F8607F01284FF0880038D00CF03E
:101A0000FBFC38460CF014FD7DA24146AA200CF0E8
:101A1000D3F8A07F01284FF088002DD00CF0ECFC0B
:101A200038460CF005FD77A24146F0200CF0C4F8D2
:101A3000E07F01284FF0880022D00CF0DDFC384612
:101A40000CF0F6FC70A29BE00CF0D6FC304652E79E
:101A50000CF0D2FC304696E70CF0CEFC3046A1E705
:101A60000CF0CAFC3046ACE70CF0C6FC3046B7E7D9
:101A70000CF0C2FC3046C5E70CF0BEFC3046D0E7A7
:101A80000CF0BAFC3046DBE794F8200001284FF058
:101A900088007DD00CF0B0FC38460CF0C9FC5BA28D
:101AA0000A2164200CF088F894F8210001284FF0F6
:101AB00088007DD00CF0A0FC38460CF0B9FC54A294
:101AC0000A21AA200CF078F894F8220001284FF09F
:101AD000880072D00CF090FC38460CF0A9FC4DA2A6
:101AE0000A21F0200CF068F894F8230001284FF048
:101AF000880066D00CF080FC38460CF099FC46A2B9
:101B00000A2128460CF058F894F8240001284FF0D8
:101B100088005AD00CF070FC38460CF089FC3FA2CB
:101B2000414664200CF048F894F8250001284FF055
:101B300088004ED00CF060FC38460CF079FC38A2DE
:101B40004146AA200CF038F894F8260001284FF0FE
:101B5000880042D00CF050FC38460CF069FC31A2F1
:101B60004146F0200CF028F894F8270001284FF0A7
:101B7000880036D00CF040FC38460CF059FC2AA204
:101B8000414628460CF018F828490120C87001E0A9
:101B90000AE00DE094F8300038B325A004F090FB83
:101BA000BDE8F04110F00EBC0CF026FC304674E7A6
:101BB0000CF022FC304680E7FFE70CF01DFC3046BD
:101BC0008BE70CF019FC304697E70CF015FC30461B
:101BD000A3E70CF011FC3046AFE70CF00DFC3046EB
:101BE000BBE70CF009FC3046C7E714A0D6E70000BD
:101BF000303236003032370030323800303239007F
:101C00003033300030333100303332003033330082
:101C10003033340030333500303336003033370062
:101C20003033380030333900303430002C0100209C
:101C30004368616E6E656C2073657400CDA8B5C095
:101C4000C9E8D6C3000000002DE9F05FF648DFF8D0
:101C5000DCA3F74C00784FF482754FF496764FF47E
:101C6000AA784FF4BE794FF4704B10B101286ED0B2
:101C700032E32078012801D028B10FE088200CF051
:101C8000BBFB504603E088200CF0B6FB58460CF036
:101C9000CFFBE8A20A21642001F07EFA60780128D7
:101CA00001D028B10FE088200CF0A6FB504603E0DD
:101CB00088200CF0A1FB58460CF0BAFBDEA20A21EA
:101CC0008C2001F069FAA078012801D028B10FE03A
:101CD00088200CF091FB504603E088200CF08CFB30
:101CE00058460CF0A5FBD5A20A21B42001F054FA05
:101CF000E078012801D028B10FE088200CF07CFBAF
:101D0000504603E088200CF077FB58460CF090FB1F
:101D1000CBA20A21DC2001F03FFA2079012801D072
:101D200028B10FE088200CF067FB504603E08820C4
:101D30000CF062FB58460CF07BFBC2A20A2128463D
:101D400001F02AFA6079012802D030B110E0BCE13C
:101D500088200CF051FB504603E088200CF04CFB2F
:101D600058460CF065FBB8A20A21304601F014FA7F
:101D7000A079012801D028B10FE088200CF03CFBAD
:101D8000504603E088200CF037FB58460CF050FB1F
:101D9000AEA20A21404601F0FFF9E079012801D006
:101DA00028B10FE088200CF027FB504603E0882084
:101DB0000CF022FB58460CF03BFBA5A20A2148463A
:101DC00001F0EAF9207A012801D028B10FE088203B
:101DD0000CF012FB504603E088200CF00DFB584637
:101DE0000CF026FB9BA2D221642001F0D5F9607A89
:101DF000012801D028B10FE088200CF0FDFA5046F0
:101E000003E088200CF0F8FA58460CF011FB92A27F
:101E1000D2218C2001F0C0F9A07A012801D028B18C
:101E20000FE088200CF0E8FA504603E088200CF020
:101E3000E3FA58460CF0FCFA88A2D221B42001F053
:101E4000ABF9E07A012801D028B10FE088200CF02E
:101E5000D3FA504603E088200CF0CEFA58460CF036
:101E6000E7FA7FA2D221DC2001F096F9207B01283D
:101E700001D028B10FE088200CF0BEFA504603E0F4
:101E800088200CF0B9FA58460CF0D2FA75A2D2218B
:101E9000284601F081F9607B012801D028B10FE0CC
:101EA00088200CF0A9FA504603E088200CF0A4FA30
:101EB00058460CF0BDFA6CA2D221304601F06CF904
:101EC000A07B012801D028B10FE088200CF094FA03
:101ED000504603E088200CF08FFA58460CF0A8FA20
:101EE00062A2D221404601F057F9E07B012801D0DF
:101EF00028B10FE088200CF07FFA504603E08820DC
:101F00000CF07AFA58460CF093FA59A2D2214846BE
:101F100001F042F9207C4FF4CD77012801D028B19F
:101F20000FE088200CF068FA504603E088200CF09F
:101F300063FA58460CF07CFA4EA23946642001F050
:101F40002BF9607C012801D028B10FE088200CF02B
:101F500053FA504603E088200CF04EFA58460CF035
:101F600067FA45A239468C2001F016F9A07C0128B9
:101F700001D028B10FE088200CF03EFA504603E073
:101F800088200CF039FA58460CF052FA3BA2394638
:101F9000B42001F001F9E07C012801D028B10FE064
:101FA00088200CF029FA504603E088200CF024FA2F
:101FB00058460CF03DFA32A23946DC2001F0ECF82C
:101FC000207D012801D028B10FE088200CF014FA00
:101FD000504603E088200CF00FFA58460CF028FA1F
:101FE00028A23946284601F0D7F8607D012801D0A3
:101FF00028B10FE088200CF0FFF9504603E088205C
:102000000CF0FAF958460CF013FA1FA23946304684
:1020100001F0C2F8A07D012801D0B8B342E08820C9
:102020000CF0EAF9504636E0F40000209355170012
:1020300018030020303031003030320030303300AF
:10204000303034003030350030303600303037003A
:10205000303038003030390030313000303131002C
:10206000303132003031330030313400303135001E
:1020700030313600303137003031380030313900FE
:10208000303230003032310030323200FFE7882009
:102090000CF0B2F958460CF0CBF9B9A239464046DB
:1020A00001F07AF8E07D012801D028B114E1882000
:1020B0000CF0A2F9504603E088200CF09DF9584638
:1020C0000CF0B6F9AFA2394603E1207E01284FF0AB
:1020D00088007CD00CF090F958460CF0A9F9AAA21F
:1020E0000A21642001F058F8607E01284FF0880032
:1020F0006ED00CF081F958460CF09AF9A3A20A218F
:102100008C2001F049F8A07E01284FF088007DD096
:102110000CF072F958460CF08BF99DA20A21B420FC
:1021200001F03AF8E07E01284FF088006FD00CF003
:1021300063F958460CF07CF996A20A21DC2001F0E4
:102140002BF8207F01284FF088007DD00CF054F947
:1021500058460CF06DF990A20A21284601F01CF8AF
:10216000607F01284FF088006FD00CF045F9584689
:102170000CF05EF989A20A21304601F00DF8A07F2B
:1021800001284FF088007DD00CF036F958460CF04D
:102190004FF983A20A21404600F0FEFFE07F0128AC
:1021A0004FF088006FD00CF027F958460CF040F93A
:1021B0007CA20A21484600F0EFFF94F82000012895
:1021C0004FF088007ED00CF017F9584601E090E0FF
:1021D00094E00CF02DF974A2D221642000F0DCFF11
:1021E00094F8210001284FF088006CD00CF004F91D
:1021F00058460CF01DF96DA2D2218C2000F0CCFFC6
:1022000094F8220001284FF0880001E07AE07DE098
:1022100073D00CF0F1F858460CF00AF964A2D22100
:10222000B42000F0B9FF94F8230001284FF0880093
:1022300070D00CF0E1F858460CF0FAF85DA2D2210B
:10224000DC2000F0A9FF01E065E068E094F82400DC
:1022500001284FF088006ED00CF0CEF858460CF0F4
:10226000E7F855A2D221284600F096FF94F8250001
:1022700001284FF0880075D00CF0BEF858460CF0DD
:10228000D7F801E04FE052E04CA2D221304600F0F6
:1022900083FF94F8260001284FF0880066D00CF0E8
:1022A000ABF858460CF0C4F845A2D221404600F0E5
:1022B00073FF94F8270001284FF088005AD00CF0E3
:1022C0009BF801E039E03CE058460CF0B1F83DA243
:1022D000D221484600F060FF3B490120C87094F8C5
:1022E000300048B339A003F0EBFFBDE8F05F10F019
:1022F00069B80CF081F85046EFE626E00CF07CF867
:102300005046F9E60CF078F8504604E70CF074F803
:1023100050460FE71DE00CF06FF8504619E70CF03F
:102320006BF8504624E70CF067F850462FE70CF0A6
:1023300063F850463AE711E020E00CF05DF85046B3
:1023400044E70CF059F8504653E70CF055F8504666
:1023500062E70CF051F850466EE703E00CF04CF8E1
:1023600050467CE70CF048F8504688E70CF044F8FB
:10237000504697E70CF040F85046A6E716A0B2E7A3
:1023800030323300303234003032350030323600F3
:1023900030323700303238003032390030333000DC
:1023A00030333100303332003033330030333400D7
:1023B00030333500303336003033370030333800B7
:1023C00030333900303430002C0100204368616E16
:1023D0006E656C2073657400CDA8B5C0C9E8D6C31E
:1023E000000000002DE9F05FFB4CDFF8F0A34FF494
:1023F000704B2078012801D028B10FE088200BF025
:10240000FBFF504603E088200BF0F6FF58460CF027
:102410000FF8F3A20A21642000F0F4FE607801288E
:1024200001D028B10FE088200BF0E6FF504603E012
:1024300088200BF0E1FF58460BF0FAFFE9A20A21D1
:102440008C2000F0DFFEA078012801D028B10FE039
:1024500088200BF0D1FF504603E088200BF0CCFF22
:1024600058460BF0E5FFE0A20A21B42000F0CAFEB6
:10247000E078012801D028B10FE088200BF0BCFFE4
:10248000504603E088200BF0B7FF58460BF0D0FF12
:10249000D6A20A21DC2000F0B5FE20794FF4827527
:1024A000012801D028B10FE088200BF0A5FF50468D
:1024B00003E088200BF0A0FF58460BF0B9FFCCA238
:1024C0000A21284600F09EFE60794FF49676012896
:1024D00001D028B10FE088200BF08EFF504603E0BA
:1024E00088200BF089FF58460BF0A2FFC1A20A21F9
:1024F000304600F087FEA0794FF4AA78012801D079
:1025000028B10FE088200BF077FF504603E08820C9
:102510000BF072FF58460BF08BFFB7A20A21404622
:1025200000F070FEE0794FF4BE79012801D028B1A7
:102530000FE088200BF060FF504603E088200BF08E
:102540005BFF58460BF074FFACA20A21484600F02E
:1025500059FE207A012801D028B10FE088200BF025
:102560004BFF504603E088200BF046FF58460BF027
:102570005FFFA3A28621642000F044FE607A012858
:1025800001D028B10FE088200BF036FF504603E061
:1025900088200BF031FF58460BF04AFF99A28621A4
:1025A0008C2000F02FFEA07A012801D028B10FE086
:1025B00088200BF021FF504603E088200BF01CFF21
:1025C00058460BF035FF90A28621B42000F01AFE89
:1025D000E07A012801D028B10FE088200BF00CFF31
:1025E000504603E088200BF007FF58460BF020FF11
:1025F00086A28621DC2000F005FE207B012801D088
:1026000028B10FE088200BF0F7FE504603E0882049
:102610000BF0F2FE58460BF00BFF7DA286212846F8
:1026200000F0F0FD607B012801D028B10FE0882088
:102630000BF0E2FE504603E088200BF0DDFE58462A
:102640000BF0F6FE73A28621304600F0DBFDA07B86
:10265000012801D028B10FE088200BF0CDFE5046B4
:1026600003E088200BF0C8FE58460BF0E1FE6AA29A
:102670008621404600F0C6FDE07B012801D028B14C
:102680000FE088200BF0B8FE504603E088200BF0E6
:10269000B3FE58460BF0CCFE60A28621484600F0FF
:1026A000B1FD207C4FF48177012801D028B10FE0E3
:1026B00088200BF0A1FE504603E088200BF09CFE22
:1026C00058460BF0B5FE56A23946642000F09AFD3C
:1026D000607C012801D028B10FE088200BF08CFE2F
:1026E000504603E088200BF087FE58460BF0A0FE12
:1026F0004CA239468C2000F085FDA07C012801D039
:1027000028B10FE088200BF077FE504603E08820C8
:102710000BF072FE58460BF08BFE43A23946B420F4
:1027200000F070FDE07C012801D028B10FE0882086
:102730000BF062FE504603E088200BF05DFE584629
:102740000BF076FE39A23946DC2000F05BFD207DDF
:10275000012801D028B10FE088200BF04DFE504633
:1027600003E088200BF048FE58460BF061FE30A2D3
:102770003946284600F046FD607D012801D028B189
:102780000FE088200BF038FE504603E088200BF065
:1027900033FE58460BF04CFE26A23946304600F078
:1027A00031FDA07D012801D028B10FE088200BF079
:1027B00023FE504603E088200BF01EFE58460BF027
:1027C00037FE1DA23946404600F01CFDE07D012881
:1027D00034D000B142E036E01803002093551700D2
:1027E000303031003030320030303300303034009F
:1027F000303035003030360030303700303038007F
:102800003030390030313000303131003031320079
:102810003031330030313400303135003031360062
:10282000303137003031380030313900303230004B
:1028300030323100303232003032330088200BF039
:10284000DBFD504603E088200BF0D6FD58460BF028
:10285000EFFDB8A23946484600F0D4FC207E4FF484
:10286000BF77012801D028B10FE088200BF0C4FD0C
:10287000504603E088200BF0BFFD58460BF0D8FD12
:10288000ADA23946642000F0BDFC607E012801D075
:1028900028B10FE088200BF0AFFD504603E0882000
:1028A0000BF0AAFD58460BF0C3FDA4A239468C20BC
:1028B00000F0A8FCA07E012801D028B10FE08820FC
:1028C0000BF09AFD504603E088200BF095FD58462A
:1028D0000BF0AEFD9AA23946B42000F093FCE07EE6
:1028E000012801D028B10FE088200BF085FD50466B
:1028F00003E088200BF080FD58460BF099FD91A273
:102900003946DC2000F07EFC207F012801D028B170
:102910000FE088200BF070FD504603E088200BF09C
:102920006BFD58460BF084FD87A23946284600F01F
:1029300069FC607F012801D028B10FE088200BF0EE
:102940005BFD504603E088200BF056FD58460BF027
:102950006FFD7EA23946304600F054FCA07F01286E
:1029600001D028B10FE088200BF046FD504603E06F
:1029700088200BF041FD58460BF05AFD74A23946F1
:10298000404600F03FFCE07F012801D028B10FE075
:1029900088200BF031FD504603E088200BF02CFD21
:1029A00058460BF045FD6BA23946484600F02AFC1C
:1029B00094F820004FF4FD77012801D028B10FE0F2
:1029C00088200BF019FD504603E088200BF014FD21
:1029D00058460BF02DFD60A23946642000F012FC31
:1029E00094F82100012801D028B10FE088200BF0D5
:1029F00003FD504603E088200BF0FEFC58460BF028
:102A000017FD56A239468C2000F0FCFB94F82200FA
:102A1000012801D028B10FE088200BF0EDFC5046D2
:102A200003E088200BF0E8FC58460BF001FD4CA2B7
:102A30003946B42000F0E6FB94F82300012801D0C9
:102A400028B10FE088200BF0D7FC504603E0882027
:102A50000BF0D2FC58460BF0EBFC42A23946DC20CE
:102A600000F0D0FB94F82400012801D028B10FE039
:102A700088200BF0C1FC504603E088200BF0BCFC22
:102A800058460BF0D5FC38A23946284600F0BAFB70
:102A900094F82500012801D028B10FE088200BF020
:102AA000ABFC504603E088200BF0A6FC58460BF028
:102AB000BFFC2EA23946304600F0A4FB94F8260055
:102AC000012801D028B10FE088200BF095FC50467A
:102AD00003E088200BF090FC58460BF0A9FC24A2E0
:102AE0003946404600F08EFB94F82700012801D0BB
:102AF00028B10FE088200BF07FFC504603E08820CF
:102B00000BF07AFC58460BF093FC1AA23946484663
:102B100000F078FB18490120C87094F8300030B1FB
:102B200016A003F0CDFBBDE8F05F0FF04BBC16A084
:102B3000F7E70000303234003032350030323600F2
:102B40003032370030323800303239003033300024
:102B5000303331003033320030333300303334001F
:102B600030333500303336003033370030333800FF
:102B700030333900303430002C0100204368616E5E
:102B80006E656C2073657400CDA8B5C0C9E8D6C366
:102B900000000000164901EB800111ED010A154902
:102BA00001EB800151ED010A134901EB800130EE88
:102BB000600A51ED010AB4EEE00AF1EE10FA09D311
:102BC0000E4901EB800050ED010AB4EEE00AF1EE8F
:102BD00010FA04DD0A4890F82C00012804D088215E
:102BE0006FF07F400BF00EBC88214FF47F00F9E7B7
:102BF0005C090020340801202C0C00208C0B0020E4
:102C00001803002010B50B460C0601F07F0202EB02
:102C1000820100EBC10102D501F58E7101E001F5E1
:102C20005D710A70DA094A7017F04FF9002010BD83
:102C30000A4610B5090602F07F0306D503EB8301AF
:102C400000EBC10101F58E7105E002EB820100EBA2
:102C5000C10101F55D7100248C700B70D2094A70BE
:102C600017F01AF9002010BD10B50A0604D501F0BE
:102C70007F0117F04DFA01E017F02CFA002010BD8B
:102C800070B50D460E0601F07F0404EB840100EBE5
:102C9000C10102D501F58E7101E001F55D71ED090B
:102CA0000C704D708A60CB7000D0CC80022B01D1AB
:102CB00000220A7117F0BCF8002070BD10B501F0B9
:102CC0007F0404EB840100EBC101C1F88833C1F833
:102CD00080230023C1F88C3381F8753381F8744365
:102CE000C37801F55D71012B00D10A6114F0FF0F6B
:102CF00003D017F029F9002010BD17F02AF8FAE7E1
:102D00000069002261F30A120168114301607047F3
:102D10000A4610B5090602F07F0306D503EB8301CE
:102D200000EBC10101F58E7105E002EB820100EBC1
:102D3000C10101F55D7101248C700B70D2094A70DC
:102D400017F0EAF8002010BD70B511F07F0404EB15
:102D5000840100EBC1014FF0010581F81D5181F89C
:102D60001C41C1F82821C1F82C2101F58E714FF0CA
:102D70000002C1E9053203D017F0E6F8002070BD6B
:102D800016F0E7FFFAE700002DE9F04106460024BF
:102D900017F007FA074655E0F80751D03069E1B25D
:102DA0000369426BCA4006EB810102F001028969A6
:102DB00043EAC2128D681540E9071AD00125426B1B
:102DC00005FA04F18A43426306EB8400806985605A
:102DD0001F48E1B20068426830469047F078012809
:102DE00007D134B996F81101042802D1304617F002
:102DF0000DF8280704D506EB840008258069856056
:102E0000E80604D506EB8400102580698560680615
:102E100004D506EB8400402580698560A80704D5A9
:102E200006EB8400022580698560280608D52146C6
:102E3000304600F06CF906EB8401802089698860D7
:102E40007F08641C002FA7D10120BDE8F08100009D
:102E50008C0100202DE9F0410546002417F0A7F968
:102E60000746DFF8988043E0F8073FD0E1B22846F4
:102E700017F0A3F90646C00725D005EB840001260C
:102E8000416D8E60E97801290CD1406D016904EB38
:102E9000840005EBC000C1F31201D0F87C23511A65
:102EA000C0F88C13D8F80000E1B2026828469047B9
:102EB000E878012807D134B995F81101052802D125
:102EC000284616F0A3FFB00704D505EB84000226C0
:102ED000406D8660300709D5D8F800008168284623
:102EE000884705EB84010820496D88607F08641CD1
:102EF000002FB9D10120BDE8F08100008C01002035
:102F000070B50546C068816921F010018161E868EB
:102F1000066A06F00F0000EB800005EBC004C6F364
:102F2000434004F55D74072821D2DFE800F020203B
:102F300004202020150047F6F070064217D0C6F393
:102F40000A1632462846E16817F03FF9E068304437
:102F5000E060A069304409E0082205F2CC5128461F
:102F600017F033F9A069C6F30A110844A061E868B4
:102F7000816941F010018161012070BD38B50446BE
:102F800000208DF8000094F812018DF8000015481B
:102F9000006841692046884720698068E2684FF4EC
:102FA00000615161A17AD1B1C00718D094F8150120
:102FB000012814D19DF80000032810D1D4F80C0189
:102FC000016841F001010160D4F80C01016841F091
:102FD000030101600448016841F00601016001201D
:102FE00038BD00008C01002010ED00E070B50446F3
:102FF000006900250126416821F001014160294650
:10300000204617F085F80020FF2206E004EB80013F
:103010008B699A60496D8A60401C61788142F5D85D
:1030200021694FF0FF3088612846216966F30F005F
:1030300066F31F40C861216945F00B0048612169B2
:10304000C1F88400216945F00B00086121694864DA
:103050002069016821F4FE610160204616F0D6FE69
:10306000E1684FF4805048610348006801692046D8
:103070008847012070BD00008C01002070B5044617
:1030800017F0B4F80120002384F8120184F81431F9
:103090001A46402510E002EB820104EBC10181F8E1
:1030A0001D0181F81C21A1F8222181F81F31C1E9FD
:1030B0004953521CC1F8303161789142EBD800205D
:1030C00010E000EB800104EBC10181F8753381F859
:1030D0007403A1F87A0381F87733C1E9DF53401C08
:1030E000C1F8883361788142EBD8204616F00CFE97
:1030F000204616F0EFFC0021204617F0D7F82046B6
:1031000016F028FD2046BDE8704016F0DBBF2DE923
:10311000F0470E4601EB860100EBC1048046D4E97E
:103120004C01401AD4F8241104F58E74814200D267
:103130000846C01C870808EB86091EE0451AA068EF
:10314000A84200D20546E81C8708ABB2F2B240465E
:10315000E16817F0C0F8E0682844E060A0692844FE
:10316000A0616169884208D3207801218140D8F8A4
:103170001000426B8A4342630BE0D9F81800806963
:1031800080B2B84205D9D4E90501814201D20028B4
:10319000D4D10120BDE8F0872DE9F04115460C4659
:1031A0008046154E4FF4207719E0802A0BD2134841
:1031B000B061214640460AF08FFCB0696D1C8088E2
:1031C000204484B20BE00E48B0612A4621464046B6
:1031D0000AF098FCB069AD1C8088204484B2BC42DF
:1031E00008D22A78002A05D0B0698088011989B2EE
:1031F0008142DAD2BDE8F081600000209C0000200E
:10320000CC0000202DE9F04115460C468046154EB5
:103210004FF4207719E0802A0BD21348B061214681
:1032200040460AF059FCB0696D1C8088204484B285
:103230000BE00E48B0612A462146404600F018F8DF
:10324000B069AD1C8088204484B2BC4208D22A7880
:10325000002A05D0B0698088011989B28142DAD28A
:10326000BDE8F081600000208C000020DC00002020
:103270002DE9F04116460F46804600240D4D0FE023
:1032800032788A420AD105EB400271785078814247
:1032900004D139464046921C0AF000FD641CA4B2D9
:1032A000C4EBC40000EB400015F810108029E7D8EB
:1032B000BDE8F081196A02082DE9F04115460C4677
:1032C0008046154E4FF4207719E0802A0BD2134820
:1032D000B061214640460AF0FFFBB0696D1C808852
:1032E000204484B20BE00E48B0612A462146404695
:1032F00000F018F8B069AD1C8088204484B2BC424C
:1033000008D22A78002A05D0B0698088011989B2CC
:103310008142DAD2BDE8F08160000020B4000020D4
:10332000D40000202DE9F04116460F4680460024C7
:103330000C4D0EE032788A4209D1421971785078EA
:10334000814204D139464046921C0AF0A7FC641C15
:10335000A4B204EB8400C0EB8410295C8029E9D876
:10336000BDE8F081965502082DE9F04115460C465E
:103370008046154E4FF4207719E0802A0BD213486F
:10338000B061214640460AF0A7FBB0696D1C8088F9
:10339000204484B20BE00E48B0612A4621464046E4
:1033A000FFF7C0FFB069AD1C8088204484B2BC42E6
:1033B00008D22A78002A05D0B0698088011989B21C
:1033C0008142DAD2BDE8F08160000020BC0000201C
:1033D000D40000202DE9F041204E15460C468046D1
:1033E0006BB3012B38D1882108460BF00BF828234A
:1033F0009022414620460AF029FDBDE8F04188218F
:103400006FF07F400AF0FEBF802A0BD21448B061F3
:10341000214640460AF060FBB0696D1C808820445C
:1034200084B20EE00F48B0612A46214640460AF0B9
:1034300069FBB069AD1C8088204484B201E04FF480
:103440002077BC4208D22A78002A05D0B06980884B
:10345000011989B28142D7D2BDE8F0816000002015
:10346000A4000020CC0000202DE9F041204E15469C
:103470000C4680466BB3012B38D1882108460AF0F0
:10348000C1FF1C236022414620460AF0DFFCBDE854
:10349000F04188216FF07F400AF0B4BF802A0BD240
:1034A0001448B061214640460AF016FBB0696D1C15
:1034B0008088204484B20EE00F48B0612A4621463D
:1034C00040460AF01FFBB069AD1C8088204484B2DE
:1034D00001E04FF42077BC4208D22A78002A05D0B8
:1034E000B0698088011989B28142D7D2BDE8F081E4
:1034F00060000020AC000020CC0000202DE9F0414D
:10350000204E15460C4680466BB3012B38D18821DE
:1035100008460AF077FF14233222414620460AF07B
:1035200095FCBDE8F04188216FF07F400AF06ABF4A
:10353000802A0BD21448B061214640460AF0CCFAEA
:10354000B0696D1C8088204484B20EE00F48B061E1
:103550002A46214640460AF0D5FAB069AD1C80885B
:10356000204484B201E04FF42077BC4208D22A788C
:10357000002A05D0B0698088011989B28142D7D26A
:10358000BDE8F0816000002094000020CC00002005
:1035900010B50121CC0520460CF0D8FA2046BDE834
:1035A000104000210CF0D2BA034A014600205268B4
:1035B0000A4200D00120704700B0024030B52A4BCB
:1035C00000241968294A11401960196802681143DA
:1035D0001960596B21F007015963596B4268114317
:1035E0005963416841B301292DD0022930D0032904
:1035F000C16832D00A01016944690902240385685F
:10360000214315430D43996B0D439D638169D96334
:10361000196C6FF30D011964196CC26911431964B7
:10362000818C5A6C02F040425A645A6C006A024320
:1036300042EA01425A6430BDC168047D0A02018A2F
:1036400009042406DBE7C1680A02018A0904D6E7F7
:10365000C1684A010169C902D1E74A0101694469A7
:103660008902E403CBE7000000B00240FCE0FCFF6D
:103670000248016841F001010160704700B002405A
:103680000029016802D041F0010101E021F00101AF
:103690000160704730B50368124ACC6813400A686D
:1036A0002243D1E905452C432243CC6922430C6ACD
:1036B00022434C6A22438C6A22434C6B22438C6B1C
:1036C00022431A430260426922F00703D1E90B2426
:1036D00022431A4342610A6942604A6882608968EB
:1036E000C16030BD3F801CF00548807A052803D0BA
:1036F000062801D0082802D102A017F0C3BF7047E6
:10370000E80000202E0000002DE9F04FF74CF84DA6
:103710002146A07A91F80BC09FB0092860D2DFE85B
:1037200010F0090042125F005F00360B200D7F137E
:103730005F00A910ED484FF4CD764FF48177017BFF
:10374000EB484FF4BF794FF4FD7A90F82D2090F8B4
:1037500027301E93C37F1D93C37D1C93C37B1B9394
:1037600090F826301A93837F1993837D1893837B77
:10377000179390F825301693437F1593437D149348
:10378000437B139390F824301293037F1193037DAE
:103790001093037B0F9390F823300E93C37E0D9309
:1037A000C37C0C93C37A0B9390F822300A93837EE8
:1037B0000993837C0893837A079390F821300693CA
:1037C000437E0593437C0493437A039390F820E06F
:1037D00090F818B0037C007ABCF1290F9ED200E06B
:1037E000C0E0DFE81CF02900C20045011F02A10271
:1037F0003003030493041C05C105140651068E060C
:10380000CD060F0751079307D60700082E08580862
:103810008408B208E0080E093C0954096C098409BF
:103820009D09B709D109EB09030A1C0A350A4E0A9A
:10383000680A830A9E0AB90AAE480AF0F9FD882090
:103840000AF0DAFD95F82900022810D0012810D0DE
:10385000032810D0042810D0052810D0062810D036
:10386000072810D0082810D0092810D014E0A2A2F0
:103870000EE0A3A20CE0A4A20AE0A5A208E0A6A282
:1038800006E0A7A204E0A8A202E0A9A200E0AAA282
:1038900064212F200AF05AF995F82D0038B101283B
:1038A00038D002285ED1207B00284AD051E0207B0E
:1038B00040B101280BD002280ED0032811D00428D3
:1038C00014D01CE0287817F073FE9DA213E0287A2C
:1038D00017F06EFE9BA20EE0287C17F069FE9AA2FC
:1038E00009E0287E17F064FE98A204E095F8200015
:1038F00017F05EFE96A20A2164200AF05DF995F8A1
:10390000300028B193A002F0DBFC012001F03DBAA9
:1039100093A0F8E7207B10B1012805D019E02878A2
:1039200017F046FE86A203E0287E17F041FE87A22C
:103930000A216420FFF730FC0BE089A010E085A08D
:103940000EE0287817F034FE7DA20A216420FFF7EC
:1039500059FC0120E07295F830000028EFD1ECE727
:1039600002F0AEFC1FB0BDE8F08F614F02263F7839
:1039700032B1012A4FD0022AF4D100296AD06CE278
:1039800041B101290BD002290DD0032910D00429FF
:1039900013D0F4E7384617F0D3FD69A211E017F011
:1039A000CFFD68A20DE0184617F0CAFD66A208E038
:1039B000584617F0C5FD65A203E0704617F0C0FD3C
:1039C00063A20A2164200AF0F7F8207B40B10128A5
:1039D0000BD002280ED0032811D0042814D0CEE733
:1039E000687817F0E5FD61A213E0687A17F0E0FD52
:1039F0005FA20EE0687C17F0DBFD5EA209E0687E46
:103A000017F0D6FD5CA204E095F8210017F0D0FD78
:103A10005AA20A2178E211B101290DD0AFE7384648
:103A200017F08EFD46A20A216420FFF7B5FB6878E7
:103A300017F0BEFD4DA20BE0584617F081FD43A2E2
:103A40000A216420FFF7A8FB687E17F0B1FD4AA2A7
:103A50000A21F7E3384617F073FD39A20A216420E2
:103A6000FFF7D0FB687817F0A3FD40A20A21EAE334
:103A70001F480326407832B1012A36D0022A7FF44B
:103A800071AF81B37BE741B101290AD002290DD082
:103A9000032910D0042913D071E717F051FD33A288
:103AA00012E0039817F04CFD31A20DE0049817F0D6
:103AB00047FD30A208E0059817F042FD2EA203E072
:103AC000069817F03DFD2DA20A21AA200AF074F8ED
:103AD000207B48B1012858D002285BD003285ED053
:103AE000042861D04BE78CE04AE067E0E800002062
:103AF0001803002000FFFF0054432D4B000000007E
:103B000054432D540000000054432D4A000000008F
:103B100054432D4E0000000054432D45000000008A
:103B200054432D530000000054432D520000000068
:103B300054432D420000000050543130300000004A
:103B4000303031003030390030313700303235001C
:103B5000303333004368616E6E656C2073657400AA
:103B6000CDA8B5C0C9E8D6C300000000303032008F
:103B700030313000303138003032360030333400EC
:103B8000A87817F015FDF8A213E0A87A17F010FD39
:103B9000F6A20EE0A87C17F00BFDF5A209E0A87EC6
:103BA00017F006FDF3A204E095F8220017F000FDDF
:103BB000F1A20A2177E209F0FFFFE0E611B1012945
:103BC0000DD0DCE617F0BCFCAFF260020A218C20BD
:103BD000FFF7E2FAA87817F0EBFCE3A20CE00598F7
:103BE00017F0AEFCAFF270020A218C20FFF7D4FA76
:103BF000A87E17F0DDFCDFA20A21F0E3FFF7CCFA84
:103C0000BDE617F09DFCAFF29C020A218C20FFF765
:103C1000F9FAA87817F0CCFCD3A20A21F6E3FFF753
:103C2000F1FAACE6D5480426807832B1012A50D0AA
:103C3000022A7FF497AE81B3A1E641B101290AD0EF
:103C400002290DD0032910D0042913D097E617F0CC
:103C500077FCC5A212E0079817F072FCC3A20DE032
:103C6000089817F06DFCC2A208E0099817F068FCEC
:103C7000C0A203E00A9817F063FCBFA20A21F0205B
:103C800009F09AFF207B48B101280CD002280FD000
:103C9000032812D0042815D071E638E0E87817F030
:103CA00087FCB7A213E0E87A17F082FCB5A20EE019
:103CB000E87C17F07DFCB4A209E0E87E17F078FC00
:103CC000B2A204E095F8230017F072FCB0A20A211A
:103CD00074E211B101290CD051E617F031FCA2A217
:103CE0000A21B420FFF758FAE87817F061FCA4A283
:103CF0000BE0099817F024FC9EA20A21B420FFF7DC
:103D00004BFAE87E17F054FCA0A20A21E6E317F074
:103D100017FC95A20A21B420FFF774FAE87817F08F
:103D200047FC97A20A21EAE39448C07832B1012AFD
:103D300055D0022A7FF416AEF1B371E041B10129EA
:103D40000AD002290DD0032910D0042913D01BE07A
:103D500017F0F6FB8AA212E00B9817F0F1FB89A28C
:103D60000DE00C9817F0ECFB87A208E00D9817F017
:103D7000E7FB86A203E00E9817F0E2FB84A20A217B
:103D80004FF49B7009F018FF00200AF051FB8148A6
:103D90000AF032FB95F82900022872D0012871D070
:103DA000032870D004286FD005286ED006286DD067
:103DB00007286CD0082800E034E069D0092868D0D2
:103DC00003E064212F2009F0C1FE95F8300008B10E
:103DD00071A000E077A002F073FA002096E511B11F
:103DE00001290CD01CE017F0ABFB65A20A21DC20F6
:103DF000FFF7D2F9287917F0DBFB72A20BE00D98E0
:103E000017F09EFB61A20A21DC20FFF7C5F9287F8D
:103E100017F0CEFB6CA20A214FF48270FFF7BCF9B9
:103E2000052073E517F08CFB55A20A21DC20FFF773
:103E3000E9F9287917F0BCFB62A20A214FF48270DD
:103E4000FFF7E0F9ECE74D480626007932B1012A88
:103E50005CD0022A7FF486ADD1B38BE241B1012957
:103E60000AD0022916D0032919D004291CD081E2D6
:103E700017F066FB53A21BE00F9817F061FB53A2EB
:103E800016E056E258E25AE25CE25EE260E262E28A
:103E900064E266E2109817F053FB4DA208E0119817
:103EA00017F04EFB48A203E0129817F049FB49A215
:103EB0004FF4A571642009F07FFE207B48B10128F2
:103EC0000CD002280FD0032812D0042815D051E2BC
:103ED0003CE0687917F06CFB3FA213E0687B17F0B9
:103EE00067FB3EA20EE0687D17F062FB3CA209E092
:103EF000687F17F05DFB3BA204E095F8250017F002
:103F000057FB39A24FF4A571AA2054E611B101293B
:103F10000DD02FE217F014FB2AA20A214FF4827071
:103F2000FFF73AF9687917F043FB2BA20CE01198E0
:103F300017F006FB24A20A214FF48270FFF72CF938
:103F4000687F17F035FB27A20A2145E317F0F8FA3E
:103F50001CA20A214FF48270FFF754F9687917F018
:103F600027FB1DA20A214AE33030330030313100F3
:103F7000303139003032370030333500180300203B
:103F800030303400303132003032300030323800DE
:103F90003033360000FFFF00546865726D6F636F49
:103FA00075706C65206D6F64656C2073656C6563FE
:103FB00074000000C8C8B5E7C5BCD0CDBAC5D1A152
:103FC000D4F1000030303500303239003031330068
:103FD0003032310030333700303036003031340089
:103FE000303232003033300030333800FC4807269E
:103FF000407932B1012A58D0022A7FF4B3ACB1B370
:104000008EE341B101290BD002290FD0032913D02F
:10401000042917D084E317F093FAAFF2440216E0B4
:10402000139817F08DFAAFF24C0210E0149817F0C5
:1040300087FAAFF254020AE0159817F081FAAFF24E
:104040005C0204E0169817F07BFAAFF264024FF4BA
:10405000A571AA2009F0B0FD207B48B101280CD041
:1040600002280FD0032812D0042815D058E33EE0D0
:10407000A87917F09DFADBA213E0A87B17F098FA55
:10408000D9A20EE0A87D17F093FAD8A209E0A87F84
:1040900017F08EFAD6A204E095F8260017F088FAF9
:1040A000D4A24FF4A571F02085E511B101290ED0FD
:1040B00036E317F045FAAFF2E0020A214FF49670AA
:1040C000FFF76AF8A87917F073FAC6A20DE0159801
:1040D00017F036FAAFF2F4020A214FF49670FFF7A8
:1040E0005BF8A87F17F064FAC1A20A21B6E217F0C4
:1040F00027FAAFF21C120A214FF49670FFF782F8EC
:10410000A87917F055FAB7A20A21BAE2B4480826EE
:10411000807932B1012A54D0022A7FF423AC89B3CA
:10412000FEE241B101290AD002290DD0032910D0A5
:10413000042913D0F4E217F003FAAAA212E01798A8
:1041400017F0FEF9A8A20DE0189817F0F9F9A7A248
:1041500008E0199817F0F4F9A5A203E01A9817F0EF
:10416000EFF9A4A24FF4A571F02009F025FD207B02
:1041700048B101280CD002280FD0032812D00428FF
:1041800015D0CDE23DE0E87917F012FA9AA213E0DB
:10419000E87B17F00DFA99A20EE0E87D17F008FA17
:1041A00097A209E0E87F17F003FA96A204E095F8D9
:1041B000270017F0FDF994A24FF4A5714FF49B70FE
:1041C000F9E411B101290DD0AAE217F0B9F985A2DD
:1041D0000A214FF4AA70FEF7DFFFE87917F0E8F93B
:1041E00085A20CE0199817F0ABF981A20A214FF4CF
:1041F000AA70FEF7D1FFE87F17F0DAF981A20A2151
:104200006EE217F09DF977A20A214FF4AA70FEF72B
:10421000F9FFE87917F0CCF977A20A2173E2704828
:10422000C0798AB1012A64D0022A7FF49BAB0029AD
:10423000FBD117F085F970A20A214FF4BE70FEF78A
:10424000E1FFA1E5B9E0C8E041B301292AD0022984
:104250002DD0032930D004297FF46FAD1E9817F0BC
:104260006FF969A24FF4A5714FF49B7009F0A4FC9B
:10427000207B30B301282AD002282ED0032832D048
:104280000428E9D195F8240017F092F9AFF2BC2286
:104290004FF4A571642009F08FFCC1E517F050F9C7
:1042A00055A2DFE71B9817F04BF954A2DAE71C98E8
:1042B00017F046F952A2D5E71D9817F041F951A21F
:1042C000D0E7287917F074F9AFF20832E0E7287BDD
:1042D00017F06EF9AFF20C32DAE7287D17F068F9C3
:1042E000AFF21432D4E7287F17F062F9AFF2283228
:1042F000CEE7A9B1012998D11D9817F021F941A263
:104300000A214FF4BE70FEF747FF287E17F050F9E0
:10431000AFF2C8720A216420FEF73EFFFFF7F5BA3C
:1043200017F00EF934A20A214FF4BE70FEF734FFE5
:104330002AE5AFF63C0244E5AFF63C0241E5AFF6B4
:1043400038023EE5AFF638023BE5AFF6340238E519
:10435000AFF6340235E5AFF6300232E5AFF63002A3
:104360002FE5AFF62C022CE50A26012A03D0022AFB
:10437000C1D121B3D4E111B101290ED0D0E117F0A0
:10438000DFF8AFF64002D2216420FEF705FF687A1D
:1043900017F00EF9AFF628020EE0704617F0D0F8CD
:1043A000AFF65402D2216420FEF7F6FE95F8210004
:1043B00017F0FEF8AFF63C02D2218C201EE417F075
:1043C000BFF8AFF6800286216420FEF71BFF687AF3
:1043D00017F0EEF8AFF6680286218C201FE440E06B
:1043E00018030020303037003031350030323300D0
:1043F000303331003033390030303800303136005E
:104400003032340030333200303430003AE00B26A2
:10441000012A03D0022AABD129B381E111B10129CC
:104420000FD07DE1039817F08BF8AFF6BC02D221D4
:104430008C20FEF7B1FEA87A17F0BAF8AFF2D4429A
:104440000EE0069817F07CF8AFF6D002D2218C204F
:10445000FEF7A2FE95F8220017F0AAF8AFF2E842A4
:10446000D221B420AAE7039817F06AF8AFF6001239
:1044700086218C20FEF7C6FEA87A17F099F8AFF2D5
:1044800014528621B420A9E70C26012A03D0022A5F
:10449000C1D129B344E111B101290FD040E10798FE
:1044A00017F04EF8AFF23C52D221B420FEF774FE62
:1044B000E87A17F07DF8AFF234520EE00A9817F060
:1044C0003FF8AFF24C52D221B420FEF765FE95F8CA
:1044D000220017F06DF8AFF24852D221DC206DE7D0
:1044E000079817F02DF8AFF27C528621B420FEF722
:1044F00089FEE87A17F05CF8AFF278528621DC206A
:104500006CE70D26012A03D0022A84D131B307E1DA
:1045100011B101290FD003E10B9817F011F8AFF298
:104520009C52D221DC20FEF737FE287B17F040F8A2
:10453000AFF268520EE00E9817F002F8AFF2B052E8
:10454000D221DC20FEF728FE95F8240017F030F881
:10455000AFF28052D2214FF482702FE70B9816F001
:10456000EFFFAFF2E0528621DC20FEF74BFE287B06
:1045700017F01EF8AFF2AC5286214FF482702DE78F
:104580000E26012A03D0022ABFD141B3C8E011B1DF
:10459000012910D0C4E00F9816F0D2FFAFF2D45228
:1045A000D2214FF48270FEF7F7FD687B17F000F818
:1045B000AFF2D8520FE0129816F0C2FFAFF2EC52F1
:1045C000D2214FF48270FEF7E7FD95F8250016F032
:1045D000EFFFAFF2EC52D2214FF49670EEE60F9857
:1045E00016F0AEFFAFF21C6286214FF48270FEF728
:1045F00009FE687B16F0DCFFAFF2206286214FF4E3
:104600009670EBE60F26012A03D0022ABCD141B3F3
:1046100086E011B1012910D082E0139816F090FFC6
:10462000AFF24862D2214FF49670FEF7B5FDA87B39
:1046300016F0BEFFAFF250220FE0169816F080FF82
:10464000AFF25C62D2214FF49670FEF7A5FD95F8AB
:10465000260016F0ADFFAFF26422D2214FF4AA700B
:10466000ACE6139816F06CFFAFF2906286214FF41F
:104670009670FEF7C7FDA87B16F09AFFAFF298225E
:1046800086214FF4AA70A9E61026012A03D0022A37
:10469000BCD141B344E011B1012910D040E01798DA
:1046A00016F04EFFAFF2C022D2214FF4AA70FEF7EF
:1046B00073FDA87B16F07CFFAFF2C0220FE01A98C2
:1046C00016F03EFFAFF2D422D2214FF4AA70FEF7CB
:1046D00063FD95F8270016F06BFFAFF2D422D221CC
:1046E0004FF4BE706AE6179816F02AFFAFF2083250
:1046F00086214FF4AA70FEF785FDE87B16F058FF7F
:10470000AFF2083286214FF4BE7067E60926012A0F
:1047100003D0022ABCD151B302E029B1012913D040
:10472000E6721FB0BDE8F08F1B9816F009FFAFF2DC
:104730003432D2214FF4BE70FEF72EFD287A16F0E7
:1047400037FFAFF600420FE01E9816F0F9FEAFF209
:104750004832D2214FF4BE70FEF71EFD95F82000BE
:1047600016F026FFAFF61842D221642026E61B98E9
:1047700016F0E6FEAFF27C3286214FF4BE70FEF7F3
:1047800041FD287A16F014FFAFF6484286216420D6
:1047900024E64FF01208012A03D0022AC1D189B1C0
:1047A00036E1184616F0CCFEAFF66442314664207E
:1047B000FEF7F2FC687C16F0FBFEAFF6484231468D
:1047C0008C2028E0184616F0BBFEAFF6844239462E
:1047D0006420FEF717FD687C16F0EAFEAFF66C4227
:1047E00039468C202AE04FF01308012A03D0022A10
:1047F00097D199B10CE1049816F0A2FEAFF68C4265
:1048000031468C20FEF7C8FCA87C16F0D1FEAFF62E
:10481000A0023146B420FEF7BFFCF9E0049816F080
:104820008FFEAFF6B04239468C20FEF7EBFCA87C39
:1048300016F0BEFEAFF6C8023946B420FEF7E2FC21
:10484000E6E04FF01408012A03D0022AA6D189B16C
:10485000DEE0089816F074FEAFF6EC023146B420A4
:10486000FEF79AFCE87C16F0A3FEAFF6E4023146B0
:10487000DC20D0E7089816F063FEAFF60C1239463C
:10488000B420FEF7BFFCE87C16F092FEAFF60812EB
:104890003946DC20D2E74FF01508012A03D0022A5E
:1048A000A6D191B1B4E00C9816F04AFEAFF62812EA
:1048B0003146DC20FEF770FC287D16F079FEAFF65D
:1048C000F00231464FF48270A5E70C9816F038FEDE
:1048D000AFF64C123946DC20FEF794FC287D16F02A
:1048E00067FEAFF6141239464FF48270A6E74FF018
:1048F0001608012A03D0022AA8D199B188E010989D
:1049000016F01EFEAFF6381231464FF48270FEF7F5
:1049100043FC687D16F04CFEAFF63C1231464FF476
:10492000967078E7109816F00BFEAFF65C123946D9
:104930004FF48270FEF766FC687D16F039FEAFF624
:10494000601239464FF4967078E74FF01708012A45
:1049500003D0022AA4D199B15AE0149816F0F0FDC0
:10496000AFF6841231464FF49670FEF715FCA87D21
:1049700016F01EFEAFF28C5231464FF4AA704AE791
:10498000149816F0DDFDAFF6A81239464FF4967074
:10499000FEF738FCA87D16F00BFEAFF2B052394698
:1049A0004FF4AA704AE74FF01808012A03D0022AF0
:1049B000A2D199B12CE0189816F0C2FDAFF2D452F2
:1049C00031464FF4AA70FEF7E7FBE87D16F0F0FDE4
:1049D000AFF2D45231464FF4BE701CE7189816F06F
:1049E000AFFDAFF2F85239464FF4AA70FEF70AFC59
:1049F000E87D16F0DDFDAFF2F85239464FF4BE7097
:104A00001CE74FF01108012A05D0022AA2D1A1B15A
:104A100084F80B8085E61C9816F092FDAFF22062B8
:104A200031464FF4BE70FEF7B7FB287C16F0C0FD90
:104A3000AFF6EC6231466420EDE61C9816F080FD7E
:104A4000AFF2446239464FF4BE70FEF7DBFB287CC0
:104A500016F0AEFDAFF6107239466420EEE6022A7B
:104A6000D8D191B9584616F06BFDAFF620724E467C
:104A700049466420FEF7C6FB687E16F099FDAFF646
:104A8000087231468C20FEF7BDFB1A207DE1022A18
:104A9000C0D191B9059816F053FDAFF624724E4679
:104AA00049468C20FEF7AEFBA87E16F081FDAFF6DE
:104AB0003C323146B420FEF7A5FB1B2065E1022AFB
:104AC000A8D191B9099816F03BFDAFF658324E4681
:104AD0004946B420FEF796FBE87E16F069FDAFF676
:104AE00054323146DC20FEF78DFB1C204DE1022ABA
:104AF00090D199B90D9816F023FDAFF670324E465D
:104B00004946DC20FEF77EFB287F16F051FDAFF60C
:104B1000483231464FF48270FEF774FB1D2034E1B9
:104B2000022A9DD1A1B9119816F00AFDAFF668329C
:104B30004E4649464FF48270FEF764FB687F16F0DC
:104B400037FDAFF6603231464FF49670FEF75AFBF0
:104B50001E201AE1022A9BD1A1B9159816F0F0FC8B
:104B6000AFF680324E4649464FF49670FEF74AFB48
:104B7000A87F16F01DFDAFF2887231464FF4AA707F
:104B8000FEF740FB1F2000E1022A99D1A1B9199834
:104B900016F0D6FCAFF2A8724E4649464FF4AA7002
:104BA000FEF730FBE87F16F003FDAFF2A872314646
:104BB0004FF4BE70FEF726FB2020E6E0022A97D1D4
:104BC00091B91D9816F0BCFCAFF2C8724E4649462A
:104BD0004FF4BE70FEF716FB287E16F0E9FCF84A8B
:104BE00031466420FEF70EFB1920CEE0022A98D150
:104BF00099B9704616F0A4FCF14A5646121D51466A
:104C00006420FEF7FFFA95F8210016F0D1FCEC4A7B
:104C1000314630328C20FEF7F5FA2220B5E0022A28
:104C200099D199B9069816F08BFCE54A5646303270
:104C300051468C20FEF7E6FA95F8220016F0B8FCF3
:104C4000AFF6CC423146B420FEF7DCFA23209CE0DC
:104C5000022A9AD199B90A9816F072FCAFF6E84286
:104C600056465146B420FEF7CDFA95F8230016F0CB
:104C70009FFCAFF6E4423146DC20FEF7C3FA242065
:104C800083E0022A9BD1A1B90E9816F059FCAFF629
:104C9000005256465146DC20FEF7B4FA95F824003F
:104CA00016F086FCAFF6D44231464FF48270FEF720
:104CB000A9FA252069E0022A99D1A9B9129816F01B
:104CC0003FFCAFF6F042564651464FF48270FEF775
:104CD00099FA95F8250016F06BFCAFF6F4423146D0
:104CE0004FF49670FEF78EFA26204EE0022A97D1F6
:104CF000A9B9169816F024FCAFF614525646514640
:104D00004FF49670FEF77EFA95F8260016F050FCE8
:104D1000AFF6201231464FF4AA70FEF773FA27203F
:104D200033E0022A95D1A9B91A9816F009FCAFF61A
:104D30003C12564651464FF4AA70FEF763FA95F8B6
:104D4000270016F035FCAFF6401231464FF4BE7026
:104D5000FEF758FA282018E0022A93D1A1B91E982C
:104D600016F0EEFBAFF66012564651464FF4BE7099
:104D7000FEF748FA95F8200016F01AFC904A3146E2
:104D8000121D6420FEF73EFA2120E072C9E4ACF166
:104D90002C0C40F23D164FF4FA77BCF1090FF5D216
:104DA000DFE80CF0063A850505EEED05DC00B8E419
:104DB00016F0E8FB95F82C00002895F830001BD081
:104DC000F8B180A29621322008F0C0FE16F000FC57
:104DD00095F82A00002895F8300014D0C0B179A2C7
:104DE00096215A2008F0B2FE95F8300090B176A0D6
:104DF00001F066FA2D20C8E708B177A2E2E777A2B2
:104E0000E0E778A2DEE708B173A2E9E773A2E7E77B
:104E100074A2E5E775A0EBE716F0B4FB95F82A005D
:104E2000002895F8300026D050B366A296215A206B
:104E300008F08CFE7048014609F0E4FA1F2318229E
:104E40007F21962009F002F895F82B00052819D04B
:104E500004284FF000001FD009F0EAFA67A29B2156
:104E60007F2008F073FE95F83000F0B164A001F0E7
:104E700027FA2E2089E708B157A2D7E757A2D5E72E
:104E800058A2D3E7002009F0D3FA63A296217F202D
:104E9000FEF7B8F961A2E2E709F0CAFA5EA296212C
:104EA0007F20FEF7AFF94BA2D9E75DA0DFE78821AD
:104EB000084609F0A7FA1F2318227F21962008F040
:104EC000C5FF95F82B00052813D004284A481AD0AE
:104ED00009F0AEFA49A29B217F2008F037FE16F0B8
:104EE00077FB95F82D00B8B101281CD0022821D0FD
:104EF00028E0414809F09CFA47A296217F20FEF75E
:104F000081F946A2E7E709F093FA43A296217F20B0
:104F1000FEF778F92FA2DEE795F8300008B144A239
:104F20000CE044A20AE095F8300008B142A205E086
:104F300042A203E095F8300060B141A29621AA2078
:104F400008F004FE95F8300030B13EA001F0B8F949
:104F500034201AE73EA2F1E73EA0F7E716F012FB75
:104F600095F82D0020B101280BD0022810D017E0B1
:104F700095F8300008B12EA20EE02EA20CE0C4E09D
:104F80007CE095F8300008B12BA205E02BA203E0ED
:104F900095F8300088B12AA29621AA2008F0D6FD03
:104FA00016F016FB2FA29621304608F0CFFD3020D8
:104FB000E07295F8300008B158E05AE05CE000007B
:104FC0004C3B00084F4E000042757A7A6572204FC4
:104FD0004E2F4F46460000004F464600B9D8B1D587
:104FE00000000000B4F2BFAA00000000B7E4C3F95B
:104FF000C6F7C9E8D6C3000000FFFF004B00000061
:1050000053656C6563742074656D70657261747549
:10501000726520756E6974006F0000004300000027
:10502000CEC2B6C8B5A5CEBBD1A1D4F10000000058
:105030004C000000B4F300004D000000D6D000008A
:1050400053000000466F6E7420536574000000002A
:10505000D0A10000CDA8B5C0D7D6CCE5C9E8D6C34D
:10506000000000004155544F00000000F6A0FEF77C
:1050700077BCAFF224028FE7F9A0F8E716F082FAC6
:1050800095F82E0020B1012809D002280ED015E095
:1050900095F8300008B1F6A20CE0F7A20AE095F806
:1050A000300008B1F6A205E0F6A203E095F8300062
:1050B00090B1F6A23946322008F048FD16F088FA81
:1050C00095F82F0050B101280AD002280AD00328F1
:1050D0000AD004280AD00EE0EEA2EBE7EFA206E029
:1050E000F0A204E0F1A202E0F2A200E0F3A239464D
:1050F000572008F02BFD95F8300020B1F1A001F009
:10510000DFF8322041E6F4A0F9E716F03BFA95F813
:105110002F0040B1012808D0022808D0032808D069
:10512000042808D00CE0DDA206E0DEA204E0DFA245
:1051300002E0E0A200E0E1A23946572008F006FDB7
:1051400016F046FAE7A23946304608F0FFFC95F81B
:10515000300020B1E4A001F0B3F8332015E6E6A05A
:10516000F9E7E94DE94EEA4895ED212AD6ED214AC5
:10517000807B96ED194AD6ED113A96ED093AD6EDB7
:10518000012AD5ED191A95ED111AD5ED090A95EDFB
:10519000010AACF1380CBCF10F0FBFF43BACDFE8F7
:1051A0000CF0093D71A7DDEFEE08EDECEBEAE9E864
:1051B000E7002FE440B101280CD0022812D00328C8
:1051C00018D004281ED027E0022016F0EBFD95ED44
:1051D000000A1EE0B0EE600A022016F0E3FD95ED35
:1051E000080A16E0B0EE410A022016F0DBFD95ED4C
:1051F000100A0EE0B0EE610A022016F0D3FD95ED24
:10520000180A06E0B0EE420A022016F0CBFD95ED3A
:10521000200A012016F038FD3920B6E540B10128FA
:105220000CD0022812D0032818D004281ED027E062
:10523000022016F029FD95ED020A1EE0B0EE600A8C
:10524000022016F021FD95ED0A0A16E0B0EE410AA3
:10525000022016F019FD95ED120A0EE0B0EE610A7B
:10526000022016F011FD95ED1A0A06E0B0EE420A92
:10527000022016F009FD95ED220A032016F092FD9A
:105280003A2082E540B101280ED0022814D003282C
:105290001AD0042820D029E095ED020A032016F048
:1052A000F3FC95ED030A1EE095ED0A0A032016F0C3
:1052B000EBFC95ED0B0A16E095ED120A032016F0B3
:1052C000E3FC95ED130A0EE095ED1A0A032016F0A3
:1052D000DBFC95ED1B0A06E095ED220A032016F093
:1052E000D3FC95ED230A042016F05CFD3B204CE531
:1052F00040B101280ED0022814D003281AD0042867
:1053000020D029E095ED030A042016F0BDFC95EDB0
:10531000040A1EE095ED0B0A042016F0B5FC95ED8D
:105320000C0A16E095ED130A042016F0ADFC95ED7D
:10533000140A0EE095ED1B0A042016F0A5FC95ED6D
:105340001C0A06E095ED230A042016F09DFC95ED5D
:10535000240A052016F026FD3C2016E588B1012818
:1053600017D002281DD0032823D0042829D032E0EA
:105370004AE213E2DCE1A5E16EE137E100E1C9E0D8
:105380002BE095ED040A052016F07EFC95ED050A4C
:105390001EE095ED0C0A052016F076FC95ED0D0A41
:1053A00016E095ED140A052016F06EFC95ED150A31
:1053B0000EE095ED1C0A052016F066FC95ED1D0A21
:1053C00006E095ED240A052016F05EFC95ED250A11
:1053D000062016F0E7FC3D20D7E440B101280ED0AE
:1053E000022814D003281AD0042820D029E095EDF3
:1053F000050A062016F048FC95ED060A1EE095ED1C
:105400000D0A062016F040FC95ED0E0A16E095ED0B
:10541000150A062016F038FC95ED160A0EE095EDFB
:105420001D0A062016F030FC95ED1E0A06E095EDEB
:10543000250A062016F028FC95ED260A072016F00E
:10544000B1FC3E20A1E40000496E707574206669CD
:105450006C65206E616D652070726566697800000C
:10546000CEC4BCFEC3FBB5C4C7B0D7BA00000000B1
:105470004641535400000000BFECCBD900000000AF
:105480004D454400D6D0CBD900000000534C4F57B7
:1054900000000000C2FDCBD90000000039363030DA
:1054A0000000000031393230300000003338343031
:1054B00030000000353736303000000031313532F1
:1054C0003030000053656C65637420426175642060
:1054D0007261746500000000B2A8CCD8C2CAC9E8E5
:1054E000D6C30000310000005265636F726420690A
:1054F0006E74657276616C00BCC7C2BCBCE4B8F463
:10550000CAB1BCE4000000002C0C00208C0B002071
:10551000E800002040B101280ED0022814D0032852
:105520001AD0042820D029E095ED060A072016F0AD
:10553000ABFB95ED070A1EE095ED0E0A072016F06D
:10554000A3FB95ED0F0A16E095ED160A072016F05D
:105550009BFB95ED170A0EE095ED1E0A072016F04D
:1055600093FB95ED1F0A06E095ED260A072016F03D
:105570008BFB95ED270A082016F014FC3F2004E46D
:1055800040B101280ED0022814D003281AD00428D4
:1055900020D029E0B0EE620A022016F0C3FA96EDA0
:1055A000000A1EE0B0EE430A022016F0BBFA96EDA8
:1055B000080A16E0B0EE630A022016F0B3FA96ED80
:1055C000100A0EE0B0EE440A022016F0ABFA96ED97
:1055D000180A06E0B0EE640A022016F0A3FA96ED6F
:1055E000200A012016F008FA412004E440B1012805
:1055F0000ED0022814D003281AD0042820D029E085
:10560000B0EE620A022016F0F7F996ED020A1EE0EB
:10561000B0EE430A022016F0EFF996ED0A0A16E002
:10562000B0EE630A022016F0E7F996ED120A0EE0DA
:10563000B0EE440A022016F0DFF996ED1A0A06E0F1
:10564000B0EE640A022016F0D7F996ED220A032084
:1056500016F068FA42200DE440B101280ED002286D
:1056600014D003281AD0042820D029E096ED020A8D
:10567000032016F0C1F996ED030A1EE096ED0A0A22
:10568000032016F0B9F996ED0B0A16E096ED120A12
:10569000032016F0B1F996ED130A0EE096ED1A0A02
:1056A000032016F0A9F996ED1B0A06E096ED220AF2
:1056B000032016F0A1F996ED230A042016F032FA21
:1056C000432046E440B101280ED0022814D003281C
:1056D0001AD0042820D029E096ED030A042016F001
:1056E0008BF996ED040A1EE096ED0B0A042016F0E5
:1056F00083F996ED0C0A16E096ED130A042016F0D5
:105700007BF996ED140A0EE096ED1B0A042016F0C4
:1057100073F996ED1C0A06E096ED230A042016F0B4
:105720006BF996ED240A052016F0FCF9442010E4EC
:1057300040B101280ED0022814D003281AD0042822
:1057400020D029E096ED040A052016F055F996EDD3
:10575000050A1EE096ED0C0A052016F04DF996EDAF
:105760000D0A16E096ED140A052016F045F996ED9F
:10577000150A0EE096ED1C0A052016F03DF996ED8F
:105780001D0A06E096ED240A052016F035F996ED7F
:10579000250A062016F0C6F94520B3E440B10128D9
:1057A0000ED0022814D003281AD0042820D029E0D3
:1057B00096ED050A062016F01FF996ED060A1EE082
:1057C00096ED0D0A062016F017F996ED0E0A16E072
:1057D00096ED150A062016F00FF996ED160A0EE062
:1057E00096ED1D0A062016F007F996ED1E0A06E052
:1057F00096ED250A062016F0FFF896ED260A0720FA
:1058000016F090F946207DE440B101280ED0022820
:1058100014D003281AD0042820D029E096ED060AD7
:10582000072016F0E9F896ED070A1EE096ED0E0A3D
:10583000072016F0E1F896ED0F0A16E096ED160A2D
:10584000072016F0D9F896ED170A0EE096ED1E0A1D
:10585000072016F0D1F896ED1F0A06E096ED260A0D
:10586000072016F0C9F896ED270A082016F05AF915
:10587000472047E4F64EF748ACF1530C96ED212A49
:10588000C07BD6ED191A96ED111AD6ED090A96EDE0
:10589000010ABCF1070F6DD2DFE80CF0043872A9E1
:1058A000DFF2F10040B101280CD0022812D0032809
:1058B00018D004281ED027E0022016F033F996ED08
:1058C000000A1EE0B0EE600A022016F02BF996EDF9
:1058D000080A16E0B0EE410A022016F023F996ED10
:1058E000100A0EE0B0EE610A022016F01BF996EDE8
:1058F000180A06E0B0EE420A022016F013F996EDFF
:10590000200A012016F078F8542032E040B1012836
:105910000CD0022812D0032818D004281ED027E06B
:10592000022016F069F896ED020A1EE0B0EE600A59
:10593000022016F061F896ED0A0A16E0B0EE410A70
:10594000022016F059F896ED120A0EE0B0EE610A48
:10595000022016F051F896ED1A0A06E0B0EE420A5F
:10596000022016F049F896ED220A032016F0DAF824
:105970005520E07295F83000C0B3B7A0FDF7F0BF36
:1059800040B101280ED0022814D003281AD00428D0
:1059900020D029E096ED020A032016F02DF896EDAE
:1059A000030A1EE096ED0A0A032016F025F896ED8C
:1059B0000B0A16E096ED120A032016F01DF896ED7C
:1059C000130A0EE096ED1A0A032016F015F896ED6C
:1059D0001B0A06E096ED220A032016F00DF896ED5C
:1059E000230A042016F09EF85620C2E7D9E040B101
:1059F00001280ED0022814D003281AD0042820D061
:105A000029E096ED030A042015F0F6FF96ED040A4E
:105A10001EE096ED0B0A042015F0EEFF96ED0C0A41
:105A200016E096ED130A042015F0E6FF96ED140A31
:105A30000EE096ED1B0A042015F0DEFF96ED1C0A21
:105A400006E096ED230A042015F0D6FF96ED240A11
:105A5000052016F067F857208BE740B1012810D0D9
:105A6000022816D003281CD0042822D02BE096ED63
:105A7000040A052015F0C0FF96ED050A20E05AE063
:105A800023E096ED0C0A052015F0B6FF96ED0D0A01
:105A900016E096ED140A052015F0AEFF96ED150AF6
:105AA0000EE096ED1C0A052015F0A6FF96ED1D0AE6
:105AB00006E096ED240A052015F09EFF96ED250AD6
:105AC000062016F02FF8582053E740B101280ED0D9
:105AD000022814D003281AD0042820D029E096EDFB
