:020000040800F2
:1000000060320220C1010008C7530108F124010831
:10001000C5530108C91200082F490208000000005A
:100020000000000000000000000000009D91010899
:100030002D67000800000000A9540108F59501088B
:10004000DB010008DB010008DB010008DB01000820
:10005000DB010008DB010008DB010008DB01000810
:10006000DB010008DB010008DB010008DB01000800
:10007000DB010008DB010008DB010008DB010008F0
:10008000DB010008DB010008DB010008DB010008E0
:10009000DB010008DB010008DB010008DB010008D0
:1000A000DB010008DB010008DB010008DB010008C0
:1000B000DB010008DB010008DB010008DB010008B0
:1000C000DB010008DB010008DB010008DB010008A0
:1000D000DB010008E5300208DB010008DB01000855
:1000E000DB010008DB010008DB010008DB01000880
:1000F000DB010008DB010008DB010008DB01000870
:10010000DB010008E1790108DB010008DB010008E0
:10011000DB010008DB0100088D960108DB01000807
:10012000DB010008DB010008DB010008653B00087B
:10013000DB010008DB010008DB010008DB0100082F
:10014000DB010008DB010008DB0100086D54010839
:10015000DB010008DB010008DB010008DB0100080F
:10016000DB010008DB01000885540108795401080F
:10017000DB01000891540108DB010008DB010008E5
:10018000DB010008DB010008DB010008DB010008DF
:10019000DB010008DB010008DB010008DB010008CF
:1001A000DB010008DB010008DB010008DFF80CD0F0
:1001B00000F078FC00480047656C020860320220BD
:1001C0000648804706480047FEE7FEE7FEE7FEE7F1
:1001D000FEE7FEE7FEE7FEE7FEE7FEE731960108F1
:1001E000AD0100082DE9F05F0546002092469B46D0
:1001F00088460646814640241BE02846414647463D
:10020000224600F0A8FA53465A46C01A914110D32C
:1002100011461846224600F08FFA2D1A67EB0108A6
:100220004F4622460120002100F086FA17EB000914
:100230004E41201EA4F10104DFDC484631462A4627
:100240004346BDE8F09FD2B201E000F8012B491E01
:10025000FBD270470022F6E710B513460A46044663
:100260001946FFF7F0FF204610BD421E12F8013F6D
:10027000002BFBD111F8013B02F8013B002BF9D117
:10028000704710B5044604E00B7800F8013B03B159
:10029000491C521EF8D2204610BD421C10F8011B0A
:1002A0000029FBD1801A704710B5002200E0521CD3
:1002B000835C8C5CA34201D1002BF8D1D8B2E1B2AF
:1002C000401A10BD034611F8012B00F8012B002A3B
:1002D000F9D11846704770B5064625F06BFA0468E8
:1002E00005460A220021304600F0A6FA2C6070BDB7
:1002F0002DE9FE4F804681EA0300C00F0C460090B6
:1003000021F0004123F00045B8EB0200A94105D2DD
:100310004046214690461C460B46024623F00040CC
:10032000104347D0270DC7F30A00C3F30A510290C8
:10033000401A019040286BDAC3F3130040F4801B8D
:100340000098924620B10023D2EB030A63EB0B0B1B
:1003500001985946C0F14002504600F0EDF90646BA
:100360000D4650465946019A00F005FA10EB080078
:100370006141002487EA115284EAE7731A4340D0AE
:10038000009A62B3019A012A4FEA075215DC001B5A
:1003900061EB02014FF0004202EA0752CDE9004250
:1003A000001C41F5801132462B4600F0C3FA03B021
:1003B000BDE8F08F40462146F9E7001B61EB0201E2
:1003C000001C41F5801300185B412018A2F50017AE
:1003D00047EB030140EAD570B6196D4111E06D0895
:1003E0004FEA360645EAC0754FEA0752001B61EB3B
:1003F0000201001C41F5801149084FEA3000001944
:10040000514132462B4603B0BDE8F04F00F083BAAD
:100410000098012240000023D0EB020263EBE0735E
:10042000009821464FEAE074B8EB000061EB04014C
:10043000E9E783F000435BE781F0004158E72DE9ED
:10044000FE4F81EA030404F0004421F000410094CF
:100450004FF0000B23F0004350EA01045ED052EA53
:1004600003045BD0C3F30A54C1F30A552C44A4F22D
:10047000F3340194A0FB0254C1F3130141F4801141
:10048000C3F3130343F4801301FB024400FB034E48
:10049000840A970A44EA815447EA8357A4FB076811
:1004A00002958D0A05FB07854FEA932C04FB0C543B
:1004B0002705029D4FEA065847EA1637B5EB0805AF
:1004C0006EEB070C870E920E47EA811742EA831201
:1004D000A7FB0201B6EB0B0164EB00042B0D43EA12
:1004E0000C335E1844EB1C50DA465146E7FB020120
:1004F000C5F313044FEA0B3343EA14534FEA0432B3
:10050000019C43EA0603A4F10C040294009CCDE98B
:1005100000B400F00FFA03B0BDE8F08F00200146F0
:10052000F9E72DE9F04D81EA030404F0004B21F0D6
:10053000004514464FF0000A23F0004150EA05023E
:1005400020D054EA01021DD0C5F30A570246C5F374
:100550001303C1F31300C1F30A5640F4801543F4AA
:100560008013A7EB0608101BD64608F2FD3873EB84
:10057000050002D308F1010801E092185B41B8F1CF
:10058000000F03DA00200146BDE8F08D00204FF493
:100590008011064684460EE0171B73EB050705D352
:1005A000121B63EB050306434CEA010C49084FEAB2
:1005B000300092185B4150EA0107EDD152EA030086
:1005C00012D082EA040083EA0501084305D0101B1B
:1005D000AB4106D20122002306E000224FF0004387
:1005E00002E06FF0010253101AEB06004CEB0851C9
:1005F00010EB0A0041EB0B01BDE8F04D00F08BB9A8
:100600000EB540F2334102910021CDE900110A46B6
:100610000B4600F08FF903B000BDC1F30A5210B5CC
:10062000C1F3130140F2FF3341F480119A4201DA21
:10063000002010BD40F233439A42A2F2334203DC61
:10064000524200F088F810BD904010BD00F000420A
:1006500030F000400AD0C10D01F56071C0F3160002
:1006600042EA0151C2084007114370470020014689
:100670007047000030B5041E71F1000404DB4FF038
:100680000044404264EB0101141E73F1000405DBD9
:100690001C464FF00043524263EB04038B4208BFF9
:1006A000824230BD30B5041E71F1000404DB4FF00E
:1006B0000044404264EB0101141E73F1000405DBA9
:1006C0001C464FF00043524263EB0403994208BFBB
:1006D000904230BD01F0004330B421F0004150EAB7
:1006E000010206D00A0DA2F56072C1F31301002ABF
:1006F00002DC30BC00207047440F44EAC104C10052
:10070000E01830BC00EBC25000F0CEB830B50B465C
:10071000014600202022012409E021FA02F59D4231
:1007200005D303FA02F5491B04FA02F52844151E05
:10073000A2F10102F1DC30BD202A04DB203A00FAEC
:1007400002F1002070479140C2F1200320FA03F328
:10075000194390407047202A04DB203A21FA02F026
:100760000021704721FA02F3D040C2F120029140EB
:10077000084319467047202A06DBCB17203A41FA76
:1007800002F043EAE07306E041FA02F3D040C2F11E
:100790002002914008431946704700000FB400231F
:1007A00000B589B00CA900910B996FF00042CB60A5
:1007B0001E4B06931E4B07930423CDE901321D4ABD
:1007C000089202466B46002000F020FA09B05DF85E
:1007D00014FB70B586B006464FF0FF300091CDE9AE
:1007E0000101002015460C4604903246694604A8D3
:1007F000FFF7D4FF02460498211825B108B1084636
:1008000000E020462860049800280DD0002A02DD70
:100810000098884208D0081B0094CDE901043246B4
:10082000694604A8FFF7BAFF06B070BD450E000880
:10083000630E0008D10A00082DE9F04791460F46E3
:1008400080460446002614F8015B2DB100F03CF907
:100850000068405DC007F6D12B2D02D02D2D18D099
:10086000641E4A463946204600F00CFB27B1396821
:10087000A14201D1C7F8008071054FF002040BD5E9
:100880004042002803DD24F095FF0460A007BDE886
:10089000F08746F48066E4E70028F8DA24F08AFF5F
:1008A00004606FF00040F2E70029A8BF7047401CC9
:1008B000490008BF20F00100704710B4B0FA80FC76
:1008C00000FA0CF050EA010404BF10BC704749B1B3
:1008D000CCF1200421FA04F411FA0CF118BF012123
:1008E00021430843A3EB0C01CB1D4FEA00614FEA03
:1008F000102042BF002010BC704700EBC3501044D2
:100900000029A4BF10BC7047401C490008BF20F05C
:10091000010010BC704710B5141E73F1000408DA12
:10092000401C41F1000192185B411A4301D120F0B3
:10093000010010BD2DE9F04D92469B4611B1B1FA70
:1009400081F202E0B0FA80F220329046FFF7F4FE26
:1009500004460F4640EA0A0041EA0B0153465A4654
:10096000084313D0114653EA010019D0C8F14002E0
:100970005046FFF7F0FE05460E46504659464246A1
:10098000FFF7DAFE084305D0012004E0204639468F
:10099000BDE8F08D0020054346EAE0762C4337435E
:1009A0000A986305E40AA0EB08000022FD0A44EA65
:1009B00047540A3002D500200146E9E70105101925
:1009C0006941DDE9084500196941BDE8F04DA2E73C
:1009D0002DE9F04D00231A461B1A8A4103DB002043
:1009E0000146BDE8F08DC1F30A52C1F3130141F491
:1009F00080154FF0000BD10702D100186D41521E37
:100A00000027044640F2FF11384601EB620A3E46D9
:100A10008046024600204FF48011FFF79CFEC21969
:100A20007141BB1846EB0100B4EB030C75EB000CF5
:100A300004D3E41A65EB000517460E46241908F1A5
:100A400001006D4180463428E3DDF91946EB0600CC
:100A5000091BA84103D24FF0FF32134601E00022E8
:100A600013461BEB070046EB0A51BDE8F04DFFF7BC
:100A700052BFC1F30A52C1F3130140F2FF3341F4F4
:100A800080119A4202DA00200146704740F2334357
:100A90009A42A2F2334202DC5242FFF75CBEFFF7F9
:100AA0004BBE0000064C074D06E0E06840F0010335
:100AB00094E8070098471034AC42F6D3FFF77AFB6E
:100AC000905F0408B05F040800487047185F04088E
:100AD00010B50446FFF7F8FF0068005D00F0010064
:100AE00010BD00002DE9FF4F087883B09946FF281C
:100AF00005D0491C2D2804D00024002008E0002047
:100B00000BE00124F9E700EB800003EB4000491CF7
:100B10000B78FF2BF7D104B14042002302931478E5
:100B200019461D462D2C01D02B2C04D1521C2D2CE6
:100B300013D000240294AA461478FF2C0FD00A2563
:100B4000A3FB057801FB05814FF0000C03FB0C11A2
:100B5000521CE3194AEB0101EEE70124EAE7814464
:100B600053EA010002D019F5C87F06DA0398002184
:100B7000C0E9001107B0BDE8F08F0025AE4E2F464A
:100B8000DFF8B882184600F0DAF9CDE90001B9F1D2
:100B9000000002DAC9F1000400E004460023A74A7D
:100BA0001AEB030B42EB045A12E0E00707D02A4687
:100BB000334638464146FFF742FC074688462A46F8
:100BC000334610461946FFF73AFC05460E466410B8
:100BD000002CEAD1DDE90001B9F1000F5A46534675
:100BE00006DAFFF79EFC3A464346FFF79AFC05E01B
:100BF000FFF725FC3A464346FFF721FC029A0AB16B
:100C000081F00041039AC2E90001B3E72DE9FF4FEB
:100C10001F468DB0D7E901464FF0FF382E204546DC
:100C20004FF000090B90B9696D1C0E988847396A1E
:100C3000824688470028F6D1BAF1FF3F0AD024F453
:100C4000D064002E11DDBAF12B0F08D0BAF12D0FB0
:100C50000BD102E0404611B08DE744F48064B969DD
:100C60006D1C0E9888478246761E6946600501D540
:100C70002D2000E02B208DF8000001F1010B0DF17B
:100C8000200809E0B9696D1C0E98884782460F98C4
:100C900044F40074761E0560002E02DDBAF1300FB8
:100CA000F0D00B998A453ED144F0800406E00F99BC
:100CB000681CA9F1010944F400740860B9696D1C4D
:100CC000761E0E98884782463028F0D02BE00B998C
:100CD0008A4505D1200603D444F08004761E18E02E
:100CE000504624F0A5FE08B30DF11301761E44F41E
:100CF00000748B4508D2AAF130000BF8010B2006D6
:100D000007D5A9F1010003E0200602D409F1010092
:100D10008146A00502D50F99681C0860B9696D1C51
:100D20000E9888478246002ED1DC53E0002E51DD1C
:100D3000BAF1650F02D0BAF1450F4BD1A00549D5E4
:100D4000B9696D1C24F44074761E0E98884782465B
:100D5000002E0CDD2B2804D0BAF12D0F07D144F45E
:100D60008074B9696D1C0E9888478246761EE0052E
:100D700001D52D2100E02B2108F8011BCDF82C8096
:100D800021E00DF12901761E44F4007488450CD24F
:100D9000AAF1300010F0FF0088F8000002D10B9992
:100DA000884509D908F1010806E0E00501D5244885
:100DB00001E042F20F708146B9696D1C0E988847B8
:100DC00082460F980560002E04DD504624F030FE68
:100DD0000028D6D1F9690E988847FF208BF80000CB
:100DE00088F800000020069007904B466A4608A944
:100DF00006A8FFF777FEA00502D46FF001002AE7EE
:100E000014F0240F0AD0E00714D1DDE90612386887
:100E1000031D3B600068C0E900120BE0DDE906013C
:100E2000FFF758FC0146E00704D13868021D3A601C
:100E30000068016028460EE7000014400000F03F03
:100E4000F1D8FFFF426842B1016811F8013B23B1BC
:100E5000521EC0E90012184670470121C160881E69
:100E6000704742685AB1C368016843B983688B42CE
:100E700005D0491E521CC0E90012002070474FF0F7
:100E8000FF3070472DE9F05F824600780027154655
:100E90008B460AF10104B946302801D09DB113E018
:100EA00014F8010B0127782803D0582801D045B148
:100EB0000AE00DB1102D07D10027102514F8010B01
:100EC00002E0082500E00A250026B0460EE005FBFA
:100ED000080005FB06F1012701EB10461FFA80F818
:100EE000B6F5803F00D3B94614F8010B294600F04F
:100EF00018F80028EBDABBF1000F05D00FB1641E23
:100F000000E05446CBF80040B9F1000F06D024F0C1
:100F100051FC02210160C81EBDE8F09F48EA06406E
:100F2000FAE73A2800D2303820F02002412A01D3D3
:100F3000A2F13700884201D34FF0FF3070470EB561
:100F400040F2334202920022CDE900221346FFF71D
:100F5000F1FC03B000BD70B58C1810F8015B15F002
:100F6000070301D110F8013B2A1106D110F8012B1B
:100F700003E010F8016B01F8016B5B1EF9D12B0740
:100F800005D40023521E0DD401F8013BFAE710F8F6
:100F9000013BCB1A921C03E013F8015B01F8015BE3
:100FA000521EF9D5A142D8D3002070BD164810B505
:100FB000C17A0A2927D2DFE801F01A26222626263E
:100FC0002626051E017B007C114A01EBC000533828
:100FD000C0B29FED0E0A02EB8000523980ED000A8C
:100FE000C8B226F061F8BDE8104018F0E9B8BDE8D5
:100FF000104028F0A1BABDE8104026F0EFBDBDE8D2
:10100000104018F095BE10BD400200200000000006
:10101000F8FF00200029816802D041F0010101E0C1
:1010200021F0010181607047084B10B5D3F804230B
:1010300007490A40D0E900142143D0E902400443A3
:1010400021431143C3F8041310BD000000200140E8
:10105000E030FCFF0029816802D041F4807101E09A
:1010600021F48071816070470029816802D041F4C9
:10107000007101E021F400718160704730B5426871
:101080000F4B0C791A400B6842EA04221343436069
:1010900082680C4B4D791A40D1E9034323438C6895
:1010A00044EA4504234313438360C26A097D22F462
:1010B0007002491EC9B242EA0151C16230BD00004E
:1010C000FFFEFFFCFDF7FFC070B5072409290AD910
:1010D000C568A1F10A0606EB4606B440A543B34035
:1010E0001D43C56007E0056901EB4106B440A54317
:1010F000B3401D4305611F23072A09D2446B521ECA
:1011000002EB820293409C4391400C43446370BDC8
:101110000D2A09D2046BD21F02EB820293409C433A
:1011200091400C43046370BDC46A0D3A02EB820225
:1011300093409C4391400C43C46270BD816841F070
:101140008041816070470000F0B532489FED300A61
:10115000DFED310A80ED010AA0F20C720023C0ED30
:10116000020A19462D4FA0F1A00492F833600AE05C
:1011700012F801C0BCF1000F03D154F821C0BC45E6
:101180000CDB491CC9B28E42F2D8012D06D080ED8D
:10119000000A80ED010A80ED020AF0BD0021204D19
:1011A0002BE000BF12F801C0BCF1000F23D104EB0B
:1011B000810CDCED000A10EE90CABC451BDA05EB91
:1011C000810C5B1C9CED001ADBB270EEC10A90ED45
:1011D000011A30EE800AF4EEC10AF1EE10FA01DDD8
:1011E000C0ED010A90ED021AF4EEC10AF1EE10FA18
:1011F00001D2C0ED020A491CC9B28E42D2D800EE1B
:10120000903AF8EE600A80EE201A80ED001AF0BDE8
:1012100000000000240A012000E0F94400E0F94445
:10122000F8FF00200A48C17A0D290BD2DFE801F04F
:101230000A0A0A0A070D0D0D0D0A0A0A0B00007BA7
:10124000332802D070470348007825F0AFB800007B
:10125000400200203000002000210D4A0846135CA7
:10126000012B00D10121401CC0B22828F7D3094826
:10127000012908D10649503991F82A10012902D1D3
:101280000549097811B1002118F032BB0121FBE7B3
:1012900068030120000401404B0200201CB54FF4FC
:1012A0008070009001208DF8040000218DF8061058
:1012B0008DF807008DF805106946024811F0ACF86A
:1012C0001CBD000000000240FEE7000010B5074C06
:1012D0000121204618F00CFB4FF6FF7005F08AFA4A
:1012E0002046BDE81040002118F002BB0004014078
:1012F00010B5044639202AF011FCE0B22AF032FC85
:10130000C4F307202AF02EFCC4F307402AF02AFC7D
:10131000200E2AF027FC2AF0F1FBBDE8104024F053
:10132000F1B870B5064614460D463C202AF0F6FB8F
:10133000E8B22AF017FC280A2AF014FC2AF0DEFB97
:101340000CB1002011E024F0DDF81E280FD130464A
:1013500000F035F905463D202AF0E0FB2AF0CEFBEF
:101360002E44002CEFD0208828442080EBE770BD6D
:1013700010B514F0D9F808B100F069F8BDE81040D4
:10138000302000F0B2B8312000F0AFB8014636206E
:1013900000F09EB810B508B100F0C6F8BDE81040E6
:1013A000342000F0A2B870B5054600F0A7F804009C
:1013B0000DD00146284600F021F8412807D0142816
:1013C00003D0422800D1B32070BD432070BD28193E
:1013D000BDE87040FFF7DEBF10B5044600F0A4F88A
:1013E00020785C2801D02F2803D10021642000F050
:1013F000FCF8BDE81040322000F077B870B5054623
:1014000000200E46012401E0641CE4B2295D5C2941
:1014100013D02F2911D00029F6D100242844FFF73A
:10142000DBFF002C08D0B44206D041280AD0142893
:1014300006D0422800D1B32070BD641CE4B2EDE7B1
:10144000432070BD2046E1E7FF21FFF7D7BF10B56D
:1014500022202AF063FB322005F0CCF92AF054FB5D
:1014600004462AF04BFB204610BD2DE9F0412AF03E
:101470004BFB06462AF048FB05462AF045FB04468E
:101480002AF042FB07462AF039FB46EA052040EAEB
:10149000044040EA0760BDE8F08110B504460C2026
:1014A0002AF03CFB20462AF05DFBBDE81040FFF728
:1014B000DCBF10B504460A202AF030FB20462AF093
:1014C00051FB2AF021FB04462AF018FB204610BDF0
:1014D00010B50C462AF022FB20462AF043FB2AF0E6
:1014E0000DFBBDE8104024F00DB810B52AF016FB36
:1014F0002AF004FBBDE8104024F004B8014600E0E7
:10150000491C0A78002AFBD106E000BF11F8012D22
:101510005C2A03D02F2A01D08142F7D1814200D02A
:10152000491C081AC0B2704770B5054601202AF060
:10153000F5FA2AF0E9FA432828D22B20FFF7B9FF61
:10154000102823D22F202AF0E9FA00202AF00AFBE3
:101550003220FFF7CAFF142818D1CF20FFF7A9FFC8
:10156000040013D04C20FFF798FF00EB04214C201F
:1015700000F03BF85020FFF790FF00EB04215020D3
:1015800000F033F80021702000F02FF82F202AF00F
:10159000C5FA2C7806E000BF15F8014F5C2C0AD084
:1015A0002F2C08D020462AF0DDFA002CF4D1BDE81B
:1015B00070402AF0A3BA00202AF0D4FAF7E770B5F9
:1015C00005462D202AF0AAFA2AF09EFA04002646A3
:1015D00007D028782AF0C6FA641E6D1C14F0FF04A8
:1015E000F7D12AF08BFA304670BD70B505460C462F
:1015F0000D202AF093FA28462AF0B4FAE0B22AF035
:10160000B1FAC4F307202AF0ADFAC4F307402AF078
:10161000A9FA200E2AF0A6FABDE870402AF06EBAA8
:101620002DE9F04188B00121812013F089FF0121CB
:10163000080313F0C1FFDFF8C880052211464046B9
:1016400010F03BFF05220621404610F036FF052230
:101650000721404610F031FF02258DF805508DF826
:101660000450002420278DF8064000978DF807408D
:101670006946404610F0D0FE402000906946404642
:1016800010F0CAFE802000906946404610F0C4FE6B
:101690001020012600908DF804608DF80640694600
:1016A000404610F0B9FE8DF8044000978DF80760B1
:1016B0006946144810F0B0FEADF808404FF482704F
:1016C000ADF80A00ADF810602802ADF8120038201D
:1016D000ADF81400ADF80C40ADF8164007200A4CE8
:1016E000ADF81800ADF80E5002A9204617F0C7FC5F
:1016F0000121204617F0BEFA08B0BDE8F0810000D5
:1017000000000240001C024000300140F0B5FF2301
:101710001A46002418E0055D6A40002502F0010623
:1017200013F0010F4FEA53034FEA520201D042F087
:1017300080021EB183F0A00382F001026D1CEDB2A5
:10174000082DEBD3641CE4B28C42E4D342EA0320BC
:10175000F0BD00002DE9F047F748F84FF84C00784D
:101760004FF482754FF4AA764FF470484FF4A57980
:1017700040B1012874D0022873D0032872D0042805
:1017800071D03CE32078012801D028B10FE08820F7
:1017900012F03AFA384603E0882012F035FA404653
:1017A00012F04EFAE7A20A21642011F045FE60789B
:1017B000012801D028B10FE0882012F025FA384620
:1017C00003E0882012F020FA404612F039FADEA237
:1017D0000A21B42011F030FEA078012801D028B1F0
:1017E0000FE0882012F010FA384603E0882012F04B
:1017F0000BFA404612F024FAD4A20A21284611F02E
:101800001BFEE078012801D028B10FE0882012F0FB
:10181000FBF9384603E0882012F0F6F9404612F052
:101820000FFACBA20A21304611F006FE20790128DA
:1018300001D028B10FE0882012F0E6F9384603E025
:10184000882012F0E1F9404612F0FAF9C1A24946A7
:10185000642011F0F1FD6079012805D048B113E052
:1018600039E0D7E0ABE149E2882012F0CDF9384603
:1018700003E0882012F0C8F9404612F0E1F9B6A260
:101880004946B42011F0D8FDA079012801D028B133
:101890000FE0882012F0B8F9384603E0882012F0F3
:1018A000B3F9404612F0CCF9ACA24946284611F0F3
:1018B000C3FDE079012801D028B1A0E2882012F010
:1018C000A3F9384603E0882012F09EF9404612F052
:1018D000B7F9A3A28FE2207A01284FF0880079D0CF
:1018E00012F092F94FEA080012F0AAF99DA20A211B
:1018F000642011F0A1FD607A01284FF088006DD0BE
:1019000012F082F94FEA080012F09AF996A20A2121
:10191000B42011F091FDA07A01284FF0880061D029
:1019200012F072F94FEA080012F08AF98FA20A2128
:10193000284611F081FDE07A01284FF0880055D04B
:1019400012F062F94FEA080012F07AF988A20A212F
:10195000304611F071FD207B01284FF0880049D0FE
:1019600012F052F94FEA080012F06AF981A24946D2
:10197000642011F061FD607B01284FF088003DD0AC
:1019800012F042F94FEA080012F05AF97AA24946D9
:10199000B42011F051FDA07B01284FF0880031D018
:1019A00012F032F94FEA080012F04AF973A24946E0
:1019B000284611F041FDE07B01284FF0880025D03A
:1019C00012F022F94FEA080012F03AF96CA212E282
:1019D00000E003E012F018F9384685E712F014F938
:1019E000384691E712F010F938469DE712F00CF9ED
:1019F0003846A9E712F008F93846B5E712F004F9BD
:101A00003846C1E712F000F93846CDE712F0FCF88D
:101A10003846D9E7207C01284FF0880078D012F0B2
:101A2000F3F8404612F00CF956A20A21642011F096
:101A300003FD607C01284FF088006DD012F0E4F8BF
:101A40004FEA080012F0FCF84FA20A21B42011F06E
:101A5000F3FCA07C01284FF0880061D012F0D4F88C
:101A60004FEA080012F0ECF848A20A21284611F0CB
:101A7000E3FCE07C01284FF0880055D012F0C4F858
:101A80004FEA080012F0DCF841A20A21304611F0BA
:101A9000D3FC207D01284FF0880049D012F0B4F823
:101AA0004FEA080012F0CCF83AA24946642011F03F
:101AB000C3FC607D01284FF0880074D012F0A4F8B8
:101AC0004FEA080012F0BCF833A24946B42011F0E6
:101AD000B3FCA07D01284FF0880068D012F094F884
:101AE0004FEA080012F0ACF82CA24946284611F043
:101AF000A3FCE07D01284FF088005CD012F084F850
:101B00004FEA080012F09CF825A274E100E003E01F
:101B100012F07AF8384685E712F076F8384691E701
:101B200012F072F838469DE712F06EF83846A9E7D1
:101B300012F06AF83846B5E74D02002093551700B9
:101B400018030120303031003030320030303300A3
:101B5000303034003030350030303600303037002F
:101B60003030380030303900303130003031310021
:101B70003031320030313300303134003031350013
:101B800030313600303137003031380030313900F3
:101B900030323000303231003032320030323300F7
:101BA00030323400FFE712F02FF838468AE712F09F
:101BB0002BF8384696E712F027F83846A2E7207E41
:101BC00001284FF0880079D012F01EF84FEA080083
:101BD00012F036F8A5A20A21642011F02DFC607ED7
:101BE00001284FF088006DD012F00EF84FEA08007F
:101BF00012F026F89EA20A21B42011F01DFCA07E4E
:101C000001284FF0880061D011F0FEFF4FEA080074
:101C100012F016F897A20A21284611F00DFCE07E7A
:101C200001284FF0880055D011F0EEFF4FEA080070
:101C300012F006F890A20A21304611F0FDFB207F39
:101C400001284FF0880049D011F0DEFF4FEA08006C
:101C500011F0F6FF89A24946642011F0EDFB607F88
:101C600001284FF088003DD011F0CEFF4FEA080068
:101C700011F0E6FF82A24946B42011F0DDFBA07FFF
:101C800001284FF0880031D011F0BEFF4FEA080064
:101C900011F0D6FF7BA24946284611F0CDFBE07F2C
:101CA00001284FF0880025D011F0AEFF4FEA080060
:101CB00011F0C6FF74A29EE000E003E011F0A4FF63
:101CC000384685E711F0A0FF384691E711F09CFFF8
:101CD00038469DE711F098FF3846A9E711F094FFC8
:101CE0003846B5E711F090FF3846C1E711F08CFF98
:101CF0003846CDE711F088FF3846D9E794F8200040
:101D000001284FF088007DD011F07EFF4FEA0800D7
:101D100011F096FF5DA20A21642011F08DFB94F86A
:101D2000210001284FF088006DD011F06DFF404672
:101D300011F086FF56A20A21B42011F07DFB94F821
:101D4000220001284FF0880075D011F05DFF404659
:101D500011F076FF4FA20A21284611F06DFB94F88E
:101D6000230001284FF0880069D011F04DFF404654
:101D700011F066FF48A20A21304611F05DFB94F88D
:101D8000240001284FF088005DD011F03DFF40464F
:101D900011F056FF41A24946642011F04DFB94F822
:101DA000250001284FF0880051D011F02DFF40464A
:101DB00011F046FF3AA24946B42011F03DFB94F8D9
:101DC000260001284FF0880045D011F01DFF404645
:101DD00011F036FF33A24946284611F02DFB94F846
:101DE000270001284FF0880039D011F00DFF404640
:101DF00011F026FF2CA24946304611F01DFB0120B0
:101E00002A4901E00EE012E0C870FFF75FFA94F88B
:101E1000300040B326A000BF05F00AFABDE8F04745
:101E200017F0CEB911F0F0FE384671E703E011F07B
:101E3000EBFE38467CE711F0E7FE384688E711F004
:101E4000E3FE384694E711F0DFFE3846A0E711F0D4
:101E5000DBFE3846ACE711F0D7FE3846B8E711F0A4
:101E6000D3FE3846C4E715A0D6E70000303235006F
:101E700030323600303237003032380030323900FC
:101E80003033300030333100303332003033330000
:101E900030333400303335003033360030333700E0
:101EA000303338003033390030343000C80100207E
:101EB0004368616E6E656C2073657400CDA8B5C013
:101EC000C9E8D6C3000000002DE9F05FF948DFF84B
:101ED000E8A3FA4C00784FF482754FF496764FF4ED
:101EE000AA784FF4BE794FF4704B10B101286ED030
:101EF00049E32078012801D028B10FE0882011F0B3
:101F000083FE504603E0882011F07EFE584611F013
:101F100097FEEBA20A21642001F0B0FB6078012853
:101F200001D028B10FE0882011F06EFE504603E08A
:101F3000882011F069FE584611F082FEE1A20A21C4
:101F40008C2001F09BFBA078012801D028B10FE084
:101F5000882011F059FE504603E0882011F054FE0D
:101F6000584611F06DFED8A20A21B42001F086FB7C
:101F7000E078012801D028B10FE0882011F044FE5C
:101F8000504603E0882011F03FFE584611F058FEFD
:101F9000CEA20A21DC2001F071FB2079012801D0BA
:101FA00028B10FE0882011F02FFE504603E0882072
:101FB00011F02AFE584611F043FEC5A20A21284618
:101FC00001F05CFB6079012802D030B110E0C6E17D
:101FD000882011F019FE504603E0882011F014FE0D
:101FE000584611F02DFEBBA20A21304601F046FBF7
:101FF000A079012801D028B10FE0882011F004FE5B
:10200000504603E0882011F0FFFD584611F018FEFD
:10201000B1A20A21404601F031FBE079012801D04C
:1020200028B10FE0882011F0EFFD504603E0882032
:1020300011F0EAFD584611F003FEA8A20A21484615
:1020400001F01CFB94F83300082872D9207A01288B
:1020500001D028B10FE0882011F0D6FD504603E0F2
:10206000882011F0D1FD584611F0EAFD9CA2D22142
:10207000642001F003FB607A012801D028B10FE051
:10208000882011F0C1FD504603E0882011F0BCFD0E
:10209000584611F0D5FD93A2D2218C2001F0EEFA22
:1020A000A07A012801D028B10FE0882011F0ACFD02
:1020B000504603E0882011F0A7FD584611F0C0FDFE
:1020C00089A2D221B42001F0D9FAE07A012801D006
:1020D00028B10FE0882011F097FD504603E08820DA
:1020E00011F092FD584611F0ABFD80A2D221DC2008
:1020F00001F0C4FA207B012801D028B10FE088202C
:1021000011F082FD504603E0882011F07DFD584615
:1021100011F096FD76A2D221284601F0AFFA607B3D
:10212000012801D030B110E0882011F06DFD50463B
:1021300004E034E0882011F067FD584611F080FD7E
:102140006CA2D221304601F099FAA07B012801D07F
:1021500028B10FE0882011F057FD504603E0882099
:1021600011F052FD584611F06BFD63A2D22140469A
:1021700001F084FAE07B012801D028B10FE088202B
:1021800011F042FD504603E0882011F03DFD584615
:1021900011F056FD59A2D221484601F06FFA94F889
:1021A000330010286FD9207C4FF4CD77012801D05F
:1021B00028B10FE0882011F027FD504603E0882069
:1021C00011F022FD584611F03BFD4DA23946642026
:1021D00001F054FA607C012801D028B10FE088207A
:1021E00011F012FD504603E0882011F00DFD584615
:1021F00011F026FD43A239468C2001F03FFAA07C65
:10220000012801D028B10FE0882011F0FDFC5046D4
:1022100003E0882011F0F8FC584611F011FD3AA2B5
:102220003946B42001F02AFAE07C012801D028B117
:102230000FE0882011F0E8FC504603E0882011F000
:10224000E3FC584611F0FCFC30A23946DC2001F0DA
:1022500015FA207D012801D028B10FE0882011F067
:10226000D3FC504603E0882011F0CEFC584611F014
:10227000E7FC27A23946284601F000FA607D0128D4
:1022800002D030B110E07EE1882011F0BDFC504654
:1022900003E0882011F0B8FC584611F0D1FC1DA2D3
:1022A0003946304601F0EAF9A07D012834D000B16A
:1022B00042E036E04D02002093551700180301203C
:1022C00030303100303032003030330030303400C4
:1022D00030303500303036003030370030303800A4
:1022E000303039003031300030313100303132009F
:1022F0003031330030313400303135003031360088
:102300003031370030313800303139003032300070
:102310003032310030323200882011F075FC5046E6
:1023200003E0882011F070FC584611F089FCC1A22E
:102330003946404601F0A2F9E07D012801D028B1DC
:1023400021E1882011F060FC504603E0882011F064
:102350005BFC584611F074FCB7A2394610E1207EB0
:1023600001284FF088007DD011F04EFC4FEA0B00A1
:1023700011F066FCB1A20A21642001F07FF9607EB1
:1023800001284FF088006ED011F03EFC4FEA0B00A0
:1023900011F056FCAAA20A218C2001F06FF9A07E50
:1023A00001284FF088007DD011F02EFC4FEA0B0081
:1023B00011F046FCA3A20A21B42001F05FF9E07EEF
:1023C00001284FF088006ED011F01EFC4FEA0B0080
:1023D00011F036FC9CA20A21DC2001F04FF9207F8D
:1023E00001284FF088007CD011F00EFC4FEA0B0062
:1023F00011F026FC95A20A21284601F03FF9607FE2
:1024000001284FF088006DD011F0FEFB4FEA0B0061
:1024100011F016FC8EA20A21304601F02FF9A07FA0
:1024200001284FF088007DD011F0EEFB4FEA0B0041
:1024300011F006FC87A20A21404601F01FF9E07F57
:1024400001284FF088006ED011F0DEFB4FEA0B0040
:1024500011F0F6FB80A20A21484601F00FF994F82A
:10246000200001E09EE0A3E001284FF088007DD02D
:1024700011F0CAFB4FEA0B0011F0E2FB77A2D22168
:10248000642001F0FBF894F8210001284FF0880047
:102490006DD011F0B9FB584611F0D2FBD22170A2D9
:1024A0008C2001E088E08BE001F0E8F894F822004D
:1024B00001284FF0880079D011F0A6FB4FEA0B00FD
:1024C00011F0BEFB67A2D221B42001F0D7F894F836
:1024D000230001284FF0880069D011F095FB584681
:1024E00001E071E074E011F0ABFB5FA2D221DC20CF
:1024F00001F0C4F894F8240001284FF088006FD050
:1025000011F082FB4FEA0B0011F09AFB57A2D22187
:10251000284601F0B3F894F8250001284FF0880010
:1025200079D001E058E05CE011F06EFB4FEA0B005F
:1025300011F086FB4EA2D221304601F09FF894F8AC
:10254000260001284FF0880069D011F05DFB584645
:1025500011F076FB47A2D221404601F08FF894F8A3
:10256000270001284FF088005DD001E03DE040E009
:1025700011F04AFB4FEA0B0011F062FB3EA2D221A0
:10258000484601F07BF83D490120C870FEF79EFEE9
:1025900094F8300088B33AA004F04AFEBDE8F05F3A
:1025A00016F00EBE11F030FB5046E1E627E02AE0BF
:1025B00011F02AFB5046EBE611F026FB5046F7E6F9
:1025C00011F022FB504603E711F01EFB50460FE7C7
:1025D00011F01AFB50461BE711F016FB504627E797
:1025E00015E011F011FB504632E711F00DFB50469B
:1025F00042E711F009FB50464EE718E00BE011F0FE
:1026000003FB50465CE711F0FFFA504668E711F013
:10261000FBFA504678E711F0F7FA504688E711F0D8
:10262000F3FA504694E711F0EFFA5046A4E717A0EA
:10263000B2E700003032330030323400303235003F
:102640003032360030323700303238003032390024
:102650003033300030333100303332003033330028
:102660003033340030333500303336003033370008
:10267000303338003033390030343000C8010020A6
:102680004368616E6E656C2073657400CDA8B5C03B
:10269000C9E8D6C3000000002DE9F05FF84CDFF870
:1026A000E4A34FF4704B2078012801D028B10FE04B
:1026B000882011F0A9FA504603E0882011F0A4FA0E
:1026C000584611F0BDFAF0A20A21642001F00CF87E
:1026D0006078012801D028B10FE0882011F094FA29
:1026E000504603E0882011F08FFA584611F0A8FAFE
:1026F000E6A20A218C2000F0F7FFA078012801D083
:1027000028B10FE0882011F07FFA504603E08820BE
:1027100011F07AFA584611F093FADDA20A21B4209A
:1027200000F0E2FFE078012801D028B10FE0882016
:1027300011F06AFA504603E0882011F065FA584615
:1027400011F07EFAD3A20A21DC2000F0CDFF20791F
:102750004FF48275012801D028B10FE0882011F0D4
:1027600053FA504603E0882011F04EFA584611F013
:1027700067FAC9A20A21284600F0B6FF60794FF433
:102780009676012801D028B10FE0882011F03CFA9C
:10279000504603E0882011F037FA584611F050FAFD
:1027A000BEA20A21304600F09FFFA0794FF4AA791B
:1027B000012801D028B10FE0882011F025FA5046F9
:1027C00003E0882011F020FA584611F039FAB4A23B
:1027D0000A21484600F088FFE0794FF4BE780128CE
:1027E00001D028B10FE0882011F00EFA504603E026
:1027F000882011F009FA584611F022FAA9A20A21FC
:10280000404600F071FF94F83300082872D9207A0E
:10281000012801D028B10FE0882011F0F5F95046C9
:1028200003E0882011F0F0F9584611F009FA9EA251
:102830008621642000F058FF607A012801D028B179
:102840000FE0882011F0E0F9504603E0882011F0F5
:10285000DBF9584611F0F4F994A286218C2000F09F
:1028600043FFA07A012801D028B10FE0882011F0A1
:10287000CBF9504603E0882011F0C6F9584611F014
:10288000DFF98BA28621B42000F02EFFE07A012828
:1028900001D028B10FE0882011F0B6F9504603E0CE
:1028A000882011F0B1F9584611F0CAF981A28621A9
:1028B000DC2000F019FF207B012801D028B10FE0B7
:1028C000882011F0A1F9504603E0882011F09CF90E
:1028D000584611F0B5F978A28621284600F004FF89
:1028E000607B012801D030B110E0882011F08CF914
:1028F000504604E034E0882011F086F9584611F083
:102900009FF96EA28621304600F0EEFEA07B0128E2
:1029100001D028B10FE0882011F076F9504603E08D
:10292000882011F071F9584611F08AF964A28621C5
:10293000484600F0D9FEE07B012801D028B10FE025
:10294000882011F061F9504603E0882011F05CF90D
:10295000584611F075F95BA28621404600F0C4FE8E
:1029600094F8330010286FD9207C4FF48177012828
:1029700001D028B10FE0882011F046F9504603E05D
:10298000882011F041F9584611F05AF94EA2394603
:10299000642000F0A9FE607C012801D028B10FE07E
:1029A000882011F031F9504603E0882011F02CF90D
:1029B000584611F045F945A239468C2000F094FEA6
:1029C000A07C012801D028B10FE0882011F01CF96B
:1029D000504603E0882011F017F9584611F030F9FD
:1029E0003BA23946B42000F07FFEE07C012801D0F4
:1029F00028B10FE0882011F007F9504603E0882045
:102A000011F002F9584611F01BF932A23946DC20C8
:102A100000F06AFE207D012801D028B10FE0882057
:102A200011F0F2F8504603E0882011F0EDF8584616
:102A300011F006F928A23946284600F055FE607DBF
:102A4000012802D030B110E0C6E1882011F0DCF896
:102A5000504603E0882011F0D7F8584611F0F0F8FE
:102A60001EA23946304600F03FFEA07D012801D06D
:102A700028B140E0882011F0C7F8504634E02FE03C
:102A800018030120935517003030310030303200E8
:102A900030303300303034003030350030303600E4
:102AA00030303700303038003030390030313000CD
:102AB00030313100303132003031330030313400C8
:102AC00030313500303136003031370030313800A8
:102AD00030313900303230003032310030323200A3
:102AE000882011F091F8584611F0AAF8C3A239468F
:102AF000484600F0F9FDE07D012801D028B10FE043
:102B0000882011F081F8504603E0882011F07CF80D
:102B1000584611F095F8BAA23946404600F0E4FD57
:102B2000207E4FF4BF77012801D028B10FE0882024
:102B300011F06AF8504603E0882011F065F8584615
:102B400011F07EF8AFA23946642000F0CDFD607E22
:102B5000012801D028B10FE0882011F055F8504627
:102B600003E0882011F050F8584611F069F8A6A249
:102B700039468C2000F0B8FDA07E012801D028B194
:102B80000FE0882011F040F8504603E0882011F053
:102B90003BF8584611F054F89CA23946B42000F096
:102BA000A3FDE07E012801D028B10FE0882011F0BC
:102BB0002BF8504603E0882011F026F8584611F013
:102BC0003FF893A23946DC2000F08EFD207F0128DB
:102BD00001D028B10FE0882011F016F8504603E02C
:102BE000882011F011F8584611F02AF889A23946C8
:102BF000284600F079FD607F012801D028B10FE060
:102C0000882011F001F8504603E0882010F0FCFF06
:102C1000584611F015F880A23946304600F064FDA0
:102C2000A07F012801D028B10FE0882010F0ECFF30
:102C3000504603E0882010F0E7FF584611F000F8F6
:102C400076A23946484600F04FFDE07F012801D0CA
:102C500028B10FE0882010F0D7FF504603E088200D
:102C600010F0D2FF584610F0EBFF6DA239464046F7
:102C700000F03AFD94F820004FF4FD77012801D0D0
:102C800028B10FE0882010F0BFFF504603E08820F5
:102C900010F0BAFF584610F0D3FF62A23946642004
:102CA00000F022FD94F82100012801D028B10FE0A6
:102CB000882010F0A9FF504603E0882010F0A4FF00
:102CC000584610F0BDFF58A239468C2000F00CFD8C
:102CD00094F82200012801D028B10FE0882010F0DC
:102CE00093FF504603E0882010F08EFF584610F006
:102CF000A7FF4EA23946B42000F0F6FC94F823005A
:102D0000012801D028B10FE0882010F07DFF504647
:102D100003E0882010F078FF584610F091FF44A29D
:102D20003946DC2000F0E0FC94F82400012801D0B2
:102D300028B10FE0882010F067FF504603E088209C
:102D400010F062FF584610F07BFF3AA23946284641
:102D500000F0CAFC94F82500012801D028B10FE04A
:102D6000882010F051FF504603E0882010F04CFFFF
:102D7000584610F065FF30A23946304600F0B4FCEA
:102D800094F82600012801D028B10FE0882010F027
:102D90003BFF504603E0882010F036FF584610F005
:102DA0004FFF26A23946484600F09EFC94F82700C3
:102DB000012801D028B10FE0882010F025FF5046EF
:102DC00003E0882010F020FF584610F039FF1CA2C5
:102DD0003946404600F088FC1A490120C870FEF7C9
:102DE00075FA94F8300038B117A000BF04F020FA4B
:102DF000BDE8F05F16F0E4B916A0F7E73032330013
:102E00003032340030323500303236003032370064
:102E10003032380030323900303330003033310056
:102E20003033320030333300303334003033350048
:102E30003033360030333700303338003033390028
:102E400030343000C80100204368616E6E656C202C
:102E500073657400CDA8B5C0C9E8D6C300000000F2
:102E600070B504461A481D4D00EB840010ED010AB0
:102E7000184800EB840050ED010A174800EB84006D
:102E800030EE600A50ED010AB4EEE00AF1EE10FAFD
:102E900009D3134800EB840050ED010AB4EEE00AB8
:102EA000F1EE10FA05DD0D48503890F82C0001289D
:102EB00007D088216FF07F4010F0ACFE002028552D
:102EC00070BD88214FF47F0010F0A4FE0120F6E7CA
:102ED00084090120F8FF0020F0030020680301208E
:102EE0005003002070B5374905460024086810F0EB
:102EF000450FFBD0410702D50324042003E0C0079F
:102F000004D00124204614F005FD59E014F03EFDE4
:102F1000A8422BD140F2FF5014F0FCFC002014F02A
:102F200057FD294908424BD0002801DA1C2070BD0A
:102F3000410001D5092070BD810001D50A2070BD76
:102F4000C10001D50B2070BD010101D50C2070BD61
:102F5000410101D50D2070BDC10101D50E2070BD0C
:102F6000010201D50F2070BD410201D5102070BDB6
:102F7000810201D5112070BDC10201D5122070BDA2
:102F8000010301D5132070BD410301D5142070BD8C
:102F9000810301D5152070BDC10301D5162070BD78
:102FA000010401D5172070BD410401D5182070BD62
:102FB000810401D5192070BD000701D51A2070BD0C
:102FC000204670BD342C014008E0FFFD10B50B48D1
:102FD0000024016811F0450FFBD0480702D50324F7
:102FE000042003E0C80705D00124204614F092FC19
:102FF000204610BD40F2FF50F8E70000342C01409D
:1030000070B50C46194906460025086810F0450FB2
:10301000FBD0410702D50324042003E0C00705D0FC
:103020000124204614F076FC204670BD14F0AEFC5E
:10303000B04212D140F2FF5014F06CFC002014F0AA
:10304000C7FC10F4604F03D0810404D5132070BD79
:10305000000C208007E0410401D5102070BD000461
:1030600001D50F2070BD284670BD0000342C0140F2
:1030700010B50A460C0601F07F0303EB830100EB59
:10308000C10102D501F58E7101E001F55D71D20932
:103090000B704A7021F03BFA002010BD0A4610B5B3
:1030A000090602F07F0306D503EB830100EBC101A3
:1030B00001F58E7105E002EB820100EBC10101F523
:1030C0005D7100248C700B70D2094A7021F006FAF1
:1030D000002010BD10B50A0604D501F07F0121F0D3
:1030E00031FB01E021F012FB002010BD70B50C4651
:1030F0000E0601F07F0505EB850100EBC10102D54D
:1031000001F58E7101E001F55D71E4090D704C70FF
:103110008A60CB7000D0CD80022B01D100220A71D1
:1031200021F0A8F9002070BD10B501F07F0404EB78
:10313000840100EBC101C1F88833C1F8802300236A
:10314000C1F88C3381F8753381F87443C37801F585
:103150005D71012B00D10A6114F0FF0F03D021F043
:1031600015FA002010BD21F017F9FAE700690022D6
:1031700061F30A1201681143016070470A4610B5F5
:10318000090602F07F0306D503EB830100EBC101C2
:1031900001F58E7105E002EB820100EBC10101F542
:1031A0005D7101248C700B70D2094A7021F0D6F940
:1031B000002010BD70B511F07F0404EB840100EB1A
:1031C000C1014FF0010581F81D5181F81C41C1F882
:1031D0002821C1F82C2101F58E714FF00002C1E9C0
:1031E000053203D021F0D2F9002070BD21F0D4F8CF
:1031F000FAE700002DE9F0410646002521F0E9FA42
:10320000074655E0F80751D03069EAB20369416BCF
:10321000D14006EB820201F00101926943EAC1113B
:1032200094680C40E1071AD00124426B04FA05F1BE
:103230008A43426306EB8500806984601F48E9B2D7
:103240000068426830469047F078012807D135B9C8
:1032500096F81101042802D1304621F0F9F8200730
:1032600004D506EB8500082480698460E00604D557
:1032700006EB8500102480698460600604D506EBA7
:103280008500402480698460A00704D506EB850092
:10329000022480698460200608D52946304600F063
:1032A0006DF906EB85018020896988607F086D1CB7
:1032B000002FA7D10120BDE8F081000070000020A0
:1032C0002DE9F0410646002421F089FA0746DFF88F
:1032D000988043E0F8073FD0E1B2304621F085FA0C
:1032E0000546C00725D006EB84000125416D8D60A1
:1032F000F17801290CD1406D016904EB840006EBE3
:10330000C000C1F31201D0F87C23511AC0F88C130D
:10331000D8F80000E1B2026830469047F078012802
:1033200007D134B996F81101052802D1304621F0B1
:103330008FF8A80704D506EB84000225406D856050
:10334000280709D5D8F8000081683046884706EB81
:1033500084010820496D88607F08641C002FB9D162
:103360000120BDE8F08100007000002070B5064625
:10337000C068816921F010018161F068056A05F07B
:103380000F0000EB800006EBC004C5F3434004F5DA
:103390005D74072821D2DFE800F0202004202020DF
:1033A000150047F6F070054217D0C5F30A152A46F6
:1033B0003046E16821F021FAE0682844E060A06925
:1033C000284409E0082206F2CC51304621F015FAD3
:1033D000A069C5F30A110844A061F068816941F051
:1033E00010018161012070BD38B5044600208DF8C0
:1033F000000094F812018DF800001548006841693A
:103400002046884720698068E2684FF40061516176
:10341000A17AD1B1C00718D094F81501012814D1B0
:103420009DF80000032810D1D4F80C01016841F088
:1034300001010160D4F80C01016841F00301016051
:103440000448016841F006010160012038BD000018
:103450007000002010ED00E070B504460069002502
:103460000126416821F0010141602946204621F0F2
:1034700069F90020FF2106E004EB8002936999605E
:10348000526D9160401C62788242F5D821694FF0FC
:10349000FF3088612846216966F30F0066F31F40FC
:1034A000C861216945F00B0048612169C1F88400B9
:1034B000216945F00B0008612169486420690168B1
:1034C00021F4FE610160204620F0C2FFE1684FF464
:1034D0008050486103480068016920468847012000
:1034E00070BD00007000002070B5044621F096F910
:1034F0000122002384F8122184F814311946402552
:1035000011E000BF01EB810004EBC00080F81D2139
:1035100080F81C11A0F8221180F81F31C0E949532E
:10352000491CC0F8303160788842EBD8002110E0A7
:1035300001EB810004EBC00282F8753382F874134A
:10354000A2F87A1382F87733C2E9DF53491CC2F834
:10355000883360788842EBD8204620F0F7FE20467A
:1035600020F0D4FD0021204621F0B8F9204620F0BB
:103570000DFE2046BDE8704021F0C0B82DE9F047AF
:103580000E46054601EB860005EBC004D4E94C016C
:10359000421AD4F8240104F58E74904200D20246F7
:1035A000D21C970805EB860923E000BFA0EB0108B9
:1035B000A168414500D2884608F1030087081FFA38
:1035C00088F3F2B22846E16821F09DF9E16801EB49
:1035D0000800E060A16901EB0800A0616169884210
:1035E00007D321780120884029694A6B82434A63C6
:1035F0000BE0D9F81800806980B2B84205D9D4E947
:103600000501814201D20028D0D10120BDE8F08718
:103610002DE9F041154680460C46154E4FF42077B3
:1036200019E0802A0BD21348B061214640460FF0C2
:1036300093FEB0696D1C8088204484B20BE00E4874
:10364000B0612A462146404600F0DEF8B069AD1C64
:103650008088204484B2BC4208D22A78002A05D04F
:10366000B0698088011989B28142DAD2BDE8F0815F
:1036700020020020F0020020300300202DE9F0415C
:10368000154680460C46154E4FF4207719E0802AE7
:103690000BD21348B061214640460FF05DFEB06981
:1036A0006D1C8088204484B20BE00E48B0612A462D
:1036B000214640460FF066FEB069AD1C808820446C
:1036C00084B2BC4208D22A78002A05D0B06980882A
:1036D000011989B28142DAD2BDE8F08120020020CE
:1036E000E8020020200300202DE9F0411546804625
:1036F0000C46154E4FF4207719E0802A0BD2134860
:10370000B061214640460FF027FEB0696D1C8088ED
:10371000204484B20BE00E48B0612A462146404660
:1037200000F018F8B069AD1C8088204484B2BC4217
:1037300008D22A78002A05D0B0698088011989B298
:103740008142DAD2BDE8F08120020020D8020020B8
:10375000380300202DE9F04116460F46804600242C
:103760000D4D0FE0327882420AD105EB41027078AC
:103770005178884204D139464046921C0FF0D6FE5B
:10378000641CA4B204EB440000EB041115F8110012
:103790008028E7D8BDE8F081F32C03082DE9F0413B
:1037A000154680460C46154E4FF4207719E0802AC6
:1037B0000BD21348B061214640460FF0CDFDB069F1
:1037C0006D1C8088204484B20BE00E48B0612A460C
:1037D0002146404600F018F8B069AD1C80882044AE
:1037E00084B2BC4208D22A78002A05D0B069808809
:1037F000011989B28142DAD2BDE8F08120020020AD
:1038000008030020280300202DE9F04116460F464A
:10381000804600240C4D0EE03278824209D14A19CC
:1038200070785178884204D139464046921C0FF096
:103830007DFE641CA4B204EB8400C0EB8411685CC0
:103840008028E9D8BDE8F081AE0F03082DE9F041EA
:10385000154680460C46154E4FF4207719E0802A15
:103860000BD21348B061214640460FF075FDB06998
:103870006D1C8088204484B20BE00E48B0612A465B
:1038800021464046FFF7C0FFB069AD1C8088204448
:1038900084B2BC4208D22A78002A05D0B069808858
:1038A000011989B28142DAD2BDE8F08120020020FC
:1038B00010030020280300202DE9F041204E15467A
:1038C0000C4680466BB3012B38D18821084610F096
:1038D000A1F928239022414620460FF0B9FEBDE809
:1038E000F04188216FF07F4010F094B9802A0BD20C
:1038F0001448B061214640460FF02EFDB0696D1CA2
:103900008088204484B20EE00F48B0612A462146E8
:1039100040460FF037FDB069AD1C8088204484B26A
:1039200001E04FF42077BC4208D22A78002A05D063
:10393000B0698088011989B28142D7D2BDE8F0818F
:1039400020020020F8020020200300202DE9F04191
:10395000204E15460C4680466BB3012B38D188218A
:10396000084610F057F91C236022414620460FF00C
:103970006FFEBDE8F04188216FF07F4010F04AB93A
:10398000802A0BD21448B061214640460FF0E4FC77
:10399000B0696D1C8088204484B20EE00F48B0618D
:1039A0002A46214640460FF0EDFCB069AD1C8088E8
:1039B000204484B201E04FF42077BC4208D22A7838
:1039C000002A05D0B0698088011989B28142D7D216
:1039D000BDE8F08120020020000300202003002029
:1039E0002DE9F041204E15460C4680466BB3012B65
:1039F00038D18821084610F00DF9142332224146AF
:103A000020460FF025FEBDE8F04188216FF07F4091
:103A100010F000B9802A0BD21448B061214640460C
:103A20000FF09AFCB0696D1C8088204484B20EE0CF
:103A30000F48B0612A46214640460FF0A3FCB0690A
:103A4000AD1C8088204484B201E04FF42077BC4252
:103A500008D22A78002A05D0B0698088011989B275
:103A60008142D7D2BDE8F08120020020E002002090
:103A70002003002010B50121CC05204611F06CFD7B
:103A80002046BDE81040002111F066BD034A014602
:103A9000002052680A4200D00120704700B0024066
:103AA00030B52A4900240A68294B1A400A600A687E
:103AB00003681A430A604A6B22F007024A634A6BA2
:103AC00043681A434A63426842B3012A2DD0022A4E
:103AD00030D0032AC26832D013010269446912024D
:103AE0002403856822431D4315438A6B15438D6368
:103AF0008269CA630A6C6FF30D020A640A6CC369B7
:103B00001A430A64828C4B6C03F040434B644B6C49
:103B1000006A034343EA02434B6430BDC268047D3C
:103B20001302028A12042406DBE7C2681302028A27
:103B30001204D6E7C26853010269D202D1E75301E9
:103B4000026944699202E403CBE7000000B002403E
:103B5000FCE0FCFF0248016841F001010160704790
:103B600000B0024014F008BE074A904201D2074854
:103B700001E005481038064A8B0001EA020101D530
:103B8000C16070478160704710640240006002406D
:103B90007D0F7D0F0029016802D041F0010101E095
:103BA00021F00101016070472DE9F043016821F027
:103BB000010101600021016041608160C16001611B
:103BC000212141613C493C4A3D251039904202D1B6
:103BD0008D60BDE8F083384A4FF474661832904225
:103BE00001D18E60F5E7344A4FF4741730329042B9
:103BF00001D18F60EDE7304A4FF0746C483290424B
:103C000002D1C1F808C0E4E72B4B2C4A603398423C
:103C100001D1CA60DDE7284C294B7834A04201D19C
:103C2000CB60D6E7DFF89080264C08F1900840453D
:103C300001D1CC60CDE7DFF880804FF03D5908F12D
:103C4000A808404502D1C1F80C90C2E71E49DFF830
:103C500078800839404501D10D60BAE71A4D183512
:103C6000A84201D10E60B4E7174D3035A84201D10A
:103C70000F60AEE7144D4835A84202D1C1F800C02C
:103C8000A7E7114D10496035091FA84201D10A600C
:103C90009FE70D4A7832904201D10B6099E70A4ABA
:103CA0009032904201D10C6093E7074AA8329042CB
:103CB0008FD1C1F800908CE7106002403D000020D9
:103CC000400F002000003D201064024000290168E0
:103CD00002D041F0200101E021F020010160704795
:103CE0000B0607D5436912B143F0800301E023F0CE
:103CF00080034361802908D0002A026801F01E0178
:103D000001D00A4300E08A430260704730B503687F
:103D1000124ACC6813400A682243D1E905452C4376
:103D20002243CC6922430C6A22434C6A22438C6AA8
:103D300022434C6B22438C6B22431A43026042693C
:103D400022F00703D1E90B2422431A4342610A6996
:103D500042604A6882608968C16030BD3F801CF063
:103D60000548C07A052803D0062801D0082802D1CA
:103D700002A022F0DFBC7047400200202E000000AD
:103D80002DE9F04FF84DF94C2946E87A91F80CC02E
:103D9000A5B00D282ED2DFE810F030004F132D0013
:103DA0002D00E50BE00D8D142D00B2112D002D001E
:103DB0002D000D0094F83300082802D0102802D0FE
:103DC00004E0102000E0082084F8330015F0F8F932
:103DD0006FF07F400FF034FF88200FF015FF94F84C
:103DE0003320E3A101A821F0D1FC01AAAA213220AD
:103DF0000FF0ECFA25B0BDE8F08FDB484FF4CD763C
:103E00004FF48177417BD9484FF4BF794FF4FD7A65
:103E100090F82D2090F827301893C37F1793C37D17
:103E20001693C37B159390F826301393837F2193C9
:103E3000837D1293837B239390F825301493437FE3
:103E40001193437D1093437B0F9390F824301D937F
:103E5000037F1C93037D1B93037B1A9390F82330FD
:103E60002493C37E2293C37C2093C37A1F9390F83C
:103E700022300E93837E0D93837C1E93837A199355
:103E800090F821300C93437E0B93437C0A93437A42
:103E9000099390F820E090F818B0037C007ABCF108
:103EA000290FA7D2DFE81CF02900C600490135021E
:103EB000BA024F032204B30449055C069A06D906E8
:103EC000160755079707D9071F0861088B08B90817
:103ED000E3080F093D096B099909C509DD09F509D1
:103EE0000D0A260A400A5A0A740A8D0AA60ABF0A4F
:103EF000D80AF20A0D0B280B430B9F480FF0A0FEC7
:103F000088200FF081FE94F82900022812D00128A1
:103F100012D0032812D0042812D0052812D0062867
:103F200012D0072812D0082812D0092812D00B2846
:103F300012D016E091A210E092A20EE093A20CE043
:103F400094A20AE095A208E096A206E097A204E0F7
:103F500098A202E099A200E09AA264212F200FF01B
:103F600035FA94F82D0020B1012836D0022850D01F
:103F70004BE0687B40B101280BD002280ED003280B
:103F800011D0042814D01CE0207822F073FB8FA2FB
:103F900013E0207A22F06EFB8DA20EE0207C22F04E
:103FA00069FB8CA209E0207E22F064FB8AA204E077
:103FB00094F8200022F05EFB88A20A2164200FF012
:103FC0003BFA94F8300030B185A000BF03F030F91F
:103FD000012001F0C5BA85A0F8E7687B10B101287F
:103FE00005D020E0207822F045FB78A203E0207E77
:103FF00022F040FB78A20A216420FFF73FFB12E089
:104000007AA000E076A003F013F9012005F08EF904
:10401000F0E6687B38B9207822F02CFB6BA20A21ED
:104020006420FFF761FB0120287394F8300000281A
:10403000E8D1E5E74D4F02263F7832B1012A4FD053
:10404000022AE2D100296AD087E241B101290BD0CE
:1040500002290DD0032910D0042913D0F4E73846E3
:1040600022F0D0FA59A211E022F0CCFA58A20DE0C9
:10407000184622F0C7FA57A208E0584622F0C2FAC2
:1040800055A203E0704622F0BDFA54A20A21642032
:104090000FF0D2F9687B40B101280BD002280ED076
:1040A000032811D0042814D0CEE7607822F0E2FA79
:1040B00051A213E0607A22F0DDFA50A20EE0607C9B
:1040C00022F0D8FA4EA209E0607E22F0D3FA4DA287
:1040D00004E094F8210022F0CDFA4BA20A2194E2E8
:1040E00011B101290DD0AFE7384622F08BFA37A283
:1040F0000A216420FFF7C2FA607822F0BBFA3EA2E0
:104100000BE0584622F07EFA33A20A216420FFF722
:10411000B5FA607E22F0AEFA3AA20A21F8E33846F8
:1041200022F070FA29A20A216420FFF7DDFA6078F4
:1041300022F0A0FA30A20A21EBE30C4803264078D3
:1041400032B1012A73D0022A7FF412AF51B17BE75A
:1041500049B101295FD0022963D003296AD004291B
:104160006ED071E7C3E051E0400200201803012047
:10417000253033640000000000FFFF0054432D4B46
:104180000000000054432D540000000054432D4A09
:104190000000000054432D4E0000000054432D4504
:1041A0000000000054432D530000000054432D52E2
:1041B0000000000054432D420000000050543130F4
:1041C00030000000317E35560000000030303100F4
:1041D0003030390030313700303235003033330081
:1041E0004368616E6E656C2073657400CDA8B5C0C0
:1041F000C9E8D6C300000000303032003031300052
:1042000030313800303236003033340022F0FAF9E1
:10421000AFF21C0219E0099822F0F4F9AFF224027F
:1042200013E00A9822F0EEF9AFF22C020DE03AE02A
:1042300000E005E00B9822F0E5F9AFF2380204E067
:104240000C9822F0DFF9AFF240020A21B4200FF0FF
:10425000F3F8687B40B101280BD002280ED0032868
:1042600011D0042814D0EFE6A07822F003FAF8A2C7
:1042700013E0A07A22F0FEF9F6A20EE0A07C22F074
:10428000F9F9F5A209E0A07E22F0F4F9F3A204E026
:1042900094F8220022F0EEF9F1A20A2183E200BF95
:1042A0000FF0CAF8D0E611B101290DD0CCE622F00A
:1042B000A9F9AFF2BC020A218C20FFF7DFF9A07840
:1042C00022F0D8F9E2A20CE00B9822F09BF9AFF2B1
:1042D000CC020A218C20FFF7D1F9A07E22F0CAF986
:1042E000DEA20A21F1E300BFFFF7C8F9ACE622F035
:1042F00089F9AFF2FC020A218C20FFF7F5F9A078CA
:1043000022F0B8F9D2A20A21F8E300BFFFF7ECF9D6
:104310009AE6D4480426807832B1012A53D0022A82
:104320007FF426AE89B38FE641B101290AD0022974
:104330000DD0032910D0042913D085E622F062F9AC
:10434000C3A212E0199822F05DF9C2A20DE01E98F6
:1043500022F058F9C0A208E00D9822F053F9BFA24C
:1043600003E00E9822F04EF9BDA20A214FF48270AC
:104370000FF062F8687B48B101280CD002280FD0FA
:10438000032812D0042815D05EE63AE0E07822F047
:1043900071F9B5A213E0E07A22F06CF9B3A20EE055
:1043A000E07C22F067F9B2A209E0E07E22F062F937
:1043B000B0A204E094F8230022F05CF9AEA20A2136
:1043C0004FF4AA706CE711B101290CD03CE622F041
:1043D00019F99FA20A21B420FFF750F9E07822F0E2
:1043E00049F9A1A20BE00D9822F00CF99BA20A2139
:1043F000B420FFF743F9E07E22F03CF99DA20A21A8
:10440000F3E322F0FFF892A20A21B420FFF76CF93F
:10441000E07822F02FF994A20A21E7E39148C078CE
:1044200032B1012A59D0022A7FF4F2ADF1B375E01E
:1044300041B101290AD002290DD0032910D0042945
:1044400013D01BE022F0DEF887A212E01F9822F0C2
:10445000D9F886A20DE0209822F0D4F884A208E0D2
:10446000229822F0CFF883A203E0249822F0CAF821
:1044700081A20A214FF4AA700EF0DEFF00200FF097
:10448000DFFB7E480FF0C0FB94F8290002286FD0B4
:1044900001286ED003286DD004286CD005286BD07D
:1044A00006286AD0072869D0082800E03AE06FD0D3
:1044B00009286ED00B286DD003E064212F200EF068
:1044C00085FF94F8300008B16DA000E071A002F003
:1044D000AFFE07F0E3FB0020A7E211B101290CD0E9
:1044E0001CE022F08FF860A20A21DC20FFF7C6F85A
:1044F000207922F0BFF86BA20BE0229822F082F81C
:104500005CA20A21DC20FFF7B9F8207F22F0B2F884
:1045100065A20A214FF48270FFF7B0F8012004F081
:1045200005FF6AE222F06EF84FA20A21DC20FFF7B5
:10453000DBF8207922F09EF85AA20A214FF482700B
:10454000FFF7D2F8EAE747480626007932B1012A98
:104550005DD0022A7FF40CADD9B308E379B101290B
:1045600011D0022917D003291AD004291DD0FEE248
:1045700068E26AE26CE26EE270E272E274E222F0F9
:1045800041F848A215E01A9822F03CF847A210E042
:104590006DE26FE271E21B9822F034F844A208E069
:1045A0001C9822F02FF840A203E01D9822F02AF870
:1045B00040A24FF4A57164200EF03EFF687B48B125
:1045C00001280CD002280FD0032812D0042815D0BF
:1045D000CDE27BE0607922F04DF837A213E0607BFA
:1045E00022F048F835A20EE0607D22F043F834A2B4
:1045F00009E0607F22F03EF832A204E094F8250042
:1046000022F038F830A24FF4A571B42048E611B179
:1046100001290DD0ABE221F0F5FF22A20A214FF4CF
:104620008270FFF72BF8607922F024F822A20CE0C8
:104630001C9821F0E7FF1CA20A214FF48270FFF7BB
:104640001DF8607F22F016F81EA20A21ADE30000DB
:104650003030330030313100303139003032370002
:10466000303335001803012030303400303132004F
:1046700030323000303238003033360000FFFF0077
:10468000546865726D6F636F75706C65206D6F64D3
:10469000656C0000C8C8B5E7C5BCD0CDBAC5D1A10E
:1046A000D4F1000030303500303239003031330081
:1046B00030323100303337003030360030313400A2
:1046C00030323200303330003033380021F09AFF7E
:1046D000AFF230020A214FF48270FFF705F86079DB
:1046E00021F0C8FFAFF230020A2171E3F748072634
:1046F000407932B1012A59D0022A7FF439ACB1B3E2
:10470000FBE341B101290BD002290FD0032913D0BB
:10471000042917D0F1E321F075FFAFF2640216E02F
:104720000F9821F06FFFAFF26C0210E0109821F0AB
:1047300069FFAFF274020AE0119821F063FFAFF253
:104740007C0204E0149821F05DFFAFF284024FF484
:10475000A571B4200EF070FE687B48B101280CD022
:1047600002280FD0032812D0042815D0C5E33FE05B
:10477000A07921F07FFFD6A213E0A07B21F07AFF81
:10478000D4A20EE0A07D21F075FFD3A209E0A07FA6
:1047900021F070FFD1A204E094F8260021F06AFF16
:1047A000CFA24FF4A5714FF4827079E511B10129C0
:1047B0000ED0A2E321F026FFAFF204120A214FF43B
:1047C0009670FEF75BFFA07921F054FFC0A20DE0C8
:1047D000119821F017FFAFF214120A214FF49670CE
:1047E000FEF74CFFA07F21F045FFBCA20A211EE38B
:1047F00021F008FFAFF240120A214FF49670FEF745
:1048000073FFA07921F036FFB1A20A2122E3AF485D
:10481000807932B1012A57D0022A7FF4F6AB91B3E6
:1048200089E041B101290AD002290DD0032910D015
:10483000042913D07FE021F0E5FEA5A212E0239821
:1048400021F0E0FEA3A20DE0129821F0DBFEA2A26F
:1048500008E0219821F0D6FEA0A203E0139821F0F1
:10486000D1FE9FA24FF4A5714FF482700EF0E4FDCB
:10487000687B48B101280CD002280FD0032812D041
:10488000042815D057E045E0E07921F0F3FE95A229
:1048900013E0E07B21F0EEFE93A20EE0E07D21F03C
:1048A000E9FE92A209E0E07F21F0E4FE90A204E09C
:1048B00094F8270021F0DEFE8EA24FF4A5714FF48C
:1048C000AA700EF0B9FD36E011B101290DD032E029
:1048D00021F098FE7EA20A214FF4AA70FEF7CEFEC8
:1048E000E07921F0C7FE7FA20CE0219821F08AFE3A
:1048F0007AA20A214FF4AA70FEF7C0FEE07F21F0F1
:10490000B9FE7BA20A214FF4BE70FEF7B7FE12E09B
:1049100050E160E121F076FE6DA20A214FF4AA7009
:10492000FEF7E2FEE07921F0A5FE6EA20A214FF427
:10493000BE70FEF7D9FE0820D4E26448C07932B1D7
:10494000012A5CD0022A7FF455AA91B302E141B159
:1049500001290AD002290DD0032910D0042913D02F
:104960004BE021F04FFE5FA212E0159821F04AFEC5
:104970005DA20DE0169821F045FE5CA208E01798B4
:1049800021F040FE5AA203E0189821F03BFE59A204
:104990004FF4A5714FF4AA700EF04EFD687B48B13C
:1049A00001280DD0022811D0032815D0042819D0D1
:1049B00023E065E0207921F05DFEAFF2183217E0C8
:1049C000207B21F057FEAFF21C3211E0207D21F058
:1049D00051FEAFF224320BE0207F21F04BFEAFF20C
:1049E000383205E094F8240021F044FEAFF23C3266
:1049F0004FF4A57164200EF01FFD052015E0C1B134
:104A00000129A0D1179821F0FDFD39A20A214FF408
:104A1000BE70FEF733FE207E21F02CFEAFF648027A
:104A20000A216420FEF72AFE0120287325B0BDE884
:104A3000F08F21F0E7FD2BA20A214FF4BE70FEF7A4
:104A40001DFE1BE5AFF6CC0237E5AFF6C80234E534
:104A5000AFF6C80231E5AFF6C4022EE5AFF6C402E8
:104A60002BE5AFF6C00228E5AFF6C00225E5AFF6AC
:104A7000BC0222E5AFF6BC021FE5AFF6B8021CE5AA
:104A800021F0C0FD17A20A214FF4BE70FEF72CFEE4
:104A900000200FF0D5F818480FF0B6F894F8290068
:104AA00002282CD001282DD003282ED004282FD066
:104AB000052830D0062831D0072832D0082833D036
:104AC000092834D00B2835D03AE0B3E01803012090
:104AD0003030370030313500303233003033310080
:104AE0003033390030303800303136003032340065
:104AF000303332003034300000FFFF00ABE0AFF65F
:104B0000841219E0AFF6841216E0AFF6801213E0BB
:104B1000AFF6801210E0AFF67C120DE0AFF67C121B
:104B20000AE0AFF6781207E0AFF6781204E0AFF6CD
:104B3000741201E0AFF6741264212F200EF046FCCF
:104B400094F8300048B1AFF2C84000BF02F070FBEB
:104B50000020287307F0A2F868E7AFF2C840F5E735
:104B60000A26012A04D0022A7FF44FAA29B3C4E1FD
:104B700011B101290ED0C0E121F044FDAFF6B01211
:104B8000D2216420FEF77AFD607A21F073FDAFF642
:104B900094120EE0704621F035FDAFF6C012D2211E
:104BA0006420FEF76BFD94F8210021F063FDAFF661
:104BB000A812D2218C20FFF797BB21F023FDAFF67E
:104BC000F01286216420FEF78FFD607A21F052FDFD
:104BD000AFF6D81286218C20FFF798BB0B26012A4E
:104BE00005D0022AC0D139B387E160E070E011B18D
:104BF00001290FD081E1099821F004FDAFF60422CC
:104C0000D2218C20FEF73AFDA07A21F033FDAFF2DD
:104C1000BC520EE00C9821F0F5FCAFF61422D22124
:104C20008C20FEF72BFD94F8220021F023FDAFF23B
:104C3000D052D221B420BEE7099821F0E3FCAFF6B0
:104C4000442286218C20FEF74FFDA07A21F012FD30
:104C5000AFF200628621B420BEE70C26012A03D001
:104C6000022ABFD129B348E111B101290FD044E193
:104C7000199821F0C7FCAFF22462D221B420FEF7CC
:104C8000FDFCE07A21F0F6FCAFF220620EE00E9817
:104C900021F0B8FCAFF23862D221B420FEF7EEFC6E
:104CA00094F8220021F0E6FCAFF23462D221DC203D
:104CB00081E7199821F0A6FCAFF268628621B42042
:104CC000FEF712FDE07A21F0D5FCAFF2606286219A
:104CD000DC2081E70D26012A03D0022AC1D131B39D
:104CE0000BE111B101290FD007E11F9821F08AFCD7
:104CF000AFF28862D221DC20FEF7C0FC207B21F0DD
:104D0000B9FCAFF258620EE0249821F07BFCAFF2C0
:104D10009862D221DC20FEF7B1FC94F8240021F047
:104D2000A9FCAFF27062D2214FF4827043E71F9862
:104D300021F068FCAFF2CC628621DC20FEF7D4FCC7
:104D4000207B21F097FCAFF29C6286214FF48270A9
:104D500042E70E26012A03D0022ABFD141B3CCE09C
:104D600011B1012910D0C8E01A9821F04BFCAFF224
:104D7000C462D2214FF48270FEF780FC607B21F088
:104D800079FCAFF2C8620FE01D9821F03BFCAFF256
:104D9000DC62D2214FF48270FEF770FC94F825009B
:104DA00021F068FCAFF2E062D2214FF4967002E786
:104DB0001A9821F027FCAFF20C7286214FF4827012
:104DC000FEF792FC607B21F055FCAFF21072862159
:104DD0004FF4967000E70F26012A03D0022ABCD1B7
:104DE00041B38AE011B1012910D086E00F9821F07B
:104DF00009FCAFF23872D2214FF49670FEF73EFCF8
:104E0000A07B21F037FCAFF234320FE0149821F090
:104E1000F9FBAFF24C72D2214FF49670FEF72EFCE4
:104E200094F8260021F026FCAFF24C32D2214FF448
:104E3000AA70C0E60F9821F0E5FBAFF280728621E0
:104E40004FF49670FEF750FCA07B21F013FCAFF2FC
:104E50007C3286214FF4AA70BEE6012A03D0022AD2
:104E6000BDD151B33DE011B1012910D039E02398F3
:104E700021F0C8FBAFF2A432D2214FF4AA70FEF7A2
:104E8000FDFBA07B21F0F6FBAFF2A4320FE01398FC
:104E900021F0B8FBAFF2B832D2214FF4AA70FEF77E
:104EA000EDFB94F8270021F0E5FBAFF2B832D221F8
:104EB0004FF4BE70FEF7E2FB13E0239821F0A2FB53
:104EC000AFF2F03286214FF4AA70FEF70DFCE07BC2
:104ED00021F0D0FBAFF2F03286214FF4BE70FEF726
:104EE00003FC10203CE30926012A03D0022AB7D193
:104EF00049B302E021B1012912D02E73FFF785B822
:104F0000159821F07FFBAFF22042D2214FF4BE7002
:104F1000FEF7B4FB207A21F0ADFBAFF64C520FE068
:104F2000189821F06FFBAFF23442D2214FF4BE70DB
:104F3000FEF7A4FB94F8200021F09CFBAFF664522E
:104F4000D221642037E6159821F05CFBAFF268426D
:104F500086214FF4BE70FEF7C7FB207A21F08AFB52
:104F6000AFF694528621642036E64FF01208012AEB
:104F700003D0022AC2D189B136E1184621F042FBA2
:104F8000AFF6B05231466420FEF778FB607C21F02A
:104F900071FBAFF6945231468C2028E0184621F080
:104FA00031FBAFF6D05239466420FEF79DFB607CA2
:104FB00021F060FBAFF6B85239468C202AE04FF062
:104FC0001308012A03D0022A98D199B10CE10A985A
:104FD00021F018FBAFF6D85231468C20FEF74EFB7D
:104FE000A07C21F047FBAFF690123146B420FEF7CB
:104FF00045FBF9E00A9821F005FBAFF6FC52394673
:105000008C20FEF771FBA07C21F034FBAFF6B812C8
:105010003946B420FEF768FBE6E04FF01408012A99
:1050200003D0022AA6D189B1DEE01E9821F0EAFA67
:10503000AFF6DC123146B420FEF720FBE07C21F015
:1050400019FBAFF6D4123146DC20D0E71E9821F0D0
:10505000D9FAAFF6FC123946B420FEF745FBE07CE6
:1050600021F008FBAFF6F8123946DC20D2E74FF00A
:105070001508012A03D0022AA6D191B1B4E02098E4
:1050800021F0C0FAAFF618223146DC20FEF7F6FA1E
:10509000207D21F0EFFAAFF6E81231464FF482702E
:1050A000A5E7209821F0AEFAAFF63C223946DC2085
:1050B000FEF71AFB207D21F0DDFAAFF60C2239460F
:1050C0004FF48270A6E74FF01608012A03D0022A97
:1050D000A8D199B188E01B9821F094FAAFF630225C
:1050E00031464FF48270FEF7C9FA607D21F0C2FAB2
:1050F000AFF6342231464FF4967078E71B9821F0D2
:1051000081FAAFF6542239464FF48270FEF7ECFA7A
:10511000607D21F0AFFAAFF6582239464FF4967011
:1051200078E74FF01708012A03D0022AA4D199B1D9
:105130005AE0109821F066FAAFF67C2231464FF41F
:105140009670FEF79BFAA07D21F094FAAFF2786298
:1051500031464FF4AA704AE7109821F053FAAFF69F
:10516000A02239464FF49670FEF7BEFAA07D21F0DA
:1051700081FAAFF29C6239464FF4AA704AE74FF0C9
:105180001808012A03D0022AA2D199B12CE0129862
:1051900021F038FAAFF2C06231464FF4AA70FEF740
:1051A0006DFAE07D21F066FAAFF2C06231464FF44D
:1051B000BE701CE7129821F025FAAFF2E46239467E
:1051C0004FF4AA70FEF790FAE07D21F053FAAFF2A7
:1051D000E46239464FF4BE701CE74FF01108012A13
:1051E00005D0022AA2D199B185F80C8086E61698DE
:1051F00021F008FAAFF20C7231464FF4BE70FEF7A0
:105200003DFA207C21F036FAF74A31466420EEE67A
:10521000169821F0F7F9AFF22C7239464FF4BE70B0
:10522000FEF762FA207C21F025FAEF4A3946642025
:10523000F0E6022ADAD191B9584621F0E3F9EA4AB8
:105240004E46121D49466420FEF74EFA607E21F05C
:1052500011FAE54A314630328C20FEF745FA1A2021
:105260007EE1022AC2D191B90B9821F0CBF9DE4A36
:105270004E46303249468C20FEF736FAA07E21F0A9
:10528000F9F9AFF628423146B420FEF72DFA1B207B
:1052900066E1022AAAD191B90D9821F0B3F9AFF6CF
:1052A00044424E464946B420FEF71EFAE07E21F005
:1052B000E1F9AFF640423146DC20FEF715FA1C203A
:1052C0004EE1022A92D199B9229821F09BF9AFF6CA
:1052D0005C424E464946DC20FEF706FA207F21F06C
:1052E000C9F9AFF63C4231464FF48270FEF7FCF943
:1052F0001D2035E1022A9DD1A1B91C9821F082F927
:10530000AFF65C424E4649464FF48270FEF7ECF928
:10531000607F21F0AFF9AFF6544231464FF49670FA
:10532000FEF7E2F91E201BE1022A9BD1A1B91198D8
:1053300021F068F9AFF674424E4649464FF4967034
:10534000FEF7D2F9A07F21F095F9AFF67002314651
:105350004FF4AA70FEF7C8F91F2001E1022A99D183
:10536000A1B9219821F04EF9AFF690024E46494678
:105370004FF4AA70FEF7B8F9E07F21F07BF9AFF6A1
:10538000900231464FF4BE70FEF7AEF92020E7E000
:10539000022A97D199B9179821F034F9AFF6B002E3
:1053A0004E4649464FF4BE70FEF79EF9207E21F02E
:1053B00061F98D4A3146121D6420FEF795F91920D6
:1053C000CEE0022A97D199B9704621F01BF9864A9E
:1053D0005646083251466420FEF786F994F82100BB
:1053E00021F048F9804A314634328C20FEF77CF9AE
:1053F0002220B5E0022A98D199B90C9821F002F93F
:10540000794A5646343251468C20FEF76DF994F8AD
:10541000220021F02FF9AFF6B8523146B420FEF742
:1054200063F923209CE0022A99D199B90E9821F0C2
:10543000E9F8AFF6D45256465146B420FEF754F977
:1054400094F8230021F016F9AFF6D4523146DC204F
:10545000FEF74AF9242083E0022A9AD1A1B92498C0
:1054600021F0D0F8AFF6F05256465146DC20FEF758
:105470003BF994F8240021F0FDF8AFF6C85231460C
:105480004FF48270FEF730F9252069E0022A99D1A5
:10549000A9B91D9821F0B6F8AFF6E8525646514624
:1054A0004FF48270FEF720F994F8250021F0E2F81D
:1054B000AFF6EC5231464FF49670FEF715F9262000
:1054C0004EE0022A97D1A9B9149821F09BF8AFF6C3
:1054D0000862564651464FF49670FEF705F994F867
:1054E000260021F0C7F8AFF6082231464FF4AA7023
:1054F000FEF7FAF8272033E0022A95D1A9B91398CC
:1055000021F080F8AFF62822564651464FF4AA7093
:10551000FEF7EAF894F8270021F0ACF8AFF62C2259
:1055200031464FF4BE70FEF7DFF8282018E0022A5B
:1055300093D1A1B9189821F065F8AFF648225646E4
:1055400051464FF4BE70FEF7CFF894F8200021F0DA
:1055500091F8254A314608326420FEF7C5F821202B
:105560002873CBE44FF4FA76BCF1320F71D016DC1D
:10557000BCF12C0F48D0BCF12D0F6BD0BCF12E0F1D
:1055800069D0BCF1310F7FF451AA21F05DF894F895
:105590002E0040B301286FD002286ED07AE1BCF112
:1055A0005F0F6BD0BCF1610F69D0BCF1620FEAD123
:1055B00021F04AF894F83B3094F83A200BA101A866
:1055C000303420F0E3F801AA9621F8200DF0FEFE19
:1055D000607926F0B1F92078D0B307A001F028FE59
:1055E0003320FFF722BA3FE1D441000825302E32A4
:1055F000643A25302E3264005265636F726420690C
:105600006E74657276616C0021F01EF894F82C00BF
:10561000002894F830001FD018B3F9A29621322048
:105620000DF0D4FE21F036F894F82A00002894F802
:10563000300018D0E0B1F2A296215A200DF0C6FE3B
:1056400094F83000B0B1EFA001F0F2FD2D20C8E7D2
:1056500008E147E114E05FE008B1EEA2DEE7EEA268
:10566000DCE7EFA2DAE708B1EAA2E5E7EAA2E3E7BE
:10567000EBA2E1E7ECA0E7E7FDE003E196E0C6E09E
:1056800020F0E2FF94F82A00002894F8300027D098
:1056900058B3DBA296215A200DF098FEE54801464A
:1056A0000EF0B8FA1F2318227F2196200DF0D0FFAC
:1056B00094F82B0005281AD004284FF0000020D0C1
:1056C0000EF0BEFADCA29B217F200DF07FFE94F845
:1056D0003000F8B1D9A000BF01F0AAFD2E2080E76C
:1056E00008B1CCA2D6E7CCA2D4E7CDA2D2E7002065
:1056F0000EF0A6FAD7A296217F20FDF7F5FFD6A2DD
:10570000E1E70EF09DFAD3A296217F20FDF7ECFF92
:10571000BFA2D8E7D1A0DFE7882108460EF07AFAC9
:105720001F2318227F2196200DF092FF94F82B0062
:1057300005281FD00428BF4826D00EF081FABEA24B
:105740009B217F200DF042FE20F0A4FF94F836004C
:10575000002894F8300020D020B3A9A29621AA20D6
:105760000DF034FE94F83000F0B1C0A001F060FDFF
:105770005F2036E7AF480EF063FAB6A296217F208D
:10578000FDF7B2FFB4A2DBE70EF05AFAB1A2962100
:105790007F20FDF7A9FF9EA2D2E708B19DA2DDE719
:1057A0009DA2DBE79EA2D9E7B3A0DFE720F04CFF84
:1057B00094F83600002894F830001FD018B390A257
:1057C0009621AA200DF002FE20F064FF94F83930F3
:1057D00094F83820AFF2EC1101A830341FF0D6FF56
:1057E00001AA9621D0200DF0F1FD207868B1A5A086
:1057F00001F01EFD012068706120F2E608B185A26B
:10580000DEE785A2DCE786A2DAE7A0A0F0E720F0D9
:105810001BFF94F8393094F83820AFF2302101A8FA
:1058200030341FF0B3FF01AA9621D0200DF0CEFD39
:1058300020F030FFE37AA27AAFF2502101A81FF0E6
:10584000A5FF01AA9621F8200DF0C0FD207838B1FF
:1058500092A000BF01F0ECFC012068706220C0E65D
:105860008FA0F7E792A0B9E694F8300008B194A2AF
:105870000CE095A20AE094F8300008B194A205E08B
:1058800094A203E094F8300090B194A23146322003
:105890000DF09CFD20F0FEFE94F82F0050B1012881
:1058A0000AD002280AD003280AD004280AD00EE021
:1058B0008CA2EBE78DA206E08EA204E08FA202E0AC
:1058C00090A200E091A2314657200DF07FFD94F8A0
:1058D000300028B18FA000BF01F0AAFC322080E682
:1058E00091A0F9E720F0B0FE94F82F0040B1012814
:1058F00008D0022808D0032808D0042808D00CE0DB
:105900007AA206E07BA204E07CA202E07DA200E095
:105910007EA2314657200DF059FD20F0BBFE94F8D1
:105920003700002894F830000ED090B134A23146F0
:1059300082200DF04BFD94F8300060B17DA000BFD7
:1059400001F076FC60204CE608B132A2EFE732A20B
:10595000EDE733A2EBE779A0F2E77B4C7B4E7C4886
:1059600094ED212AD6ED214AC07B96ED194AD6ED59
:10597000113A96ED093AD6ED012AD4ED191A94EDB3
:10598000111AD4ED090A94ED010AACF1380CBCF1FE
:105990000F0FBFF44BA8DFE80CF00AF6E8E7E6E5E6
:1059A000E408E3E2E1E0DFDEDD00FFF73FB840B10D
:1059B00001280CD0022812D0032818D004281ED0A9
:1059C000DFE0022021F0B2FC94ED000AD6E0B0EE58
:1059D000600A022021F0AAFC94ED080ACEE0B0EEA5
:1059E000410A022021F0A2FC94ED100AC6E0B0EEBC
:1059F000610A022021F09AFC94ED180ABEE0B6E09C
:105A00004F4E000042757A7A6572204F4E2F4F46F6
:105A1000460000004F464600B9D8B1D5000000004E
:105A2000B4F2BFAA00000000B7E4C3F9C6F7C9E8A2
:105A3000D6C3000000FFFF004B00000053656C65FB
:105A400063742074656D706572617475726520751C
:105A50006E6974006F00000043000000CEC2B6C83B
:105A6000B5A5CEBBD1A1D4F1000000005472696786
:105A70002054696D65720000B6A8CAB1B2C9BCAF46
:105A8000000000005354415254000000B2C9BCAFA2
:105A9000BFAACABCCAB1BCE400000000454E440025
:105AA000B2C9BCAFBDE1CAF8CAB1BCE40000000095
:105AB000BCC7C2BCBCE4B8F4CAB1BCE4000000007E
:105AC0004641535400000000BFECCBD90000000059
:105AD0004D454400D6D0CBD900000000534C4F5761
