:020000040800F2
:1000000000110120C1010008C3380108E90A0108F4
:10001000C1380108F91100086B180208000000003F
:10002000000000000000000000000000E56601087C
:100030009162000800000000A5390108256B010845
:10004000DB010008DB010008DB010008DB01000820
:10005000DB010008DB010008DB010008DB01000810
:10006000DB010008DB010008DB010008DB01000800
:10007000DB010008DB010008DB010008DB010008F0
:10008000DB010008DB010008DB010008DB010008E0
:10009000DB010008DB010008DB010008DB010008D0
:1000A000DB010008DB010008DB010008DB010008C0
:1000B000DB010008DB010008DB010008DB010008B0
:1000C000DB010008DB010008DB010008DB010008A0
:1000D000DB01000811000208DB010008DB01000859
:1000E000DB010008DB010008DB010008DB01000880
:1000F000DB010008DB010008DB010008DB01000870
:10010000DB010008DB010008DB010008DB0100085F
:10011000DB010008DB010008BD6B0108DB01000802
:10012000DB010008DB010008DB010008DB0100083F
:10013000DB010008DB010008DB010008DB0100082F
:10014000DB010008DB010008DB0100086939010858
:10015000DB010008DB010008DB010008DB0100080F
:10016000DB010008DB01000881390108753901084D
:10017000DB0100088D390108DB010008DB01000804
:10018000DB010008DB010008DB010008DB010008DF
:10019000DB010008DB010008DB010008DB010008CF
:1001A000DB010008DB010008DB010008DFF80CD0F0
:1001B00000F012FC0048004725370208001101201A
:1001C0000648804706480047FEE7FEE7FEE7FEE7F1
:1001D000FEE7FEE7FEE7FEE7FEE7FEE7616B0108EC
:1001E000AD010008D2B201E000F8012B491EFBD29C
:1001F00070470022F6E710B513460A460446194632
:10020000FFF7F0FF204610BD421E12F8013F002B01
:10021000FBD111F8013B02F8013B002BF9D17047EB
:1002200010B5044604E00B7800F8013B03B1491C0B
:10023000521EF8D2204610BD421C10F8011B0029A6
:10024000FBD1801A704710B5002200E0521C835C7D
:100250008C5CA34201D1002BF8D1D8B2E1B2401A94
:1002600010BD034611F8012B00F8012B002AF9D12B
:100270001846704770B5064622F0B4F90468054682
:100280000A220021304600F0ABFA2C6070BD2DE947
:10029000FE4F804681EA0300C00F0C46009021F01B
:1002A000004123F00045B8EB0200A94105D24046C9
:1002B000214690461C460B46024623F00040104360
:1002C00047D0270DC7F30A00C3F30A510290401A22
:1002D000019040286BDAC3F3130040F4801B0098B0
:1002E000924620B10023D2EB030A63EB0B0B01987B
:1002F0005946C0F14002504600F0F3F906460D465B
:1003000050465946019A00F00BFA10EB0800614183
:10031000002487EA115284EAE7731A4340D0009A16
:1003200062B3019A012A4FEA075215DC001B61EB08
:1003300002014FF0004202EA0752CDE90042001CE0
:1003400041F5801132462B4600F0C8FA03B0BDE8F3
:10035000F08F40462146F9E7001B61EB0201001CCB
:1003600041F5801300185B412018A2F5001747EBF8
:10037000030140EAD570B6196D4111E06D084FEAEE
:10038000360645EAC0754FEA0752001B61EB0201D1
:10039000001C41F5801149084FEA30000019514115
:1003A00032462B4603B0BDE8F04F00F088BA009803
:1003B000012240000023D0EB020263EBE0730098BF
:1003C00021464FEAE074B8EB000061EB0401E9E775
:1003D00083F000435BE781F0004158E72DE9FE4FD1
:1003E00081EA030404F0004421F0004100944FF03E
:1003F000000B23F0004350EA01045ED052EA0304EC
:100400005BD0C3F30A54C1F30A552C44A4F2F3346D
:100410000194A0FB0254C1F3130141F48011C3F312
:10042000130343F4801301FB024400FB034E840AD0
:10043000970A44EA815447EA8357A4FB0768029568
:100440008D0A05FB07854FEA932C04FB0C54270506
:10045000029D4FEA065847EA1637B5EB08056EEBE2
:10046000070C870E920E47EA811742EA8312A7FB18
:100470000201B6EB0B0164EB00042B0D43EA0C33D5
:100480005E1844EB1C50DA465146E7FB0201C5F307
:1004900013044FEA0B3343EA14534FEA0432019C2E
:1004A00043EA0603A4F10C040294009CCDE900B4D5
:1004B00000F014FA03B0BDE8F08F00200146F9E720
:1004C0002DE9F04D81EA030404F0004B21F00045D2
:1004D00014464FF0000A23F0004150EA050220D0F4
:1004E00054EA01021DD0C5F30A570246C5F31303AF
:1004F000C1F31300C1F30A5640F4801543F480138E
:10050000A7EB0608101BD64608F2FD3873EB050072
:1005100002D308F1010801E092185B41B8F1000F25
:1005200003DA00200146BDE8F08D00204FF4801171
:10053000064684460EE0171B73EB050705D3121B16
:1005400063EB050306434CEA010C49084FEA30000F
:1005500092185B4150EA0107EDD152EA030012D034
:1005600082EA040083EA0501084305D0101BAB4171
:1005700006D20122002306E000224FF0004302E0F1
:100580006FF0010253101AEB06004CEB085110EB10
:100590000A0041EB0B01BDE8F04D00F090B90EB53B
:1005A00040F2334102910021CDE900110A460B4689
:1005B00000F094F903B000BD70B5C1F30A5201F028
:1005C00000450024C1F3130140F2FF3341F48011D0
:1005D0009A4201DA002070BD40F233439A42A2F2FF
:1005E000334203DC524200F08BF800E090402C4391
:1005F000F1D0404270BD00F0004230F000400AD01F
:10060000C10D01F56071C0F3160042EA0151C20844
:1006100040071143704700200146704701F0004336
:1006200030B421F0004150EA010206D00A0DA2F5D3
:100630006072C1F31301002A02DC30BC0020704755
:10064000440F44EAC104C100E01830BC00EBC250C2
:1006500000F0FEB830B50B460146002020220124F0
:1006600009E021FA02F59D4205D303FA02F5491B80
:1006700004FA02F52844151EA2F10102F1DC30BD96
:100680002DE9F05F0546002092469B4688460646C7
:10069000814640241BE0284641464746224600F05A
:1006A0002FF853465A46C01A914110D311461846A6
:1006B000224600F016F82D1A67EB01084F46224635
:1006C0000120002100F00DF817EB00094E41201E1B
:1006D000A4F10104DFDC484631462A464346BDE822
:1006E000F09F202A04DB203A00FA02F10020704734
:1006F0009140C2F1200320FA03F319439040704760
:10070000202A04DB203A21FA02F00021704721FA66
:1007100002F3D040C2F120029140084319467047CD
:10072000202A06DBCB17203A41FA02F043EAE073B5
:1007300006E041FA02F3D040C2F1200291400843A2
:10074000194670470FB4002300B589B00CA9009179
:100750000B996FF00042CB601E4B06931E4B079324
:100760000423CDE901321D4A089202466B4600205F
:1007700000F0E6F909B05DF814FB70B586B00646E6
:100780004FF0FF300091CDE90101002015460C46E5
:1007900004903246694604A8FFF7D4FF0246049845
:1007A000211825B108B1084600E0204628600498C9
:1007B00000280DD0002A02DD0098884208D0081BCE
:1007C0000094CDE901043246694604A8FFF7BAFF58
:1007D00006B070BD790D0008970D0008050A0008E5
:1007E0002DE9F04791460F4680460446002614F84E
:1007F000015B2DB100F002F90068405DC007F6D141
:100800002B2D02D02D2D18D0641E4A463946204685
:1008100000F0D2FA27B13968A14201D1C7F80080AF
:1008200071054FF002040BD54042002803DD21F092
:10083000D9FE0460A007BDE8F08746F48066E4E7CF
:100840000028F8DA21F0CEFE04606FF00040F2E7F5
:100850000029A8BF7047401C490008BF20F00100D4
:10086000704710B4B0FA80FC00FA0CF050EA0104B2
:1008700004BF10BC704749B1CCF1200421FA04F444
:1008800011FA0CF118BF012121430843A3EB0C011D
:10089000CB1D4FEA00614FEA102042BF002010BC80
:1008A000704700EBC35010440029A4BF10BC704730
:1008B000401C490008BF20F0010010BC704710B573
:1008C000141E73F1000408DA401C41F10001921873
:1008D0005B411A4301D120F0010010BD2DE9F04D1C
:1008E00092469B4611B1B1FA81F202E0B0FA80F271
:1008F00020329046FFF7F5FE04460F4640EA0A0014
:1009000041EA0B0153465A46084313D0114653EAB5
:10091000010019D0C8F140025046FFF7F1FE05462C
:100920000E46504659464246FFF7DBFE084305D0C7
:10093000012004E020463946BDE8F08D0020054343
:1009400046EAE0762C4337430A986305E40AA0EBB5
:1009500008000022FD0A44EA47540A3002D500206C
:100960000146E9E7010510196941DDE9084500196B
:100970006941BDE8F04DA2E7C1F30A52C1F313018A
:1009800040F2FF3341F480119A4202DA002001461E
:10099000704740F233439A42A2F2334202DC5242A1
:1009A000FFF7AEBEFFF79DBE30B5041E71F1000427
:1009B00004DB4FF00044404264EB0101141E73F16C
:1009C000000405DB1C464FF00043524263EB040376
:1009D000994208BF904230BD064C074D06E0E068E2
:1009E00040F0010394E8070098471034AC42F6D376
:1009F000FFF7E0FBE82B0408082C040800487047C8
:100A0000702B040810B50446FFF7F8FF0068005D7E
:100A100000F0010010BD00002DE9FF4F087883B001
:100A20009946FF2805D0491C2D2804D00024002019
:100A300008E000200BE00124F9E700EB800003EB65
:100A40004000491C0B78FF2BF7D104B14042002332
:100A50000293147819461D462D2C01D02B2C04D15D
:100A6000521C2D2C13D000240294AA461478FF2C7B
:100A70000FD00A25A3FB057801FB05814FF0000C80
:100A800003FB0C11521CE3194AEB0101EEE70124B0
:100A9000EAE7814453EA010002D019F5C87F06DA7B
:100AA00003980021C0E9001107B0BDE8F08F0025D0
:100AB000AE4E2F46DFF8B882184600F0DAF9CDE9DD
:100AC0000001B9F1000002DAC9F1000400E00446B7
:100AD0000023A74A1AEB030B42EB045A12E0E0078B
:100AE00007D02A46334638464146FFF777FC07468B
:100AF00088462A46334610461946FFF76FFC0546DE
:100B00000E466410002CEAD1DDE90001B9F1000FB6
:100B10005A46534606DAFFF7D3FC3A464346FFF7F8
:100B2000CFFC05E0FFF75AFC3A464346FFF756FC78
:100B3000029A0AB181F00041039AC2E90001B3E7C9
:100B40002DE9FF4F1F468DB0D7E901464FF0FF3822
:100B50002E2045464FF000090B90B9696D1C0E9888
:100B60008847396A824688470028F6D1BAF1FF3FA4
:100B70000AD024F4D064002E11DDBAF12B0F08D076
:100B8000BAF12D0F0BD102E0404611B08DE744F4CD
:100B90008064B9696D1C0E9888478246761E694646
:100BA000600501D52D2000E02B208DF8000001F11B
:100BB000010B0DF1200809E0B9696D1C0E988847FA
:100BC00082460F9844F40074761E0560002E02DD04
:100BD000BAF1300FF0D00B998A453ED144F0800431
:100BE00006E00F99681CA9F1010944F4007408603B
:100BF000B9696D1C761E0E98884782463028F0D061
:100C00002BE00B998A4505D1200603D444F08004DB
:100C1000761E18E0504621F0E5FD08B30DF11301F2
:100C2000761E44F400748B4508D2AAF130000BF80C
:100C3000010B200607D5A9F1010003E0200602D42C
:100C400009F101008146A00502D50F99681C0860D2
:100C5000B9696D1C0E9888478246002ED1DC53E09E
:100C6000002E51DDBAF1650F02D0BAF1450F4BD11C
:100C7000A00549D5B9696D1C24F44074761E0E9800
:100C800088478246002E0CDD2B2804D0BAF12D0FA8
:100C900007D144F48074B9696D1C0E988847824668
:100CA000761EE00501D52D2100E02B2108F8011B5F
:100CB000CDF82C8021E00DF12901761E44F400745A
:100CC00088450CD2AAF1300010F0FF0088F800002F
:100CD00002D10B99884509D908F1010806E0E00521
:100CE00001D5244801E042F20F708146B9696D1CBC
:100CF0000E98884782460F980560002E04DD504606
:100D000021F070FD0028D6D1F9690E988847FF20A0
:100D10008BF8000088F800000020069007904B46F2
:100D20006A4608A906A8FFF777FEA00502D46FF06F
:100D300001002AE714F0240F0AD0E00714D1DDE9FE
:100D400006123868031D3B600068C0E900120BE022
:100D5000DDE90601FFF762FC0146E00704D13868CF
:100D6000021D3A600068016028460EE7000014404A
:100D70000000F03FF1D8FFFF426842B1016811F86E
:100D8000013B23B1521EC0E90012184670470121F1
:100D9000C160881E704742685AB1C368016843B990
:100DA00083688B4205D0491E521CC0E90012002006
:100DB00070474FF0FF3070472DE9F05F82460078B2
:100DC000002715468B460AF10104B946302801D0A8
:100DD0009DB113E014F8010B0127782803D058289F
:100DE00001D045B10AE00DB1102D07D10027102523
:100DF00014F8010B02E0082500E00A250026B046A1
:100E00000EE005FB080005FB06F1012701EB10468B
:100E10001FFA80F8B6F5803F00D3B94614F8010BED
:100E2000294600F018F80028EBDABBF1000F05D0D6
:100E30000FB1641E00E05446CBF80040B9F1000F3A
:100E400006D021F0CFFB02210160C81EBDE8F09F53
:100E500048EA0640FAE73A2800D2303820F020026B
:100E6000412A01D3A2F13700884201D34FF0FF306D
:100E700070470EB540F2334202920022CDE90022C3
:100E80001346FFF72BFD03B000BD70B58C1810F8AA
:100E9000015B15F0070301D110F8013B2A1106D1BF
:100EA00010F8012B03E010F8016B01F8016B5B1ED9
:100EB000F9D12B0705D40023521E0DD401F8013BB4
:100EC000FAE710F8013BCB1A921C03E013F8015B20
:100ED00001F8015B521EF9D5A142D8D3002070BDA4
:100EE000164910B5887AF0B1022820D0082805D01C
:100EF000092821D1BDE8104023F0A6BBC87AC97BE0
:100F0000104A00EBC1015339C9B29FED0D0A02EB43
:100F10008101523881ED000AC0B222F0FFFDBDE828
:100F2000104015F0F1BBBDE8104025F083BFBDE8CF
:100F3000104037200FF0E8BE10BD0000F800002080
:100F400000000000600901200029816802D041F002
:100F5000010101E021F0010181607047084B10B5EB
:100F6000D3F8042307490A40D0E900142143D0E90B
:100F70000240044321431143C3F8041310BD000091
:100F800000200140E030FCFF0029816802D041F4DC
:100F9000807101E021F480718160704700298168CF
:100FA00002D041F4007101E021F4007181607047CA
:100FB00030B542680F4B0C791A400B6842EA0422A4
:100FC0001343436082680C4B4D791A40D1E90343C7
:100FD00023438C6844EA4504234313438360C26A75
:100FE000097D22F47002491EC9B242EA0151C16270
:100FF00030BD0000FFFEFFFCFDF7FFC070B5072607
:1010000009290AD9C568A1F10A0404EB4404A640E1
:10101000B543A3401D43C56007E0056901EB4104EA
:10102000A640B543A3401D4305611F23072A09D2EB
:10103000446B521E02EB820293409C4391400C434E
:10104000446370BD0D2A09D2046BD21F02EB8202E9
:1010500093409C4391400C43046370BDC46A0D3AB5
:1010600002EB820293409C4391400C43C46270BDEA
:10107000816841F08041816070470000F0B5324BDB
:10108000DFED300A9FED310AC3ED010AA3F20C77C0
:10109000002183ED020A08462D4EA3F1A00597F822
:1010A00033200AE017F800C0BCF1000F03D155F857
:1010B00020C0B4450CDB401CC0B28242F2D8012CE7
:1010C00006D0C3ED000AC3ED010AC3ED020AF0BD6C
:1010D0000020204C2AE017F800C0BCF1000F23D1FB
:1010E00005EB800C9CED000A10EE10CAB4451BDA2B
:1010F00004EB800C491C9CED001AC9B230EE410A89
:1011000093ED011A70EE200AB4EEC10AF1EE10FA66
:1011100001DD83ED010A93ED021AB4EEC10AF1EE8E
:1011200010FA01D283ED020A401CC0B28242D2D82A
:1011300000EE101AB8EE400A80EE801A83ED001A15
:10114000F0BD0000000000005C0B002000E0F9444E
:1011500000E0F944600901200949887A001F092844
:1011600009D2DFE800F0050B0B0B0B08080809009B
:10117000C87A332802D070470248007821F0F0BFC7
:10118000F80000208C01002000210D4A0846135C65
:10119000012B00D10121401CC0B22828F7D30948F7
:1011A000012908D10649503991F82A10012902D1A4
:1011B0000549097811B1002115F032BE0121FBE784
:1011C000A004002000040140020100201CB54FF4DF
:1011D0008070012100908DF8041000208DF8060029
:1011E0008DF807108DF80500694602480FF024FCC1
:1011F0001CBD000000000240FEE7000010B5074CD7
:101200000121204615F00CFE4FF6FF7005F0A4F802
:101210002046BDE81040002115F002BE0004014048
:1012200010B50446392028F0F1F8E0B228F012F9A0
:10123000C4F3072028F00EF9C4F3074028F00AF998
:10124000200E28F007F928F0D1F8BDE8104021F071
:10125000E3B870B5064614460D463C2028F0D6F893
:10126000E8B228F0F7F8280A28F0F4F828F0BEF8D9
:101270000CB1002011E021F0CFF81E280FD130462C
:1012800000F030F905463D2028F0C0F828F0AEF80F
:101290002E44002CEFD0208828442080EBE770BD3E
:1012A00010B512F0BFFB08B100F069F8BDE81040BE
:1012B000302000F0B2B8312000F0AFB8014636203F
:1012C00000F09EB810B508B100F0C5F8BDE81040B8
:1012D000342000F0A2B870B5054600F0A7F804006D
:1012E0000DD00146284600F021F8412807D01428E7
:1012F00003D0422800D1B32070BD432070BD28190F
:10130000BDE87040FFF7DEBF10B5044600F0A3F85B
:1013100020785C2801D02F2803D10021642000F020
:10132000F7F8BDE81040322000F077B870B50E46EF
:1013300000210546012401E0641CE4B2285D5C281C
:1013400013D02F2811D00028F6D100246818FFF7F9
:10135000DBFF002C08D0B44206D041280AD0142864
:1013600006D0422800D1B32070BD641CE4B2EDE782
:10137000432070BD2146E1E7FF21FFF7D7BF10B53D
:10138000222028F043F8322004F0E6FF28F034F859
:10139000044628F02BF8204610BD2DE9F04128F036
:1013A0002BF8064628F028F8054628F025F80446CC
:1013B00028F022F8074628F019F846EA052040EA06
:1013C000044040EA0760BDE8F08110B504460C20F7
:1013D00028F01CF8204628F03DF8BDE81040FFF743
:1013E000DCBF10B504460A2028F010F8204628F08B
:1013F00031F828F001F8044627F0F8FF204610BD28
:1014000010B50C4628F002F8204628F023F827F003
:10141000EDFFBDE8104020F0FFBF10B527F0F6FF4C
:1014200027F0E4FFBDE8104020F0F6BF014600E0E1
:10143000491C0A78002AFBD105E011F8012D5C2A2D
:1014400003D02F2A01D08142F7D1814200D0491C1C
:10145000081AC0B2704770B50546012027F0D6FFC4
:1014600027F0CAFF432828D22B20FFF7BAFF102805
:1014700023D22F2027F0CAFF002027F0EBFF3220D5
:10148000FFF7CBFF142818D1CF20FFF7AAFF0400E5
:1014900013D04C20FFF799FF00EB04214C2000F003
:1014A00037F85020FFF791FF00EB0421502000F0A7
:1014B0002FF80021702000F02BF82F2027F0A6FF36
:1014C0002C7806E015F8014F5C2C01D02F2C00D1B0
:1014D0000024204627F0BEFF002CF3D1BDE8704069
:1014E00027F084BF70B505462D2027F08FFF27F029
:1014F00083FF0446260007D0287827F0ABFF641E40
:101500006D1C14F0FF04F7D127F070FF304670BD5A
:1015100070B505460C460D2027F078FF284627F0C9
:1015200099FFE0B227F096FFC4F3072027F092FF5F
:10153000C4F3074027F08EFF200E27F08BFFBDE895
:10154000704027F053BF00002DE9F04188B0012121
:10155000812012F073FA0121080312F0ABFADFF8D0
:10156000C8800522114640460FF0A2FA0522062146
:1015700040460FF09DFA0522072140460FF098FAE9
:1015800002258DF805508DF80450002420278DF891
:10159000064000978DF80740694640460FF04CFA28
:1015A00040200090694640460FF046FA80200090A7
:1015B000694640460FF040FA1020012600908DF851
:1015C00004608DF80640694640460FF035FA8DF804
:1015D000044000978DF80760694614480FF02CFA14
:1015E000ADF808404FF48270ADF80A00ADF8106015
:1015F0002802ADF812003820ADF81400ADF80C4008
:10160000ADF8164007200A4CADF81800ADF80E50A2
:1016100002A9204614F0D7FF0121204614F0D0FD86
:1016200008B0BDE8F081000000000240001C02404C
:1016300000300140F0B5FF231A46002518E0445D54
:101640006240002402F0010613F0010F4FEA530339
:101650004FEA520201D042F080021EB183F0A00393
:1016600082F00102641CE4B2082CEBD36D1CEDB2D5
:101670008D42E4D342EA0320F0BD00002DE9F0479B
:10168000FE48FF4FFF4C00784FF482754FF4AA7666
:101690004FF470484FF4A57940B1012874D0022866
:1016A00073D0032872D0042871D025E32078012854
:1016B00001D028B10FE0882010F034FD384603E057
:1016C000882010F02FFD404610F048FDEEA20A21C0
:1016D000642010F055F96078012801D028B10FE09E
:1016E000882010F01FFD384603E0882010F01AFD16
:1016F000404610F033FDE5A20A21B42010F040F975
:10170000A078012801D028B10FE0882010F00AFD50
:10171000384603E0882010F005FD404610F01EFD1D
:10172000DBA20A21284610F02BF9E078012801D02D
:1017300028B10FE0882010F0F5FC384603E088203F
:1017400010F0F0FC404610F009FDD2A20A2130460C
:1017500010F016F92079012801D028B10FE0882077
:1017600010F0E0FC384603E0882010F0DBFC404637
:1017700010F0F4FCC8A24946642010F001F9607929
:10178000012805D048B113E039E0CEE063E133E24F
:10179000882010F0C7FC384603E0882010F0C2FC17
:1017A000404610F0DBFCBDA24946B42010F0E8F83A
:1017B000A079012801D028B10FE0882010F0B2FCF8
:1017C000384603E0882010F0ADFC404610F0C6FC1F
:1017D000B3A24946284610F0D3F8E079012801D099
:1017E00028B189E2882010F09DFC384603E088206B
:1017F00010F098FC404610F0B1FCAAA278E2207AE2
:1018000001284FF0880070D010F08CFC404610F09A
:10181000A5FCA5A20A21642010F0B2F8607A012884
:101820004FF0880065D010F07DFC404610F096FC2B
:101830009EA20A21B42010F0A3F8A07A01284FF04C
:1018400088005AD010F06EFC404610F087FC98A239
:101850000A21284610F094F8E07A01284FF0880019
:101860004FD010F05FFC404610F078FC91A20A21A6
:10187000304610F085F8207B01284FF0880044D0D6
:1018800010F050FC404610F069FC8BA249466420E1
:1018900010F076F8607B01284FF0880039D010F006
:1018A00041FC404610F05AFC84A24946B42010F096
:1018B00067F8A07B01284FF088002ED010F032FC92
:1018C000404610F04BFC7EA24946284610F058F8DE
:1018D000E07B01284FF0880023D010F023FC404625
:1018E00010F03CFC77A203E2FFE710F01BFC384647
:1018F0008DE710F017FC384698E710F013FC3846D7
:10190000A3E710F00FFC3846AEE710F00BFC3846AA
:10191000B9E710F007FC3846C4E710F003FC38467E
:10192000CFE710F0FFFB3846DAE7207C01284FF0C4
:10193000880070D010F0F6FB404610F00FFC62A259
:101940000A21642010F01CF8607C01284FF0880008
:1019500065D010F0E7FB404610F000FC5BA20A21C6
:10196000B42010F00DF8A07C01284FF088005AD068
:1019700010F0D8FB404610F0F1FB55A20A21284692
:101980000FF0FEFFE07C01284FF088004FD010F0F0
:10199000C9FB404610F0E2FB4EA20A2130460FF090
:1019A000EFFF207D01284FF0880044D010F0BAFBF3
:1019B000404610F0D3FB48A2494664200FF0E0FFF8
:1019C000607D01284FF0880039D010F0ABFB404615
:1019D00010F0C4FB41A24946B4200FF0D1FFA07D16
:1019E00001284FF088002ED010F09CFB404610F0EC
:1019F000B5FB3BA2494628460FF0C2FFE07D012817
:101A00004FF0880023D010F08DFB404610F0A6FB6D
:101A100034A26DE1FFE710F085FB38468DE710F04A
:101A200081FB384698E710F07DFB3846A3E710F0BD
:101A300079FB3846AEE710F075FB3846B9E710F091
:101A400071FB3846C4E710F06DFB3846CFE710F065
:101A500069FB3846DAE7207E01284FF088007DD008
:101A600010F060FB404610F079FB1FA20A216420B1
:101A70000FF086FF607E012838E00000040100209E
:101A800093551700500400203030310030303200C0
:101A900030303300303034003030350030303600F4
:101AA00030303700303038003030390030313000DD
:101AB00030313100303132003031330030313400D8
:101AC00030313500303136003031370030313800B8
:101AD00030313900303230003032310030323200B3
:101AE0003032330030323400303235004FF088006D
:101AF00066D010F017FB404610F030FB99A20A2187
:101B0000B4200FF03DFFA07E01284FF088005BD08D
:101B100010F008FB404610F021FB93A20A21284652
:101B20000FF02EFFE07E01284FF0880050D010F01B
:101B3000F9FA404610F012FB8CA20A2130460FF051
:101B40001FFF207F01284FF0880045D010F0EAFAEF
:101B5000404610F003FB86A2494600E02CE06420DA
:101B60000FF00EFF607F01284FF0880038D010F092
:101B7000D9FA404610F0F2FA7EA24946B4200FF09E
:101B8000FFFEA07F01284FF088002DD010F0CAFA88
:101B9000404610F0E3FA78A2494628460FF0F0FEDE
:101BA000E07F01284FF0880022D010F0BBFA4046B9
:101BB00010F0D4FA71A29BE010F0B4FA384652E764
:101BC00010F0B0FA384697E710F0ACFA3846A2E7C2
:101BD00010F0A8FA3846ADE710F0A4FA3846B8E796
:101BE00010F0A0FA3846C5E710F09CFA3846D0E766
:101BF00010F098FA3846DBE794F8200001284FF0FF
:101C000088007DD010F08EFA404610F0A7FA5CA252
:101C10000A2164200FF0B4FE94F8210001284FF04F
:101C200088006ED010F07EFA404610F097FA55A268
:101C30000A21B4200FF0A4FE94F8220001284FF0EE
:101C4000880074D010F06EFA404610F087FA4EA269
:101C50000A2128460FF094FE94F8230001284FF043
:101C6000880068D010F05EFA404610F077FA47A27C
:101C70000A2130460FF084FE94F8240001284FF02A
:101C800088005CD010F04EFA404610F067FA40A28F
:101C9000494664200FF074FE94F8250001284FF0A7
:101CA000880050D010F03EFA404610F057FA39A2A2
:101CB0004946B4200FF064FE94F8260001284FF046
:101CC000880044D010F02EFA404610F047FA32A2B5
:101CD000494628460FF054FE94F8270001284FF09B
:101CE000880038D010F01EFA404610F037FA2BA2C8
:101CF000494630460FF044FE29490120C87001E0F2
:101D00000CE010E0FFF77AFA94F8300038B325A021
:101D100004F066FFBDE8F04714F0F6BC10F002FADC
:101D2000384672E703E010F0FDF938467DE710F021
:101D3000F9F9384689E710F0F5F9384695E710F0DB
:101D4000F1F93846A1E710F0EDF93846ADE710F0AB
:101D5000E9F93846B9E710F0E5F93846C5E714A0C7
:101D6000D6E70000303236003032370030323800EB
:101D7000303239003033300030333100303332000C
:101D800030333300303334003033350030333600F5
:101D900030333700303338003033390030343000DE
:101DA000580100204368616E6E656C207365740095
:101DB000CDA8B5C0C9E8D6C3000000002DE9F05F8A
:101DC000F948DFF8E8A3FA4C00784FF482754FF435
:101DD00096764FF4AA784FF4BE794FF4704B10B159
:101DE00001286ED03CE32078012801D028B10FE013
:101DF000882010F097F9504603E0882010F092F9FF
:101E0000584610F0ABF9EBA20A21642001F0D6FA93
:101E10006078012801D028B10FE0882010F082F905
:101E2000504603E0882010F07DF9584610F096F9EE
:101E3000E1A20A218C2001F0C1FAA078012801D08A
:101E400028B10FE0882010F06DF9504603E088209B
:101E500010F068F9584610F081F9D8A20A21B42090
:101E600001F0ACFAE078012801D028B10FE0882019
:101E700010F058F9504603E0882010F053F9584606
:101E800010F06CF9CEA20A21DC2001F097FA20793B
:101E9000012801D028B10FE0882010F043F9504606
:101EA00003E0882010F03EF9584610F057F9C5A21B
:101EB0000A21284601F082FA6079012802D030B167
:101EC00010E0C6E1882010F02DF9504603E088208C
:101ED00010F028F9584610F041F9BBA20A2130460B
:101EE00001F06CFAA079012801D028B10FE0882018
:101EF00010F018F9504603E0882010F013F9584606
:101F000010F02CF9B1A20A21404601F057FAE0790D
:101F1000012801D028B10FE0882010F003F95046C5
:101F200003E0882010F0FEF8584610F017F9A8A238
:101F30000A21484601F042FA94F83300082872D981
:101F4000207A012801D028B10FE0882010F0EAF8AB
:101F5000504603E0882010F0E5F8584610F0FEF8EF
:101F60009CA2D221642001F029FA607A012801D0D4
:101F700028B10FE0882010F0D5F8504603E0882003
:101F800010F0D0F8584610F0E9F893A2D2218C2036
:101F900001F014FAA07A012801D028B10FE08820BE
:101FA00010F0C0F8504603E0882010F0BBF8584607
:101FB00010F0D4F889A2D221B42001F0FFF9E07A20
:101FC000012801D028B10FE0882010F0ABF850466E
:101FD00003E0882010F0A6F8584610F0BFF880A261
:101FE000D221DC2001F0EAF9207B012801D028B1C0
:101FF0000FE0882010F096F8504603E0882010F09B
:1020000091F8584610F0AAF876A2D221284601F09D
:10201000D5F9607B012801D030B110E0882010F0A4
:1020200081F8504604E034E0882010F07BF85846F0
:1020300010F094F86CA2D221304601F0BFF9A07BD9
:10204000012801D028B10FE0882010F06BF850462D
:1020500003E0882010F066F8584610F07FF863A27D
:10206000D221404601F0AAF9E07B012801D028B135
:102070000FE0882010F056F8504603E0882010F05A
:1020800051F8584610F06AF859A2D221484601F09A
:1020900095F994F8330010286FD9207C4FF4CD7750
:1020A000012801D028B10FE0882010F03BF85046FD
:1020B00003E0882010F036F8584610F04FF84DA293
:1020C0003946642001F07AF9607C012801D028B1FA
:1020D0000FE0882010F026F8504603E0882010F02A
:1020E00021F8584610F03AF843A239468C2001F006
:1020F00065F9A07C012801D028B10FE0882010F0FC
:1021000011F8504603E0882010F00CF8584610F003
:1021100025F83AA23946B42001F050F9E07C0128B4
:1021200001D028B10FE088200FF0FCFF504603E0FB
:1021300088200FF0F7FF584610F010F830A239460B
:10214000DC2001F03BF9207D012801D028B10FE00F
:1021500088200FF0E7FF504603E088200FF0E2FFF1
:1021600058460FF0FBFF27A23946284601F026F912
:10217000607D012802D030B110E071E188200FF0BD
:10218000D1FF504603E088200FF0CCFF58460FF0F7
:10219000E5FF1DA23946304601F010F9A07D012867
:1021A00034D000B142E036E004010020935517001E
:1021B00050040020303031003030320030303300F5
:1021C00030303400303035003030360030303700B9
:1021D00030303800303039003031300030313100AB
:1021E000303132003031330030313400303135009D
:1021F000303136003031370030313800303139007D
:1022000030323000303231003032320088200FF06E
:1022100089FF504603E088200FF084FF58460FF0F6
:102220009DFFBAA23946404601F0C8F8E07D01287A
:1022300001D028B114E188200FF074FF504603E06C
:1022400088200FF06FFF58460FF088FFB0A2394684
:1022500003E1207E01284FF088007CD00FF062FF60
:1022600058460FF07BFFABA20A21642001F0A6F8CC
:10227000607E01284FF088006ED00FF053FF584663
:102280000FF06CFFA4A20A218C2001F097F8A07E29
:1022900001284FF088007DD00FF044FF58460FF022
:1022A0005DFF9EA20A21B42001F088F8E07E01289B
:1022B0004FF088006FD00FF035FF58460FF04EFFFB
:1022C00097A20A21DC2001F079F8207F01284FF045
:1022D00088007DD00FF026FF58460FF03FFF91A2F7
:1022E0000A21284601F06AF8607F01284FF0880033
:1022F0006FD00FF017FF58460FF030FF8AA20A2167
:10230000304601F05BF8A07F01284FF088007DD0B7
:102310000FF008FF58460FF021FF84A20A21404623
:1023200001F04CF8E07F01284FF088006FD00FF0EB
:10233000F9FE58460FF012FF7DA20A21484601F02F
:102340003DF894F8200001284FF088007ED00FF06F
:10235000E9FE584601E092E096E00FF0FFFE75A21C
:10236000D221642001F02AF894F8210001284FF0CE
:1023700088006CD00FF0D6FE58460FF0EFFE6EA22C
:10238000D2218C2001F01AF894F8220001284FF095
:10239000880001E07CE07FE075D00FF0C3FE584676
:1023A0000FF0DCFE65A2D221B42001F007F894F80A
:1023B000230001284FF0880072D00FF0B3FE58467A
:1023C0000FF0CCFE5EA2D221DC2000F0F7FF01E08E
:1023D00067E06AE094F8240001284FF0880070D08C
:1023E0000FF0A0FE58460FF0B9FE56A2D2212846A3
:1023F00000F0E4FF94F8250001284FF0880077D022
:102400000FF090FE58460FF0A9FE01E051E054E0B5
:102410004DA2D221304600F0D1FF94F826000128C9
:102420004FF0880068D00FF07DFE58460FF096FE02
:1024300046A2D221404600F0C1FF94F827000128AF
:102440004FF088005CD00FF06DFE01E03BE03EE015
:1024500058460FF083FE3EA2D221484600F0AEFF60
:102460003C490120C870FEF7C9FE94F8300048B31B
:1024700039A004F0B5FBBDE8F05F14F045B90FF0EA
:1024800051FE5046EDE626E00FF04CFE5046F7E6D2
:102490000FF048FE504602E70FF044FE50460DE7AD
:1024A0001EE00FF03FFE504617E70FF03BFE504690
:1024B00022E70FF037FE50462DE70FF033FE50466F
:1024C00038E711E020E00FF02DFE504642E70FF014
:1024D00029FE504651E70FF025FE504660E707E021
:1024E0000FF020FE50466BE70FF01CFE50467AE7D7
:1024F0000FF018FE504686E70FF014FE504695E7A1
:102500000FF010FE5046A4E716A0B2E730323300B9
:10251000303234003032350030323600303237005D
:10252000303238003032390030333000303331004F
:102530003033320030333300303334003033350041
:102540003033360030333700303338003033390021
:1025500030343000580100204368616E6E656C2095
:1025600073657400CDA8B5C0C9E8D6C300000000EB
:102570002DE9F05FF84CDFF8E4A34FF4704B2078BE
:10258000012801D028B10FE088200FF0CBFD504684
:1025900003E088200FF0C6FD58460FF0DFFDF0A2E3
:1025A0000A21642000F040FF6078012801D028B1A2
:1025B0000FE088200FF0B6FD504603E088200FF0B2
:1025C000B1FD58460FF0CAFDE6A20A218C2000F0AA
:1025D0002BFFA078012801D028B10FE088200FF050
:1025E000A1FD504603E088200FF09CFD58460FF0F7
:1025F000B5FDDDA20A21B42000F016FFE078012825
:1026000001D028B10FE088200FF08CFD504603E088
:1026100088200FF087FD58460FF0A0FDD3A20A21B5
:10262000DC2000F001FF20794FF48275012801D0F1
:1026300028B10FE088200FF075FD504603E0882098
:102640000FF070FD58460FF089FDC9A20A212846F7
:1026500000F0EAFE60794FF49676012801D028B1A7
:102660000FE088200FF05EFD504603E088200FF059
:1026700059FD58460FF072FDBEA20A21304600F007
:10268000D3FEA0794FF4AA79012801D028B10FE038
:1026900088200FF047FD504603E088200FF042FDF0
:1026A00058460FF05BFDB4A20A21484600F0BCFE7C
:1026B000E0794FF4BE78012801D028B10FE08820DE
:1026C0000FF030FD504603E088200FF02BFD5846F8
:1026D0000FF044FDA9A20A21404600F0A5FE94F89F
:1026E0003300082872D9207A012801D028B10FE0E0
:1026F00088200FF017FD504603E088200FF012FDF0
:1027000058460FF02BFD9EA28621642000F08CFE1F
:10271000607A012801D028B10FE088200FF002FD77
:10272000504603E088200FF0FDFC58460FF016FDE0
:1027300094A286218C2000F077FEA07A012801D097
:1027400028B10FE088200FF0EDFC504603E0882010
:102750000FF0E8FC58460FF001FD8BA28621B42053
:1027600000F062FEE07A012801D028B10FE0882055
:102770000FF0D8FC504603E088200FF0D3FC5846F9
:102780000FF0ECFC81A28621DC2000F04DFE207BC6
:10279000012801D028B10FE088200FF0C3FC50467B
:1027A00003E088200FF0BEFC58460FF0D7FC78A25B
:1027B0008621284600F038FE607B012801D030B128
:1027C00010E088200FF0AEFC504604E034E0882092
:1027D0000FF0A8FC58460FF0C1FC6EA286213046CF
:1027E00000F022FEA07B012801D028B10FE0882054
:1027F0000FF098FC504603E088200FF093FC5846F9
:102800000FF0ACFC64A28621484600F00DFEE07B90
:10281000012801D028B10FE088200FF083FC50463A
:1028200003E088200FF07EFC58460FF097FC5BA277
:102830008621404600F0F8FD94F8330010286FD947
:10284000207C4FF48177012801D028B10FE0882047
:102850000FF068FC504603E088200FF063FC5846F8
:102860000FF07CFC4EA23946642000F0DDFD607C58
:10287000012801D028B10FE088200FF053FC50460A
:1028800003E088200FF04EFC58460FF067FC45A28D
:1028900039468C2000F0C8FDA07C012801D028B169
:1028A0000FE088200FF03EFC504603E088200FF038
:1028B00039FC58460FF052FC3BA23946B42000F0D8
:1028C000B3FDE07C012801D028B10FE088200FF093
:1028D00029FC504603E088200FF024FC58460FF0F6
:1028E0003DFC32A23946DC2000F09EFD207D01280F
:1028F00001D028B10FE088200FF014FC504603E00F
:1029000088200FF00FFC58460FF028FC28A239460B
:10291000284600F089FD607D012802D030B110E02A
:10292000C6E188200FF0FEFB504603E088200FF040
:10293000F9FB58460FF012FC1EA23946304600F053
:1029400073FDA07D012801D028B140E088200FF060
:10295000E9FB504634E02FE0500400209355170067
:10296000303031003030320030303300303034001D
:1029700030303500303036003030370030303800FD
:1029800030303900303130003031310030313200F8
:1029900030313300303134003031350030313600E1
:1029A00030313700303138003031390030323000CA
:1029B000303231003032320088200FF0B3FB5846FD
:1029C0000FF0CCFBC3A23946484600F02DFDE07D58
:1029D000012801D028B10FE088200FF0A3FB50465A
:1029E00003E088200FF09EFB58460FF0B7FBBAA219
:1029F0003946404600F018FD207E4FF4BF7701288D
:102A000001D028B10FE088200FF08CFB504603E086
:102A100088200FF087FB58460FF0A0FBAFA2394685
:102A2000642000F001FD607E012801D028B10FE094
:102A300088200FF077FB504603E088200FF072FBF0
:102A400058460FF08BFBA6A239468C2000F0ECFC18
:102A5000A07E012801D028B10FE088200FF062FB92
:102A6000504603E088200FF05DFB58460FF076FBE0
:102A70009CA23946B42000F0D7FCE07E012801D0AA
:102A800028B10FE088200FF04DFB504603E088206E
:102A90000FF048FB58460FF061FB93A23946DC204B
:102AA00000F0C2FC207F012801D028B10FE088206F
:102AB0000FF038FB504603E088200FF033FB5846F8
:102AC0000FF04CFB89A23946284600F0ADFC607F30
:102AD000012801D028B10FE088200FF023FB5046D9
:102AE00003E088200FF01EFB58460FF037FB80A252
:102AF0003946304600F098FCA07F012801D028B16B
:102B00000FE088200FF00EFB504603E088200FF006
:102B100009FB58460FF022FB76A23946484600F0E2
:102B200083FCE07F012801D028B10FE088200FF05E
:102B3000F9FA504603E088200FF0F4FA58460FF0F7
:102B40000DFB6DA23946404600F06EFC94F8200063
:102B50004FF4FD77012801D028B10FE088200FF055
:102B6000E1FA504603E088200FF0DCFA58460FF0F7
:102B7000F5FA62A23946642000F056FC94F8210070
:102B8000012801D028B10FE088200FF0CBFA504681
:102B900003E088200FF0C6FA58460FF0DFFA58A27B
:102BA00039468C2000F040FC94F82200012801D026
:102BB00028B10FE088200FF0B5FA504603E08820D6
:102BC0000FF0B0FA58460FF0C9FA4EA23946B420B9
:102BD00000F02AFC94F82300012801D028B10FE06E
:102BE00088200FF09FFA504603E088200FF09AFAF1
:102BF00058460FF0B3FA44A23946DC2000F014FC2A
:102C000094F82400012801D028B10FE088200FF0AB
:102C100089FA504603E088200FF084FA58460FF0F6
:102C20009DFA3AA23946284600F0FEFB94F82500AA
:102C3000012801D028B10FE088200FF073FA504628
:102C400003E088200FF06EFA58460FF087FA30A2A2
:102C50003946304600F0E8FB94F82600012801D000
:102C600028B10FE088200FF05DFA504603E088207D
:102C70000FF058FA58460FF071FA26A23946484626
:102C800000F0D2FB94F82700012801D028B10FE012
:102C900088200FF047FA504603E088200FF042FAF0
:102CA00058460FF05BFA1CA23946404600F0BCFBC8
:102CB0001A490120C870FEF7A1FA94F8300030B12B
:102CC00017A003F08DFFBDE8F05F13F01DBD17A046
:102CD000F7E7000030323300303234003032350054
:102CE000303236003032370030323800303239007E
:102CF0003033300030333100303332003033330082
:102D00003033340030333500303336003033370061
:102D1000303338003033390030343000580100206F
:102D20004368616E6E656C2073657400CDA8B5C094
:102D3000C9E8D6C30000000070B504461A481D4D0E
:102D400000EB840010ED010A184800EB840050ED00
:102D5000010A174800EB840030EE600A50ED010ACA
:102D6000B4EEE00AF1EE10FA09D3134800EB840048
:102D700050ED010AB4EEE00AF1EE10FA05DD0D485F
:102D8000503890F82C00012807D088216FF07F4040
:102D90000FF0CEF90020285570BD88214FF47F0038
:102DA0000FF0C6F90120F6E7BC0A002060090120F7
:102DB000580D0020A0040020B80C002010B50B46D0
:102DC0000C0601F07F0202EB820100EBC10102D58B
:102DD00001F58E7101E001F55D710A70DA094A7042
:102DE0001EF029FB002010BD0A4610B5090602F0AE
:102DF0007F0306D503EB830100EBC10101F58E7162
:102E000005E002EB820100EBC10101F55D710024D8
:102E10008C700B70D2094A701EF0F4FA002010BDBD
:102E200010B50A0604D501F07F011EF027FC01E071
:102E30001EF006FC002010BD70B50D460E0601F018
:102E40007F0404EB840100EBC10102D501F58E7112
:102E500001E001F55D71ED090C704D708A60CB7079
:102E600000D0CC80022B01D100220A711EF096FA0C
:102E7000002070BD10B501F07F0404EB840100EB6D
:102E8000C101C1F88833C1F880230023C1F88C3315
:102E900081F8753381F87443C37801F55D71012BB6
:102EA00000D10A6114F0FF0F03D01EF003FB0020D5
:102EB00010BD1EF004FAFAE70069002261F30A125D
:102EC00001681143016070470A4610B5090602F017
:102ED0007F0306D503EB830100EBC10101F58E7181
:102EE00005E002EB820100EBC10101F55D710124F7
:102EF0008C700B70D2094A701EF0C4FA002010BD0D
:102F000070B511F07F0404EB840100EBC1014FF0B8
:102F1000010581F81D5181F81C41C1F82821C1F833
:102F20002C2101F58E714FF00002C1E9053203D06A
:102F30001EF0C0FA002070BD1EF0C1F9FAE70000D3
:102F40002DE9F041064600241EF0E1FB074655E05E
:102F5000F80751D03069E1B20369426BCA4006EB11
:102F6000810102F00102896943EAC2128D681540AD
:102F7000E9071AD00125426B05FA04F18A4342633E
:102F800006EB8400806985601F48E1B200684268F2
:102F900030469047F078012807D134B996F81101EE
:102FA000042802D130461EF0E7F9280704D506EBC5
:102FB0008400082580698560E80604D506EB840056
:102FC000102580698560680604D506EB84004025DD
:102FD00080698560A80704D506EB84000225806916
:102FE0008560280608D52146304600F06CF906EBCE
:102FF00084018020896988607F08641C002FA7D124
:103000000120BDE8F0810000C40100202DE9F0415D
:10301000054600241EF081FB0746DFF8988043E058
:10302000F8073FD0E1B228461EF07DFB0646C007F8
:1030300025D005EB84000126416D8E60E9780129D9
:103040000CD1406D016904EB840005EBC000C1F3B5
:103050001201D0F87C23511AC0F88C13D8F8000064
:10306000E1B2026828469047E878012807D134B9D0
:1030700095F81101052802D128461EF07DF9B00708
:1030800004D505EB84000226406D8660300709D523
:10309000D8F8000081682846884705EB840108209D
:1030A000496D88607F08641C002FB9D10120BDE8FC
:1030B000F0810000C401002070B50546C068816938
:1030C00021F010018161E868066A06F00F0000EB4C
:1030D000800005EBC004C6F3434004F55D74072887
:1030E00021D2DFE800F0202004202020150047F640
:1030F000F070064217D0C6F30A1632462846E16839
:103100001EF019FBE0683044E060A069304409E03B
:10311000082205F2CC5128461EF00DFBA069C6F32B
:103120000A110844A061E868816941F010018161D9
:10313000012070BD38B5044600208DF8000094F8D9
:1031400012018DF800001548006841692046884743
:1031500020698068E2684FF400615161A17AD1B1C1
:10316000C00718D094F81501012814D19DF800006B
:10317000032810D1D4F80C01016841F0010101606D
:10318000D4F80C01016841F00301016004480168B2
:1031900041F006010160012038BD0000C40100209B
:1031A00010ED00E070B50446006900250126416875
:1031B00021F001014160294620461EF05FFA0020FF
:1031C000FF2206E004EB80018B699A60496D8A60FA
:1031D000401C61788142F5D821694FF0FF30886149
:1031E0002846216966F30F0066F31F40C861216914
:1031F00045F00B0048612169C1F88400216945F060
:103200000B000861216948642069016821F4FE61AE
:10321000016020461EF0B0F8E1684FF4805048612C
:1032200003480068016920468847012070BD0000FE
:10323000C401002070B504461EF08EFA0120002360
:1032400084F8120184F814311A46402510E002EB8C
:10325000820104EBC10181F81D0181F81C21A1F854
:10326000222181F81F31C1E94953521CC1F8303184
:1032700061789142EBD8002010E000EB800104EB74
:10328000C10181F8753381F87403A1F87A0381F8DC
:103290007733C1E9DF53401CC1F88833617881423C
:1032A000EBD820461DF0E6FF20461DF0C3FE0021AE
:1032B00020461EF0B1FA20461DF0FCFE2046BDE877
:1032C00070401EF0B5B92DE9F0470E4601EB8601BE
:1032D00000EBC1048046D4E94C01401AD4F8241113
:1032E00004F58E74814200D20846C01C870808EBA2
:1032F00086091EE0451AA068A84200D20546E81CCF
:103300008708ABB2F2B24046E1681EF09AFAE06874
:103310002844E060A0692844A0616169884208D31C
:10332000207801218140D8F81000426B8A43426323
:103330000BE0D9F81800806980B2B84205D9D4E909
:103340000501814201D20028D4D10120BDE8F087D7
:103350002DE9F04115460C468046154E4FF4207776
:1033600019E0802A0BD21348B061214640460EF086
:1033700097FAB0696D1C8088204484B20BE00E4837
:10338000B0612A462146404600F0DEF8B069AD1C27
:103390008088204484B2BC4208D22A78002A05D012
:1033A000B0698088011989B28142DAD2BDE8F08122
:1033B00060000020A4000020E40000202DE9F0417E
:1033C00015460C468046154E4FF4207719E0802AAA
:1033D0000BD21348B061214640460EF061FAB06945
:1033E0006D1C8088204484B20BE00E48B0612A46F0
:1033F000214640460EF06AFAB069AD1C8088204430
:1034000084B2BC4208D22A78002A05D0B0698088EC
:10341000011989B28142DAD2BDE8F0816000002052
:103420009C000020D40000202DE9F04115460C46F8
:103430008046154E4FF4207719E0802A0BD21348AE
:10344000B061214640460EF02BFAB0696D1C8088B1
:10345000204484B20BE00E48B0612A462146404623
:1034600000F018F8B069AD1C8088204484B2BC42DA
:1034700008D22A78002A05D0B0698088011989B25B
:103480008142DAD2BDE8F081600000208C0000208B
:10349000EC0000202DE9F04116460F46804600243E
:1034A0000D4D0FE032788A420AD105EB4002717867
:1034B0005078814204D139464046921C0EF0D2FA2F
:1034C000641CA4B2C4EBC40000EB400015F810105B
:1034D0008029E7D8BDE8F081EAF902082DE9F0413A
:1034E00015460C468046154E4FF4207719E0802A89
:1034F0000BD21348B061214640460EF0D1F9B069B5
:103500006D1C8088204484B20BE00E48B0612A46CE
:103510002146404600F018F8B069AD1C8088204470
:1035200084B2BC4208D22A78002A05D0B0698088CB
:10353000011989B28142DAD2BDE8F0816000002031
:10354000BC000020DC0000202DE9F04116460F46AB
:10355000804600240C4D0EE032788A4209D142198F
:1035600071785078814204D139464046921C0EF061
:1035700079FA641CA4B204EB8400C0EB8410295CCB
:103580008029E9D8BDE8F081DEE202082DE9F041AA
:1035900015460C468046154E4FF4207719E0802AD8
:1035A0000BD21348B061214640460EF079F9B0695C
:1035B0006D1C8088204484B20BE00E48B0612A461E
:1035C00021464046FFF7C0FFB069AD1C808820440B
:1035D00084B2BC4208D22A78002A05D0B06980881B
:1035E000011989B28142DAD2BDE8F0816000002081
:1035F000C4000020DC0000202DE9F041204E1546DB
:103600000C4680466BB3012B38D1882108460EF05A
:103610008FFD28239022414620460EF0ADFABDE8EA
:10362000F04188216FF07F400EF082BD802A0BD2DE
:103630001448B061214640460EF032F9B0696D1C65
:103640008088204484B20EE00F48B0612A462146AB
:1036500040460EF03BF9B069AD1C8088204484B22E
:1036600001E04FF42077BC4208D22A78002A05D026
:10367000B0698088011989B28142D7D2BDE8F08152
:1036800060000020AC000020D40000202DE9F041B3
:10369000204E15460C4680466BB3012B38D188214D
:1036A00008460EF045FD1C236022414620460EF0E0
:1036B00063FABDE8F04188216FF07F400EF038BD1D
:1036C000802A0BD21448B061214640460EF0E8F83B
:1036D000B0696D1C8088204484B20EE00F48B06150
:1036E0002A46214640460EF0F1F8B069AD1C8088AC
:1036F000204484B201E04FF42077BC4208D22A78FB
:10370000002A05D0B0698088011989B28142D7D2D8
:10371000BDE8F08160000020B4000020D40000204B
:103720002DE9F041204E15460C4680466BB3012B27
:1037300038D1882108460EF0FBFC14233222414682
:1037400020460EF019FABDE8F04188216FF07F4065
:103750000EF0EEBC802A0BD21448B06121464046E0
:103760000EF09EF8B0696D1C8088204484B20EE093
:103770000F48B0612A46214640460EF0A7F8B069CE
:10378000AD1C8088204484B201E04FF42077BC4215
:1037900008D22A78002A05D0B0698088011989B238
:1037A0008142D7D2BDE8F081600000209400002063
:1037B000D400002010B50121CC05204610F04AF9B4
:1037C0002046BDE81040002110F044B9034A0146EC
:1037D000002052680A4200D00120704700B0024029
:1037E00030B52A4B00241968294A1140196019681C
:1037F000026811431960596B21F007015963596B35
:10380000426811435963416841B301292DD002290F
:1038100030D00329C16832D00A0101694469090224
:1038200024038568214315430D43996B0D439D6324
:103830008169D963196C6FF30D011964196CC26940
:1038400011431964818C5A6C02F040425A645A6CDC
:10385000006A024342EA01425A6430BDC168047DF5
:103860000A02018A09042406DBE7C1680A02018A08
:103870000904D6E7C1684A010169C902D1E74A01D2
:10388000016944698902E403CBE7000000B002400B
:10389000FCE0FCFF0248016841F001010160704753
:1038A00000B002400029016802D041F0010101E0AE
:1038B00021F001010160704730B50368124ACC68FD
:1038C00013400A682243D1E905452C432243CC69C1
:1038D00022430C6A22434C6A22438C6A22434C6B7B
:1038E00022438C6B22431A430260426922F0070391
:1038F000D1E90B2422431A4342610A6942604A68B3
:1039000082608968C16030BD3F801CF00548807AC4
:10391000052803D0062801D0082802D102A01FF0F4
:10392000D9BD7047F80000202E0000002DE9F04FAF
:10393000F74CF84D2146A07A91F80BC09FB00D28A6
:103940002ED2DFE810F030002B132D002D00C60B17
:10395000BD0D68142D008F112D002D002D000D00C0
:1039600095F83300082802D0102802D004E0102077
:1039700000E0082085F8330012F0C6FE6FF07F40AB
:103980000EF0ECFB88200EF0CDFB95F83320E2A181
:1039900068461EF013FEAA216A4608460DF0BAFFDB
:1039A0001FB0BDE8F08FDA484FF4CD764FF4817741
:1039B000017BD8484FF4BF794FF4FD7A90F82D2061
:1039C00090F827301E93C37F1D93C37D1C93C37B48
:1039D0001B9390F826301A93837F1993837D189355
:1039E000837B179390F825301693437F1593437D7F
:1039F0001493437B139390F824301293037F119315
:103A0000037D1093037B0F9390F823300E93C37EB6
:103A10000D93C37C0C93C37A0B9390F822300A93D6
:103A2000837E0993837C0893837A079390F82130EF
:103A30000693437E0593437C0493437A039390F863
:103A400020E090F818B0037C007ABCF1290FA7D2CF
:103A5000DFE81CF02900C10044012502AA023D0351
:103A60000C049D0433053D067B06BA06F7063607AF
:103A70007807BA07000842086C089A08C408F008DA
:103A80001E094C097A09A609BE09D609EE09070ADA
:103A9000210A3B0A550A6E0A870AA00AB90AD30A04
:103AA000EE0A090B240B9E480EF058FB88200EF0FE
:103AB00039FB95F82900022810D0012810D00328DE
:103AC00010D0042810D0052810D0062810D00728C0
:103AD00010D0082810D0092810D014E091A20EE0D0
:103AE00092A20CE093A20AE094A208E095A206E05C
:103AF00096A204E097A202E098A200E099A26421B5
:103B00002F200DF007FF95F82D0020B1012835D0AA
:103B100002284FD04AE0207B40B101280BD0022878
:103B20000ED0032811D0042814D01CE028781FF0F0
:103B300065FC8EA213E0287A1FF060FC8CA20EE0D8
:103B4000287C1FF05BFC8BA209E0287E1FF056FC4E
:103B500089A204E095F820001FF050FC87A20A21FA
:103B600064200DF00DFF95F8300028B184A003F01B
:103B700037F8012001F0ABBA84A0F8E7207B10B140
:103B8000012805D020E028781FF038FC77A203E058
:103B9000287E1FF033FC78A20A216420FFF70EFC78
:103BA00012E07AA000E076A003F01AF8012004F0F9
:103BB000EDFFF5E6207B38B928781FF01FFC6BA2DB
:103BC0000A216420FFF730FC0120E07295F83000F4
:103BD0000028E8D1E5E74F4F02263F7832B1012AAD
:103BE0004FD0022AE2D100296AD07AE241B10129FC
:103BF0000BD002290DD0032910D0042913D0F4E7EB
:103C000038461FF0C3FB59A211E01FF0BFFB58A2BA
:103C10000DE018461FF0BAFB56A208E058461FF008
:103C2000B5FB55A203E070461FF0B0FB53A20A217A
:103C300064200DF0A5FE207B40B101280BD00228A6
:103C40000ED0032811D0042814D0CEE768781FF0D6
:103C5000D5FB51A213E0687A1FF0D0FB4FA20EE013
:103C6000687C1FF0CBFB4EA209E0687E1FF0C6FB0C
:103C70004CA204E095F821001FF0C0FB4AA20A21E3
:103C800086E211B101290DD0AFE738461FF07EFB67
:103C900036A20A216420FFF791FB68781FF0AEFB83
:103CA0003DA20BE058461FF071FB33A20A216420AD
:103CB000FFF784FB687E1FF0A1FB3AA20A21FAE31A
:103CC00038461FF063FB29A20A216420FFF7ACFBF2
:103CD00068781FF093FB30A20A21EDE30D4803261C
:103CE000407832B1012A73D0022A7FF413AF71B148
:103CF0007BE741B1012959D002295DD0032961D068
:103D0000042966D071E71FF041FB23A266E0B5E00D
:103D1000F80000205004002025303364000000002B
:103D200000FFFF0054432D4B0000000054432D546E
:103D30000000000054432D4A0000000054432D4E63
:103D40000000000054432D450000000054432D5353
:103D50000000000054432D520000000054432D4247
:103D6000000000005054313030000000303031008D
:103D700030303900303137003032350030333300E5
:103D80004368616E6E656C2073657400CDA8B5C024
:103D9000C9E8D6C3000000003030320030313000B6
:103DA00030313800303236003033340003981FF0A1
:103DB000EDFAAFF2180211E004981FF0E7FAAFF243
:103DC00020020BE005981FF0E1FAAFF2280205E0AF
:103DD00031E006981FF0DAFAAFF234020A21B4207B
:103DE0000DF0CEFD207B40B101280BD002280ED073
:103DF000032811D0042814D0F7E6A8781FF0FEFAA3
:103E0000FBA213E0A87A1FF0F9FAFAA20EE0A87C50
:103E10001FF0F4FAF8A209E0A87E1FF0EFFAF7A26B
:103E200004E095F822001FF0E9FAF5A20A217AE2EF
:103E30000DF0A6FDD9E611B101290DD0D5E61FF090
:103E4000A5FAAFF2AC020A218C20FFF7B7FAA878E6
:103E50001FF0D4FAE6A20CE005981FF097FAAFF233
:103E6000BC020A218C20FFF7A9FAA87E1FF0C6FA2F
:103E7000E2A20A21E7E3FFF7A1FAB6E61FF086FA0D
:103E8000AFF2EC020A218C20FFF7CEFAA8781FF0DF
:103E9000B5FAD7A20A21EFE3FFF7C6FAA5E6D9489B
:103EA0000426807832B1012A53D0022A7FF432AE40
:103EB00089B39AE641B101290AD002290DD003291C
:103EC00010D0042913D090E61FF060FAC8A212E0C7
:103ED00007981FF05BFAC7A20DE008981FF056FA8A
:103EE000C5A208E009981FF051FAC4A203E00A989D
:103EF0001FF04CFAC2A20A214FF482700DF040FD6F
:103F0000207B48B101280CD002280FD0032812D002
:103F1000042815D069E63AE0E8781FF06FFABAA2F3
:103F200013E0E87A1FF06AFAB8A20EE0E87C1FF00E
:103F300065FAB7A209E0E87E1FF060FAB5A204E0D6
:103F400095F823001FF05AFAB3A20A214FF4AA7081
:103F50006EE711B101290CD047E61FF017FAA4A2B1
:103F60000A21B420FFF72AFAE8781FF047FAA6A240
:103F70000BE009981FF00AFAA0A20A21B420FFF76B
:103F80001DFAE87E1FF03AFAA2A20A21F7E31FF019
:103F9000FDF997A20A21B420FFF746FAE8781FF04E
:103FA0002DFA99A20A21EBE39648C07832B1012A92
:103FB00057D0022A7FF4FDADF1B373E041B101297E
:103FC0000AD002290DD0032910D0042913D01BE0F8
:103FD0001FF0DCF98CA212E00B981FF0D7F98BA22E
:103FE0000DE00C981FF0D2F989A208E00D981FF09F
:103FF000CDF988A203E00E981FF0C8F986A20A2125
:104000004FF4AA700DF0BCFC00200EF0A7F8834816
:104010000EF088F895F82900022871D0012870D098
:1040200003286FD004286ED005286DD006286CD0E8
:1040300007286BD0082800E038E068D0092867D04E
:1040400003E064212F200DF065FC95F8300008B1E5
:1040500073A000E077A002F0C3FD06F0FFF8002097
:10406000A3E211B101290CD01CE01FF08FF966A268
:104070000A21DC20FFF7A2F928791FF0BFF971A20D
:104080000BE00D981FF082F962A20A21DC20FFF7F5
:1040900095F9287F1FF0B2F96BA20A214FF48270C4
:1040A000FFF78CF9012004F071FD66E21FF06EF954
:1040B00055A20A21DC20FFF7B7F928791FF09EF9F5
:1040C00060A20A214FF48270FFF7AEF9EAE74D488B
:1040D0000626007932B1012A5CD0022A7FF41AAD9B
:1040E000D1B3FBE241B1012913D0022916D0032933
:1040F00019D004291CD0F1E21FF048F951A21BE0AD
:1041000060E262E264E266E268E26AE26CE26EE267
:1041100070E20F981FF03AF94CA20DE010981FF0D2
:1041200035F94BA208E011981FF030F946A203E0E0
:1041300012981FF02BF947A24FF4A57164200DF0DF
:104140001FFC207B48B101280CD002280FD0032887
:1041500012D0042815D0C1E23CE068791FF04EF976
:104160003DA213E0687B1FF049F93CA20EE0687D98
:104170001FF044F93AA209E0687F1FF03FF939A225
:1041800004E095F825001FF039F937A24FF4A57126
:10419000B4204DE611B101290DD09FE21FF0F6F8D1
:1041A00028A20A214FF48270FFF708F968791FF0FE
:1041B00025F929A20CE011981FF0E8F822A20A21A3
:1041C0004FF48270FFF7FAF8687F1FF017F925A205
:1041D0000A21A1E31FF0DAF81AA20A214FF4827033
:1041E000FFF722F968791FF009F91BA20A21A6E35B
:1041F0003030330030313100303139003032370067
:10420000303335005004002030303400303132007B
:1042100030323000303238003033360000FFFF00DB
:10422000546865726D6F636F75706C65206D6F6437
:10423000656C0000C8C8B5E7C5BCD0CDBAC5D1A172
:10424000D4F10000303035003032390030313300E5
:104250003032310030333700303036003031340006
:10426000303232003033300030333800F648072621
:10427000407932B1012A59D0022A7FF44BACB1B354
:10428000F2E341B101290BD002290FD0032913D049
:10429000042917D0E8E31FF079F8AFF2440216E0E2
:1042A00013981FF073F8AFF24C0210E014981FF04F
:1042B0006DF8AFF254020AE015981FF067F8AFF2FC
:1042C0005C0204E016981FF061F8AFF264024FF44C
:1042D000A571B4200DF054FB207B48B101280CD00F
:1042E00002280FD0032812D0042815D0BCE33FE0E9
:1042F000A8791FF083F8D5A213E0A87B1FF07EF801
:10430000D3A20EE0A87D1FF079F8D2A209E0A87F21
:104310001FF074F8D0A204E095F826001FF06EF8A4
:10432000CEA24FF4A5714FF4827081E511B101293D
:104330000ED099E31FF02AF8AFF2E4020A214FF4FD
:104340009670FFF73BF8A8791FF058F8BFA20DE070
:1043500015981FF01BF8AFF2F4020A214FF4967083
:10436000FFF72CF8A87F1FF049F8BBA20A2115E33C
:104370001FF00CF8AFF220120A214FF49670FFF7ED
:1043800053F8A8791FF03AF8B0A20A2119E3AE4811
:10439000807932B1012A57D0022A7FF407AC91B359
:1043A00087E041B101290AD002290DD0032910D09C
:1043B000042913D07DE01EF0E9FFA4A212E01798B3
:1043C0001EF0E4FFA2A20DE018981EF0DFFFA1A2EC
:1043D00008E019981EF0DAFF9FA203E01A981EF079
:1043E000D5FF9EA24FF4A5714FF482700DF0C8FA6C
:1043F000207B48B101280CD002280FD0032812D00E
:10440000042815D055E043E0E8791EF0F7FF94A2A8
:1044100013E0E87B1EF0F2FF92A20EE0E87D1EF0B2
:10442000EDFF91A209E0E87F1EF0E8FF8FA204E013
:1044300095F827001EF0E2FF8DA24FF4A5714FF40E
:10444000AA700DF09DFA34E011B101290DD030E0D1
:104450001EF09CFF7DA20A214FF4AA70FEF7AEFF6A
:10446000E8791EF0CBFF7EA20CE019981EF08EFFBB
:1044700079A20A214FF4AA70FEF7A0FFE87F1EF090
:10448000BDFF7AA20A214FF4BE70FEF797FF10E03D
:104490001EF07CFF6DA20A214FF4AA70FEF7C4FF44
:1044A000E8791EF0ABFF6EA20A214FF4BE70FEF752
:1044B000BBFF0820CDE234E144E16348C07932B16A
:1044C000012A5CD0022A7FF46BAA91B3F9E041B1D2
:1044D00001290AD002290DD0032910D0042913D0B4
:1044E0004BE01EF053FF5EA212E01B981EF04EFF41
:1044F0005CA20DE01C981EF049FF5BA208E01D982D
:104500001EF044FF59A203E01E981EF03FFF58A280
:104510004FF4A5714FF4AA700DF032FA207B48B128
:1045200001280DD0022811D0032815D0042819D055
:1045300023E062E028791EF061FFAFF2F82217E075
:10454000287B1EF05BFFAFF2FC2211E0287D1EF0FD
:1045500055FFAFF204320BE0287F1EF04FFFAFF2A1
:10456000183205E095F824001EF048FFAFF21C3227
:104570004FF4A57164200DF003FA052015E0C1B1D8
:104580000129A0D11D981EF001FF38A20A214FF485
:10459000BE70FEF713FF287E1EF030FFAFF6280234
:1045A0000A216420FEF70AFF0120E0721FB0BDE877
:1045B000F08F1EF0EBFE2AA20A214FF4BE70FEF728
:1045C000FDFE21E5AFF6A4023BE5AFF6A00238E51B
:1045D000AFF6A00235E5AFF69C0232E5AFF69C02DD
:1045E0002FE5AFF698022CE5AFF6980229E5AFF675
:1045F000940226E5AFF6940223E51EF0C7FE18A24A
:104600000A214FF4BE70FEF70FFF00200DF0A6FD4B
:1046100018480DF087FD95F82900022810D00128D0
:104620002BD003282CD004282DD005282ED00628E6
:104630002FD0072830D0082831D0092832D037E0D1
:10464000AFF6201230E0ACE05004002030303700EC
:1046500030313500303233003033310030333900FF
:1046600030303800303136003032340030333200F0
:104670003034300000FFFF00A4E0AFF6501213E02A
:10468000AFF6501210E0AFF64C120DE0AFF64C1240
:104690000AE0AFF6481207E0AFF6481204E0AFF6C2
:1046A000441201E0AFF6441264212F200DF032F9DC
:1046B00095F8300040B1AFF2984002F091FA002036
:1046C000E07205F0CBFD71E7AFF29840F5E70A26FE
:1046D000012A04D0022A7FF469AA29B3C4E111B1E6
:1046E00001290ED0C0E11EF051FEAFF67C12D2219E
:1046F0006420FEF763FE687A1EF080FEAFF6641257
:104700000EE070461EF042FEAFF69012D2216420F9
:10471000FEF754FE95F821001EF070FEAFF67812F9
:10472000D2218C20FFF7A7BB1EF030FEAFF6C012DF
:1047300086216420FEF778FE687A1EF05FFEAFF6F1
:10474000A41286218C20FFF7A7BB0B26012A03D0D9
:10475000022AC0D139B387E111B1012911D083E117
:1047600003981EF013FEAFF6CC12D2218C20FEF778
:1047700025FEA87A1EF042FEAFF2885210E04DE00E
:104780005DE006981EF002FEAFF6E412D2218C2006
:10479000FEF714FE95F822001EF030FEAFF2A05294
:1047A000D221B420BEE703981EF0F0FDAFF614222C
:1047B00086218C20FEF738FEA87A1EF01FFEAFF28D
:1047C000CC528621B420BEE70C26012A03D0022A4F
:1047D000BFD129B348E111B101290FD044E10798B5
:1047E0001EF0D4FDAFF2F452D221B420FEF7E6FD64
:1047F000E87A1EF003FEAFF2EC520EE00A981EF0CB
:10480000C5FDAFF20462D221B420FEF7D7FD95F8C2
:1048100022001EF0F3FDAFF20062D221DC2081E71E
:1048200007981EF0B3FDAFF234628621B420FEF784
:10483000FBFDE87A1EF0E2FDAFF230628621DC205B
:1048400081E70D26012A03D0022AC1D131B30BE141
:1048500011B101290FD007E10B981EF097FDAFF2BF
:104860005462D221DC20FEF7A9FD287B1EF0C6FD94
:10487000AFF228620EE00E981EF088FDAFF268627B
:10488000D221DC20FEF79AFD95F824001EF0B6FD3B
:10489000AFF24062D2214FF4827043E70B981EF0D2
:1048A00075FDAFF298628621DC20FEF7BDFD287B06
:1048B0001EF0A4FDAFF26C6286214FF4827042E7D5
:1048C0000E26012A03D0022ABFD141B3CCE011B198
:1048D000012910D0C8E00F981EF058FDAFF2946285
:1048E000D2214FF48270FEF769FD687B1EF086FDD1
:1048F000AFF298620FE012981EF048FDAFF2AC6282
:10490000D2214FF48270FEF759FD95F825001EF074
:1049100075FDAFF2AC62D2214FF4967002E70F98AA
:104920001EF034FDAFF2DC6286214FF48270FEF798
:104930007BFD687B1EF062FDAFF2E06286214FF4E2
:10494000967000E70F26012A03D0022ABCD141B39A
:104950008AE011B1012910D086E013981EF016FDEF
:10496000AFF20872D2214FF49670FEF727FDA87BB4
:104970001EF044FDAFF228320FE016981EF006FD3F
:10498000AFF21C72D2214FF49670FEF717FD95F826
:1049900026001EF033FDAFF23C32D2214FF4AA7054
:1049A000C0E613981EF0F2FCAFF2507286214FF46D
:1049B0009670FEF739FDA87B1EF020FDAFF2703235
:1049C00086214FF4AA70BEE6012A03D0022ABDD187
:1049D00051B33DE011B1012910D039E017981EF014
:1049E000D5FCAFF29432D2214FF4AA70FEF7E6FC68
:1049F000A87B1EF003FDAFF294320FE01A981EF070
:104A0000C5FCAFF2A832D2214FF4AA70FEF7D6FC53
:104A100095F827001EF0F2FCAFF2AC32D2214FF431
:104A2000BE70FEF7CBFC13E017981EF0AFFCAFF2A0
:104A3000E03286214FF4AA70FEF7F6FCE87B1EF008
:104A4000DDFCAFF2E03286214FF4BE70FEF7ECFCE5
:104A500010203CE30926012A03D0022AB7D149B32A
:104A600002E021B1012912D0E672FFF79FB81B982E
:104A70001EF08CFCAFF21442D2214FF4BE70FEF750
:104A80009DFC287A1EF0BAFCAFF61C520FE01E986F
:104A90001EF07CFCAFF22842D2214FF4BE70FEF72C
:104AA0008DFC95F820001EF0A9FCAFF63052D22103
:104AB000642037E61B981EF069FCAFF2584286214D
:104AC0004FF4BE70FEF7B0FC287A1EF097FCAFF6EC
:104AD00060528621642036E64FF01208012A03D086
:104AE000022AC2D189B136E118461EF04FFCAFF65A
:104AF0007C5231466420FEF761FC687C1EF07EFC2F
:104B0000AFF6645231468C2028E018461EF03EFC79
:104B1000AFF6A05239466420FEF786FC687C1EF092
:104B20006DFCAFF6845239468C202AE04FF0130812
:104B3000012A03D0022A98D199B10CE104981EF001
:104B400025FCAFF6A45231468C20FEF737FCA87C3A
:104B50001EF054FCAFF660123146B420FEF72EFC76
:104B6000F9E004981EF012FCAFF6CC5239468C20C6
:104B7000FEF75AFCA87C1EF041FCAFF684123946C1
:104B8000B420FEF751FCE6E04FF01408012A03D0F0
:104B9000022AA6D189B1DEE008981EF0F7FBAFF635
:104BA000A8123146B420FEF709FCE87C1EF026FC72
:104BB000AFF6A4123146DC20D0E708981EF0E6FBE1
:104BC000AFF6CC123946B420FEF72EFCE87C1EF07E
:104BD00015FCAFF6C4123946DC20D2E74FF01508B9
:104BE000012A03D0022AA6D191B1B4E00C981EF09C
:104BF000CDFBAFF6E4123146DC20FEF7DFFB287D6B
:104C00001EF0FCFBAFF6B81231464FF48270A5E7F8
:104C10000C981EF0BBFBAFF608223946DC20FEF7ED
:104C200003FC287D1EF0EAFBAFF6DC1239464FF498
:104C30008270A6E74FF01608012A03D0022AA8D1F5
:104C400099B188E010981EF0A1FBAFF6FC12314636
:104C50004FF48270FEF7B2FB687D1EF0CFFBAFF61B
:104C6000002231464FF4967078E710981EF08EFBC4
:104C7000AFF6242239464FF48270FEF7D5FB687DEB
:104C80001EF0BCFBAFF6282239464FF4967078E749
:104C90004FF01708012A03D0022AA4D199B15AE093
:104CA00014981EF073FBAFF6482231464FF496700D
:104CB000FEF784FBA87D1EF0A1FBAFF268623146CF
:104CC0004FF4AA704AE714981EF060FBAFF670220A
:104CD00039464FF49670FEF7A7FBA87D1EF08EFBB9
:104CE000AFF2906239464FF4AA704AE74FF01808C5
:104CF000012A03D0022AA2D199B12CE018981EF003
:104D000045FBAFF2B06231464FF4AA70FEF756FB96
:104D1000E87D1EF073FBAFF2B06231464FF4BE7017
:104D20001CE718981EF032FBAFF2D86239464FF4F8
:104D3000AA70FEF779FBE87D1EF060FBAFF2D86247
:104D400039464FF4BE701CE74FF01108012A05D018
:104D5000022AA2D199B184F80B8086E61C981EF035
:104D600015FBAFF2FC6231464FF4BE70FEF726FB36
:104D7000287C1EF043FBF74A31466420EEE61C987F
:104D80001EF004FBAFF2207239464FF4BE70FEF7FE
:104D90004BFB287C1EF032FBEE4A39466420F0E6DD
:104DA000022ADAD191B958461EF0F0FAE94A4E4685
:104DB000121D49466420FEF737FB687E1EF01EFB7D
:104DC000E44A314630328C20FEF72EFB1A207EE179
:104DD000022AC2D191B905981EF0D8FADD4A4E4692
:104DE000303249468C20FEF71FFBA87E1EF006FBE2
:104DF000AFF6F8323146B420FEF716FB1B2066E111
:104E0000022AAAD191B909981EF0C0FAAFF614424D
:104E10004E464946B420FEF707FBE87E1EF0EEFA48
:104E2000AFF610423146DC20FEF7FEFA1C204EE1C0
:104E3000022A92D199B90D981EF0A8FAAFF62C4229
:104E40004E464946DC20FEF7EFFA287F1EF0D6FAE0
:104E5000AFF60C4231464FF48270FEF7E5FA1D20A2
:104E600035E1022A9DD1A1B911981EF08FFAAFF653
:104E700028424E4649464FF48270FEF7D5FA687FC5
:104E80001EF0BCFAAFF6244231464FF49670FEF79E
:104E9000CBFA1E201BE1022A9BD1A1B915981EF066
:104EA00075FAAFF640424E4649464FF49670FEF70B
:104EB000BBFAA87F1EF0A2FAAFF6640231464FF4A7
:104EC000AA70FEF7B1FA1F2001E1022A99D1A1B917
:104ED00019981EF05BFAAFF680024E4649464FF431
:104EE000AA70FEF7A1FAE87F1EF088FAAFF68402F6
:104EF00031464FF4BE70FEF797FA2020E7E0022A11
:104F000097D199B91D981EF041FAAFF6A0024E460E
:104F100049464FF4BE70FEF787FA287E1EF06EFAFF
:104F20008C4A3146121D6420FEF77EFA1920CEE02D
:104F3000022A97D199B970461EF028FA854A56463A
:104F4000083251466420FEF76FFA95F821001EF0F2
:104F500055FA804A314634328C20FEF765FA222019
:104F6000B5E0022A98D199B906981EF00FFA794A4D
:104F70005646343251468C20FEF756FA95F82200F8
:104F80001EF03CFAAFF688523146B420FEF74CFAD8
:104F900023209CE0022A99D199B90A981EF0F6F9CB
:104FA000AFF6A45256465146B420FEF73DFA95F8A6
:104FB00023001EF023FAAFF6A0523146DC20FEF7A4
:104FC00033FA242083E0022A9AD1A1B90E981EF068
:104FD000DDF9AFF6BC5256465146DC20FEF724FA06
:104FE00095F824001EF00AFAAFF6985231464FF4B5
:104FF0008270FEF719FA252069E0022A99D1A9B931
:1050000012981EF0C3F9AFF6B452564651464FF40B
:105010008270FEF709FA95F825001EF0EFF9AFF659
:10502000B85231464FF49670FEF7FEF926204EE056
:10503000022A97D1A9B916981EF0A8F9AFF6D8524E
:10504000564651464FF49670FEF7EEF995F8260055
:105050001EF0D4F9AFF6FC1231464FF4AA70FEF7F9
:10506000E3F9272033E0022A95D1A9B91A981EF056
:105070008DF9AFF61822564651464FF4AA70FEF746
:10508000D3F995F827001EF0B9F9AFF61C22314686
:105090004FF4BE70FEF7C8F9282018E0022A93D119
:1050A000A1B91E981EF072F9AFF63C225646514641
:1050B0004FF4BE70FEF7B8F995F820001EF09EF987
:1050C000244A314608326420FEF7AEF92120E0720E
:1050D000CBE44FF4FA76BCF1320F71D016DCBCF1A0
:1050E0002C0F48D0BCF12D0F6BD0BCF12E0F69D026
:1050F000BCF1310F7FF45AAA1EF06AF995F82E0020
:10510000C0B301286FD002286ED078E1BCF15F0FE8
:105110006BD0BCF1610F69D0BCF1620FEAD11EF017
:1051200057F995F83B3095F83A200BA16846303591
:105130001DF044FA6A469621F8200CF0EBFB6879E2
:1051400024F074F82878D0B306A001F049FD33208C
:10515000FFF72BBA743D000825302E32643A253013
:105160002E3264005265636F726420696E746572DA
:1051700076616C002DE11EF02BF995F82C000028CB
:1051800095F830001FD018B3F7A2962132200CF00A
:10519000C1FB1EF043F995F82A00002895F830006D
:1051A00018D0E0B1F0A296215A200CF0B3FB95F88C
:1051B0003000B0B1EDA001F013FD2D20C8E706E1ED
:1051C00044E114E05EE008B1ECA2DEE7ECA2DCE72B
:1051D000EDA2DAE708B1E9A2E5E7E9A2E3E7EAA28E
:1051E000E1E7EBA0E7E7FBE001E195E0C5E01EF0B9
:1051F000EFF895F82A00002895F8300026D050B333
:10520000D9A296215A200CF085FBE44801460CF007
:105210008FFF1F2318227F2196200CF0ADFC95F8FC
:105220002B00052819D004284FF000001FD00CF0E7
:1052300095FFDBA29B217F200CF06CFB95F83000E2
:10524000F0B1D8A001F0CCFC2E2081E708B1CBA2B0
:10525000D7E7CBA2D5E7CCA2D3E700200CF07EFFA6
:10526000D6A296217F20FEF7DFF8D5A2E2E70CF068
:1052700075FFD2A296217F20FEF7D6F8BEA2D9E70D
:10528000D0A0DFE7882108460CF052FF1F23182228
:105290007F2196200CF070FC95F82B0005281FD07C
:1052A0000428BE4826D00CF059FFBDA29B217F20C8
:1052B0000CF030FB1EF0B2F895F83600002895F897
:1052C000300020D020B3A8A29621AA200CF022FB07
:1052D00095F83000F0B1BFA001F082FC5F2037E705
:1052E000AE480CF03BFFB5A296217F20FEF79CF85C
:1052F000B3A2DBE70CF032FFB0A296217F20FEF7CD
:1053000093F89DA2D2E708B19CA2DDE79CA2DBE75F
:105310009DA2D9E7B2A0DFE71EF05AF895F8360053
:10532000002895F830001FD018B38FA29621AA202C
:105330000CF0F0FA1EF072F895F8393095F8382034
:10534000AFF2EC11684630351DF038F96A46962107
:10535000D0200CF0DFFA287868B1A4A001F040FC5E
:10536000012060706120F3E608B184A2DEE784A228
:10537000DCE785A2DAE79FA0F0E71EF029F895F8B0
:10538000393095F83820AFF23021684630351DF0BD
:1053900015F96A469621D0200CF0BCFA1EF03EF8B2
:1053A000EB7AAA7AAFF2502168461DF007F96A46F7
:1053B0009621F8200CF0AEFA287830B191A001F0D7
:1053C0000FFC012060706220C2E68FA0F7E792A078
:1053D000BBE695F8300008B193A20CE094A20AE075
:1053E00095F8300008B194A205E094A203E095F886
:1053F000300090B193A2314632200CF08BFA1EF0AF
:105400000DF895F82F0050B101280AD002280AD0D3
:1054100003280AD004280AD00EE08CA2EBE78DA264
:1054200006E08EA204E08FA202E090A200E091A22A
:10543000314657200CF06EFA95F8300020B18FA05D
:1054400001F0CEFB322083E691A0F9E71DF0C0FF0A
:1054500095F82F0040B1012808D0022808D0032871
:1054600008D0042808D00CE07AA206E07BA204E071
:105470007CA202E07DA200E07EA2314657200CF023
:1054800049FA1DF0CBFF95F83700002895F8300059
:105490000DD088B134A2314682200CF03BFA95F849
:1054A000300058B17DA001F09BFB602050E608B1B0
:1054B00032A2F0E732A2EEE733A2ECE779A0F2E7FE
:1054C0007B4D7C4E7C4895ED212AD6ED214A807B90
:1054D00096ED194AD6ED113A96ED093AD6ED012A24
:1054E000D5ED191A95ED111AD5ED090A95ED010AB8
:1054F000ACF1380CBCF10F0FBFF458A8DFE80CF08A
:105500000AF6E8E7E6E5E408E3E2E1E0DFDE33009F
:10551000FFF74CB840B101280CD0022812D0032864
:1055200018D004281ED0DFE002201EF037FC95EDD5
:10553000000AD6E0B0EE600A02201EF02FFC95EDC6
:10554000080ACEE0B0EE410A02201EF027FC95EDDD
:10555000100AC6E0B0EE610A02201EF01FFC95EDB5
:10556000180ABEE0B6E047E34F4E000042757A7A73
:105570006572204F4E2F4F46460000004F464600B2
:10558000B9D8B1D500000000B4F2BFAA00000000F5
:10559000B7E4C3F9C6F7C9E8D6C3000000FFFF00AF
:1055A0004B00000053656C6563742074656D706515
:1055B00072617475726520756E6974006F00000009
:1055C00043000000CEC2B6C8B5A5CEBBD1A1D4F170
:1055D00000000000547269672054696D6572000014
:1055E000B6A8CAB1B2C9BCAF0000000053544152C2
:1055F00054000000B2C9BCAFBFAACABCCAB1BCE467
:1056000000000000454E4400B2C9BCAFBDE1CAF87D
:10561000CAB1BCE400000000BCC7C2BCBCE4B8F422
:10562000CAB1BCE400000000464153540000000031
:10563000BFECCBD9000000004D454400D6D0CBD9FB
:1056400000000000534C4F5700000000C2FDCBD9B2
:1056500000000000393630300000000031393230AF
:105660003000000033383430300000003537363039
:1056700030000000313135323030000053656C6548
:1056800063742042617564207261746500000000DB
:10569000B2A8CCD8C2CAC9E8D6C30000524550450A
:1056A00041540000D6D8B8B4B2C9BCAF0000000065
:1056B000580D0020B80C0020F800002066E22FE210
:1056C000F8E1C1E18AE153E11CE1E5E0AEE077E019
:1056D00040E00BE0B0EE420A02201EF05FFB95EDC9
:1056E000200A01201EF0CCFA392031E540B1012812
:1056F0000CD0022812D0032818D004281ED027E08E
:1057000002201EF0BDFA95ED020A1EE0B0EE600A1E
:1057100002201EF0B5FA95ED0A0A16E0B0EE410A35
:1057200002201EF0ADFA95ED120A0EE0B0EE610A0D
:1057300002201EF0A5FA95ED1A0A06E0B0EE420A24
:1057400002201EF09DFA95ED220A03201EF026FB92
:105750003A20FDE440B101280ED0022814D00328DD
:105760001AD0042820D029E095ED020A03201EF06B
:1057700087FA95ED030A1EE095ED0A0A03201EF054
:105780007FFA95ED0B0A16E095ED120A03201EF044
:1057900077FA95ED130A0EE095ED1A0A03201EF034
:1057A0006FFA95ED1B0A06E095ED220A03201EF024
:1057B00067FA95ED230A04201EF0F0FA3B20C7E4B7
:1057C00040B101280ED0022814D003281AD0042892
:1057D00020D029E095ED030A04201EF051FA95ED42
:1057E000040A1EE095ED0B0A04201EF049FA95ED1F
:1057F0000C0A16E095ED130A04201EF041FA95ED0F
:10580000140A0EE095ED1B0A04201EF039FA95EDFE
:105810001C0A06E095ED230A04201EF031FA95EDEE
:10582000240A05201EF0BAFA3C2091E440B1012878
:105830000ED0022814D003281AD0042820D029E042
:1058400095ED040A05201EF01BFA95ED050A1EE0F1
:1058500095ED0C0A05201EF013FA95ED0D0A16E0E1
:1058600095ED140A05201EF00BFA95ED150A0EE0D1
:1058700095ED1C0A05201EF003FA95ED1D0A06E0C1
:1058800095ED240A05201EF0FBF995ED250A06206A
:105890001EF084FA3D205BE440B101280ED00228BE
:1058A00014D003281AD0042820D029E095ED050A49
:1058B00006201EF0E5F995ED060A1EE095ED0D0AAD
:1058C00006201EF0DDF995ED0E0A16E095ED150A9D
:1058D00006201EF0D5F995ED160A0EE095ED1D0A8D
:1058E00006201EF0CDF995ED1E0A06E095ED250A7D
:1058F00006201EF0C5F995ED260A07201EF04EFA87
:105900003E2025E440B101280ED0022814D00328FF
:105910001AD0042820D029E095ED060A07201EF0B1
:10592000AFF995ED070A1EE095ED0E0A07201EF06F
:10593000A7F995ED0F0A16E095ED160A07201EF05F
:105940009FF995ED170A0EE095ED1E0A07201EF04F
:1059500097F995ED1F0A06E095ED260A07201EF03F
:105960008FF995ED270A08201EF018FA3F2025E44C
:1059700040B101280ED0022814D003281AD00428E0
:1059800020D029E0B0EE620A02201EF0C7F896EDA2
:10599000000A1EE0B0EE430A02201EF0BFF896EDAA
:1059A000080A16E0B0EE630A02201EF0B7F896ED82
:1059B000100A0EE0B0EE440A02201EF0AFF896ED99
:1059C000180A06E0B0EE640A02201EF0A7F896ED71
:1059D000200A01201EF00CF8412036E440B10128D5
:1059E0000ED0022814D003281AD0042820D029E091
:1059F000B0EE620A02201DF0FBFF96ED020A1EE0E7
:105A0000B0EE430A02201DF0F3FF96ED0A0A16E0FD
:105A1000B0EE630A02201DF0EBFF96ED120A0EE0D5
:105A2000B0EE440A02201DF0E3FF96ED1A0A06E0EC
:105A3000B0EE640A02201DF0DBFF96ED220A03207F
:105A40001EF06CF842204AE440B101280ED0022832
:105A500014D003281AD0042820D029E096ED020A99
:105A600003201DF0C5FF96ED030A1EE096ED0A0A1D
:105A700003201DF0BDFF96ED0B0A16E096ED120A0D
:105A800003201DF0B5FF96ED130A0EE096ED1A0AFD
:105A900003201DF0ADFF96ED1B0A06E096ED220AED
:105AA00003201DF0A5FF96ED230A04201EF036F812
:105AB000432014E440B101280ED0022814D003285A
:105AC0001AD0042820D029E096ED030A04201DF006
:105AD0008FFF96ED040A1EE096ED0B0A04201DF0E0
