:020000040800F2
:10000000E80F0120C10100081319010871EF000871
:1000100011190108B9100008B7D801080000000044
:10002000000000000000000000000000E94301089B
:10003000FD5D000800000000C919010855460108CF
:10004000DB010008DB010008DB010008DB01000820
:10005000DB010008DB010008DB010008DB01000810
:10006000DB010008DB010008DB010008DB01000800
:10007000DB010008DB010008DB010008DB010008F0
:10008000DB010008DB010008DB010008DB010008E0
:10009000DB010008DB010008DB010008DB010008D0
:1000A000DB010008DB010008DB010008DB010008C0
:1000B000DB010008DB010008DB010008DB010008B0
:1000C000DB010008DB010008DB010008DB010008A0
:1000D000DB01000809C10108DB010008DB010008A1
:1000E000DB010008DB010008DB010008DB01000880
:1000F000DB010008DB010008DB010008DB01000870
:10010000DB010008DB010008DB010008DB0100085F
:10011000DB010008DB010008ED4601083148010859
:10012000DB010008DB010008DB010008DB0100083F
:10013000DB010008DB010008DB010008DB0100082F
:10014000DB010008DB010008DB0100088D19010854
:10015000DB010008DB010008DB010008DB0100080F
:10016000DB010008DB010008A51901089919010845
:10017000DB010008B1190108DB010008DB01000800
:10018000DB010008DB010008DB010008DB010008DF
:10019000DB010008DB010008DB010008DB010008CF
:1001A000DB010008DB010008DB010008DFF80CD0F0
:1001B00000F012FC0048004719F60108E80F012082
:1001C0000648804706480047FEE7FEE7FEE7FEE7F1
:1001D000FEE7FEE7FEE7FEE7FEE7FEE791460108E1
:1001E000AD010008D2B201E000F8012B491EFBD29C
:1001F00070470022F6E710B513460A460446194632
:10020000FFF7F0FF204610BD421E12F8013F002B01
:10021000FBD111F8013B02F8013B002BF9D17047EB
:1002200010B5044604E00B7800F8013B03B1491C0B
:10023000521EF8D2204610BD421C10F8011B0029A6
:10024000FBD1801A704710B5002200E0521C835C7D
:100250008C5CA34201D1002BF8D1D8B2E1B2401A94
:1002600010BD034611F8012B00F8012B002AF9D12B
:100270001846704770B506461EF0D0F9046805466A
:100280000A220021304600F0ABFA2C6070BD2DE947
:10029000FE4F804681EA0300C00F0C46009021F01B
:1002A000004123F00045B8EB0200A94105D24046C9
:1002B000214690461C460B46024623F00040104360
:1002C00047D0270DC7F30A00C3F30A510290401A22
:1002D000019040286BDAC3F3130040F4801B0098B0
:1002E000924620B10023D2EB030A63EB0B0B01987B
:1002F0005946C0F14002504600F0F3F906460D465B
:1003000050465946019A00F00BFA10EB0800614183
:10031000002487EA115284EAE7731A4340D0009A16
:1003200062B3019A012A4FEA075215DC001B61EB08
:1003300002014FF0004202EA0752CDE90042001CE0
:1003400041F5801132462B4600F0C8FA03B0BDE8F3
:10035000F08F40462146F9E7001B61EB0201001CCB
:1003600041F5801300185B412018A2F5001747EBF8
:10037000030140EAD570B6196D4111E06D084FEAEE
:10038000360645EAC0754FEA0752001B61EB0201D1
:10039000001C41F5801149084FEA30000019514115
:1003A00032462B4603B0BDE8F04F00F088BA009803
:1003B000012240000023D0EB020263EBE0730098BF
:1003C00021464FEAE074B8EB000061EB0401E9E775
:1003D00083F000435BE781F0004158E72DE9FE4FD1
:1003E00081EA030404F0004421F0004100944FF03E
:1003F000000B23F0004350EA01045ED052EA0304EC
:100400005BD0C3F30A54C1F30A552C44A4F2F3346D
:100410000194A0FB0254C1F3130141F48011C3F312
:10042000130343F4801301FB024400FB034E840AD0
:10043000970A44EA815447EA8357A4FB0768029568
:100440008D0A05FB07854FEA932C04FB0C54270506
:10045000029D4FEA065847EA1637B5EB08056EEBE2
:10046000070C870E920E47EA811742EA8312A7FB18
:100470000201B6EB0B0164EB00042B0D43EA0C33D5
:100480005E1844EB1C50DA465146E7FB0201C5F307
:1004900013044FEA0B3343EA14534FEA0432019C2E
:1004A00043EA0603A4F10C040294009CCDE900B4D5
:1004B00000F014FA03B0BDE8F08F00200146F9E720
:1004C0002DE9F04D81EA030404F0004B21F00045D2
:1004D00014464FF0000A23F0004150EA050220D0F4
:1004E00054EA01021DD0C5F30A570246C5F31303AF
:1004F000C1F31300C1F30A5640F4801543F480138E
:10050000A7EB0608101BD64608F2FD3873EB050072
:1005100002D308F1010801E092185B41B8F1000F25
:1005200003DA00200146BDE8F08D00204FF4801171
:10053000064684460EE0171B73EB050705D3121B16
:1005400063EB050306434CEA010C49084FEA30000F
:1005500092185B4150EA0107EDD152EA030012D034
:1005600082EA040083EA0501084305D0101BAB4171
:1005700006D20122002306E000224FF0004302E0F1
:100580006FF0010253101AEB06004CEB085110EB10
:100590000A0041EB0B01BDE8F04D00F090B90EB53B
:1005A00040F2334102910021CDE900110A460B4689
:1005B00000F094F903B000BD70B5C1F30A5201F028
:1005C00000450024C1F3130140F2FF3341F48011D0
:1005D0009A4201DA002070BD40F233439A42A2F2FF
:1005E000334203DC524200F08BF800E090402C4391
:1005F000F1D0404270BD00F0004230F000400AD01F
:10060000C10D01F56071C0F3160042EA0151C20844
:1006100040071143704700200146704701F0004336
:1006200030B421F0004150EA010206D00A0DA2F5D3
:100630006072C1F31301002A02DC30BC0020704755
:10064000440F44EAC104C100E01830BC00EBC250C2
:1006500000F0FEB830B50B460146002020220124F0
:1006600009E021FA02F59D4205D303FA02F5491B80
:1006700004FA02F52844151EA2F10102F1DC30BD96
:100680002DE9F05F0546002092469B4688460646C7
:10069000814640241BE0284641464746224600F05A
:1006A0002FF853465A46C01A914110D311461846A6
:1006B000224600F016F82D1A67EB01084F46224635
:1006C0000120002100F00DF817EB00094E41201E1B
:1006D000A4F10104DFDC484631462A464346BDE822
:1006E000F09F202A04DB203A00FA02F10020704734
:1006F0009140C2F1200320FA03F319439040704760
:10070000202A04DB203A21FA02F00021704721FA66
:1007100002F3D040C2F120029140084319467047CD
:10072000202A06DBCB17203A41FA02F043EAE073B5
:1007300006E041FA02F3D040C2F1200291400843A2
:10074000194670470FB4002300B589B00CA9009179
:100750000B996FF00042CB601E4B06931E4B079324
:100760000423CDE901321D4A089202466B4600205F
:1007700000F0E6F909B05DF814FB70B586B00646E6
:100780004FF0FF300091CDE90101002015460C46E5
:1007900004903246694604A8FFF7D4FF0246049845
:1007A000211825B108B1084600E0204628600498C9
:1007B00000280DD0002A02DD0098884208D0081BCE
:1007C0000094CDE901043246694604A8FFF7BAFF58
:1007D00006B070BD790D0008970D0008050A0008E5
:1007E0002DE9F04791460F4680460446002614F84E
:1007F000015B2DB100F002F90068405DC007F6D141
:100800002B2D02D02D2D18D0641E4A463946204685
:1008100000F0D2FA27B13968A14201D1C7F80080AF
:1008200071054FF002040BD54042002803DD1DF096
:10083000F5FE0460A007BDE8F08746F48066E4E7B3
:100840000028F8DA1DF0EAFE04606FF00040F2E7DD
:100850000029A8BF7047401C490008BF20F00100D4
:10086000704710B4B0FA80FC00FA0CF050EA0104B2
:1008700004BF10BC704749B1CCF1200421FA04F444
:1008800011FA0CF118BF012121430843A3EB0C011D
:10089000CB1D4FEA00614FEA102042BF002010BC80
:1008A000704700EBC35010440029A4BF10BC704730
:1008B000401C490008BF20F0010010BC704710B573
:1008C000141E73F1000408DA401C41F10001921873
:1008D0005B411A4301D120F0010010BD2DE9F04D1C
:1008E00092469B4611B1B1FA81F202E0B0FA80F271
:1008F00020329046FFF7F5FE04460F4640EA0A0014
:1009000041EA0B0153465A46084313D0114653EAB5
:10091000010019D0C8F140025046FFF7F1FE05462C
:100920000E46504659464246FFF7DBFE084305D0C7
:10093000012004E020463946BDE8F08D0020054343
:1009400046EAE0762C4337430A986305E40AA0EBB5
:1009500008000022FD0A44EA47540A3002D500206C
:100960000146E9E7010510196941DDE9084500196B
:100970006941BDE8F04DA2E7C1F30A52C1F313018A
:1009800040F2FF3341F480119A4202DA002001461E
:10099000704740F233439A42A2F2334202DC5242A1
:1009A000FFF7AEBEFFF79DBE30B5041E71F1000427
:1009B00004DB4FF00044404264EB0101141E73F16C
:1009C000000405DB1C464FF00043524263EB040376
:1009D000994208BF904230BD064C074D06E0E068E2
:1009E00040F0010394E8070098471034AC42F6D376
:1009F000FFF7E0FB2CD403084CD4030800487047F1
:100A0000B4D3030810B50446FFF7F8FF0068005D93
:100A100000F0010010BD00002DE9FF4F087883B001
:100A20009946FF2805D0491C2D2804D00024002019
:100A300008E000200BE00124F9E700EB800003EB65
:100A40004000491C0B78FF2BF7D104B14042002332
:100A50000293147819461D462D2C01D02B2C04D15D
:100A6000521C2D2C13D000240294AA461478FF2C7B
:100A70000FD00A25A3FB057801FB05814FF0000C80
:100A800003FB0C11521CE3194AEB0101EEE70124B0
:100A9000EAE7814453EA010002D019F5C87F06DA7B
:100AA00003980021C0E9001107B0BDE8F08F0025D0
:100AB000AE4E2F46DFF8B882184600F0DAF9CDE9DD
:100AC0000001B9F1000002DAC9F1000400E00446B7
:100AD0000023A74A1AEB030B42EB045A12E0E0078B
:100AE00007D02A46334638464146FFF777FC07468B
:100AF00088462A46334610461946FFF76FFC0546DE
:100B00000E466410002CEAD1DDE90001B9F1000FB6
:100B10005A46534606DAFFF7D3FC3A464346FFF7F8
:100B2000CFFC05E0FFF75AFC3A464346FFF756FC78
:100B3000029A0AB181F00041039AC2E90001B3E7C9
:100B40002DE9FF4F1F468DB0D7E901464FF0FF3822
:100B50002E2045464FF000090B90B9696D1C0E9888
:100B60008847396A824688470028F6D1BAF1FF3FA4
:100B70000AD024F4D064002E11DDBAF12B0F08D076
:100B8000BAF12D0F0BD102E0404611B08DE744F4CD
:100B90008064B9696D1C0E9888478246761E694646
:100BA000600501D52D2000E02B208DF8000001F11B
:100BB000010B0DF1200809E0B9696D1C0E988847FA
:100BC00082460F9844F40074761E0560002E02DD04
:100BD000BAF1300FF0D00B998A453ED144F0800431
:100BE00006E00F99681CA9F1010944F4007408603B
:100BF000B9696D1C761E0E98884782463028F0D061
:100C00002BE00B998A4505D1200603D444F08004DB
:100C1000761E18E050461DF001FE08B30DF11301D9
:100C2000761E44F400748B4508D2AAF130000BF80C
:100C3000010B200607D5A9F1010003E0200602D42C
:100C400009F101008146A00502D50F99681C0860D2
:100C5000B9696D1C0E9888478246002ED1DC53E09E
:100C6000002E51DDBAF1650F02D0BAF1450F4BD11C
:100C7000A00549D5B9696D1C24F44074761E0E9800
:100C800088478246002E0CDD2B2804D0BAF12D0FA8
:100C900007D144F48074B9696D1C0E988847824668
:100CA000761EE00501D52D2100E02B2108F8011B5F
:100CB000CDF82C8021E00DF12901761E44F400745A
:100CC00088450CD2AAF1300010F0FF0088F800002F
:100CD00002D10B99884509D908F1010806E0E00521
:100CE00001D5244801E042F20F708146B9696D1CBC
:100CF0000E98884782460F980560002E04DD504606
:100D00001DF08CFD0028D6D1F9690E988847FF2088
:100D10008BF8000088F800000020069007904B46F2
:100D20006A4608A906A8FFF777FEA00502D46FF06F
:100D300001002AE714F0240F0AD0E00714D1DDE9FE
:100D400006123868031D3B600068C0E900120BE022
:100D5000DDE90601FFF762FC0146E00704D13868CF
:100D6000021D3A600068016028460EE7000014404A
:100D70000000F03FF1D8FFFF426842B1016811F86E
:100D8000013B23B1521EC0E90012184670470121F1
:100D9000C160881E704742685AB1C368016843B990
:100DA00083688B4205D0491E521CC0E90012002006
:100DB00070474FF0FF3070472DE9F05F82460078B2
:100DC000002715468B460AF10104B946302801D0A8
:100DD0009DB113E014F8010B0127782803D058289F
:100DE00001D045B10AE00DB1102D07D10027102523
:100DF00014F8010B02E0082500E00A250026B046A1
:100E00000EE005FB080005FB06F1012701EB10468B
:100E10001FFA80F8B6F5803F00D3B94614F8010BED
:100E2000294600F018F80028EBDABBF1000F05D0D6
:100E30000FB1641E00E05446CBF80040B9F1000F3A
:100E400006D01DF0EBFB02210160C81EBDE8F09F3B
:100E500048EA0640FAE73A2800D2303820F020026B
:100E6000412A01D3A2F13700884201D34FF0FF306D
:100E700070470EB540F2334202920022CDE90022C3
:100E80001346FFF72BFD03B000BD70B58C1810F8AA
:100E9000015B15F0070301D110F8013B2A1106D1BF
:100EA00010F8012B03E010F8016B01F8016B5B1ED9
:100EB000F9D12B0705D40023521E0DD401F8013BB4
:100EC000FAE710F8013BCB1A921C03E013F8015B20
:100ED00001F8015B521EF9D5A142D8D3002070BDA4
:100EE0000E4910B5487A082803D0BDE810400BF031
:100EF00027BB887A897B0B4A00EBC1015339C9B201
:100F00009FED070A02EB8101523881ED000AC0B261
:100F10001EF058FDBDE8104013F078BAE400002040
:100F200000000000440801200029816802D041F03F
:100F3000010101E021F0010181607047084B10B50B
:100F4000D3F8042307490A40D0E900142143D0E92B
:100F50000240044321431143C3F8041310BD0000B1
:100F600000200140E030FCFF0029816802D041F4FC
:100F7000807101E021F480718160704700298168EF
:100F800002D041F4007101E021F4007181607047EA
:100F900030B542680F4B0C791A400B6842EA0422C4
:100FA0001343436082680C4B4D791A40D1E90343E7
:100FB00023438C6844EA4504234313438360C26A95
:100FC000097D22F47002491EC9B242EA0151C16290
:100FD00030BD0000FFFEFFFCFDF7FFC070B5072627
:100FE00009290AD9C568A1F10A0404EB4404A64002
:100FF000B543A3401D43C56007E0056901EB41040B
:10100000A640B543A3401D4305611F23072A09D20B
:10101000446B521E02EB820293409C4391400C436E
:10102000446370BD0D2A09D2046BD21F02EB820209
:1010300093409C4391400C43046370BDC46A0D3AD5
:1010400002EB820293409C4391400C43C46270BD0A
:10105000816841F080418160704700000648407A15
:10106000052805D0062803D0072801D0082801D17B
:101070001EF08AB870470000E40000201CB5012172
:10108000080210F0EDFC2020012100908DF80410E2
:1010900000208DF806008DF80710064C8DF805002D
:1010A000694620460DF00CFF202120460DF05BFF25
:1010B0001CBD000000200240FEE7000010B5074CF8
:1010C000202120460DF051FF40F2FF5004F0FAFEBF
:1010D0002046BDE8104020210DF045BF0020024011
:1010E00010B50446392023F0AFFEE0B223F0D0FE65
:1010F000C4F3072023F0CCFEC4F3074023F0C8FE5E
:10110000200E23F0C5FE23F08FFEBDE810401DF039
:101110009FB970B5064614460D463C2023F094FE58
:10112000E8B223F0B5FE280A23F0B2FE23F07CFEDD
:101130000CB1002011E01DF08BF91E280FD13046B4
:1011400000F030F905463D2023F07EFE23F06CFED2
:101150002E44002CEFD0208828442080EBE770BD7F
:1011600010B510F071FC08B100F069F8BDE810404E
:10117000302000F0B2B8312000F0AFB80146362080
:1011800000F09EB810B508B100F0C5F8BDE81040F9
:10119000342000F0A2B870B5054600F0A7F80400AE
:1011A0000DD00146284600F021F8412807D0142828
:1011B00003D0422800D1B32070BD432070BD281950
:1011C000BDE87040FFF7DEBF10B5044600F0A3F89D
:1011D00020785C2801D02F2803D10021642000F062
:1011E000F7F8BDE81040322000F077B870B50E4631
:1011F00000210546012401E0641CE4B2285D5C285E
:1012000013D02F2811D00028F6D100246818FFF73A
:10121000DBFF002C08D0B44206D041280AD01428A5
:1012200006D0422800D1B32070BD641CE4B2EDE7C3
:10123000432070BD2146E1E7FF21FFF7D7BF10B57E
:10124000222023F001FE322004F03CFE23F0F2FDC8
:10125000044623F0E9FD204610BD2DE9F04123F0BE
:10126000E9FD064623F0E6FD054623F0E3FD0446CE
:1012700023F0E0FD074623F0D7FD46EA052040EACB
:10128000044040EA0760BDE8F08110B504460C2038
:1012900023F0DAFD204623F0FBFDBDE81040FFF708
:1012A000DCBF10B504460A2023F0CEFD204623F013
:1012B000EFFD23F0BFFD044623F0B6FD204610BD30
:1012C00010B50C4623F0C0FD204623F0E1FD23F0CD
:1012D000ABFDBDE810401DF0BBB810B523F0B4FD68
:1012E00023F0A2FDBDE810401DF0B2B8014600E0B9
:1012F000491C0A78002AFBD105E011F8012D5C2A6F
:1013000003D02F2A01D08142F7D1814200D0491C5D
:10131000081AC0B2704770B50546012023F094FD4D
:1013200023F088FD432828D22B20FFF7BAFF10288E
:1013300023D22F2023F088FD002023F0A9FD3220A6
:10134000FFF7CBFF142818D1CF20FFF7AAFF040026
:1013500013D04C20FFF799FF00EB04214C2000F044
:1013600037F85020FFF791FF00EB0421502000F0E8
:101370002FF80021702000F02BF82F2023F064FDBF
:101380002C7806E015F8014F5C2C01D02F2C00D1F1
:101390000024204623F07CFD002CF3D1BDE87040F2
:1013A00023F042BD70B505462D2023F04DFD23F0FE
:1013B00041FD0446260007D0287823F069FD641E0D
:1013C0006D1C14F0FF04F7D123F02EFD304670BDE4
:1013D00070B505460C460D2023F036FD284623F057
:1013E00057FDE0B223F054FDC4F3072023F050FD75
:1013F000C4F3074023F04CFD200E23F049FDBDE867
:10140000704023F011BD00002DE9F04188B00121AA
:10141000812010F025FB0121080310F051FBDFF8BB
:10142000C8800522114640460DF086FD05220621A2
:1014300040460DF081FD0522072140460DF07CFD60
:1014400002258DF805508DF80450002420278DF8D2
:10145000064000978DF80740694640460DF030FD84
:1014600040200090694640460DF02AFD8020009003
:10147000694640460DF024FD1020012600908DF8AD
:1014800004608DF80640694640460DF019FD8DF860
:10149000044000978DF80760694614480DF010FD70
:1014A000ADF808404FF48270ADF80A00ADF8106056
:1014B0002802ADF812003820ADF81400ADF80C4049
:1014C000ADF8164007200A4CADF81800ADF80E50E4
:1014D00002A9204612F0F9FE0121204612F0F2FC8A
:1014E00008B0BDE8F081000000000240001C02408E
:1014F00000300140F0B5FF231A46002518E0445D96
:101500006240002402F0010613F0010F4FEA53037A
:101510004FEA520201D042F080021EB183F0A003D4
:1015200082F00102641CE4B2082CEBD36D1CEDB216
:101530008D42E4D342EA0320F0BD00002DE9F041E2
:10154000FE48FF4EFF4C00784FF49B754FF47047F8
:101550004FF4A57840B1012874D0022873D0032835
:1015600072D0042871D025E32078012801D028B159
:101570000FE088200EF040FE304603E088200EF099
:101580003BFE38460EF054FEEFA20A2164200EF016
:1015900061FA6078012801D028B10FE088200EF0B0
:1015A0002BFE304603E088200EF026FE38460EF073
:1015B0003FFEE6A20A21AA200EF04CFAA0780128EC
:1015C00001D028B10FE088200EF016FE304603E06F
:1015D00088200EF011FE38460EF02AFEDCA20A2109
:1015E000F0200EF037FAE078012801D028B10FE0A2
:1015F00088200EF001FE304603E088200EF0FCFD4E
:1016000038460EF015FED3A20A2128460EF022FA23
:101610002079012801D028B10FE088200EF0ECFDE0
:10162000304603E088200EF0E7FD38460EF000FE5D
:10163000C9A2414664200EF00DFA6079012805D058
:1016400048B113E039E0CEE063E133E288200EF0E8
:10165000D3FD304603E088200EF0CEFD38460EF074
:10166000E7FDBEA24146AA200EF0F4F9A0790128B8
:1016700001D028B10FE088200EF0BEFD304603E017
:1016800088200EF0B9FD38460EF0D2FDB4A24146D6
:10169000F0200EF0DFF9E079012801D028B189E2CD
:1016A00088200EF0A9FD304603E088200EF0A4FD4E
:1016B00038460EF0BDFDABA278E2207A01284FF04B
:1016C000880070D00EF098FD38460EF0B1FDA6A24D
:1016D0000A2164200EF0BEF9607A01284FF08800DC
:1016E00065D00EF089FD38460EF0A2FD9FA20A21BA
:1016F000AA200EF0AFF9A07A01284FF088005AD046
:101700000EF07AFD38460EF093FD99A20A21F020E2
:101710000EF0A0F9E07A01284FF088004FD00EF0CB
:101720006BFD38460EF084FD92A20A2128460EF089
:1017300091F9207B01284FF0880044D00EF05CFD29
:1017400038460EF075FD8CA2414664200EF082F9F9
:10175000607B01284FF0880039D00EF04DFD3846EF
:101760000EF066FD85A24146AA200EF073F9A07B1B
:1017700001284FF088002ED00EF03EFD38460EF0C6
:1017800057FD7FA24146F0200EF064F9E07B01286E
:101790004FF0880023D00EF02FFD38460EF048FDA4
:1017A00078A203E2FFE70EF027FD30468DE70EF04A
:1017B00023FD304698E70EF01FFD3046A3E70EF0FC
:1017C0001BFD3046AEE70EF017FD3046B9E70EF0D0
:1017D00013FD3046C4E70EF00FFD3046CFE70EF0A4
:1017E0000BFD3046DAE7207C01284FF0880070D0EE
:1017F0000EF002FD38460EF01BFD63A20A216420A4
:101800000EF028F9607C01284FF0880065D00EF0BA
:10181000F3FC38460EF00CFD5CA20A21AA200EF063
:1018200019F9A07C01284FF088005AD00EF0E4FC92
:1018300038460EF0FDFC56A20A21F0200EF00AF9FF
:10184000E07C01284FF088004FD00EF0D5FC3846E0
:101850000EF0EEFC4FA20A2128460EF0FBF8207D88
:1018600001284FF0880044D00EF0C6FC38460EF038
:10187000DFFC49A2414664200EF0ECF8607D0128AF
:101880004FF0880039D00EF0B7FC38460EF0D0FC8F
:1018900042A24146AA200EF0DDF8A07D01284FF0BB
:1018A00088002ED00EF0A8FC38460EF0C1FC3CA2F9
:1018B0004146F0200EF0CEF8E07D01284FF0880080
:1018C00023D00EF099FC38460EF0B2FC35A26DE143
:1018D000FFE70EF091FC30468DE70EF08DFC3046B0
:1018E00098E70EF089FC3046A3E70EF085FC304601
:1018F000AEE70EF081FC3046B9E70EF07DFC3046D5
:10190000C4E70EF079FC3046CFE70EF075FC3046A8
:10191000DAE7207E01284FF088007DD00EF06CFCC5
:1019200038460EF085FC20A20A2164200EF092F8C1
:10193000607E01284FF088006FD037E0EF00002074
:1019400093551700680300203030310030303200EA
:101950003030330030303400303035003030360035
:10196000303037003030380030303900303130001E
:101970003031310030313200303133003031340019
:1019800030313500303136003031370030313800F9
:1019900030313900303230003032310030323200F4
:1019A0003032330030323400303235000EF024FC57
:1019B00038460EF03DFC99A20A21AA200EF04AF802
:1019C000A07E01284FF088005CD00EF015FC384650
:1019D0000EF02EFC92A20A21F0200EF03BF8E07EE1
:1019E00001284FF0880051D00EF006FC38460EF06A
:1019F0001FFC8CA20A2128460EF02CF8207F01281B
:101A00004FF0880046D00EF0F7FB38460EF010FC81
:101A100085A24146642001E02CE02FE00EF01AF888
:101A2000607F01284FF0880038D00EF0E5FB384683
:101A30000EF0FEFB7DA24146AA200EF00BF8A07F1F
:101A400001284FF088002DD00EF0D6FB38460EF05E
:101A5000EFFB77A24146F0200DF0FCFFE07F01286C
:101A60004FF0880022D00EF0C7FB38460EF0E0FBA6
:101A700070A29BE00EF0C0FB304652E70EF0BCFBBC
:101A8000304696E70EF0B8FB3046A1E70EF0B4FB07
:101A90003046ACE70EF0B0FB3046B7E70EF0ACFBDB
:101AA0003046C5E70EF0A8FB3046D0E70EF0A4FBA9
:101AB0003046DBE794F8200001284FF088007DD005
:101AC0000EF09AFB38460EF0B3FB5BA20A216420AD
:101AD0000DF0C0FF94F8210001284FF088007DD060
:101AE0000EF08AFB38460EF0A3FB54A20A21AA206E
:101AF0000DF0B0FF94F8220001284FF0880072D05A
:101B00000EF07AFB38460EF093FB4DA20A21F0202E
:101B10000DF0A0FF94F8230001284FF0880066D054
:101B20000EF06AFB38460EF083FB46A20A212846D7
:101B30000DF090FF94F8240001284FF088005AD04F
:101B40000EF05AFB38460EF073FB3FA2414664206C
:101B50000DF080FF94F8250001284FF088004ED04A
:101B60000EF04AFB38460EF063FB38A24146AA202D
:101B70000DF070FF94F8260001284FF0880042D045
:101B80000EF03AFB38460EF053FB31A24146F020EE
:101B90000DF060FF94F8270001284FF0880036D040
:101BA0000EF02AFB38460EF043FB2AA24146284697
:101BB0000DF050FF28490120C87001E00AE00DE057
:101BC00094F8300038B325A004F02CFBBDE8F041B8
:101BD00012F01CBC0EF010FB304674E70EF00CFB4C
:101BE000304680E7FFE70EF007FB30468BE70EF04C
:101BF00003FB304697E70EF0FFFA3046A3E70EF0FE
:101C0000FBFA3046AFE70EF0F7FA3046BBE70EF0CE
:101C1000F3FA3046C7E714A0D6E7000030323600AA
:101C20003032370030323800303239003033300053
:101C3000303331003033320030333300303334004E
:101C4000303335003033360030333700303338002E
:101C500030333900303430003C0100204368616E7D
:101C60006E656C2073657400CDA8B5C0C9E8D6C395
:101C7000000000002DE9F05FF648DFF8DCA3F74C28
:101C800000784FF482754FF496764FF4AA784FF4AB
:101C9000BE794FF4704B10B101286ED032E320783A
:101CA000012801D028B10FE088200EF0A5FA504697
:101CB00003E088200EF0A0FA58460EF0B9FAE8A228
:101CC0000A21642001F07EFA6078012801D028B151
:101CD0000FE088200EF090FA504603E088200EF0C6
:101CE0008BFA58460EF0A4FADEA20A218C2001F0ED
:101CF00069FAA078012801D028B10FE088200EF001
:101D00007BFA504603E088200EF076FA58460EF033
:101D10008FFAD5A20A21B42001F054FAE078012804
:101D200001D028B10FE088200EF066FA504603E09B
:101D300088200EF061FA58460EF07AFACBA20A21FA
:101D4000DC2001F03FFA2079012801D028B10FE012
:101D500088200EF051FA504603E088200EF04CFA2D
:101D600058460EF065FAC2A20A21284601F02AFA66
:101D70006079012802D030B110E0BCE188200EF07B
:101D80003BFA504603E088200EF036FA58460EF033
:101D90004FFAB8A20A21304601F014FAA0790128BE
:101DA00001D028B10FE088200EF026FA504603E05B
:101DB00088200EF021FA58460EF03AFAAEA20A2117
:101DC000404601F0FFF9E079012801D028B10FE089
:101DD00088200EF011FA504603E088200EF00CFA2D
:101DE00058460EF025FAA5A20A21484601F0EAF964
:101DF000207A012801D028B10FE088200EF0FCF9EC
:101E0000504603E088200EF0F7F958460EF010FA1D
:101E10009BA2D221642001F0D5F9607A012801D07B
:101E200028B10FE088200EF0E7F9504603E0882043
:101E30000EF0E2F958460EF0FBF992A2D2218C2066
:101E400001F0C0F9A07A012801D028B10FE0882064
:101E50000EF0D2F9504603E088200EF0CDF9584636
:101E60000EF0E6F988A2D221B42001F0ABF9E07AB5
:101E7000012801D028B10FE088200EF0BDF95046AE
:101E800003E088200EF0B8F958460EF0D1F97FA291
:101E9000D221DC2001F096F9207B012801D028B165
:101EA0000FE088200EF0A8F9504603E088200EF0DD
:101EB000A3F958460EF0BCF975A2D221284601F0CC
:101EC00081F9607B012801D028B10FE088200EF055
:101ED00093F9504603E088200EF08EF958460EF034
:101EE000A7F96CA2D221304601F06CF9A07B012841
:101EF00001D028B10FE088200EF07EF9504603E0B3
:101F000088200EF079F958460EF092F962A2D2219B
:101F1000404601F057F9E07B012801D028B10FE0DD
:101F200088200EF069F9504603E088200EF064F92D
:101F300058460EF07DF959A2D221484601F042F9E7
:101F4000207C4FF4CD77012801D028B10FE0882004
:101F50000EF052F9504603E088200EF04DF9584635
:101F60000EF066F94EA23946642001F02BF9607C30
:101F7000012801D028B10FE088200EF03DF950462D
:101F800003E088200EF038F958460EF051F945A2CA
:101F900039468C2001F016F9A07C012801D028B127
:101FA0000FE088200EF028F9504603E088200EF05C
:101FB00023F958460EF03CF93BA23946B42001F013
:101FC00001F9E07C012801D028B10FE088200EF053
:101FD00013F9504603E088200EF00EF958460EF033
:101FE00027F932A23946DC2001F0ECF8207D0128E7
:101FF00001D028B10FE088200EF0FEF8504603E033
:1020000088200EF0F9F858460EF012F928A2394649
:10201000284601F0D7F8607D012801D028B10FE0F3
:1020200088200EF0E9F8504603E088200EF0E4F82E
:1020300058460EF0FDF81FA23946304601F0C2F8AE
:10204000A07D012801D0B8B342E088200EF0D4F87A
:10205000504636E0EF00002093551700680300203B
:102060003030310030303200303033003030340026
:102070003030350030303600303037003030380006
:102080003030390030313000303131003031320001
:1020900030313300303134003031350030313600EA
:1020A00030313700303138003031390030323000D3
:1020B0003032310030323200FFE788200EF09CF8D9
:1020C00058460EF0B5F8B9A23946404601F07AF804
:1020D000E07D012801D028B114E188200EF08CF8B1
:1020E000504603E088200EF087F858460EF0A0F81E
:1020F000AFA2394603E1207E01284FF088007CD052
:102100000EF07AF858460EF093F8AAA20A2164203D
:1021100001F058F8607E01284FF088006ED00EF074
:102120006BF858460EF084F8A3A20A218C2001F027
:1021300049F8A07E01284FF088007DD00EF05CF8B1
:1021400058460EF075F89DA20A21B42001F03AF825
:10215000E07E01284FF088006FD00EF04DF8584611
:102160000EF066F896A20A21DC2001F02BF8207F01
:1021700001284FF088007DD00EF03EF858460EF052
:1021800057F890A20A21284601F01CF8607F012828
:102190004FF088006FD00EF02FF858460EF048F838
:1021A00089A20A21304601F00DF8A07F01284FF0E6
:1021B00088007DD00EF020F858460EF039F883A242
:1021C0000A21404600F0FEFFE07F01284FF0880022
:1021D0006FD00EF011F858460EF02AF87CA20A21B2
:1021E000484600F0EFFF94F8200001284FF08800E7
:1021F0007ED00EF001F8584601E090E094E00EF039
:1022000017F874A2D221642000F0DCFF94F82100BA
:1022100001284FF088006CD00DF0EEFF58460EF00C
:1022200007F86DA2D2218C2000F0CCFF94F8220098
:1022300001284FF0880001E07AE07DE073D00DF0D6
:10224000DBFF58460DF0F4FF64A2D221B42000F069
:10225000B9FF94F8230001284FF0880070D00DF0EA
:10226000CBFF58460DF0E4FF5DA2D221DC2000F048
:10227000A9FF01E065E068E094F8240001284FF030
:1022800088006ED00DF0B8FF58460DF0D1FF55A272
:10229000D221284600F096FF94F8250001284FF03F
:1022A000880075D00DF0A8FF58460DF0C1FF01E081
:1022B0004FE052E04CA2D221304600F083FF94F868
:1022C000260001284FF0880066D00DF095FF584693
:1022D0000DF0AEFF45A2D221404600F073FF94F806
:1022E000270001284FF088005AD00DF085FF01E04B
:1022F00039E03CE058460DF09BFF3DA2D221484614
:1023000000F060FF3B490120C87094F8300048B3EA
:1023100039A003F087FFBDE8F05F12F077B80DF049
:102320006BFF5046EFE626E00DF066FF5046F9E6FB
:102330000DF062FF504604E70DF05EFF50460FE7D8
:102340001DE00DF059FF504619E70DF055FF5046BE
:1023500024E70DF051FF50462FE70DF04DFF50469A
:102360003AE711E020E00DF047FF504644E70DF05A
:1023700043FF504653E70DF03FFF504662E70DF034
:102380003BFF50466EE703E00DF036FF50467CE71A
:102390000DF032FF504688E70DF02EFF504697E7CC
:1023A0000DF02AFF5046A6E716A0B2E73032330000
:1023B00030323400303235003032360030323700BF
:1023C00030323800303239003033300030333100B1
:1023D00030333200303333003033340030333500A3
:1023E0003033360030333700303338003033390083
:1023F000303430003C0100204368616E6E656C2013
:1024000073657400CDA8B5C0C9E8D6C3000000004C
:102410002DE9F05FFB4CDFF8F0A34FF4704B207810
:10242000012801D028B10FE088200DF0E5FE5046CC
:1024300003E088200DF0E0FE58460DF0F9FEF3A20F
:102440000A21642000F0F4FE6078012801D028B150
:102450000FE088200DF0D0FE504603E088200DF0FC
:10246000CBFE58460DF0E4FEE9A20A218C2000F0D4
:10247000DFFEA078012801D028B10FE088200DF000
:10248000BBFE504603E088200DF0B6FE58460DF026
:10249000CFFEE0A20A21B42000F0CAFEE0780128B5
:1024A00001D028B10FE088200DF0A6FE504603E0D1
:1024B00088200DF0A1FE58460DF0BAFED6A20A21E2
:1024C000DC2000F0B5FE20794FF48275012801D0A0
:1024D00028B10FE088200DF08FFE504603E08820E1
:1024E0000DF08AFE58460DF0A3FECCA20A21284624
:1024F00000F09EFE60794FF49676012801D028B155
:102500000FE088200DF078FE504603E088200DF0A3
:1025100073FE58460DF08CFEC1A20A21304600F031
:1025200087FEA0794FF4AA78012801D028B10FE0E6
:1025300088200DF061FE504603E088200DF05CFE1F
:1025400058460DF075FEB7A20A21404600F070FE15
:10255000E0794FF4BE79012801D028B10FE088203E
:102560000DF04AFE504603E088200DF045FE584627
:102570000DF05EFEACA20A21484600F059FE207A1A
:10258000012801D028B10FE088200DF035FE50461B
:1025900003E088200DF030FE58460DF049FEA3A25E
:1025A0008621642000F044FE607A012801D028B121
:1025B0000FE088200DF020FE504603E088200DF04B
:1025C0001BFE58460DF034FE99A286218C2000F0A7
:1025D0002FFEA07A012801D028B10FE088200DF04D
:1025E0000BFE504603E088200DF006FE58460DF025
:1025F0001FFE90A28621B42000F01AFEE07A012886
:1026000001D028B10FE088200DF0F6FD504603E020
:1026100088200DF0F1FD58460DF00AFE86A28621B5
:10262000DC2000F005FE207B012801D028B10FE05E
:1026300088200DF0E1FD504603E088200DF0DCFD20
:1026400058460DF0F5FD7DA28621284600F0F0FDEC
:10265000607B012801D028B10FE088200DF0CCFD6F
:10266000504603E088200DF0C7FD58460DF0E0FD10
:1026700073A28621304600F0DBFDA07B012801D04B
:1026800028B10FE088200DF0B7FD504603E0882008
:102690000DF0B2FD58460DF0CBFD6AA286214046F2
:1026A00000F0C6FDE07B012801D028B10FE08820B2
:1026B0000DF0A2FD504603E088200DF09DFD584628
:1026C0000DF0B6FD60A28621484600F0B1FD207CE9
:1026D0004FF48177012801D028B10FE088200DF058
:1026E0008BFD504603E088200DF086FD58460DF026
:1026F0009FFD56A23946642000F09AFD607C0128B7
:1027000001D028B10FE088200DF076FD504603E09F
:1027100088200DF071FD58460DF08AFD4CA2394617
:102720008C2000F085FDA07C012801D028B10FE0AD
:1027300088200DF061FD504603E088200DF05CFD1F
:1027400058460DF075FD43A23946B42000F070FDE7
:10275000E07C012801D028B10FE088200DF04CFD6D
:10276000504603E088200DF047FD58460DF060FD0F
:1027700039A23946DC2000F05BFD207D012801D024
:1027800028B10FE088200DF037FD504603E0882087
:102790000DF032FD58460DF04BFD30A2394628466B
:1027A00000F046FD607D012801D028B10FE08820AF
:1027B0000DF022FD504603E088200DF01DFD584627
:1027C0000DF036FD26A23946304600F031FDA07DE1
:1027D000012801D028B10FE088200DF00DFD5046F2
:1027E00003E088200DF008FD58460DF021FD1DA2E4
:1027F0003946404600F01CFDE07D012834D000B190
:1028000042E036E068030020935517003030310075
:10281000303032003030330030303400303035006A
:10282000303036003030370030303800303039004A
:10283000303130003031310030313200303133004E
:10284000303134003031350030313600303137002E
:102850003031380030313900303230003032310020
:10286000303232003032330088200DF0C5FC504643
:1028700003E088200DF0C0FC58460DF0D9FCB8A24A
:102880003946484600F0D4FC207E4FF4BF7701283B
:1028900001D028B10FE088200DF0AEFC504603E0D7
:1028A00088200DF0A9FC58460DF0C2FCADA23946B7
:1028B000642000F0BDFC607E012801D028B10FE04B
:1028C00088200DF099FC504603E088200DF094FC20
:1028D00058460DF0ADFCA4A239468C2000F0A8FCAF
:1028E000A07E012801D028B10FE088200DF084FCE3
:1028F000504603E088200DF07FFC58460DF098FC10
:102900009AA23946B42000F093FCE07E012801D061
:1029100028B10FE088200DF06FFC504603E08820BE
:102920000DF06AFC58460DF083FC91A23946DC207C
:1029300000F07EFC207F012801D028B10FE0882024
:102940000DF05AFC504603E088200DF055FC584627
:102950000DF06EFC87A23946284600F069FC607FC6
:10296000012801D028B10FE088200DF045FC504629
:1029700003E088200DF040FC58460DF059FC7EA283
:102980003946304600F054FCA07F012801D028B120
:102990000FE088200DF030FC504603E088200DF059
:1029A0002BFC58460DF044FC74A23946404600F01A
:1029B0003FFCE07F012801D028B10FE088200DF016
:1029C0001BFC504603E088200DF016FC58460DF025
:1029D0002FFC6BA23946484600F02AFC94F82000F0
:1029E0004FF4FD77012801D028B10FE088200DF0C9
:1029F00003FC504603E088200DF0FEFB58460DF026
:102A000017FC60A23946642000F012FC94F8210003
:102A1000012801D028B10FE088200DF0EDFB5046D1
:102A200003E088200DF0E8FB58460DF001FC56A2AB
:102A300039468C2000F0FCFB94F82200012801D0DC
:102A400028B10FE088200DF0D7FB504603E0882026
:102A50000DF0D2FB58460DF0EBFB4CA23946B420EA
:102A600000F0E6FB94F82300012801D028B10FE024
:102A700088200DF0C1FB504603E088200DF0BCFB20
:102A800058460DF0D5FB42A23946DC2000F0D0FBC1
:102A900094F82400012801D028B10FE088200DF01F
:102AA000ABFB504603E088200DF0A6FB58460DF026
:102AB000BFFB38A23946284600F0BAFB94F825003F
:102AC000012801D028B10FE088200DF095FB504679
:102AD00003E088200DF090FB58460DF0A9FB2EA2D4
:102AE0003946304600F0A4FB94F82600012801D0B6
:102AF00028B10FE088200DF07FFB504603E08820CE
:102B00000DF07AFB58460DF093FB24A2394640465F
:102B100000F08EFB94F82700012801D028B10FE0C7
:102B200088200DF069FB504603E088200DF064FB1F
:102B300058460DF07DFB1AA23946484600F078FB56
:102B400018490120C87094F8300030B116A003F085
:102B500069FBBDE8F05F11F059BC16A0F7E7000073
:102B60003032340030323500303236003032370007
:102B700030323800303239003033300030333100F9
:102B800030333200303333003033340030333500EB
:102B900030333600303337003033380030333900CB
:102BA000303430003C0100204368616E6E656C205B
:102BB00073657400CDA8B5C0C9E8D6C30000000095
:102BC000164901EB800111ED010A154901EB800165
:102BD00051ED010A134901EB800130EE600A51ED1D
:102BE000010AB4EEE00AF1EE10FA09D30E4901EB46
:102BF000800050ED010AB4EEE00AF1EE10FA04DDB7
:102C00000A4890F82C00012804D088216FF07F40FA
:102C10000DF0F8BA88214FF47F00F9E7AC090020E5
:102C2000440801203C0C00209C0B0020680300207D
:102C300010B50B460C0601F07F0202EB820100EB9F
:102C4000C10102D501F58E7101E001F55D710A70D7
:102C5000DA094A701AF015FC002010BD0A4610B5BA
:102C6000090602F07F0306D503EB830100EBC101E7
:102C700001F58E7105E002EB820100EBC10101F567
:102C80005D7100248C700B70D2094A701AF0E0FB61
:102C9000002010BD10B50A0604D501F07F011AF01E
:102CA00013FD01E01AF0F2FC002010BD70B50D46D6
:102CB0000E0601F07F0404EB840100EBC10102D594
:102CC00001F58E7101E001F55D71ED090C704D703B
:102CD0008A60CB7000D0CC80022B01D100220A7117
:102CE0001AF082FB002070BD10B501F07F0404EBE8
:102CF000840100EBC101C1F88833C1F880230023AF
:102D0000C1F88C3381F8753381F87443C37801F5C9
:102D10005D71012B00D10A6114F0FF0F03D01AF08E
:102D2000EFFB002010BD1AF0F0FAFAE7006900226C
:102D300061F30A1201681143016070470A4610B539
:102D4000090602F07F0306D503EB830100EBC10106
:102D500001F58E7105E002EB820100EBC10101F586
:102D60005D7101248C700B70D2094A701AF0B0FBAF
:102D7000002010BD70B511F07F0404EB840100EB5E
:102D8000C1014FF0010581F81D5181F81C41C1F8C6
:102D90002821C1F82C2101F58E714FF00002C1E904
:102DA000053203D01AF0ACFB002070BD1AF0ADFA6A
:102DB000FAE700002DE9F041064600241AF0CDFCA8
:102DC000074655E0F80751D03069E1B20369426B1C
:102DD000CA4006EB810102F00102896943EAC2128E
:102DE0008D681540E9071AD00125426B05FA04F1F8
:102DF0008A43426306EB8400806985601F48E1B224
:102E00000068426830469047F078012807D134B90D
:102E100096F81101042802D130461AF0D3FA280797
:102E200004D506EB8400082580698560E80604D592
:102E300006EB8400102580698560680604D506EBE2
:102E40008400402580698560A80704D506EB8400CE
:102E5000022580698560280608D52146304600F0A5
:102E60006CF906EB84018020896988607F08641C06
:102E7000002FA7D10120BDE8F08100009C010020B7
:102E80002DE9F041054600241AF06DFC0746DFF8F5
:102E9000988043E0F8073FD0E1B228461AF069FC79
:102EA0000646C00725D005EB84000126416D8E60E3
:102EB000E97801290CD1406D016904EB840005EB30
:102EC000C000C1F31201D0F87C23511AC0F88C1352
:102ED000D8F80000E1B2026828469047E878012857
:102EE00007D134B995F81101052802D128461AF006
:102EF00069FAB00704D505EB84000226406D8660B0
:102F0000300709D5D8F8000081682846884705EBC6
:102F100084010820496D88607F08641C002FB9D1A6
:102F20000120BDE8F08100009C01002070B505463D
:102F3000C068816921F010018161E868066A06F0C5
:102F40000F0000EB800005EBC004C6F3434004F51E
:102F50005D74072821D2DFE800F020200420202023
:102F6000150047F6F070064217D0C6F30A1632462F
:102F70002846E1681AF005FCE0683044E060A0698A
:102F8000304409E0082205F2CC5128461AF0F9FB3A
:102F9000A069C6F30A110844A061E868816941F09C
:102FA00010018161012070BD38B5044600208DF804
:102FB000000094F812018DF800001548006841697E
:102FC0002046884720698068E2684FF400615161BB
:102FD000A17AD1B1C00718D094F81501012814D1F5
:102FE0009DF80000032810D1D4F80C01016841F0CD
:102FF00001010160D4F80C01016841F00301016096
:103000000448016841F006010160012038BD00005C
:103010009C01002010ED00E070B504460069002519
:103020000126416821F001014160294620461AF03D
:103030004BFB0020FF2206E004EB80018B699A60C5
:10304000496D8A60401C61788142F5D821694FF052
:10305000FF3088612846216966F30F0066F31F4040
:10306000C861216945F00B0048612169C1F88400FD
:10307000216945F00B0008612169486420690168F5
:1030800021F4FE61016020461AF09CF9E1684FF4DA
:103090008050486103480068016920468847012044
:1030A00070BD00009C01002070B504461AF07AFB48
:1030B0000120002384F8120184F814311A464025B7
:1030C00010E002EB820104EBC10181F81D0181F8DF
:1030D0001C21A1F8222181F81F31C1E94953521C5A
:1030E000C1F8303161789142EBD8002010E000EB5C
:1030F000800104EBC10181F8753381F87403A1F8F4
:103100007A0381F87733C1E9DF53401CC1F8883373
:1031100061788142EBD820461AF0D2F8204619F0A7
:10312000AFFF002120461AF09DFB204619F0E8FF72
:103130002046BDE870401AF0A1BA2DE9F0470E46CE
:1031400001EB860100EBC1048046D4E94C01401A32
:10315000D4F8241104F58E74814200D20846C01CB4
:10316000870808EB86091EE0451AA068A84200D22D
:103170000546E81C8708ABB2F2B24046E1681AF097
:1031800086FBE0682844E060A0692844A06161698A
:10319000884208D3207801218140D8F81000426B82
:1031A0008A4342630BE0D9F81800806980B2B842C4
:1031B00005D9D4E90501814201D20028D4D10120EA
:1031C000BDE8F0872DE9F04115460C468046154EC6
:1031D0004FF4207719E0802A0BD21348B0612146C2
:1031E00040460CF0C7FBB0696D1C8088204484B257
:1031F0000BE00E48B0612A46214640460CF0D0FB59
:10320000B069AD1C8088204484B2BC4208D22A78C0
:10321000002A05D0B0698088011989B28142DAD2CA
:10322000BDE8F0815C00002098000020C80000206C
:103230002DE9F04115460C468046154E4FF4207797
:1032400019E0802A0BD21348B061214640460CF0A9
:1032500091FBB0696D1C8088204484B20BE00E485D
:10326000B0612A462146404600F018F8B069AD1C0E
:103270008088204484B2BC4208D22A78002A05D033
:10328000B0698088011989B28142DAD2BDE8F08143
:103290005C00002088000020D80000202DE9F041CB
:1032A00016460F46804600240D4D0FE032788A42C4
:1032B0000AD105EB400271785078814204D1394639
:1032C0004046921C0CF038FC641CA4B2C4EBC40051
:1032D00000EB400015F810108029E7D8BDE8F08118
:1032E00091AD02082DE9F04115460C468046154E79
:1032F0004FF4207719E0802A0BD21348B0612146A1
:1033000040460CF037FBB0696D1C8088204484B2C5
:103310000BE00E48B0612A462146404600F018F8FE
:10332000B069AD1C8088204484B2BC4208D22A789F
:10333000002A05D0B0698088011989B28142DAD2A9
:10334000BDE8F0815C000020B0000020D00000202B
:103350002DE9F04116460F46804600240C4D0EE044
:1033600032788A4209D1421971785078814204D169
:1033700039464046921C0CF0DFFB641CA4B204EBFF
:103380008400C0EB8410295C8029E9D8BDE8F08175
:103390000E9902082DE9F04115460C468046154E5F
:1033A0004FF4207719E0802A0BD21348B0612146F0
:1033B00040460CF0DFFAB0696D1C8088204484B26E
:1033C0000BE00E48B0612A4621464046FFF7C0FF99
:1033D000B069AD1C8088204484B2BC4208D22A78EF
:1033E000002A05D0B0698088011989B28142DAD2F9
:1033F000BDE8F0815C000020B8000020D000002073
:103400002DE9F041204E15460C4680466BB3012B4A
:1034100038D1882108460CF0F5FE28239022414639
:1034200020460CF013FCBDE8F04188216FF07F408E
:103430000CF0E8BE802A0BD21448B0612146404609
:103440000CF098FAB0696D1C8088204484B20EE0BC
:103450000F48B0612A46214640460CF0A1FAB069F7
:10346000AD1C8088204484B201E04FF42077BC4238
:1034700008D22A78002A05D0B0698088011989B25B
:103480008142D7D2BDE8F0815C000020A00000207E
:10349000C80000202DE9F041204E15460C4680461C
:1034A0006BB3012B38D1882108460CF0ABFE1C23EE
:1034B0006022414620460CF0C9FBBDE8F04188215E
:1034C0006FF07F400CF09EBE802A0BD21448B06192
:1034D000214640460CF04EFAB0696D1C80882044AD
:1034E00084B20EE00F48B0612A46214640460CF0F7
:1034F00057FAB069AD1C8088204484B201E04FF4D3
:103500002077BC4208D22A78002A05D0B06980888A
:10351000011989B28142D7D2BDE8F0815C00002058
:10352000A8000020C80000202DE9F041204E1546DB
:103530000C4680466BB3012B38D1882108460CF02D
:1035400061FE14233222414620460CF07FFBBDE889
:10355000F04188216FF07F400CF054BE802A0BD2DE
:103560001448B061214640460CF004FAB0696D1C65
:103570008088204484B20EE00F48B0612A4621467C
:1035800040460CF00DFAB069AD1C8088204484B22E
:1035900001E04FF42077BC4208D22A78002A05D0F7
:1035A000B0698088011989B28142D7D2BDE8F08123
:1035B0005C00002090000020C800002010B5012110
:1035C000CC0520460EF058FA2046BDE810400021F8
:1035D0000EF052BA034A0146002052680A4200D057
:1035E0000120704700B0024030B52A4B0024196812
:1035F000294A114019601968026811431960596B12
:1036000021F007015963596B4268114359634168BE
:1036100041B301292DD0022930D00329C16832D00D
:103620000A0101694469090224038568214315439D
:103630000D43996B0D439D638169D963196C6FF3D9
:103640000D011964196CC26911431964818C5A6C9B
:1036500002F040425A645A6C006A024342EA014254
:103660005A6430BDC168047D0A02018A0904240637
:10367000DBE7C1680A02018A0904D6E7C1684A018A
:103680000169C902D1E74A01016944698902E40379
:10369000CBE7000000B00240FCE0FCFF02480168FC
:1036A00041F001010160704700B00240002901684B
:1036B00002D041F0010101E021F0010101607047F9
:1036C00030B50368124ACC6813400A682243D1E936
:1036D00005452C432243CC6922430C6A22434C6AA1
:1036E00022438C6A22434C6B22438C6B22431A4345
:1036F0000260426922F00703D1E90B2422431A43F6
:1037000042610A6942604A6882608968C16030BD6E
:103710003F801CF00548407A052803D0062801D0D8
:10372000082802D102A01BF0E3BE7047E40000208D
:103730002E0000002DE9F04FF74CF84D2146607A3D
:1037400091F80AC09FB0092860D2DFE810F00900A4
:10375000DE115F005F00360B0A0D1B135F00451082
:10376000ED484FF4CD764FF48177C17AEB484FF4B2
:10377000BF794FF4FD7A90F82D2090F827301E93F2
:10378000C37F1D93C37D1C93C37B1B9390F826308E
:103790001A93837F1993837D1893837B179390F8F3
:1037A00025301693437F1593437D1493437B1393E6
:1037B00090F824301293037F1193037D1093037BC1
:1037C0000F9390F823300E93C37E0D93C37C0C931C
:1037D000C37A0B9390F822300A93837E0993837CFB
:1037E0000893837A079390F821300693437E0593DC
:1037F000437C0493437A039390F820E090F818B048
:10380000037C007ABCF1290F9ED200E0C0E0DFE823
:103810001CF02900C20045011F02A102300303046D
:1038200093041C05C105140651068E06CD060F072C
:1038300051079307D60700082E0858088408B208D5
:10384000E0080E093C0954096C0984099D09B7096F
:10385000D109EB09030A1C0A350A4E0A680A830AD1
:103860009E0AB90AAE480CF0E3FC88200CF0C4FCB8
:1038700095F82900022810D0012810D0032810D074
:10388000042810D0052810D0062810D0072810D002
:10389000082810D0092810D014E0A2A20EE0A3A29C
:1038A0000CE0A4A20AE0A5A208E0A6A206E0A7A256
:1038B00004E0A8A202E0A9A200E0AAA264212F20AD
:1038C0000CF092F895F82D0038B1012838D0022874
:1038D0005ED1E07A00284AD051E0E07A40B1012878
:1038E0000BD002280ED0032811D0042814D01CE0DD
:1038F00028781BF091FD9DA213E0287A1BF08CFD27
:103900009BA20EE0287C1BF087FD9AA209E0287E8E
:103910001BF082FD98A204E095F820001BF07CFDCE
:1039200096A20A2164200CF095F895F8300028B191
:1039300093A002F077FC012001F03DBA93A0F8E7D4
:10394000E07A10B1012805D019E028781BF064FD59
:1039500086A203E0287E1BF05FFD87A20A21642077
:10396000FFF730FC0BE089A010E085A00EE028787E
:103970001BF052FD7DA20A216420FFF759FC0120B3
:10398000A07295F830000028EFD1ECE702F04AFC75
:103990001FB0BDE8F08F614F02263F7832B1012A97
:1039A0004FD0022AF4D100296AD06CE241B101293A
:1039B0000BD002290DD0032910D0042913D0F4E72D
:1039C00038461BF0F1FC69A211E01BF0EDFC68A287
:1039D0000DE018461BF0E8FC66A208E058461BF014
:1039E000E3FC65A203E070461BF0DEFC63A20A2143
:1039F00064200CF02FF8E07A40B101280BD00228A7
:103A00000ED0032811D0042814D0CEE768781BF01C
:103A100003FD61A213E0687A1BF0FEFC5FA20EE0DA
:103A2000687C1BF0F9FC5EA209E0687E1BF0F4FCE8
:103A30005CA204E095F821001BF0EEFC5AA20A21DA
:103A400078E211B101290DD0AFE738461BF0ACFC8C
:103A500046A20A216420FFF7B5FB68781BF0DCFC66
:103A60004DA20BE058461BF09FFC43A20A216420A4
:103A7000FFF7A8FB687E1BF0CFFC4AA20A21F7E300
:103A800038461BF091FC39A20A216420FFF7D0FBD5
:103A900068781BF0C1FC40A20A21EAE31F48032614
:103AA000407832B1012A36D0022A7FF471AF81B357
:103AB0007BE741B101290AD002290DD0032910D09A
:103AC000042913D071E71BF06FFC33A212E00398B6
:103AD0001BF06AFC31A20DE004981BF065FC30A2DB
:103AE00008E005981BF060FC2EA203E006981BF08E
:103AF0005BFC2DA20A21AA200BF0ACFFE07A48B1B2
:103B0000012858D002285BD003285ED0042861D059
:103B10004BE78CE04AE067E0E40000206803002007
:103B200000FFFF0054432D4B0000000054432D5470
:103B30000000000054432D4A0000000054432D4E65
:103B40000000000054432D450000000054432D5355
:103B50000000000054432D520000000054432D4249
:103B6000000000005054313030000000303031008F
:103B700030303900303137003032350030333300E7
:103B80004368616E6E656C2073657400CDA8B5C026
:103B9000C9E8D6C3000000003030320030313000B8
:103BA000303138003032360030333400A8781BF022
:103BB00033FCF8A213E0A87A1BF02EFCF6A20EE06C
:103BC000A87C1BF029FCF5A209E0A87E1BF024FCD0
:103BD000F3A204E095F822001BF01EFCF1A20A21DA
:103BE00077E20BF037FFE0E611B101290DD0DCE6FA
:103BF0001BF0DAFBAFF260020A218C20FFF7E2FA39
:103C0000A8781BF009FCE3A20CE005981BF0CCFBA4
:103C1000AFF270020A218C20FFF7D4FAA87E1BF0C5
:103C2000FBFBDFA20A21F0E3FFF7CCFABDE61BF0B5
:103C3000BBFBAFF29C020A218C20FFF7F9FAA878AF
:103C40001BF0EAFBD3A20A21F6E3FFF7F1FAACE698
:103C5000D5480426807832B1012A50D0022A7FF458
:103C600097AE81B3A1E641B101290AD002290DD056
:103C7000032910D0042913D097E61BF095FBC5A2A9
:103C800012E007981BF090FBC3A20DE008981BF010
:103C90008BFBC2A208E009981BF086FBC0A203E0E0
:103CA0000A981BF081FBBFA20A21F0200BF0D2FE84
:103CB000E07A48B101280CD002280FD0032812D096
:103CC000042815D071E638E0E8781BF0A5FBB7A210
:103CD00013E0E87A1BF0A0FBB5A20EE0E87C1BF035
:103CE0009BFBB4A209E0E87E1BF096FBB2A204E0C5
:103CF00095F823001BF090FBB0A20A2174E211B1E9
:103D000001290CD051E61BF04FFBA2A20A21B420DE
:103D1000FFF758FAE8781BF07FFBA4A20BE00998A4
:103D20001BF042FB9EA20A21B420FFF74BFAE87E6B
:103D30001BF072FBA0A20A21E6E31BF035FB95A263
:103D40000A21B420FFF774FAE8781BF065FB97A20C
:103D50000A21EAE39448C07832B1012A55D0022AF8
:103D60007FF416AEF1B371E041B101290AD0022906
:103D70000DD0032910D0042913D01BE01BF014FB35
:103D80008AA212E00B981BF00FFB89A20DE00C98A1
:103D90001BF00AFB87A208E00D981BF005FB86A22A
:103DA00003E00E981BF000FB84A20A214FF49B70E5
:103DB0000BF050FE00200CF03BFA81480CF01CFA8E
:103DC00095F82900022872D0012871D0032870D0FC
:103DD00004286FD005286ED006286DD007286CD037
:103DE000082800E034E069D0092868D003E06421A5
:103DF0002F200BF0F9FD95F8300008B171A000E01C
:103E000077A002F00FFA002096E511B101290CD03D
:103E10001CE01BF0C9FA65A20A21DC20FFF7D2F9E9
:103E200028791BF0F9FA72A20BE00D981BF0BCFA8E
:103E300061A20A21DC20FFF7C5F9287F1BF0ECFA0C
:103E40006CA20A214FF48270FFF7BCF9052073E5DC
:103E50001BF0AAFA55A20A21DC20FFF7E9F928791C
:103E60001BF0DAFA62A20A214FF48270FFF7E0F940
:103E7000ECE74D480626007932B1012A5CD0022ACF
:103E80007FF486ADD1B38BE241B101290AD002297A
:103E900016D0032919D004291CD081E21BF084FA22
:103EA00053A21BE00F981BF07FFA53A216E056E2D4
:103EB00058E25AE25CE25EE260E262E264E266E2FA
:103EC00010981BF071FA4DA208E011981BF06CFAE3
:103ED00048A203E012981BF067FA49A24FF4A571BB
:103EE00064200BF0B7FDE07A48B101280CD002281D
:103EF0000FD0032812D0042815D051E23CE0687995
:103F00001BF08AFA3FA213E0687B1BF085FA3EA201
:103F10000EE0687D1BF080FA3CA209E0687F1BF090
:103F20007BFA3BA204E095F825001BF075FA39A254
:103F30004FF4A571AA2054E611B101290DD02FE24A
:103F40001BF032FA2AA20A214FF48270FFF73AF9E5
:103F500068791BF061FA2BA20CE011981BF024FA8F
:103F600024A20A214FF48270FFF72CF9687F1BF01E
:103F700053FA27A20A2145E31BF016FA1CA20A21D4
:103F80004FF48270FFF754F968791BF045FA1DA2CF
:103F90000A214AE33030330030313100303139000A
:103FA00030323700303335006803002030303400C1
:103FB00030313200303230003032380030333600A9
:103FC00000FFFF00546865726D6F636F75706C65FC
:103FD000206D6F64656C2073656C65637400000010
:103FE000C8C8B5E7C5BCD0CDBAC5D1A1D4F10000D1
:103FF000303035003032390030313300303231006A
:104000003033370030303600303134003032320057
:104010003033300030333800FC480726407932B165
:10402000012A58D0022A7FF4B3ACB1B38EE341B178
:1040300001290BD002290FD0032913D0042917D04E
:1040400084E31BF0B1F9AFF2440216E013981BF0C1
:10405000ABF9AFF24C0210E014981BF0A5F9AFF2E7
:1040600054020AE015981BF09FF9AFF25C0204E0DD
:1040700016981BF099F9AFF264024FF4A571AA20CB
:104080000BF0E8FCE07A48B101280CD002280FD0F0
:10409000032812D0042815D058E33EE0A8791BF07D
:1040A000BBF9DBA213E0A87B1BF0B6F9D9A20EE0A6
:1040B000A87D1BF0B1F9D8A209E0A87F1BF0ACF9EC
:1040C000D6A204E095F826001BF0A6F9D4A24FF47E
:1040D000A571F02085E511B101290ED036E31BF062
:1040E00063F9AFF2E0020A214FF49670FFF76AF825
:1040F000A8791BF091F9C6A20DE015981BF054F9B0
:10410000AFF2F4020A214FF49670FFF75BF8A87F34
:104110001BF082F9C1A20A21B6E21BF045F9AFF209
:104120001C120A214FF49670FFF782F8A8791BF051
:1041300073F9B7A20A21BAE2B4480826807932B1ED
:10414000012A54D0022A7FF423AC89B3FEE241B1A4
:1041500001290AD002290DD0032910D0042913D037
:10416000F4E21BF021F9AAA212E017981BF01CF947
:10417000A8A20DE018981BF017F9A7A208E019985B
:104180001BF012F9A5A203E01A981BF00DF9A4A2E6
:104190004FF4A571F0200BF05DFCE07A48B10128E6
:1041A0000CD002280FD0032812D0042815D0CDE25D
:1041B0003DE0E8791BF030F99AA213E0E87B1BF0B0
:1041C0002BF999A20EE0E87D1BF026F997A209E0F1
:1041D000E87F1BF021F996A204E095F827001BF078
:1041E0001BF994A24FF4A5714FF49B70F9E411B13F
:1041F00001290DD0AAE21BF0D7F885A20A214FF4BD
:10420000AA70FEF7DFFFE8791BF006F985A20CE043
:1042100019981BF0C9F881A20A214FF4AA70FEF781
:10422000D1FFE87F1BF0F8F881A20A216EE21BF0B3
:10423000BBF877A20A214FF4AA70FEF7F9FFE879DC
:104240001BF0EAF877A20A2173E27048C0798AB1BC
:10425000012A64D0022A7FF49BAB0029FBD11BF01A
:10426000A3F870A20A214FF4BE70FEF7E1FFA1E5AA
:10427000B9E0C8E041B301292AD002292DD0032991
:1042800030D004297FF46FAD1E981BF08DF869A221
:104290004FF4A5714FF49B700BF0DCFBE07A30B368
:1042A00001282AD002282ED0032832D00428E9D1B0
:1042B00095F824001BF0B0F8AFF2BC224FF4A571C2
:1042C00064200BF0C7FBC1E51BF06EF855A2DFE7D9
:1042D0001B981BF069F854A2DAE71C981BF064F8ED
:1042E00052A2D5E71D981BF05FF851A2D0E72879BC
:1042F0001BF092F8AFF20832E0E7287B1BF08CF855
:10430000AFF20C32DAE7287D1BF086F8AFF21432F8
:10431000D4E7287F1BF080F8AFF22832CEE7A9B1AE
:10432000012998D11D981BF03FF841A20A214FF4B2
:10433000BE70FEF747FF287E1BF06EF8AFF2C87222
:104340000A216420FEF73EFFFFF7F5BA1BF02CF8B8
:1043500034A20A214FF4BE70FEF734FF2AE5AFF60F
:104360003C0244E5AFF63C0241E5AFF638023EE5DB
:10437000AFF638023BE5AFF6340238E5AFF634026B
:1043800035E5AFF6300232E5AFF630022FE5AFF695
:104390002C022CE50A26012A03D0022AC1D121B31E
:1043A000D4E111B101290ED0D0E11AF0FDFFAFF632
:1043B0004002D2216420FEF705FF687A1BF02CF83A
:1043C000AFF628020EE070461AF0EEFFAFF6540288
:1043D000D2216420FEF7F6FE95F821001BF01CF8B0
:1043E000AFF63C02D2218C201EE41AF0DDFFAFF6BE
:1043F000800286216420FEF71BFF687A1BF00CF810
:10440000AFF6680286218C201FE440E0680300209C
:104410003030370030313500303233003033310046
:10442000303339003030380030313600303234002B
:1044300030333200303430003AE00B26012A03D00A
:10444000022AABD129B381E111B101290FD07DE15D
:1044500003981AF0A9FFAFF6BC02D2218C20FEF718
:10446000B1FEA87A1AF0D8FFAFF2D4420EE0069857
:104470001AF09AFFAFF6D002D2218C20FEF7A2FEEE
:1044800095F822001AF0C8FFAFF2E842D221B4201A
:10449000AAE703981AF088FFAFF6001286218C2055
:1044A000FEF7C6FEA87A1AF0B7FFAFF214528621C3
:1044B000B420A9E70C26012A03D0022AC1D129B3CE
:1044C00044E111B101290FD040E107981AF06CFFC7
:1044D000AFF23C52D221B420FEF774FEE87A1AF013
:1044E0009BFFAFF234520EE00A981AF05DFFAFF274
:1044F0004C52D221B420FEF765FE95F822001AF046
:104500008BFFAFF24852D221DC206DE707981AF0FA
:104510004BFFAFF27C528621B420FEF789FEE87A89
:104520001AF07AFFAFF278528621DC206CE70D2674
:10453000012A03D0022A84D131B307E111B1012944
:104540000FD003E10B981AF02FFFAFF29C52D2214B
:10455000DC20FEF737FE287B1AF05EFFAFF26852D0
:104560000EE00E981AF020FFAFF2B052D221DC20FC
:10457000FEF728FE95F824001AF04EFFAFF28052A5
:10458000D2214FF482702FE70B981AF00DFFAFF293
:10459000E0528621DC20FEF74BFE287B1AF03CFF20
:1045A000AFF2AC5286214FF482702DE70E26012A1D
:1045B00003D0022ABFD141B3C8E011B1012910D004
:1045C000C4E00F981AF0F0FEAFF2D452D2214FF4AB
:1045D0008270FEF7F7FD687B1AF01EFFAFF2D8522B
:1045E0000FE012981AF0E0FEAFF2EC52D2214FF435
:1045F0008270FEF7E7FD95F825001AF00DFFAFF287
:10460000EC52D2214FF49670EEE60F981AF0CCFEE1
:10461000AFF21C6286214FF48270FEF709FE687BC0
:104620001AF0FAFEAFF2206286214FF49670EBE6A4
:104630000F26012A03D0022ABCD141B386E011B172
:10464000012910D082E013981AF0AEFEAFF2486252
:10465000D2214FF49670FEF7B5FDA87B1AF0DCFE70
:10466000AFF250220FE016981AF09EFEAFF25C6295
:10467000D2214FF49670FEF7A5FD95F826001AF0AA
:10468000CBFEAFF26422D2214FF4AA70ACE61398AD
:104690001AF08AFEAFF2906286214FF49670FEF710
:1046A000C7FDA87B1AF0B8FEAFF2982286214FF41E
:1046B000AA70A9E61026012A03D0022ABCD141B370
:1046C00044E011B1012910D040E017981AF06CFEB7
:1046D000AFF2C022D2214FF4AA70FEF773FDA87B7F
:1046E0001AF09AFEAFF2C0220FE01A981AF05CFEA0
:1046F000AFF2D422D2214FF4AA70FEF763FD95F8F1
:1047000027001AF089FEAFF2D422D2214FF4BE70F6
:104710006AE617981AF048FEAFF2083286214FF485
:10472000AA70FEF785FDE87B1AF076FEAFF208323C
:1047300086214FF4BE7067E60926012A03D0022ABB
:10474000BCD151B302E029B1012913D0A6721FB028
:10475000BDE8F08F1B981AF027FEAFF23432D22159
:104760004FF4BE70FEF72EFD287A1AF055FEAFF614
:1047700000420FE01E981AF017FEAFF24832D22125
:104780004FF4BE70FEF71EFD95F820001AF044FEAF
:10479000AFF61842D221642026E61B981AF004FED8
:1047A000AFF27C3286214FF4BE70FEF741FD287ACD
:1047B0001AF032FEAFF648428621642024E64FF01C
:1047C0001208012A03D0022AC1D189B136E1184664
:1047D0001AF0EAFDAFF6644231466420FEF7F2FCBF
:1047E000687C1AF019FEAFF6484231468C2028E06A
:1047F00018461AF0D9FDAFF6844239466420FEF718
:1048000017FD687C1AF008FEAFF66C4239468C2022
:104810002AE04FF01308012A03D0022A97D199B158
:104820000CE104981AF0C0FDAFF68C4231468C20A2
:10483000FEF7C8FCA87C1AF0EFFDAFF6A0023146E7
:10484000B420FEF7BFFCF9E004981AF0ADFDAFF616
:10485000B04239468C20FEF7EBFCA87C1AF0DCFD58
:10486000AFF6C8023946B420FEF7E2FCE6E04FF0AE
:104870001408012A03D0022AA6D189B1DEE00898E3
:104880001AF092FDAFF6EC023146B420FEF79AFC26
:10489000E87C1AF0C1FDAFF6E4023146DC20D0E737
:1048A00008981AF081FDAFF60C123946B420FEF7D5
:1048B000BFFCE87C1AF0B0FDAFF608123946DC20E8
:1048C000D2E74FF01508012A03D0022AA6D191B1F0
:1048D000B4E00C981AF068FDAFF628123146DC20DF
:1048E000FEF770FC287D1AF097FDAFF6F002314616
:1048F0004FF48270A5E70C981AF056FDAFF64C12F3
:104900003946DC20FEF794FC287D1AF085FDAFF6D1
:10491000141239464FF48270A6E74FF01608012AA8
:1049200003D0022AA8D199B188E010981AF03CFD72
:10493000AFF6381231464FF48270FEF743FC687DC3
:104940001AF06AFDAFF63C1231464FF4967078E7E4
:1049500010981AF029FDAFF65C1239464FF48270B8
:10496000FEF766FC687D1AF057FDAFF66012394617
:104970004FF4967078E74FF01708012A03D0022A07
:10498000A4D199B15AE014981AF00EFDAFF6841232
:1049900031464FF49670FEF715FCA87D1AF03CFDE9
:1049A000AFF28C5231464FF4AA704AE714981AF0CD
:1049B000FBFCAFF6A81239464FF49670FEF738FCB0
:1049C000A87D1AF029FDAFF2B05239464FF4AA7013
:1049D0004AE74FF01808012A03D0022AA2D199B160
:1049E0002CE018981AF0E0FCAFF2D45231464FF4A4
:1049F000AA70FEF7E7FBE87D1AF00EFDAFF2D45285
:104A000031464FF4BE701CE718981AF0CDFCAFF297
:104A1000F85239464FF4AA70FEF70AFCE87D1AF006
:104A2000FBFCAFF2F85239464FF4BE701CE74FF072
:104A30001108012A05D0022AA2D1A1B184F80A8066
:104A400085E61C981AF0B0FCAFF2206231464FF4B4
:104A5000BE70FEF7B7FB287C1AF0DEFCAFF6EC6206
:104A600031466420EDE61C981AF09EFCAFF24462D9
:104A700039464FF4BE70FEF7DBFB287C1AF0CCFC05
:104A8000AFF6107239466420EEE6022AD8D191B909
:104A900058461AF089FCAFF620724E46494664200B
:104AA000FEF7C6FB687E1AF0B7FCAFF60872314617
:104AB0008C20FEF7BDFB1A207DE1022AC0D191B9FE
:104AC00005981AF071FCAFF624724E4649468C20C8
:104AD000FEF7AEFBA87E1AF09FFCAFF63C323146E3
:104AE000B420FEF7A5FB1B2065E1022AA8D191B9ED
:104AF00009981AF059FCAFF658324E464946B42090
:104B0000FEF796FBE87E1AF087FCAFF6543231468A
:104B1000DC20FEF78DFB1C204DE1022A90D199B9D3
:104B20000D981AF041FCAFF670324E464946DC2033
:104B3000FEF77EFB287F1AF06FFCAFF64832314655
:104B40004FF48270FEF774FB1D2034E1022A9DD1E0
:104B5000A1B911981AF028FCAFF668324E464946C2
:104B60004FF48270FEF764FB687F1AF055FCAFF6D5
:104B7000603231464FF49670FEF75AFB1E201AE160
:104B8000022A9BD1A1B915981AF00EFCAFF680321B
:104B90004E4649464FF49670FEF74AFBA87F1AF03E
:104BA0003BFCAFF2887231464FF4AA70FEF740FB2F
:104BB0001F2000E1022A99D1A1B919981AF0F4FB3B
:104BC000AFF2A8724E4649464FF4AA70FEF730FB8A
:104BD000E87F1AF021FCAFF2A87231464FF4BE70A4
:104BE000FEF726FB2020E6E0022A97D191B91D9816
:104BF0001AF0DAFBAFF2C8724E4649464FF4BE7067
:104C0000FEF716FB287E1AF007FCFE4A31466420A8
:104C1000FEF70EFB1920CEE0022A98D199B9704612
:104C20001AF0C2FBF74A5646121D51466420FEF7A1
:104C3000FFFA95F821001AF0EFFBF24A31463032C4
:104C40008C20FEF7F5FA2220B5E0022A99D199B915
:104C500006981AF0A9FBEB4A5646303251468C2092
:104C6000FEF7E6FA95F822001AF0D6FBAFF6CC4232
:104C70003146B420FEF7DCFA23209CE0022A9AD1C8
:104C800099B90A981AF090FBAFF6E8425646514699
:104C9000B420FEF7CDFA95F823001AF0BDFBAFF66D
:104CA000E4423146DC20FEF7C3FA242083E0022AE6
:104CB0009BD1A1B90E981AF077FBAFF60052564679
:104CC0005146DC20FEF7B4FA95F824001AF0A4FB54
:104CD000AFF6D44231464FF48270FEF7A9FA252090
:104CE00069E0022A99D1A9B912981AF05DFBAFF6D2
:104CF000F042564651464FF48270FEF799FA95F805
:104D000025001AF089FBAFF6F44231464FF4967055
:104D1000FEF78EFA26204EE0022A97D1A9B91698FE
:104D20001AF042FBAFF61452564651464FF49670B5
:104D3000FEF77EFA95F826001AF06EFBAFF6201209
:104D400031464FF4AA70FEF773FA272033E0022AA7
:104D500095D1A9B91A981AF027FBAFF63C1256461E
:104D600051464FF4AA70FEF763FA95F827001AF03F
:104D700053FBAFF6401231464FF4BE70FEF758FABF
:104D8000282018E0022A93D1A1B91E981AF00CFB32
:104D9000AFF66012564651464FF4BE70FEF748FA21
:104DA00095F820001AF038FB964A3146121D64200F
:104DB000FEF73EFA2120A072C9E4ACF12C0C40F2BF
:104DC0003D164FF4FA77BCF1070FF5D2DFE80CF08F
:104DD0000539840404C0F000B9E41AF007FB95F823
:104DE0002C00002895F830001BD0F8B186A296213F
:104DF00032200AF0F9FD1AF01FFB95F82A0000286E
:104E000095F8300014D0C0B17FA296215A200AF044
:104E1000EBFD95F8300090B17CA001F003FA2D2055
:104E2000C9E708B17DA2E2E77DA2E0E77EA2DEE766
:104E300008B17AA2E9E77AA2E7E77BA2E5E77CA0DE
:104E4000EBE71AF0D3FA95F82A00002895F830001D
:104E500026D050B36CA296215A200AF0C5FD77489F
:104E600001460BF0CFF91F2318227F2196200AF06C
:104E7000EDFE95F82B00052819D004284FF000000E
:104E80001FD00BF0D5F96EA29B217F200AF0ACFD5C
:104E900095F83000F0B16BA001F0C4F92E208AE73C
:104EA00008B15EA2D7E75EA2D5E75FA2D3E70020F4
:104EB0000BF0BEF969A296217F20FEF7B9F968A22E
:104EC000E2E70BF0B5F965A296217F20FEF7B0F975
:104ED00051A2D9E763A0DFE7882108460BF092F9D9
:104EE0001F2318227F2196200AF0B0FE95F82B0090
:104EF000052818D0042851481FD00BF099F950A26A
:104F00009B217F200AF070FD1AF096FA59A2962193
:104F100030460AF069FD3020A07295F83000A8B143
:104F200056A0FEF733BD45480BF082F94BA29621FF
:104F30007F20FEF77DF94AA2E2E70BF079F947A25C
:104F400096217F20FEF774F933A2D9E751A0E8E754
:104F50001AF04CFA95F82E0020B1012809D0022849
:104F60000ED015E095F8300008B14EA20CE04FA22B
:104F70000AE095F8300008B14EA205E04EA203E029
:104F800095F8300090B14EA2394632200AF02CFD3F
:104F90001AF052FA95F82F0058B101280BD00228C8
:104FA0000BD003280BD004280BD00FE046A2EBE770
:104FB00016E047A206E048A204E049A202E04AA2A5
:104FC00000E04BA2394657200AF00EFD95F830005C
:104FD00020B149A001F026F93220ECE64BA0F9E718
:104FE0001AF004FA95F82F0038B1012806D00228EB
:104FF00005D0032804D004288EE08FE091E093E0F0
:1050000095E00000783B00084F4E000042757A7A28
:105010006572204F4E2F4F46460000004F46460017
:10502000B9D8B1D500000000B4F2BFAA000000005A
:10503000B7E4C3F9C6F7C9E8D6C3000000FFFF0014
:105040004B00000053656C6563742074656D70657A
:1050500072617475726520756E6974006F0000006E
:1050600043000000CEC2B6C8B5A5CEBBD1A1D4F1D5
:10507000000000004155544F00000000496E70755B
:10508000742066696C65206E616D6520707265665E
:1050900069780000CEC4BCFEC3FBB5C4C7B0D7BAA4
:1050A000000000004641535400000000BFECCBD983
:1050B000000000004D454400D6D0CBD900000000D0
:1050C000534C4F5700000000C2FDCBD90000000038
:1050D0003936303000000000313932303000000005
:1050E00033383430300000003537363030000000BF
:1050F000313135323030000053656C6563742042C5
:10510000617564207261746500000000B2A8CCD89B
:10511000C2CAC9E8D6C300000CD011E0AFF25002F9
:105120000AE0AFF24C0207E0AFF24C0204E0AFF24B
:10513000480201E0AFF24802394657200AF054FC19
:105140001AF07AF9F6A2394630460AF04DFC95F885
:10515000300020B1F3A001F065F833202BE6F5A074
:10516000F9E7F84DF84EF94895ED212AD6ED214A98
:10517000407B96ED194AD6ED113A96ED093AD6EDF7
:10518000012AD5ED191A95ED111AD5ED090A95EDFB
:10519000010AACF1380CBCF10F0FBFF451ACDFE8E1
:1051A0000CF0093D71A7DDEFEE08EDECEBEAE9E864
:1051B000E70045E440B101280CD0022812D00328B2
:1051C00018D004281ED027E002201AF03BFD95EDF0
:1051D000000A1EE0B0EE600A02201AF033FD95EDE1
:1051E000080A16E0B0EE410A02201AF02BFD95EDF8
:1051F000100A0EE0B0EE610A02201AF023FD95EDD0
:10520000180A06E0B0EE420A02201AF01BFD95EDE6
:10521000200A01201AF088FC3920CCE540B1012891
:105220000CD0022812D0032818D004281ED027E062
:1052300002201AF079FC95ED020A1EE0B0EE600A39
:1052400002201AF071FC95ED0A0A16E0B0EE410A50
:1052500002201AF069FC95ED120A0EE0B0EE610A28
:1052600002201AF061FC95ED1A0A06E0B0EE420A3F
:1052700002201AF059FC95ED220A03201AF0E2FCF4
:105280003A2098E540B101280ED0022814D0032816
:105290001AD0042820D029E095ED020A03201AF044
:1052A00043FC95ED030A1EE095ED0A0A03201AF06F
:1052B0003BFC95ED0B0A16E095ED120A03201AF05F
:1052C00033FC95ED130A0EE095ED1A0A03201AF04F
:1052D0002BFC95ED1B0A06E095ED220A03201AF03F
:1052E00023FC95ED230A04201AF0ACFC3B2062E578
:1052F00040B101280ED0022814D003281AD0042867
:1053000020D029E095ED030A04201AF00DFC95ED5C
:10531000040A1EE095ED0B0A04201AF005FC95ED39
:105320000C0A16E095ED130A04201AF0FDFB95ED2A
:10533000140A0EE095ED1B0A04201AF0F5FB95ED1A
:105340001C0A06E095ED230A04201AF0EDFB95ED0A
:10535000240A05201AF076FC3C202CE588B10128AF
:1053600017D002281DD0032823D0042829D032E0EA
:10537000FCE1C5E18EE157E120E1E9E099E062E07E
:105380002BE095ED040A05201AF0CEFB95ED050AF9
:105390001EE095ED0C0A05201AF0C6FB95ED0D0AEE
:1053A00016E095ED140A05201AF0BEFB95ED150ADE
:1053B0000EE095ED1C0A05201AF0B6FB95ED1D0ACE
:1053C00006E095ED240A05201AF0AEFB95ED250ABE
:1053D00006201AF037FC3D20EDE440B101280ED044
:1053E000022814D003281AD0042820D029E095EDF3
:1053F000050A06201AF098FB95ED060A1EE095EDC9
:105400000D0A06201AF090FB95ED0E0A16E095EDB8
:10541000150A06201AF088FB95ED160A0EE095EDA8
:105420001D0A06201AF080FB95ED1E0A06E095ED98
:10543000250A06201AF078FB95ED260A07201AF0B7
:1054400001FC3E20B7E440B101280ED0022814D060
:1054500003281AD0042820D029E095ED060A072059
:105460001AF062FB95ED070A1EE095ED0E0A072083
:105470001AF05AFB95ED0F0A16E095ED160A072073
:105480001AF052FB95ED170A0EE095ED1E0A072063
:105490001AF04AFB95ED1F0A06E095ED260A072053
:1054A0001AF042FB95ED270A08201AF0CBFB3F20AB
:1054B00081E440B101280ED0022814D003281AD06C
:1054C000042820D029E0B0EE620A02201AF07AFA0D
:1054D00096ED000A1EE0B0EE430A02201AF072FABE
:1054E00096ED080A16E0B0EE630A02201AF06AFA96
:1054F00096ED100A0EE0B0EE440A02201AF062FAAD
:1055000096ED180A06E0B0EE640A02201AF05AFA84
:1055100096ED200A01201AF0BFF941204BE400006B
:10552000310000005265636F726420696E746572A9
:1055300076616C00BCC7C2BCBCE4B8F4CAB1BCE4C0
:10554000000000003C0C00209C0B0020E400002028
:1055500040B101280ED0022814D003281AD0042804
:1055600020D029E0B0EE620A02201AF095F996EDFB
:10557000020A1EE0B0EE430A02201AF08DF996ED01
:105580000A0A16E0B0EE630A02201AF085F996EDD9
:10559000120A0EE0B0EE440A02201AF07DF996EDF0
:1055A0001A0A06E0B0EE640A02201AF075F996EDC8
:1055B000220A03201AF006FA422031E440B1012801
:1055C0000ED0022814D003281AD0042820D029E0B5
:1055D00096ED020A03201AF05FF996ED030A1EE029
:1055E00096ED0A0A03201AF057F996ED0B0A16E019
:1055F00096ED120A03201AF04FF996ED130A0EE009
:1056000096ED1A0A03201AF047F996ED1B0A06E0F8
:1056100096ED220A03201AF03FF996ED230A0420A2
:105620001AF0D0F943203AE440B101280ED0022804
:1056300014D003281AD0042820D029E096ED030ABC
:1056400004201AF029F996ED040A1EE096ED0B0AE3
:1056500004201AF021F996ED0C0A16E096ED130AD3
:1056600004201AF019F996ED140A0EE096ED1B0AC3
:1056700004201AF011F996ED1C0A06E096ED230AB3
:1056800004201AF009F996ED240A05201AF09AF977
:10569000442004E440B101280ED0022814D003288D
:1056A0001AD0042820D029E096ED040A05201AF02B
:1056B000F3F896ED050A1EE096ED0C0A05201AF0A7
:1056C000EBF896ED0D0A16E096ED140A05201AF097
:1056D000E3F896ED150A0EE096ED1C0A05201AF087
:1056E000DBF896ED1D0A06E096ED240A05201AF077
:1056F000D3F896ED250A06201AF064F945206CE4EB
:1057000040B101280ED0022814D003281AD0042852
:1057100020D029E096ED050A06201AF0BDF896ED96
:10572000060A1EE096ED0D0A06201AF0B5F896ED71
:105730000E0A16E096ED150A06201AF0ADF896ED61
:10574000160A0EE096ED1D0A06201AF0A5F896ED51
:105750001E0A06E096ED250A06201AF09DF896ED41
:10576000260A07201AF02EF9462036E440B1012817
:105770000ED0022814D003281AD0042820D029E003
:1057800096ED060A07201AF087F896ED070A1EE044
:1057900096ED0E0A07201AF07FF896ED0F0A16E034
:1057A00096ED160A07201AF077F896ED170A0EE024
:1057B00096ED1E0A07201AF06FF896ED1F0A06E014
:1057C00096ED260A07201AF067F896ED270A0820BA
:1057D0001AF0F8F84720C1E4F64EF748ACF1530C44
:1057E00096ED212A807BD6ED191A96ED111AD6ED89
:1057F000090A96ED010ABCF1070F6DD2DFE80CF043
:10580000043872A9DFF2F10040B101280CD002285F
:1058100012D0032818D004281ED027E002201AF046
:10582000D1F896ED000A1EE0B0EE600A02201AF0F0
:10583000C9F896ED080A16E0B0EE410A02201AF007
:10584000C1F896ED100A0EE0B0EE610A02201AF0DF
:10585000B9F896ED180A06E0B0EE420A02201AF0F6
:10586000B1F896ED200A01201AF016F8542032E023
:1058700040B101280CD0022812D0032818D00428E7
:105880001ED027E002201AF007F896ED020A1EE06B
:10589000B0EE600A022019F0FFFF96ED0A0A16E04A
:1058A000B0EE410A022019F0F7FF96ED120A0EE061
:1058B000B0EE610A022019F0EFFF96ED1A0A06E039
:1058C000B0EE420A022019F0E7FF96ED220A03200B
:1058D0001AF078F85520A07295F83000C0B3B7A040
:1058E000FEF754B840B101280ED0022814D0032886
:1058F0001AD0042820D029E096ED020A032019F0DE
:10590000CBFF96ED030A1EE096ED0A0A032019F07C
:10591000C3FF96ED0B0A16E096ED120A032019F06C
:10592000BBFF96ED130A0EE096ED1A0A032019F05C
:10593000B3FF96ED1B0A06E096ED220A032019F04C
:10594000ABFF96ED230A04201AF03CF85620C2E77C
:10595000D9E040B101280ED0022814D003281AD073
:10596000042820D029E096ED030A042019F094FFC2
:1059700096ED040A1EE096ED0B0A042019F08CFF48
:1059800096ED0C0A16E096ED130A042019F084FF38
:1059900096ED140A0EE096ED1B0A042019F07CFF28
:1059A00096ED1C0A06E096ED230A042019F074FF18
:1059B00096ED240A05201AF005F857208BE740B130
:1059C000012810D0022816D003281CD0042822D089
:1059D0002BE096ED040A052019F05EFF96ED050A0E
:1059E00020E05AE023E096ED0C0A052019F054FF60
:1059F00096ED0D0A16E096ED140A052019F04CFFFD
:105A000096ED150A0EE096ED1C0A052019F044FFEC
:105A100096ED1D0A06E096ED240A052019F03CFFDC
:105A200096ED250A062019F0CDFF582053E740B126
:105A300001280ED0022814D003281AD0042820D020
:105A400029E096ED050A062019F026FF96ED060AD4
:105A50001EE096ED0D0A062019F01EFF96ED0E0AC7
:105A600016E096ED150A062019F016FF96ED160AB7
:105A70000EE096ED1D0A062019F00EFF96ED1E0AA7
:105A800006E096ED250A062019F006FF96ED260A97
:105A9000072019F097FF59201DE740B101280ED0CB
:105AA000022814D003281AD0042820D029E096ED2B
:105AB000060A072019F0F0FE96ED070A1EE096EDA3
:105AC0000E0A072019F0E8FE96ED0F0A16E096ED93
:105AD000160A072019F0E0FE96ED170A0EE096ED83
