:020000040800F2
:10000000E80F0120C101000887170108E9ED000889
:1000100085170108B9100008A7D4010800000000E6
:100020000000000000000000000000006142010824
:10003000F55D0008000000003D180108CD440108EE
:10004000DB010008DB010008DB010008DB01000820
:10005000DB010008DB010008DB010008DB01000810
:10006000DB010008DB010008DB010008DB01000800
:10007000DB010008DB010008DB010008DB010008F0
:10008000DB010008DB010008DB010008DB010008E0
:10009000DB010008DB010008DB010008DB010008D0
:1000A000DB010008DB010008DB010008DB010008C0
:1000B000DB010008DB010008DB010008DB010008B0
:1000C000DB010008DB010008DB010008DB010008A0
:1000D000DB010008E5B80108DB010008DB010008CE
:1000E000DB010008DB010008DB010008DB01000880
:1000F000DB010008DB010008DB010008DB01000870
:10010000DB010008DB010008DB010008DB0100085F
:10011000DB010008DB01000865450108AD46010868
:10012000DB010008DB010008DB010008DB0100083F
:10013000DB010008DB010008DB010008DB0100082F
:10014000DB010008DB010008DB01000801180108E1
:10015000DB010008DB010008DB010008DB0100080F
:10016000DB010008DB010008191801080D1801085F
:10017000DB01000825180108DB010008DB0100088D
:10018000DB010008DB010008DB010008DB010008DF
:10019000DB010008DB010008DB010008DB010008CF
:1001A000DB010008DB010008DB010008DFF80CD0F0
:1001B00000F012FC00480047B9F10108E80F0120E7
:1001C0000648804706480047FEE7FEE7FEE7FEE7F1
:1001D000FEE7FEE7FEE7FEE7FEE7FEE7094501086A
:1001E000AD010008D2B201E000F8012B491EFBD29C
:1001F00070470022F6E710B513460A460446194632
:10020000FFF7F0FF204610BD421E12F8013F002B01
:10021000FBD111F8013B02F8013B002BF9D17047EB
:1002200010B5044604E00B7800F8013B03B1491C0B
:10023000521EF8D2204610BD421C10F8011B0029A6
:10024000FBD1801A704710B5002200E0521C835C7D
:100250008C5CA34201D1002BF8D1D8B2E1B2401A94
:1002600010BD034611F8012B00F8012B002AF9D12B
:100270001846704770B506461DF0A2FF0468054693
:100280000A220021304600F0ABFA2C6070BD2DE947
:10029000FE4F804681EA0300C00F0C46009021F01B
:1002A000004123F00045B8EB0200A94105D24046C9
:1002B000214690461C460B46024623F00040104360
:1002C00047D0270DC7F30A00C3F30A510290401A22
:1002D000019040286BDAC3F3130040F4801B0098B0
:1002E000924620B10023D2EB030A63EB0B0B01987B
:1002F0005946C0F14002504600F0F3F906460D465B
:1003000050465946019A00F00BFA10EB0800614183
:10031000002487EA115284EAE7731A4340D0009A16
:1003200062B3019A012A4FEA075215DC001B61EB08
:1003300002014FF0004202EA0752CDE90042001CE0
:1003400041F5801132462B4600F0C8FA03B0BDE8F3
:10035000F08F40462146F9E7001B61EB0201001CCB
:1003600041F5801300185B412018A2F5001747EBF8
:10037000030140EAD570B6196D4111E06D084FEAEE
:10038000360645EAC0754FEA0752001B61EB0201D1
:10039000001C41F5801149084FEA30000019514115
:1003A00032462B4603B0BDE8F04F00F088BA009803
:1003B000012240000023D0EB020263EBE0730098BF
:1003C00021464FEAE074B8EB000061EB0401E9E775
:1003D00083F000435BE781F0004158E72DE9FE4FD1
:1003E00081EA030404F0004421F0004100944FF03E
:1003F000000B23F0004350EA01045ED052EA0304EC
:100400005BD0C3F30A54C1F30A552C44A4F2F3346D
:100410000194A0FB0254C1F3130141F48011C3F312
:10042000130343F4801301FB024400FB034E840AD0
:10043000970A44EA815447EA8357A4FB0768029568
:100440008D0A05FB07854FEA932C04FB0C54270506
:10045000029D4FEA065847EA1637B5EB08056EEBE2
:10046000070C870E920E47EA811742EA8312A7FB18
:100470000201B6EB0B0164EB00042B0D43EA0C33D5
:100480005E1844EB1C50DA465146E7FB0201C5F307
:1004900013044FEA0B3343EA14534FEA0432019C2E
:1004A00043EA0603A4F10C040294009CCDE900B4D5
:1004B00000F014FA03B0BDE8F08F00200146F9E720
:1004C0002DE9F04D81EA030404F0004B21F00045D2
:1004D00014464FF0000A23F0004150EA050220D0F4
:1004E00054EA01021DD0C5F30A570246C5F31303AF
:1004F000C1F31300C1F30A5640F4801543F480138E
:10050000A7EB0608101BD64608F2FD3873EB050072
:1005100002D308F1010801E092185B41B8F1000F25
:1005200003DA00200146BDE8F08D00204FF4801171
:10053000064684460EE0171B73EB050705D3121B16
:1005400063EB050306434CEA010C49084FEA30000F
:1005500092185B4150EA0107EDD152EA030012D034
:1005600082EA040083EA0501084305D0101BAB4171
:1005700006D20122002306E000224FF0004302E0F1
:100580006FF0010253101AEB06004CEB085110EB10
:100590000A0041EB0B01BDE8F04D00F090B90EB53B
:1005A00040F2334102910021CDE900110A460B4689
:1005B00000F094F903B000BD70B5C1F30A5201F028
:1005C00000450024C1F3130140F2FF3341F48011D0
:1005D0009A4201DA002070BD40F233439A42A2F2FF
:1005E000334203DC524200F08BF800E090402C4391
:1005F000F1D0404270BD00F0004230F000400AD01F
:10060000C10D01F56071C0F3160042EA0151C20844
:1006100040071143704700200146704701F0004336
:1006200030B421F0004150EA010206D00A0DA2F5D3
:100630006072C1F31301002A02DC30BC0020704755
:10064000440F44EAC104C100E01830BC00EBC250C2
:1006500000F0FEB830B50B460146002020220124F0
:1006600009E021FA02F59D4205D303FA02F5491B80
:1006700004FA02F52844151EA2F10102F1DC30BD96
:100680002DE9F05F0546002092469B4688460646C7
:10069000814640241BE0284641464746224600F05A
:1006A0002FF853465A46C01A914110D311461846A6
:1006B000224600F016F82D1A67EB01084F46224635
:1006C0000120002100F00DF817EB00094E41201E1B
:1006D000A4F10104DFDC484631462A464346BDE822
:1006E000F09F202A04DB203A00FA02F10020704734
:1006F0009140C2F1200320FA03F319439040704760
:10070000202A04DB203A21FA02F00021704721FA66
:1007100002F3D040C2F120029140084319467047CD
:10072000202A06DBCB17203A41FA02F043EAE073B5
:1007300006E041FA02F3D040C2F1200291400843A2
:10074000194670470FB4002300B589B00CA9009179
:100750000B996FF00042CB601E4B06931E4B079324
:100760000423CDE901321D4A089202466B4600205F
:1007700000F0E6F909B05DF814FB70B586B00646E6
:100780004FF0FF300091CDE90101002015460C46E5
:1007900004903246694604A8FFF7D4FF0246049845
:1007A000211825B108B1084600E0204628600498C9
:1007B00000280DD0002A02DD0098884208D0081BCE
:1007C0000094CDE901043246694604A8FFF7BAFF58
:1007D00006B070BD790D0008970D0008050A0008E5
:1007E0002DE9F04791460F4680460446002614F84E
:1007F000015B2DB100F002F90068405DC007F6D141
:100800002B2D02D02D2D18D0641E4A463946204685
:1008100000F0D2FA27B13968A14201D1C7F80080AF
:1008200071054FF002040BD54042002803DD1DF096
:10083000C7FC0460A007BDE8F08746F48066E4E7E3
:100840000028F8DA1DF0BCFC04606FF00040F2E70D
:100850000029A8BF7047401C490008BF20F00100D4
:10086000704710B4B0FA80FC00FA0CF050EA0104B2
:1008700004BF10BC704749B1CCF1200421FA04F444
:1008800011FA0CF118BF012121430843A3EB0C011D
:10089000CB1D4FEA00614FEA102042BF002010BC80
:1008A000704700EBC35010440029A4BF10BC704730
:1008B000401C490008BF20F0010010BC704710B573
:1008C000141E73F1000408DA401C41F10001921873
:1008D0005B411A4301D120F0010010BD2DE9F04D1C
:1008E00092469B4611B1B1FA81F202E0B0FA80F271
:1008F00020329046FFF7F5FE04460F4640EA0A0014
:1009000041EA0B0153465A46084313D0114653EAB5
:10091000010019D0C8F140025046FFF7F1FE05462C
:100920000E46504659464246FFF7DBFE084305D0C7
:10093000012004E020463946BDE8F08D0020054343
:1009400046EAE0762C4337430A986305E40AA0EBB5
:1009500008000022FD0A44EA47540A3002D500206C
:100960000146E9E7010510196941DDE9084500196B
:100970006941BDE8F04DA2E7C1F30A52C1F313018A
:1009800040F2FF3341F480119A4202DA002001461E
:10099000704740F233439A42A2F2334202DC5242A1
:1009A000FFF7AEBEFFF79DBE30B5041E71F1000427
:1009B00004DB4FF00044404264EB0101141E73F16C
:1009C000000405DB1C464FF00043524263EB040376
:1009D000994208BF904230BD064C074D06E0E068E2
:1009E00040F0010394E8070098471034AC42F6D376
:1009F000FFF7E0FB9CCF0308BCCF0308004870471B
:100A000024CF030810B50446FFF7F8FF0068005D27
:100A100000F0010010BD00002DE9FF4F087883B001
:100A20009946FF2805D0491C2D2804D00024002019
:100A300008E000200BE00124F9E700EB800003EB65
:100A40004000491C0B78FF2BF7D104B14042002332
:100A50000293147819461D462D2C01D02B2C04D15D
:100A6000521C2D2C13D000240294AA461478FF2C7B
:100A70000FD00A25A3FB057801FB05814FF0000C80
:100A800003FB0C11521CE3194AEB0101EEE70124B0
:100A9000EAE7814453EA010002D019F5C87F06DA7B
:100AA00003980021C0E9001107B0BDE8F08F0025D0
:100AB000AE4E2F46DFF8B882184600F0DAF9CDE9DD
:100AC0000001B9F1000002DAC9F1000400E00446B7
:100AD0000023A74A1AEB030B42EB045A12E0E0078B
:100AE00007D02A46334638464146FFF777FC07468B
:100AF00088462A46334610461946FFF76FFC0546DE
:100B00000E466410002CEAD1DDE90001B9F1000FB6
:100B10005A46534606DAFFF7D3FC3A464346FFF7F8
:100B2000CFFC05E0FFF75AFC3A464346FFF756FC78
:100B3000029A0AB181F00041039AC2E90001B3E7C9
:100B40002DE9FF4F1F468DB0D7E901464FF0FF3822
:100B50002E2045464FF000090B90B9696D1C0E9888
:100B60008847396A824688470028F6D1BAF1FF3FA4
:100B70000AD024F4D064002E11DDBAF12B0F08D076
:100B8000BAF12D0F0BD102E0404611B08DE744F4CD
:100B90008064B9696D1C0E9888478246761E694646
:100BA000600501D52D2000E02B208DF8000001F11B
:100BB000010B0DF1200809E0B9696D1C0E988847FA
:100BC00082460F9844F40074761E0560002E02DD04
:100BD000BAF1300FF0D00B998A453ED144F0800431
:100BE00006E00F99681CA9F1010944F4007408603B
:100BF000B9696D1C761E0E98884782463028F0D061
:100C00002BE00B998A4505D1200603D444F08004DB
:100C1000761E18E050461DF0D1FB08B30DF113010C
:100C2000761E44F400748B4508D2AAF130000BF80C
:100C3000010B200607D5A9F1010003E0200602D42C
:100C400009F101008146A00502D50F99681C0860D2
:100C5000B9696D1C0E9888478246002ED1DC53E09E
:100C6000002E51DDBAF1650F02D0BAF1450F4BD11C
:100C7000A00549D5B9696D1C24F44074761E0E9800
:100C800088478246002E0CDD2B2804D0BAF12D0FA8
:100C900007D144F48074B9696D1C0E988847824668
:100CA000761EE00501D52D2100E02B2108F8011B5F
:100CB000CDF82C8021E00DF12901761E44F400745A
:100CC00088450CD2AAF1300010F0FF0088F800002F
:100CD00002D10B99884509D908F1010806E0E00521
:100CE00001D5244801E042F20F708146B9696D1CBC
:100CF0000E98884782460F980560002E04DD504606
:100D00001DF05CFB0028D6D1F9690E988847FF20BA
:100D10008BF8000088F800000020069007904B46F2
:100D20006A4608A906A8FFF777FEA00502D46FF06F
:100D300001002AE714F0240F0AD0E00714D1DDE9FE
:100D400006123868031D3B600068C0E900120BE022
:100D5000DDE90601FFF762FC0146E00704D13868CF
:100D6000021D3A600068016028460EE7000014404A
:100D70000000F03FF1D8FFFF426842B1016811F86E
:100D8000013B23B1521EC0E90012184670470121F1
:100D9000C160881E704742685AB1C368016843B990
:100DA00083688B4205D0491E521CC0E90012002006
:100DB00070474FF0FF3070472DE9F05F82460078B2
:100DC000002715468B460AF10104B946302801D0A8
:100DD0009DB113E014F8010B0127782803D058289F
:100DE00001D045B10AE00DB1102D07D10027102523
:100DF00014F8010B02E0082500E00A250026B046A1
:100E00000EE005FB080005FB06F1012701EB10468B
:100E10001FFA80F8B6F5803F00D3B94614F8010BED
:100E2000294600F018F80028EBDABBF1000F05D0D6
:100E30000FB1641E00E05446CBF80040B9F1000F3A
:100E400006D01DF0BDF902210160C81EBDE8F09F6B
:100E500048EA0640FAE73A2800D2303820F020026B
:100E6000412A01D3A2F13700884201D34FF0FF306D
:100E700070470EB540F2334202920022CDE90022C3
:100E80001346FFF72BFD03B000BD70B58C1810F8AA
:100E9000015B15F0070301D110F8013B2A1106D1BF
:100EA00010F8012B03E010F8016B01F8016B5B1ED9
:100EB000F9D12B0705D40023521E0DD401F8013BB4
:100EC000FAE710F8013BCB1A921C03E013F8015B20
:100ED00001F8015B521EF9D5A142D8D3002070BDA4
:100EE0000E4910B5887A082803D0BDE810400BF0F1
:100EF00063BAC87AC97B0B4A00EBC1015339C9B246
:100F00009FED070A02EB8101523881ED000AC0B261
:100F10001EF010FBBDE8104013F0B4B9E80000204B
:100F200000000000480801200029816802D041F03B
:100F3000010101E021F0010181607047084B10B50B
:100F4000D3F8042307490A40D0E900142143D0E92B
:100F50000240044321431143C3F8041310BD0000B1
:100F600000200140E030FCFF0029816802D041F4FC
:100F7000807101E021F480718160704700298168EF
:100F800002D041F4007101E021F4007181607047EA
:100F900030B542680F4B0C791A400B6842EA0422C4
:100FA0001343436082680C4B4D791A40D1E90343E7
:100FB00023438C6844EA4504234313438360C26A95
:100FC000097D22F47002491EC9B242EA0151C16290
:100FD00030BD0000FFFEFFFCFDF7FFC070B5072627
:100FE00009290AD9C568A1F10A0404EB4404A64002
:100FF000B543A3401D43C56007E0056901EB41040B
:10100000A640B543A3401D4305611F23072A09D20B
:10101000446B521E02EB820293409C4391400C436E
:10102000446370BD0D2A09D2046BD21F02EB820209
:1010300093409C4391400C43046370BDC46A0D3AD5
:1010400002EB820293409C4391400C43C46270BD0A
:10105000816841F080418160704700000648807AD5
:10106000052805D0062803D0072801D0082801D17B
:101070001DF05ABE70470000E80000201CB5012199
:10108000080210F027FC2020012100908DF80410A8
:1010900000208DF806008DF80710064C8DF805002D
:1010A000694620460DF048FE202120460DF097FEAF
:1010B0001CBD000000200240FEE7000010B5074CF8
:1010C000202120460DF08DFE40F2FF5004F0F6FE88
:1010D0002046BDE8104020210DF081BE00200240D6
:1010E00010B50446392023F067FCE0B223F088FCF9
:1010F000C4F3072023F084FCC4F3074023F080FCF2
:10110000200E23F07DFC23F047FCBDE810401CF0CE
:1011100071BF70B5064614460D463C2023F04CFCCA
:10112000E8B223F06DFC280A23F06AFC23F034FCBB
:101130000CB1002011E01CF05DFF1E280FD13046DD
:1011400000F02DF905463D2023F036FC23F024FC69
:101150002E44002CEFD0208828442080EBE770BD7F
:1011600010B510F0ABFB08B100F069F8BDE8104015
:10117000302000F0AFB8312000F0ACB80146362086
:1011800000F09BB810B508B100F0C2F8BDE81040FF
:10119000342000F09FB870B5054600F0A4F80400B4
:1011A0000DD00146284600F021F8412807D0142828
:1011B00003D0422800D1B32070BD432070BD281950
:1011C000BDE87040FFF7DEBF10B5044600F0A0F8A0
:1011D00020785C2801D02F2803D10021642000F062
:1011E000F4F8BDE81040322000F074B870B50E4637
:1011F00000210546012401E0641CE4B2285D5C285E
:1012000013D02F2811D00028F6D100246818FFF73A
:10121000DBFF002C08D0B44206D041280AD01428A5
:1012200006D0422800D1B32070BD641CE4B2EDE7C3
:10123000432070BD2146E1E7FF21FFF7D7BF10B57E
:10124000222023F0B9FB23F0ADFB044623F0A4FBDE
:10125000204610BD2DE9F04123F0A4FB064623F003
:10126000A1FB054623F09EFB044623F09BFB0746AB
:1012700023F092FB46EA052040EA044040EA07607A
:10128000BDE8F08110B504460C2023F095FB204604
:1012900023F0B6FBBDE81040FFF7DCBF10B50446F5
:1012A0000A2023F089FB204623F0AAFB23F07AFBD7
:1012B000044623F071FB204610BD10B50C4623F008
:1012C0007BFB204623F09CFB23F066FBBDE810402F
:1012D0001CF090BE10B523F06FFB23F05DFBBDE862
:1012E00010401CF087BE014600E0491C0A78002A25
:1012F000FBD105E011F8012D5C2A03D02F2A01D083
:101300008142F7D1814200D0491C081AC0B270470F
:1013100070B50546012023F04FFB23F043FB432823
:1013200028D22B20FFF7BAFF102823D22F2023F03A
:1013300043FB002023F064FB3220FFF7CBFF14288F
:1013400018D1CF20FFF7AAFF040013D04C20FFF7DD
:1013500099FF00EB04214C2000F037F85020FFF7F4
:1013600091FF00EB0421502000F02FF800217020A5
:1013700000F02BF82F2023F01FFB2C7806E015F847
:10138000014F5C2C01D02F2C00D10024204623F0EB
:1013900037FB002CF3D1BDE8704023F0FDBA70B5E7
:1013A00005462D2023F008FB23F0FCFA0446260016
:1013B00007D0287823F024FB641E6D1C14F0FF0472
:1013C000F7D123F0E9FA304670BD70B505460C46FA
:1013D0000D2023F0F1FA284623F012FBE0B223F0AF
:1013E0000FFBC4F3072023F00BFBC4F3074023F0EB
:1013F00007FB200E23F004FBBDE8704023F0CCBABD
:101400002DE9F04188B00121812010F063FA01211B
:10141000080310F08FFADFF8C88005221146404615
:101420000DF0C6FC0522062140460DF0C1FC052248
:10143000072140460DF0BCFC02258DF805508DF8C3
:101440000450002420278DF8064000978DF80740AF
:10145000694640460DF070FC4020009069464046C9
:101460000DF06AFC80200090694640460DF064FC57
:101470001020012600908DF804608DF80640694622
:1014800040460DF059FC8DF8044000978DF8076038
:10149000694614480DF050FCADF808404FF48270D6
:1014A000ADF80A00ADF810602802ADF8120038203F
:1014B000ADF81400ADF80C40ADF8164007200A4C0A
:1014C000ADF81800ADF80E5002A9204612F039FE12
:1014D0000121204612F032FC08B0BDE8F081000086
:1014E00000000240001C024000300140F0B5FF2324
:1014F0001A46002518E0445D6240002402F001060F
:1015000013F0010F4FEA53034FEA520201D042F0A9
:1015100080021EB183F0A00382F00102641CE4B2D9
:10152000082CEBD36D1CEDB28D42E4D342EA0320CC
:10153000F0BD00002DE9F041FE48FF4EFF4C007861
:101540004FF49B754FF470474FF4A57840B10128D4
:1015500074D0022873D0032872D0042871D025E3F8
:101560002078012801D028B10FE088200EF07EFD00
:10157000304603E088200EF079FD38460EF092FDEB
:10158000EFA20A2164200EF09FF96078012801D0B3
:1015900028B10FE088200EF069FD304603E0882076
:1015A0000EF064FD38460EF07DFDE6A20A21AA2069
:1015B0000EF08AF9A078012801D028B10FE0882028
:1015C0000EF054FD304603E088200EF04FFD384603
:1015D0000EF068FDDCA20A21F0200EF075F9E0782B
:1015E000012801D028B10FE088200EF03FFD3046E1
:1015F00003E088200EF03AFD38460EF053FDD3A2EA
:101600000A2128460EF060F92079012801D028B17E
:101610000FE088200EF02AFD304603E088200EF00F
:1016200025FD38460EF03EFDC9A2414664200EF06D
:101630004BF96079012805D048B113E039E0CEE0DC
:1016400063E133E288200EF011FD304603E088208C
:101650000EF00CFD38460EF025FDBEA24146AA2034
:101660000EF032F9A079012801D028B10FE08820CE
:101670000EF0FCFC304603E088200EF0F7FC384604
:101680000EF010FDB4A24146F0200EF01DF9E079F5
:10169000012801D028B189E288200EF0E7FC30460D
:1016A00003E088200EF0E2FC38460EF0FBFCABA213
:1016B00078E2207A01284FF0880070D00EF0D6FC36
:1016C00038460EF0EFFCA6A20A2164200EF0FCF8CA
:1016D000607A01284FF0880065D00EF0C7FC3846CC
:1016E0000EF0E0FC9FA20A21AA200EF0EDF8A07AED
:1016F00001284FF088005AD00EF0B8FC38460EF0A2
:10170000D1FC99A20A21F0200EF0DEF8E07A01283F
:101710004FF088004FD00EF0A9FC38460EF0C2FC06
:1017200092A20A2128460EF0CFF8207B01284FF024
:10173000880044D00EF09AFC38460EF0B3FC8CA220
:10174000414664200EF0C0F8607B01284FF088000D
:1017500039D00EF08BFC38460EF0A4FC85A2414631
:10176000AA200EF0B1F8A07B01284FF088002ED0FF
:101770000EF07CFC38460EF095FC7FA24146F0202E
:101780000EF0A2F8E07B01284FF0880023D00EF085
:101790006DFC38460EF086FC78A203E2FFE70EF0FF
:1017A00065FC30468DE70EF061FC304698E70EF0A0
:1017B0005DFC3046A3E70EF059FC3046AEE70EF074
:1017C00055FC3046B9E70EF051FC3046C4E70EF048
:1017D0004DFC3046CFE70EF049FC3046DAE7207C7E
:1017E00001284FF0880070D00EF040FC38460EF013
:1017F00059FC63A20A2164200EF066F8607C01287F
:101800004FF0880065D00EF031FC38460EF04AFCEF
:101810005CA20A21AA200EF057F8A07C01284FF004
:1018200088005AD00EF022FC38460EF03BFC56A23F
:101830000A21F0200EF048F8E07C01284FF08800E3
:101840004FD00EF013FC38460EF02CFC4FA20A21AC
:1018500028460EF039F8207D01284FF0880044D04A
:101860000EF004FC38460EF01DFC49A241466420EF
:101870000EF02AF8607D01284FF0880039D00EF074
:10188000F5FB38460EF00EFC42A24146AA200EF0AF
:101890001BF8A07D01284FF088002ED00EF0E6FB4B
:1018A00038460EF0FFFB3CA24146F0200EF00CF84B
:1018B000E07D01284FF0880023D00EF0D7FB38469A
:1018C0000EF0F0FB35A26DE1FFE70EF0CFFB3046E6
:1018D0008DE70EF0CBFB304698E70EF0C7FB3046A5
:1018E000A3E70EF0C3FB3046AEE70EF0BFFB304679
:1018F000B9E70EF0BBFB3046C4E70EF0B7FB30464D
:10190000CFE70EF0B3FB3046DAE7207E01284FF038
:1019100088007DD00EF0AAFB38460EF0C3FB20A253
:101920000A2164200DF0D0FF607E01284FF088006E
:101930006FD037E0F4000020935517002C030020EF
:10194000303031003030320030303300303034004D
:10195000303035003030360030303700303038002D
:101960003030390030313000303131003031320028
:101970003031330030313400303135003031360011
:1019800030313700303138003031390030323000FA
:1019900030323100303232003032330030323400F5
:1019A000303235000EF062FB38460EF07BFB99A218
:1019B0000A21AA200DF088FFA07E01284FF08800A0
:1019C0005CD00EF053FB38460EF06CFB92A20A215D
:1019D000F0200DF079FFE07E01284FF0880051D013
:1019E0000EF044FB38460EF05DFB8CA20A2128461F
:1019F0000DF06AFF207F01284FF0880046D00EF0DE
:101A000035FB38460EF04EFB85A24146642001E0CE
:101A10002CE02FE00DF058FF607F01284FF0880088
:101A200038D00EF023FB38460EF03CFB7DA2414639
:101A3000AA200DF049FFA07F01284FF088002DD08B
:101A40000EF014FB38460EF02DFB77A24146F02035
:101A50000DF03AFFE07F01284FF0880022D00EF011
:101A600005FB38460EF01EFB70A29BE00EF0FEFA5E
:101A7000304652E70EF0FAFA304696E70EF0F6FAE4
:101A80003046A1E70EF0F2FA3046ACE70EF0EEFA7F
:101A90003046B7E70EF0EAFA3046C5E70EF0E6FA50
:101AA0003046D0E70EF0E2FA3046DBE794F820004B
:101AB00001284FF088007DD00EF0D8FA38460EF09D
:101AC000F1FA5BA20A2164200DF0FEFE94F82100D9
:101AD00001284FF088007DD00EF0C8FA38460EF08D
:101AE000E1FA54A20A21AA200DF0EEFE94F8220099
:101AF00001284FF0880072D00EF0B8FA38460EF088
:101B0000D1FA4DA20A21F0200DF0DEFE94F8230058
:101B100001284FF0880066D00EF0A8FA38460EF083
:101B2000C1FA46A20A2128460DF0CEFE94F8240000
:101B300001284FF088005AD00EF098FA38460EF07F
:101B4000B1FA3FA2414664200DF0BEFE94F8250094
:101B500001284FF088004ED00EF088FA38460EF07B
:101B6000A1FA38A24146AA200DF0AEFE94F8260054
:101B700001284FF0880042D00EF078FA38460EF077
:101B800091FA31A24146F0200DF09EFE94F8270014
:101B900001284FF0880036D00EF068FA38460EF073
:101BA00081FA2AA2414628460DF08EFE28490120DE
:101BB000C87001E00AE00DE094F8300038B325A0C9
:101BC00004F02EFBBDE8F04112F05CBB0EF04EFAC3
:101BD000304674E70EF04AFA304680E7FFE70EF031
:101BE00045FA30468BE70EF041FA304697E70EF0A3
:101BF0003DFA3046A3E70EF039FA3046AFE70EF073
:101C000035FA3046BBE70EF031FA3046C7E714A08C
:101C1000D6E700003032360030323700303238003C
:101C2000303239003033300030333100303332005D
:101C30003033330030333400303335003033360046
:101C4000303337003033380030333900303430002F
:101C5000400100204368616E6E656C2073657400FE
:101C6000CDA8B5C0C9E8D6C3000000002DE9F05FDB
:101C7000F648DFF8DCA3F74C00784FF482754FF498
:101C800096764FF4AA784FF4BE794FF4704B10B1AA
:101C900001286ED032E32078012801D028B10FE06E
:101CA00088200EF0E3F9504603E088200EF0DEF9BC
:101CB00058460EF0F7F9E8A20A21642001F07EFAF6
:101CC0006078012801D028B10FE088200EF0CEF90D
:101CD000504603E088200EF0C9F958460EF0E2F9AC
:101CE000DEA20A218C2001F069FAA078012801D037
:101CF00028B10FE088200EF0B9F9504603E08820A3
:101D00000EF0B4F958460EF0CDF9D5A20A21B42050
:101D100001F054FAE078012801D028B10FE08820C2
:101D20000EF0A4F9504603E088200EF09FF95846C3
:101D30000EF0B8F9CBA20A21DC2001F03FFA20799D
:101D4000012801D028B10FE088200EF08FF950460D
:101D500003E088200EF08AF958460EF0A3F9C2A2DB
:101D60000A21284601F02AFA6079012802D030B110
:101D700010E0BCE188200EF079F9504603E088209D
:101D80000EF074F958460EF08DF9B8A20A213046CB
:101D900001F014FAA079012801D028B10FE08820C1
:101DA0000EF064F9504603E088200EF05FF95846C3
:101DB0000EF078F9AEA20A21404601F0FFF9E07971
:101DC000012801D028B10FE088200EF04FF95046CD
:101DD00003E088200EF04AF958460EF063F9A5A2F8
:101DE0000A21484601F0EAF9207A012801D028B1F9
:101DF0000FE088200EF03AF9504603E088200EF0FC
:101E000035F958460EF04EF99BA2D221642001F01C
:101E1000D5F9607A012801D028B10FE088200EF0B2
:101E200025F9504603E088200EF020F958460EF0C0
:101E300039F992A2D2218C2001F0C0F9A07A0128B0
:101E400001D028B10FE088200EF010F9504603E0D1
:101E500088200EF00BF958460EF024F988A2D22102
:101E6000B42001F0ABF9E07A012801D028B10FE0ED
:101E700088200EF0FBF8504603E088200EF0F6F8BC
:101E800058460EF00FF97FA2D221DC2001F096F91E
:101E9000207B012801D028B10FE088200EF0E6F861
:101EA000504603E088200EF0E1F858460EF0FAF8AC
:101EB00075A2D221284601F081F9607B012801D06A
:101EC00028B10FE088200EF0D1F8504603E08820BA
:101ED0000EF0CCF858460EF0E5F86CA2D221304650
:101EE00001F06CF9A07B012801D028B10FE0882017
:101EF0000EF0BCF8504603E088200EF0B7F85846C4
:101F00000EF0D0F862A2D221404601F057F9E07BF2
:101F1000012801D028B10FE088200EF0A7F8504624
:101F200003E088200EF0A2F858460EF0BBF859A244
:101F3000D221484601F042F9207C4FF4CD770128A8
:101F400001D028B10FE088200EF090F8504603E051
:101F500088200EF08BF858460EF0A4F84EA23946B1
:101F6000642001F02BF9607C012801D028B10FE03A
:101F700088200EF07BF8504603E088200EF076F8BB
:101F800058460EF08FF845A239468C2001F016F91C
:101F9000A07C012801D028B10FE088200EF066F85F
:101FA000504603E088200EF061F858460EF07AF8AB
:101FB0003BA23946B42001F001F9E07C012801D0B0
:101FC00028B10FE088200EF051F8504603E0882039
:101FD0000EF04CF858460EF065F832A23946DC2077
:101FE00001F0ECF8207D012801D028B10FE0882015
:101FF0000EF03CF8504603E088200EF037F85846C3
:102000000EF050F828A23946284601F0D7F8607D36
:10201000012801D028B10FE088200EF027F85046A3
:1020200003E088200EF022F858460EF03BF81FA27D
:102030003946304601F0C2F8A07D012801D0B8B37E
:1020400042E088200EF012F8504636E0F4000020FE
:10205000935517002C03002030303100303032000F
:10206000303033003030340030303500303036001E
:102070003030370030303800303039003031300007
:102080003031310030313200303133003031340002
:1020900030313500303136003031370030313800E2
:1020A00030313900303230003032310030323200DD
:1020B000FFE788200DF0DAFF58460DF0F3FFB9A2D4
:1020C0003946404601F07AF8E07D012801D028B178
:1020D00014E188200DF0CAFF504603E088200DF07F
:1020E000C5FF58460DF0DEFFAFA2394603E1207E62
:1020F00001284FF088007CD00DF0B8FF58460DF055
:10210000D1FFAAA20A21642001F058F8607E0128BC
:102110004FF088006ED00DF0A9FF58460DF0C2FFB9
:10212000A3A20A218C2001F049F8A07E01284FF0DB
:1021300088007DD00DF09AFF58460DF0B3FF9DA2A8
:102140000A21B42001F03AF8E07E01284FF088001F
:102150006FD00DF08BFF58460DF0A4FF96A20A2118
:10216000DC2001F02BF8207F01284FF088007DD083
:102170000DF07CFF58460DF095FF90A20A212846ED
:1021800001F01CF8607F01284FF088006FD00DF03F
:102190006DFF58460DF086FF89A20A21304601F0F6
:1021A0000DF8A07F01284FF088007DD00DF05EFF74
:1021B00058460DF077FF83A20A21404600F0FEFF4B
:1021C000E07F01284FF088006FD00DF04FFF584698
:1021D0000DF068FF7CA20A21484600F0EFFF94F85A
:1021E000200001284FF088007ED00DF03FFF5846B8
:1021F00001E090E094E00DF055FF74A2D22164203C
:1022000000F0DCFF94F8210001284FF088006CD02A
:102210000DF02CFF58460DF045FF6DA2D2218C2009
:1022200000F0CCFF94F8220001284FF0880001E074
:102230007AE07DE073D00DF019FF58460DF032FFC3
:1022400064A2D221B42000F0B9FF94F82300012841
:102250004FF0880070D00DF009FF58460DF022FFB6
:102260005DA2D221DC2000F0A9FF01E065E068E07A
:1022700094F8240001284FF088006ED00DF0F6FE8F
:1022800058460DF00FFF55A2D221284600F096FFC8
:1022900094F8250001284FF0880075D00DF0E6FE77
:1022A00058460DF0FFFE01E04FE052E04CA2D22173
:1022B000304600F083FF94F8260001284FF0880094
:1022C00066D00DF0D3FE58460DF0ECFE45A2D221AB
:1022D000404600F073FF94F8270001284FF0880073
:1022E0005AD00DF0C3FE01E039E03CE058460DF055
:1022F000D9FE3DA2D221484600F060FF3B490120B3
:10230000C87094F8300048B339A003F089FFBDE8E5
:10231000F05F11F0B7BF0DF0A9FE5046EFE626E0E2
:102320000DF0A4FE5046F9E60DF0A0FE504604E77D
:102330000DF09CFE50460FE71DE00DF097FE504655
:1023400019E70DF093FE504624E70DF08FFE50463E
:102350002FE70DF08BFE50463AE711E020E00DF03C
:1023600085FE504644E70DF081FE504653E70DF0E0
:102370007DFE504662E70DF079FE50466EE703E0C1
:102380000DF074FE50467CE70DF070FE504688E775
:102390000DF06CFE504697E70DF068FE5046A6E73C
:1023A00016A0B2E73032330030323400303235001C
:1023B00030323600303237003032380030323900B7
:1023C00030333000303331003033320030333300BB
:1023D000303334003033350030333600303337009B
:1023E00030333800303339003034300040010020C1
:1023F0004368616E6E656C2073657400CDA8B5C0CE
:10240000C9E8D6C3000000002DE9F05FFB4CDFF8FF
:10241000F0A34FF4704B2078012801D028B10FE0D1
:1024200088200DF023FE504603E088200DF01EFEAC
:1024300058460DF037FEF3A20A21642000F0F4FEA6
:102440006078012801D028B10FE088200DF00EFE41
:10245000504603E088200DF009FE58460DF022FE9C
:10246000E9A20A218C2000F0DFFEA078012801D02B
:1024700028B10FE088200DF0F9FD504603E08820D8
:102480000DF0F4FD58460DF00DFEE0A20A21B42037
:1024900000F0CAFEE078012801D028B10FE08820C2
:1024A0000DF0E4FD504603E088200DF0DFFD5846B6
:1024B0000DF0F8FDD6A20A21DC2000F0B5FE20794F
:1024C0004FF48275012801D028B10FE088200DF06B
:1024D000CDFD504603E088200DF0C8FD58460DF0B4
:1024E000E1FDCCA20A21284600F09EFE60794FF45F
:1024F0009676012801D028B10FE088200DF0B6FDB6
:10250000504603E088200DF0B1FD58460DF0CAFD9D
:10251000C1A20A21304600F087FEA0794FF4AA78C4
:10252000012801D028B10FE088200DF09FFD504612
:1025300003E088200DF09AFD58460DF0B3FDB7A2D8
:102540000A21404600F070FEE0794FF4BE79012880
:1025500001D028B10FE088200DF088FD504603E03F
:1025600088200DF083FD58460DF09CFDACA20A2199
:10257000484600F059FE207A012801D028B10FE02A
:1025800088200DF073FD504603E088200DF06EFDAD
:1025900058460DF087FDA3A28621642000F044FE7A
:1025A000607A012801D028B10FE088200DF05EFD8F
:1025B000504603E088200DF059FD58460DF072FD9D
:1025C00099A286218C2000F02FFEA07A012801D04C
:1025D00028B10FE088200DF049FD504603E0882027
:1025E0000DF044FD58460DF05DFD90A28621B4200B
:1025F00000F01AFEE07A012801D028B10FE088200F
:102600000DF034FD504603E088200DF02FFD5846B4
:102610000DF048FD86A28621DC2000F005FE207B1F
:10262000012801D028B10FE088200DF01FFD504691
:1026300003E088200DF01AFD58460DF033FD7DA211
:102640008621284600F0F0FD607B012801D028B1EA
:102650000FE088200DF00AFD504603E088200DF0C1
:1026600005FD58460DF01EFD73A28621304600F090
:10267000DBFDA07B012801D028B10FE088200DF000
:10268000F5FC504603E088200DF0F0FC58460DF0B4
:1026900009FD6AA28621404600F0C6FDE07B0128C4
:1026A00001D028B10FE088200DF0E0FC504603E097
:1026B00088200DF0DBFC58460DF0F4FC60A286216A
:1026C000484600F0B1FD207C4FF48177012801D00D
:1026D00028B10FE088200DF0C9FC504603E08820A7
:1026E0000DF0C4FC58460DF0DDFC56A239466420BE
:1026F00000F09AFD607C012801D028B10FE088200D
:102700000DF0B4FC504603E088200DF0AFFC5846B5
:102710000DF0C8FC4CA239468C2000F085FDA07C51
:10272000012801D028B10FE088200DF09FFC504611
:1027300003E088200DF09AFC58460DF0B3FC43A24C
:102740003946B42000F070FDE07C012801D028B1AA
:102750000FE088200DF08AFC504603E088200DF041
:1027600085FC58460DF09EFC39A23946DC2000F06D
:102770005BFD207D012801D028B10FE088200DF0FD
:1027800075FC504603E088200DF070FC58460DF0B3
:1027900089FC30A23946284600F046FD607D0128BC
:1027A00001D028B10FE088200DF060FC504603E016
:1027B00088200DF05BFC58460DF074FC26A23946CB
:1027C000304600F031FDA07D012801D028B10FE096
:1027D00088200DF04BFC504603E088200DF046FCAD
:1027E00058460DF05FFC1DA23946404600F01CFD26
:1027F000E07D012834D000B142E036E02C03002017
:102800009355170030303100303032003030330013
:102810003030340030303500303036003030370062
:102820003030380030303900303130003031310054
:102830003031320030313300303134003031350046
:102840003031360030313700303138003031390026
:10285000303230003032310030323200303233002A
:1028600088200DF003FC504603E088200DF0FEFBAD
:1028700058460DF017FCB8A23946484600F0D4FC83
:10288000207E4FF4BF77012801D028B10FE08820C7
:102890000DF0ECFB504603E088200DF0E7FB5846B6
:1028A0000DF000FCADA23946642000F0BDFC607E56
:1028B000012801D028B10FE088200DF0D7FB504649
:1028C00003E088200DF0D2FB58460DF0EBFBA4A2EC
:1028D00039468C2000F0A8FCA07E012801D028B148
:1028E0000FE088200DF0C2FB504603E088200DF079
:1028F000BDFB58460DF0D6FB9AA23946B42000F035
:1029000093FCE07E012801D028B10FE088200DF073
:10291000ADFB504603E088200DF0A8FB58460DF0B3
:10292000C1FB91A23946DC2000F07EFC207F01280B
:1029300001D028B10FE088200DF098FB504603E04D
:1029400088200DF093FB58460DF0ACFB87A239466A
:10295000284600F069FC607F012801D028B10FE013
:1029600088200DF083FB504603E088200DF07EFBAD
:1029700058460DF097FB7EA23946304600F054FCD5
:10298000A07F012801D028B10FE088200DF06EFB58
:10299000504603E088200DF069FB58460DF082FB9D
:1029A00074A23946404600F03FFCE07F012801D088
:1029B00028B10FE088200DF059FB504603E0882035
:1029C0000DF054FB58460DF06DFB6BA2394648469E
:1029D00000F02AFC94F820004FF4FD77012801D084
:1029E00028B10FE088200DF041FB504603E088201D
:1029F0000DF03CFB58460DF055FB60A239466420B3
:102A000000F012FC94F82100012801D028B10FE059
:102A100088200DF02BFB504603E088200DF026FBAC
:102A200058460DF03FFB56A239468C2000F0FCFBC7
:102A300094F82200012801D028B10FE088200DF081
:102A400015FB504603E088200DF010FB58460DF0B2
:102A500029FB4CA23946B42000F0E6FB94F8230091
:102A6000012801D028B10FE088200DF0FFFA504670
:102A700003E088200DF0FAFA58460DF013FB42A24D
:102A80003946DC2000F0D0FB94F82400012801D066
:102A900028B10FE088200DF0E9FA504603E08820C5
:102AA0000DF0E4FA58460DF0FDFA38A239462846F2
:102AB00000F0BAFB94F82500012801D028B10FE0FE
:102AC00088200DF0D3FA504603E088200DF0CEFAAE
:102AD00058460DF0E7FA2EA23946304600F0A4FB26
:102AE00094F82600012801D028B10FE088200DF0CD
:102AF000BDFA504603E088200DF0B8FA58460DF0B4
:102B0000D1FA24A23946404600F08EFB94F8270003
:102B1000012801D028B10FE088200DF0A7FA504617
:102B200003E088200DF0A2FA58460DF0BBFA1AA275
:102B30003946484600F078FB18490120C87094F8DF
:102B4000300030B116A003F06BFBBDE8F05F11F070
:102B500099BB16A0F7E70000303234003032350060
:102B600030323600303237003032380030323900FF
:102B70003033300030333100303332003033330003
:102B800030333400303335003033360030333700E3
:102B90003033380030333900303430004001002009
:102BA0004368616E6E656C2073657400CDA8B5C016
:102BB000C9E8D6C300000000164901EB800111ED01
:102BC000010A154901EB800151ED010A134901EB9E
:102BD000800130EE600A51ED010AB4EEE00AF1EE38
:102BE00010FA09D30E4901EB800050ED010AB4EE52
:102BF000E00AF1EE10FA04DD0A4890F82C000128F2
:102C000004D088216FF07F400DF036BA88214FF450
:102C10007F00F9E77009002048080120400C0020DF
:102C2000A00B00202C03002010B50B460C0601F071
:102C30007F0202EB820100EBC10102D501F58E712A
:102C400001E001F55D710A70DA094A701AF011FAB3
:102C5000002010BD0A4610B5090602F07F0306D514
:102C600003EB830100EBC10101F58E7105E002EB7E
:102C7000820100EBC10101F55D7100248C700B70C5
:102C8000D2094A701AF0DCF9002010BD10B50A060E
:102C900004D501F07F011AF00FFB01E01AF0EEFA03
:102CA000002010BD70B50D460E0601F07F0404EB48
:102CB000840100EBC10102D501F58E7101E001F53F
:102CC0005D71ED090C704D708A60CB7000D0CC80C6
:102CD000022B01D100220A711AF07EF9002070BD8A
:102CE00010B501F07F0404EB840100EBC101C1F8D1
:102CF0008833C1F880230023C1F88C3381F8753301
:102D000081F87443C37801F55D71012B00D10A612C
:102D100014F0FF0F03D01AF0EBF9002010BD1AF0E9
:102D2000ECF8FAE70069002261F30A120168114326
:102D3000016070470A4610B5090602F07F0306D508
:102D400003EB830100EBC10101F58E7105E002EB9D
:102D5000820100EBC10101F55D7101248C700B70E3
:102D6000D2094A701AF0ACF9002010BD70B511F00C
:102D70007F0404EB840100EBC1014FF0010581F8F1
:102D80001D5181F81C41C1F82821C1F82C2101F501
:102D90008E714FF00002C1E9053203D01AF0A8F994
:102DA000002070BD1AF0A9F8FAE700002DE9F04103
:102DB000064600241AF0C9FA074655E0F80751D034
:102DC0003069E1B20369426BCA4006EB810102F04F
:102DD0000102896943EAC2128D681540E9071AD0D9
:102DE0000125426B05FA04F18A43426306EB840035
:102DF000806985601F48E1B20068426830469047AC
:102E0000F078012807D134B996F81101042802D1CD
:102E100030461AF0CFF8280704D506EB84000825C1
:102E200080698560E80604D506EB8400102580697A
:102E30008560680604D506EB8400402580698560BE
:102E4000A80704D506EB8400022580698560280662
:102E500008D52146304600F06CF906EB840180204D
:102E6000896988607F08641C002FA7D10120BDE814
:102E7000F0810000A00100202DE9F041054600246A
:102E80001AF069FA0746DFF8988043E0F8073FD068
:102E9000E1B228461AF065FA0646C00725D005EBD0
:102EA00084000126416D8E60E97801290CD1406DC6
:102EB000016904EB840005EBC000C1F31201D0F8F6
:102EC0007C23511AC0F88C13D8F80000E1B20268D4
:102ED00028469047E878012807D134B995F81101C0
:102EE000052802D128461AF065F8B00704D505EB8D
:102EF00084000226406D8660300709D5D8F80000AE
:102F000081682846884705EB84010820496D886060
:102F10007F08641C002FB9D10120BDE8F0810000BA
:102F2000A001002070B50546C068816921F010013C
:102F30008161E868066A06F00F0000EB800005EB8F
:102F4000C004C6F3434004F55D74072821D2DFE8CE
:102F500000F0202004202020150047F6F0700642E3
:102F600017D0C6F30A1632462846E1681AF001FA6D
:102F7000E0683044E060A069304409E0082205F2CE
:102F8000CC5128461AF0F5F9A069C6F30A11084495
:102F9000A061E868816941F010018161012070BD84
:102FA00038B5044600208DF8000094F812018DF821
:102FB00000001548006841692046884720698068FC
:102FC000E2684FF400615161A17AD1B1C00718D015
:102FD00094F81501012814D19DF80000032810D1A0
:102FE000D4F80C01016841F001010160D4F80C0132
:102FF000016841F0030101600448016841F00601E5
:103000000160012038BD0000A001002010ED00E0AB
:1030100070B50446006900250126416821F00101D0
:103020004160294620461AF047F90020FF2206E0B9
:1030300004EB80018B699A60496D8A60401C61785D
:103040008142F5D821694FF0FF3088612846216917
:1030500066F30F0066F31F40C861216945F00B005D
:1030600048612169C1F88400216945F00B000861BD
:10307000216948642069016821F4FE6101602046ED
:1030800019F098FFE1684FF48050486103480068E8
:10309000016920468847012070BD0000A001002082
:1030A00070B504461AF076F90120002384F8120165
:1030B00084F814311A46402510E002EB820104EB3B
:1030C000C10181F81D0181F81C21A1F8222181F89C
:1030D0001F31C1E94953521CC1F830316178914226
:1030E000EBD8002010E000EB800104EBC10181F877
:1030F000753381F87403A1F87A0381F87733C1E955
:10310000DF53401CC1F8883361788142EBD82046F8
:1031100019F0CEFE204619F0B1FD002120461AF02C
:1031200099F9204619F0EAFD2046BDE870401AF0F2
:103130009DB82DE9F0470E4601EB860100EBC10476
:103140008046D4E94C01401AD4F8241104F58E7459
:10315000814200D20846C01C870808EB86091EE0A1
:10316000451AA068A84200D20546E81C8708ABB201
:10317000F2B24046E1681AF082F9E0682844E06063
:10318000A0692844A0616169884208D320780121A0
:103190008140D8F81000426B8A4342630BE0D9F8B3
:1031A0001800806980B2B84205D9D4E9050181428E
:1031B00001D20028D4D10120BDE8F0872DE9F041EB
:1031C00015460C468046154E4FF4207719E0802AAC
:1031D0000BD21348B061214640460CF005FBB069A4
:1031E0006D1C8088204484B20BE00E48B0612A46F2
:1031F000214640460CF00EFBB069AD1C808820448F
:1032000084B2BC4208D22A78002A05D0B0698088EE
:10321000011989B28142DAD2BDE8F0816000002054
:103220009C000020CC0000202DE9F04115460C4602
:103230008046154E4FF4207719E0802A0BD21348B0
:10324000B061214640460CF0CFFAB0696D1C808811
:10325000204484B20BE00E48B0612A462146404625
:1032600000F018F8B069AD1C8088204484B2BC42DC
:1032700008D22A78002A05D0B0698088011989B25D
:103280008142DAD2BDE8F081600000208C0000208D
:10329000DC0000202DE9F04116460F468046002450
:1032A0000D4D0FE032788A420AD105EB4002717869
:1032B0005078814204D139464046921C0CF076FB8E
:1032C000641CA4B2C4EBC40000EB400015F810105D
:1032D0008029E7D8BDE8F08101A902082DE9F04175
:1032E00015460C468046154E4FF4207719E0802A8B
:1032F0000BD21348B061214640460CF075FAB06914
:103300006D1C8088204484B20BE00E48B0612A46D0
:103310002146404600F018F8B069AD1C8088204472
:1033200084B2BC4208D22A78002A05D0B0698088CD
:10333000011989B28142DAD2BDE8F0816000002033
:10334000B4000020D40000202DE9F04116460F46BD
:10335000804600240C4D0EE032788A4209D1421991
:1033600071785078814204D139464046921C0CF065
:103370001DFB641CA4B204EB8400C0EB8410295C28
:103380008029E9D8BDE8F0817E9402082DE9F0415A
:1033900015460C468046154E4FF4207719E0802ADA
:1033A0000BD21348B061214640460CF01DFAB069BB
:1033B0006D1C8088204484B20BE00E48B0612A4620
:1033C00021464046FFF7C0FFB069AD1C808820440D
:1033D00084B2BC4208D22A78002A05D0B06980881D
:1033E000011989B28142DAD2BDE8F0816000002083
:1033F000BC000020D40000202DE9F041204E1546ED
:103400000C4680466BB3012B38D1882108460CF05E
:1034100033FE28239022414620460CF051FBBDE8A4
:10342000F04188216FF07F400CF026BE802A0BD23D
:103430001448B061214640460CF0D6F9B0696D1CC5
:103440008088204484B20EE00F48B0612A462146AD
:1034500040460CF0DFF9B069AD1C8088204484B28E
:1034600001E04FF42077BC4208D22A78002A05D028
:10347000B0698088011989B28142D7D2BDE8F08154
:1034800060000020A4000020CC0000202DE9F041C5
:10349000204E15460C4680466BB3012B38D188214F
:1034A00008460CF0E9FD1C236022414620460CF042
:1034B00007FBBDE8F04188216FF07F400CF0DCBDD8
:1034C000802A0BD21448B061214640460CF08CF99A
:1034D000B0696D1C8088204484B20EE00F48B06152
:1034E0002A46214640460CF095F9B069AD1C80880B
:1034F000204484B201E04FF42077BC4208D22A78FD
:10350000002A05D0B0698088011989B28142D7D2DA
:10351000BDE8F08160000020AC000020CC0000205D
:103520002DE9F041204E15460C4680466BB3012B29
:1035300038D1882108460CF09FFD142332224146E1
:1035400020460CF0BDFABDE8F04188216FF07F40C5
:103550000CF092BD802A0BD21448B061214640463F
:103560000CF042F9B0696D1C8088204484B20EE0F2
:103570000F48B0612A46214640460CF04BF9B0692D
:10358000AD1C8088204484B201E04FF42077BC4217
:1035900008D22A78002A05D0B0698088011989B23A
:1035A0008142D7D2BDE8F081600000209400002065
:1035B000CC00002010B50121CC0520460EF096F974
:1035C0002046BDE8104000210EF090B9034A0146A4
:1035D000002052680A4200D00120704700B002402B
:1035E00030B52A4B00241968294A1140196019681E
:1035F000026811431960596B21F007015963596B37
:10360000426811435963416841B301292DD0022911
:1036100030D00329C16832D00A0101694469090226
:1036200024038568214315430D43996B0D439D6326
:103630008169D963196C6FF30D011964196CC26942
:1036400011431964818C5A6C02F040425A645A6CDE
:10365000006A024342EA01425A6430BDC168047DF7
:103660000A02018A09042406DBE7C1680A02018A0A
:103670000904D6E7C1684A010169C902D1E74A01D4
:10368000016944698902E403CBE7000000B002400D
:10369000FCE0FCFF0248016841F001010160704755
:1036A00000B002400029016802D041F0010101E0B0
:1036B00021F001010160704730B50368124ACC68FF
:1036C00013400A682243D1E905452C432243CC69C3
:1036D00022430C6A22434C6A22438C6A22434C6B7D
:1036E00022438C6B22431A430260426922F0070393
:1036F000D1E90B2422431A4342610A6942604A68B5
:1037000082608968C16030BD3F801CF00548807AC6
:10371000052803D0062801D0082802D102A01BF0FA
:10372000B7BC7047E80000202E0000002DE9F04FE4
:10373000F74CF84D2146A07A91F80BC09FB00928AC
:1037400060D2DFE810F00900DE115F005F00360B89
:103750000A0D1B135F004510ED484FF4CD764FF472
:103760008177017BEB484FF4BF794FF4FD7A90F8F5
:103770002D2090F827301E93C37F1D93C37D1C938B
:10378000C37B1B9390F826301A93837F1993837D14
:103790001893837B179390F825301693437F1593E6
:1037A000437D1493437B139390F824301293037F4B
:1037B0001193037D1093037B0F9390F823300E93A6
:1037C000C37E0D93C37C0C93C37A0B9390F8223085
:1037D0000A93837E0993837C0893837A079390F8F6
:1037E00021300693437E0593437C0493437A0393ED
:1037F00090F820E090F818B0037C007ABCF1290F13
:103800009ED200E0C0E0DFE81CF02900C2004501C4
:103810001F02A1023003030493041C05C105140612
:1038200051068E06CD060F0751079307D6070008ED
:103830002E0858088408B208E0080E093C0954090B
:103840006C0984099D09B709D109EB09030A1C0A0F
:10385000350A4E0A680A830A9E0AB90AAE480CF075
:1038600021FC88200CF002FC95F82900022810D0D9
:10387000012810D0032810D0042810D0052810D01B
:10388000062810D0072810D0082810D0092810D0FA
:1038900014E0A2A20EE0A3A20CE0A4A20AE0A5A25A
:1038A00008E0A6A206E0A7A204E0A8A202E0A9A25E
:1038B00000E0AAA264212F200BF0D0FF95F82D0084
:1038C00038B1012838D002285ED1207B00284AD0A8
:1038D00051E0207B40B101280BD002280ED00328F4
:1038E00011D0042814D01CE028781BF065FB9DA2A1
:1038F00013E0287A1BF060FB9BA20EE0287C1BF0F3
:103900005BFB9AA209E0287E1BF056FB98A204E01C
:1039100095F820001BF050FB96A20A2164200BF0C2
:10392000D3FF95F8300028B193A002F079FC012074
:1039300001F03DBA93A0F8E7207B10B1012805D033
:1039400019E028781BF038FB86A203E0287E1BF0E4
:1039500033FB87A20A216420FFF730FC0BE089A02B
:1039600010E085A00EE028781BF026FB7DA20A213E
:103970006420FFF759FC0120E07295F83000002820
:10398000EFD1ECE702F04CFC1FB0BDE8F08F614FC7
:1039900002263F7832B1012A4FD0022AF4D1002901
:1039A0006AD06CE241B101290BD002290DD0032964
:1039B00010D0042913D0F4E738461BF0C5FA69A2E9
:1039C00011E01BF0C1FA68A20DE018461BF0BCFA2A
:1039D00066A208E058461BF0B7FA65A203E07046FD
:1039E0001BF0B2FA63A20A2164200BF06DFF207B6A
:1039F00040B101280BD002280ED0032811D0042892
:103A000014D0CEE768781BF0D7FA61A213E0687A89
:103A10001BF0D2FA5FA20EE0687C1BF0CDFA5EA22A
:103A200009E0687E1BF0C8FA5CA204E095F821006A
:103A30001BF0C2FA5AA20A2178E211B101290DD075
:103A4000AFE738461BF080FA46A20A216420FFF750
:103A5000B5FB68781BF0B0FA4DA20BE058461BF09E
:103A600073FA43A20A216420FFF7A8FB687E1BF0CB
:103A7000A3FA4AA20A21F7E338461BF065FA39A2F5
:103A80000A216420FFF7D0FB68781BF095FA40A26A
:103A90000A21EAE31F480326407832B1012A36D0D2
:103AA000022A7FF471AF81B37BE741B101290AD0CB
:103AB00002290DD0032910D0042913D071E71BF07F
:103AC00043FA33A212E003981BF03EFA31A20DE054
:103AD00004981BF039FA30A208E005981BF034FA7C
:103AE0002EA203E006981BF02FFA2DA20A21AA208D
:103AF0000BF0EAFE207B48B1012858D002285BD0A9
:103B000003285ED0042861D04BE78CE04AE067E0F0
:103B1000E80000202C03002000FFFF0054432D4B41
:103B20000000000054432D540000000054432D4A6F
:103B30000000000054432D4E0000000054432D456A
:103B40000000000054432D530000000054432D5248
:103B50000000000054432D4200000000505431305A
:103B60003000000030303100303039003031370063
:103B700030323500303333004368616E6E656C203F
:103B800073657400CDA8B5C0C9E8D6C300000000B5
:103B900030303200303130003031380030323600D1
:103BA00030333400A8781BF007FAF8A213E0A87AA3
:103BB0001BF002FAF6A20EE0A87C1BF0FDF9F5A2BC
:103BC00009E0A87E1BF0F8F9F3A204E095F82200C2
:103BD0001BF0F2F9F1A20A2177E20BF075FEE0E6A4
:103BE00011B101290DD0DCE61BF0AEF9AFF2600295
:103BF0000A218C20FFF7E2FAA8781BF0DDF9E3A296
:103C00000CE005981BF0A0F9AFF270020A218C209D
:103C1000FFF7D4FAA87E1BF0CFF9DFA20A21F0E368
:103C2000FFF7CCFABDE61BF08FF9AFF29C020A2138
:103C30008C20FFF7F9FAA8781BF0BEF9D3A20A216D
:103C4000F6E3FFF7F1FAACE6D5480426807832B106
:103C5000012A50D0022A7FF497AE81B3A1E641B188
:103C600001290AD002290DD0032910D0042913D02C
:103C700097E61BF069F9C5A212E007981BF064F9FA
:103C8000C3A20DE008981BF05FF9C2A208E00998F2
:103C90001BF05AF9C0A203E00A981BF055F9BFA225
:103CA0000A21F0200BF010FE207B48B101280CD037
:103CB00002280FD0032812D0042815D071E638E06E
:103CC000E8781BF079F9B7A213E0E87A1BF074F9F1
:103CD000B5A20EE0E87C1BF06FF9B4A209E0E87E23
:103CE0001BF06AF9B2A204E095F823001BF064F916
:103CF000B0A20A2174E211B101290CD051E61BF0E7
:103D000023F9A2A20A21B420FFF758FAE8781BF0A1
:103D100053F9A4A20BE009981BF016F99EA20A2100
:103D2000B420FFF74BFAE87E1BF046F9A0A20A2167
:103D3000E6E31BF009F995A20A21B420FFF774FA13
:103D4000E8781BF039F997A20A21EAE39448C07891
:103D500032B1012A55D0022A7FF416AEF1B371E0D8
:103D600041B101290AD002290DD0032910D004291C
:103D700013D01BE01BF0E8F88AA212E00B981BF0AE
:103D8000E3F889A20DE00C981BF0DEF887A208E0AA
:103D90000D981BF0D9F886A203E00E981BF0D4F81A
:103DA00084A20A214FF49B700BF08EFD00200CF0D2
:103DB00079F981480CF05AF995F82900022872D057
:103DC000012871D0032870D004286FD005286ED048
:103DD00006286DD007286CD0082800E034E069D0B0
:103DE000092868D003E064212F200BF037FD95F8F7
:103DF000300008B171A000E077A002F011FA0020B5
:103E000096E511B101290CD01CE01BF09DF865A2CC
:103E10000A21DC20FFF7D2F928791BF0CDF872A235
:103E20000BE00D981BF090F861A20A21DC20FFF74F
:103E3000C5F9287F1BF0C0F86CA20A214FF48270EC
:103E4000FFF7BCF9052073E51BF07EF855A20A21A7
:103E5000DC20FFF7E9F928791BF0AEF862A20A210D
:103E60004FF48270FFF7E0F9ECE74D480626007941
:103E700032B1012A5CD0022A7FF486ADD1B38BE245
:103E800041B101290AD0022916D0032919D00429E9
:103E90001CD081E21BF058F853A21BE00F981BF0D6
:103EA00053F853A216E056E258E25AE25CE25EE2B0
:103EB00060E262E264E266E210981BF045F84DA20F
:103EC00008E011981BF040F848A203E012981BF09C
:103ED0003BF849A24FF4A57164200BF0F5FC207B60
:103EE00048B101280CD002280FD0032812D0042892
:103EF00015D051E23CE068791BF05EF83FA213E078
:103F0000687B1BF059F83EA20EE0687D1BF054F868
:103F10003CA209E0687F1BF04FF83BA204E095F853
:103F200025001BF049F839A24FF4A571AA2054E6E8
:103F300011B101290DD02FE21BF006F82AA20A21A7
:103F40004FF48270FFF73AF968791BF035F82BA22D
:103F50000CE011981AF0F8FF24A20A214FF48270A5
:103F6000FFF72CF9687F1BF027F827A20A2145E309
:103F70001AF0EAFF1CA20A214FF48270FFF754F9ED
:103F800068791BF019F81DA20A214AE3303033008A
:103F900030313100303139003032370030333500C4
:103FA0002C03002030303400303132003032300009
:103FB000303238003033360000FFFF00546865723D
:103FC0006D6F636F75706C65206D6F64656C2073C9
:103FD000656C656374000000C8C8B5E7C5BCD0CD8A
:103FE000BAC5D1A1D4F100003030350030323900EB
:103FF000303133003032310030333700303036006A
:104000003031340030323200303330003033380059
:10401000FC480726407932B1012A58D0022A7FF4A1
:10402000B3ACB1B38EE341B101290BD002290FD05B
:10403000032913D0042917D084E31AF085FFAFF2C7
:10404000440216E013981AF07FFFAFF24C0210E022
:1040500014981AF079FFAFF254020AE015981AF09A
:1040600073FFAFF25C0204E016981AF06DFFAFF236
:1040700064024FF4A571AA200BF026FC207B48B106
:1040800001280CD002280FD0032812D0042815D004
:1040900058E33EE0A8791AF08FFFDBA213E0A87B7B
:1040A0001AF08AFFD9A20EE0A87D1AF085FFD8A2E7
:1040B00009E0A87F1AF080FFD6A204E095F8260058
:1040C0001AF07AFFD4A24FF4A571F02085E511B162
:1040D00001290ED036E31AF037FFAFF2E0020A21D1
:1040E0004FF49670FFF76AF8A8791AF065FFC6A238
:1040F0000DE015981AF028FFAFF2F4020A214FF4F0
:104100009670FFF75BF8A87F1AF056FFC1A20A214C
:10411000B6E21AF019FFAFF21C120A214FF49670A2
:10412000FFF782F8A8791AF047FFB7A20A21BAE28E
:10413000B4480826807932B1012A54D0022A7FF48B
:1041400023AC89B3FEE241B101290AD002290DD086
:10415000032910D0042913D0F4E21AF0F5FEAAA224
:1041600012E017981AF0F0FEA8A20DE018981AF0C5
:10417000EBFEA7A208E019981AF0E6FEA5A203E05C
:104180001A981AF0E1FEA4A24FF4A571F0200BF0EA
:104190009BFB207B48B101280CD002280FD00328BC
:1041A00012D0042815D0CDE23DE0E8791AF004FFE2
:1041B0009AA213E0E87B1AF0FFFE99A20EE0E87DD8
:1041C0001AF0FAFE97A209E0E87F1AF0F5FE96A22F
:1041D00004E095F827001AF0EFFE94A24FF4A571C1
:1041E0004FF49B70F9E411B101290DD0AAE21AF045
:1041F000ABFE85A20A214FF4AA70FEF7DFFFE87933
:104200001AF0DAFE85A20CE019981AF09DFE81A240
:104210000A214FF4AA70FEF7D1FFE87F1AF0CCFE16
:1042200081A20A216EE21AF08FFE77A20A214FF4D2
:10423000AA70FEF7F9FFE8791AF0BEFE77A20A210C
:1042400073E27048C0798AB1012A64D0022A7FF4EF
:104250009BAB0029FBD11AF077FE70A20A214FF424
:10426000BE70FEF7E1FFA1E5B9E0C8E041B3012966
:104270002AD002292DD0032930D004297FF46FAD34
:104280001E981AF061FE69A24FF4A5714FF49B705D
:104290000BF01AFB207B30B301282AD002282ED045
:1042A000032832D00428E9D195F824001AF084FEBE
:1042B000AFF2BC224FF4A57164200BF005FBC1E501
:1042C0001AF042FE55A2DFE71B981AF03DFE54A2F9
:1042D000DAE71C981AF038FE52A2D5E71D981AF0BA
:1042E00033FE51A2D0E728791AF066FEAFF2083209
:1042F000E0E7287B1AF060FEAFF20C32DAE7287DA7
:104300001AF05AFEAFF21432D4E7287F1AF054FEA6
:10431000AFF22832CEE7A9B1012998D11D981AF041
:1043200013FE41A20A214FF4BE70FEF747FF287E1C
:104330001AF042FEAFF2C8720A216420FEF73EFF77
:10434000FFF7F5BA1AF000FE34A20A214FF4BE704E
:10435000FEF734FF2AE5AFF63C0244E5AFF63C0237
:1043600041E5AFF638023EE5AFF638023BE5AFF681
:10437000340238E5AFF6340235E5AFF6300232E507
:10438000AFF630022FE5AFF62C022CE50A26012A03
:1043900003D0022AC1D121B3D4E111B101290ED039
:1043A000D0E11AF0D1FDAFF64002D2216420FEF731
:1043B00005FF687A1AF000FEAFF628020EE070469C
:1043C0001AF0C2FDAFF65402D2216420FEF7F6FEC9
:1043D00095F821001AF0F0FDAFF63C02D2218C20B6
:1043E0001EE41AF0B1FDAFF6800286216420FEF7CC
:1043F0001BFF687A1AF0E0FDAFF6680286218C2078
:104400001FE440E02C03002030303700303135000D
:10441000303233003033310030333900303038003F
:104420003031360030323400303332003034300036
:104430003AE00B26012A03D0022AABD129B381E14D
:1044400011B101290FD07DE103981AF07DFDAFF67F
:10445000BC02D2218C20FEF7B1FEA87A1AF0ACFD86
:10446000AFF2D4420EE006981AF06EFDAFF6D0021D
:10447000D2218C20FEF7A2FE95F822001AF09CFDB6
:10448000AFF2E842D221B420AAE703981AF05CFD0B
:10449000AFF6001286218C20FEF7C6FEA87A1AF02D
:1044A0008BFDAFF214528621B420A9E70C26012A15
:1044B00003D0022AC1D129B344E111B101290FD09F
:1044C00040E107981AF040FDAFF23C52D221B420EF
:1044D000FEF774FEE87A1AF06FFDAFF234520EE088
:1044E0000A981AF031FDAFF24C52D221B420FEF7F7
:1044F00065FE95F822001AF05FFDAFF24852D22116
:10450000DC206DE707981AF01FFDAFF27C52862180
:10451000B420FEF789FEE87A1AF04EFDAFF2785229
:104520008621DC206CE70D26012A03D0022A84D1E3
:1045300031B307E111B101290FD003E10B981AF053
:1045400003FDAFF29C52D221DC20FEF737FE287B20
:104550001AF032FDAFF268520EE00E981AF0F4FC39
:10456000AFF2B052D221DC20FEF728FE95F82400ED
:104570001AF022FDAFF28052D2214FF482702FE761
:104580000B981AF0E1FCAFF2E0528621DC20FEF736
:104590004BFE287B1AF010FDAFF2AC5286214FF48F
:1045A00082702DE70E26012A03D0022ABFD141B323
:1045B000C8E011B1012910D0C4E00F981AF0C4FC72
:1045C000AFF2D452D2214FF48270FEF7F7FD687B30
:1045D0001AF0F2FCAFF2D8520FE012981AF0B4FCC5
:1045E000AFF2EC52D2214FF48270FEF7E7FD95F85E
:1045F00025001AF0E1FCAFF2EC52D2214FF4967094
:10460000EEE60F981AF0A0FCAFF21C6286214FF480
:104610008270FEF709FE687B1AF0CEFCAFF22062D2
:1046200086214FF49670EBE60F26012A03D0022A6A
:10463000BCD141B386E011B1012910D082E01398BA
:104640001AF082FCAFF24862D2214FF49670FEF766
:10465000B5FDA87B1AF0B0FCAFF250220FE016981F
:104660001AF072FCAFF25C62D2214FF49670FEF742
:10467000A5FD95F826001AF09FFCAFF26422D22126
:104680004FF4AA70ACE613981AF05EFCAFF2906299
:1046900086214FF49670FEF7C7FDA87B1AF08CFCBC
:1046A000AFF2982286214FF4AA70A9E61026012ABB
:1046B00003D0022ABCD141B344E011B1012910D08A
:1046C00040E017981AF040FCAFF2C022D2214FF41C
:1046D000AA70FEF773FDA87B1AF06EFCAFF2C02241
:1046E0000FE01A981AF030FCAFF2D422D2214FF426
:1046F000AA70FEF763FD95F827001AF05DFCAFF293
:10470000D422D2214FF4BE706AE617981AF01CFC2E
:10471000AFF2083286214FF4AA70FEF785FDE87BE0
:104720001AF04AFCAFF2083286214FF4BE7067E6F9
:104730000926012A03D0022ABCD151B302E029B1D3
:10474000012913D0E6721FB0BDE8F08F1B981AF054
:10475000FBFBAFF23432D2214FF4BE70FEF72EFDD8
:10476000287A1AF029FCAFF600420FE01E981AF0E2
:10477000EBFBAFF24832D2214FF4BE70FEF71EFDC4
:1047800095F820001AF018FCAFF61842D2216420E8
:1047900026E61B981AF0D8FBAFF27C3286214FF444
:1047A000BE70FEF741FD287A1AF006FCAFF64842CB
:1047B0008621642024E64FF01208012A03D0022A41
:1047C000C1D189B136E118461AF0BEFBAFF664429A
:1047D00031466420FEF7F2FC687C1AF0EDFBAFF680
:1047E000484231468C2028E018461AF0ADFBAFF65F
:1047F000844239466420FEF717FD687C1AF0DCFB22
:10480000AFF66C4239468C202AE04FF01308012A9B
:1048100003D0022A97D199B10CE104981AF094FBC5
:10482000AFF68C4231468C20FEF7C8FCA87C1AF00B
:10483000C3FBAFF6A0023146B420FEF7BFFCF9E09F
:1048400004981AF081FBAFF6B04239468C20FEF78F
:10485000EBFCA87C1AF0B0FBAFF6C8023946B420D6
:10486000FEF7E2FCE6E04FF01408012A03D0022A2A
:10487000A6D189B1DEE008981AF066FBAFF6EC022B
:104880003146B420FEF79AFCE87C1AF095FBAFF6AF
:10489000E4023146DC20D0E708981AF055FBAFF669
:1048A0000C123946B420FEF7BFFCE87C1AF084FBFA
:1048B000AFF608123946DC20D2E74FF01508012A7E
:1048C00003D0022AA6D191B1B4E00C981AF03CFBB7
:1048D000AFF628123146DC20FEF770FC287D1AF076
:1048E0006BFBAFF6F00231464FF48270A5E70C98EF
:1048F0001AF02AFBAFF64C123946DC20FEF794FC86
:10490000287D1AF059FBAFF6141239464FF4827025
:10491000A6E74FF01608012A03D0022AA8D199B1C0
:1049200088E010981AF010FBAFF6381231464FF4B9
:104930008270FEF743FC687D1AF03EFBAFF63C1236
:1049400031464FF4967078E710981AF0FDFAAFF6FA
:104950005C1239464FF48270FEF766FC687D1AF0EF
:104960002BFBAFF6601239464FF4967078E74FF0A4
:104970001708012A03D0022AA4D199B15AE0149849
:104980001AF0E2FAAFF6841231464FF49670FEF751
:1049900015FCA87D1AF010FBAFF28C5231464FF493
:1049A000AA704AE714981AF0CFFAAFF6A81239465F
:1049B0004FF49670FEF738FCA87D1AF0FDFAAFF2BE
:1049C000B05239464FF4AA704AE74FF01808012A4E
:1049D00003D0022AA2D199B12CE018981AF0B4FAA7
:1049E000AFF2D45231464FF4AA70FEF7E7FBE87DF0
:1049F0001AF0E2FAAFF2D45231464FF4BE701CE71F
:104A000018981AF0A1FAAFF2F85239464FF4AA708A
:104A1000FEF70AFCE87D1AF0CFFAAFF2F8523946F9
:104A20004FF4BE701CE74FF01108012A05D0022A8E
:104A3000A2D1A1B184F80B8085E61C981AF084FA03
:104A4000AFF2206231464FF4BE70FEF7B7FB287C10
:104A50001AF0B2FAAFF6EC6231466420EDE61C982B
:104A60001AF072FAAFF2446239464FF4BE70FEF7A4
:104A7000DBFB287C1AF0A0FAAFF6107239466420EE
:104A8000EEE6022AD8D191B958461AF05DFAAFF68F
:104A900020724E4649466420FEF7C6FB687E1AF037
:104AA0008BFAAFF6087231468C20FEF7BDFB1A2058
:104AB0007DE1022AC0D191B905981AF045FAAFF606
:104AC00024724E4649468C20FEF7AEFBA87E1AF0B3
:104AD00073FAAFF63C323146B420FEF7A5FB1B203B
:104AE00065E1022AA8D191B909981AF02DFAAFF61A
:104AF00058324E464946B420FEF796FBE87E1AF03F
:104B00005BFAAFF654323146DC20FEF78DFB1C20F9
:104B10004DE1022A90D199B90D981AF015FAAFF625
:104B200070324E464946DC20FEF77EFB287F1AF0A5
:104B300043FAAFF6483231464FF48270FEF774FB09
:104B40001D2034E1022A9DD1A1B911981AF0FCF977
:104B5000AFF668324E4649464FF48270FEF764FB6A
:104B6000687F1AF029FAAFF6603231464FF496703A
:104B7000FEF75AFB1E201AE1022A9BD1A1B9159813
:104B80001AF0E2F9AFF680324E4649464FF496707D
:104B9000FEF74AFBA87F1AF00FFAAFF2887231468F
:104BA0004FF4AA70FEF740FB1F2000E1022A99D1C2
:104BB000A1B919981AF0C8F9AFF2A8724E46494641
:104BC0004FF4AA70FEF730FBE87F1AF0F5F9AFF268
:104BD000A87231464FF4BE70FEF726FB2020E6E0B7
:104BE000022A97D191B91D981AF0AEF9AFF2C872A6
:104BF0004E4649464FF4BE70FEF716FB287E1AF06B
:104C0000DBF9FE4A31466420FEF70EFB1920CEE0A8
:104C1000022A98D199B970461AF096F9F74A564681
:104C2000121D51466420FEF7FFFA95F821001AF094
:104C3000C3F9F24A314630328C20FEF7F5FA2220D1
:104C4000B5E0022A99D199B906981AF07DF9EB4A94
:104C50005646303251468C20FEF7E6FA95F822008F
:104C60001AF0AAF9AFF6CC423146B420FEF7DCFACE
:104C700023209CE0022A9AD199B90A981AF064F983
:104C8000AFF6E84256465146B420FEF7CDFA95F805
:104C900023001AF091F9AFF6E4423146DC20FEF72A
:104CA000C3FA242083E0022A9BD1A1B90E981AF0FE
:104CB0004BF9AFF6005256465146DC20FEF7B4FAE7
:104CC00095F824001AF078F9AFF6D44231464FF443
:104CD0008270FEF7A9FA252069E0022A99D1A9B9C4
:104CE00012981AF031F9AFF6F042564651464FF499
:104CF0008270FEF799FA95F825001AF05DF9AFF683
:104D0000F44231464FF49670FEF78EFA26204EE0BC
:104D1000022A97D1A9B916981AF016F9AFF61452CB
:104D2000564651464FF49670FEF77EFA95F82600E7
:104D30001AF042F9AFF6201231464FF4AA70FEF78E
:104D400073FA272033E0022A95D1A9B91A981AF0EC
:104D5000FBF8AFF63C12564651464FF4AA70FEF7E8
:104D600063FA95F827001AF027F9AFF6401231469A
:104D70004FF4BE70FEF758FA282018E0022A93D1AB
:104D8000A1B91E981AF0E0F8AFF6601256465146E7
:104D90004FF4BE70FEF748FA95F820001AF00CF9AF
:104DA000964A3146121D6420FEF73EFA2120E07239
:104DB000C9E4ACF12C0C40F23D164FF4FA77BCF18B
:104DC000070FF5D2DFE80CF00539840404C0F000C9
:104DD000B9E41AF0DBF895F82C00002895F83000BB
:104DE0001BD0F8B186A2962132200AF037FD1AF0C6
:104DF000F3F895F82A00002895F8300014D0C0B1D7
:104E00007FA296215A200AF029FD95F8300090B132
:104E10007CA001F005FA2D20C9E708B17DA2E2E7E8
:104E20007DA2E0E77EA2DEE708B17AA2E9E77AA2F6
:104E3000E7E77BA2E5E77CA0EBE71AF0A7F895F897
:104E40002A00002895F8300026D050B36CA2962195
:104E50005A200AF003FD774801460BF00DF91F2395
:104E600018227F2196200AF02BFE95F82B000528AA
:104E700019D004284FF000001FD00BF013F96EA2D8
:104E80009B217F200AF0EAFC95F83000F0B16BA07E
:104E900001F0C6F92E208AE708B15EA2D7E75EA22C
:104EA000D5E75FA2D3E700200BF0FCF869A29621BA
:104EB0007F20FEF7B9F968A2E2E70BF0F3F865A2EC
:104EC00096217F20FEF7B0F951A2D9E763A0DFE772
:104ED000882108460BF0D0F81F2318227F21962046
:104EE0000AF0EEFD95F82B00052818D0042851484B
:104EF0001FD00BF0D7F850A29B217F200AF0AEFC08
:104F00001AF06AF859A2962130460AF0A7FC302020
:104F1000E07295F83000A8B156A0FEF733BD4548C1
:104F20000BF0C0F84BA296217F20FEF77DF94AA234
:104F3000E2E70BF0B7F847A296217F20FEF774F95D
:104F400033A2D9E751A0E8E71AF020F895F82E002F
:104F500020B1012809D002280ED015E095F83000C4
:104F600008B14EA20CE04FA20AE095F8300008B15B
:104F70004EA205E04EA203E095F8300090B14EA29B
:104F8000394632200AF06AFC1AF026F895F82F000C
:104F900058B101280BD002280BD003280BD00428CD
:104FA0000BD00FE046A2EBE716E047A206E048A2CE
:104FB00004E049A202E04AA200E04BA23946572091
:104FC0000AF04CFC95F8300020B149A001F028F916
:104FD0003220ECE64BA0F9E719F0D8FF95F82F0046
:104FE00038B1012806D0022805D0032804D00428AF
:104FF0008EE08FE091E093E095E00000703B0008C8
:105000004F4E000042757A7A6572204F4E2F4F4600
:10501000460000004F464600B9D8B1D50000000058
:10502000B4F2BFAA00000000B7E4C3F9C6F7C9E8AC
:10503000D6C3000000FFFF004B00000053656C6505
:1050400063742074656D7065726174757265207526
:105050006E6974006F00000043000000CEC2B6C845
:10506000B5A5CEBBD1A1D4F1000000004155544FED
:1050700000000000496E7075742066696C65206ED2
:10508000616D65207072656669780000CEC4BCFEF3
:10509000C3FBB5C4C7B0D7BA0000000046415354A3
:1050A00000000000BFECCBD9000000004D454400DB
:1050B000D6D0CBD900000000534C4F570000000061
:1050C000C2FDCBD9000000003936303000000000AE
:1050D00031393230300000003338343030000000D5
:1050E0003537363030000000313135323030000095
:1050F00053656C65637420426175642072617465E8
:1051000000000000B2A8CCD8C2CAC9E8D6C30000CB
:105110000CD011E0AFF250020AE0AFF24C0207E00F
:10512000AFF24C0204E0AFF2480201E0AFF24802F5
:10513000394657200AF092FB19F04EFFF6A2394685
:1051400030460AF08BFB95F8300020B1F3A001F057
:1051500067F833202BE6F5A0F9E7F84DF84EF9484B
:1051600095ED212AD6ED214A807B96ED194AD6EDA0
:10517000113A96ED093AD6ED012AD5ED191A95EDB9
:10518000111AD5ED090A95ED010AACF1380CBCF104
:105190000F0FBFF451ACDFE80CF0093D71A7DDEF54
:1051A000EE08EDECEBEAE9E8E70045E440B1012860
:1051B0000CD0022812D0032818D004281ED027E0D3
:1051C00002201AF0F7FA95ED000A1EE0B0EE600A30
:1051D00002201AF0EFFA95ED080A16E0B0EE410A47
:1051E00002201AF0E7FA95ED100A0EE0B0EE610A1F
:1051F00002201AF0DFFA95ED180A06E0B0EE420A36
:1052000002201AF0D7FA95ED200A01201AF044FA8C
:105210003920CCE540B101280CD0022812D0032857
:1052200018D004281ED027E002201AF035FA95ED98
:10523000020A1EE0B0EE600A02201AF02DFA95ED87
:105240000A0A16E0B0EE410A02201AF025FA95ED9E
:10525000120A0EE0B0EE610A02201AF01DFA95ED76
:105260001A0A06E0B0EE420A02201AF015FA95ED8D
:10527000220A03201AF09EFA3A2098E540B101284C
:105280000ED0022814D003281AD0042820D029E0F8
:1052900095ED020A03201AF0FFF995ED030A1EE0CE
:1052A00095ED0A0A03201AF0F7F995ED0B0A16E0BE
:1052B00095ED120A03201AF0EFF995ED130A0EE0AE
:1052C00095ED1A0A03201AF0E7F995ED1B0A06E09E
:1052D00095ED220A03201AF0DFF995ED230A042048
:1052E0001AF068FA3B2062E540B101280ED002288E
:1052F00014D003281AD0042820D029E095ED030A01
:1053000004201AF0C9F995ED040A1EE095ED0B0A88
:1053100004201AF0C1F995ED0C0A16E095ED130A78
:1053200004201AF0B9F995ED140A0EE095ED1B0A68
:1053300004201AF0B1F995ED1C0A06E095ED230A58
:1053400004201AF0A9F995ED240A05201AF032FA82
:105350003C202CE588B1012817D002281DD0032855
:1053600023D0042829D032E0FCE1C5E18EE157E1E9
:1053700020E1E9E099E062E02BE095ED040A0520E8
:105380001AF08AF995ED050A1EE095ED0C0A052044
:105390001AF082F995ED0D0A16E095ED140A052034
:1053A0001AF07AF995ED150A0EE095ED1C0A052024
:1053B0001AF072F995ED1D0A06E095ED240A052014
:1053C0001AF06AF995ED250A06201AF0F3F93D2046
:1053D000EDE440B101280ED0022814D003281AD0E1
:1053E000042820D029E095ED050A06201AF054F98A
:1053F00095ED060A1EE095ED0D0A06201AF04CF90F
:1054000095ED0E0A16E095ED150A06201AF044F9FE
:1054100095ED160A0EE095ED1D0A06201AF03CF9EE
:1054200095ED1E0A06E095ED250A06201AF034F9DE
:1054300095ED260A07201AF0BDF93E20B7E440B1E9
:1054400001280ED0022814D003281AD0042820D016
:1054500029E095ED060A07201AF01EF995ED070AD6
:105460001EE095ED0E0A07201AF016F995ED0F0AC9
:1054700016E095ED160A07201AF00EF995ED170AB9
:105480000EE095ED1E0A07201AF006F995ED1F0AA9
:1054900006E095ED260A07201AF0FEF895ED270A9A
:1054A00008201AF087F93F2081E440B101280ED08E
:1054B000022814D003281AD0042820D029E0B0EE06
:1054C000620A02201AF036F896ED000A1EE0B0EEED
:1054D000430A02201AF02EF896ED080A16E0B0EE04
:1054E000630A02201AF026F896ED100A0EE0B0EEDC
:1054F000440A02201AF01EF896ED180A06E0B0EEF3
:10550000640A02201AF016F896ED200A012019F01C
:105510007BFF41204BE40000310000005265636FC7
:10552000726420696E74657276616C00BCC7C2BC1F
:10553000BCE4B8F4CAB1BCE400000000400C002098
:10554000A00B0020E800002040B101280ED0022866
:1055500014D003281AD0042820D029E0B0EE620A23
:10556000022019F051FF96ED020A1EE0B0EE430A48
:10557000022019F049FF96ED0A0A16E0B0EE630A20
:10558000022019F041FF96ED120A0EE0B0EE440A37
:10559000022019F039FF96ED1A0A06E0B0EE640A0F
:1055A000022019F031FF96ED220A032019F0C2FF04
:1055B000422031E440B101280ED0022814D0032843
:1055C0001AD0042820D029E096ED020A032019F011
:1055D0001BFF96ED030A1EE096ED0A0A032019F060
:1055E00013FF96ED0B0A16E096ED120A032019F050
:1055F0000BFF96ED130A0EE096ED1A0A032019F040
:1056000003FF96ED1B0A06E096ED220A032019F02F
:10561000FBFE96ED230A042019F08CFF43203AE4A8
:1056200040B101280ED0022814D003281AD0042833
:1056300020D029E096ED030A042019F0E5FE96ED4E
:10564000040A1EE096ED0B0A042019F0DDFE96ED2B
:105650000C0A16E096ED130A042019F0D5FE96ED1B
:10566000140A0EE096ED1B0A042019F0CDFE96ED0B
:105670001C0A06E096ED230A042019F0C5FE96EDFB
:10568000240A052019F056FF442004E440B1012803
:105690000ED0022814D003281AD0042820D029E0E4
:1056A00096ED040A052019F0AFFE96ED050A1EE0FE
:1056B00096ED0C0A052019F0A7FE96ED0D0A16E0EE
:1056C00096ED140A052019F09FFE96ED150A0EE0DE
:1056D00096ED1C0A052019F097FE96ED1D0A06E0CE
:1056E00096ED240A052019F08FFE96ED250A062076
:1056F00019F020FF45206CE440B101280ED00228AB
:1057000014D003281AD0042820D029E096ED050AE9
:10571000062019F079FE96ED060A1EE096ED0D0AB8
:10572000062019F071FE96ED0E0A16E096ED150AA8
:10573000062019F069FE96ED160A0EE096ED1D0A98
:10574000062019F061FE96ED1E0A06E096ED250A88
:10575000062019F059FE96ED260A072019F0EAFEF8
:10576000462036E440B101280ED0022814D0032888
:105770001AD0042820D029E096ED060A072019F057
:1057800043FE96ED070A1EE096ED0E0A072019F07B
:105790003BFE96ED0F0A16E096ED160A072019F06B
:1057A00033FE96ED170A0EE096ED1E0A072019F05B
:1057B0002BFE96ED1F0A06E096ED260A072019F04B
:1057C00023FE96ED270A082019F0B4FE4720C1E415
:1057D000F64EF748ACF1530C96ED212AC07BD6ED7E
:1057E000191A96ED111AD6ED090A96ED010ABCF1C7
:1057F000070F6DD2DFE80CF0043872A9DFF2F10078
:1058000040B101280CD0022812D0032818D0042857
:105810001ED027E0022019F08DFE96ED000A1EE052
:10582000B0EE600A022019F085FE96ED080A16E037
:10583000B0EE410A022019F07DFE96ED100A0EE04E
:10584000B0EE610A022019F075FE96ED180A06E026
:10585000B0EE420A022019F06DFE96ED200A0120FA
:1058600019F0D2FD542032E040B101280CD00228BA
:1058700012D0032818D004281ED027E0022019F0E7
:10588000C3FD96ED020A1EE0B0EE600A022019F098
:10589000BBFD96ED0A0A16E0B0EE410A022019F0AF
:1058A000B3FD96ED120A0EE0B0EE610A022019F087
:1058B000ABFD96ED1A0A06E0B0EE420A022019F09E
:1058C000A3FD96ED220A032019F034FE5520E07264
:1058D00095F83000C0B3B7A0FEF754B840B1012826
:1058E0000ED0022814D003281AD0042820D029E092
:1058F00096ED020A032019F087FD96ED030A1EE0DB
:1059000096ED0A0A032019F07FFD96ED0B0A16E0CA
:1059100096ED120A032019F077FD96ED130A0EE0BA
:1059200096ED1A0A032019F06FFD96ED1B0A06E0AA
:1059300096ED220A032019F067FD96ED230A042054
:1059400019F0F8FD5620C2E7D9E040B101280ED089
:10595000022814D003281AD0042820D029E096ED7C
:10596000030A042019F050FD96ED040A1EE096ED9E
:105970000B0A042019F048FD96ED0C0A16E096ED8E
:10598000130A042019F040FD96ED140A0EE096ED7E
:105990001B0A042019F038FD96ED1C0A06E096ED6E
:1059A000230A042019F030FD96ED240A052019F091
:1059B000C1FD57208BE740B1012810D0022816D036
:1059C00003281CD0042822D02BE096ED040A0520E1
:1059D00019F01AFD96ED050A20E05AE023E096ED55
:1059E0000C0A052019F010FD96ED0D0A16E096ED53
:1059F000140A052019F008FD96ED150A0EE096ED43
:105A00001C0A052019F000FD96ED1D0A06E096ED32
:105A1000240A052019F0F8FC96ED250A062019F055
:105A200089FD582053E740B101280ED0022814D038
:105A300003281AD0042820D029E096ED050A062074
:105A400019F0E2FC96ED060A1EE096ED0D0A06201E
:105A500019F0DAFC96ED0E0A16E096ED150A06200E
:105A600019F0D2FC96ED160A0EE096ED1D0A0620FE
:105A700019F0CAFC96ED1E0A06E096ED250A0620EE
:105A800019F0C2FC96ED260A072019F053FD5920A3
:105A90001DE740B101280ED0022814D003281AD0E7
:105AA000042820D029E096ED060A072019F0ACFC66
:105AB00096ED070A1EE096ED0E0A072019F0A4FCE9
:105AC00096ED0F0A16E096ED160A072019F09CFCD9
:105AD00096ED170A0EE096ED1E0A072019F094FCC9
