:020000040800F2
:1000000058320220C10100085F5401088925010807
:100010005D540108C51200080F49020800000000E5
:10002000000000000000000000000000099201082C
:10003000296700080000000041550108C19501082A
:10004000DB010008DB010008DB010008DB01000820
:10005000DB010008DB010008DB010008DB01000810
:10006000DB010008DB010008DB010008DB01000800
:10007000DB010008DB010008DB010008DB010008F0
:10008000DB010008DB010008DB010008DB010008E0
:10009000DB010008DB010008DB010008DB010008D0
:1000A000DB010008DB010008DB010008DB010008C0
:1000B000DB010008DB010008DB010008DB010008B0
:1000C000DB010008DB010008DB010008DB010008A0
:1000D000DB010008C5300208DB010008DB01000875
:1000E000DB010008DB010008DB010008DB01000880
:1000F000DB010008DB010008DB010008DB01000870
:10010000DB0100084D7A0108DB010008DB01000873
:10011000DB010008DB01000859960108DB0100083B
:10012000DB010008DB010008DB010008613B00087F
:10013000DB010008DB010008DB010008DB0100082F
:10014000DB010008DB010008DB01000805550108A0
:10015000DB010008DB010008DB010008DB0100080F
:10016000DB010008DB0100081D55010811550108DD
:10017000DB01000829550108DB010008DB0100084C
:10018000DB010008DB010008DB010008DB010008DF
:10019000DB010008DB010008DB010008DB010008CF
:1001A000DB010008DB010008DB010008DFF80CD0F0
:1001B00000F078FC00480047856C020858320220A5
:1001C0000648804706480047FEE7FEE7FEE7FEE7F1
:1001D000FEE7FEE7FEE7FEE7FEE7FEE7FD95010826
:1001E000AD0100082DE9F05F0546002092469B46D0
:1001F00088460646814640241BE02846414647463D
:10020000224600F0A8FA53465A46C01A914110D32C
:1002100011461846224600F08FFA2D1A67EB0108A6
:100220004F4622460120002100F086FA17EB000914
:100230004E41201EA4F10104DFDC484631462A4627
:100240004346BDE8F09FD2B201E000F8012B491E01
:10025000FBD270470022F6E710B513460A46044663
:100260001946FFF7F0FF204610BD421E12F8013F6D
:10027000002BFBD111F8013B02F8013B002BF9D117
:10028000704710B5044604E00B7800F8013B03B159
:10029000491C521EF8D2204610BD421C10F8011B0A
:1002A0000029FBD1801A704710B5002200E0521CD3
:1002B000835C8C5CA34201D1002BF8D1D8B2E1B2AF
:1002C000401A10BD034611F8012B00F8012B002A3B
:1002D000F9D11846704770B5064625F07DFA0468D6
:1002E00005460A220021304600F0A6FA2C6070BDB7
:1002F0002DE9FE4F804681EA0300C00F0C460090B6
:1003000021F0004123F00045B8EB0200A94105D2DD
:100310004046214690461C460B46024623F00040CC
:10032000104347D0270DC7F30A00C3F30A510290C8
:10033000401A019040286BDAC3F3130040F4801B8D
:100340000098924620B10023D2EB030A63EB0B0B1B
:1003500001985946C0F14002504600F0EDF90646BA
:100360000D4650465946019A00F005FA10EB080078
:100370006141002487EA115284EAE7731A4340D0AE
:10038000009A62B3019A012A4FEA075215DC001B5A
:1003900061EB02014FF0004202EA0752CDE9004250
:1003A000001C41F5801132462B4600F0C3FA03B021
:1003B000BDE8F08F40462146F9E7001B61EB0201E2
:1003C000001C41F5801300185B412018A2F50017AE
:1003D00047EB030140EAD570B6196D4111E06D0895
:1003E0004FEA360645EAC0754FEA0752001B61EB3B
:1003F0000201001C41F5801149084FEA3000001944
:10040000514132462B4603B0BDE8F04F00F083BAAD
:100410000098012240000023D0EB020263EBE0735E
:10042000009821464FEAE074B8EB000061EB04014C
:10043000E9E783F000435BE781F0004158E72DE9ED
:10044000FE4F81EA030404F0004421F000410094CF
:100450004FF0000B23F0004350EA01045ED052EA53
:1004600003045BD0C3F30A54C1F30A552C44A4F22D
:10047000F3340194A0FB0254C1F3130141F4801141
:10048000C3F3130343F4801301FB024400FB034E48
:10049000840A970A44EA815447EA8357A4FB076811
:1004A00002958D0A05FB07854FEA932C04FB0C543B
:1004B0002705029D4FEA065847EA1637B5EB0805AF
:1004C0006EEB070C870E920E47EA811742EA831201
:1004D000A7FB0201B6EB0B0164EB00042B0D43EA12
:1004E0000C335E1844EB1C50DA465146E7FB020120
:1004F000C5F313044FEA0B3343EA14534FEA0432B3
:10050000019C43EA0603A4F10C040294009CCDE98B
:1005100000B400F00FFA03B0BDE8F08F00200146F0
:10052000F9E72DE9F04D81EA030404F0004B21F0D6
:10053000004514464FF0000A23F0004150EA05023E
:1005400020D054EA01021DD0C5F30A570246C5F374
:100550001303C1F31300C1F30A5640F4801543F4AA
:100560008013A7EB0608101BD64608F2FD3873EB84
:10057000050002D308F1010801E092185B41B8F1CF
:10058000000F03DA00200146BDE8F08D00204FF493
:100590008011064684460EE0171B73EB050705D352
:1005A000121B63EB050306434CEA010C49084FEAB2
:1005B000300092185B4150EA0107EDD152EA030086
:1005C00012D082EA040083EA0501084305D0101B1B
:1005D000AB4106D20122002306E000224FF0004387
:1005E00002E06FF0010253101AEB06004CEB0851C9
:1005F00010EB0A0041EB0B01BDE8F04D00F08BB9A8
:100600000EB540F2334102910021CDE900110A46B6
:100610000B4600F08FF903B000BDC1F30A5210B5CC
:10062000C1F3130140F2FF3341F480119A4201DA21
:10063000002010BD40F233439A42A2F2334203DC61
:10064000524200F088F810BD904010BD00F000420A
:1006500030F000400AD0C10D01F56071C0F3160002
:1006600042EA0151C2084007114370470020014689
:100670007047000030B5041E71F1000404DB4FF038
:100680000044404264EB0101141E73F1000405DBD9
:100690001C464FF00043524263EB04038B4208BFF9
:1006A000824230BD30B5041E71F1000404DB4FF00E
:1006B0000044404264EB0101141E73F1000405DBA9
:1006C0001C464FF00043524263EB0403994208BFBB
:1006D000904230BD01F0004330B421F0004150EAB7
:1006E000010206D00A0DA2F56072C1F31301002ABF
:1006F00002DC30BC00207047440F44EAC104C10052
:10070000E01830BC00EBC25000F0CEB830B50B465C
:10071000014600202022012409E021FA02F59D4231
:1007200005D303FA02F5491B04FA02F52844151E05
:10073000A2F10102F1DC30BD202A04DB203A00FAEC
:1007400002F1002070479140C2F1200320FA03F328
:10075000194390407047202A04DB203A21FA02F026
:100760000021704721FA02F3D040C2F120029140EB
:10077000084319467047202A06DBCB17203A41FA76
:1007800002F043EAE07306E041FA02F3D040C2F11E
:100790002002914008431946704700000FB400231F
:1007A00000B589B00CA900910B996FF00042CB60A5
:1007B0001E4B06931E4B07930423CDE901321D4ABD
:1007C000089202466B46002000F020FA09B05DF85E
:1007D00014FB70B586B006464FF0FF300091CDE9AE
:1007E0000101002015460C4604903246694604A8D3
:1007F000FFF7D4FF02460498211825B108B1084636
:1008000000E020462860049800280DD0002A02DD70
:100810000098884208D0081B0094CDE901043246B4
:10082000694604A8FFF7BAFF06B070BD450E000880
:10083000630E0008D10A00082DE9F04791460F46E3
:1008400080460446002614F8015B2DB100F03CF907
:100850000068405DC007F6D12B2D02D02D2D18D099
:10086000641E4A463946204600F00CFB27B1396821
:10087000A14201D1C7F8008071054FF002040BD5E9
:100880004042002803DD24F0A7FF0460A007BDE874
:10089000F08746F48066E4E70028F8DA24F09CFF4D
:1008A00004606FF00040F2E70029A8BF7047401CC9
:1008B000490008BF20F00100704710B4B0FA80FC76
:1008C00000FA0CF050EA010404BF10BC704749B1B3
:1008D000CCF1200421FA04F411FA0CF118BF012123
:1008E00021430843A3EB0C01CB1D4FEA00614FEA03
:1008F000102042BF002010BC704700EBC3501044D2
:100900000029A4BF10BC7047401C490008BF20F05C
:10091000010010BC704710B5141E73F1000408DA12
:10092000401C41F1000192185B411A4301D120F0B3
:10093000010010BD2DE9F04D92469B4611B1B1FA70
:1009400081F202E0B0FA80F220329046FFF7F4FE26
:1009500004460F4640EA0A0041EA0B0153465A4654
:10096000084313D0114653EA010019D0C8F14002E0
:100970005046FFF7F0FE05460E46504659464246A1
:10098000FFF7DAFE084305D0012004E0204639468F
:10099000BDE8F08D0020054346EAE0762C4337435E
:1009A0000A986305E40AA0EB08000022FD0A44EA65
:1009B00047540A3002D500200146E9E70105101925
:1009C0006941DDE9084500196941BDE8F04DA2E73C
:1009D0002DE9F04D00231A461B1A8A4103DB002043
:1009E0000146BDE8F08DC1F30A52C1F3130141F491
:1009F00080154FF0000BD10702D100186D41521E37
:100A00000027044640F2FF11384601EB620A3E46D9
:100A10008046024600204FF48011FFF79CFEC21969
:100A20007141BB1846EB0100B4EB030C75EB000CF5
:100A300004D3E41A65EB000517460E46241908F1A5
:100A400001006D4180463428E3DDF91946EB0600CC
:100A5000091BA84103D24FF0FF32134601E00022E8
:100A600013461BEB070046EB0A51BDE8F04DFFF7BC
:100A700052BFC1F30A52C1F3130140F2FF3341F4F4
:100A800080119A4202DA00200146704740F2334357
:100A90009A42A2F2334202DC5242FFF75CBEFFF7F9
:100AA0004BBE0000064C074D06E0E06840F0010335
:100AB00094E8070098471034AC42F6D3FFF77AFB6E
:100AC000446004086460040800487047CC5F040870
:100AD00010B50446FFF7F8FF0068005D00F0010064
:100AE00010BD00002DE9FF4F087883B09946FF281C
:100AF00005D0491C2D2804D00024002008E0002047
:100B00000BE00124F9E700EB800003EB4000491CF7
:100B10000B78FF2BF7D104B14042002302931478E5
:100B200019461D462D2C01D02B2C04D1521C2D2CE6
:100B300013D000240294AA461478FF2C0FD00A2563
:100B4000A3FB057801FB05814FF0000C03FB0C11A2
:100B5000521CE3194AEB0101EEE70124EAE7814464
:100B600053EA010002D019F5C87F06DA0398002184
:100B7000C0E9001107B0BDE8F08F0025AE4E2F464A
:100B8000DFF8B882184600F0DAF9CDE90001B9F1D2
:100B9000000002DAC9F1000400E004460023A74A7D
:100BA0001AEB030B42EB045A12E0E00707D02A4687
:100BB000334638464146FFF742FC074688462A46F8
:100BC000334610461946FFF73AFC05460E466410B8
:100BD000002CEAD1DDE90001B9F1000F5A46534675
:100BE00006DAFFF79EFC3A464346FFF79AFC05E01B
:100BF000FFF725FC3A464346FFF721FC029A0AB16B
:100C000081F00041039AC2E90001B3E72DE9FF4FEB
:100C10001F468DB0D7E901464FF0FF382E204546DC
:100C20004FF000090B90B9696D1C0E988847396A1E
:100C3000824688470028F6D1BAF1FF3F0AD024F453
:100C4000D064002E11DDBAF12B0F08D0BAF12D0FB0
:100C50000BD102E0404611B08DE744F48064B969DD
:100C60006D1C0E9888478246761E6946600501D540
:100C70002D2000E02B208DF8000001F1010B0DF17B
:100C8000200809E0B9696D1C0E98884782460F98C4
:100C900044F40074761E0560002E02DDBAF1300FB8
:100CA000F0D00B998A453ED144F0800406E00F99BC
:100CB000681CA9F1010944F400740860B9696D1C4D
:100CC000761E0E98884782463028F0D02BE00B998C
:100CD0008A4505D1200603D444F08004761E18E02E
:100CE000504624F0B5FE08B30DF11301761E44F40E
:100CF00000748B4508D2AAF130000BF8010B2006D6
:100D000007D5A9F1010003E0200602D409F1010092
:100D10008146A00502D50F99681C0860B9696D1C51
:100D20000E9888478246002ED1DC53E0002E51DD1C
:100D3000BAF1650F02D0BAF1450F4BD1A00549D5E4
:100D4000B9696D1C24F44074761E0E98884782465B
:100D5000002E0CDD2B2804D0BAF12D0F07D144F45E
:100D60008074B9696D1C0E9888478246761EE0052E
:100D700001D52D2100E02B2108F8011BCDF82C8096
:100D800021E00DF12901761E44F4007488450CD24F
:100D9000AAF1300010F0FF0088F8000002D10B9992
:100DA000884509D908F1010806E0E00501D5244885
:100DB00001E042F20F708146B9696D1C0E988847B8
:100DC00082460F980560002E04DD504624F040FE58
:100DD0000028D6D1F9690E988847FF208BF80000CB
:100DE00088F800000020069007904B466A4608A944
:100DF00006A8FFF777FEA00502D46FF001002AE7EE
:100E000014F0240F0AD0E00714D1DDE90612386887
:100E1000031D3B600068C0E900120BE0DDE906013C
:100E2000FFF758FC0146E00704D13868021D3A601C
:100E30000068016028460EE7000014400000F03F03
:100E4000F1D8FFFF426842B1016811F8013B23B1BC
:100E5000521EC0E90012184670470121C160881E69
:100E6000704742685AB1C368016843B983688B42CE
:100E700005D0491E521CC0E90012002070474FF0F7
:100E8000FF3070472DE9F05F824600780027154655
:100E90008B460AF10104B946302801D09DB113E018
:100EA00014F8010B0127782803D0582801D045B148
:100EB0000AE00DB1102D07D10027102514F8010B01
:100EC00002E0082500E00A250026B0460EE005FBFA
:100ED000080005FB06F1012701EB10461FFA80F818
:100EE000B6F5803F00D3B94614F8010B294600F04F
:100EF00018F80028EBDABBF1000F05D00FB1641E23
:100F000000E05446CBF80040B9F1000F06D024F0C1
:100F100063FC02210160C81EBDE8F09F48EA06405C
:100F2000FAE73A2800D2303820F02002412A01D3D3
:100F3000A2F13700884201D34FF0FF3070470EB561
:100F400040F2334202920022CDE900221346FFF71D
:100F5000F1FC03B000BD70B58C1810F8015B15F002
:100F6000070301D110F8013B2A1106D110F8012B1B
:100F700003E010F8016B01F8016B5B1EF9D12B0740
:100F800005D40023521E0DD401F8013BFAE710F8F6
:100F9000013BCB1A921C03E013F8015B01F8015BE3
:100FA000521EF9D5A142D8D3002070BD154810B506
:100FB000C17AF1B1022920D0082905D0092920D110
:100FC000BDE8104026F01ABE017B007C0F4A01EB01
:100FD000C0005338C0B29FED0C0A02EB80005239BA
:100FE00080ED000AC8B226F06FF8BDE8104018F096
:100FF0000DB9BDE8104028F0AFBABDE8104018F0B8
:101000007DBE10BD3802002000000000F0FF00206F
:101010000029816802D041F0010101E021F00101C5
:1010200081607047084B10B5D3F8042307490A4084
:10103000D0E900142143D0E9024004432143114385
:10104000C3F8041310BD000000200140E030FCFF95
:101050000029816802D041F4807101E021F480719F
:10106000816070470029816802D041F4007101E07D
:1010700021F400718160704730B542680F4B0C79E4
:101080001A400B6842EA04221343436082680C4B07
:101090004D791A40D1E9034323438C6844EA45045F
:1010A000234313438360C26A097D22F47002491E00
:1010B000C9B242EA0151C16230BD0000FFFEFFFC2F
:1010C000FDF7FFC070B5072409290AD9C568A1F149
:1010D0000A0606EB4606B440A543B3401D43C5606F
:1010E00007E0056901EB4106B440A543B3401D4349
:1010F00005611F23072A09D2446B521E02EB8202AC
:1011000093409C4391400C43446370BD0D2A09D227
:10111000046BD21F02EB820293409C4391400C432C
:10112000046370BDC46A0D3A02EB820293409C4393
:1011300091400C43C46270BD816841F08041816080
:1011400070470000F0B532489FED300ADFED310AFC
:1011500080ED010AA0F20C720023C0ED020A1946CC
:101160002D4FA0F1A00492F833600AE012F801C0FC
:10117000BCF1000F03D154F821C0BC450CDB491C65
:10118000C9B28E42F2D8012D06D080ED000A80ED62
:10119000010A80ED020AF0BD0021204D2BE000BFC6
:1011A00012F801C0BCF1000F23D104EB810CDCED7F
:1011B000000A10EE90CABC451BDA05EB810C5B1CE3
:1011C0009CED001ADBB270EEC10A90ED011A30EE10
:1011D000800AF4EEC10AF1EE10FA01DDC0ED010A59
:1011E00090ED021AF4EEC10AF1EE10FA01D2C0ED50
:1011F000020A491CC9B28E42D2D800EE903AF8EEEB
:10120000600A80EE201A80ED001AF0BD0000000098
:101210001C0A012000E0F94400E0F944F0FF00203E
:101220000A48C17A0D290BD2DFE801F00A0A0A0A3E
:10123000070D0D0D0D0A0A0A0B00007B332802D0A2
:1012400070470348007825F0C1B80000380200203C
:101250003000002000210D4A0846135C012B00D10C
:101260000121401CC0B22828F7D30948012908D120
:101270000649503991F82A10012902D10549097807
:1012800011B1002118F01ABB0121FBE76003012016
:1012900000040140430200201CB54FF48070009010
:1012A00001208DF8040000218DF806108DF807004C
:1012B0008DF805106946024811F0FAF81CBD0000CF
:1012C00000000240FEE7000010B5074C0121204657
:1012D00018F0F4FA4FF6FF7005F08AFA2046BDE8E0
:1012E0001040002118F0EABA0004014010B504468D
:1012F00039202AF023FCE0B22AF044FCC4F3072092
:101300002AF040FCC4F307402AF03CFC200E2AF0EF
:1013100039FC2AF003FCBDE8104024F0E3B870B5B6
:10132000064614460D463C202AF008FCE8B22AF096
:1013300029FC280A2AF026FC2AF0F0FB0CB1002038
:1013400011E024F0CFF81E280FD1304600F035F917
:1013500005463D202AF0F2FB2AF0E0FB2E44002C4B
:10136000EFD0208828442080EBE770BD10B514F042
:101370000FF908B100F069F8BDE81040302000F026
:10138000B2B8312000F0AFB80146362000F09EB868
:1013900010B508B100F0C6F8BDE81040342000F0E8
:1013A000A2B870B5054600F0A7F804000DD00146BC
:1013B000284600F021F8412807D0142803D04228FD
:1013C00000D1B32070BD432070BD2819BDE8704026
:1013D000FFF7DEBF10B5044600F0A4F820785C28C3
:1013E00001D02F2803D10021642000F0FCF8BDE8D3
:1013F0001040322000F077B870B5054600200E4648
:10140000012401E0641CE4B2295D5C2913D02F297A
:1014100011D00029F6D100242844FFF7DBFF002C6F
:1014200008D0B44206D041280AD0142806D0422859
:1014300000D1B32070BD641CE4B2EDE7432070BD61
:101440002046E1E7FF21FFF7D7BF10B522202AF0A1
:1014500075FB322005F0CCF92AF066FB04462AF031
:101460005DFB204610BD2DE9F0412AF05DFB0646EC
:101470002AF05AFB05462AF057FB04462AF054FB93
:1014800007462AF04BFB46EA052040EA044040EAC2
:101490000760BDE8F08110B504460C202AF04EFB31
:1014A00020462AF06FFBBDE81040FFF7DCBF10B507
:1014B00004460A202AF042FB20462AF063FB2AF069
:1014C00033FB04462AF02AFB204610BD10B50C461B
:1014D0002AF034FB20462AF055FB2AF01FFBBDE81A
:1014E000104023F0FFBF10B52AF028FB2AF016FBAE
:1014F000BDE8104023F0F6BF014600E0491C0A7821
:10150000002AFBD106E000BF11F8012D5C2A03D0B0
:101510002F2A01D08142F7D1814200D0491C081AFC
:10152000C0B2704770B5054601202AF007FB2AF0CB
:10153000FBFA432828D22B20FFF7B9FF102823D22B
:101540002F202AF0FBFA00202AF01CFB3220FFF7A4
:10155000CAFF142818D1CF20FFF7A9FF040013D029
:101560004C20FFF798FF00EB04214C2000F03BF8E3
:101570005020FFF790FF00EB0421502000F033F8DB
:101580000021702000F02FF82F202AF0D7FA2C78B5
:1015900006E000BF15F8014F5C2C0AD02F2C08D0B4
:1015A00020462AF0EFFA002CF4D1BDE870402AF072
:1015B000B5BA00202AF0E6FAF7E770B505462D2007
:1015C0002AF0BCFA2AF0B0FA0400264607D02878A0
:1015D0002AF0D8FA641E6D1C14F0FF04F7D12AF02B
:1015E0009DFA304670BD70B505460C460D202AF0B8
:1015F000A5FA28462AF0C6FAE0B22AF0C3FAC4F3E4
:1016000007202AF0BFFAC4F307402AF0BBFA200EE5
:101610002AF0B8FABDE870402AF080BA2DE9F0410E
:1016200088B00121812013F0BFFF0121080313F0CE
:10163000F7FFDFF8C88005221146404610F089FF09
:1016400005220621404610F084FF0522072140466E
:1016500010F07FFF02258DF805508DF8045000240E
:1016600020278DF8064000978DF8074069464046D0
:1016700010F01EFF402000906946404610F018FF11
:10168000802000906946404610F012FF102001268D
:1016900000908DF804608DF806406946404610F0D1
:1016A00007FF8DF8044000978DF8076069461448DD
:1016B00010F0FEFEADF808404FF48270ADF80A005D
:1016C000ADF810602802ADF812003820ADF8140013
:1016D000ADF80C40ADF8164007200A4CADF81800E4
:1016E000ADF80E5002A9204617F0FFFC012120465C
:1016F00017F0F6FA08B0BDE8F081000000000240E3
:10170000001C024000300140F0B5FF231A460024BF
:1017100018E0055D6A40002502F0010613F0010F94
:101720004FEA53034FEA520201D042F080021EB149
:1017300083F0A00382F001026D1CEDB2082DEBD303
:10174000641CE4B28C42E4D342EA0320F0BD000002
:101750002DE9F047F748F84FF84C00784FF48275C0
:101760004FF4AA764FF470484FF4A57940B10128A0
:1017700074D0022873D0032872D0042871D03CE3BF
:101780002078012801D028B10FE0882012F088FAD3
:10179000384603E0882012F083FA404612F09CFAA3
:1017A000E7A20A21642011F093FE6078012801D09D
:1017B00028B10FE0882012F073FA384603E0882041
:1017C00012F06EFA404612F087FADEA20A21B42027
:1017D00011F07EFEA078012801D028B10FE088200A
:1017E00012F05EFA384603E0882012F059FA4046BB
:1017F00012F072FAD4A20A21284611F069FEE078AC
:10180000012801D028B10FE0882012F049FA3846AB
:1018100003E0882012F044FA404612F05DFACBA2B1
:101820000A21304611F054FE2079012801D028B158
:101830000FE0882012F034FA384603E0882012F0D6
:101840002FFA404612F048FAC1A24946642011F02E
:101850003FFE6079012805D048B113E039E0D7E0B8
:10186000ABE149E2882012F01BFA384603E08820F9
:1018700012F016FA404612F02FFAB6A24946B420EA
:1018800011F026FEA079012801D028B10FE08820B0
:1018900012F006FA384603E0882012F001FA4046BA
:1018A00012F01AFAACA24946284611F011FEE0796E
:1018B000012801D028B1A0E2882012F0F1F93846C1
:1018C00003E0882012F0ECF9404612F005FAA3A2DA
:1018D0008FE2207A01284FF0880079D012F0E0F9E9
:1018E0004FEA080012F0F8F99DA20A21642011F0D5
:1018F000EFFD607A01284FF088006DD012F0D0F92A
:101900004FEA080012F0E8F996A20A21B42011F07B
:10191000DFFDA07A01284FF0880061D012F0C0F9F5
:101920004FEA080012F0D8F98FA20A21284611F0D8
:10193000CFFDE07A01284FF0880055D012F0B0F9C1
:101940004FEA080012F0C8F988A20A21304611F0C7
:10195000BFFD207B01284FF0880049D012F0A0F98C
:101960004FEA080012F0B8F981A24946642011F04C
:10197000AFFD607B01284FF088003DD012F090F958
:101980004FEA080012F0A8F97AA24946B42011F0F3
:101990009FFDA07B01284FF0880031D012F080F924
:1019A0004FEA080012F098F973A24946284611F050
:1019B0008FFDE07B01284FF0880025D012F070F9F0
:1019C0004FEA080012F088F96CA212E200E003E08E
:1019D00012F066F9384685E712F062F9384691E769
:1019E00012F05EF938469DE712F05AF93846A9E739
:1019F00012F056F93846B5E712F052F93846C1E709
:101A000012F04EF93846CDE712F04AF93846D9E7D8
:101A1000207C01284FF0880078D012F041F9404630
:101A200012F05AF956A20A21642011F051FD607C8F
:101A300001284FF088006DD012F032F94FEA08000B
:101A400012F04AF94FA20A21B42011F041FDA07C06
:101A500001284FF0880061D012F022F94FEA080007
:101A600012F03AF948A20A21284611F031FDE07C33
:101A700001284FF0880055D012F012F94FEA080003
:101A800012F02AF941A20A21304611F021FD207DF1
:101A900001284FF0880049D012F002F94FEA0800FF
:101AA00012F01AF93AA24946642011F011FD607D46
:101AB00001284FF0880074D012F0F2F84FEA0800C5
:101AC00012F00AF933A24946B42011F001FDA07DBD
:101AD00001284FF0880068D012F0E2F84FEA0800C1
:101AE00012F0FAF82CA24946284611F0F1FCE07DEC
:101AF00001284FF088005CD012F0D2F84FEA0800BD
:101B000012F0EAF825A274E100E003E012F0C8F850
:101B1000384685E712F0C4F8384691E712F0C0F86D
:101B200038469DE712F0BCF83846A9E712F0B8F83D
:101B30003846B5E7450200209355170010030120F1
:101B4000303031003030320030303300303034004B
:101B5000303035003030360030303700303038002B
:101B60003030390030313000303131003031320026
:101B7000303133003031340030313500303136000F
:101B800030313700303138003031390030323000F8
:101B900030323100303232003032330030323400F3
:101BA000FFE712F07DF838468AE712F079F83846F8
:101BB00096E712F075F83846A2E7207E01284FF02C
:101BC000880079D012F06CF84FEA080012F084F81F
:101BD000A5A20A21642011F07BFC607E01284FF051
:101BE00088006DD012F05CF84FEA080012F074F82B
:101BF0009EA20A21B42011F06BFCA07E01284FF0B8
:101C0000880061D012F04CF84FEA080012F064F836
:101C100097A20A21284611F05BFCE07E01284FF0D4
:101C2000880055D012F03CF84FEA080012F054F842
:101C300090A20A21304611F04BFC207F01284FF082
:101C4000880049D012F02CF84FEA080012F044F84E
:101C500089A24946642011F03BFC607F01284FF0C7
:101C600088003DD012F01CF84FEA080012F034F85A
:101C700082A24946B42011F02BFCA07F01284FF02E
:101C8000880031D012F00CF84FEA080012F024F866
:101C90007BA24946284611F01BFCE07F01284FF04B
:101CA000880025D011F0FCFF4FEA080012F014F86C
:101CB00074A29EE000E003E011F0F2FF384685E7F1
:101CC00011F0EEFF384691E711F0EAFF38469DE744
:101CD00011F0E6FF3846A9E711F0E2FF3846B5E714
:101CE00011F0DEFF3846C1E711F0DAFF3846CDE7E4
:101CF00011F0D6FF3846D9E794F8200001284FF0BC
:101D000088007DD011F0CCFF4FEA080011F0E4FF0D
:101D10005DA20A21642011F0DBFB94F82100012868
:101D20004FF088006DD011F0BBFF404611F0D4FF9A
:101D300056A20A21B42011F0CBFB94F8220001280E
:101D40004FF0880075D011F0ABFF404611F0C4FF92
:101D50004FA20A21284611F0BBFB94F8230001286A
:101D60004FF0880069D011F09BFF404611F0B4FF9E
:101D700048A20A21304611F0ABFB94F82400012858
:101D80004FF088005DD011F08BFF404611F0A4FFAA
:101D900041A24946642011F09BFB94F825000128DC
:101DA0004FF0880051D011F07BFF404611F094FFB6
:101DB0003AA24946B42011F08BFB94F82600012882
:101DC0004FF0880045D011F06BFF404611F084FFC2
:101DD00033A24946284611F07BFB94F827000128DE
:101DE0004FF0880039D011F05BFF404611F074FFCE
:101DF0002CA24946304611F06BFB01202A4901E034
:101E00000EE012E0C870FFF75FFA94F8300040B3BC
:101E100026A000BF05F00AFABDE8F04717F0F6B9B2
:101E200011F03EFF384671E703E011F039FF384604
:101E30007CE711F035FF384688E711F031FF38466E
:101E400094E711F02DFF3846A0E711F029FF38463E
:101E5000ACE711F025FF3846B8E711F021FF38460E
:101E6000C4E715A0D6E70000303235003032360026
:101E70003032370030323800303239003033300001
:101E800030333100303332003033330030333400FC
:101E900030333500303336003033370030333800DC
:101EA0003033390030343000C00100204368616EA7
:101EB0006E656C2073657400CDA8B5C0C9E8D6C343
:101EC000000000002DE9F05FF948DFF8E8A3FA4CC4
:101ED00000784FF482754FF496764FF4AA784FF459
:101EE000BE794FF4704B10B101286ED049E32078D1
:101EF000012801D028B10FE0882011F0D1FE504612
:101F000003E0882011F0CCFE584611F0E5FEEBA26C
:101F10000A21642001F0B0FB6078012801D028B1CB
:101F20000FE0882011F0BCFE504603E0882011F03D
:101F3000B7FE584611F0D0FEE1A20A218C2001F034
:101F40009BFBA078012801D028B10FE0882011F078
:101F5000A7FE504603E0882011F0A2FE584611F07B
:101F6000BBFED8A20A21B42001F086FBE07801284C
:101F700001D028B10FE0882011F092FE504603E016
:101F8000882011F08DFE584611F0A6FECEA20A213F
:101F9000DC2001F071FB2079012801D028B10FE08D
:101FA000882011F07DFE504603E0882011F078FE75
:101FB000584611F091FEC5A20A21284601F05CFBAB
:101FC0006079012802D030B110E0C6E1882011F01C
:101FD00067FE504603E0882011F062FE584611F07B
:101FE0007BFEBBA20A21304601F046FBA079012806
:101FF00001D028B10FE0882011F052FE504603E0D6
:10200000882011F04DFE584611F066FEB1A20A215B
:10201000404601F031FBE079012801D028B10FE002
:10202000882011F03DFE504603E0882011F038FE74
:10203000584611F051FEA8A20A21484601F01CFBA7
:1020400094F83300082872D9207A012801D028B1E9
:102050000FE0882011F024FE504603E0882011F0A4
:102060001FFE584611F038FE9CA2D221642001F0D8
:1020700003FB607A012801D028B10FE0882011F01D
:102080000FFE504603E0882011F00AFE584611F07A
:1020900023FE93A2D2218C2001F0EEFAA07A01282F
:1020A00001D028B10FE0882011F0FAFD504603E07E
:1020B000882011F0F5FD584611F00EFE89A2D221BC
:1020C000B42001F0D9FAE07A012801D028B10FE05C
:1020D000882011F0E5FD504603E0882011F0E0FD76
:1020E000584611F0F9FD80A2D221DC2001F0C4FA9B
:1020F000207B012801D028B10FE0882011F0D0FD0D
:10210000504603E0882011F0CBFD584611F0E4FD65
:1021100076A2D221284601F0AFFA607B012801D0D7
:1021200030B110E0882011F0BBFD504604E034E0EF
:10213000882011F0B5FD584611F0CEFD6CA2D221D9
:10214000304601F099FAA07B012801D028B10FE0B8
:10215000882011F0A5FD504603E0882011F0A0FD75
:10216000584611F0B9FD63A2D221404601F084FA2D
:10217000E07B012801D028B10FE0882011F090FD0C
:10218000504603E0882011F08BFD584611F0A4FD65
:1021900059A2D221484601F06FFA94F83300102872
:1021A0006FD9207C4FF4CD77012801D028B10FE002
:1021B000882011F075FD504603E0882011F070FD75
:1021C000584611F089FD4DA23946642001F054FAB9
:1021D000607C012801D028B10FE0882011F060FD5B
:1021E000504603E0882011F05BFD584611F074FD65
:1021F00043A239468C2001F03FFAA07C012801D08F
:1022000028B10FE0882011F04BFD504603E08820F4
:1022100011F046FD584611F05FFD3AA23946B42050
:1022200001F02AFAE07C012801D028B10FE08820D3
:1022300011F036FD504603E0882011F031FD58467C
:1022400011F04AFD30A23946DC2001F015FA207D5C
:10225000012801D028B10FE0882011F021FD50465F
:1022600003E0882011F01CFD584611F035FD27A22F
:102270003946284601F000FA607D012802D030B1CD
:1022800010E07EE1882011F00BFD504603E088202D
:1022900011F006FD584611F01FFD1DA239463046CB
:1022A00001F0EAF9A07D012834D000B142E036E027
:1022B00045020020935517001003012030303100F3
:1022C00030303200303033003030340030303500C0
:1022D00030303600303037003030380030303900A0
:1022E00030313000303131003031320030313300A4
:1022F0003031340030313500303136003031370084
:102300003031380030313900303230003032310075
:1023100030323200882011F0C3FC504603E08820A0
:1023200011F0BEFC584611F0D7FCC1A23946404618
:1023300001F0A2F9E07D012801D028B121E1882037
:1023400011F0AEFC504603E0882011F0A9FC58467D
:1023500011F0C2FCB7A2394610E1207E01284FF0EF
:1023600088007DD011F09CFC4FEA0B0011F0B4FC0A
:10237000B1A20A21642001F07FF9607E01284FF0AC
:1023800088006ED011F08CFC4FEA0B0011F0A4FC19
:10239000AAA20A218C2001F06FF9A07E01284FF03B
:1023A00088007DD011F07CFC4FEA0B0011F094FC0A
:1023B000A3A20A21B42001F05FF9E07E01284FF0CA
:1023C00088006ED011F06CFC4FEA0B0011F084FC19
:1023D0009CA20A21DC2001F04FF9207F01284FF058
:1023E00088007CD011F05CFC4FEA0B0011F074FC0B
:1023F00095A20A21284601F03FF9607F01284FF09D
:1024000088006DD011F04CFC4FEA0B0011F064FC19
:102410008EA20A21304601F02FF9A07F01284FF04B
:1024200088007DD011F03CFC4FEA0B0011F054FC09
:1024300087A20A21404601F01FF9E07F01284FF0F2
:1024400088006ED011F02CFC4FEA0B0011F044FC18
:1024500080A20A21484601F00FF994F8200001E01B
:102460009EE0A3E001284FF088007DD011F018FC19
:102470004FEA0B0011F030FC77A2D221642001F06A
:10248000FBF894F8210001284FF088006DD011F07E
:1024900007FC584611F020FCD22170A28C2001E0EC
:1024A00088E08BE001F0E8F894F8220001284FF072
:1024B000880079D011F0F4FB4FEA0B0011F00CFC0E
:1024C00067A2D221B42001F0D7F894F823000128A4
:1024D0004FF0880069D011F0E3FB584601E071E04D
:1024E00074E011F0F9FB5FA2D221DC2001F0C4F806
:1024F00094F8240001284FF088006FD011F0D0FB31
:102500004FEA0B0011F0E8FB57A2D221284601F058
:10251000B3F894F8250001284FF0880079D001E045
:1025200058E05CE011F0BCFB4FEA0B0011F0D4FB6B
:102530004EA2D221304601F09FF894F826000128DF
:102540004FF0880069D011F0ABFB584611F0C4FB86
:1025500047A2D221404601F08FF894F827000128C5
:102560004FF088005DD001E03DE040E011F098FBC5
:102570004FEA0B0011F0B0FB3EA2D221484601F019
:102580007BF83D490120C870FEF79EFE94F83000AC
:1025900088B33AA004F04AFEBDE8F05F16F036BEFC
:1025A00011F07EFB5046E1E627E02AE011F078FBCF
:1025B0005046EBE611F074FB5046F7E611F070FB65
:1025C000504603E711F06CFB50460FE711F068FB33
:1025D00050461BE711F064FB504627E715E011F069
:1025E0005FFB504632E711F05BFB504642E711F0CB
:1025F00057FB50464EE718E00BE011F051FB5046F8
:102600005CE711F04DFB504668E711F049FB50467E
:1026100078E711F045FB504688E711F041FB504642
:1026200094E711F03DFB5046A4E717A0B2E7000085
:102630003032330030323400303235003032360040
:102640003032370030323800303239003033300029
:102650003033310030333200303333003033340024
:102660003033350030333600303337003033380004
:102670003033390030343000C00100204368616ECF
:102680006E656C2073657400CDA8B5C0C9E8D6C36B
:10269000000000002DE9F05FF84CDFF8E4A34FF4F0
:1026A000704B2078012801D028B10FE0882011F06C
:1026B000F7FA504603E0882011F0F2FA584611F07C
:1026C0000BFBF0A20A21642001F00CF860780128CD
:1026D00001D028B10FE0882011F0E2FA504603E063
:1026E000882011F0DDFA584611F0F6FAE6A20A2128
:1026F0008C2000F0F7FFA078012801D028B10FE06E
:10270000882011F0CDFA504603E0882011F0C8FA75
:10271000584611F0E1FADDA20A21B42000F0E2FFF0
:10272000E078012801D028B10FE0882011F0B8FA34
:10273000504603E0882011F0B3FA584611F0CCFA65
:10274000D3A20A21DC2000F0CDFF20794FF482755E
:10275000012801D028B10FE0882011F0A1FA5046DD
:1027600003E0882011F09CFA584611F0B5FAC9A28E
:102770000A21284600F0B6FF60794FF496760128CA
:1027800001D028B10FE0882011F08AFA504603E00A
:10279000882011F085FA584611F09EFABEA20A214F
:1027A000304600F09FFFA0794FF4AA79012801D0AC
:1027B00028B10FE0882011F073FA504603E088201A
:1027C00011F06EFA584611F087FAB4A20A21484671
:1027D00000F088FFE0794FF4BE78012801D028B1DD
:1027E0000FE0882011F05CFA504603E0882011F0D9
:1027F00057FA584611F070FAA9A20A21404600F093
:1028000071FF94F83300082872D9207A012801D08A
:1028100028B10FE0882011F043FA504603E08820E9
:1028200011F03EFA584611F057FA9EA28621642014
:1028300000F058FF607A012801D028B10FE088200D
:1028400011F02EFA504603E0882011F029FA58467C
:1028500011F042FA94A286218C2000F043FFA07A66
:10286000012801D028B10FE0882011F019FA504654
:1028700003E0882011F014FA584611F02DFA8BA2CB
:102880008621B42000F02EFFE07A012801D028B183
:102890000FE0882011F004FA504603E0882011F080
:1028A000FFF9584611F018FA81A28621DC2000F0C9
:1028B00019FF207B012801D028B10FE0882011F0FA
:1028C000EFF9504603E0882011F0EAF9584611F07C
:1028D00003FA78A28621284600F004FF607B0128D5
:1028E00001D030B110E0882011F0DAF9504604E050
:1028F00034E0882011F0D4F9584611F0EDF96EA2B9
:102900008621304600F0EEFEA07B012801D028B1E0
:102910000FE0882011F0C4F9504603E0882011F040
:10292000BFF9584611F0D8F964A28621484600F054
:10293000D9FEE07B012801D028B10FE0882011F0FA
:10294000AFF9504603E0882011F0AAF9584611F07B
:10295000C3F95BA28621404600F0C4FE94F8330020
:1029600010286FD9207C4FF48177012801D028B13D
:102970000FE0882011F094F9504603E0882011F010
:102980008FF9584611F0A8F94EA23946642000F09C
:10299000A9FE607C012801D028B10FE0882011F049
:1029A0007FF9504603E0882011F07AF9584611F07B
:1029B00093F945A239468C2000F094FEA07C0128B2
:1029C00001D028B10FE0882011F06AF9504603E0E9
:1029D000882011F065F9584611F07EF93BA239467E
:1029E000B42000F07FFEE07C012801D028B10FE088
:1029F000882011F055F9504603E0882011F050F975
:102A0000584611F069F932A23946DC2000F06AFE1E
:102A1000207D012801D028B10FE0882011F040F975
:102A2000504603E0882011F03BF9584611F054F964
:102A300028A23946284600F055FE607D012802D0C4
:102A400030B110E0C6E1882011F02AF9504603E0C9
:102A5000882011F025F9584611F03EF91EA239469A
:102A6000304600F03FFEA07D012801D028B140E0B3
:102A7000882011F015F9504634E02FE010030120B2
:102A80009355170030303100303032003030330091
:102A900030303400303035003030360030303700E0
:102AA00030303800303039003031300030313100D2
:102AB00030313200303133003031340030313500C4
:102AC00030313600303137003031380030313900A4
:102AD000303230003032310030323200882011F094
:102AE000DFF8584611F0F8F8C3A23946484600F01E
:102AF000F9FDE07D012801D028B10FE0882011F018
:102B0000CFF8504603E0882011F0CAF8584611F07B
:102B1000E3F8BAA23946404600F0E4FD207E4FF4C7
:102B2000BF77012801D028B10FE0882011F0B8F854
:102B3000504603E0882011F0B3F8584611F0CCF865
:102B4000AFA23946642000F0CDFD607E012801D09F
:102B500028B10FE0882011F0A3F8504603E0882048
:102B600011F09EF8584611F0B7F8A6A239468C200D
:102B700000F0B8FDA07E012801D028B10FE0882028
:102B800011F08EF8504603E0882011F089F858467D
:102B900011F0A2F89CA23946B42000F0A3FDE07E1B
:102BA000012801D028B10FE0882011F079F85046B3
:102BB00003E0882011F074F8584611F08DF893A2C4
:102BC0003946DC2000F08EFD207F012801D028B19D
:102BD0000FE0882011F064F8504603E0882011F0DF
:102BE0005FF8584611F078F889A23946284600F077
:102BF00079FD607F012801D028B10FE0882011F015
:102C00004FF8504603E0882011F04AF8584611F07A
:102C100063F880A23946304600F064FDA07F0128A9
:102C200001D028B10FE0882011F03AF8504603E0B7
:102C3000882011F035F8584611F04EF876A2394642
:102C4000484600F04FFDE07F012801D028B10FE099
:102C5000882011F025F8504603E0882011F020F874
:102C6000584611F039F86DA23946404600F03AFD59
:102C700094F820004FF4FD77012801D028B10FE02F
:102C8000882011F00DF8504603E0882011F008F874
:102C9000584611F021F862A23946642000F022FD66
:102CA00094F82100012801D028B10FE0882010F00D
:102CB000F7FF504603E0882010F0F2FF584611F06D
:102CC0000BF858A239468C2000F00CFD94F8220035
:102CD000012801D028B10FE0882010F0E1FF504614
:102CE00003E0882010F0DCFF584610F0F5FF4EA2FC
:102CF0003946B42000F0F6FC94F82300012801D0F6
:102D000028B10FE0882010F0CBFF504603E0882068
:102D100010F0C6FF584610F0DFFF44A23946DC2011
:102D200000F0E0FC94F82400012801D028B10FE065
:102D3000882010F0B5FF504603E0882010F0B0FF67
:102D4000584610F0C9FF3AA23946284600F0CAFC9E
:102D500094F82500012801D028B10FE0882010F058
:102D60009FFF504603E0882010F09AFF584610F06D
:102D7000B3FF30A23946304600F0B4FC94F8260088
:102D8000012801D028B10FE0882010F089FF5046BB
:102D900003E0882010F084FF584610F09DFF26A223
:102DA0003946484600F09EFC94F82700012801D0DF
:102DB00028B10FE0882010F073FF504603E0882010
:102DC00010F06EFF584610F087FF1CA239464046AF
:102DD00000F088FC1A490120C870FEF775FA94F8D3
:102DE000300038B117A000BF04F020FABDE8F05F52
:102DF00016F00CBA16A0F7E7303233003032340048
:102E00003032350030323600303237003032380060
:102E1000303239003033300030333100303332005B
:102E20003033330030333400303335003033360044
:102E3000303337003033380030333900303430002D
:102E4000C00100204368616E6E656C20736574007C
:102E5000CDA8B5C0C9E8D6C30000000070B50446CF
:102E60001A481D4D00EB840010ED010A184800EBD4
:102E7000840050ED010A174800EB840030EE600A30
:102E800050ED010AB4EEE00AF1EE10FA09D313484E
:102E900000EB840050ED010AB4EEE00AF1EE10FA06
:102EA00005DD0D48503890F82C00012807D0882106
:102EB0006FF07F4010F0FAFE0020285570BD882189
:102EC0004FF47F0010F0F2FE0120F6E77C090120AC
:102ED000F0FF0020E80300206003012048030020E9
:102EE00070B5374905460024086810F0450FFBD03F
:102EF000410702D50324042003E0C00704D00124C5
:102F0000204614F03DFD59E014F076FDA8422BD187
:102F100040F2FF5014F034FD002014F08FFD2949D9
:102F200008424BD0002801DA1C2070BD410001D5B9
:102F3000092070BD810001D50A2070BDC10001D5F6
:102F40000B2070BD010101D50C2070BD410101D5E0
:102F50000D2070BDC10101D50E2070BD010201D54B
:102F60000F2070BD410201D5102070BD810201D536
:102F7000112070BDC10201D5122070BD010301D521
:102F8000132070BD410301D5142070BD810301D50C
:102F9000152070BDC10301D5162070BD010401D5F7
:102FA000172070BD410401D5182070BD810401D5E2
:102FB000192070BD000701D51A2070BD204670BDD4
:102FC000342C014008E0FFFD10B50B4800240168D7
:102FD00011F0450FFBD0480702D50324042003E07D
:102FE000C80705D00124204614F0CAFC204610BDB5
:102FF00040F2FF50F8E70000342C014070B50C4659
:10300000194906460025086810F0450FFBD0410716
:1030100002D50324042003E0C00705D00124204684
:1030200014F0AEFC204670BD14F0E6FCB04212D1A4
:1030300040F2FF5014F0A4FC002014F0FFFC10F448
:10304000604F03D0810404D5132070BD000C208094
:1030500007E0410401D5102070BD000401D50F2008
:1030600070BD284670BD0000342C014010B50A46E2
:103070000C0601F07F0303EB830100EBC10102D5D5
:1030800001F58E7101E001F55D71D2090B704A7096
:1030900021F02DFA002010BD0A4610B5090602F0F5
:1030A0007F0306D503EB830100EBC10101F58E71AF
:1030B00005E002EB820100EBC10101F55D71002426
:1030C0008C700B70D2094A7021F0F8F9002010BD05
:1030D00010B50A0604D501F07F0121F023FB01E0C1
:1030E00021F004FB002010BD70B50C460E0601F067
:1030F0007F0505EB850100EBC10102D501F58E715D
:1031000001E001F55D71E4090D704C708A60CB70CF
:1031100000D0CD80022B01D100220A7121F09AF952
:10312000002070BD10B501F07F0404EB840100EBBA
:10313000C101C1F88833C1F880230023C1F88C3362
:1031400081F8753381F87443C37801F55D71012B03
:1031500000D10A6114F0FF0F03D021F007FA00201C
:1031600010BD21F009F9FAE70069002261F30A12A3
:1031700001681143016070470A4610B5090602F064
:103180007F0306D503EB830100EBC10101F58E71CE
:1031900005E002EB820100EBC10101F55D71012444
:1031A0008C700B70D2094A7021F0C8F9002010BD54
:1031B00070B511F07F0404EB840100EBC1014FF006
:1031C000010581F81D5181F81C41C1F82821C1F881
:1031D0002C2101F58E714FF00002C1E9053203D0B8
:1031E00021F0C4F9002070BD21F0C6F8FAE7000014
:1031F0002DE9F0410646002521F0DBFA074655E0AF
:10320000F80751D03069EAB20369416BD14006EB4F
:10321000820201F00101926943EAC11194680C40F5
:10322000E1071AD00124426B04FA05F18A43426394
:1032300006EB8500806984601F48E9B20068426837
:1032400030469047F078012807D135B996F811013A
:10325000042802D1304621F0EBF8200704D506EB14
:103260008500082480698460E00604D506EB8500AB
:10327000102480698460600604D506EB8500402434
:1032800080698460A00704D506EB8500022480696C
:103290008460200608D52946304600F06DF906EB1B
:1032A00085018020896988607F086D1C002FA7D167
:1032B0000120BDE8F0810000700000202DE9F04100
:1032C0000646002421F07BFA0746DFF8988043E0A9
:1032D000F8073FD0E1B2304621F077FA0546C00743
:1032E00025D006EB84000125416D8D60F178012920
:1032F0000CD1406D016904EB840006EBC000C1F302
:103300001201D0F87C23511AC0F88C13D8F80000B1
:10331000E1B2026830469047F078012807D134B90D
:1033200096F81101052802D1304621F081F8A8074E
:1033300004D506EB84000225406D8560280709D579
:10334000D8F8000081683046884706EB84010820E1
:10335000496D88607F08641C002FB9D10120BDE849
:10336000F08100007000002070B50646C0688169D9
:1033700021F010018161F068056A05F00F0000EB93
:10338000800006EBC004C5F3434004F55D740728D4
:1033900021D2DFE800F0202004202020150047F68D
:1033A000F070054217D0C5F30A152A463046E16889
:1033B00021F013FAE0682844E060A069284409E09D
:1033C000082206F2CC51304621F007FAA069C5F375
:1033D0000A110844A061F068816941F0100181611F
:1033E000012070BD38B5044600208DF8000094F827
:1033F00012018DF800001548006841692046884791
:1034000020698068E2684FF400615161A17AD1B10E
:10341000C00718D094F81501012814D19DF80000B8
:10342000032810D1D4F80C01016841F001010160BA
:10343000D4F80C01016841F00301016004480168FF
:1034400041F006010160012038BD0000700000203D
:1034500010ED00E070B504460069002501264168C2
:1034600021F0010141602946204621F05BF900204E
:10347000FF2106E004EB800293699960526D916030
:10348000401C62788242F5D821694FF0FF30886194
:103490002846216966F30F0066F31F40C861216961
:1034A00045F00B0048612169C1F88400216945F0AD
:1034B0000B000861216948642069016821F4FE61FC
:1034C0000160204620F0B4FFE1684FF4805048616D
:1034D00003480068016920468847012070BD00004C
:1034E0007000002070B5044621F088F90122002305
:1034F00084F8122184F814311946402511E000BFE8
:1035000001EB810004EBC00080F81D2180F81C1144
:10351000A0F8221180F81F31C0E94953491CC0F8B6
:10352000303160788842EBD8002110E001EB810057
:1035300004EBC00282F8753382F87413A2F87A1390
:1035400082F87733C2E9DF53491CC2F888336078C8
:103550008842EBD8204620F0E9FE204620F0C6FD48
:103560000021204621F0AAF9204620F0FFFD204648
:10357000BDE8704021F0B2B82DE9F0470E4605468F
:1035800001EB860005EBC004D4E94C01421AD4F8E3
:10359000240104F58E74904200D20246D21C970892
:1035A00005EB860923E000BFA0EB0108A1684145B7
:1035B00000D2884608F1030087081FFA88F3F2B2A8
:1035C0002846E16821F08FF9E16801EB0800E0602E
:1035D000A16901EB0800A0616169884207D32178E5
:1035E0000120884029694A6B82434A630BE0D9F87D
:1035F0001800806980B2B84205D9D4E9050181423A
:1036000001D20028D0D10120BDE8F0872DE9F0419A
:10361000154680460C46154E4FF4207719E0802A57
:103620000BD21348B061214640460FF0E1FEB0696D
:103630006D1C8088204484B20BE00E48B0612A469D
:103640002146404600F0DEF8B069AD1C8088204479
:1036500084B2BC4208D22A78002A05D0B06980889A
:10366000011989B28142DAD2BDE8F0811802002046
:10367000E8020020280300202DE9F041154680468D
:103680000C46154E4FF4207719E0802A0BD21348D0
:10369000B061214640460FF0ABFEB0696D1C8088DA
:1036A000204484B20BE00E48B0612A4621464046D1
:1036B0000FF0B4FEB069AD1C8088204484B2BC42D7
:1036C00008D22A78002A05D0B0698088011989B209
:1036D0008142DAD2BDE8F08118020020E002002029
:1036E000180300202DE9F041154680460C46154E82
:1036F0004FF4207719E0802A0BD21348B06121469D
:1037000040460FF075FEB0696D1C8088204484B27D
:103710000BE00E48B0612A462146404600F018F8FA
:10372000B069AD1C8088204484B2BC4208D22A789B
:10373000002A05D0B0698088011989B28142DAD2A5
:10374000BDE8F08118020020D002002030030020E4
:103750002DE9F04116460F46804600240D4D0FE03E
:10376000327882420AD105EB410270785178884262
:1037700004D139464046921C0FF024FF641CA4B2C9
:1037800004EB440000EB041115F811008028E7D881
:10379000BDE8F081A72D03082DE9F04115468046CC
:1037A0000C46154E4FF4207719E0802A0BD21348AF
:1037B000B061214640460FF01BFEB0696D1C808849
:1037C000204484B20BE00E48B0612A4621464046B0
:1037D00000F018F8B069AD1C8088204484B2BC4267
:1037E00008D22A78002A05D0B0698088011989B2E8
:1037F0008142DAD2BDE8F0811802002000030020E7
:10380000200300202DE9F04116460F468046002493
:103810000C4D0EE03278824209D14A197078517805
:10382000884204D139464046921C0FF0CBFE641CFE
:10383000A4B204EB8400C0EB8411685C8028E9D852
:10384000BDE8F081621003082DE9F041154680467D
:103850000C46154E4FF4207719E0802A0BD21348FE
:10386000B061214640460FF0C3FDB0696D1C8088F1
:10387000204484B20BE00E48B0612A4621464046FF
:10388000FFF7C0FFB069AD1C8088204484B2BC4201
:1038900008D22A78002A05D0B0698088011989B237
:1038A0008142DAD2BDE8F08118020020080300202E
:1038B000200300202DE9F041204E15460C4680469D
:1038C0006BB3012B38D18821084610F0EFF928237B
:1038D0009022414620460FF007FFBDE8F0418821C5
:1038E0006FF07F4010F0E2B9802A0BD21448B0612B
:1038F000214640460FF07CFDB0696D1C8088204455
:1039000084B20EE00F48B0612A46214640460FF0CF
:1039100085FDB069AD1C8088204484B201E04FF47D
:103920002077BC4208D22A78002A05D0B069808866
:10393000011989B28142D7D2BDE8F0811802002076
:10394000F0020020180300202DE9F041204E15461A
:103950000C4680466BB3012B38D18821084610F005
:10396000A5F91C236022414620460FF0BDFEBDE8AC
:10397000F04188216FF07F4010F098B9802A0BD277
:103980001448B061214640460FF032FDB0696D1C0D
:103990008088204484B20EE00F48B0612A46214658
:1039A00040460FF03BFDB069AD1C8088204484B2D6
:1039B00001E04FF42077BC4208D22A78002A05D0D3
:1039C000B0698088011989B28142D7D2BDE8F081FF
:1039D00018020020F8020020180300202DE9F04111
:1039E000204E15460C4680466BB3012B38D18821FA
:1039F000084610F05BF914233222414620460FF0AE
:103A000073FEBDE8F04188216FF07F4010F04EB9A1
:103A1000802A0BD21448B061214640460FF0E8FCE2
:103A2000B0696D1C8088204484B20EE00F48B061FC
:103A30002A46214640460FF0F1FCB069AD1C808853
:103A4000204484B201E04FF42077BC4208D22A78A7
:103A5000002A05D0B0698088011989B28142D7D285
:103A6000BDE8F08118020020D802002018030020D1
:103A700010B50121CC05204611F0A2FD2046BDE87D
:103A80001040002111F09CBD034A014600205268FD
:103A90000A4200D00120704700B0024030B52A49E8
:103AA00000240A68294B1A400A600A6803681A430E
:103AB0000A604A6B22F007024A634A6B43681A4362
:103AC0004A63426842B3012A2DD0022A30D0032A29
:103AD000C26832D013010269446912022403856866
:103AE00022431D4315438A6B15438D638269CA6364
:103AF0000A6C6FF30D020A640A6CC3691A430A6404
:103B0000828C4B6C03F040434B644B6C006A034364
:103B100043EA02434B6430BDC268047D1302028A4B
:103B200012042406DBE7C2681302028A1204D6E7F5
:103B3000C26853010269D202D1E7530102694469A4
:103B40009202E403CBE7000000B00240FCE0FCFF7F
:103B50000248016841F001010160704700B0024075
:103B600014F040BE074A904201D2074801E00548E0
:103B70001038064A8B0001EA020101D5C160704786
:103B80008160704710640240006002407D0F7D0F2D
:103B90000029016802D041F0010101E021F001019A
:103BA000016070472DE9F043016821F001010160D7
:103BB0000021016041608160C1600161212141619A
:103BC0003C493C4A3D251039904202D18D60BDE808
:103BD000F083384A4FF474661832904201D18E60F7
:103BE000F5E7344A4FF474173032904201D18F60B8
:103BF000EDE7304A4FF0746C4832904202D1C1F880
:103C000008C0E4E72B4B2C4A6033984201D1CA60CC
:103C1000DDE7284C294B7834A04201D1CB60D6E7B0
:103C2000DFF89080264C08F19008404501D1CC6027
:103C3000CDE7DFF880804FF03D5908F1A8084045F6
:103C400002D1C1F80C90C2E71E49DFF8788008392C
:103C5000404501D10D60BAE71A4D1835A84201D18F
:103C60000E60B4E7174D3035A84201D10F60AEE7C2
:103C7000144D4835A84202D1C1F800C0A7E7114D44
:103C800010496035091FA84201D10A609FE70D4A1B
:103C90007832904201D10B6099E70A4A9032904203
:103CA00001D10C6093E7074AA83290428FD1C1F846
:103CB00000908CE7106002403D000020400F002083
:103CC00000003D20106402400029016802D041F04C
:103CD000200101E021F02001016070470B0607D5AB
:103CE000436912B143F0800301E023F08003436194
:103CF000802908D0002A026801F01E0101D00A4381
:103D000000E08A430260704730B50368124ACC680D
:103D100013400A682243D1E905452C432243CC696C
:103D200022430C6A22434C6A22438C6A22434C6B26
:103D300022438C6B22431A430260426922F007033C
:103D4000D1E90B2422431A4342610A6942604A685E
:103D500082608968C16030BD3F801CF00548C07A30
:103D6000052803D0062801D0082802D102A022F09D
:103D7000F1BC7047380200202E0000002DE9F04F02
:103D8000F84DF94C2946E87A91F80CC0A5B00D28F9
:103D90002ED2DFE810F030004F132D002D00E50B80
:103DA000E00D8D142D00B2112D002D002D000D0001
:103DB00094F83300082802D0102802D004E0102024
:103DC00000E0082084F8330015F020FA6FF07F40FF
:103DD0000FF082FF88200FF063FF94F83320E3A1F7
:103DE00001A821F0E5FC01AAAA2132200FF03AFB3C
:103DF00025B0BDE8F08FDB484FF4CD764FF48177E6
:103E0000417BD9484FF4BF794FF4FD7A90F82D20CB
:103E100090F827301893C37F1793C37D1693C37B05
:103E2000159390F826301393837F2193837D12930B
:103E3000837B239390F825301493437F1193437D24
:103E40001093437B0F9390F824301D93037F1C93B2
:103E5000037D1B93037B1A9390F823302493C37E36
:103E60002293C37C2093C37A1F9390F822300E9341
:103E7000837E0D93837C1E93837A199390F821306F
:103E80000C93437E0B93437C0A93437A099390F8F7
:103E900020E090F818B0037C007ABCF1290FA7D27B
:103EA000DFE81CF02900C60049013502BA024F03C1
:103EB0002204B30449055C069A06D906160755077D
:103EC0009707D9071F0861088B08B908E3080F098D
:103ED0003D096B099909C509DD09F5090D0A260A8D
:103EE000400A5A0A740A8D0AA60ABF0AD80AF20AB8
:103EF0000D0B280B430B9F480FF0EEFE88200FF0B0
:103F0000CFFE94F82900022812D0012812D00328ED
:103F100012D0042812D0052812D0062812D0072863
:103F200012D0082812D0092812D00B2812D016E07F
:103F300091A210E092A20EE093A20CE094A20AE0FB
:103F400095A208E096A206E097A204E098A202E0FB
:103F500099A200E09AA264212F200FF083FA94F82E
:103F60002D0020B1012836D0022850D04BE0687BCC
:103F700040B101280BD002280ED0032811D004280C
:103F800014D01CE0207822F085FB8FA213E0207A69
:103F900022F080FB8DA20EE0207C22F07BFB8CA225
:103FA00009E0207E22F076FB8AA204E094F820004B
:103FB00022F070FB88A20A2164200FF089FA94F89D
:103FC000300030B185A000BF03F030F9012001F0CE
:103FD000C5BA85A0F8E7687B10B1012805D020E0BC
:103FE000207822F057FB78A203E0207E22F052FBDB
:103FF00078A20A216420FFF73FFB12E07AA000E0DC
:1040000076A003F013F9012005F08EF9F0E6687B45
:1040100038B9207822F03EFB6BA20A216420FFF71A
:1040200061FB0120287394F830000028E8D1E5E70F
:104030004D4F02263F7832B1012A4FD0022AE2D1F9
:1040400000296AD087E241B101290BD002290DD0A5
:10405000032910D0042913D0F4E7384622F0E2FAFD
:1040600059A211E022F0DEFA58A20DE0184622F023
:10407000D9FA57A208E0584622F0D4FA55A203E034
:10408000704622F0CFFA54A20A2164200FF020FAE1
:10409000687B40B101280BD002280ED0032811D034
:1040A000042814D0CEE7607822F0F4FA51A213E08D
:1040B000607A22F0EFFA50A20EE0607C22F0EAFA79
:1040C0004EA209E0607E22F0E5FA4DA204E094F8E9
:1040D000210022F0DFFA4BA20A2194E211B101295A
:1040E0000DD0AFE7384622F09DFA37A20A216420AE
:1040F000FFF7C2FA607822F0CDFA3EA20BE05846F4
:1041000022F090FA33A20A216420FFF7B5FA607E0C
:1041100022F0C0FA3AA20A21F8E3384622F082FAE5
:1041200029A20A216420FFF7DDFA607822F0B2FAB2
:1041300030A20A21EBE30C480326407832B1012A71
:1041400073D0022A7FF412AF51B17BE749B1012944
:104150005FD0022963D003296AD004296ED071E7A9
:10416000C3E051E038020020100301202530336401
:104170000000000000FFFF0054432D4B0000000032
:1041800054432D540000000054432D4A0000000009
:1041900054432D4E0000000054432D450000000004
:1041A00054432D530000000054432D5200000000E2
:1041B00054432D42000000005054313030000000C4
:1041C000317E35560000000030303100303039008B
:1041D0003031370030323500303333004368616EA0
:1041E0006E656C2073657400CDA8B5C0C9E8D6C3F0
:1041F0000000000030303200303130003031380003
:10420000303236003033340022F00CFAAFF21C02A8
:1042100019E0099822F006FAAFF2240213E00A9896
:1042200022F000FAAFF22C020DE03AE000E005E0E7
:104230000B9822F0F7F9AFF2380204E00C9822F064
:10424000F1F9AFF240020A21B4200FF041F9687B86
:1042500040B101280BD002280ED0032811D0042829
:1042600014D0EFE6A07822F015FAF8A213E0A07AB5
:1042700022F010FAF6A20EE0A07C22F00BFAF5A2D2
:1042800009E0A07E22F006FAF3A204E094F82200EE
:1042900022F000FAF1A20A2183E200BF0FF018F920
:1042A000D0E611B101290DD0CCE622F0BBF9AFF276
:1042B000BC020A218C20FFF7DFF9A07822F0EAF98E
:1042C000E2A20CE00B9822F0ADF9AFF2CC020A2189
:1042D0008C20FFF7D1F9A07E22F0DCF9DEA20A21C2
:1042E000F1E300BFFFF7C8F9ACE622F09BF9AFF2AB
:1042F000FC020A218C20FFF7F5F9A07822F0CAF918
:10430000D2A20A21F8E300BFFFF7ECF99AE6D448FD
:104310000426807832B1012A53D0022A7FF426AED7
:1043200089B38FE641B101290AD002290DD00329B2
:1043300010D0042913D085E622F074F9C3A212E04C
:10434000199822F06FF9C2A20DE01E9822F06AF9C6
:10435000C0A208E00D9822F065F9BFA203E00E9814
:1043600022F060F9BDA20A214FF482700FF0B0F87C
:10437000687B48B101280CD002280FD0032812D046
:10438000042815D05EE63AE0E07822F083F9B5A281
:1043900013E0E07A22F07EF9B3A20EE0E07C22F096
:1043A00079F9B2A209E0E07E22F074F9B0A204E04B
:1043B00094F8230022F06EF9AEA20A214FF4AA70FD
:1043C0006CE711B101290CD03CE622F02BF99FA239
:1043D0000A21B420FFF750F9E07822F05BF9A1A29E
:1043E0000BE00D9822F01EF99BA20A21B420FFF7E2
:1043F00043F9E07E22F04EF99DA20A21F3E322F078
:1044000011F992A20A21B420FFF76CF9E07822F0AA
:1044100041F994A20A21E7E39148C07832B1012A18
:1044200059D0022A7FF4F2ADF1B375E041B1012910
:104430000AD002290DD0032910D0042913D01BE083
:1044400022F0F0F887A212E01F9822F0EBF886A283
:104450000DE0209822F0E6F884A208E0229822F0ED
:10446000E1F883A203E0249822F0DCF881A20A217B
:104470004FF4AA700FF02CF800200FF02DFC7E48AE
:104480000FF00EFC94F8290002286FD001286ED09E
:1044900003286DD004286CD005286BD006286AD07C
:1044A000072869D0082800E03AE06FD009286ED0CC
:1044B0000B286DD003E064212F200EF0D3FF94F879
:1044C000300008B16DA000E071A002F0AFFE07F06F
:1044D000E3FB0020A7E211B101290CD01CE022F07F
:1044E000A1F860A20A21DC20FFF7C6F8207922F0AB
:1044F000D1F86BA20BE0229822F094F85CA20A217A
:10450000DC20FFF7B9F8207F22F0C4F865A20A2169
:104510004FF48270FFF7B0F8012004F005FF6AE263
:1045200022F080F84FA20A21DC20FFF7DBF8207987
:1045300022F0B0F85AA20A214FF48270FFF7D2F8A5
:10454000EAE747480626007932B1012A5DD0022AFF
:104550007FF40CADD9B308E379B1012911D0022958
:1045600017D003291AD004291DD0FEE268E26AE2BE
:104570006CE26EE270E272E274E222F053F848A25A
:1045800015E01A9822F04EF847A210E06DE26FE2B3
:1045900071E21B9822F046F844A208E01C9822F031
:1045A00041F840A203E01D9822F03CF840A24FF4ED
:1045B000A57164200EF08CFF687B48B101280CD0F7
:1045C00002280FD0032812D0042815D0CDE27BE0BA
:1045D000607922F05FF837A213E0607B22F05AF88E
:1045E00035A20EE0607D22F055F834A209E0607F2C
:1045F00022F050F832A204E094F8250022F04AF8A4
:1046000030A24FF4A571B42048E611B101290DD0B4
:10461000ABE222F007F822A20A214FF48270FFF7E2
:104620002BF8607922F036F822A20CE01C9821F0D9
:10463000F9FF1CA20A214FF48270FFF71DF8607F7A
:1046400022F028F81EA20A21ADE30000303033002A
:1046500030313100303139003032370030333500FD
:10466000100301203030340030313200303230005D
:10467000303238003033360000FFFF005468657276
:104680006D6F636F75706C65206D6F64656C000095
:10469000C8C8B5E7C5BCD0CDBAC5D1A1D4F100001A
:1046A00030303500303239003031330030323100B3
:1046B00030333700303036003031340030323200A1
:1046C000303330003033380021F0ACFFAFF230022D
:1046D0000A214FF48270FFF705F8607921F0DAFFC4
:1046E000AFF230020A2171E3F7480726407932B170
:1046F000012A59D0022A7FF439ACB1B3FBE341B1AE
:1047000001290BD002290FD0032913D0042917D077
:10471000F1E321F087FFAFF2640216E00F9821F079
:1047200081FFAFF26C0210E0109821F07BFFAFF236
:1047300074020AE0119821F075FFAFF27C0204E0E8
:10474000149821F06FFFAFF284024FF4A571B420EA
:104750000EF0BEFE687B48B101280CD002280FD0B5
:10476000032812D0042815D0C5E33FE0A07921F03A
:1047700091FFD6A213E0A07B21F08CFFD4A20EE023
:10478000A07D21F087FFD3A209E0A07F21F082FF66
:10479000D1A204E094F8260021F07CFFCFA24FF4D0
:1047A000A5714FF4827079E511B101290ED0A2E311
:1047B00021F038FFAFF204120A214FF49670FEF791
:1047C0005BFFA07921F066FFC0A20DE0119821F0F7
:1047D00029FFAFF214120A214FF49670FEF74CFF36
:1047E000A07F21F057FFBCA20A211EE321F01AFF8F
:1047F000AFF240120A214FF49670FEF773FFA079D2
:1048000021F048FFB1A20A2122E3AF48807932B1FA
:10481000012A57D0022A7FF4F6AB91B389E041B167
:1048200001290AD002290DD0032910D0042913D060
:104830007FE021F0F7FEA5A212E0239821F0F2FE1E
:10484000A3A20DE0129821F0EDFEA2A208E02198AB
:1048500021F0E8FEA0A203E0139821F0E3FE9FA25E
:104860004FF4A5714FF482700EF032FE687B48B1B0
:1048700001280CD002280FD0032812D0042815D00C
:1048800057E045E0E07921F005FF95A213E0E07BD9
:1048900021F000FF93A20EE0E07D21F0FBFE92A24A
:1048A00009E0E07F21F0F6FE90A204E094F82700F2
:1048B00021F0F0FE8EA24FF4A5714FF4AA700EF015
:1048C00007FE36E011B101290DD032E021F0AAFE39
:1048D0007EA20A214FF4AA70FEF7CEFEE07921F005
:1048E000D9FE7FA20CE0219821F09CFE7AA20A2139
:1048F0004FF4AA70FEF7C0FEE07F21F0CBFE7BA252
:104900000A214FF4BE70FEF7B7FE12E050E160E1FD
:1049100021F088FE6DA20A214FF4AA70FEF7E2FE94
:10492000E07921F0B7FE6EA20A214FF4BE70FEF7C7
:10493000D9FE0820D4E26448C07932B1012A5CD0A3
:10494000022A7FF455AA91B302E141B101290AD0AC
:1049500002290DD0032910D0042913D04BE021F0F7
:1049600061FE5FA212E0159821F05CFE5DA20DE0F1
:10497000169821F057FE5CA208E0179821F052FE2D
:104980005AA203E0189821F04DFE59A24FF4A571E8
:104990004FF4AA700EF09CFD687B48B101280DD041
:1049A000022811D0032815D0042819D023E065E08F
:1049B000207921F06FFEAFF2183217E0207B21F052
:1049C00069FEAFF21C3211E0207D21F063FEAFF2F0
:1049D00024320BE0207F21F05DFEAFF2383205E09B
:1049E00094F8240021F056FEAFF23C324FF4A5714A
:1049F00064200EF06DFD052015E0C1B10129A0D1A4
:104A0000179821F00FFE39A20A214FF4BE70FEF76D
:104A100033FE207E21F03EFEAFF648020A216420DC
:104A2000FEF72AFE0120287325B0BDE8F08F21F0A3
:104A3000F9FD2BA20A214FF4BE70FEF71DFE1BE507
:104A4000AFF6CC0237E5AFF6C80234E5AFF6C802E0
:104A500031E5AFF6C4022EE5AFF6C4022BE5AFF6A2
:104A6000C00228E5AFF6C00225E5AFF6BC0222E59C
:104A7000AFF6BC021FE5AFF6B8021CE521F0D2FD8F
:104A800017A20A214FF4BE70FEF72CFE00200FF093
:104A900023F918480FF004F994F8290002282CD0C3
:104AA00001282DD003282ED004282FD0052830D05F
:104AB000062831D0072832D0082833D0092834D02E
:104AC0000B2835D03AE0B3E0100301203030370036
:104AD000303135003032330030333100303339007B
:104AE000303038003031360030323400303332006C
:104AF0003034300000FFFF00ABE0AFF6841219E065
:104B0000AFF6841216E0AFF6801213E0AFF6801213
:104B100010E0AFF67C120DE0AFF67C120AE0AFF6C3
:104B2000781207E0AFF6781204E0AFF6741201E0F5
:104B3000AFF6741264212F200EF094FC94F830002C
:104B400048B1AFF2C84000BF02F070FB00202873EC
:104B500007F0A2F868E7AFF2C840F5E70A26012A95
:104B600004D0022A7FF44FAA29B3C4E111B101296C
:104B70000ED0C0E121F056FDAFF6B012D221642074
:104B8000FEF77AFD607A21F085FDAFF694120EE013
:104B9000704621F047FDAFF6C012D2216420FEF727
:104BA0006BFD94F8210021F075FDAFF6A812D2211B
:104BB0008C20FFF797BB21F035FDAFF6F012862170
:104BC0006420FEF78FFD607A21F064FDAFF6D81205
:104BD00086218C20FFF798BB0B26012A05D0022ADC
:104BE000C0D139B387E160E070E011B101290FD085
:104BF00081E1099821F016FDAFF60422D2218C2024
:104C0000FEF73AFDA07A21F045FDAFF2BC520EE06E
:104C10000C9821F007FDAFF61422D2218C20FEF76C
:104C20002BFD94F8220021F035FDAFF2D052D221B5
:104C3000B420BEE7099821F0F5FCAFF644228621A6
:104C40008C20FEF74FFDA07A21F024FDAFF2006228
:104C50008621B420BEE70C26012A03D0022ABFD148
:104C600029B348E111B101290FD044E1199821F08D
:104C7000D9FCAFF22462D221B420FEF7FDFCE07A29
:104C800021F008FDAFF220620EE00E9821F0CAFC80
:104C9000AFF23862D221B420FEF7EEFC94F8220085
:104CA00021F0F8FCAFF23462D221DC2081E71998C0
:104CB00021F0B8FCAFF268628621B420FEF712FD45
:104CC000E07A21F0E7FCAFF260628621DC2081E728
:104CD0000D26012A03D0022AC1D131B30BE111B153
:104CE00001290FD007E11F9821F09CFCAFF28862E8
:104CF000D221DC20FEF7C0FC207B21F0CBFCAFF200
:104D000058620EE0249821F08DFCAFF29862D22117
:104D1000DC20FEF7B1FC94F8240021F0BBFCAFF2DC
:104D20007062D2214FF4827043E71F9821F07AFC21
:104D3000AFF2CC628621DC20FEF7D4FC207B21F090
:104D4000A9FCAFF29C6286214FF4827042E70E26E6
:104D5000012A03D0022ABFD141B3CCE011B101290D
:104D600010D0C8E01A9821F05DFCAFF2C462D221E5
:104D70004FF48270FEF780FC607B21F08BFCAFF279
:104D8000C8620FE01D9821F04DFCAFF2DC62D22129
:104D90004FF48270FEF770FC94F8250021F07AFC45
:104DA000AFF2E062D2214FF4967002E71A9821F038
:104DB00039FCAFF20C7286214FF48270FEF792FC40
:104DC000607B21F067FCAFF2107286214FF4967081
:104DD00000E70F26012A03D0022ABCD141B38AE0A2
:104DE00011B1012910D086E00F9821F01BFCAFF221
:104DF0003872D2214FF49670FEF73EFCA07B21F072
:104E000049FCAFF234320FE0149821F00BFCAFF202
:104E10004C72D2214FF49670FEF72EFC94F82600C7
:104E200021F038FCAFF24C32D2214FF4AA70C0E628
:104E30000F9821F0F7FBAFF2807286214FF4967045
:104E4000FEF750FCA07B21F025FCAFF27C328621DE
:104E50004FF4AA70BEE6012A03D0022ABDD151B395
:104E60003DE011B1012910D039E0239821F0DAFB9F
:104E7000AFF2A432D2214FF4AA70FEF7FDFBA07B63
:104E800021F008FCAFF2A4320FE0139821F0CAFB26
:104E9000AFF2B832D2214FF4AA70FEF7EDFB94F8CE
:104EA000270021F0F7FBAFF2B832D2214FF4BE70E9
:104EB000FEF7E2FB13E0239821F0B4FBAFF2F032EF
:104EC00086214FF4AA70FEF70DFCE07B21F0E2FB97
:104ED000AFF2F03286214FF4BE70FEF703FC1020D3
:104EE0003CE30926012A03D0022AB7D149B302E0E4
:104EF00021B1012912D02E73FFF785B8159821F042
:104F000091FBAFF22042D2214FF4BE70FEF7B4FB0A
:104F1000207A21F0BFFBAFF64C520FE0189821F039
:104F200081FBAFF23442D2214FF4BE70FEF7A4FBF6
:104F300094F8200021F0AEFBAFF66452D221642039
:104F400037E6159821F06EFBAFF2684286214FF4E8
:104F5000BE70FEF7C7FB207A21F09CFBAFF694529F
:104F60008621642036E64FF01208012A03D0022A77
:104F7000C2D189B136E1184621F054FBAFF6B052E8
:104F800031466420FEF778FB607C21F083FBAFF6AE
:104F9000945231468C2028E0184621F043FBAFF6AE
:104FA000D05239466420FEF79DFB607C21F072FBF5
:104FB000AFF6B85239468C202AE04FF01308012A88
:104FC00003D0022A98D199B10CE10A9821F02AFB6A
:104FD000AFF6D85231468C20FEF74EFBA07C21F074
:104FE00059FBAFF690123146B420FEF745FBF9E0CD
:104FF0000A9821F017FBAFF6FC5239468C20FEF7D9
:1050000071FBA07C21F046FBAFF6B8123946B42004
:10501000FEF768FBE6E04FF01408012A03D0022AED
:10502000A6D189B1DEE01E9821F0FCFAAFF6DC12C1
:105030003146B420FEF720FBE07C21F02BFBAFF6DD
:10504000D4123146DC20D0E71E9821F0EBFAAFF6FF
:10505000FC123946B420FEF745FBE07C21F01AFB38
:10506000AFF6F8123946DC20D2E74FF01508012AD6
:1050700003D0022AA6D191B1B4E0209821F0D2FA4F
:10508000AFF618223146DC20FEF7F6FA207D21F03B
:1050900001FBAFF6E81231464FF48270A5E7209885
:1050A00021F0C0FAAFF63C223946DC20FEF71AFBAD
:1050B000207D21F0EFFAAFF60C2239464FF48270D2
:1050C000A6E74FF01608012A03D0022AA8D199B109
:1050D00088E01B9821F0A6FAAFF6302231464FF453
:1050E0008270FEF7C9FA607D21F0D4FAAFF634225F
:1050F00031464FF4967078E71B9821F093FAAFF69B
:10510000542239464FF48270FEF7ECFA607D21F0AC
:10511000C1FAAFF6582239464FF4967078E74FF04F
:105120001708012A03D0022AA4D199B15AE0109895
:1051300021F078FAAFF67C2231464FF49670FEF7F4
:105140009BFAA07D21F0A6FAAFF2786231464FF4C7
:10515000AA704AE7109821F065FAAFF6A022394606
:105160004FF49670FEF7BEFAA07D21F093FAAFF2ED
:105170009C6239464FF4AA704AE74FF01808012A9A
:1051800003D0022AA2D199B12CE0129821F04AFA58
:10519000AFF2C06231464FF4AA70FEF76DFAE07DBF
:1051A00021F078FAAFF2C06231464FF4BE701CE7CE
:1051B000129821F037FAAFF2E46239464FF4AA7040
:1051C000FEF790FAE07D21F065FAAFF2E46239462D
:1051D0004FF4BE701CE74FF01108012A05D0022AD7
:1051E000A2D199B185F80C8086E6169821F01AFABA
:1051F000AFF20C7231464FF4BE70FEF73DFA207CE0
:1052000021F048FAF74A31466420EEE6169821F07C
:1052100009FAAFF22C7239464FF4BE70FEF762FA0B
:10522000207C21F037FAEF4A39466420F0E6022A62
:10523000DAD191B9584621F0F5F9EA4A4E46121DE5
:1052400049466420FEF74EFA607E21F023FAE54AD3
:10525000314630328C20FEF745FA1A207EE1022AD0
:10526000C2D191B90B9821F0DDF9DE4A4E463032B9
:1052700049468C20FEF736FAA07E21F00BFAAFF6F5
:1052800028423146B420FEF72DFA1B2066E1022A9F
:10529000AAD191B90D9821F0C5F9AFF644424E4616
:1052A0004946B420FEF71EFAE07E21F0F3F9AFF68E
:1052B00040423146DC20FEF715FA1C204EE1022A5E
:1052C00092D199B9229821F0ADF9AFF65C424E46E1
:1052D0004946DC20FEF706FA207F21F0DBF9AFF625
:1052E0003C4231464FF48270FEF7FCF91D2035E157
:1052F000022A9DD1A1B91C9821F094F9AFF65C4225
:105300004E4649464FF48270FEF7ECF9607F21F07B
:10531000C1F9AFF6544231464FF49670FEF7E2F908
:105320001E201BE1022A9BD1A1B9119821F07AF924
:10533000AFF674424E4649464FF49670FEF7D2F9E6
:10534000A07F21F0A7F9AFF6700231464FF4AA70A2
:10535000FEF7C8F91F2001E1022A99D1A1B92198CD
:1053600021F060F9AFF690024E4649464FF4AA701C
:10537000FEF7B8F9E07F21F08DF9AFF690023146E3
:105380004FF4BE70FEF7AEF92020E7E0022A97D175
:1053900099B9179821F046F9AFF6B0024E46494642
:1053A0004FF4BE70FEF79EF9207E21F073F98D4A0E
:1053B0003146121D6420FEF795F91920CEE0022A2D
:1053C00097D199B9704621F02DF9864A5646083290
:1053D00051466420FEF786F994F8210021F05AF92D
:1053E000804A314634328C20FEF77CF92220B5E029
:1053F000022A98D199B90C9821F014F9794A5646A5
:10540000343251468C20FEF76DF994F8220021F0D9
:1054100041F9AFF6B8523146B420FEF763F92320C4
:105420009CE0022A99D199B90E9821F0FBF8AFF6C9
:10543000D45256465146B420FEF754F994F823004E
:1054400021F028F9AFF6D4523146DC20FEF74AF9B4
:10545000242083E0022A9AD1A1B9249821F0E2F80D
:10546000AFF6F05256465146DC20FEF73BF994F871
:10547000240021F00FF9AFF6C85231464FF4827084
:10548000FEF730F9252069E0022A99D1A9B91D98C3
:1054900021F0C8F8AFF6E852564651464FF48270F4
:1054A000FEF720F994F8250021F0F4F8AFF6EC525D
:1054B00031464FF49670FEF715F926204EE0022A89
:1054C00097D1A9B9149821F0ADF8AFF60862564605
:1054D00051464FF49670FEF705F994F8260021F036
:1054E000D9F8AFF6082231464FF4AA70FEF7FAF861
:1054F000272033E0022A95D1A9B9139821F092F818
:10550000AFF62822564651464FF4AA70FEF7EAF845
:1055100094F8270021F0BEF8AFF62C2231464FF464
:10552000BE70FEF7DFF8282018E0022A93D1A1B957
:10553000189821F077F8AFF64822564651464FF4B6
:10554000BE70FEF7CFF894F8200021F0A3F8254AAA
:10555000314608326420FEF7C5F821202873CBE4D9
:105560004FF4FA76BCF1320F71D016DCBCF12C0F7F
:1055700048D0BCF12D0F6BD0BCF12E0F69D0BCF11F
:10558000310F7FF451AA21F06FF894F82E0040B348
:1055900001286FD002286ED07AE1BCF15F0F6BD08A
:1055A000BCF1610F69D0BCF1620FEAD121F05CF867
:1055B00094F83B3094F83A200BA101A8303420F045
:1055C000F7F801AA9621F8200DF04CFF607926F03B
:1055D000C3F92078D0B307A001F028FE3320FFF7ED
:1055E00022BA3FE1D041000825302E32643A2530FE
:1055F0002E3264005265636F726420696E74657246
:1056000076616C0021F030F894F82C00002894F8B2
:1056100030001FD018B3F9A2962132200DF022FFDE
:1056200021F048F894F82A00002894F8300018D0A7
:10563000E0B1F2A296215A200DF014FF94F8300048
:10564000B0B1EFA001F0F2FD2D20C8E708E147E17D
:1056500014E05FE008B1EEA2DEE7EEA2DCE7EFA225
:10566000DAE708B1EAA2E5E7EAA2E3E7EBA2E1E7BD
:10567000ECA0E7E7FDE003E196E0C6E020F0F4FFF0
:1056800094F82A00002894F8300027D058B3DBA201
:1056900096215A200DF0E6FEE54801460EF006FB85
:1056A0001F2318227F2196200EF01EF894F82B005D
:1056B00005281AD004284FF0000020D00EF00CFB73
:1056C000DCA29B217F200DF0CDFE94F83000F8B1D4
:1056D000D9A000BF01F0AAFD2E2080E708B1CCA21E
:1056E000D6E7CCA2D4E7CDA2D2E700200EF0F4FAA0
:1056F000D7A296217F20FDF7F5FFD6A2E1E70EF0B5
:10570000EBFAD3A296217F20FDF7ECFFBFA2D8E7EA
:10571000D1A0DFE7882108460EF0C8FA1F2318221F
:105720007F2196200DF0E0FF94F82B0005281FD074
:105730000428BF4826D00EF0CFFABEA29B217F20BE
:105740000DF090FE20F0B6FF94F83600002894F893
:10575000300020D020B3A9A29621AA200DF082FE0D
:1057600094F83000F0B1C0A001F060FD5F2036E792
:10577000AF480EF0B1FAB6A296217F20FDF7B2FF36
:10578000B4A2DBE70EF0A8FAB1A296217F20FDF7C4
:10579000A9FF9EA2D2E708B19DA2DDE79DA2DBE7AB
:1057A0009EA2D9E7B3A0DFE720F05EFF94F83600B1
:1057B000002894F830001FD018B390A29621AA2098
:1057C0000DF050FE20F076FF94F8393094F8382030
:1057D000AFF2EC1101A830341FF0EAFF01AA9621C4
:1057E000D0200DF03FFE207868B1A5A001F01EFD8D
:1057F000012068706120F2E608B185A2DEE785A28B
:10580000DCE786A2DAE7A0A0F0E720F02DFF94F80D
:10581000393094F83820AFF2302101A830341FF02D
:10582000C7FF01AA9621D0200DF01CFE20F042FFF8
:10583000E37AA27AAFF2502101A81FF0B9FF01AAC2
:105840009621F8200DF00EFE207838B192A000BF0E
:1058500001F0ECFC012068706220C0E68FA0F7E741
:1058600092A0B9E694F8300008B194A20CE095A299
:105870000AE094F8300008B194A205E094A203E095
:1058800094F8300090B194A2314632200DF0EAFD38
:1058900020F010FF94F82F0050B101280AD0022800
:1058A0000AD003280AD004280AD00EE08CA2EBE725
:1058B0008DA206E08EA204E08FA202E090A200E09A
:1058C00091A2314657200DF0CDFD94F8300028B15B
:1058D0008FA000BF01F0AAFC322080E691A0F9E77A
:1058E00020F0C2FE94F82F0040B1012808D0022811
:1058F00008D0032808D0042808D00CE07AA206E0DB
:105900007BA204E07CA202E07DA200E07EA2314600
:1059100057200DF0A7FD20F0CDFE94F837000028A9
:1059200094F830000ED090B134A2314682200DF0B0
:1059300099FD94F8300060B17DA000BF01F076FCC5
:1059400060204CE608B132A2EFE732A2EDE733A2C5
:10595000EBE779A0F2E77B4C7B4E7C4894ED212A63
:10596000D6ED214AC07B96ED194AD6ED113A96ED57
:10597000093AD6ED012AD4ED191A94ED111AD4ED95
:10598000090A94ED010AACF1380CBCF10F0FBFF419
:105990004BA8DFE80CF00AF6E8E7E6E5E408E3E206
:1059A000E1E0DFDEDD00FFF73FB840B101280CD0B9
:1059B000022812D0032818D004281ED0DFE00220CD
:1059C00021F0C4FC94ED000AD6E0B0EE600A02209B
:1059D00021F0BCFC94ED080ACEE0B0EE410A0220B2
:1059E00021F0B4FC94ED100AC6E0B0EE610A02208A
:1059F00021F0ACFC94ED180ABEE0B6E04F4E00007A
:105A000042757A7A6572204F4E2F4F46460000004D
:105A10004F464600B9D8B1D500000000B4F2BFAA85
:105A200000000000B7E4C3F9C6F7C9E8D6C3000018
:105A300000FFFF004B00000053656C656374207429
:105A4000656D706572617475726520756E6974003C
:105A50006F00000043000000CEC2B6C8B5A5CEBBA3
:105A6000D1A1D4F100000000547269672054696D1F
:105A700065720000B6A8CAB1B2C9BCAF0000000090
:105A80005354415254000000B2C9BCAFBFAACABCB3
:105A9000CAB1BCE400000000454E4400B2C9BCAF2E
:105AA000BDE1CAF8CAB1BCE400000000BCC7C2BC7A
:105AB000BCE4B8F4CAB1BCE4000000004641535451
:105AC00000000000BFECCBD9000000004D454400B1
:105AD000D6D0CBD900000000534C4F570000000037
